:0300000002825C1D
:0C825C00787FE4F6D8FD7581790282A3DA
:1047EC000D0A507265762E46573A253032782530B0
:1047FC00327825303278000D0A437572722E465786
:10480C003A253032782530327825303278000D0A4E
:10481C0043616E6E6F7420616363657373204545ED
:10482C0050524F4D21212121000D0A4E6F20696EEF
:10483C00697469616C697A65000D0A484152445784
:10484C004152455F564552204552524F52000D0A77
:10485C0048415244574152455F5645523D256400EC
:10486C00285345545F4D43555F504F5745525F4455
:10487C004F574E5F4D4F44452920000D0A28534594
:10488C00545F50574D3D253032782076616C3D2574
:10489C003032782900282A4456524368616E676585
:1048AC0043757272656E743D3330306D412900284A
:1048BC002A4456524368616E676543757272656E21
:1048CC00743D313030306D4129000D0A3D3D3D3D88
:1048DC003D3D3D3D3D3D3D3D3D3D3D3D3D3D3D3DFC
:1048EC003D3D3D3D3D3D3D3D3D3D3D3D3D3D000D59
:1048FC000A53797374656D20686173206265656E07
:10490C0020776F726B696E6720666F72202564204A
:10491C00646179732C20256420686F7572732C2068
:10492C002564206D696E7574657320616E64202535
:10493C0064207365636F6E6473000D0A537973742E
:10494C00656D20686173206265656E20776F726B90
:10495C00696E6720666F7220256420686F757273AC
:10496C002C202564206D696E7574657320616E64EE
:10497C00202564207365636F6E6473000D0A537990
:10498C007374656D20686173206265656E20776F46
:10499C00726B696E6720666F72202564206D696E7C
:1049AC007574657320616E64202564207365636F74
:1049BC006E6473000D0A53797374656D20686173AE
:1049CC00206265656E20776F726B696E6720666F0B
:1049DC0072202564207365636F6E6473000D0A2862
:1049EC00426174746572794254483D25642825648B
:1049FC002E2564562929002854454D505F484947B7
:104A0C0048290028484947485F544D45505F574155
:104A1C00524E29002854454D505F4C4F57290028C1
:104A2C004C4F575F544D45505F5741524E2900280B
:104A3C0054454D505F4E4F524D414C29000D0A28A4
:104A4C00426174746572794341503D256428256434
:104A5C002E253034645629292825645629002848E7
:104A6C004947485F4348415247452900284C4F5716
:104A7C005F4348415247452900284E4F524D414C07
:104A8C005F43484152474529002853544F505F43D8
:104A9C0048415247452900284348415247455F4EFB
:104AAC004F5F424154542900285F424154545F5394
:104ABC0054415455535F43415041434954595F4C01
:104ACC004556454C302900285F424154545F53549D
:104ADC00415455535F43415041434954595F4C45F0
:104AEC0056454C312900285F424154545F53544180
:104AFC005455535F43415041434954595F4C4556BB
:104B0C00454C322900285F424154545F5354415460
:104B1C0055535F43415041434954595F4C455645A9
:104B2C004C332900285F424154545F53544154552F
:104B3C00535F43415041434954595F4C4556454C92
:104B4C00342900285F424154545F53544154555307
:104B5C005F43415041434954595F4D494E29002808
:104B6C005F424154545F5354415455535F43415039
:104B7C0041434954595F4D41582900285F424154E3
:104B8C00545F5354415455535F434150414349542E
:104B9C00595F4D41585F53544F502900284241549E
:104BAC00544552595F43415041434954595F4E4F0C
:104BBC005F535441525455502900285F424154547C
:104BCC005F5354415455535F4E4F5F4241545429E7
:104BDC0000284348415247455F544D45505F414280
:104BEC004E4F524D414C29000D0A285F504F5745EE
:104BFC00525F5354415455535F534156494E4729C4
:104C0C00000D0A285F504F5745525F53544154557D
:104C1C00535F4F464629000D0A285F504F574552A7
:104C2C005F5354415455535F4E4F524D414C2900E4
:104C3C000D0A28504F5745525F5354415455533D1C
:044C4C0025642900B2
:106F92004102D4004102D5004102C5004102C900AC
:106FA2004102CA004102C3004102BB004102D600B5
:106FB2004102C00002400000014600C101C180023E
:106FC200470000014400014500027400000469000A
:106FD200000000046D00000000C1044102BC010178
:106FE2007200014200014300C102C1034102C60016
:106FF2004102BD004102CB004402D000000000412A
:1070020002CE004102CF004202CC00004202C70081
:01701200007D
:10762C00128842900106122B217F047E00128D7B62
:10763C007E00C007C0067F05128D7B7E00C007C090
:10764C00067F06128D7B900131E4F0A3EFF09001E0
:10765C002FD0E0F0A3D0E0F090012DD0E0F0A3D03B
:10766C00E0F07BFF7A4779EC128AAC128842E47B1B
:10767C00377A01F9F8C3122AB660617BFF7A487930
:10768C0003E490012DF0A3F0A3F0A304F0A3E4F025
:10769C00A37437F0128AAC128ED37F047E00128D45
:1076AC007B7E00C007C0067F05128D7B7E00C00765
:1076BC00C0067F06128D7B900131E4F0A3EFF090B1
:1076CC00012FD0E0F0A3D0E0F090012DD0E0F0A39A
:1076DC00D0E0F07BFF7A487903128AAC128842E43E
:1076EC007B377A01F9F8C3122AB6700B1288D6EFE1
:1076FC00701E127A8480197BFF7A48791A128AAC30
:10770C007BFF7A487935128AAC9001DB74FFF0224A
:10771C007F087E00128D7BEF6401600C7BFF7A4842
:10772C007945128AAC127A847F087E00128D7B9088
:10773C00012DE4F0A3EFF07BFF7A48795A128AAC62
:10774C007F64128F067811E6540F4410F654F044FF
:02775C0002F633
:01775E002208
:10870200758DF4759850758922758855758A4075EE
:108712008C4075878075B80275A892D299D2ACE464
:10872200F5C8C2CAD2AD75AA5075BAF443A61843A9
:10873200AD10C203F5E9F5F975D90443D840439366
:10874200A04391C475964075B10CF5B275B30CF5A2
:02875200B4224F
:108C9C007BFF7A48796C128AACD2C2C2C1D2C0D2E4
:108CAC00C6C2C5D2C49002C0E5A8F075A8809001D8
:0F8CBC00C57401F0D2E8D2E9758782000000226A
:108E800020850320EA137F327E00128EF1208503B5
:0C8E900020EA037F01227F00227F0022E5
:1081340090010BEFF0A3EDF07BFF7A487987900173
:108144002DE4F0A3EFF0EDFFA3E4F0A3EFF0128A27
:10815400AC90010BE0606D24EB6053241660612445
:10816400EB706475EC8090010CE0FFC374FF9FF525
:10817400FC75DC42EF7004F5DCC2949001BCE06451
:1081840010701175EC8075FC6675DC427BFF7A48D3
:1081940079A180179001BCE06411702B75EC807597
:1081A400FCFF75DC427BFF7A4879BB028AAC75ED33
:1081B4008090010CE0FFC374FF9FF5FD75DD422242
:0881C40043D8402253D84022A9
:03000B0002547C20
:0D547C00C0E0C0F0C083C082C0D075D00871
:1054890005730545C3E545940A74809480401390DB
:10549900022FE004F0700690022EE004F07545003A
:1054A900D2099002C4E0600214F09002C4E06003E3
:1054B9000256F6E5B0540C13135403FF9002D3E0DF
:1054C9006F70030256F69002D1E09002D0F090027C
:1054D900D2E09002D1F09002D3E09002D2F0A3EF93
:1054E900F0D2059001C4E064019002C47005740C07
:1054F900F080037430F09002D0E0FF7E00702EA39C
:10550900E064017028A3E064037022A3E0640270E0
:105519001C9002CDE004F070069002CCE004F090FB
:1055290002C8E004F070069002C7E004F0EF6401DD
:105539004E702E9002D1E064037026A3E0640270DD
:1055490020A3E0701C9002CDE004F070069002CC1C
:10555900E004F09002C8E004F070069002C7E0048D
:10556900F09002D0E06403702CA3E064027026A3DB
:10557900E07022A3E06401701C9002CDE004F07099
:10558900069002CCE004F09002C8E004F0700690A6
:1055990002C7E004F09002D0E0FF7E006402702CA4
:1055A900A3E07028A3E064017022A3E06403701CE7
:1055B9009002CDE004F070069002CCE004F0900275
:1055C900C8E004F070069002C7E004F0EF4E7030B6
:1055D9009002D1E064027028A3E064037022A3E082
:1055E9006401701C9002CDE024FFF09002CCE034FD
:1055F900FFF09002C8E004F070069002C7E004F0E2
:105609009002D0E06402702CA3E064037026A3E04A
:1056190064017020A3E0701C9002CDE024FFF0909B
:1056290002CCE034FFF09002C8E004F0700690026A
:10563900C7E004F09002D0E0FF7E006403702CA361
:10564900E064017026A3E07022A3E06402701C905C
:1056590002CDE024FFF09002CCE034FFF09002C8C4
:10566900E004F070069002C7E004F0EF64014E70A8
:105679002E9002D1E07028A3E064027022A3E064B6
:1056890003701C9002CDE024FFF09002CCE034FFBF
:10569900F09002C8E004F070069002C7E004F090B0
:1056A90001C4E064017011C39002C8E094909002B3
:1056B900C7E094014037800FC39002C8E0943C9042
:1056C90002C7E0940040269001A8E0FCA3E0FDA3F6
:1056D900E0FEA3E02401FFE43EFEE43DFDE43CFCE2
:1056E9009001A8122B219002C7E4F0A3F0D3E5732F
:1056F9009460748094805003025822054AE54A70E8
:105709000205497573000544E54464647010F54465
:10571900E5469002C66005E004F08002E4F0E57514
:10572900F47003E574F460080575E5757002057495
:10573900AF70AE6FAD6EAC6DEC4D4E4F6014EF2493
:10574900FFF570EE34FFF56FED34FFF56EEC34FFC5
:10575900F56D9002BEE07002A3E0600E9002BFE01A
:1057690024FFF09002BEE034FFF0E5E8F4FF1313E4
:1057790013541F30E079E54164324540701A9001B5
:10578900ACE0600B7811E6FFC4540F6407705675DE
:105799004601C200D201804DE541642C7004E54008
:1057A900640170219002CEE0640170199001ACE0AF
:1057B9006401701130002E754601D2019002CF04A8
:1057C900F0C2008020E541B4201BE540B403163047
:1057D900000D754601D2019002D67401F0C2007520
:1057E90040007541330541E541702E0540802AC3CB
:1057F900E5419432E540940040129001ACE0640127
:10580900700A300007754601D2018005754600C24D
:0958190001D20075400075410048
:0B582200D0D0D082D083D0F0D0E03294
:104C50007BFF7A4879D67F011286AA9002C9E0FFCD
:104C600060327BFF7A4879FB90013AE4F0A3EFF0E1
:104C70009002CAE0FF90013CE4F0A3EFF09002C381
:104C8000E0FF90013EE4F0A3EFF09002BBE0FF9064
:104C9000014080579002CAE0FF60257BFF7A497986
:104CA0004690013AE4F0A3EFF09002C3E0FF9001D8
:104CB0003CE4F0A3EFF09002BBE0FF90013E802BBC
:104CC0009002C3E0FF7BFF60167A49798890013A31
:104CD000E4F0A3EFF09002BBE0FF90013C800C7A7F
:104CE0004979C09002BBE0FF90013AE4F0A3EFF0F5
:104CF0007F031286AA900272E0FEA3E0FF90013AC1
:104D0000EEF0A3EFF07805C333CE33CED8F9FBAA8B
:104D1000067C277D10FF12283C90013CEEF0A3EFAB
:104D2000F07C277D10AF03AE0212283CA3ECF0A369
:104D3000EDF07BFF7A4979E97F021286AA9001B7EC
:104D4000E0541F6406700A7BFF7A4A79037F018072
:104D5000429001B8E0C31313500A7BFF7A4A790FDF
:104D60007F03802F9001B7E0541F6408700A7BFF17
:104D70007A4A79207F04801B9001B8E01313543FD6
:104D8000137BFF50087A4A792B7F0380067A4A7991
:104D90003B7F021286AA9001B9E0541F6409706F2C
:104DA000A3E0FEA3E07805C333CE33CED8F9246A5E
:104DB000FFEE34FFFE7C277D1012283C7E007F64CE
:104DC000CFCDCFCECCCE12283CAA06AB079001BAED
:104DD000E0FEA3E07805C333CE33CED8F9246AFFD2
:104DE000EE34FFFE7C277D1012283C7C007D64128F
:104DF000282AEF2BFFEE3AFE90010AF0A3EFF07D98
:104E00003712282A7D6412283C90010AEE807190A6
:104E100001BAE0FEA3E0FF7C007D3B12282A7D64FE
:104E200012283CEF25E0FBEE33FA9001BAE0FEA336
:104E3000E0FF7C007D3B12282A7D6412283CEF2B8A
:104E4000FFEE3AFE90010AF0A3EFF07C037DE8123A
:104E5000283CEF4E90010A6017E0FEA3E0FF7C00C3
:104E60007D0A12283CEF2401FFE43E90010A8010E5
:104E7000E0FEA3E0FF7C007D0A12283C90010AEED0
:104E8000F0A3EFF09001BAE0FEA3E0FF90013AEE4C
:104E9000F0A3EFF07C007D2112282AAA06AB077C44
:104EA000277D1012283CA3EEF0A3EFF07C277D10A5
:104EB000AF03AE0212283CA3ECF0A3EDF090010A80
:104EC000E0FFA3E0900140CFF0A3EFF07BFF7A4A30
:104ED00079497F051286AA9001B9E0541F640D70CC
:104EE0000A7BFF7A4A796A7F02804E9001B9E054CA
:104EF0001F640E700A7BFF7A4A79787F03803A90AC
:104F000001B9E0541F640F700A7BFF7A4A79857FEC
:104F10000580269001B9E0541F6410700A7BFF7A67
:104F20004A79957F0180129001B9E0541F6409709D
:104F30000B7BFF7A4A79A37F011286AA9001B6E023
:104F4000541F640470087BFF7A4A79B4804490014E
:104F5000B6E0541F640370087BFF7A4A79D380322D
:104F60009001B6E0541F640270087BFF7A4A79F220
:104F700080209001B6E0541F640170087BFF7A4BDB
:104F80007911800E9001B6E0541F700A7BFF7A4BB6
:104F900079307F0280629001B6E0541F6415700A78
:104FA0007BFF7A4B794F7F04804E9001B6E0541F0F
:104FB0006416700A7BFF7A4B796B7F06803A90010A
:104FC000B6E0541F6417700A7BFF7A4B79877F0520
:104FD00080269001B6E0541F6418700A7BFF7A4B5C
:104FE00079A87F0580129001B6E0541F6409700B08
:104FF0007BFF7A4B79C67F011286AA9001B8E01335
:105000001313541F13500B7BFF7A4B79DD7F011272
:1050100086AA7811E6C4540F640770087BFF7A4BA8
:1050200079F480377811E6C4540F640170087BFF6F
:105030007A4C790D80257811E6C4540F64027BFF09
:1050400070067A4C792380137A4C793C7811E6C447
:10505000540FFF90013AE4F0A3EFF07F061286AA06
:0B5060007BFF7A4879D67F010286AA08
:108F1E00E4FFEFC3941D74809480500974222FF8DF
:058F2E00E4F60F80EDE8
:018F3300221B
:10856C00EF24E3B40A00507090858275F003A4C523
:10857C008325F0C583730285AC0285A00285AA020F
:10858C0085A50285AE0285E40285B60285C002850A
:10859C00CD0285D9D2E9D2E822D2E8C2E9228005FF
:1085AC00801530E817C2E8D2E92230E905C2E9D2D9
:1085BC00E822800830E805C2E8C2E922D2E8D2E914
:1085CC002230E904C2E98002D2E9C2E82230E80490
:0985DC00C2E88002D2E8C2E922E3
:03001300020026C2
:03002600C2AA3239
:03002300028CCB81
:108CCB00C0E0C0D075D008309819744B2571F8A648
:108CDB00990571C3E571941E74809480400375717E
:0F8CEB0000C298309904C299C202D0D0D0E032B2
:03006300028AEA24
:108AEA00C0E0C0D075D008E5AA54016401701A53D9
:108AFA00AAFE74222542F8A69A0542C3E542941EAC
:108B0A00748094804003754200E5AA54026402709E
:0B8B1A000553AAFDC203D0D0D0E0320A
:0B8FD400E571B572037F00227F0122CF
:108E9C00C2AC744B2572F8E6FF0572E572C3941EE2
:0B8EAC00748094804003E4F572D2ACA7
:018EB7002298
:0B8FDF00E542B543037F00227F012222
:108E620053ADEF74222543F8E6FF0543E543C3946F
:0D8E72001E748094804003E4F54343AD106E
:018E7F0022D0
:080003002002FD8F99D20222B8
:088FF3002003FD8F9AD2032236
:03002B00028FB988
:0F8FB900C0E0C2CF0548E54870020547D0E0325E
:108F0600E5442FFFE433FE7C007D6412283CE544F3
:078F1600B505FBE4B504F70B
:018F1D002231
:03003300028E2416
:108E2400C0E0C083C082C2C2C2C17587809002C044
:0F8E3400E0F5A89001C5E4F0D082D083D0E03201
:03003B00028E43EF
:108E4300C0E0C083C082C2C6C2C57587809002C01D
:0F8E5300E0F5A89001C5E4F0D082D083D0E032E2
:108F84000D0A436C656172426173696345452E2E17
:028F94002E00AD
:108842007E007D007C007F05128D7BEF7F00FEC0E5
:1088520007C0067F047E00128D7B7E00EF7810C376
:1088620033CE33CED8F9FDD0E04EFED0E04DFFC07E
:1088720007C0067F067E00128D7BEFFDD0E0FED0A2
:09888200E04DFFEE3395E0FDFC32
:01888B0022CA
:1088D60090010A7401F0E4FFFE128D7BEF643060B4
:1088E600037F00227F017E00128D7BEF64376003D9
:1088F6007F00227F027E00128D7BEF643060037F53
:1089060000227F037E00128D7BEF644960037F00A7
:068916002290010AE0FFBF
:01891C002238
:108ED300E4FD7F04FE12891D7D017F057E0012895A
:0A8EE3001D7D377F067E0002891D09
:098FEA00AD077F077E0002891D1E
:107A84007BFF7A8F7984128AAC7D30E4FFFE128901
:107A94001D7D377F017E0012891D7D307F027E00AF
:107AA40012891D7D497F037E0012891D7D017F0897
:107AB4007E0012891D7D017F107E0012891D7D27A5
:107AC4007F117E0012891DE4FD7F07FE12891DE4EB
:107AD400FD7F12FE12891DE4FD7F13FE12891D7DB8
:107AE400017F147E0012891DE4FD7F29FE12891D89
:107AF4007D017F157E0012891DE4FD7F16FE12892B
:107B04001D7D017F177E0012891DE4FD7F18FE1282
:107B1400891D7D017F197E0012891DE4FD7F20FEF1
:107B240012891D7D017F217E0012891DE4FD7F22C3
:107B3400FE12891DE4FD7F23FE12891DE4FD7F24CE
:107B4400FE12891DE4FD7F25FE12891DE4FD7F26BA
:107B5400FE12891DE4FD7F27FE12891DE4FD7F28A6
:047B6400FE02891D77
:10655D000D0A28474F54205541525420444154416F
:10656D0029002831290028322900283329000D0A55
:10657D0028576F726B20434D443D253032782900EA
:10658D000D0A28434D443A5359532052454144591D
:10659D0029000D0A28434D443A574454206B696332
:1065AD006B29000D0A28434D443A454E5452595F0C
:1065BD00534C45455029000D0A28434D443A444952
:1065CD005354414E43455F524553455429000D0ADE
:1065DD002028434D443A454E434F4445525F534561
:1065ED005429000D0A20456E636F72646572313D4A
:1065FD0025303278000D0A20446563696D616C3178
:10660D003D25303278000D0A20456E636F7264654A
:10661D0072323D25303278000D0A20446563696D74
:10662D00616C323D25303278000D0A20456E636F66
:10663D0072646572333D25303278000D0A20446551
:10664D0063696D616C333D25303278000D0A20454C
:10665D006E636F72646572343D25303278000D0AB9
:10666D0020446563696D616C343D25303278000DD1
:10667D000A28434D443A43414D4552415F564F4CD4
:10668D005441474529000D0A28434D443A57445477
:10669D005F53455454494E4729000D0A28434D4434
:1066AD003A5744545F456E61626C653D3129000D6A
:1066BD000A28434D443A5744545F456E61626C65F8
:1066CD003D3029000D0A28434D443A4745545F4D4E
:1066DD0043555F465729000D0A28434D443A445609
:1066ED00525F5245424F4F5429000D0A28434D44E5
:1066FD003A4456525F53485554444F574E29000D56
:10670D000A28434D443A627974486F6C644F6E3376
:10671D0053506F7765724F66663D4F464629000DA3
:10672D000A28434D443A4C4F5720426174742076E9
:10673D006F6C742E2073687574646F776E29000DFD
:10674D000A28434D443A627974486F6C644F6E3336
:10675D0053506F7765724F666629000D0A28434DB9
:10676D00443A4D43555F454E5445525F4953505F32
:10677D004D4F444529000D0A28434D443A4D43558C
:10678D005F44433132565F5057525F535441525418
:10679D003D256429000D0A28434D443A5345545F65
:1067AD004348415247455F43555252454E543D254E
:1067BD0030327829000D0A28434D443A4D43555F38
:1067CD0050524F544F434F4C5F434D445F474554D8
:1067DD005F454E434F4445525F434F554E5429003C
:1067ED000D0A28434D443A4D43555F50524F544F77
:1067FD00434F4C5F434D445F52455345545F454EA7
:10680D00434F4445525F434F554E5429000D0A28BE
:10681D00434D443A4D43555F50524F544F434F4CA7
:10682D005F434D445F5345545F4D4F44454C455F69
:10683D00545950453D2564290028435320657272F3
:04684D006F7229003D
:047013004101050032
:091A9800128FDFEF700302234CF2
:101AA100128E62900106EFF0647E70197BFF7A65F9
:101AB100795D7F061286AAC20D9001057401F0E4DA
:101AC100900003F022900106E0FF647D7003D20DC7
:101AD10022300D09C20DEF4470900106F09001050E
:101AE100E0FB64046010900003E0FE900106E0FD5D
:101AF100EE6D900003F0EB24FE603E147003021BB8
:101B010080147003021BE02403600302234C900144
:101B110006E0900002F01424F8501424F924FD503A
:101B21000E248C6011240224FB5004245A704D9021
:101B310001057402F022022347900106E0900001A2
:101B4100F0A3E01424F8501424F924FD500E248C41
:101B5100602A240224FB5004245A7020900001E0E2
:101B610070079001057404F022E4900000F09001E8
:101B7100057403F07BFF7A65796F805B02234790E0
:101B81000002E01424F8501424F924FD500E248C92
:101B9100604A240224FB5004245A7040900106E05C
:101BA100FF900000E02405F582E43400F583EFF0B6
:101BB100900000E004F0A3E0FF900000E0B5071101
:101BC1009001057404F07BFF7A6579737F061286B4
:101BD100AA7BFF7A6579777F060286AA022347905E
:101BE1000106E0FF900003E06F600302233E7BFFEC
:101BF1007A65797B900002E0FF90013AE4F0A3EF6F
:101C0100F07F061286AA900002E0122B7E1C420190
:101C11001C90021CB5031CC9041CDD051F09061F0D
:101C21005A07212B081F9B101FAF112029122117C2
:101C310030216885219F8621B28821C9890000232E
:101C4100477BFF7A65798D7F061286AA9001C1E0F4
:101C51004401F09001B9E054E04414F09001C1E076
:101C6100FF131313541F13500EEF54F7F07F131289
:101C710068517F081289ED9001C1E0C31313400937
:101C81007D1C7F107E271279A575B2300223477B18
:101C9100FF7A65799F7F061286AA7F1C1289ED90D3
:101CA10001C1E0C3131350030223477D1C7F107E43
:101CB100270221C37BFF7A6579B07F061286AA7D50
:101CC100067FE87E030221C37BFF7A6579C47F0624
:101CD1001286AA7D077F647E000221C37BFF7A659D
:101CE10079DB7F061286AA7BFF7A6579F090000581
:101CF100E0FF90012DE4F0A3EFF0128AAC7BFF7AB4
:101D0100667902900006E0FF90012DE4F0A3EFF068
:101D1100128AAC7BFF7A667913900007E0FF90018D
:101D21002DE4F0A3EFF0128AAC7BFF7A667925905F
:101D31000008E0FF90012DE4F0A3EFF0128AAC7BE4
:101D4100FF7A667936900009E0FF90012DE4F0A357
:101D5100EFF0128AAC7BFF7A66794890000AE0FFC7
:101D610090012DE4F0A3EFF0128AAC7BFF7A667943
:101D71005990000BE0FF90012DE4F0A3EFF0128ADF
:101D8100AC7BFF7A66796B90000CE0FF90012DE44B
:101D9100F0A3EFF0128AAC900005E0FDC4540F757A
:101DA100F00AA4FFED540F7C002FFDEC35F0FC127E
:101DB10025F09001E9122B21900006E0FDC4540F9B
:101DC10075F00AA4FFED540F7C002FFDEC35F0FCFB
:101DD1001225F09001D7122B21900007E0FDC45489
:101DE1000F75F00AA4FFED540F7C002FFDEC35F0C8
:101DF100FC1225F09001ED122B21900008E0FDC4AA
:101E0100540F75F00AA4FFED540F7C002FFDEC3543
:101E1100F0FC1225F09001DC122B21900009E0FD6D
:101E2100C4540F75F00AA4FFED540F7C002FFDEC94
:101E310035F0FC1225F09001F1122B2190000AE0FF
:101E4100FDC4540F75F00AA4FFED540F7C002FFD63
:101E5100EC35F0FC1225F09001E0122B2190000BE3
:101E6100E0FDC4540F75F00AA4FFED540F7C002F60
:101E7100FDEC35F0FC1225F09001F5122B219000BC
:101E81000CE0FDC4540F75F00AA4FFED540F7C0063
:101E91002FFDEC35F0FC1225F09001E4122B21907E
:101EA1000005E0FD7F157E0012891D900006E0FD12
:101EB1007F167E0012891D900007E0FD7F177E00CE
:101EC10012891D900008E0FD7F187E0012891D9087
:101ED1000009E0FD7F197E0012891D90000AE0FDD6
:101EE1007F207E0012891D90000BE0FD7F217E0086
:101EF10012891D90000CE0FD7F227E0012891D7D5C
:101F01000C7FE87E030221C37BFF7A66797C7F0622
:101F11001286AA900005E0C3940574809480500352
:101F21007405F0900005E024FB75F00AA4FFA3E01E
:101F31002F900222F0D39428748094804005742855
:101F4100F0800A900222E0FFC374289FF07D037F96
:101F5100F47E01127B680223477BFF7A6679937FC7
:101F6100061286AA900005E070109001C1E054FDB0
:101F7100F07BFF7A6679A7022337900005E06401C0
:101F810060030223477F1C1289ED9001C1E04402E6
:101F9100F07BFF7A6679BC0223377BFF7A6679D1C1
:101FA1007F061286AA7D047FE87E030221C37BFFA0
:101FB1007A6679E47F061286AA900005E070339074
:101FC10001C1E054FEF07F1C1289ED7F211289EDE1
:101FD1007F221289ED7F231289ED7F241289ED7F03
:101FE100251289ED7F261289ED7D247F647E000212
:101FF10021C3900005E0640170089001C1E044082C
:102001008014900005E0640260030223479001C13F
:10201100E04408F04410F07D087FE87E031279A5C2
:102021007F1C1289ED0223477BFF7A6679F77F06D1
:102031001286AA900005E0640170199001C1E05474
:10204100BFF0E49002CEF07BFF7A67790C7F021239
:1020510086AA80319001ACE064017029900005E00E
:1020610070239001C1E054BFF0E49001ACF0FD7F1A
:1020710010FE12891D9001C1E0FF1313543F13504C
:1020810004EF54FBF09001ACE06401705190000545
:10209100E0640270499001B7E04420F09001C1E092
:1020A10054BFF0E49001ACF0FD7F10FE12891D7F5A
:1020B100137E00128D7BEF70087D017F13FE128964
:1020C1001D7BFF7A67792C7F011286AA9001C1E0FE
:1020D100FF1313543F135025EF54FBF0801F900161
:1020E100ACE064017017900005E06403700F90028A
:1020F100CE04F07BFF7A67794CFF1286AA7F0A1221
:1021010089ED9002CEE0640160030223477D0A7FDE
:10211100987E3A0221C37BFF7A6779687F0612862F
:10212100AA7D0B7FE87E030221C3900005E06401D4
:1021310070107D017F12FE12891D9001E87401F07B
:10214100800DE4FD7F12FE12891DE49001E8F07F0D
:10215100127E00128D7B90013AE4F0A3EFF07BFF39
:102161007A677983022337900005E064019001BC0E
:1021710070057411F080037410F07BFF7A6779A207
:102181009001BCE0FF90013AE4F0A3EFF07F02126E
:1021910086AA9001B9E054E04414F00223477BFF82
:1021A1007A6779C27F021286AA7D0F7FE87E03805B
:1021B100117BFF7A6779ED7F021286AA7D107FE895
:1021C1007E031279A5022347900005E064017007A0
:1021D1009001C404F08005E49001C4F09001C4E0D2
:1021E100640160030222797F25FE128D7BE4FCFDF0
:1021F100FE9001A8122B219001A8E0FCA3E0FDA311
:10220100E0FEA3E0FF7808122AEE9001A8122B212C
:102211009001A8E0F8A3E0F9A3E0FAA3E0FBC00075
:10222100C001C002C0037F247E00128D7BD003D089
:1022310002D001D000EB4FFFEAFEE9FDE8FC90017E
:10224100A8122B219001A8E0FCA3E0FDA3E0FEA3CE
:10225100E0FF7808122AEE9001A8122B219001A824
:10226100E0F8A3E0F9A3E0FAA3E0FBC000C001C0DD
:1022710002C0037F230223087F287E00128D7BE4A6
:10228100FCFDFE9001A8122B219001A8E0FCA3E027
:10229100FDA3E0FEA3E0FF7808122AEE9001A81248
:1022A1002B219001A8E0F8A3E0F9A3E0FAA3E0FB59
:1022B100C000C001C002C0037F277E00128D7BD009
:1022C10003D002D001D000EB4FFFEAFEE9FDE8FCAC
:1022D1009001A8122B219001A8E0FCA3E0FDA3E04E
:1022E100FEA3E0FF7808122AEE9001A8122B21909C
:1022F10001A8E0F8A3E0F9A3E0FAA3E0FBC000C065
:1023010001C002C0037F267E00128D7BD003D00264
:10231100D001D000EB4FFFEAFEE9FDE8FC9001A8F7
:10232100122B217BFF7A68791A9001C4E0FF90019A
:102331003AE4F0A3EFF07F061286AA80097BFF7AC8
:0B23410068794612896CE4900105F0F9
:01234C00226E
:048F49009291D2909F
:0F8F4D00E4FFEFC394017480948050030F80F30E
:018F5C0022F2
:0B891D0090010EEEF0A3EFF0A3EDF0D0
:1089280090010EE0FEA3E07807CEC313CE13D8F96A
:1089380044A054FE900111F0128F96900111E0FFAF
:108948001284F190010EA3E0FF1284F1900110E06F
:0C895800FF1284F11200167F02028F064D
:048D7B00AD07AC068E
:108D7F00ED7807CEC313CE13D8F944A054FEFF12DB
:108D8F008B25900136EFF07F02128F06900136E0AF
:018D9F00FFD4
:018DA00022B0
:088B2500900137EFF0A3EDF021
:108B2D00128F96900137E0FF1284F1900138E0FF2B
:108B3D001284F1128F96900137E04401FF1284F1F7
:108B4D00128C03900139EFF0120016900139E0FFFD
:018B5D0022F5
:108D520090010DEFF0A3EDF0A3EBF0128F969001CE
:108D62000DE0FF1284F190010EE0FF1284F19001F8
:098D72000FE0FF1284F10200166B
:108F9600D291128F4DD290128F4DC291128F4DC227
:028FA600902217
:0D001600C291128F4DD290128F4DD29122C7
:1084F100AE07C290EE30E703D38001C3128F49C2A9
:1085010090EE30E603D38001C3128F49C290EE3062
:10851100E503D38001C3128F49C290EE30E403D347
:108521008001C3128F49C290EE30E303D38001C3AF
:10853100128F49C290EE30E203D38001C3128F49FA
:10854100C290EE30E103D38001C3128F49C290EE95
:1085510030E003D38001C3128F49C290C290C29010
:0B856100D291D290D290D290C2902212
:108C0300E4FED291128F4DC290E4FDFCD290EE258A
:108C1300E0FE3091034401FEC2900DBD00010CED56
:108C230064084C70E7128F4DD290D290D290C290CC
:028C3300AF068A
:018C3500221C
:10847300AE07C290EE30E703D38001C3128F49C227
:1084830090EE30E603D38001C3128F49C290EE30E1
:10849300E503D38001C3128F49C290EE30E403D3C6
:1084A3008001C3128F49C290EE30E303D38001C32E
:1084B300128F49C290EE30E203D38001C3128F4979
:1084C300C290EE30E103D38001C3128F49C290EE14
:1084D30030E003D38001C3128F49C290C290C2908F
:0E84E300D291128F4DD290D290D290C29022A0
:108BCE00E4FED291128F4DC290E4FDFCD290EE25C0
:108BDE00E0FE3091034401FEC2900DBD00010CED8C
:108BEE0064084C70E7D291D290D290D290128F4DF1
:048BFE00C290AF066C
:018C0200224F
:048DE400AB07AA0629
:108DE8007E5E128F967F5E128473AF03128473AF18
:0C8DF800051284731200167F02028F0621
:048B5E00AD07AC06AD
:108B62007B5E128F967F5E128473AF05128473E46C
:108B7200FF128473128F96745E4401FF1284731283
:108B82008BCE900108EFF01200167F02128F069032
:048B92000108E0FFF7
:018B960022BC
:108754007F01128EB8EF60489002D6E06401701475
:108764009001ACE06401700C9002D6F07D057FF4BA
:108774007E0180299002CFE06401701B9001ACE07F
:10878400640170139002CEF09002CFF09001ACF02F
:10879400FD7F10FE02891D7D167F647E001279A57F
:0187A40022B2
:108EB800A201920BC201200B037F0022EF6003AFD7
:0A8EC8004622200003AF46227F007F
:018ED200227D
:105BB8000D0A2841435F504C55475F4F5554290003
:105BC80028756C6F6E67526F746174654E756D627F
:105BD80065723D256429000D0A476574526F74612A
:105BE80074654E756D6265723D25303278253034A6
:105BF80078000D0A476574526F746174654E756D4F
:105C08006265725245583D25303278253034780027
:105C18000D0A53617665526F746174654E756D62D5
:105C280065723E393939393939000D0A536176655B
:105C3800526F746174654E756D6265723D256400BE
:105C48000D0A53617665526F746174654E756D62A5
:105C580065725245583E393939393939000D0A5378
:105C6800617665526F746174654E756D62657252C6
:105C780045583D2564000D0A456E636F7264657270
:105C8800436F756E743D2564000D0A456E636F722F
:105C9800646572436F756E7454656D703D2564203C
:105CA800000D0A456E636F726465724C656E5F4FD6
:105CB80066667365743D256420000D0A456E636F42
:105CC80072646572436F756E74504E3D2564200092
:105CD8000D0A74656D705F456E636F72646572431B
:105CE8006F756E7454656D703D256420000D0A450E
:105CF8006E636F726465724C656E3D256420000D9D
:105D08000A456E636F72646572436F756E743D25E4
:105D18006420000D0A456E636F726465724C656E8F
:105D2800696E743D256420000D0A456E636F7264C8
:105D380065724C656E54656D703D25642E25646DE5
:105D480020000D0A456E636F726465724C656E665D
:105D58006C6F6161743D256420000D0A2854454C20
:105D68004929456E636F72646572436F756E745F1F
:105D7800543D2564000D0A476574526F746174655B
:105D88004E756D6265723D25303178253034780066
:105D98000D0A2854454C4929456E636F7264657233
:105DA800436F756E7454656D703D256420000D0A4F
:105DB8002854454C4929456E636F726465724C6579
:105DC8006E5F4F66667365743D256420000D0A2872
:105DD80054454C4929456E636F72646572436F750B
:105DE8006E74504E3D256420000D0A2854454C49D8
:105DF8002974656D705F456E636F72646572436F79
:105E0800756E7454656D703D256420000D0A285424
:105E1800454C4929456E636F726465724C656E3DE9
:105E2800256420000D0A2854454C4929456E636FA6
:105E380072646572436F756E745F543D256420000B
:105E48000D0A2854454C4929456E636F7264657282
:105E58004C656E696E743D256420000D0A28544512
:105E68004C4929456E636F726465724C656E546562
:105E78006D703D25642E25646D20000D0A2854455B
:105E88004C4929456E636F726465724C656E666C29
:105E98006F6161743D256420000D0A53746172744A
:105EA800204D61696E204C6F6F702E2E2E000D0AEA
:105EB800537461727420426F6F742E2E2E000D0A77
:105EC8002843616D657261566F6C743D25642900C5
:105ED8000D0A28476F696E6720746F20706F7765A9
:105EE80072206F66662E2E2E29000D0A28537461C3
:105EF80072742075702020506F776572204F6E2065
:105F08004D6F64652E2E2E29000000000000000051
:107017004601B60000000000004201C10000410126
:10702700C6004101BC004101C5004101C400440143
:10703700D2000000004201BD00004101BF00410134
:10704700D6004101CD004201CE00004401E93F8056
:1070570000004401ED3F8000004401F13F80000043
:107067004401F53F8000004401D7000000004401BF
:10707700DC000000004401E0000000004401E400DF
:107087000000004401A8000000004201D000FA42BD
:1070970001AD03434601B00000002800154601C7B3
:1070A700000000280015602901F90506080A0B0DE4
:1070B7000F10121416181A1C1E202225272A2C2FEF
:1070C7003235383B3E4245484B5055585D61666BFB
:0370D70070757A57
:108C360075E5028DE390010FE0F5E41227A0F5E259
:108C460075E64675E6B9740129F9E43AFA90010F1A
:108C5600E004F0E070030D8DE3900110E014F0E005
:038C660070D322A6
:04000E0075E78122EF
:108DC300E490010AF012000E7B017A01790A900106
:108DD3000F74FFF0A37401F07DEF128C3675E7601A
:018DE300226D
:107E8A00FF6DFD9001507401F0A37401F0A3744BCF
:0A7E9A00F0EFA3F07B017A01793BC1
:107EA40090014DEBF0A3EAF0A3E9F0900153E0FF59
:107EB400647E6005EF647D703F900150E0FBA3E0B9
:107EC400FAA3E0F91227A0FF90014DE0FBA3E0FA2A
:107ED400A3E0F98F82758300747D12280890015005
:107EE400E0FBA3E0FAA3E0F974011227E690015342
:107EF400E0540F4450FF8010900153E0FF90015074
:107F0400E0FBA3E0FAA3E0F91227A0FE90014DE004
:107F1400FBA3E0FAA3E0F98E82758300EF12280830
:107F2400900150E0FBA3E0FAA3E0F974011227E604
:037F34007F0022A9
:0B81CC00900137EBF0A3EAF0A3E9F00C
:1081D70090013B747EF090014B7401F0EF127E8C9E
:1081E70090013AE0127E8AE490014CF090013AE067
:1081F700FF90014CE0FEC39F501E900137E0FBA3A8
:10820700E0FAA3E0F98E827583001227B9127E8AFD
:1082170090014CE004F080D49001507401F0A374F5
:1082270001F0A3744BF0ED127E9CE490014CF090AA
:10823700014BE0FFA3E0FEC39F5017743B2EF5826E
:10824700E43401F583E0FF128FF390014CE004F072
:0482570080DD7F0047
:01825B002200
:05506B0090012AEFF0A6
:10507000782B7C017D017BFF7A5F79117E007F07B1
:1050800012277A90012AE0247F605514700302529F
:10509000601470030252971470030252A824FD702A
:1050A000030252B92407600302547B7F047E00127E
:1050B0008D7B90012BEFF07F057E00128D7B9001A0
:1050C0002CEFF07F067E00128D7B90012DEFF07BA0
:1050D000017A01792B90013A7403F07F80025478B1
:1050E0009001BAE0FEA3E0FF7C007D3B12282A7D00
:1050F0006412283CEF25E0FBEE33FA9001BAE0FEA3
:10510000A3E0FF7C007D3B12282A7D6412283CEF3F
:105110002BFFEE3AAB07FA7C037DE8FE12283CEF4A
:105120004E7C007D0AAF03AE02600912283CEF24DA
:1051300001FB800512283CAB0790012BEBF090029D
:1051400072E0FCA3E0FDEC90012DF0EDA3F09001E6
:10515000BFE0FF75F00A84C454F0FEEF75F00A84D6
:10516000E5F04E90012FF09001CEE0FEA3E0FF7C31
:10517000007D0A12283CEFC454F0FB9001CEE0FE03
:10518000A3E0FF7C007D0A12283CEB4D900130F03B
:105190009001D6E0900131F09001B6E0F9C413130C
:1051A000540313500790012CE04401F09001B7E044
:1051B000541FFD7C006406700790012CE04402F04F
:1051C000ED64084C700790012CE04404F0E9C4132E
:1051D000540713500790012CE04408F09001B8E008
:1051E000FD13500790012CE04410F0EDC313135051
:1051F0000790012CE04420F09001B8E01313543FD5
:1052000013500790012CE04440F020804230813F51
:10521000D3900273E0945A900272E0940040309070
:1052200001B7E0FFC413135403134023EF541F646A
:1052300007701CA3E0131313541F1340129001B600
:10524000E0C413540713400790012CE04480F07B26
:10525000017A01792B90013A7407F07F810254782A
:105260009001B6E0FFC413131354011350189001BA
:105270002B7401F0EF547F9001B6F07BFF7A5B79DD
:10528000B87F011286AA7B017A01792B90013A74CA
:1052900001F07F820254787B017A01792B90013AE8
:1052A0007401F07F830254787B017A01792B90019D
:1052B0003A7401F07F840254789001A8E0FCA3E0E6
:1052C000FDA3E0FEA3E0FF900132122B217BA07A28
:1052D0008679017800900132E0FCA3E0FDA3E0FEB6
:1052E000A3E0FF122A0090012BEFF0E0C454F0F08D
:1052F000900132E0FCA3E0FDA3E0FEA3E0FF7BA071
:105300007A8679017800122A00AC00AD01AE02AFB6
:1053100003900132122B2190012BE0FFC007E47BA8
:10532000107A27F9F8900132E0FCA3E0FDA3E0FE3B
:10533000A3E0FF122A00D0E04F90012BF090013241
:10534000E0FCA3E0FDA3E0FEA3E0FFE47B107A27EE
:10535000F9F8122A00AC00AD01AE02AF03900132A1
:10536000122B21E47BE87A03F9F8900132E0FCA3E8
:10537000E0FDA3E0FEA3E0FF122A0090012CEFF075
:10538000E0C454F0F0900132E0FCA3E0FDA3E0FEA5
:10539000A3E0FFE47BE87A03F9F8122A00AC00AD41
:1053A00001AE02AF03900132122B2190012CE0FFDD
:1053B000C007E47B64FAF9F8900132E0FCA3E0FD59
:1053C000A3E0FEA3E0FF122A00D0E04F90012CF0F2
:1053D000900132E0FCA3E0FDA3E0FEA3E0FFE47B4C
:1053E00064FAF9F8122A00AC00AD01AE02AF0390E6
:1053F0000132122B21E47B0AFAF9F8900132E0FC29
:10540000A3E0FDA3E0FEA3E0FF122A0090012DEF30
:10541000F0E0C454F0F0900132E0FCA3E0FDA3E022
:10542000FEA3E0FFE47B0AFAF9F8122A00AC00AD13
:1054300001AE02AF03900132122B2190012DE0FB4F
:10544000900132A3A3A3E0FFEB4F90012DF07BFF6F
:105450007A5B79C89001A8A3A3E0FFA3E090013A8A
:10546000CFF0A3EFF07F011286AA7B017A01792B9E
:0B54700090013A7403F07F871281CC9A
:01547B00220E
:10864F00128DA17D177F017E001279A57D137F0109
:10865F007E001279A57D187FE87E031279A57D151E
:10866F007F017E001279A57D217F017E001279A501
:10867F007D127F017E001279A57D2E7F107E27123D
:10868F0079A57D1A7F107E271279A59001B6E04457
:0B869F0040F07D2D7F107E270279A5A2
:10734D0090010CEEF0A3EFF0A3EBF0A3EAF0A3E9AC
:01735D00F03F
:10735E0090000412291EFDD3EF9DE5F06480F8EE37
:10736E006480984003027401900114E0FBA3E0FADC
:10737E00A3E0F990000412291EFFAEF01228F3FDCF
:10738E00C3EF9DFFEE95F0900117F0A3EFF0900183
:10739E000EE0FBA3E0FAA3E0F990000412291EFD13
:1073AE00ACF01228F3FBAAF0C3ED9BFFEC9AFE9013
:1073BE000119F0A3EFF04E7002FF2290010CE0FED7
:1073CE00A3E0FFC3EF9BFFEE9AFE900117E0FCA334
:1073DE00E0FD12282AA3E0FCA3E0FD122891C006CE
:1073EE00C007900114E0FBA3E0FAA3E0F91228F322
:1073FE000274A5900114E0FBA3E0FAA3E0F990005B
:10740E000412291EFFAEF090000212291EC39FFF28
:10741E00E5F09E900117F0A3EFF090010EE0FBA3B4
:10742E00E0FAA3E0F990000412291EFFAEF09000DE
:10743E000212291EC39FFFE5F09EFE900119F0A3D4
:10744E00EFF04E7002FF2290010EE0FBA3E0FAA3D4
:10745E00E0F990000412291EFFAEF0AB07AA0690C9
:10746E00010CE0FEA3E0FFC3EF9BFFEE9AFE90013E
:10747E0017E0FCA3E0FD12282AA3E0FCA3E0FD1216
:10748E002891C006C007900114E0FBA3E0FAA3E028
:10749E00F990000412291EFFAEF0D0E02FFFD0E0CD
:1074AE003EF9900111E0FBA3E0FAA3E0C98FF012C0
:0474BE0029567F01CB
:0174C20022A7
:108A6E007E009001117401F0A37401F0A3740AF05A
:108A7E00A37401F0A37401F0A374C7F07B017A0113
:108A8E0079B012734D90010AE0FEA3E024F9F5824D
:0E8A9E0074013EF583E0FD7F027E00028DE450
:10719600900106122B2D000000009001C4E064014E
:1071A600600302725E7F25FE128D7BE4FCFDFE907D
:1071B6000106122B21900106E0FCA3E0FDA3E0FEF0
:1071C600A3E0FF7808122AEE900106122B21900107
:1071D60006E0F8A3E0F9A3E0FAA3E0FBC000C001D3
:1071E600C002C0037F247E00128D7BD003D002D064
:1071F60001D000EB4FFFEAFEE9FDE8FC9001061224
:107206002B21900106E0FCA3E0FDA3E0FEA3E0FF36
:107216007808122AEE900106122B21900106E0F85A
:10722600A3E0F9A3E0FAA3E0FBC000C001C002C0DE
:10723600037F237E00128D7BD003D002D001D000C5
:10724600EB4FFFEAFEE9FDE8FC900106122B217BDD
:10725600FF7A5B79DF02730F7F287E00128D7BE455
:10726600FCFDFE900106122B21900106E0FCA3E036
:10727600FDA3E0FEA3E0FF7808122AEE90010612B5
:107286002B21900106E0F8A3E0F9A3E0FAA3E0FBC6
:10729600C000C001C002C0037F277E00128D7BD0D4
:1072A60003D002D001D000EB4FFFEAFEE9FDE8FC77
:1072B600900106122B21900106E0FCA3E0FDA3E05D
:1072C600FEA3E0FF7808122AEE900106122B219009
:1072D6000106E0F8A3E0F9A3E0FAA3E0FBC000C0D2
:1072E60001C002C0037F267E00128D7BD003D00230
:1072F600D001D000EB4FFFEAFEE9FDE8FC90010665
:10730600122B217BFF7A5B79FA900106E0FCA3E061
:10731600FDA3E0FEA3E0FF7810122AC790012DEE30
:10732600F0A3EFF0900106A3A3E0FFA3E090012FE6
:10733600CFF0A3EFF0128AAC900106E0FCA3E0FDCB
:06734600A3E0FEA3E0FF3E
:01734C00221E
:065F1800900106122B218E
:105F1E0090010A122B2D000000009001C4E06401D4
:105F2E0060030260BB7F25FE128D7BE4FCFDFE90BC
:105F3E00010A122B2190010AE0FCA3E0FDA3E0FE72
:105F4E00A3E0FF7808122AEE90010A122B2190018D
:105F5E000AE0F8A3E0F9A3E0FAA3E0FBC000C00159
:105F6E00C002C0037F247E00128D7BD003D002D0EE
:105F7E0001D000EB4FFFEAFEE9FDE8FC90010A12AA
:105F8E002B2190010AE0FCA3E0FDA3E0FEA3E0FFBD
:105F9E007808122AEE90010A122B2190010AE0F8DD
:105FAE00A3E0F9A3E0FAA3E0FBC000C001C002C069
:105FBE00037F237E00128D7BD003D002D001D00050
:105FCE00EB4FFFEAFEE9FDE8FC90010A122B21904F
:105FDE000106E0FCA3E0FDA3E0FEA3E0FFA3E0F8D2
:105FEE00A3E0F9A3E0FAA3E0FBC3122AB670030202
:105FFE0062557F3F7E427D0F7C00900106E0F8A344
:10600E00E0F9A3E0FAA3E0FBD3122AB6402B9001ED
:10601E0006E0FCA3E0FDA3E0FEA3E0943FFFEE94B8
:10602E0042FEED940FFDEC9400FC900106122B2124
:10603E007BFF7A5C7918128AAC900106E0FCA3A370
:10604E00A3E0FFE4AD077F23FE12891D900106E059
:10605E00FCA3E0FDA3E0FEA3E0FF7808122AC790A0
:10606E000106122B21900106E0FCA3A3A3E0FFE49E
:10607E00AD077F24FE12891D900106E0FCA3E0FD12
:10608E00A3E0FEA3E0FF7808122AC7900106122BA8
:10609E0021900106E0FCA3A3A3E0FFE4AD077F255A
:1060AE00FE12891D7BFF7A5C79320262417F287E67
:1060BE0000128D7BE4FCFDFE90010A122B21900153
:1060CE000AE0FCA3E0FDA3E0FEA3E0FF7808122A9D
:1060DE00EE90010A122B2190010AE0F8A3E0F9A339
:1060EE00E0FAA3E0FBC000C001C002C0037F277E20
:1060FE0000128D7BD003D002D001D000EB4FFFEA0F
:10610E00FEE9FDE8FC90010A122B2190010AE0FC49
:10611E00A3E0FDA3E0FEA3E0FF7808122AEE9001B3
:10612E000A122B2190010AE0F8A3E0F9A3E0FAA3EA
:10613E00E0FBC000C001C002C0037F267E00128DAE
:10614E007BD003D002D001D000EB4FFFEAFEE9FD79
:10615E00E8FC90010A122B21900106E0FCA3E0FD61
:10616E00A3E0FEA3E0FFA3E0F8A3E0F9A3E0FAA307
:10617E00E0FBC3122AB670030262557F3F7E427D5A
:10618E000F7C00900106E0F8A3E0F9A3E0FAA3E08B
:10619E00FBD3122AB6402B900106E0FCA3E0FDA330
:1061AE00E0FEA3E0943FFFEE9442FEED940FFDEC73
:1061BE009400FC900106122B217BFF7A5C79481229
:1061CE008AAC900106E0FCA3A3A3E0FFE4AD077F39
:1061DE0026FE12891D900106E0FCA3E0FDA3E0FE61
:1061EE00A3E0FF7808122AC7900106122B21900116
:1061FE0006E0FCA3A3A3E0FFE4AD077F27FE128910
:10620E001D900106E0FCA3E0FDA3E0FEA3E0FF78F5
:10621E0008122AC7900106122B21900106E0FCA35A
:10622E00A3A3E0FFE4AD077F28FE12891D7BFF7A52
:10623E005C7965900106A3A3E0FFA3E090012DCF4A
:07624E00F0A3EFF0128AAC8F
:016255002226
:10582D007F107E00128D7B9001ACEFF07F117E001A
:10583D00128D7B900222EFF07F127E00128D7B90F5
:10584D0001E8EFF07F147E00128D7B9001C3EFF025
:10585D007F297E00128D7B9001C0EFF07F157E00B9
:10586D00128D7BEFC4540F75F00AA4FFAEF0C00685
:10587D00C0077F157E00128D7BEF540FFDD0E02DFC
:10588D00FDD0E03400FC1225F09001E9122B217FB0
:10589D00167E00128D7BEFC4540F75F00AA4FFAE77
:1058AD00F0C006C0077F167E00128D7BEF540FFDF2
:1058BD00D0E02DFDD0E03400FC1225F09001D71280
:1058CD002B217F177E00128D7BEFC4540F75F00ACC
:1058DD00A4FFAEF0C006C0077F177E00128D7BEFD0
:1058ED00540FFDD0E02DFDD0E03400FC1225F090DA
:1058FD0001ED122B217F187E00128D7BEFC4540F0A
:10590D0075F00AA4FFAEF0C006C0077F187E001226
:10591D008D7BEF540FFDD0E02DFDD0E03400FC1257
:10592D0025F09001DC122B217F197E00128D7BEF6B
:10593D00C4540F75F00AA4FFAEF0C006C0077F195E
:10594D007E00128D7BEF540FFDD0E02DFDD0E034A5
:10595D0000FC1225F09001F1122B217F207E001208
:10596D008D7BEFC4540F75F00AA4FFAEF0C006C0D6
:10597D00077F207E00128D7BEF540FFDD0E02DFDB3
:10598D00D0E03400FC1225F09001E0122B217F2194
:10599D007E00128D7BEFC4540F75F00AA4FFAEF09C
:1059AD00C006C0077F217E00128D7BEF540FFDD006
:1059BD00E02DFDD0E03400FC1225F09001F5122B06
:1059CD00217F227E00128D7BEFC4540F75F00AA447
:1059DD00FFAEF0C006C0077F227E00128D7BEF5414
:1059ED000FFDD0E02DFDD0E03400FC1225F090012C
:1059FD00E4122B219001C4E064016003025A9D7FE3
:105A0D0025FE128D7BE4FCFDFE9001A8122B21904A
:105A1D0001A8E0FCA3E0FDA3E0FEA3E0FF780812DF
:105A2D002AEE9001A8122B219001A8E0F8A3E0F92D
:105A3D00A3E0FAA3E0FBC000C001C002C0037F24B5
:105A4D007E00128D7BD003D002D001D000EB4FFF32
:105A5D00EAFEE9FDE8FC9001A8122B219001A8E0D7
:105A6D00FCA3E0FDA3E0FEA3E0FF7808122AEE9070
:105A7D0001A8122B219001A8E0F8A3E0F9A3E0FA08
:105A8D00A3E0FBC000C001C002C0037F23025B2C5A
:105A9D007F287E00128D7BE4FCFDFE9001A8122B69
:105AAD00219001A8E0FCA3E0FDA3E0FEA3E0FF78B8
:105ABD0008122AEE9001A8122B219001A8E0F8A35C
:105ACD00E0F9A3E0FAA3E0FBC000C001C002C003EF
:105ADD007F277E00128D7BD003D002D001D000EB4A
:105AED004FFFEAFEE9FDE8FC9001A8122B21900181
:105AFD00A8E0FCA3E0FDA3E0FEA3E0FF7808122AD6
:105B0D00EE9001A8122B219001A8E0F8A3E0F9A3D3
:105B1D00E0FAA3E0FBC000C001C002C0037F267EF7
:105B2D0000128D7BD003D002D001D000EB4FFFEAE5
:105B3D00FEE9FDE8FC9001A8122B217F137E0012D7
:105B4D008D7BEF60079001B7E04420F09001E8E015
:105B5D006401701E9001ACE0700E7D017F10FE128D
:105B6D00891D9001AC7401F09001C3E06401703A9D
:105B7D0080179001C3E06401701C7D017F10FE123F
:105B8D00891D9001AC7401F0E4FD7F14FE12891D96
:105B9D00E49001C3F0229001ACE06401700CFD7F34
:0B5BAD0010FE12891DE49001ACF022F4
:108E0400EF4488F5C5E5C520E3FBAFC6EF75F00474
:108E1400A4FFE5E85403FDEF4DFFE5F05403FE2203
:07900300E4FE7F06028E046B
:07900A00E4FE7F07028E0463
:103BC6002005030242957BFF7A5C797E9002CCE069
:103BD600FFA3E090012DCFF0A3EFF0128AAC7F0A8D
:103BE6007ED77D237C3C9001D7E0F8A3E0F9A3E0E3
:103BF600FAA3E0FB1224459001E9E0F8A3E0F9A35B
:103C0600E0FAA3E0FB12235490010C122B217F0A49
:103C16007ED77D237C3C9001DCE0F8A3E0F9A3E0AD
:103C2600FAA3E0FB1224459001EDE0F8A3E0F9A326
:103C3600E0FAA3E0FB122354900110122B217F0A15
:103C46007ED77D237C3C9001E0E0F8A3E0F9A3E079
:103C5600FAA3E0FB1224459001F1E0F8A3E0F9A3F2
:103C6600E0FAA3E0FB122354900114122B217F0AE1
:103C76007ED77D237C3C9001E4E0F8A3E0F9A3E045
:103C8600FAA3E0FB1224459001F5E0F8A3E0F9A3BE
:103C9600E0FAA3E0FB122354900118122B217F00B7
:103CA6007EB07DE57C4590010CE0F8A3E0F9A3E049
:103CB600FAA3E0FB122445E4FBFA797A784412254C
:103CC6004E90011C122B217FE17E987DD27C45907F
:103CD6000110E0F8A3E0F9A3E0FAA3E0FB12244503
:103CE600E4FBFA797A784412254E90011CE0F8A399
:103CF600E0F9A3E0FAA3E0FB122354900120122B73
:103D0600217F487EC17D2C7C46900114E0F8A3E01B
:103D1600F9A3E0FAA3E0FB122445E4FBFA797A78EA
:103D26004412254E900120E0F8A3E0F9A3E0FAA39F
:103D3600E0FB122354900124122B219002CCE0FECA
:103D4600A3E0FFC3EE648094804008E49001D6F0BF
:103D5600FC80179001D67401F09002CCE0FEA3E03F
:103D6600FFC3E49FFFE49EFE7C007D021228919033
:103D76000106EEF0A3EFF0900106E0FEA3E0D39477
:103D8600F0EE94004003023EC7C3EE9400500302D7
:103D96003EC77BFF7A5C7991900106A3E0FF900114
:103DA6002DEEF0A3EFF0128AAC7BFF7A5C79A99036
:103DB60001BDE0FFA3E090012DCFF0A3EFF0128A42
:103DC600AC7BFF7A5C79C29001D6E0FF90012DE4CE
:103DD600F0A3EFF0128AACE4FFFE7DF57C41900182
:103DE6000CE0F8A3E0F9A3E0FAA3E0FB122445C037
:103DF60004C005C006C007900106E0FCA3E0FDE490
:103E06001225F0D003D002D001D000122445E4FBE5
:103E1600FA797A784412254E9001D2122B21E4FFCA
:103E2600FE7DF57C4190010CE0F8A3E0F9A3E0FAF1
:103E3600A3E0FB122445C004C005C006C0079001DC
:103E460006E0FCA3E0FDE41225F0D003D002D00189
:103E5600D000122445122629900108EEF0A3EFF0B7
:103E66007FCD7ECC7D4C7C3D9001D2E0F8A3E0F97D
:103E7600A3E0FAA3E0FB1223541226299001BFEF18
:103E8600F07FCD7ECC7D4C7C3D9001D2E0F8A3E066
:103E9600F9A3E0FAA3E0FB122354E4FBFA79C8780D
:103EA600421224451226299001CEEEF0A3EFF07CB3
:103EB600007D6412283C9001CEECF0A3EDF00242A6
:103EC6004B900106E0FEA3E0FFD394F0EE94005081
:103ED60003024012D3EF94C2EE9401400302401253
:103EE6007F2F7E5D7D007C42900110E0F8A3E0F913
:103EF600A3E0FAA3E0FB122445C004C005C006C037
:103F060007900107E02410FD900106E034FFFCE471
:103F16001225F0D003D002D001D000122445E4FBD4
:103F2600FA797A784412254E90011CE0F8A3E0F95C
:103F3600A3E0FAA3E0FB1223549001D2122B217BBB
:103F4600FF7A5C79D89001BDE0FEA3E0FFC374F070
:103F56009FFFE49EFEC390010BE09FFF90010AE0E5
:103F66009E90012DF0A3EFF0128AAC7BFF7A5C796C
:103F7600A99001BDE0FFA3E090012DCFF0A3EFF0E3
:103F8600128AAC7BFF7A5C79D890010AE0FFA3E045
:103F960090012DCFF0A3EFF0128AAC9001D2E0FC95
:103FA600A3E0FDA3E0FEA3E0FF12262990012DEE7B
:103FB600F0A3EFF07BFF7A5C79F5128AAC7BFF7A8F
:103FC6005D79079002CCE0FFA3E090012DCFF0A32E
:103FD600EFF0128AAC7FCD7ECC7D4C7C3D9001D239
:103FE600E0F8A3E0F9A3E0FAA3E0FB1223541226BB
:103FF600299001BFEFF07BFF7A5D791BE0FF90010E
:104006002DE4F0A3EFF0128AAC0240C9900106E05D
:10401600FEA3E0FFD394C2EE940150030240FAD30C
:10402600EF940CEE940340030240FA7F197E047D60
:10403600067C42900114E0F8A3E0F9A3E0FAA3E0BD
:10404600FB122445C004C005C006C007900107E066
:10405600243EFD900106E034FEFCE41225F0D00378
:10406600D002D001D000122445E4FBFA797A7844D4
:1040760012254E900120E0F8A3E0F9A3E0FAA3E0B0
:10408600FB1223549001D2122B217BFF7A5D790714
:104096009002CCE0FFA3E090012DCFF0A3EFF01249
:1040A6008AAC7FCD7ECC7D4C7C3D9001D2E0F8A3DE
:1040B600E0F9A3E0FAA3E0FB1223541226299001AB
:1040C600BFEFF07FCD7ECC7D4C7C3D9001D2E0F8F9
:1040D600A3E0F9A3E0FAA3E0FB122354E4FBFA7988
:1040E600C878421224451226299001CEEEF0A3EF9D
:1040F600F0024220D3900107E0940C900106E09470
:1041060003500302424B7F817E957D0B7C429001DA
:1041160018E0F8A3E0F9A3E0FAA3E0FB122445C0F7
:1041260004C005C006C007900107E024F4FD900115
:1041360006E034FCFCE41225F0D003D002D001D016
:1041460000122445E4FBFA797A784412254E900150
:1041560024E0F8A3E0F9A3E0FAA3E0FB12235490CD
:1041660001D2122B217BFF7A5D79079002CCE0FF0A
:10417600A3E090012DCFF0A3EFF0128AAC9001D20C
:10418600E0FCA3E0FDA3E0FEA3E0FF1226299001D8
:104196002DEEF0A3EFF07BFF7A5C79F5128AAC7F07
:1041A600CD7ECC7D4C7C3D9001D2E0F8A3E0F9A316
:1041B600E0FAA3E0FB1223541226299001BFEFF088
:1041C6007BFF7A5D791BE0FF90012DE4F0A3EFF011
:1041D600128AAC7FCD7ECC7D4C7C3D9001D2E0F83E
:1041E600A3E0F9A3E0FAA3E0FB122354E4FBFA7977
:1041F600C878421224451226299001CEEEF0A3EF8C
:10420600F07BFF7A5D794A90012DEEF0A3EFF01274
:104216008AAC9001CEE0FEA3E0FF7C007D6412280C
:104226003C9001CEECF0A3EDF07BFF7A5D79309007
:1042360001BFE0FF90012DE4F0A3EFF0A3ECF0A3A3
:10424600EDF0128AACC2059001C1E01350137F81D4
:1042560012506B7F2E1289ED7D2E7FE87E03127938
:10426600A57BFF7A5D791B9001BFE0FF90012DE4ED
:10427600F0A3EFF0128AAC7BFF7A5D794A9001CE0B
:0F428600E0FFA3E090012DCFF0A3EFF0128AAC80
:014295002206
:10349F00200503023BC59002CCE0FCA3E0FDEC123B
:1034AF0025F07B337A3379D3784012254E122629B3
:1034BF0090010CEEF0A3EFF07BFF7A5D7962900143
:1034CF000CE0FFA3E090012DCFF0A3EFF0128AAC38
:1034DF007BFF7A5D797D9001A8E0FCA3E0FDA3E07E
:1034EF00FEA3E0FF7810122AC790012DEEF0A3EF94
:1034FF00F09001A8A3A3E0FFA3E090012FCFF0A3CA
:10350F00EFF0128AAC7F0A7ED77D237C3C9001D7E7
:10351F00E0F8A3E0F9A3E0FAA3E0FB122445900141
:10352F00E9E0F8A3E0F9A3E0FAA3E0FB122354903B
:10353F00010E122B217F0A7ED77D237C3C9001DC6C
:10354F00E0F8A3E0F9A3E0FAA3E0FB122445900111
:10355F00EDE0F8A3E0F9A3E0FAA3E0FB1223549007
:10356F000112122B217F0A7ED77D237C3C9001E034
:10357F00E0F8A3E0F9A3E0FAA3E0FB1224459001E1
:10358F00F1E0F8A3E0F9A3E0FAA3E0FB12235490D3
:10359F000116122B217F0A7ED77D237C3C9001E4FC
:1035AF00E0F8A3E0F9A3E0FAA3E0FB1224459001B1
:1035BF00F5E0F8A3E0F9A3E0FAA3E0FB122354909F
:1035CF00011A122B217F007EB07DE57C4590010E04
:1035DF00E0F8A3E0F9A3E0FAA3E0FB122445E4FB33
:1035EF00FA797A784412254E90011E122B217FE131
:1035FF007E987DD27C45900112E0F8A3E0F9A3E01C
:10360F00FAA3E0FB122445E4FBFA797A78441225F9
:10361F004E90011EE0F8A3E0F9A3E0FAA3E0FB123D
:10362F002354900122122B217F487EC17D2C7C4692
:10363F00900116E0F8A3E0F9A3E0FAA3E0FB12244F
:10364F0045E4FBFA797A784412254E900122E0F88E
:10365F00A3E0F9A3E0FAA3E0FB1223549001261292
:10366F002B2190010CE0FEA3E0FFC3EE6480948059
:10367F004008E49001D6F0FC80179001D67401F059
:10368F0090010CE0FEA3E0FFC3E49FFFE49EFE7CED
:10369F00007D02122891900106EEF0A3EFF0900149
:1036AF0006E0FEA3E0D394F0EE940040030237F758
:1036BF00C3EE940050030237F77BFF7A5D79989041
:1036CF000106A3E0FF90012DEEF0A3EFF0128AACFC
:1036DF007BFF7A5D79B69001BDE0FFA3E090012DED
:1036EF00CFF0A3EFF0128AAC7BFF7A5D79D5900112
:1036FF00D6E0FF90012DE4F0A3EFF0128AACE4FFC7
:10370F00FE7DF57C4190010EE0F8A3E0F9A3E0FA0D
:10371F00A3E0FB122445C004C005C006C0079001FA
:10372F0006E0FCA3E0FDE41225F0D003D002D001A7
:10373F00D000122445E4FBFA797A784412254E9092
:10374F0001D2122B21E4FFFE7DF57C4190010EE0AA
:10375F00F8A3E0F9A3E0FAA3E0FB122445C004C0EC
:10376F0005C006C007900106E0FCA3E0FDE41225AA
:10377F00F0D003D002D001D0001224451226299098
:10378F000108EEF0A3EFF07FCD7ECC7D4C7C3D9019
:10379F0001D2E0F8A3E0F9A3E0FAA3E0FB1223546F
:1037AF001226299001BFEFF07FCD7ECC7D4C7C3D62
:1037BF009001D2E0F8A3E0F9A3E0FAA3E0FB122313
:1037CF0054E4FBFA79C87842122445122629900155
:1037DF00CEEEF0A3EFF07C007D6412283C9001CE7A
:1037EF00ECF0A3EDF0023B7B900106E0FEA3E0FFBF
:1037FF00D394F0EE94005003023942D3EF94C2EE0B
:10380F00940140030239427F2F7E5D7D007C429000
:10381F000112E0F8A3E0F9A3E0FAA3E0FB122445BC
:10382F00C004C005C006C007900107E02410FD903A
:10383F000106E034FFFCE41225F0D003D002D001E2
:10384F00D000122445E4FBFA797A784412254E9081
:10385F00011EE0F8A3E0F9A3E0FAA3E0FB12235462
:10386F009001D2122B217BFF7A5D79F19001BDE09F
:10387F00FEA3E0FFC374F09FFFE49EFEC390010B15
:10388F00E09FFF90010AE09E90012DF0A3EFF01250
:10389F008AAC7BFF7A5D79B69001BDE0FFA3E09023
:1038AF00012DCFF0A3EFF0128AAC7BFF7A5D79F197
:1038BF0090010AE0FFA3E090012DCFF0A3EFF012EB
:1038CF008AAC9001D2E0FCA3E0FDA3E0FEA3E0FFF1
:1038DF0012262990012DEEF0A3EFF07BFF7A5E798F
:1038EF0014128AAC7BFF7A5E792C90010CE0FFA357
:1038FF00E090012DCFF0A3EFF0128AAC7FCD7ECCFC
:10390F007D4C7C3D9001D2E0F8A3E0F9A3E0FAA34F
:10391F00E0FB1223541226299001BFEFF07BFF7AB0
:10392F005E7948E0FF90012DE4F0A3EFF0128AAC2E
:10393F000239F9900106E0FEA3E0FFD394C2EE94A2
:10394F00015003023A2AD3EF940CEE940340030282
:10395F003A2A7F197E047D067C42900116E0F8A377
:10396F00E0F9A3E0FAA3E0FB122445C004C005C0B0
:10397F0006C007900107E0243EFD900106E034FEEB
:10398F00FCE41225F0D003D002D001D00012244560
:10399F00E4FBFA797A784412254E900122E0F8A3DD
:1039AF00E0F9A3E0FAA3E0FB1223549001D2122B0B
:1039BF00217BFF7A5E792C90010CE0FFA3E0900150
:1039CF002DCFF0A3EFF0128AAC7FCD7ECC7D4C7C57
:1039DF003D9001D2E0F8A3E0F9A3E0FAA3E0FB12D7
:1039EF0023541226299001BFEFF07FCD7ECC7D4C62
:1039FF007C3D9001D2E0F8A3E0F9A3E0FAA3E0FB4D
:103A0F00122354E4FBFA79C878421224451226296E
:103A1F009001CEEEF0A3EFF0023B50D3900107E000
:103A2F00940C900106E094035003023B7B7F817E50
:103A3F00957D0B7C4290011AE0F8A3E0F9A3E0FA20
:103A4F00A3E0FB122445C004C005C006C0079001C7
:103A5F0007E024F4FD900106E034FCFCE41225F0AD
:103A6F00D003D002D001D000122445E4FBFA797ABA
:103A7F00784412254E900126E0F8A3E0F9A3E0FA6E
:103A8F00A3E0FB1223549001D2122B217BFF7A5E0D
:103A9F00792C90010CE0FFA3E090012DCFF0A3EF64
:103AAF00F0128AAC9001D2E0FCA3E0FDA3E0FEA3EC
:103ABF00E0FF12262990012DEEF0A3EFF07BFF7AA5
:103ACF005E7914128AAC7FCD7ECC7D4C7C3D90010B
:103ADF00D2E0F8A3E0F9A3E0FAA3E0FB122354121B
:103AEF0026299001BFEFF07BFF7A5E7948E0FF90C7
:103AFF00012DE4F0A3EFF0128AAC7FCD7ECC7D4C8C
:103B0F007C3D9001D2E0F8A3E0F9A3E0FAA3E0FB3B
:103B1F00122354E4FBFA79C878421224451226295D
:103B2F009001CEEEF0A3EFF07BFF7A5E79839001E8
:103B3F002DEEF0A3EFF0128AAC9001CEE0FEA3E0E1
:103B4F00FF7C007D6412283C9001CEECF0A3EDF0D9
:103B5F007BFF7A5E79639001BFE0FF90012DE4F067
:103B6F00A3EFF0A3ECF0A3EDF0128AACC205900125
:103B7F00C1E01350137F8112506B7F2E1289ED7DA0
:103B8F002E7FE87E031279A57BFF7A5E794890013C
:103B9F00BFE0FF90012DE4F0A3EFF0128AAC7BFFA2
:103BAF007A5E79839001CEE0FFA3E090012DCFF0F4
:063BBF00A3EFF0128AAC36
:013BC50022DD
:108A2E007BFF7A5E79A1128AAC1271969001A81220
:108A3E002B21128FD4EF600512101E80F5121A989A
:108A4E001282E812836D1287549001C4E0640170A3
:108A5E000512349F8003123BC69001ACE070D32206
:1083F100128702128CFA7BFF7A5E79B6128AAC126E
:10840100762CD2B4D2B5128F1E12582D12864F90EF
:108411000222E0FF128A6E7BFF7A5E79C690022209
:10842100E0FF90012DE4F0A3EFF0128AAC9001B7C8
:10843100E0FFC413540713500A128E80EF700490AA
:1084410001ACF09001ACE0640178117008E654F0E1
:108451004402F6800BE6540F4420F654F04401F632
:10846100C2009001ACE064017003128A2E12788D73
:0284710080F099
:10788D007BFF7A5E79D8128AAC7811E654F0440108
:10789D00F69001C1E0FF1313543F135004EF54FB56
:1078AD00F09001C1E054FEF07F1C1289ED9001C1F2
:1078BD00E054BFF07F0A1289EDE49001C5F0F5B2F6
:1078CD009002CEF09001A8E0FCA3E0FDA3E0FEA3A2
:1078DD00E0FF125F18128FD4EF600512101E80F5B5
:1078ED0012836D1282E81287549001ACE06401603E
:1078FD005C9001C5E070297811E6FFC4540F640156
:10790D00701E9001B6E0FFC4131354031340119081
:10791D0001C57401F07D307F107E271279A580B5E9
:10792D00128E80EF6401600CE5E8F4FF131313541D
:10793D001F30E00CE49001C5F07F301289ED809589
:10794D009001C5E06402708D128C9C80887D017F52
:10795D00147E0012891DE49002CCF0A3F09001BFBB
:10796D00F09001CEF0A3F09001D6F0F542F54390E2
:10797D0001B8E054FEF0A3E054E04414F07811E6B1
:10798D0054F04402F67BFF7A5E79F2128AAC75E709
:02799D002022A6
:102BFF000D0A4D43555F4932435B253032785D5B9B
:102C0F0025643A25643A25643A25645D3E000D0A31
:102C1F004D43555F4932435B253032785D5B256408
:102C2F003A25643A25645D3E000D0A4D43555F49D0
:102C3F0032435B253032785D5B25643A25645D3E17
:102C4F00000D0A4D43555F4932435B253032785DA5
:102C5F005B25645D3E005772697465202532786884
:102C6F003A2532786820003D3D3E20526561642050
:102C7F00253278683A25327868002020202D2D3EA5
:102C8F00204D697373696E6720706172616D657431
:102C9F00657220212121000D0A2020202D2D3E209C
:102CAF0057726F6E672072616E6765206F66206264
:102CBF006974206F7065726174696F6E20212121B4
:102CCF00000D0A3C523E2532785B2532785D3D255A
:102CDF003278000D0A496E73756666696369656EB1
:102CEF007420706172616D65746572732E2E2E0083
:102CFF000D0A3D3D3D3D3D3D3D3D3D3D3D3D3D3D58
:102D0F003D3D3D3D3D3D3D3D3D3D3D3D3D3D3D3DE4
:102D1F003D3D3D3D3D3D3D3D3D3D3D3D3D3D3D3DD4
:102D2F003D3D3D3D3D3D3D3D3D000D0A3E3E3E207E
:102D3F002020202057656C636F6D6520746F2054C1
:102D4F0065636877656C6C204D6F6E69746F722068
:102D5F002052657620312E303020202020203C3C20
:102D6F003C000D0A202020522069692020202020BD
:102D7F0020202020202020203B205265616420410C
:102D8F0044353131302064617461000D0A202020F8
:102D9F0057206969206464202020202020202020D3
:102DAF00203B205772697465204144353131302002
:102DBF0064617461000D0A20202044205B69695D05
:102DCF00205B63635D2020202020203B2044756D15
:102DDF0070000D0A20202043206161202020202038
:102DEF0020202020202020203B204368616E676533
:102DFF00204932432061646472657373000D0A20A9
:102E0F0020204D203F202020202020202020202067
:102E1F002020203B2043757272656E7420496E70BE
:102E2F007574000D0A2020204D206464202020207E
:102E3F002020202020202020203B204368616E6727
:102E4F006520496E707574000D0A20202041636360
:102E5F00657373205B302C315D20202020203B20B8
:102E6F0050726F6772616D205457383878782041EF
:102E7F006363657373204F46462F4F4E000D0A2034
:102E8F0020204175746F446574656374205B302C2A
:102E9F00315D203B205043204175746F6D6F646529
:102EAF00204F46462F4F4E000D0A20202050434101
:102EBF0075746F0909202020203B2052554E205059
:102ECF0043204175746F2041646A757374000D0A55
:102EDF002020204465627567205B302E2E323535F9
:102EEF005D2020203B204465627567696E67206412
:102EFF006973706C6179206C6576656C000D0A20C2
:102F0F0020204563686F204F6E2F4F66662020206C
:102F1F002020203B205465726D696E616C204563E3
:102F2F00686F696E67204F6E2F4F6666000D0A201F
:102F3F00202044656C746120202020202020202038
:102F4F002020203B20496E69742044656C746152C7
:102F5F0047422050616E656C000D0A2020204465A9
:102F6F006C7461207720696920646820646C3B2051
:102F7F0053504920577269746520746F2044656CF3
:102F8F0074615247422050616E656C000D0A004417
:102F9F00000D0A64756D7020414435313130207356
:102FAF0074617274000D0A4144353131302052443E
:102FBF0041433D25303278000D0A414435313130DF
:102FCF0020454550524F4D3D25303278000D0A6453
:102FDF00756D7020454550524F4D207265672E001C
:102FEF000D0A506F776572466C61673D25303278F8
:102FFF00000D0A43616D657261566F6C743D2564F7
:10300F00000D0A5057525F53544152545F666C6122
:10301F00673D25303278000D0A426174746572790C
:10302F0053746F704368617267653D253032780065
:10303F000D0A48415244574152455F5645523D256E
:10304F00303278000D0A456E636F72646572313DE0
:10305F0025303278000D0A446563696D616C313D2E
:10306F0025303278000D0A456E636F7264657232D7
:10307F003D25303278000D0A446563696D616C320D
:10308F003D25303278000D0A456E636F72646572AC
:10309F00333D25303278000D0A446563696D616CEC
:1030AF00333D25303278000D0A456E636F726465CB
:1030BF0072343D25303278000D0A446563696D61C5
:1030CF006C343D25303278000D0A476574526F74A9
:1030DF006174654E756D6265723D253031782530AE
:1030EF003478004200505357000D0A28506F77650F
:1030FF0072466C6167203D25303278290057000DEC
:10310F000A454550524F4D205772697465206164CE
:10311F00642E3D253032782020646174613D253066
:10312F003278000D0A454550524F4D20526561646B
:10313F0020616464723D25303278202064617461AF
:10314F003D253032780052004300480048454C502E
:10315F00003F002A000D0A20202A2030203A20505C
:10316F00726F6772616D2064656661756C74204C57
:10317F006F61646572000D0A20202A2031203A20E9
:10318F0050726F6772616D2065787465726E616CD5
:10319F00204C6F61646572000D0A20202A203220B6
:1031AF003A2045786563757465204C6F616465726C
:1031BF0000504F574552004445425547000D0A44B1
:1031CF0065627567204C6576656C203D20253278E9
:1031DF00006563686F006F6666000D0A6563686F50
:1031EF00206F6666000D0A6563686F206F6E007250
:1031FF00657365740030000D0A54575F726573650F
:10320F00745F70696E203D3E20300031000D0A540E
:10321F00575F72657365745F70696E203D3E203134
:10322F00000D0A54575F72657365745F70696E2085
:10323F003D2025640074657374000D0A54575F7444
:10324F006573745F70696E203D3E2030000D0A5427
:10325F00575F746573745F70696E203D3E20310057
:10326F000D0A54575F746573745F70696E203D204B
:10327F0025640070646E000D0A54575F506F7765B8
:10328F0072446F776E5F70696E203D3E2030000D87
:10329F000A54575F506F776572446F776E5F70692E
:1032AF006E203D3E2031000D0A54575F506F7765F9
:1032BF0072446F776E5F70696E203D202564004FFA
:1032CF005344006C6F676F00656E64000D0A4966AA
:1032DF0020796F752764206C696B6520746F20658A
:1032EF007869742C20707265737320616E79204B2E
:1032FF0065792E2E2E2E00696E7075740050574D05
:10330F0030000D0A5345542050574D50312E340084
:10331F0050574D31000D0A5345542050574D5031E1
:10332F002E350050574D000D0A504F454E20505727
:10333F004D000D0A53544F502050574D00425448E2
:10334F00000D0A28426174746572794254483D2514
:10335F0064290042564F4C000D0A2842617474656F
:10336F007279566F6C746167653D25642900510051
:10337F00636C6561720028436C65617220627974B9
:10338F004261747465727953746F704368617267C8
:10339F00653D30290050575253000D0A44433132D6
:1033AF005F5057525F53544152543D4F4E000D0AD8
:1033BF00444331325F5057525F53544152543D4F43
:1033CF0046460050434F4E002850434F4E3D257800
:1033DF00290050434F4E32002850434F4E323D2567
:1033EF0078290053595352454144590057445400CA
:1033FF000D0A284254483D25642900424242565442
:10340F00000D0A4256543D313530000D0A425654D4
:10341F003D363530000D0A4256543D373530000DDC
:10342F000A4256543D383130000D0A4256543D3849
:10343F003630000D0A4256543D39303000534C455A
:10344F00455000545800464F4E540052414D0052C3
:10345F004F4D000D0A20466F6E7420524F4D2023A2
:10346F00206F7220466F6E742052414D20232066CC
:10347F006F722074657374696E67000D0A496E76FA
:10348F00616C696420636F6D6D616E642E2E2E000A
:1070DA0001108A41028500C187C10841028340C16B
:0D70EA0086410280004102810041028200C7
:107D1F009002C9E0FF60397BFF7A2B79FF90012D2C
:107D2F00E4F0A374A0F0A3E4F0A3EFF09002CAE094
:107D3F00FF900131E4F0A3EFF09002C3E0FF900158
:107D4F0033E4F0A3EFF09002BBE0FF900135806EBB
:107D5F009002CAE0FF602C7BFF7A2C791D90012DD9
:107D6F00E4F0A374A0F0A3E4F0A3EFF09002C3E05B
:107D7F00FF900131E4F0A3EFF09002BBE0FF900120
:107D8F0033803B9002C3E0FF7BFF601D7A2C793874
:107D9F0090012DE4F0A374A0F0A3E4F0A3EFF09012
:107DAF0002BBE0FF90013180157A2C795090012DA4
:107DBF00E4F0A374A0F09002BBE0FF90012FE4F079
:077DCF00A3EFF0128AAC22C1
:058FFB00900109E0FFF8
:0390000002000368
:0B808D0090010AEBF0A3EAF0A3E9F079
:10809800A3122B2D00000000E4900111F090010ABA
:1080A800E0FBA3E0FAA3E0F91227A0607064206067
:1080B8006CE47F0AFEFDFC90010DE0F8A3E0F9A353
:1080C800E0FAA3E0FB122975A804C005C006C007A2
:1080D80090010AE0FBA3E0FAA3E0F91227A0FFE46D
:1080E800FCFDFED003D002D001EB2FFFEE3AFEEDEF
:1080F80039FDEC38FCEF24D0FFEE34FFFEED34FF01
:10810800FDEC34FFFC90010D122B21900111E004CD
:10811800F090010BE475F0011228C7808090010DE2
:0B812800E0FCA3E0FDA3E0FEA3E0FFED
:018133002229
:108B9700EFC39430400CEFD394395006C3EF9430B1
:108BA700FF22EFC39461400BEFD394665005EF2487
:108BB700A9FF22EFC39441400BEFD394465005EF32
:078BC70024C9FF227F0022F8
:1089AA00900106EFF09002A9E0FBA3E0FAA3E0F938
:1089BA00E4FDFC1227A0602864206024EDC4F8546A
:1089CA000FC868FDECC454F048FC1227A0FF128BB4
:1089DA0097EF2DFDE43CFC740129F9E43AFA80D3BF
:0289EA00AF05D7
:0189EC002268
:10003E00E0FBA3E475F0011228DDA9F0FA1227A067
:01004E00FFB2
:10004F00EFC39461400BEFD3947A5005EF24E0FF98
:02005F0022225B
:1085E50090010B74FFF0A37433F0744CA3F0900268
:0985F500A6E0FBA3E0FAA3E0F903
:0B85FE00900108EBF0A3EAF0A3E9F005
:10860900E490010EF0A3F0900108E0FBA3E0FAA3C7
:10861900E0F91227A0602B90010B12003EEFFD7CC0
:108629000090010812003EC3EF9DFFE49CFE4F60DD
:10863900012290010FE004F070CD90010EE004F0EA
:0586490080C5E4FEFF06
:01864E002209
:107DD600EF14601324F7601714601D240B702090B5
:107DE6000286E014F08018900286E004F08010907D
:107DF6000286E024F0F08007900286E02410F0E589
:107E060010648A9002A57015E0FD900286E0FB7F63
:107E16008A128D529002A5E0FD7F8A8013E0FD90C4
:107E26000286E0FBAF10128D529002A5E0FDAF1066
:107E3600128B25900284EFF03007467BFF7A2C796F
:107E4600659002A5E0FF90012DE4F0A3EFF090020B
:107E560086E0FF90012FE4F0A3EFF0128AAC7BFFDF
:107E66007A2C79769002A5E0FF90012DE4F0A3EF3D
:107E7600F0900284E0FF90012FE4F0A3EFF0128A65
:047E8600AC027D1FAE
:1074C300900285E0C394057480948050097BFF7A11
:1074D3002C79890276281289AF90010CEFF0900283
:1074E300AC1289B29002A5EFF09002AF1289B2EF0D
:1074F300C4540F900109F09002AF1289B2EF540FF8
:1075030090010AF09002B21289B290010BEFF09051
:10751300010AE0FF900109E0FEC39F4013EED394FC
:1075230007748094805009EF940774809480400915
:107533007BFF7A2C79A602762890010874FFF07CF1
:107543007F7E07900109E0FDEED39D400C9001087A
:10755300E05CF0EC13FC1E80EA7CFEE4FE90010A82
:10756300E0FFEEC39F500D900108E05CF0EC25E0D6
:10757300FC0E80E990010CE0648A70359002A5E06E
:10758300FD7F8A128B25900284EFF0900108E0FEC4
:10759300F45FFF90010BE05E4F900286F0FB9002D8
:1075A300A5E0FD7F8A128D529002A5E0FD7F8A80BF
:1075B3003C90010CE0FF9002A5E0FD128B259002A8
:1075C30084EFF0900108E0FEF45FFF90010BE05EB2
:1075D3004F900286F0FB90010CE0FF9002A5E0FDC6
:1075E300128D5290010CE0FF9002A5E0FD128B2555
:1075F300900284EFF03007307BFF7A2C79D0900132
:107603000CE0FF90012DE4F0A3EFF09002A5E0FF62
:1076130090012FE4F0A3EFF0900284E0FF9001319A
:08762300E4F0A3EFF0128AACC1
:01762B00223C
:1087A500900285E0C394027480948050097BFF7A1F
:1087B5002C79E2028C699002A9E0FBA3E0FAA3E020
:1087C500F912808D900108EEF0A3EFF0900108A357
:1087D500E0541F2420FF120003900109E024FFF05C
:0E87E500900108E034FFF0E07002A3E070DEC7
:0187F3002263
:107F37007BFF7A2C79FF128AAC7BFF7A2D79391275
:107F47008AAC7BFF7A2C79FF128AAC7BFF7A2D797A
:107F570071128AAC7BFF7A2D799A128AAC7BFF7AF1
:107F67002D79C4128AAC7BFF7A2D79E1128AAC7B1A
:107F7700FF7A2E790C128AAC7BFF7A2E7932128A1D
:107F8700AC7BFF7A2E7957128AAC7BFF7A2E798CDD
:107F9700128AAC7BFF7A2E79B7128AAC7BFF7A2ED6
:107FA70079DD128AAC7BFF7A2F790C128AAC7BFFC2
:107FB7007A2F793C128AAC7BFF7A2F7968128AACC8
:107FC7007BFF7A2F799B128AAC7BFF7A2C79FF1281
:0B7FD7008AAC7BFF7A2F799B028AACFA
:106B3D00E490010AF0128FD4EF7002FF22128E9CA6
:106B4D00900109EFF0D20A7D0E7F307E75127B68C1
:106B5D00900280E0601C900109E0FF640D6005EF7C
:106B6D00641B7007E4900280F0801B900109E0FF28
:106B7D00800E900109E0FFB43B0C9002807401F08F
:106B8D001290007F0022900109E024F87003026C3E
:106B9D00F424FB603024E17003026D0924FE7003C0
:106BAD00026D21147003026CE424F37003026D1561
:106BBD0024FE7003026D2D24236003026D3CE490CE
:106BCD000285F08058900281E07006127D1F026DE3
:106BDD0057900281E0FF04F074872FF582E43402B0
:106BED00F583E4F0900285F0900108F0900281E0C9
:106BFD00FF900108E0FEC39F501674872EF582E4C6
:106C0D003402F583E0B42008900108E004F080DC44
:106C1D0074872EF582E43402F583E0700E900281C4
:106C2D00F0900280F0127D1F7F0022900108E02479
:106C3D0087F9E43402FA9002A67401F0A3EAF0A3F6
:106C4D00E9F0900281E0FF900108E0FEC39F5071D2
:106C5D0074872EF582E43402F583E0FF642060032F
:106C6D00EF705674872EF582E43402F583E4F080DC
:106C7D0012900108E02487F582E43402F583E0FFE9
:106C8D00B42008900108E004F080E6900285E0044D
:106C9D00F0EF6025900108E02487F9E43402FA90C2
:106CAD000285E075F003A424A6F582E43402F58391
:106CBD007401F0A3EAF0A3E9F0900108E004F0807C
:106CCD008190010A7401F0900285E0900282F0E457
:106CDD00900281F0026D57900282E0900285F09053
:106CED00010A7401F08063900281E0605D14F0127E
:106CFD008FFB7F20129000128FFB804E900281E05F
:106D0D006002802BE4FF8022900281E06002801FF0
:106D1D007F0A8016900281E0600280137F01800A55
:106D2D00900281E0600280077F0B127DD6801B12DE
:106D3D008FFB900109E0FF900281E0FE04F0748763
:106D4D002EF582E43402F583EFF090010AE0FF6046
:106D5D000EE4900280F0900285E0900282F0229085
:046D6D00010AE0FF38
:016D710022FF
:10101E00126B3DEF7003021A97C20890010B74FF1A
:10102E00F0A3742FF0749E1285F1EF4E600302113F
:10103E00F87BFF7A2F79A0128AAC7F057E00128B87
:10104E005E900106EFF07BFF7A2F79B4E0FF9001FE
:10105E002DE4F0A3EFF0128AAC7F067E00128B5EB9
:10106E00900106EFF07BFF7A2F79C7E0FF90012DFC
:10107E00E4F0A3EFF0128AAC7BFF7A2F79DC128AB0
:10108E00AC7F107E00128D7B90012DE4F0A3EFF06B
:10109E007BFF7A2F79EF128AAC7F117E00128D7B47
:1010AE0090012DE4F0A3EFF07BFF7A307900128AE5
:1010BE00AC7F127E00128D7B90012DE4F0A3EFF039
:1010CE007BFF7A307910128AAC7F297E00128D7BDD
:1010DE0090012DE4F0A3EFF07BFF7A307926128A8F
:1010EE00AC7F087E00128D7B90012DE4F0A3EFF013
:1010FE007BFF7A30793F128AAC7F157E00128D7B92
:10110E0090012DE4F0A3EFF07BFF7A307953128A31
:10111E00AC7F167E00128D7B90012DE4F0A3EFF0D4
:10112E007BFF7A307964128AAC7F177E00128D7B3A
:10113E0090012DE4F0A3EFF07BFF7A307974128AE0
:10114E00AC7F187E00128D7B90012DE4F0A3EFF0A2
:10115E007BFF7A307985128AAC7F197E00128D7BE7
:10116E0090012DE4F0A3EFF07BFF7A307995128A8F
:10117E00AC7F207E00128D7B90012DE4F0A3EFF06A
:10118E007BFF7A3079A6128AAC7F217E00128D7B8E
:10119E0090012DE4F0A3EFF07BFF7A3079B6128A3E
:1011AE00AC7F227E00128D7B90012DE4F0A3EFF038
:1011BE007BFF7A3079C7128AAC7BFF7A3079D79071
:1011CE0001A8E0FCA3E0FDA3E0FEA3E0FF7810126F
:1011DE002AC790012DEEF0A3EFF09001A8A3A3E093
:1011EE00FFA3E090012FCF0213E490010B74FFF0E8
:1011FE00A37430F0A374F21285F2EF4E70061274DF
:10120E00C3021A9490010B74FFF0A37430F0A37410
:10121E00F41285F2EF4E70219001ACE06401F0FD06
:10122E007F107E0012891D7BFF7A3079F89001AC19
:10123E00E0FF90012DE402190490010B74FFF0A35E
:10124E007431F0A3740C1285F2EF4E70631289AFF5
:10125E007E00C0079002AC1289B2AD07D00712898A
:10126E001D1289AF7E00C007C0069002AC1289B273
:10127E0090012FEEF0A3EFF090012DD0E0F0A3D06F
:10128E00E0F07BFF7A31790E128AAC1289AF7E00C4
:10129E00128D7B1289AA90012DE4F0A3EFF07BFF53
:1012AE007A317932900106E0FF90012FE40213E4C7
:1012BE0090010B74FFF0A37431F0A374551285F2F4
:1012CE00EF4E70251289AF7E00128D7B1289AA9087
:1012DE00012DE4F0A3EFF07BFF7A31793290010615
:1012EE00E0FF90012FE40213E490010B74FFF0A3D2
:1012FE007431F0A374571285F2EF4E70081289AF55
:10130E008F10021A9490010B74FFF0A37431F0A3A6
:10131E0074591285F2EF4E602890010B74FFF0A302
:10132E007431F0A3745B1285F2EF4E601490010BD2
:10133E0074FFF0A37431F0A374601285F2EF4E7057
