:03000000027884FF
:0C788400787FE4F6D8FD7581790278CB9E
:10454F000D0A507265762E46573A2530327825304F
:10455F00327825303278000D0A437572722E465725
:10456F003A253032782530327825303278000D0AEE
:10457F0043616E6E6F74206163636573732045458D
:10458F0050524F4D21212121000D0A4E6F20696E8F
:10459F00697469616C697A6500285345545F4D43AE
:1045AF00555F504F5745525F444F574E5F4D4F44E5
:1045BF00452920000D0A285345545F50574D3D257E
:1045CF003032782076616C3D253032782900282AE8
:1045DF004456524368616E676543757272656E74B7
:1045EF003D3330306D412900282A445652436861CB
:1045FF006E676543757272656E743D313030306D24
:10460F004129000D0A3D3D3D3D3D3D3D3D3D3D3D7B
:10461F003D3D3D3D3D3D3D3D3D3D3D3D3D3D3D3DBB
:10462F003D3D3D3D3D3D3D000D0A53797374656D34
:10463F0020686173206265656E20776F726B696E9B
:10464F006720666F7220256420646179732C2025A2
:10465F006420686F7572732C202564206D696E75E8
:10466F0074657320616E64202564207365636F6EBB
:10467F006473000D0A53797374656D20686173203C
:10468F006265656E20776F726B696E6720666F72F9
:10469F0020256420686F7572732C202564206D6946
:1046AF006E7574657320616E642025642073656375
:1046BF006F6E6473000D0A53797374656D206861B2
:1046CF0073206265656E20776F726B696E67206607
:1046DF006F72202564206D696E7574657320616E2D
:1046EF0064202564207365636F6E6473000D0A5335
:1046FF00797374656D20686173206265656E2077CC
:10470F006F726B696E6720666F7220256420736508
:10471F00636F6E6473000D0A284261747465727959
:10472F004254483D25642825642E256456292900C6
:10473F002854454D505F4849474829002848494764
:10474F00485F544D45505F5741524E2900285445FC
:10475F004D505F4C4F572900284C4F575F544D45D4
:10476F00505F5741524E29002854454D505F4E4FD0
:10477F00524D414C29000D0A2842617474657279BB
:10478F004341503D25642825642E25303464562935
:10479F002928256456290028484947485F4348413E
:1047AF005247452900284C4F575F434841524745D0
:1047BF002900284E4F524D414C5F434841524745C7
:1047CF0029002853544F505F434841524745290011
:1047DF00284348415247455F4E4F5F424154542949
:1047EF0000285F424154545F5354415455535F4323
:1047FF00415041434954595F4C4556454C3029006F
:10480F00285F424154545F5354415455535F4341C1
:10481F005041434954595F4C4556454C3129002866
:10482F005F424154545F5354415455535F43415079
:10483F0041434954595F4C4556454C322900285F36
:10484F00424154545F5354415455535F4341504177
:10485F00434954595F4C4556454C332900285F4214
:10486F004154545F5354415455535F434150414356
:10487F004954595F4C4556454C342900285F4241F5
:10488F0054545F5354415455535F4341504143492E
:10489F0054595F4D494E2900285F424154545F538C
:1048AF0054415455535F43415041434954595F4D0F
:1048BF0041582900285F424154545F535441545585
:1048CF00535F43415041434954595F4D41585F53E2
:1048DF00544F50290028424154544552595F434187
:1048EF005041434954595F4E4F5F535441525455B1
:1048FF00502900285F424154545F5354415455533B
:10490F005F4E4F5F4241545429002843484152475C
:10491F00455F544D45505F41424E4F524D414C29DA
:10492F00000D0A285F504F5745525F53544154555D
:10493F00535F534156494E4729000D0A285F504F88
:10494F005745525F5354415455535F4F46462900C4
:10495F000D0A285F504F5745525F535441545553DA
:10496F005F4E4F524D414C29000D0A28504F57456D
:0D497F00525F5354415455533D25642900A7
:106374004102CA004102CB004102BC004102BF00FD
:106384004102C0004102BA004102B2004102CC0005
:106394004102B70002400000014600C101C1800271
:1063A4004700000144000145000274000004690034
:1063B400000000046D00000000C1044102B30101AB
:1063C4007200014200014300C102C1034102BD0049
:1063D4004102B4004102C1004402C6000000004171
:1063E40002C4004102C5004202C200004102BE00D4
:106DF800127EC39001061221FE7F047E001283BC1E
:106E08007E00C007C0067F051283BC7E00C007C095
:106E1800067F061283BC90012FE4F0A3EFF09001E7
:106E28002DD0E0F0A3D0E0F090012BD0E0F0A3D07B
:106E3800E0F07BFF7A45794F1280ED127EC3E47B48
:106E480037FAF9F8C3122193605F7BFF7A457966B8
:106E5800E490012BF0A3F0A3F0A3F0A3F0A3743700
:106E6800F01280ED1285147F047E001283BC7E0030
:106E7800C007C0067F051283BC7E00C007C0067F1E
:106E8800061283BC90012FE4F0A3EFF090012DD0FF
:106E9800E0F0A3D0E0F090012BD0E0F0A3D0E0F038
:106EA8007BFF7A4579661280ED127EC3E47B37FA60
:106EB800F9F8C3122193700B127F57EF701E1272EC
:106EC8008C80197BFF7A45797D1280ED7BFF7A45AE
:106ED80079981280ED9001D374FFF0227F641285B7
:0E6EE800467811E6540F4410F654F04402F6BA
:016EF6002279
:107D8300758DF4759850758922758855758A407577
:107D93008C4075878075B80275A892D299D2ACE4ED
:107DA300F5C8C2CAD2AD75AA5075BAF443A6184332
:107DB300AD10C203F5E9F5F975D90443D8404393EF
:107DC300A04391C475964075B10CF5B275B30CF52B
:027DD300B422D8
:1082DD007BFF7A4579A81280EDD2C2C2C1D2C0D23D
:1082ED00C6C2C5D2C49002B7E5A8F075A8809001AA
:0F82FD00BE7401F0D2E8D2E9758782000000223A
:1084C10020850320EA137F327E0012853120850347
:0C84D10020EA037F01227F00227F0022AE
:10775C0090010BEFF0A3EDF07BFF7A4579C390011C
:10776C002BE4F0A3EFF0EDFFA3E4F0A3EFF0128015
:10777C00ED90010BE0606D24EB60532416606124E6
:10778C00EB706475EC8090010CE0FFC374FF9FF507
:10779C00FC75DC42EF7004F5DCC2949001B6E06439
:1077AC0010701175EC8075FC6675DC427BFF7A45B8
:1077BC0079DD80179001B6E06411702B75EC807543
:1077CC00FCFF75DC427BFF7A4579F70280ED75EDA5
:1077DC008090010CE0FFC374FF9FF5FD75DD422224
:0877EC0043D8402253D840228B
:03000B00024DA7FC
:0D4DA700C0E0C0F0C083C082C0D075D0084D
:104DB40005730545C3E545940A74809480401390B7
:104DC4000227E004F07006900226E004F075450026
:104DD400D2099002BBE0600214F09002BBE06003D1
:104DE400024FB8E5B0540C13135403FF9002C9E00A
:104DF4006F7003024FB89002C7E09002C6F09002B1
:104E0400C8E09002C7F09002C9E09002C8F0A3EF96
:104E1400F0D2059001BDE064019002BB7430F090C3
:104E240002C6E0FF7E007026A3E064017020A3E0C8
:104E34006403701AA3E0640270149002C3E004F0E7
:104E440070069002C2E004F09002BEE004F0EF6449
:104E5400014E70269002C7E06403701EA3E0640252
:104E64007018A3E070149002C3E004F0700690027E
:104E7400C2E004F09002BEE004F09002C6E06403D5
:104E84007024A3E06402701EA3E0701AA3E064011E
:104E940070149002C3E004F070069002C2E004F0C3
:104EA4009002BEE004F09002C6E0FF7E006402704F
:104EB40024A3E07020A3E06401701AA3E0640370EB
:104EC400149002C3E004F070069002C2E004F09073
:104ED40002BEE004F0EF4E70289002C7E064027056
:104EE40020A3E06403701AA3E0640170149002C369
:104EF400E024FFF09002C2E034FFF09002BEE00430
:104F0400F09002C6E064027024A3E06403701EA360
:104F1400E064017018A3E070149002C3E024FFF071
:104F24009002C2E034FFF09002BEE004F09002C6AA
:104F3400E0FF7E0064037024A3E06401701EA3E01C
:104F4400701AA3E0640270149002C3E024FFF0908E
:104F540002C2E034FFF09002BEE004F0EF64014EC0
:104F640070269002C7E07020A3E06402701AA3E0E8
:104F7400640370149002C3E024FFF09002C2E03492
:104F8400FFF09002BEE004F09002BEE064C870241A
:104F94009001A2E0FCA3E0FDA3E0FEA3E02401FF56
:104FA400E43EFEE43DFDE43CFC9001A21221FE90AF
:104FB40002BEE4F0D3E573946074809480500302DD
:104FC40050E4054AE54A700205497573000544E555
:104FD4004464647010F544E5469002BD6005E00445
:104FE400F08002E4F0E575F47003E574F4600805FC
:104FF40075E57570020574AF70AE6FAD6EAC6DEC97
:105004004D4E4F6014EF24FFF570EE34FFF56FED55
:1050140034FFF56EEC34FFF56D9002B5E07002A339
:10502400E0600E9002B6E024FFF09002B5E034FF99
:10503400F0E5E8F4FF131313541F30E079E54164FD
:10504400324540701A9001A6E0600B7811E6FFC467
:10505400540F64077056754601C200D201804DE5B5
:1050640041642C7004E540640170219002C4E06442
:105074000170199001A6E06401701130002E75468C
:1050840001D2019002C504F0C2008020E541B420A1
:105094001BE540B4031630000D754601D2019002A1
:1050A400CC7401F0C2007540007541330541E541FF
:1050B400702E0540802AC3E5419432E540940040B7
:1050C400129001A6E06401700A300007754601D20F
:1050D400018005754600C201D2007540007541008B
:0B50E400D0D0D082D083D0F0D0E032DA
:10498C007BFF7A4679127F01127D2B9002BFE0FFEC
:10499C0060327BFF7A467937900134E4F0A3EFF074
:1049AC009002C0E0FF900136E4F0A3EFF09002BA61
:1049BC00E0FF900138E4F0A3EFF09002B2E0FF903A
:1049CC00013A80579002C0E0FF60257BFF7A467960
:1049DC0082900134E4F0A3EFF09002BAE0FF900172
:1049EC0036E4F0A3EFF09002B2E0FF900138802B98
:1049FC009002BAE0FF7BFF60167A4679C4900134CE
:104A0C00E4F0A3EFF09002B2E0FF900136800C7A54
:104A1C004679FC9002B2E0FF900134E4F0A3EFF091
:104A2C007F03127D2B90026AE0FEA3E0FF9001341D
:104A3C00EEF0A3EFF07805C333CE33CED8F9FBAA52
:104A4C00067C277D10FF121F19900136EEF0A3EFA4
:104A5C00F07C277D10AF03AE02121F19A3ECF0A35C
:104A6C00EDF07BFF7A4779257F02127D2B9001B107
:104A7C00E0541F6406700A7BFF7A47793F7F018000
:104A8C00429001B2E0C31313500A7BFF7A47794B73
:104A9C007F03802F9001B1E0541F6408700A7BFFE4
:104AAC007A47795C7F04801B9001B2E01313543F6A
:104ABC00137BFF50087A4779677F0380067A477922
:104ACC00777F02127D2B9001B3E0541F6409706F45
:104ADC00A3E0FEA3E07805C333CE33CED8F9246A25
:104AEC00FFEE34FFFE7C277D10121F197E007F64C1
:104AFC00CFCDCFCECCCE121F19AA06AB079001B4E6
:104B0C00E0FEA3E07805C333CE33CED8F9246AFF98
:104B1C00EE34FFFE7C277D10121F197C007D641281
:104B2C001F07EF2BFFEE3AFE90010AF0A3EFF07D8A
:104B3C0037121F077D64121F1990010AEE807190C5
:104B4C0001B4E0FEA3E0FF7C007D3B121F077D64F7
:104B5C00121F19EF25E0FBEE33FA9001B4E0FEA32F
:104B6C00E0FF7C007D3B121F077D64121F19EF2BA9
:104B7C00FFEE3AFE90010AF0A3EFF07C037DE81201
:104B8C001F19EF4E90010A6017E0FEA3E0FF7C00B6
:104B9C007D0A121F19EF2401FFE43E90010A8010D8
:104BAC00E0FEA3E0FF7C007D0A121F1990010AEEC3
:104BBC00F0A3EFF09001B4E0FEA3E0FF900134EE1F
:104BCC00F0A3EFF07C007D21121F07AA06AB077C37
:104BDC00277D10121F19A3EEF0A3EFF07C277D1098
:104BEC00AF03AE02121F19A3ECF0A3EDF090010A73
:104BFC00E0FFA3E090013ACFF0A3EFF07BFF7A4700
:104C0C0079857F05127D2B9001B3E0541F640D70E4
:104C1C000A7BFF7A4779A67F02804E9001B3E0545D
:104C2C001F640E700A7BFF7A4779B47F03803A9039
:104C3C0001B3E0541F640F700A7BFF7A4779C17F80
:104C4C000580269001B3E0541F6410700A7BFF7A34
:104C5C004779D17F0180129001B3E0541F64097031
:104C6C000B7BFF7A4779DF7F01127D2B9001B0E03F
:104C7C00541F640470087BFF7A4779F080449001DC
:104C8C00B0E0541F640370087BFF7A48790F8032C0
:104C9C009001B0E0541F640270087BFF7A48792EB3
:104CAC0080209001B0E0541F640170087BFF7A48AB
:104CBC00794D800E9001B0E0541F700A7BFF7A484A
:104CCC00796C7F0280629001B0E0541F6415700A09
:104CDC007BFF7A48798B7F04804E9001B0E0541FA3
:104CEC006416700A7BFF7A4879A77F06803A900198
:104CFC00B0E0541F6417700A7BFF7A4879C37F05B4
:104D0C0080269001B0E0541F6418700A7BFF7A482B
:104D1C0079E47F0580129001B0E0541F6409700B98
:104D2C007BFF7A4979027F01127D2B9001B2E0134F
:104D3C001313541F13500B7BFF7A4979197F0112FF
:104D4C007D2B7811E6C4540F640770087BFF7A49F9
:104D5C00793080377811E6C4540F640170087BFFFA
:104D6C007A49794980257811E6C4540F64027BFF97
:104D7C0070067A49795F80137A4979787811E6C49C
:104D8C00540FFF900134E4F0A3EFF07F06127D2B5B
:0B4D9C007BFF7A4679127F01027D2B1D
:10855E00E4FFEFC3941D74809480500974222FF8A9
:05856E00E4F60F80EDB2
:0185730022E5
:107B9400EF24E5B40A005070907BAA75F003A4C5E5
:107BA4008325F0C58373027BD4027BC8027BD20297
:107BB4007BCD027BD6027C0C027BDE027BE8027B5F
:107BC400F5027C01D2E9D2E822D2E8C2E92280059A
:107BD400801530E817C2E8D2E92230E905C2E9D2BB
:107BE400E822800830E805C2E8C2E922D2E8D2E9F6
:107BF4002230E904C2E98002D2E9C2E82230E80472
:097C0400C2E88002D2E8C2E922C4
:03001300020026C2
:03002600C2AA3239
:0300230002830C49
:10830C00C0E0C0D075D008309819744B2571F8A610
:10831C00990571C3E571941E748094804003757146
:0F832C0000C298309904C299C202D0D0D0E0327A
:0300630002812BEC
:10812B00C0E0C0D075D008E5AA54016401701A53A1
:10813B00AAFE74222542F8A69A0542C3E542941E74
:10814B00748094804003754200E5AA540264027067
:0B815B000553AAFDC203D0D0D0E032D3
:0B861400E571B572037F00227F012298
:1084DD00C2AC744B2572F8E6FF0572E572C3941EAB
:0B84ED00748094804003E4F572D2AC70
:0184F8002261
:0B861F00E542B543037F00227F0122EB
:1084A30053ADEF74222543F8E6FF0543E543C39438
:0D84B3001E748094804003E4F54343AD1037
:0184C0002299
:080003002002FD8F99D20222B8
:088633002003FD8F9AD20322FF
:03002B000285F952
:0F85F900C0E0C2CF0548E54870020547D0E03228
:10854600E5442FFFE433FE7C007D64121F19E544E9
:07855600B505FBE4B504F7D5
:01855D0022FB
:03003300028465DF
:10846500C0E0C083C082C2C2C2C17587809002B716
:0F847500E0F5A89001BEE4F0D082D083D0E032D1
:03003B00028484B8
:10848400C0E0C083C082C2C6C2C57587809002B7EF
:0F849400E0F5A89001BEE4F0D082D083D0E032B2
:1085C4000D0A436C656172426173696345452E2EE1
:0285D4002E0077
:107EC3007E007D007C007F051283BCEF7F00FEC037
:107ED30007C0067F047E001283BC7E00EF7810C3C8
:107EE30033CE33CED8F9FDD0E04EFED0E04DFFC007
:107EF30007C0067F067E001283BCEFFDD0E0FED0F4
:097F0300E04DFFEE3395E0FDFCBA
:017F0C002252
:107F570090010A7401F0E4FFFE1283BCEF64306005
:107F6700037F00227F017E001283BCEF643760032A
:107F77007F00227F027E001283BCEF643060037FA4
:107F870000227F037E001283BCEF644960037F00F9
:067F97002290010AE0FF48
:017F9D0022C1
:10851400E4FD7F04FE127F9EE4FD7F05FE127F9E34
:098524007D377F067E00027F9E78
:09862A00AD077F077E00027F9E70
:10728C007BFF7A8579C41280ED7D30E4FFFE127F9E
:10729C009E7D377F017E00127F9E7D307F027E00B7
:1072AC00127F9E7D497F037E00127F9E7D017F10A1
:1072BC007E00127F9E7D277F117E00127F9EE4FD53
:1072CC007F07FE127F9EE4FD7F12FE127F9EE4FD7F
:1072DC007F13FE127F9E7D017F147E00127F9E7DA8
:1072EC00017F157E00127F9EE4FD7F16FE127F9EAD
:1072FC007D017F177E00127F9EE4FD7F18FE127FBA
:10730C009E7D017F197E00127F9EE4FD7F20FE1280
:10731C007F9E7D017F217E00127F9EE4FD7F22FEF9
:10732C00127F9EE4FD7F23FE127F9EE4FD7F24FEF0
:0B733C00127F9EE4FD7F25FE027F9E75
:105C8A000D0A28474F54205541525420444154414B
:105C9A0029002831290028322900283329000D0A31
:105CAA0028576F726B20434D443D253032782900C6
:105CBA000D0A28434D443A535953205245414459F9
:105CCA0029000D0A28434D443A574454206B69630E
:105CDA006B29000D0A28434D443A454E5452595FE8
:105CEA00534C45455029000D0A28434D443A44492E
:105CFA005354414E43455F524553455429000D0ABA
:105D0A002028434D443A454E434F4445525F53453C
:105D1A005429000D0A20456E636F72646572313D25
:105D2A0025303278000D0A20446563696D616C3153
:105D3A003D25303278000D0A20456E636F72646526
:105D4A0072323D25303278000D0A20446563696D50
:105D5A00616C323D25303278000D0A20456E636F42
:105D6A0072646572333D25303278000D0A2044652D
:105D7A0063696D616C333D25303278000D0A204528
:105D8A006E636F72646572343D25303278000D0A95
:105D9A0020446563696D616C343D25303278000DAD
:105DAA000A28434D443A43414D4552415F564F4CB0
:105DBA005441474529000D0A28434D443A57445453
:105DCA005F53455454494E4729000D0A28434D4410
:105DDA003A5744545F456E61626C653D3129000D46
:105DEA000A28434D443A5744545F456E61626C65D4
:105DFA003D3029000D0A28434D443A4745545F4D2A
:105E0A0043555F465729000D0A28434D443A4456E4
:105E1A00525F5245424F4F5429000D0A28434D44C0
:105E2A003A4456525F53485554444F574E29000D31
:105E3A000A28434D443A627974486F6C644F6E3352
:105E4A0053506F7765724F66663D4F464629000D7F
:105E5A000A28434D443A4C4F5720426174742076C5
:105E6A006F6C742E2073687574646F776E29000DD9
:105E7A000A28434D443A627974486F6C644F6E3312
:105E8A0053506F7765724F666629000D0A28434D95
:105E9A00443A4D43555F454E5445525F4953505F0E
:105EAA004D4F444529000D0A28434D443A4D435568
:105EBA005F44433132565F5057525F5354415254F4
:105ECA003D256429000D0A28434D443A5345545F41
:105EDA004348415247455F43555252454E543D252A
:105EEA003032782900284353206572726F72290074
:0463F400410105005E
:09322F0012861FEF70030239281A
:103238001284A3900106EFF0647E70197BFF7A5C1C
:10324800798A7F06127D2BC20D9001057401F0E486
:10325800900003F022900106E0FF647D7003D20D18
:1032680022300D09C20DEF4470900106F09001055F
:10327800E0FB64046010900003E0FE900106E0FDAE
:10328800EE6D900003F0EB24FE603214606F147052
:103298000302335F24036003023928900106E0909B
:1032A8000002F01424F8500E24F924FD5008248E4E
:1032B8006004245570449001057402F022900106C0
:1032C800E0900001F0A3E01424F8500E24F924FD46
:1032D8005008248E600424557020900001E0700787
:1032E8009001057404F022E4900000F09001057448
:1032F80003F07BFF7A5C799C8055023923900002A9
:10330800E01424F8500E24F924FD5008248E60049B
:1033180024557040900106E0FF900000E02405F578
:1033280082E43400F583EFF0900000E004F0A3E0BD
:10333800FF900000E0B507119001057404F07BFFD1
:103348007A5C79A07F06127D2B7BFF7A5C79A47F5B
:1033580006027D2B023923900106E0FF900003E06E
:103368006F600302391A7BFF7A5C79A8900002E04B
:10337800FF900134E4F0A3EFF07F06127D2B90005C
:1033880002E012225B33B801340602342B03343FC7
:1033980004345305367F0636D00738A30837111092
:1033A800372511379F12388C3038E48500003923CF
:1033B8007BFF7A5C79BA7F06127D2B9001BAE044D4
:1033C80001F09001B3E054E04414F09001BAE0FF3A
:1033D800131313541F13500EEF54F7F07F131253A7
:1033E800E07F0812806E9001BAE0C3131340097D94
:1033F8001A7F107E27126FF675B2300239237BFFD1
:103408007A5C79CC7F06127D2B7F1A12806E900130
:10341800BAE0C3131350030239237D1A7F107E27A5
:1034280002389D7BFF7A5C79DD7F06127D2B7D0655
:103438007FE87E0302389D7BFF7A5C79F17F061274
:103448007D2B7D077F647E0002389D7BFF7A5D7946
:10345800087F06127D2B7BFF7A5D791D900005E0C1
:10346800FF90012BE4F0A3EFF01280ED7BFF7A5D73
:10347800792F900006E0FF90012BE4F0A3EFF01203
:1034880080ED7BFF7A5D7940900007E0FF90012B8B
:10349800E4F0A3EFF01280ED7BFF7A5D79529000A3
:1034A80008E0FF90012BE4F0A3EFF01280ED7BFF22
:1034B8007A5D7963900009E0FF90012BE4F0A3EFB7
:1034C800F01280ED7BFF7A5D797590000AE0FF903D
:1034D800012BE4F0A3EFF01280ED7BFF7A5D798693
:1034E80090000BE0FF90012BE4F0A3EFF01280EDC9
:1034F8007BFF7A5D799890000CE0FF90012BE4F057
:10350800A3EFF01280ED900005E0FDC4540F75F0B4
:103518000AA4FFED540F7C002FFDEC35F0FC121CC3
:10352800CD9001E11221FE900006E0FDC4540F7514
:10353800F00AA4FFED540F7C002FFDEC35F0FC12CF
:103548001CCD9001CF1221FE900007E0FDC4540F5E
:1035580075F00AA4FFED540F7C002FFDEC35F0FC4C
:10356800121CCD9001E51221FE900008E0FDC45424
:103578000F75F00AA4FFED540F7C002FFDEC35F019
:10358800FC121CCD9001D41221FE900009E0FDC46C
:10359800540F75F00AA4FFED540F7C002FFDEC3595
:1035A800F0FC121CCD9001E91221FE90000AE0FD0A
:1035B800C4540F75F00AA4FFED540F7C002FFDECE6
:1035C80035F0FC121CCD9001D81221FE90000BE0C2
:1035D800FDC4540F75F00AA4FFED540F7C002FFDB5
:1035E800EC35F0FC121CCD9001ED1221FE90000C80
:1035F800E0FDC4540F75F00AA4FFED540F7C002FB2
:10360800FDEC35F0FC121CCD9001DC1221FE90007F
:1036180005E0FD7F157E00127F9E900006E0FD7F8D
:10362800167E00127F9E900007E0FD7F177E001235
:103638007F9E900008E0FD7F187E00127F9E90001C
:1036480009E0FD7F197E00127F9E90000AE0FD7F51
:10365800207E00127F9E90000BE0FD7F217E0012ED
:103668007F9E90000CE0FD7F227E00127F9E7D0CE5
:103678007FE87E0302389D7BFF7A5D79A97F061279
:103688007D2B900005E0C3940574809480500374EA
:1036980005F0900005E024FB75F00AA4FFA3E02FD5
:1036A80090021AF0D394287480948040057428F00E
:1036B800800A90021AE0FFC374289FF07D037FF40C
:1036C8007E011270D50239237BFF7A5D79C07F06AF
:1036D800127D2B900005E070109001BAE054FDF0C7
:1036E8007BFF7A5D79D40238DD900005E0640160E3
:1036F800030239237F1A12806E9001BAE04402F067
:103708007BFF7A5D79E90238DD7BFF7A5D79FE7FA0
:1037180006127D2B7D047FE87E0302389D7BFF7AAD
:103728005E79117F06127D2B900005E070339001C1
:10373800BAE054FEF07F1A12806E7F1F12806E7FEF
:103748002012806E7F2112806E7F2212806E7F236E
:1037580012806E7F2412806E7D227F647E00023884
:103768009D900005E0640170089001BAE04408806B
:1037780014900005E0640260030239239001BAE066
:103788004408F04410F07D087FE87E03126FF67F4E
:103798001A12806E0239237BFF7A5E79247F061223
:1037A8007D2B900005E0640170199001BAE054BFC8
:1037B800F0E49002C4F07BFF7A5E79397F02127DD3
:1037C8002B80319001A6E064017029900005E0701B
:1037D800239001BAE054BFF0E49001A6F0FD7F10F9
:1037E800FE127F9E9001BAE0FF1313543F1350045A
:1037F800EF54FBF09001A6E064017051900005E0E1
:10380800640270499001B1E04420F09001BAE0549C
:10381800BFF0E49001A6F0FD7F10FE127F9E7F139B
:103828007E001283BCEF70087D017F13FE127F9E1D
:103838007BFF7A5E79597F01127D2B9001BAE0FFF8
:103848001313543F135025EF54FBF0801F9001A62B
:10385800E064017017900005E06403700F9002C4E3
:1038680004F07BFF7A5E7979FF127D2B7F0A128044
:103878006E9002C4E0640160030239237D0A7F98D8
:103888007E3A80117BFF7A5E79957F06127D2B7DCB
:103898000B7FE87E03126FF6023923900005E0647F
:1038A8000170107D017F12FE127F9E9001E074016D
:1038B800F0800DE4FD7F12FE127F9EE49001E0F09F
:1038C8007F127E001283BC900134E4F0A3EFF07BFA
:1038D800FF7A5E79B07F06127D2B803F900005E06D
:1038E80064019001B670057411F080037410F07BC8
:1038F800FF7A5E79CF9001B6E0FF900134E4F0A33F
:10390800EFF07F02127D2B9001B3E054E04414F0F5
:1039180080097BFF7A5E79EF127FEDE4900105F074
:01392800227C
:048589009291D29069
:0F858D00E4FFEFC394017480948050030F80F3D8
:01859C0022BC
:0B7F9E0090010EEEF0A3EFF0A3EDF059
:107FA90090010EE0FEA3E07807CEC313CE13D8F9F3
:107FB90044A054FE900111F01285D6900111E0FF02
:107FC900127B1990010EA3E0FF127B19900110E0BA
:0C7FD900FF127B191200167F0202854681
:0483BC00AD07AC0657
:1083C000ED7807CEC313CE13D8F944A054FEFF12A4
:1083D0008166900130EFF07F02128546900130E017
:0183E000FF9D
:0183E1002279
:08816600900131EFF0A3EDF0F0
:10816E001285D6900131E0FF127B19900132E0FFAB
:10817E00127B191285D6900131E04401FF127B1952
:10818E00128244900133EFF0120016900133E0FF9B
:01819E0022BE
:1083930090010DEFF0A3EDF0A3EBF01285D6900161
:1083A3000DE0FF127B1990010EE0FF127B19900183
:0983B3000FE0FF127B1902001615
:1085D600D29112858DD29012858DC29112858DC24F
:0285E6009022E1
:0D001600C29112858DD29012858DD291225B
:107B1900AE07C290EE30E703D38001C3128589C254
:107B290090EE30E603D38001C3128589C290EE300E
:107B3900E503D38001C3128589C290EE30E403D3F3
:107B49008001C3128589C290EE30E303D38001C35B
:107B5900128589C290EE30E203D38001C312858970
:107B6900C290EE30E103D38001C3128589C290EE41
:107B790030E003D38001C3128589C290C290C290BC
:0B7B8900D291D290D290D290C29022F4
:10824400E4FED29112858DC290E4FDFCD290EE251D
:10825400E0FE3091034401FEC2900DBD00010CED1F
:1082640064084C70E712858DD290D290D290C2905F
:02827400AF0653
:0182760022E5
:107A9B00AE07C290EE30E703D38001C3128589C2D3
:107AAB0090EE30E603D38001C3128589C290EE308D
:107ABB00E503D38001C3128589C290EE30E403D372
:107ACB008001C3128589C290EE30E303D38001C3DA
:107ADB00128589C290EE30E203D38001C3128589EF
:107AEB00C290EE30E103D38001C3128589C290EEC0
:107AFB0030E003D38001C3128589C290C290C2903B
:0E7B0B00D29112858DD290D290D290C290224B
:10820F00E4FED29112858DC290E4FDFCD290EE2552
:10821F00E0FE3091034401FEC2900DBD00010CED54
:10822F0064084C70E7D291D290D290D29012858D83
:04823F00C290AF0634
:018243002218
:04842500AB07AA06F1
:108429007E5E1285D67F5E127A9BAF03127A9BAF6E
:0C84390005127A9B1200167F0202854695
:04819F00AD07AC0676
:1081A3007B5E1285D67F5E127A9BAF05127A9BE4C3
:1081B300FF127A9B1285D6745E4401FF127A9B12DA
:1081C300820F900108EFF01200167F02128546908D
:0481D3000108E0FFC0
:0181D7002285
:107DD5007F011284F9EF60489002CCE064017014D1
:107DE5009001A6E06401700C9002CCF07D057FF453
:107DF5007E0180299002C5E06401701B9001A6E018
:107E0500640170139002C4F09002C5F09001A6F0D1
:107E1500FD7F10FE027F9E7D147F647E00126FF64B
:017E2500223A
:1084F900A201920BC201200B037F0022EF6003AFA0
:0A8509004622200003AF46227F0047
:018513002245
:1050EF000D0A2841435F504C55475F4F55542900D7
:1050FF000D0A476574526F746174654E756D626504
:10510F00723D2530317825303478000D0A536176A1
:10511F0065526F746174654E756D6265723E393993
:10512F0039393939000D0A53617665526F746174DC
:10513F00654E756D6265723D2564000D0A456E639F
:10514F006F72646572436F756E743D2564000D0A4E
:10515F00456E636F72646572436F756E7454656DDF
:10516F00703D256420000D0A456E636F7264657291
:10517F004C656E5F4F66667365743D256420000D48
:10518F000A456E636F72646572436F756E74504E2D
:10519F003D256420000D0A74656D705F456E636F69
:1051AF0072646572436F756E7454656D703D2564DE
:1051BF0020000D0A456E636F726465724C656E3D1B
:1051CF00256420000D0A456E636F72646572436F2C
:1051DF00756E743D256420000D0A456E636F726411
:1051EF0065724C656E696E743D256420000D0A452D
:1051FF006E636F726465724C656E54656D703D259C
:10520F00642E25646D20000D0A456E636F72646510
:10521F00724C656E666C6F6161743D256420000D84
:10522F000A2854454C4929456E636F726465724371
:10523F006F756E743D2564000D0A2854454C49293D
:10524F00456E636F72646572436F756E7454656DEE
:10525F00703D256420000D0A2854454C4929456EA0
:10526F00636F726465724C656E5F4F6666736574CB
:10527F003D256420000D0A2854454C4929456E638D
:10528F006F72646572436F756E74504E3D25642066
:10529F00000D0A2854454C492974656D705F456EA1
:1052AF00636F72646572436F756E7454656D703D94
:1052BF00256420000D0A2854454C4929456E636F1B
:1052CF00726465724C656E3D256420000D0A28548A
:1052DF00454C4929456E636F72646572436F756EF5
:1052EF00743D256420000D0A2854454C4929456E0C
:1052FF00636F726465724C656E696E743D256420D0
:10530F00000D0A2854454C4929456E636F72646538
:10531F00724C656E54656D703D25642E25646D204D
:10532F00000D0A2854454C4929456E636F72646518
:10533F00724C656E666C6F6161743D256420000D63
:10534F000A5374617274204D61696E204C6F6F70D7
:10535F002E2E2E000D0A2854454C49204D6F6465A2
:10536F0029000D0A28524558204D6F646529000DFC
:10537F000A537461727420426F6F742E2E2E000DBB
:10538F000A2843616D657261566F6C743D256429FF
:10539F00000D0A28476F696E6720746F20706F7752
:1053AF006572206F66662E2E2E29000D0A28537403
:1053BF006172742075702020506F776572204F6E68
:1053CF00204D6F64652E2E2E290000000000000076
:0153DF0000CD
:1063F8004601B00000000000004201BA000041015F
:10640800B6004101BE004101BD014401CA000000BF
:10641800004201B700004101B9004101CE0041012D
:10642800C5004201C600004401E13F80000044016C
:10643800E53F8000004401E93F8000004401ED3F52
:106448008000004401CF000000004401D400000097
:10645800004401D8000000004401DC0000000044B2
:1064680001A2000000004201C800FA4201A703434C
:106478004601AA0000002800154601BF00000028B8
:106488000015602901F10506080A0B0D0F101214FA
:1064980016181A1C1E202225272A2C2F3235383B85
:0F64A8003E4245484B5055585D61666B70757AA2
:1082770075E5028DE390010FE0F5E4121E7DF5E24E
:1082870075E64675E6B9740129F9E43AFA90010FE3
:10829700E004F0E070030D8DE3900110E014F0E0CE
:0382A70070D3226F
:04000E0075E78122EF
:10840400E490010AF012000E7B017A01790A9001CE
:108414000F74FFF0A37401F07DEF12827775E760AB
:018424002235
:1074B200FF6DFD90014A7401F0A37401F0A37445BD
:0A74C200F0EFA3F07B017A017935A9
:1074CC00900147EBF0A3EAF0A3E9F090014DE0FF47
:1074DC00647E6005EF647D703F90014AE0FBA3E0A1
:1074EC00FAA3E0F9121E7DFF900147E0FBA3E0FA3E
:1074FC00A3E0F98F82758300747D121EE590014A1A
:10750C00E0FBA3E0FAA3E0F97401121EC390014D55
:10751C00E0540F4450FF801090014DE0FF90014A61
:10752C00E0FBA3E0FAA3E0F9121E7DFE900147E018
:10753C00FBA3E0FAA3E0F98E82758300EF121EE53F
:10754C0090014AE0FBA3E0FAA3E0F97401121EC318
:03755C007F00228B
:0B77F400900131EBF0A3EAF0A3E9F0F4
:1077FF00900135747EF09001457401F0EF1274B46E
:10780F00900134E01274B2E4900146F0900134E03C
:10781F00FF900146E0FEC39F501E900131E0FBA395
:10782F00E0FAA3E0F98E82758300121E961274B2ED
:10783F00900146E004F080D490014A7401F0A374E3
:10784F0001F0A37445F0ED1274C4E4900146F0907A
:10785F000145E0FFA3E0FEC39F501774352EF5825C
:10786F00E43401F583E0FF128633900146E004F023
:04787F0080DD7F0029
:0178830022E2
:055EFA00900128EFF00B
:105EFF0078297C017D017BFF7A5379D97E007F075A
:105F0F00121E57900128E0247F604E147003026028
:105F1F00E714700302611D14700302612D240460E5
:105F2F000302613E7F047E001283BC900129EFF0D3
:105F3F007F057E001283BC90012AEFF07F067E0062
:105F4F001283BC90012BEFF07B017A01792990012C
:105F5F00347403F07F8002613B9001B4E0FEA3E054
:105F6F00FF7C007D3B121F077D64121F19EF25E098
:105F7F00FBEE33FA9001B4E0FEA3E0FF7C007D3B23
:105F8F00121F077D64121F19EF2BFFEE3AAB07FAB2
:105F9F007C037DE8FE121F19EF4E7C007D0AAF03D4
:105FAF00AE026009121F19EF2401FB8005121F19A1
:105FBF00AB07900129EBF090026AE0FCA3E0FDEC47
:105FCF0090012BF0EDA3F09001B9E0FF75F00A847A
:105FDF00C454F0FEEF75F00A84E5F04E90012DF0F9
:105FEF009001C6E0FEA3E0FF7C007D0A121F19EFAF
:105FFF00C454F0FB9001C6E0FEA3E0FF7C007D0AD5
:10600F00121F19EB4D90012EF09001CEE090012F51
:10601F00F09001B0E0F9C41313540313500790012B
:10602F002AE04401F09001B1E0541FFD7C006406AA
:10603F00700790012AE04402F0ED64084C7007905D
:10604F00012AE04404F0E9C41354071350079001E8
:10605F002AE04408F09001B2E0FD13500790012AA6
:10606F00E04410F0EDC31313500790012AE04420D1
:10607F00F09001B2E01313543F13500790012AE040
:10608F004440F020804230813FD390026BE0945A1D
:10609F0090026AE0940040309001B1E0FFC4131306
:1060AF005403134023EF541F6407701CA3E0131312
:1060BF0013541F1340129001B0E0C4135407134040
:1060CF000790012AE04480F07B017A017929900141
:1060DF00347407F07F8180549001B0E0FFC4131334
:1060EF001354011350189001297401F0EF547F904D
:1060FF0001B0F07BFF7A5079EF7F01127D2B7B018E
:10610F007A0179299001347401F07F82801E7B011E
:10611F007A0179299001347401F07F83800E7B011D
:0F612F007A0179299001347401F07F841277F49A
:01613E00223E
:107C77001283E27D157F017E00126FF67D117F0171
:107C87007E00126FF67D167FE87E03126FF67D1376
:107C97007F017E00126FF67D1F7F017E00126FF657
:107CA7007D107F017E00126FF67D2C7F107E2712DC
:107CB7006FF67D187F107E27126FF69001B0E044B3
:0B7CC70040F07D2B7F107E27026FF63F
:1068D90090010CEEF0A3EFF0A3EBF0A3EAF0A3E92B
:0168E900F0BE
:1068EA00900004121FFBFDD3EF9DE5F06480F8EEE3
:1068FA00648098400302698D900114E0FBA3E0FADA
:10690A00A3E0F9900004121FFBFFAEF0121FD0FDA6
:10691A00C3EF9DFFEE95F0900117F0A3EFF0900101
:10692A000EE0FBA3E0FAA3E0F9900004121FFBFDBE
:10693A00ACF0121FD0FBAAF0C3ED9BFFEC9AFE90BD
:10694A000119F0A3EFF04E7002FF2290010CE0FE55
:10695A00A3E0FFC3EF9BFFEE9AFE900117E0FCA3B2
:10696A00E0FD121F07A3E0FCA3E0FD121F6EC006A4
:10697A00C007900114E0FBA3E0FAA3E0F9121FD0CC
:10698A00026A31900114E0FBA3E0FAA3E0F9900057
:10699A0004121FFBFFAEF0900002121FFBC39FFF01
:1069AA00E5F09E900117F0A3EFF090010EE0FBA333
:1069BA00E0FAA3E0F9900004121FFBFFAEF090008A
:1069CA0002121FFBC39FFFE5F09EFE900119F0A380
:1069DA00EFF04E7002FF2290010EE0FBA3E0FAA353
:1069EA00E0F9900004121FFBFFAEF0AB07AA069075
:1069FA00010CE0FEA3E0FFC3EF9BFFEE9AFE9001BD
:106A0A0017E0FCA3E0FD121F07A3E0FCA3E0FD12C0
:106A1A001F6EC006C007900114E0FBA3E0FAA3E0D2
:106A2A00F9900004121FFBFFAEF0D0E02FFFD0E078
:106A3A003EF9900111E0FBA3E0FAA3E0C98FF0123E
:046A4A0020337F0175
:016A4E002225
:1080AF007E009001117401F0A37401F0A3740AF023
:1080BF00A37401F0A37401F0A374BFF07B017A01E4
:1080CF0079AA1268D990010AE0FEA3E024F1F582A3
:0E80DF0074013EF583E0FD7F027E00028425E1
:106EF70090010612220A000000007F257E001283FF
:106F0700BCE4FCFDFE9001061221FE900106E0FCA8
:106F1700A3E0FDA3E0FEA3E0FF78081221CB9001D8
:106F2700061221FE900106E0F8A3E0F9A3E0FAA318
:106F3700E0FBC000C001C002C0037F247E001283B3
:106F4700BCD003D002D001D000EB4FFFEAFEE9FD31
:106F5700E8FC9001061221FE900106E0FCA3E0FD8B
:106F6700A3E0FEA3E0FF78081221CB9001061221CF
:106F7700FE900106E0F8A3E0F9A3E0FAA3E0FBC066
:106F870000C001C002C0037F237E001283BCD00370
:106F9700D002D001D000EB4FFFEAFEE9FDE8FC90FC
:106FA70001061221FE7BFF7A5079FF900106E0FC73
:106FB700A3E0FDA3E0FEA3E0FF78101221A4900157
:106FC7002BEEF0A3EFF0900106A3A3E0FFA3E09060
:106FD700012DCFF0A3EFF01280ED900106E0FCA3A6
:086FE700E0FDA3E0FEA3E0FFC2
:016FEF00227F
:06672E009001061221FE9D
:1067340090010A12220A000000007F257E001283C5
:10674400BCE4FCFDFE90010A1221FE90010AE0FC6B
:10675400A3E0FDA3E0FEA3E0FF78081221CB9001A3
:106764000A1221FE90010AE0F8A3E0F9A3E0FAA3DB
:10677400E0FBC000C001C002C0037F247E0012837E
:10678400BCD003D002D001D000EB4FFFEAFEE9FDFC
:10679400E8FC90010A1221FE90010AE0FCA3E0FD4E
:1067A400A3E0FEA3E0FF78081221CB90010A122196
:1067B400FE90010AE0F8A3E0F9A3E0FAA3E0FBC02D
:1067C40000C001C002C0037F237E001283BCD0033B
:1067D400D002D001D000EB4FFFEAFEE9FDE8FC90C7
:1067E400010A1221FE900106E0FCA3E0FDA3E0FEF5
:1067F400A3E0FFA3E0F8A3E0F9A3E0FAA3E0FBC35E
:1068040012219370030268D87F3F7E427D0F7C0083
:10681400900106E0F8A3E0F9A3E0FAA3E0FBD312A9
:106824002193402B900106E0FCA3E0FDA3E0FEA32E
:10683400E0943FFFEE9442FEED940FFDEC9400FCD7
:106844009001061221FE7BFF7A51791A1280ED9095
:106854000106E0FCA3A3A3E0FFE4AD077F23FE123F
:106864007F9E900106E0FCA3E0FDA3E0FEA3E0FF11
:1068740078081221A49001061221FE900106E0FC82
:10688400A3A3A3E0FFE4AD077F24FE127F9E900143
:1068940006E0FCA3E0FDA3E0FEA3E0FF78081221DC
:1068A400A49001061221FE900106E0FCA3A3A3E03C
:1068B400FFE4AD077F25FE127F9E7BFF7A5179347A
:1068C400900106A3A3E0FFA3E090012BCFF0A3EF78
:0468D400F01280ED51
:0168D800229D
:1056CC007F107E001283BC9001A6EFF07F117E004C
:1056DC001283BC90021AEFF07F127E001283BC90F2
:1056EC0001E0EFF07F147E001283BC9001BCEFF060
:1056FC007F157E001283BCEFC4540F75F00AA4FF13
:10570C00AEF0C006C0077F157E001283BCEF540FAD
:10571C00FDD0E02DFDD0E03400FC121CCD9001E159
:10572C001221FE7F167E001283BCEFC4540F75F05D
:10573C000AA4FFAEF0C006C0077F167E001283BC21
:10574C00EF540FFDD0E02DFDD0E03400FC121CCD49
:10575C009001CF1221FE7F177E001283BCEFC45440
:10576C000F75F00AA4FFAEF0C006C0077F177E00CD
:10577C001283BCEF540FFDD0E02DFDD0E03400FCC3
:10578C00121CCD9001E51221FE7F187E001283BC05
:10579C00EFC4540F75F00AA4FFAEF0C006C0077F2B
:1057AC00187E001283BCEF540FFDD0E02DFDD0E02D
:1057BC003400FC121CCD9001D41221FE7F197E0006
:1057CC001283BCEFC4540F75F00AA4FFAEF0C006F0
:1057DC00C0077F197E001283BCEF540FFDD0E02D63
:1057EC00FDD0E03400FC121CCD9001E91221FE7FAB
:1057FC00207E001283BCEFC4540F75F00AA4FFAED8
:10580C00F0C006C0077F207E001283BCEF540FFD52
:10581C00D0E02DFDD0E03400FC121CCD9001D8124C
:10582C0021FE7F217E001283BCEFC4540F75F00A59
:10583C00A4FFAEF0C006C0077F217E001283BCEF30
:10584C00540FFDD0E02DFDD0E03400FC121CCD90A7
:10585C0001ED1221FE7F227E001283BCEFC4540F97
:10586C0075F00AA4FFAEF0C006C0077F227E0012BE
:10587C0083BCEF540FFDD0E02DFDD0E03400FC12C2
:10588C001CCD9001DC1221FE7F257E001283BCE42E
:10589C00FCFDFE9001A21221FE9001A2E0FCA3E00F
:1058AC00FDA3E0FEA3E0FF78081221CB9001A21229
:1058BC0021FE9001A2E0F8A3E0F9A3E0FAA3E0FB3B
:1058CC00C000C001C002C0037F247E001283BCD084
:1058DC0003D002D001D000EB4FFFEAFEE9FDE8FC5B
:1058EC009001A21221FE9001A2E0FCA3E0FDA3E036
:1058FC00FEA3E0FF78081221CB9001A21221FE90AA
:10590C0001A2E0F8A3E0F9A3E0FAA3E0FBC000C019
:10591C0001C002C0037F237E001283BCD003D002DF
:10592C00D001D000EB4FFFEAFEE9FDE8FC9001A2AC
:10593C001221FE7F137E001283BCEF60079001B131
:10594C00E04420F09001E0E06401701E9001A6E0BC
:10595C00700E7D017F10FE127F9E9001A67401F0E7
:10596C009001BCE06401703A80179001BCE06401C6
:10597C00701C7D017F10FE127F9E9001A67401F0B9
:10598C00E4FD7F14FE127F9EE49001BCF022900196
:10599C00A6E06401700CFD7F10FE127F9EE4900166
:0359AC00A6F02240
:10844500EF4488F5C5E5C520E3FBAFC6EF75F0043D
:10845500A4FFE5E85403FDEF4DFFE5F05403FE22CC
:07864300E4FE7F06028445FE
:07864A00E4FE7F07028445F6
:10392900200503023FF87BFF7A51794A9002C2E0F1
:10393900FFA3E090012BCFF0A3EFF01280ED7F0AF7
:103949007ED77D237C3C9001CFE0F8A3E0F9A3E08A
:10395900FAA3E0FB121B229001E1E0F8A3E0F9A32E
:10396900E0FAA3E0FB121A3190010C1221FE7F0A42
:103979007ED77D237C3C9001D4E0F8A3E0F9A3E055
:10398900FAA3E0FB121B229001E5E0F8A3E0F9A3FA
:10399900E0FAA3E0FB121A319001101221FE7F0A0E
:1039A9007ED77D237C3C9001D8E0F8A3E0F9A3E021
:1039B900FAA3E0FB121B229001E9E0F8A3E0F9A3C6
:1039C900E0FAA3E0FB121A319001141221FE7F0ADA
:1039D9007ED77D237C3C9001DCE0F8A3E0F9A3E0ED
:1039E900FAA3E0FB121B229001EDE0F8A3E0F9A392
:1039F900E0FAA3E0FB121A319001181221FE7F00B0
:103A09007EB07DE57C4590010CE0F8A3E0F9A3E0E8
:103A1900FAA3E0FB121B22E4FBFA797A7844121C20
:103A29002B90011C1221FE7FE17E987DD27C45906E
:103A39000110E0F8A3E0F9A3E0FAA3E0FB121B22CE
:103A4900E4FBFA797A7844121C2B90011CE0F8A364
:103A5900E0F9A3E0FAA3E0FB121A31900120122148
:103A6900FE7F487EC17D2C7C46900114E0F8A3E0DE
:103A7900F9A3E0FAA3E0FB121B22E4FBFA797A78B6
:103A890044121C2B900120E0F8A3E0F9A3E0FAA36B
:103A9900E0FB121A319001241221FE9002C2E0FECD
:103AA900A3E0FFC3EE648094804008E49001CEF067
:103AB900FC80179001CE7401F09002C2E0FEA3E0F1
:103AC900FFC3E49FFFE49EFE7C007D02121F6E90FF
:103AD9000106EEF0A3EFF0900106E0FEA3E0D39417
:103AE900F0EE94004003023C2AC3EE940050030216
:103AF9003C2A7BFF7A51795D900106A3E0FF900192
:103B09002BEEF0A3EFF01280ED7BFF7A51797590DF
:103B190001B7E0FFA3E090012BCFF0A3EFF01280F3
:103B2900ED7BFF7A51798E9001CEE0FF90012BE475
:103B3900F0A3EFF01280EDE4FFFE7DF57C419001EA
:103B49000CE0F8A3E0F9A3E0FAA3E0FB121B22C002
:103B590004C005C006C007900106E0FCA3E0FDE42F
:103B6900121CCDD003D002D001D000121B22E4FBDD
:103B7900FA797A7844121C2B9001CA1221FEE4FFCB
:103B8900FE7DF57C4190010CE0F8A3E0F9A3E0FA91
:103B9900A3E0FB121B22C004C005C006C0079001A8
:103BA90006E0FCA3E0FDE4121CCDD003D002D00155
:103BB900D000121B22121D06900108EEF0A3EFF0AF
:103BC9007FCD7ECC7D4C7C3D9001CAE0F8A3E0F925
:103BD900A3E0FAA3E0FB121A31121D069001B9EF16
:103BE900F07FCD7ECC7D4C7C3D9001CAE0F8A3E00E
:103BF900F9A3E0FAA3E0FB121A31E4FBFA79C878D9
:103C090042121B22121D069001C6EEF0A3EFF07CB2
:103C1900007D64121F199001C6ECF0A3EDF0023F7C
:103C2900AE900106E0FEA3E0FFD394F0EE940050BD
:103C390003023D75D3EF94C2EE94014003023D7532
:103C49007F2F7E5D7D007C42900110E0F8A3E0F9B2
:103C5900A3E0FAA3E0FB121B22C004C005C006C002
:103C690007900107E02410FD900106E034FFFCE411
:103C7900121CCDD003D002D001D000121B22E4FBCC
:103C8900FA797A7844121C2B90011CE0F8A3E0F928
:103C9900A3E0FAA3E0FB121A319001CA1221FE7BBC
:103CA900FF7A5179A49001B7E0FEA3E0FFC374F055
:103CB9009FFFE49EFEC390010BE09FFF90010AE085
:103CC9009E90012BF0A3EFF01280ED7BFF7A5179E2
:103CD900759001B7E0FFA3E090012BCFF0A3EFF0BF
:103CE9001280ED7BFF7A5179A490010AE0FFA3E0ED
:103CF90090012BCFF0A3EFF01280ED9001CAE0FC08
:103D0900A3E0FDA3E0FEA3E0FF121D0690012BEE48
:103D1900F0A3EFF07BFF7A5179C11280ED7BFF7A36
:103D29005179D39002C2E0FFA3E090012BCFF0A319
:103D3900EFF01280ED7FCD7ECC7D4C7C3D9001CAA9
:103D4900E0F8A3E0F9A3E0FAA3E0FB121A31121D8F
:103D5900069001B9EFF07BFF7A5179E7E0FF900116
:103D69002BE4F0A3EFF01280ED023E2C900106E067
:103D7900FEA3E0FFD394C2EE94015003023E5DD34B
:103D8900EF940CEE94034003023E5D7F197E047D9F
:103D9900067C42900114E0F8A3E0F9A3E0FAA3E05D
:103DA900FB121B22C004C005C006C007900107E032
:103DB900243EFD900106E034FEFCE4121CCDD00344
:103DC900D002D001D000121B22E4FBFA797A7844A0
:103DD900121C2B900120E0F8A3E0F9A3E0FAA3E07C
:103DE900FB121A319001CA1221FE7BFF7A5179D355
:103DF9009002C2E0FFA3E090012BCFF0A3EFF012F5
:103E090080ED7FCD7ECC7D4C7C3D9001CAE0F8A34E
:103E1900E0F9A3E0FAA3E0FB121A31121D069001A2
:103E2900B9EFF07FCD7ECC7D4C7C3D9001CAE0F8A6
:103E3900A3E0F9A3E0FAA3E0FB121A31E4FBFA7953
:103E4900C87842121B22121D069001C6EEF0A3EF9C
:103E5900F0023F83D3900107E0940C900106E094AF
:103E6900035003023FAE7F817E957D0B7C4290011A
:103E790018E0F8A3E0F9A3E0FAA3E0FB121B22C0C3
:103E890004C005C006C007900107E024F4FD9001B5
:103E990006E034FCFCE4121CCDD003D002D001D0E2
:103EA90000121B22E4FBFA797A7844121C2B900148
:103EB90024E0F8A3E0F9A3E0FAA3E0FB121A319099
:103EC90001CA1221FE7BFF7A5179D39002C2E0FF29
:103ED900A3E090012BCFF0A3EFF01280ED9001CA7F
:103EE900E0FCA3E0FDA3E0FEA3E0FF121D069001A4
:103EF9002BEEF0A3EFF07BFF7A5179C11280ED7FB1
:103F0900CD7ECC7D4C7C3D9001CAE0F8A3E0F9A3BD
:103F1900E0FAA3E0FB121A31121D069001B9EFF085
:103F29007BFF7A5179E7E0FF90012BE4F0A3EFF0F2
:103F39001280ED7FCD7ECC7D4C7C3D9001CAE0F8AE
:103F4900A3E0F9A3E0FAA3E0FB121A31E4FBFA7942
:103F5900C87842121B22121D069001C6EEF0A3EF8B
:103F6900F07BFF7A52791690012BEEF0A3EFF01255
:103F790080ED9001C6E0FEA3E0FF7C007D64121F86
:103F8900199001C6ECF0A3EDF07BFF7A5179FC9012
:103F990001B9E0FF90012BE4F0A3EFF0A3ECF0A34B
:103FA900EDF01280EDC2059001BAE01350137F8144
:103FB900125EFA7F2C12806E7D2C7FE87E03126FD1
:103FC900F67BFF7A5179E79001B9E0FF90012BE484
:103FD900F0A3EFF01280ED7BFF7A5279169001C6BB
:0F3FE900E0FFA3E090012BCFF0A3EFF01280EDEB
:013FF80022A6
:102B2A0020050302322E7BFF7A52792E9002C2E0F0
:102B3A00FFA3E090012BCFF0A3EFF01280ED7BFF13
:102B4A007A5079FF9001A2E0FCA3E0FDA3E0FEA386
:102B5A00E0FF78101221A490012BEEF0A3EFF09081
:102B6A0001A2A3A3E0FFA3E090012DCFF0A3EFF011
:102B7A001280ED7F0A7ED77D237C3C9001CFE0F85E
:102B8A00A3E0F9A3E0FAA3E0FB121B229001E1E023
:102B9A00F8A3E0F9A3E0FAA3E0FB121A3190010CC2
:102BAA001221FE7F0A7ED77D237C3C9001D4E0F877
:102BBA00A3E0F9A3E0FAA3E0FB121B229001E5E0EF
:102BCA00F8A3E0F9A3E0FAA3E0FB121A319001108E
:102BDA001221FE7F0A7ED77D237C3C9001D8E0F843
:102BEA00A3E0F9A3E0FAA3E0FB121B229001E9E0BB
:102BFA00F8A3E0F9A3E0FAA3E0FB121A319001145A
:102C0A001221FE7F0A7ED77D237C3C9001DCE0F80E
:102C1A00A3E0F9A3E0FAA3E0FB121B229001EDE086
:102C2A00F8A3E0F9A3E0FAA3E0FB121A3190011825
:102C3A001221FE7F007EB07DE57C4590010CE0F814
:102C4A00A3E0F9A3E0FAA3E0FB121B22E4FBFA7962
:102C5A007A7844121C2B90011C1221FE7FE17E9887
:102C6A007DD27C45900110E0F8A3E0F9A3E0FAA335
:102C7A00E0FB121B22E4FBFA797A7844121C2B90AF
:102C8A00011CE0F8A3E0F9A3E0FAA3E0FB121A3171
:102C9A009001201221FE7F487EC17D2C7C46900146
:102CAA0014E0F8A3E0F9A3E0FAA3E0FB121B22E484
:102CBA00FBFA797A7844121C2B900120E0F8A3E001
:102CCA00F9A3E0FAA3E0FB121A319001241221FEC3
:102CDA009002C2E0FEA3E0FFC3EE64809480400845
:102CEA00E49001CEF0FC80179001CE7401F09002BE
:102CFA00C2E0FEA3E0FFC3E49FFFE49EFE7C007DEA
:102D0A0002121F6E900106EEF0A3EFF0900106E0AA
:102D1A00FEA3E0D394F0EE94004003022E60C3EECB
:102D2A0094005003022E607BFF7A52794790010685
:102D3A00A3E0FF90012BEEF0A3EFF01280ED7BFFF2
:102D4A007A5279659001B7E0FFA3E090012BCFF0AA
:102D5A00A3EFF01280ED7BFF7A5279849001CEE0E6
:102D6A00FF90012BE4F0A3EFF01280EDE4FFFE7D6B
:102D7A00F57C4190010CE0F8A3E0F9A3E0FAA3E0A6
:102D8A00FB121B22C004C005C006C007900106E062
:102D9A00FCA3E0FDE4121CCDD003D002D001D00088
:102DAA00121B22E4FBFA797A7844121C2B9001CA8E
:102DBA001221FEE4FFFE7DF57C4190010CE0F8A3B0
:102DCA00E0F9A3E0FAA3E0FB121B22C004C005C08D
:102DDA0006C007900106E0FCA3E0FDE4121CCDD07A
:102DEA0003D002D001D000121B22121D0690010846
:102DFA00EEF0A3EFF07FCD7ECC7D4C7C3D9001CAF6
:102E0A00E0F8A3E0F9A3E0FAA3E0FB121A31121DDD
:102E1A00069001B9EFF07FCD7ECC7D4C7C3D9001D0
:102E2A00CAE0F8A3E0F9A3E0FAA3E0FB121A31E43E
:102E3A00FBFA79C87842121B22121D069001C6EECF
:102E4A00F0A3EFF07C007D64121F199001C6ECF02C
:102E5A00A3EDF00231E4900106E0FEA3E0FFD39473
:102E6A00F0EE94005003022FABD3EF94C2EE94011C
:102E7A004003022FAB7F2F7E5D7D007C42900110C4
:102E8A00E0F8A3E0F9A3E0FAA3E0FB121B22C004D6
:102E9A00C005C006C007900107E02410FD90010696
:102EAA00E034FFFCE4121CCDD003D002D001D000E4
:102EBA00121B22E4FBFA797A7844121C2B90011C2B
:102ECA00E0F8A3E0F9A3E0FAA3E0FB121A319001BB
:102EDA00CA1221FE7BFF7A5279A09001B7E0FEA3C5
:102EEA00E0FFC374F09FFFE49EFEC390010BE09FD6
:102EFA00FF90010AE09E90012BF0A3EFF01280ED03
:102F0A007BFF7A5279659001B7E0FFA3E090012B2D
:102F1A00CFF0A3EFF01280ED7BFF7A5279A09001F7
:102F2A000AE0FFA3E090012BCFF0A3EFF01280EDAF
:102F3A009001CAE0FCA3E0FDA3E0FEA3E0FF121D9E
:102F4A000690012BEEF0A3EFF07BFF7A5279C312C1
:102F5A0080ED7BFF7A5279DB9002C2E0FFA3E0901A
:102F6A00012BCFF0A3EFF01280ED7FCD7ECC7D4C0C
:102F7A007C3D9001CAE0F8A3E0F9A3E0FAA3E0FBE4
:102F8A00121A31121D069001B9EFF07BFF7A5279BD
:102F9A00F5E0FF90012BE4F0A3EFF01280ED023090
:102FAA0062900106E0FEA3E0FFD394C2EE940150C2
:102FBA0003023093D3EF940CEE9403400302309350
:102FCA007F197E047D067C42900114E0F8A3E0F9A3
:102FDA00A3E0FAA3E0FB121B22C004C005C006C08E
:102FEA0007900107E0243EFD900106E034FEFCE470
:102FFA00121CCDD003D002D001D000121B22E4FB58
:10300A00FA797A7844121C2B900120E0F8A3E0F9AF
:10301A00A3E0FAA3E0FB121A319001CA1221FE7B47
:10302A00FF7A5279DB9002C2E0FFA3E090012BCF36
:10303A00F0A3EFF01280ED7FCD7ECC7D4C7C3D90ED
:10304A0001CAE0F8A3E0F9A3E0FAA3E0FB121A31FF
:10305A00121D069001B9EFF07FCD7ECC7D4C7C3DF0
:10306A009001CAE0F8A3E0F9A3E0FAA3E0FB121A80
:10307A0031E4FBFA79C87842121B22121D0690012C
:10308A00C6EEF0A3EFF00231B9D3900107E0940C39
:10309A00900106E0940350030231E47F817E957D1E
:1030AA000B7C42900118E0F8A3E0F9A3E0FAA3E050
:1030BA00FB121B22C004C005C006C007900107E02E
:1030CA0024F4FD900106E034FCFCE4121CCDD0038C
:1030DA00D002D001D000121B22E4FBFA797A78449C
:1030EA00121C2B900124E0F8A3E0F9A3E0FAA3E074
:1030FA00FB121A319001CA1221FE7BFF7A5279DB48
:10310A009002C2E0FFA3E090012BCFF0A3EFF012F0
:10311A0080ED9001CAE0FCA3E0FDA3E0FEA3E0FF7E
:10312A00121D0690012BEEF0A3EFF07BFF7A527985
:10313A00C31280ED7FCD7ECC7D4C7C3D9001CAE0F0
:10314A00F8A3E0F9A3E0FAA3E0FB121A31121D0674
:10315A009001B9EFF07BFF7A5279F5E0FF90012BED
:10316A00E4F0A3EFF01280ED7FCD7ECC7D4C7C3D68
:10317A009001CAE0F8A3E0F9A3E0FAA3E0FB121A6F
:10318A0031E4FBFA79C87842121B22121D0690011B
:10319A00C6EEF0A3EFF07BFF7A53793090012BEE65
:1031AA00F0A3EFF01280ED9001C6E0FEA3E0FF7CF1
:1031BA00007D64121F199001C6ECF0A3EDF07BFFAD
:1031CA007A5379109001B9E0FF90012BE4F0A3EF54
:1031DA00F0A3ECF0A3EDF01280EDC2059001BAE085
:1031EA001350137F81125EFA7F2C12806E7D2C7F22
:1031FA00E87E03126FF67BFF7A5279F59001B9E007
:10320A00FF90012BE4F0A3EFF01280ED7BFF7A53DD
:10321A0079309001C6E0FFA3E090012BCFF0A3EF35
:04322A00F01280ED31
:01322E00227D
:107CD2007BFF7A53794E1280ED9001BDE064017012
:107CE20011126EF79001A21221FE7BFF7A53796383
:107CF20080067BFF7A5379711280ED128614EF6051
:107D02000512101A80F512322F127910127995127B
:107D12007DD59001BDE064017005122B2A8003120B
:097D220039299001A6E070D3227A
:107A1900127D8312833B7BFF7A53797E1280ED12AC
:107A29006DF8D2B4D2B512855E1256CC127C77901D
:107A3900021AE0FF1280AF7BFF7A53798E90021A07
:107A4900E0FF90012BE4F0A3EFF01280ED9001B17B
:107A5900E0FFC413540713500A1284C1EF70049055
:107A690001A6F09001A6E0640178117008E654F0CF
:107A79004402F6800BE6540F4420F654F04401F614
:107A8900C2009001A6E064017003127CD2126CE678
:027A990080F07B
:106CE6007BFF7A5379A01280ED7811E654F04401C7
:106CF600F69001BAE0FF1313543F135004EF54FB10
:106D0600F09001BAE054FEF07F1A12806E9001BA3C
:106D1600E054BFF07F0A12806EE49001BEF0F5B237
:106D26009002C4F09001A2E0FCA3E0FDA3E0FEA364
:106D3600E0FF12672E128614EF600512101A80F516
:106D4600127995127910127DD59001A6E064016042
:106D56005C9001BEE070297811E6FFC4540F64010F
:106D6600701E9001B0E0FFC413135403134011903A
:106D760001BE7401F07D2E7F107E27126FF680B55E
:106D86001284C1EF6401600CE5E8F4FF1313135499
:106D96001F30E00CE49001BEF07F2E12806E8095CD
:106DA6009001BEE06402708D1282DD80887D017FD5
:106DB600147E00127F9EE49002C2F0A3F09001B907
:106DC600F09001C6F0A3F09001CEF0F542F54390A5
:106DD60001B2E054FEF0A3E054E04414F07811E66A
:106DE60054F04402F67BFF7A5379BA1280ED75E7C8
:026DF600202259
:1022DC000D0A4D43555F4932435B253032785D5BC7
:1022EC0025643A25643A25643A25645D3E000D0A5E
:1022FC004D43555F4932435B253032785D5B256435
:10230C003A25643A25645D3E000D0A4D43555F49FC
:10231C0032435B253032785D5B25643A25645D3E43
:10232C00000D0A4D43555F4932435B253032785DD1
:10233C005B25645D3E0057726974652025327868B0
:10234C003A2532786820003D3D3E2052656164207C
:10235C00253278683A25327868002020202D2D3ED1
:10236C00204D697373696E6720706172616D65745D
:10237C00657220212121000D0A2020202D2D3E20C8
:10238C0057726F6E672072616E6765206F66206290
:10239C006974206F7065726174696F6E20212121E0
:1023AC00000D0A3C523E2532785B2532785D3D2586
:1023BC003278000D0A496E73756666696369656EDD
:1023CC007420706172616D65746572732E2E2E00AF
:1023DC000D0A3D3D3D3D3D3D3D3D3D3D3D3D3D3D84
:1023EC003D3D3D3D3D3D3D3D3D3D3D3D3D3D3D3D11
:1023FC003D3D3D3D3D3D3D3D3D3D3D3D3D3D3D3D01
:10240C003D3D3D3D3D3D3D3D3D000D0A3E3E3E20AA
:10241C002020202057656C636F6D6520746F2054ED
:10242C0065636877656C6C204D6F6E69746F722094
:10243C002052657620312E303020202020203C3C4C
:10244C003C000D0A202020522069692020202020E9
:10245C0020202020202020203B2052656164204138
:10246C0044353131302064617461000D0A20202024
:10247C0057206969206464202020202020202020FF
:10248C00203B20577269746520414435313130202E
:10249C0064617461000D0A20202044205B69695D31
:1024AC00205B63635D2020202020203B2044756D41
:1024BC0070000D0A20202043206161202020202064
:1024CC0020202020202020203B204368616E67655F
:1024DC00204932432061646472657373000D0A20D5
:1024EC0020204D203F202020202020202020202094
:1024FC002020203B2043757272656E7420496E70EB
:10250C007574000D0A2020204D20646420202020AA
:10251C002020202020202020203B204368616E6753
:10252C006520496E707574000D0A2020204163638C
:10253C00657373205B302C315D20202020203B20E4
:10254C0050726F6772616D2054573838787820411B
:10255C006363657373204F46462F4F4E000D0A2060
:10256C0020204175746F446574656374205B302C56
:10257C00315D203B205043204175746F6D6F646555
:10258C00204F46462F4F4E000D0A2020205043412D
:10259C0075746F0909202020203B2052554E205085
:1025AC0043204175746F2041646A757374000D0A81
:1025BC002020204465627567205B302E2E32353525
:1025CC005D2020203B204465627567696E6720643E
:1025DC006973706C6179206C6576656C000D0A20EE
:1025EC0020204563686F204F6E2F4F666620202099
:1025FC002020203B205465726D696E616C20456310
:10260C00686F696E67204F6E2F4F6666000D0A204B
:10261C00202044656C746120202020202020202064
:10262C002020203B20496E69742044656C746152F3
:10263C0047422050616E656C000D0A2020204465D5
:10264C006C7461207720696920646820646C3B207D
:10265C0053504920577269746520746F2044656C1F
:10266C0074615247422050616E656C000D0A004443
:10267C00000D0A64756D7020414435313130207382
:10268C0074617274000D0A4144353131302052446A
:10269C0041433D25303278000D0A4144353131300B
:1026AC0020454550524F4D3D25303278000D0A647F
:1026BC00756D7020454550524F4D207265672E0048
:1026CC000D0A506F776572466C61673D2530327824
:1026DC00000D0A43616D657261566F6C743D256423
:1026EC00000D0A5057525F53544152545F666C614F
:1026FC00673D25303278000D0A456E636F72646554
:10270C0072313D25303278000D0A446563696D6184
:10271C006C313D25303278000D0A456E636F726462
:10272C006572323D25303278000D0A446563696D5F
:10273C00616C323D25303278000D0A456E636F7244
:10274C00646572333D25303278000D0A4465636947
:10275C006D616C333D25303278000D0A456E636F28
:10276C0072646572343D25303278000D0A4465631D
:10277C00696D616C343D25303278000D0A47657403
:10278C00526F746174654E756D6265723D253031A2
:10279C007825303478004200505357000D0A2850E9
:1027AC006F776572466C6167203D25303278290061
:1027BC0057000D0A454550524F4D205772697465AC
:1027CC00206164642E3D2530327820206461746170
:1027DC003D25303278000D0A454550524F4D205260
:1027EC0065616420616464723D2530327820206418
:1027FC006174613D25303278005200430048004836
:10280C00454C50003F002A000D0A20202A20302081
:10281C003A2050726F6772616D2064656661756CE9
:10282C0074204C6F61646572000D0A20202A2031DF
:10283C00203A2050726F6772616D206578746572F2
:10284C006E616C204C6F61646572000D0A20202A49
:10285C002032203A2045786563757465204C6F6191
:10286C0064657200504F574552004445425547002D
:10287C000D0A4465627567204C6576656C203D20B9
:10288C00253278006563686F006F6666000D0A6517
:10289C0063686F206F6666000D0A6563686F206F52
:1028AC006E0072657365740030000D0A54575F72C8
:1028BC00657365745F70696E203D3E203000310099
:1028CC000D0A54575F72657365745F70696E203DB5
:1028DC003E2031000D0A54575F72657365745F704A
:1028EC00696E203D2025640074657374000D0A54D4
:1028FC00575F746573745F70696E203D3E203000C5
:10290C000D0A54575F746573745F70696E203D3E99
:10291C002031000D0A54575F746573745F70696ED3
:10292C00203D2025640070646E000D0A54575F50E2
:10293C006F776572446F776E5F70696E203D3E20D5
:10294C0030000D0A54575F506F776572446F776E85
:10295C005F70696E203D3E2031000D0A54575F5068
:10296C006F776572446F776E5F70696E203D2025BE
:10297C0064004F5344006C6F676F00656E64000D0C
:10298C000A496620796F752764206C696B65207421
:10299C006F20657869742C20707265737320616E7A
:1029AC0079204B65792E2E2E2E00696E7075740071
:1029BC0050574D30000D0A5345542050574D50314F
:1029CC002E340050574D31000D0A534554205057AA
:1029DC004D50312E350050574D000D0A504F454E7D
:1029EC002050574D000D0A53544F502050574D0056
:1029FC00425448000D0A284261747465727942543D
:102A0C00483D2564290042564F4C000D0A2842616E
:102A1C007474657279566F6C746167653D256429B1
:102A2C0000510050575253000D0A444331325F504D
:102A3C0057525F53544152543D4F4E000D0A44437C
:102A4C0031325F5057525F53544152543D4F4646BA
:102A5C000050434F4E002850434F4E3D25782900DF
:102A6C0050434F4E32002850434F4E323D2578296B
:102A7C0000535953524541445900574454000D0AD0
:102A8C00284254483D256429004242425654000DC8
:102A9C000A4256543D313530000D0A4256543D36EB
:102AAC003530000D0A4256543D373530000D0A4280
:102ABC0056543D383130000D0A4256543D383630AC
:102ACC00000D0A4256543D39303000534C454550A8
:102ADC0000545800464F4E540052414D00524F4D39
:102AEC00000D0A20466F6E7420524F4D2023206F2C
:102AFC007220466F6E742052414D202320666F72F7
:102B0C002074657374696E67000D0A496E76616C8A
:0E2B1C00696420636F6D6D616E642E2E2E0055
:1064B70001108A41027C00C187C10841027A40C1AC
:0D64C7008641027700410278004102790011
:107347009002BFE0FF60397BFF7A2279DC90012B46
:10735700E4F0A374A0F0A3E4F0A3EFF09002C0E080
:10736700FF90012FE4F0A3EFF09002BAE0FF900145
:1073770031E4F0A3EFF09002B2E0FF900133806EAA
:107387009002C0E0FF602C7BFF7A2279FA90012BF4
:10739700E4F0A374A0F0A3E4F0A3EFF09002BAE046
:1073A700FF90012FE4F0A3EFF09002B2E0FF90010D
:1073B70031803B9002BAE0FF7BFF601D7A2379158D
:1073C70090012BE4F0A374A0F0A3E4F0A3EFF090F6
:1073D70002B2E0FF90012F80157A23792D90012BBF
:1073E700E4F0A374A0F09002B2E0FF90012DE4F066
:0773F700A3EFF01280ED226C
:05863B00900109E0FFC1
:0386400002000332
:0B76B50090010AEBF0A3EAF0A3E9F05B
:1076C000A312220A00000000E4900111F090010AC8
:1076D000E0FBA3E0FAA3E0F9121E7D607064206075
:1076E0006CE47F0AFEFDFC90010DE0F8A3E0F9A335
:1076F000E0FAA3E0FB122052A804C005C006C007B0
:1077000090010AE0FBA3E0FAA3E0F9121E7DFFE47A
:10771000FCFDFED003D002D001EB2FFFEE3AFEEDD0
:1077200039FDEC38FCEF24D0FFEE34FFFEED34FFE2
:10773000FDEC34FFFC90010D1221FE900111E004DC
:10774000F090010BE475F001121FA4808090010DF0
:0B775000E0FCA3E0FDA3E0FEA3E0FFCF
:01775B00220B
:1081D800EFC39430400CEFD394395006C3EF94307A
:1081E800FF22EFC39461400BEFD394665005EF2450
:1081F800A9FF22EFC39441400BEFD394465005EFFB
:0782080024C9FF227F0022C0
:10802B00900106EFF09002A0E0FBA3E0FAA3E0F9C9
:10803B00E4FDFC121E7D602864206024EDC4F8541E
:10804B000FC868FDECC454F048FC121E7DFF128172
:10805B00D8EF2DFDE43CFC740129F9E43AFA80D306
:02806B00AF055F
:01806D0022F0
:10003E00E0FBA3E475F001121FBAA9F0FA121E7DBF
:01004E00FFB2
:10004F00EFC39461400BEFD3947A5005EF24E0FF98
:02005F0022225B
:107C0D0090010B74FFF0A37429F074FCA3F09002A3
:097C1D009DE0FBA3E0FAA3E0F9ED
:0B7C2600900108EBF0A3EAF0A3E9F0E6
:107C3100E490010EF0A3F0900108E0FBA3E0FAA3A9
:107C4100E0F9121E7D602B90010B12003EEFFD7CCE
:107C51000090010812003EC3EF9DFFE49CFE4F60BF
:107C6100012290010FE004F070CD90010EE004F0CC
:057C710080C5E4FEFFE8
:017C760022EB
:1073FE00EF14601324F7601714601D240B70209097
:10740E00027DE014F0801890027DE004F080109070
:10741E00027DE024F0F0800790027DE02410F0E57C
:10742E0010648A90029C7015E0FD90027DE0FB7F57
:10743E008A12839390029CE0FD7F8A8013E0FD9078
:10744E00027DE0FBAF1012839390029CE0FDAF1023
:10745E0012816690027BEFF03007467BFF7A23792C
:10746E004290029CE0FF90012BE4F0A3EFF090021B
:10747E007DE0FF90012DE4F0A3EFF01280ED7BFF95
:10748E007A23795390029CE0FF90012BE4F0A3EF56
:10749E00F090027BE0FF90012DE4F0A3EFF012805C
:0474AE00ED02734731
:106A4F0090027CE0C394057480948050097BFF7A98
:106A5F00237966026BB412803090010CEFF0900234
:106A6F00A312803390029CEFF09002A6128033EFB6
:106A7F00C4540F900109F09002A6128033EF540F07
:106A8F0090010AF09002A912803390010BEFF09061
:106A9F00010AE0FF900109E0FEC39F4013EED3947B
:106AAF0007748094805009EF940774809480400994
:106ABF007BFF7A237983026BB490010874FFF07C1B
:106ACF007F7E07900109E0FDEED39D400C900108F9
:106ADF00E05CF0EC13FC1E80EA7CFEE4FE90010A01
:106AEF00E0FFEEC39F500D900108E05CF0EC25E055
:106AFF00FC0E80E990010CE0648A703590029CE0F6
:106B0F00FD7F8A12816690027BEFF0900108E0FE14
:106B1F00F45FFF90010BE05E4F90027DF0FB90025F
:106B2F009CE0FD7F8A12839390029CE0FD7F8A8018
:106B3F003C90010CE0FF90029CE0FD1281669002F8
:106B4F007BEFF0900108E0FEF45FFF90010BE05E39
:106B5F004F90027DF0FB90010CE0FF90029CE0FD56
:106B6F0012839390010CE0FF90029CE0FD1281666E
:106B7F0090027BEFF03007307BFF7A2379AD9001E5
:106B8F000CE0FF90012BE4F0A3EFF090029CE0FFEC
:106B9F0090012DE4F0A3EFF090027BE0FF90012F26
:086BAF00E4F0A3EFF01280ED09
:016BB70022BB
:107E260090027CE0C394027480948050097BFF7AB0
:107E36002379BF0282AA9002A0E0FBA3E0FAA3E0A6
:107E4600F91276B5900108EEF0A3EFF0900108A3C1
:107E5600E0541F2420FF120003900109E024FFF0E4
:0E7E6600900108E034FFF0E07002A3E070DE4F
:017E740022EB
:10755F007BFF7A2379DC1280ED7BFF7A2479161278
:10756F0080ED7BFF7A2379DC1280ED7BFF7A247923
:10757F004E1280ED7BFF7A2479771280ED7BFF7AB4
:10758F002479A11280ED7BFF7A2479BE1280ED7BE6
:10759F00FF7A2479E91280ED7BFF7A25790F12802B
:1075AF00ED7BFF7A2579341280ED7BFF7A2579699F
:1075BF001280ED7BFF7A2579941280ED7BFF7A257F
:1075CF0079BA1280ED7BFF7A2579E91280ED7BFF86
:1075DF007A2679191280ED7BFF7A2679451280ED94
:1075EF007BFF7A2679781280ED7BFF7A2379DC1284
:0B75FF0080ED7BFF7A2679780280ED9A
:10613F00E490010AF0128614EF7002FF221284DD40
:10614F00900109EFF0D20A7D0E7F307E751270D567
:10615F00900277E0601C900109E0FF640D6005EF8D
:10616F00641B7007E4900277F0801B900109E0FF39
:10617F00800E900109E0FFB43B0C9002777401F0A0
:10618F001286407F0022900109E024F8700302621A
:10619F00F624FB603024E1700302630B24FE7003CE
:1061AF000263231470030262E624F3700302631781
:1061BF0024FE700302632F2423600302633EE490E6
:1061CF00027CF08058900278E070061273470263E9
:1061DF0059900278E0FF04F0747E2FF582E43402C8
:1061EF00F583E4F090027CF0900108F0900278E0E3
:1061FF00FF900108E0FEC39F5016747E2EF582E4D7
:10620F003402F583E0B42008900108E004F080DC4C
:10621F00747E2EF582E43402F583E0700E900278DE
:10622F00F0900277F01273477F0022900108E0246C
:10623F007EF9E43402FA90029D7401F0A3EAF0A310
:10624F00E9F0900278E0FF900108E0FEC39F5071E3
:10625F00747E2EF582E43402F583E0FF6420600340
:10626F00EF7056747E2EF582E43402F583E4F080ED
:10627F0012900108E0247EF582E43402F583E0FFFA
:10628F00B42008900108E004F080E690027CE0045E
:10629F00F0EF6025900108E0247EF9E43402FA90D3
:1062AF00027CE075F003A4249DF582E43402F583AB
:1062BF007401F0A3EAF0A3E9F0900108E004F08084
:1062CF008190010A7401F090027CE0900279F0E471
:1062DF00900278F0026359900279E090027CF0907E
:1062EF00010A7401F08063900278E0605D14F0128F
:1062FF00863B7F2012864012863B804E900278E0CC
:10630F006002802BE4FF8022900278E06002801F01
:10631F007F0A8016900278E0600280137F01800A66
:10632F00900278E0600280077F0B1273FE801B12D1
:10633F00863B900109E0FF900278E0FE04F0747E46
:10634F002EF582E43402F583EFF090010AE0FF604E
:10635F000EE4900277F090027CE0900279F02290A8
:04636F00010AE0FF40
:016373002207
:10101A0012613FEF7003021A29C20890010B74FF94
:10102A00F0A37426F0747B127C19EF4E6003021150
:10103A00C47BFF7A26797D1280ED7F057E001281BE
:10104A009F900106EFF07BFF7A267991E0FF9001ED
:10105A002BE4F0A3EFF01280ED7F067E0012819F51
:10106A00900106EFF07BFF7A2679A4E0FF90012B2E
:10107A00E4F0A3EFF01280ED7BFF7A2679B91280B3
:10108A00ED7F107E001283BC90012BE4F0A3EFF0F9
:10109A007BFF7A2679CC1280ED7F117E001283BC09
:1010AA0090012BE4F0A3EFF07BFF7A2679DD128022
:1010BA00ED7F127E001283BC90012BE4F0A3EFF0C7
:1010CA007BFF7A2679ED1280ED7F157E001283BCB4
:1010DA0090012BE4F0A3EFF07BFF7A2779031280CB
:1010EA00ED7F167E001283BC90012BE4F0A3EFF093
:1010FA007BFF7A2779141280ED7F177E001283BC5A
:10110A0090012BE4F0A3EFF07BFF7A277924128079
:10111A00ED7F187E001283BC90012BE4F0A3EFF060
:10112A007BFF7A2779351280ED7F197E001283BC06
:10113A0090012BE4F0A3EFF07BFF7A277945128028
:10114A00ED7F207E001283BC90012BE4F0A3EFF028
:10115A007BFF7A2779561280ED7F217E001283BCAD
:10116A0090012BE4F0A3EFF07BFF7A2779661280D7
:10117A00ED7F227E001283BC90012BE4F0A3EFF0F6
:10118A007BFF7A2779771280ED7BFF7A2779879020
:10119A0001A2E0FCA3E0FDA3E0FEA3E0FF781012A9
:1011AA0021A490012BEEF0A3EFF09001A2A3A3E0FB
:1011BA00FFA3E090012DCF0213B090010B74FFF052
:1011CA00A37427F0A374A2127C1AEF4E7006126A57
:1011DA004F021A2690010B74FFF0A37427F0A37430
:1011EA00A4127C1AEF4E70219001A6E06401F0FD72
:1011FA007F107E00127F9E7BFF7A2779A89001A636
:10120A00E0FF90012BE402189690010B74FFF0A303
:10121A007427F0A374BC127C1AEF4E7063128030EC
:10122A007E00C0079002A3128033AD07D007127F59
:10123A009E1280307E00C007C0069002A31280333F
:10124A0090012DEEF0A3EFF090012BD0E0F0A3D0A7
:10125A00E0F07BFF7A2779BE1280ED1280307E00A3
:10126A001283BC12802B90012BE4F0A3EFF07BFFDA
:10127A007A2779E2900106E0FF90012DE40213B08B
:10128A0090010B74FFF0A37428F0A37405127C1A62
:10129A00EF4E70251280307E001283BC12802B9094
:1012AA00012BE4F0A3EFF07BFF7A2779E2900106A5
:1012BA00E0FF90012DE40213B090010B74FFF0A33C
:1012CA007428F0A37407127C1AEF4E70081280304B
:1012DA008F10021A2690010B74FFF0A37428F0A352
:1012EA007409127C1AEF4E602890010B74FFF0A368
:1012FA007428F0A3740B127C1AEF4E601490010B41
:10130A0074FFF0A37428F0A37410127C1AEF4E70C5
:10131A000612755F021A2690010B74FFF0A3742857
:10132A00F0A37412127C1AEF4E702E90027CE064C5
:10133A0001701B7BFF7A2879141280ED7BFF7A28D3
:0E134A0079351280ED7BFF7A287957021A233D
:08135800128030900107EFF054
:10136000021A2690010B74FFF0A37428F0A3747086
:10137000127C1AEF4E7003021A2690010B74FFF0D4
:10138000A37428F0A37476127C1AEF4E7029900291
:101390007CE06402700B1280309001D3EFF0128673
:1013A0002A7BFF7A28797C9001D3E0FF90012BE41F
:1013B000F0A3EFF0021A2390010B74FFF0A374283E
:1013C000F0A37490127C1AEF4E702E90010B74FFF4
:1013D000F0A37428F0A37495F09002A0127C1EEF85
:1013E0004E700BC2077BFF7A287999021A23D20725
:1013F0007BFF7A2879A4021A2390010B74FFF0A3D3
:101400007428F0A374AE127C1AEF4E705C90010B3E
:1014100074FFF0A37428F0A374B4F09002A0127CBF
:101420001EEF4E700BC2B47BFF7A2879B6021A23E6
:1014300090010B74FFF0A37428F0A374CAF090021B
:10144000A0127C1EEF4E700BD2B47BFF7A2879CCB1
:10145000021A237BFF7A2879E0A2B4E4FF339001DB
:101460002BCFF0A3EFF0021A2390010B74FFF0A32F
:101470007428F0A374F4127C1AEF4E705690010B8E
:1014800074FFF0A37428F0A374B4F09002A0127C4F
:101490001EEF4E70097BFF7A2879F9021A2390011A
:1014A0000B74FFF0A37428F0A374CAF09002A0128A
:1014B0007C1EEF4E7BFF70077A29790C021A237A83
:1014C00029791FA287E4FF3390012BCFF0A3EFF01F
:1014D000021A2390010B74FFF0A37429F0A3743255
:1014E000127C1AEF4E705C90010B74FFF0A374280D
:1014F000F0A374B4F09002A0127C1EEF4E700BC2E9
:10150000B77BFF7A297936021A2390010B74FFF01A
:10151000A37428F0A374CAF09002A0127C1EEF4EB0
:10152000700BD2B77BFF7A29794E021A237BFF7AA0
:10153000297966A2B7E4FF3390012BCFF0A3EFF037
:10154000021A2390010B74FFF0A37429F0A3747E98
:10155000127C1AEF4E60030215DE90010B74FFF04F
:10156000A37429F0A37482F09002A0127C1EEF4EA7
:101570007003021A2690010B74FFF0A37429F0A3E4
:101580007487F09002A0127C1EEF4E701D7BFF7AD4
:1015900029798B1282AA128614EF6003021A267D23
:1015A000957F8A1281668FA080EC90010B74FFF00A
:1015B000A37429F0A374B6F09002A0127C1EEF4E23
:1015C0007003021A2690010B74FFF0A37428F0A395
:1015D0007495F09002A0127C1EEF4E021A26900124
:1015E0000B74FFF0A37429F0A374BC127C1AEF4EA5
:1015F0007012128030AD077F1412775C7BFF7A295E
:1016000079C1802490010B74FFF0A37429F0A374B6
:10161000CF127C1AEF4E7018128030AD077F151272
:10162000775C7BFF7A2979D41282AAC20A021A2631
:1016300090010B74FFF0A37429F0A374E2127C1ADA
:10164000EF4E7029128030EF600F7DFF7FFF127721
:101650005C7BFF7A2979E6800CE4FDFF12775C7BE6
:10166000FF7A2979F11282AAC20A021A26127C0D87
:10167000EF4E702F128030EF7F00FEC007C0069043
:1016800002A3128033EFFDD0E0FED0E04DFF9002C8
:101690006AEEF0A3EFF07BFF7A2A790090012BEE3F
:1016A00002189690010B74FFF0A3742AF0A3741231
:1016B000127C1AEF4E702F128030EF7F00FEC007B1
:1016C000C0069002A3128033EFFDD0E0FED0E04DC3
:1016D000FF90022AEEF0A3EFF07BFF7A2A791790B1
:1016E000012BEE02189690010B74FFF0A3742AF000
:1016F000A3742D127C1AEF4E7005C20A021A2690AE
:10170000010B74FFF0A3742AF0A3742F127C1AEF5C
:101710004E703E128030EF640170167D017F12FE24
:10172000127F9E9001E07401F07BFF7A2A79348069
:1017300018128030EF7015FD7F12FE127F9EE4902C
:1017400001E0F07BFF7A2A79481282AAC20A021AC3
:101750002690010B74FFF0A3742AF0A3745D127C31
:101760001AEF4E700F1280308F877BFF7A2A7962D2
:10177000AF87802190010B74FFF0A3742AF0A3744B
:101780006C127C1AEF4E70171280308FC77BFF7A75
:101790002A7972AFC790012BE4F0A3EF0218999059
:1017A000010B74FFF0A3742AF0A3747D127C1AEF6E
:1017B0004E7003021A2690010B74FFF0A3742AF0F6
:1017C000A37486127C1AEF4E7003021A26127C0D47
:1017D000EF4E60030218A29002A0A3E0FAA3E04A31
:1017E0007006FBFA790180067B007A00790012808E
:1017F0003BEF600C9001C8E4F0A37428F002188558
:101800009002A0A3E0FAA3E064014A7006FBFA7913
:101810000180067B007A00790012803BEF600B901C
:1018200001C8E4F0A37496F0805B9002A0A3E0FAF4
:10183000A3E064024A7006FBFA790180067B007A15
:1018400000790012803BEF600C9001C87403F0A394
:101850007452F080309002A0A3E0FAA3E064034A3F
:101860007006FBFA790180067B007A00790012800D
:101870003BEF9001C86008E4F0A3746EF08006E4CA
:10188000F0A374FAF07BFF7A2A798A9001C8E0FF0E
:10189000A3E090012BCFF0A3EFF01280EDC20A027B
:1018A0001A2690010B74FFF0A3742AF0A37495120A
:1018B0007C1AEF4E6003021993128030EF70119082
:1018C00001A7F0A37496F07BFF7A2A799B02198B0B
:1018D000128030EF640170139001A77402F0A374BA
:1018E0008AF07BFF7A2A79A502198B9002A0A3E0E7
:1018F000FAA3E064024A7006FBFA790180067B00D5
:101900007A00790012803BEF60129001A77402F018
:10191000A374EEF07BFF7A2A79AF806F9002A0A3C8
:10192000E0FAA3E064034A7006FBFA790180067BC3
:10193000007A00790012803BEF60129001A77403D7
:10194000F0A3742AF07BFF7A2A79B9803E9002A036
:10195000A3E0FAA3E064044A7006FBFA790180066A
:101960007B007A00790012803BEF9001A7600F7432
:1019700003F0A3745CF07BFF7A2A79C3800D7403B3
:10198000F0A37484F07BFF7A2A79CD1282AAC20A6E
:10199000021A2690010B74FFF0A3742AF0A374D7E7
:1019A000127C1AEF4E700E7D067FE87E03126FF6F2
:1019B000C20A021A2690010B74FFF0A3742AF0A346
:1019C00074DD127C1AEF4E7005127E26805890014D
:1019D0000B74FFF0A3742AF0A374E0127C1AEF4E8C
:1019E000703B90010B74FFF0A3742AF0A374E5F030
:1019F0009002A0127C1EEF4E602C90010B74FFF041
:101A0000A3742AF0A374E9F09002A0127C1EEF4E9A
:101A100060147BFF7A2A79ED1282AA80097BFF7A13
:091A20002B79151280ED127347B9
:011A2900229A
:107E75001B5B306D001B5B303B33316D001B5B3092
:107E85003B33326D001B5B303B33336D001B5B3086
:107E95003B33346D001B5B303B33356D001B5B3072
:107EA5003B33366D001B5B303B33376D0030313271
:0E7EB5003334353637383941424344454600B0
:1064D4005802CDFF7E75FF7E7AFF7E82FF7E8AFFA3
:0B64E4007E92FF7E9AFF7EA2FF7EAA40
:083FF900E0FBA3E0FAA3E0F9EC
:0B40010090018DEBF0A3EAF0A3E9F0C2
:10400C0090019B12220A0000000190018DE0FBA39D
:10401C00E475F001121FBAA9F0FA121E7D900193FB
:10402C00F0700302454E24DB701B90018DE0FBA366
:10403C00E0FAA3E0F9121E7DB4251390018EE4750D
:10404C00F001121FA42002FD900193024524C20B23
:10405C00C20CE490019AF090018DE0FBA3E475F0A2
:10406C0001121FBAA9F0FA121E7D900193F0E0FD27
:10407C00B4301BD20B90018DE0FBA3E475F0011260
:10408C001FBAA9F0FA121E7D900193F0801FEDFF6C
:10409C003395E0FEC3EF9430EE64809480402CD3D3
:1040AC00EF9439EE648094805021900193E024D0F9
:1040BC0090019AF090018DE0FBA3E475F001121FC2
:1040CC00BAA9F0FA121E7D900193F0900199740236
:1040DC00F0900193E024BE602B24E0602724F6606E
:1040EC00042420703C90018DE0FBA3E475F00112D8
:1040FC001FBAA9F0FA121E7D900193F090019974E9
:10410C0004F0801D90018DE0FBA3E475F001121FFB
:10411C00BAA9F0FA121E7D900193F09001997401E6
:10412C00F0900193E0FF24A870030243DD24F570A6
:10413C00030244F924F070030244AC24FE600E2404
:10414C00FD70030243DD2414600302452C90019999
:10415C00E024FE604224FE607B240360030241FDE8
