:0300000002442394
:0C442300787FE4F6D8FD75817902446AC8
:102187000D0A507265762E46573A2530327825303B
:10219700327825303278000D0A437572722E465711
:1021A7003A253032782530327825303278000D0ADA
:1021B70043616E6E6F742061636365737320454579
:1021C70050524F4D21212121000D0A4E6F20696E7B
:1021D700697469616C697A6500285345545F4D439A
:1021E700555F504F5745525F444F574E5F4D4F44D1
:1021F700452920000D0A285345545F50574D3D256A
:102207003032782076616C3D253032782900282AD3
:102217004456524368616E676543757272656E74A2
:102227003D3330306D412900282A445652436861B6
:102237006E676543757272656E743D313030306D0F
:102247004129000D0A3D3D3D3D3D3D3D3D3D3D3D67
:102257003D3D3D3D3D3D3D3D3D3D3D3D3D3D3D3DA7
:102267003D3D3D3D3D3D3D000D0A53797374656D20
:1022770020686173206265656E20776F726B696E87
:102287006720666F7220256420646179732C20258E
:102297006420686F7572732C202564206D696E75D4
:1022A70074657320616E64202564207365636F6EA7
:1022B7006473000D0A53797374656D206861732028
:1022C7006265656E20776F726B696E6720666F72E5
:1022D70020256420686F7572732C202564206D6932
:1022E7006E7574657320616E642025642073656361
:1022F7006F6E6473000D0A53797374656D2068619E
:1023070073206265656E20776F726B696E672066F2
:102317006F72202564206D696E7574657320616E18
:1023270064202564207365636F6E6473000D0A5320
:10233700797374656D20686173206265656E2077B7
:102347006F726B696E6720666F72202564207365F4
:10235700636F6E6473000D0A284261747465727945
:102367004254483D25642825642E256456292900B2
:102377002854454D505F4849474829002848494750
:10238700485F544D45505F5741524E2900285445E8
:102397004D505F4C4F572900284C4F575F544D45C0
:1023A700505F5741524E29002854454D505F4E4FBC
:1023B700524D414C29000D0A2842617474657279A7
:1023C7004341503D25642825642E25303464562921
:1023D7002928256456290028484947485F4348412A
:1023E7005247452900284C4F575F434841524745BC
:1023F7002900284E4F524D414C5F434841524745B3
:1024070029002853544F505F4348415247452900FC
:10241700284348415247455F4E4F5F424154542934
:1024270000285F424154545F5354415455535F430E
:10243700415041434954595F4C4556454C3029005A
:10244700285F424154545F5354415455535F4341AD
:102457005041434954595F4C4556454C3129002852
:102467005F424154545F5354415455535F43415065
:1024770041434954595F4C4556454C322900285F22
:10248700424154545F5354415455535F4341504163
:10249700434954595F4C4556454C332900285F4200
:1024A7004154545F5354415455535F434150414342
:1024B7004954595F4C4556454C342900285F4241E1
:1024C70054545F5354415455535F4341504143491A
:1024D70054595F4D494E2900285F424154545F5378
:1024E70054415455535F43415041434954595F4DFB
:1024F70041582900285F424154545F535441545571
:10250700535F43415041434954595F4D41585F53CD
:10251700544F50290028424154544552595F434172
:102527005041434954595F4E4F5F5354415254559C
:10253700502900285F424154545F53544154555326
:102547005F4E4F5F42415454290028434841524748
:10255700455F544D45505F41424E4F524D414C29C6
:10256700000D0A285F504F5745525F535441545549
:10257700535F534156494E4729000D0A285F504F74
:102587005745525F5354415455535F4F46462900B0
:102597000D0A285F504F5745525F535441545553C6
:1025A7005F4E4F524D414C29000D0A28504F574559
:0D25B700525F5354415455533D2564290093
:1037CB004102690041026A0041025E004102600051
:1037DB004102610041025C004102540041026B0056
:1037EB004102590002400000014600C101C18002A4
:1037FB004700000144000145000274000004690009
:10380B00000000046D00000000C1044102550101DD
:10381B007200014200014300C102C10341025F007B
:10382B004102560041026200440265000000004262
:04383B000263000024
:103C3B001249139001D212165D7F047E00124D6162
:103C4B007E00C007C0067F05124D617E00C007C015
:103C5B00067F06124D619001E0E4F0A3EFF09001B6
:103C6B00DED0E0F0A3D0E0F09001DCD0E0F0A3D008
:103C7B00E0F07BFF7A217987124AFA124913E47B31
:103C8B0035FAF9F8C3121618605F7BFF7A21799E1B
:103C9B00E49001DCF0A3F0A3F0A3F0A3F0A3743540
:103CAB00F0124AFA124E9A7F047E00124D617E008A
:103CBB00C007C0067F05124D617E00C007C0067F9E
:103CCB0006124D619001E0E4F0A3EFF09001DED01D
:103CDB00E0F0A3D0E0F09001DCD0E0F0A3D0E0F076
:103CEB007BFF7A21799E124AFA124913E47B35FA4B
:103CFB00F9F8C3121618700B1249A7EF701E124277
:103D0B005880197BFF7A2179B5124AFA7BFF7A2109
:103D1B0079D0124AFA90012E74FFF0227F64124E72
:0E3D2B00CC7811E6540F4410F654F04402F622
:013D39002267
:10487600758DF4759850758922758855758A4075B9
:104886008C4075878075B80275A892D299D2ACE42F
:10489600F5C8C2CAD2AD75AA5075BAF443A6184374
:1048A600AD10C203F5E9F5F975D90443D840439331
:0F48B600A04391C475B10CF5B275B30CF5B422E3
:104C50007BFF7A2179E0124AFAD2C2C2C1D2C0D215
:104C6000C6C2C5D2C4900259E5A8F075A8809001CB
:0F4C70001B7401F0D2E8D2E975878200000022A0
:104E630020850320EA137F327E00124EB72085038C
:0C4E730020EA037F01227F00227F002242
:1042FB009001D7EFF0A3EDF07BFF7A2179FB9001D2
:10430B00DCE4F0A3EFF0EDFFA3E4F0A3EFF0124A2F
:10431B00FA9001D7E0606D24EB60532416606124A2
:10432B00EB706475EC809001D8E0FFC374FF9FF5D0
:10433B00FC75DC42EF7004F5DCC294900114E06470
:10434B0010701175EC8075FC6675DC427BFF7A2270
:10435B0079158017900114E06411702B75EC807542
:10436B00FCFF75DC427BFF7A22792F024AFA75ED4E
:10437B00809001D8E0FFC374FF9FF5FD75DD4222ED
:08438B0043D8402253D8402220
:03000B00022E06BC
:0B2E0600C0E0C083C082C0D075D008BF
:102E110005730545C3E545940A7480948040139079
:102E21000182E004F07006900181E004F075450034
:102E3100D20C90025DE0600214F090025DE060034C
:102E4100022FB3E5B0540C13135403FF900268E052
:102E51006F7003022FB3900266E0900265F090025A
:102E610067E0900266F0900268E0900267F0A3EFDD
:102E7100F0D20590025D7430F0900265E0FF7E00B3
:102E81007020A3E06401701AA3E064037014A3E04E
:102E91006402700E900264E004F07006900263E038
:102EA10004F0EF64014E7020900266E06403701834
:102EB100A3E064027012A3E0700E900264E004F0DB
:102EC1007006900263E004F0900265E06403701EF6
:102ED100A3E064027018A3E07014A3E06401700E13
:102EE100900264E004F07006900263E004F0900246
:102EF10065E0FF7E006402701EA3E0701AA3E06427
:102F0100017014A3E06403700E900264E004F07099
:102F110006900263E004F0EF4E7022900266E064D6
:102F210002701AA3E064037014A3E06401700E90B0
:102F31000264E024FFF0900263E034FFF090026548
:102F4100E06402701EA3E064037018A3E0640170E2
:102F510012A3E0700E900264E024FFF0900263E09F
:102F610034FFF0900265E0FF7E006403701EA3E071
:102F710064017018A3E07014A3E06402700E900263
:102F810064E024FFF0900263E034FFF0EF64014E4F
:102F91007020900266E0701AA3E064027014A3E04E
:102FA1006403700E900264E024FFF0900263E03449
:102FB100FFF0D3E57394607480948050030230B2C3
:102FC100054AE54A700205497573000544E5446404
:102FD100647010F544E54690025F6005E004F080FE
:102FE10002E4F0E575F47003E574F460080575E535
:102FF1007570020574AF70AE6FAD6EAC6DEC4D4E79
:103001004F6014EF24FFF570EE34FFF56FED34FFE0
:10301100F56EEC34FFF56D900257E07002A3E060AD
:103021000E900258E024FFF0900257E034FFF0E5E3
:10303100E8F4FF131313541F30E04CE541643245AB
:1030410040701A900106E0600B7811E6FFC4540F3E
:1030510064077029754601C200D2018020E541B4A0
:10306100201BE540B4031630000D754601D20190D6
:10307100026B7401F0C2007540007541330541E5F2
:1030810041702E0540802AC3E5419432E540940009
:103091004012900106E06401700A30000775460194
:1030A100D2018005754600C201D20075400075410C
:0130B100001E
:0930B200D0D0D082D083D0E032EE
:1029EB007BFF7A22794A7F01124A35900260E0FF21
:1029FB0060327BFF7A22796F9001DCE4F0A3EFF079
:102A0B00900261E0FF9001DEE4F0A3EFF090025C36
:102A1B00E0FF9001E0E4F0A3EFF0900254E0FF90B0
:102A2B0001E28057900261E0FF60257BFF7A2279FB
:102A3B00BA9001DCE4F0A3EFF090025CE0FF9001B0
:102A4B00DEE4F0A3EFF0900254E0FF9001E0802B66
:102A5B0090025CE0FF7BFF60167A2279FC9001DC30
:102A6B00E4F0A3EFF0900254E0FF9001DE800C7ACB
:102A7B00237934900254E0FF9001DCE4F0A3EFF0F3
:102A8B007F03124A359001C5E0FEA3E0FF9001DC05
:102A9B00EEF0A3EFF07805C333CE33CED8F9FBAA13
:102AAB00067C277D10FF12139E9001DEEEF0A3EF44
:102ABB00F07C277D10AF03AE0212139EA3ECF0A3A4
:102ACB00EDF07BFF7A23795D7F02124A3590010F7F
:102ADB00E0541F6406700A7BFF7A2379777F0180AD
:102AEB0042900110E0C31313500A7BFF7A237983C2
:102AFB007F03802F90010FE0541F6408700A7BFF47
:102B0B007A2379947F04801B900110E01313543FB8
:102B1B00137BFF50087A23799F7F0380067A2379F2
:102B2B00AF7F02124A35900111E0541F6409706F98
:102B3B00A3E0FEA3E07805C333CE33CED8F9246AE5
:102B4B00FFEE34FFFE7C277D1012139E7E007F6408
:102B5B00CFCDCFCECCCE12139EAA06AB07900112CF
:102B6B00E0FEA3E07805C333CE33CED8F9246AFF59
:102B7B00EE34FFFE7C277D1012139E7C007D6412C9
:102B8B00138CEF2BFFEE3AFE9001D6F0A3EFF07D06
:102B9B003712138C7D6412139E9001D6EE807190C8
:102BAB000112E0FEA3E0FF7C007D3B12138C7D64E1
:102BBB0012139EEF25E0FBEE33FA900112E0FEA319
:102BCB00E0FF7C007D3B12138C7D6412139EEF2B78
:102BDB00FFEE3AFE9001D6F0A3EFF07C037DE812F6
:102BEB00139EEF4E9001D66017E0FEA3E0FF7C0032
:102BFB007D0A12139EEF2401FFE43E9001D6801054
:102C0B00E0FEA3E0FF7C007D0A12139E9001D6EE3E
:102C1B00F0A3EFF0900112E0FEA3E0FF9001DCEED9
:102C2B00F0A3EFF07C007D2112138CAA06AB077C7E
:102C3B00277D1012139EA3EEF0A3EFF07C277D10DF
:102C4B00AF03AE0212139EA3ECF0A3EDF09001D6EE
:102C5B00E0FFA3E09001E2CFF0A3EFF07BFF7A233C
:102C6B0079BD7F05124A35900111E0541F640D7038
:102C7B000A7BFF7A2379DE7F02804E900111E054AC
:102C8B001F640E700A7BFF7A2379EC7F03803A90E6
:102C9B000111E0541F640F700A7BFF7A2379F97FCF
:102CAB00058026900111E0541F6410700A7BFF7A97
:102CBB002479097F018012900111E0541F6409707F
:102CCB000B7BFF7A2479177F01124A3590010EE0B6
:102CDB00541F640470087BFF7A2479288044900188
:102CEB000EE0541F640370087BFF7A24794780320F
:102CFB0090010EE0541F640270087BFF7A24796602
:102D0B00802090010EE0541F640170087BFF7A2431
:102D1B007985800E90010EE0541F700A7BFF7A2498
:102D2B0079A47F02806290010EE0541F6415700A33
:102D3B007BFF7A2479C37F04804E90010EE0541FF1
:102D4B006416700A7BFF7A2479DF7F06803A900144
:102D5B000EE0541F6417700A7BFF7A2479FB7F0502
:102D6B00802690010EE0541F6418700A7BFF7A25B1
:102D7B00791C7F05801290010EE0541F6409700BC3
:102D8B007BFF7A25793A7F01124A35900110E013C7
:102D9B001313541F13500B7BFF7A2579517F0112AC
:102DAB004A357811E6C4540F640770087BFF7A2507
:102DBB00796880377811E6C4540F640170087BFF83
:102DCB007A25798180257811E6C4540F64027BFF44
:102DDB0070067A25799780137A2579B07811E6C435
:102DEB00540FFF9001DCE4F0A3EFF07F06124A359D
:0B2DFB007BFF7A22794A7F01024A35F3
:104EE400E4FFEFC3941D74809480500974222FF85A
:054EF400E4F60F80ED63
:014EF9002296
:10473300EF24E5B40A00507090474975F003A4C50F
:104743008325F0C5837302477302476702477102EB
:10475300476C0247750247AB02477D024787024712
:10476300940247A0D2E9D2E822D2E8C2E922800526
:10477300801530E817C2E8D2E92230E905C2E9D250
:10478300E822800830E805C2E8C2E922D2E8D2E98B
:104793002230E904C2E98002D2E9C2E82230E80407
:0947A300C2E88002D2E8C2E9225A
:03001300020026C2
:03002600C2AA3239
:03002300024C7F0D
:104C7F00C0E0C0D075D008309819744B2571F8A6D4
:104C8F00990571C3E571941E74809480400375710A
:0F4C9F0000C298309904C299C202D0D0D0E0323E
:03006300024B76D7
:104B7600C0E0C0D075D008E5AA54016401701A538C
:104B8600AAFE74222542F8A69A0542C3E542941E5F
:104B9600748094804003754200E5AA540264027052
:0B4BA6000553AAFDC203D0D0D0E032BE
:0B4F9A00E542B543037F00227F0122A7
:104E450053ADEF74222543F8E6FF0543E543C394CC
:0D4E55001E748094804003E4F54343AD10CB
:014E6200222D
:080003002003FD8F9AD20322B5
:03002B00024F7F02
:0F4F7F00C0E0C2CF0548E54870020547D0E032D8
:104ECC00E5442FFFE433FE7C007D6412139EE54421
:074EDC00B505FBE4B504F786
:014EE30022AC
:03003300024DE893
:104DE800C0E0C083C082C2C2C2C175878090025928
:0F4DF800E0F5A890011BE4F0D082D083D0E03228
:03003B00024E076B
:104E0700C0E0C083C082C2C6C2C575878090025900
:0F4E1700E0F5A890011BE4F0D082D083D0E03208
:104F4A000D0A436C656172426173696345452E2E91
:024F5A002E0027
:104913007E007D007C007F05124D61EF7F00FEC0AD
:1049230007C0067F047E00124D617E00EF7810C33E
:1049330033CE33CED8F9FDD0E04EFED0E04DFFC0EC
:1049430007C0067F067E00124D61EFFDD0E0FED06A
:09495300E04DFFEE3395E0FDFCA0
:01495C002238
:1049A7009001D67401F0E4FFFE124D61EF643060B0
:1049B700037F00227F017E00124D61EF64376003A1
:1049C7007F00227F027E00124D61EF643060037F1B
:1049D70000227F037E00124D61EF644960037F0070
:0649E700229001D6E0FF62
:0149ED0022A7
:104E9A00E4FD7F04FE1249EEE4FD7F05FE1249EEB1
:094EAA007D357F067E000249EE11
:104258007BFF7A4F794A124AFA7D30E4FFFE124911
:10426800EE7D377F017E001249EE7D307F027E00B1
:104278001249EE7D497F037E001249EE7D017F10D1
:104288007E001249EE7D277F117E001249EEE4FD83
:104298007F07FE1249EEE4FD7F12FE1249EEE4FDAF
:1042A8007F13FE1249EE7D017F147E001249EE7DD8
:1042B800017F157E001249EEE4FD7F16FE1249EEDD
:1042C8007D017F177E001249EEE4FD7F18FE12493A
:1042D800EE7D017F197E001249EEE4FD7F20FE127B
:1042E80049EE7D017F217E001249EEE4FD7F22FE2A
:0342F8000249EE8A
:04383F00410105003E
:091C9100124F9AEF700302218644
:101C9A00124E459001D2EFF07E00647E700DC20BA9
:101CAA0090010504F0E4900003F022EF647D4E7089
:101CBA0003D20B22300B09C20B9001D2E04470F020
:101CCA00900105E0FB64046010900003E0FE9001BF
:101CDA00D2E0FDEE6D900003F0EB24FE603214605A
:101CEA0063147003021D9624036003022186900187
:101CFA00D2E0900002F01424F8500E24F924FD508A
:101D0A0008248E6004245570389001057402F0226C
:101D1A009001D2E0900001F0A3E01424F8500E24C0
:101D2A00F924FD5008248E60042455701490000193
:101D3A00E07002804DE4900000F09001057403F019
:101D4A0022022181900002E01424F8500E24F92482
:101D5A00FD5008248E60042455702E9001D2E0FFB5
:101D6A00900000E02405F582E43400F583EFF0905A
:101D7A000000E004F0A3E0FF900000E06F600302BF
:101D8A0021869001057404F0220221819001D2E09B
:101D9A00FF900003E06F6003022181900002E012CD
:101DAA0016BA1DD7011E1A021E34031E3D041E4612
:101DBA00051FB7061FFD07213E08202810203111F4
:101DCA00209D122133302165850000218190011860
:101DDA00E04401F0900111E054E04414F09001183D
:101DEA00E0FF131313541F13500EEF54F7F07F1331
:101DFA001230BB7F08124A7B900118E0C3131340CC
:101E0A00097D1A7F107E27123F1975B2300221818F
:101E1A007F1A124A7B900118E0C313135003022160
:101E2A00817D1A7F107E270221397D067FE87E0395
:101E3A000221397D077F647E00022139900005E086
:101E4A00FDC4540F75F00AA4FFED540F7C002FFD5A
:101E5A00EC35F0FC12115290013C12165D9000060E
:101E6A00E0FDC4540F75F00AA4FFED540F7C002F57
:101E7A00FDEC35F0FC12115290012A12165D900009
:101E8A0007E0FDC4540F75F00AA4FFED540F7C005F
:101E9A002FFDEC35F0FC12115290014012165D90A4
:101EAA000008E0FDC4540F75F00AA4FFED540F7C3E
:101EBA00002FFDEC35F0FC12115290012F12165D25
:101ECA00900009E0FDC4540F75F00AA4FFED540F09
:101EDA007C002FFDEC35F0FC1211529001441216D1
:101EEA005D90000AE0FDC4540F75F00AA4FFED549A
:101EFA000F7C002FFDEC35F0FC12115290013312C9
:101F0A00165D90000BE0FDC4540F75F00AA4FFEDB6
:101F1A00540F7C002FFDEC35F0FC12115290014851
:101F2A0012165D90000CE0FDC4540F75F00AA4FF70
:101F3A00ED540F7C002FFDEC35F0FC12115290018C
:101F4A003712165D900005E0FD7F157E001249EEFE
:101F5A00900006E0FD7F167E001249EE900007E031
:101F6A00FD7F177E001249EE900008E0FD7F187E83
:101F7A00001249EE900009E0FD7F197E001249EE39
:101F8A0090000AE0FD7F207E001249EE90000BE0EF
:101F9A00FD7F217E001249EE90000CE0FD7F227E3B
:101FAA00001249EE7D0C7FE87E030221399000057C
:101FBA00E0C394057480948050037405F090000582
:101FCA00E024FB75F00AA4FFA3E02F900175F0D37B
:101FDA0094287480948040057428F0800A900175D2
:101FEA00E0FFC374289FF07D037FF47E01123FF85F
:101FFA00022181900005E0FD7C00700A900118E042
:10200A0054FDF0022181ED64014C60030221817FBD
:10201A001A124A7B900118E04402F00221817D04E1
:10202A007FE87E03022139900005E07033900118A1
:10203A00E054FEF07F1A124A7B7F1F124A7B7F20F0
:10204A00124A7B7F21124A7B7F22124A7B7F23120C
:10205A004A7B7F24124A7B7D227F647E00022139DB
:10206A00900005E064017008900118E044088014AB
:10207A00900005E064026003022181900118E044A7
:10208A0008F04410F07D087FE87E03123F197F1A9A
:10209A0002212E900005E0FD7C0064017009900188
:1020AA0018E054BFF0802F900106E064017027ED1C
:1020BA004C7023900118E054BFF0E4900106F0FD43
:1020CA007F10FE1249EE900118E0FF1313543F13DC
:1020DA005004EF54FBF0900106E064017044900054
:1020EA0005E06402703C90010FE04420F090011872
:1020FA00E054BFF0E4900106F0FD7F10FE1249EEB5
:10210A007F137E00124D61EF70087D017F13FE126E
:10211A0049EE900118E0FF1313543F135004EF5493
:10212A00FBF07F0A124A7B804E7D0B7FE87E03120A
:10213A003F198043900005E0640170107D017F1211
:10214A00FE1249EE90013B7401F0802BE4FD7F12F0
:10215A00FE1249EEE490013BF0801C900005E06419
:10216A000190011470057411F080037410F090014D
:0C217A0011E054E04414F0E4900105F082
:012186002236
:044F0F009291D29019
:0F4F1300E4FFEFC394017480948050030F80F388
:014F2200226C
:0B49EE009001D6EEF0A3EFF0A3EDF077
:1049F9009001D6E0FEA3E07807CEC313CE13D8F911
:104A090044A054FE9001D9F0124F5C9001D9E0FF07
:104A19001246B89001D6A3E0FF1246B89001D8E03B
:0C4A2900FF1246B81200167F02024ECCAD
:044D6100AD07AC06E8
:104D6500ED7807CEC313CE13D8F944A054FEFF1235
:104D75004BB19001FAEFF07F02124ECC9001FAE0B0
:014D8500FF2E
:014D8600220A
:084BB1009001FBEFF0A3EDF011
:104BB900124F5C9001FBE0FF1246B89001FCE0FF48
:104BC9001246B8124F5C9001FBE04401FF1246B84F
:104BD900124BEA9001FDEFF01200169001FDE0FF83
:014BE90022A9
:104F5C00D291124F13D290124F13C291124F13C20F
:024F6C00902291
:0D001600C291124F13D290124F13D29122BB
:1046B800AE07C290EE30E703D38001C3124F0FC29A
:1046C80090EE30E603D38001C3124F0FC290EE3054
:1046D800E503D38001C3124F0FC290EE30E403D339
:1046E8008001C3124F0FC290EE30E303D38001C3A1
:1046F800124F0FC290EE30E203D38001C3124F0F66
:10470800C290EE30E103D38001C3124F0FC290EE86
:1047180030E003D38001C3124F0FC290C290C29001
:0B472800D291D290D290D290C2902289
:104BEA00E4FED291124F13C290E4FDFCD290EE255E
:104BFA00E0FE3091034401FEC2900DBD00010CEDB0
:104C0A0064084C70E7124F13D290D290D290C2909F
:024C1A00AF06E3
:014C1C002275
:10463A00AE07C290EE30E703D38001C3124F0FC218
:10464A0090EE30E603D38001C3124F0FC290EE30D2
:10465A00E503D38001C3124F0FC290EE30E403D3B7
:10466A008001C3124F0FC290EE30E303D38001C31F
:10467A00124F0FC290EE30E203D38001C3124F0FE4
:10468A00C290EE30E103D38001C3124F0FC290EE05
:10469A0030E003D38001C3124F0FC290C290C29080
:0E46AA00D291124F13D290D290D290C2902291
:044DA800AB07AA06A5
:104DAC007E5E124F5C7F5E12463AAF0312463AAFFC
:0C4DBC000512463A1200167F02024ECC8F
:104CAE007F01124E7FEF602590026BE0640170145D
:104CBE00900106E06401700C90026BF07D057FF4AC
:0E4CCE007E0180067D147F647E00123F192255
:104E7F00A2019209C2012009037F0022EF6003AF54
:0A4E8F004622200003AF46227F00F8
:014E990022F6
:1047AC000D0A5374617274204D61696E204C6F6FE9
:1047BC00702E2E2E000D0A537461727420426F6F8E
:1047CC00742E2E2E000D0A2843616D657261566F92
:1047DC006C743D256429000D0A28476F696E6720AB
:1047EC00746F20706F776572206F66662E2E2E297F
:1047FC00000D0A2853746172742075702020506F5C
:10480C00776572204F6E204D6F64652E2E2E290019
:07481C000000000000000095
:1038430046010E0000000000004201180000410183
:10385300140041011B004401250000000042011532
:1038630000004101170041012900410122004201EA
:1038730023000044013C3F8000004401403F80009E
:10388300004401443F8000004401483F800000445D
:10389300012A0000000044012F000000004401330E
:1038A300000000004401370000000046010800004A
:1038B3000028001546011C0000002800156029019E
:1038C3004C0506080A0B0D0F10121416181A1C1EAD
:1038D300202225272A2C2F3235383B3E4245484BA0
:0A38E3005055585D61666B70757AF0
:104C1D0075E5028DE39001DBE0F5E4121302F5E298
:104C2D0075E64675E6B9740129F9E43AFA9001DBA7
:104C3D00E004F0E070030D8DE39001DCE014F0E092
:034C4D0070D322FF
:04000E0075E78122EF
:104D8700E49001D6F012000E7B017A0179D69001EA
:104D9700DB74FFF0A37401F07DEF124C1D75E76023
:014DA70022E9
:1041AB00FF6DFD9002147401F0A37402F0A3740F61
:0A41BB00F0EFA3F07B017A0179FF19
:1041C500900211EBF0A3EAF0A3E9F0900217E0FFEB
:1041D500647E6005EF647D703F900214E0FBA3E010
:1041E500FAA3E0F9121302FF900211E0FBA3E0FA33
:1041F500A3E0F98F82758300747D12136A9002140F
:10420500E0FBA3E0FAA3E0F974011213489002174A
:10421500E0540F4450FF8010900217E0FF90021405
:10422500E0FBA3E0FAA3E0F9121302FE900211E00D
:10423500FBA3E0FAA3E0F98E82758300EF12136AFF
:10424500900214E0FBA3E0FAA3E0F974011213480D
:034255007F0022C5
:0B4393009001FBEBF0A3EAF0A3E9F0BF
:10439E009001FF747EF090020F7401F0EF1241ADA8
:1043AE009001FEE01241ABE4900210F09001FEE0AD
:1043BE00FF900210E0FEC39F501E9001FBE0FBA396
:1043CE00E0FAA3E0F98E8275830012131B1241AB43
:1043DE00900210E004F080D49002147401F0A374E3
:1043EE0002F0A3740FF0ED1241BDE4900210F090B4
:1043FE00020FE0FFA3E0FEC39F501774FF2EF5825D
:10440E00E43401F583E0FF120003900210E004F0A3
:04441E0080DD7F00BE
:014422002277
:053359009001F2EFF00D
:10335E0078F37C017D017BFF7A48791C7E007F0724
:10336E001212DC9001F2E0247F604E1470030235DD
:10337E004614700302357114700302358124046003
:10338E00030235927F047E00124D619001F3EFF03F
:10339E007F057E00124D619001F4EFF07F067E00F6
:1033AE00124D619001F5EFF07B017A0179F39001F6
:1033BE00FE7403F07F8002358F900112E0FEA3E0D1
:1033CE00FF7C007D3B12138C7D6412139EEF25E073
:1033DE00FBEE33FA900112E0FEA3E0FF7C007D3B92
:1033EE0012138C7D6412139EEF2BFFEE3AAB07FA8D
:1033FE007C037DE8FE12139EEF4E7C007D0AAF0328
:10340E00AE02600912139EEF2401FB800512139E7B
:10341E00AB079001F3EBF09001C5E0FCA3E0FDECEF
:10342E009001F5F0EDA3F0900117E0FF75F00A841E
:10343E00C454F0FEEF75F00A84E5F04E9001F7F0FB
:10344E00900123E0FEA3E0FF7C007D0A12139EEFA5
:10345E00C454F0FB900123E0FEA3E0FF7C007D0A44
:10346E0012139EEB4D9001F8F0900129E09001F9B6
:10347E00F090010EE0F9C41313540313500790019A
:10348E00F4E04401F090010FE0541FFD7C0064064F
:10349E0070079001F4E04402F0ED64084C70079060
:1034AE0001F4E04404F0E9C41354071350079001EB
:1034BE00F4E04408F0900110E0FD1350079001F481
:1034CE00E04410F0EDC3131350079001F4E04420D4
:1034DE00F0900110E01313543F1350079001F4E0E5
:1034EE004440F020804230813FD39001C6E0945A90
:1034FE009001C5E09400403090010FE0FFC413131B
:10350E005403134023EF541F6407701CA3E01313DE
:10351E0013541F13401290010EE0C41354071340AE
:10352E00079001F4E04480F07B017A0179F3900179
:10353E00FE7407F07F81804990010EE0FFC41313E3
:10354E0013540113500D9001F37401F0EF547F905A
:10355E00010EF07B017A0179F39001FE7401F07F88
:10356E0082801E7B017A0179F39001FE7401F07F57
:10357E0083800E7B017A0179F39001FE7401F07F56
:04358E0084124393CD
:013592002216
:1048230012003E7D157F017E00123F197D117F012D
:104833007E00123F197D167FE87E03123F197D1318
:104843007F017E00123F197D1F7F017E00123F19F9
:104853007D107F017E00123F197D2C7F107E271271
:104863003F197D187F107E27123F1990010EE044F7
:0348730040F022F0
:103997009001D8EEF0A3EFF0A3EBF0A3EAF0A3E9D0
:0139A700F02F
:1039A800900004121480FDD3EF9DE5F06480F8EEDA
:1039B8006480984003023A4B9001E0E0FBA3E0FAF0
:1039C800A3E0F9900004121480FFAEF0121455FD24
:1039D800C3EF9DFFEE95F09001E3F0A3EFF09001A7
:1039E800DAE0FBA3E0FAA3E0F9900004121480FDEA
:1039F800ACF0121455FBAAF0C3ED9BFFEC9AFE90B5
:103A080001E5F0A3EFF04E7002FF229001D8E0FE2E
:103A1800A3E0FFC3EF9BFFEE9AFE9001E3E0FCA357
:103A2800E0FD12138CA3E0FCA3E0FD1213F3C00623
:103A3800C0079001E0E0FBA3E0FAA3E0F9121455F7
:103A4800023AEF9001E0E0FBA3E0FAA3E0F990006E
:103A580004121480FFAEF0900002121480C39FFF7E
:103A6800E5F09E9001E3F0A3EFF09001DAE0FBA30C
:103A7800E0FAA3E0F9900004121480FFAEF0900081
:103A880002121480C39FFFE5F09EFE9001E5F0A3AB
:103A9800EFF04E7002FF229001DAE0FBA3E0FAA3F8
:103AA800E0F9900004121480FFAEF0AB07AA06906C
:103AB80001D8E0FEA3E0FFC3EF9BFFEE9AFE900162
:103AC800E3E0FCA3E0FD12138CA3E0FCA3E0FD12ED
:103AD80013F3C006C0079001E0E0FBA3E0FAA3E0FF
:103AE800F9900004121480FFAEF0D0E02FFFD0E070
:103AF8003EF99001DDE0FBA3E0FAA3E0C98FF012E4
:043B080014B87F016D
:013B0C002296
:104ABC007E009001DD7401F0A37401F0A374D6F0B4
:104ACC00A37401F0A37401F0A3741CF07B017A01B0
:104ADC0079081239979001D6E0FEA3E0244CF582B8
:0E4AEC0074013EF583E0FD7F027E00024DA8BE
:103593007F107E00124D61900106EFF07F117E00D7
:1035A300124D61900175EFF07F127E00124D619014
:1035B300013BEFF07F147E00124D6190011AEFF092
:1035C3007F157E00124D61EFC4540F75F00AA4FFFE
:1035D300AEF0C006C0077F157E00124D61EF540F99
:1035E300FDD0E02DFDD0E03400FC12115290013CDF
:1035F30012165D7F167E00124D61EFC4540F75F0F5
:103603000AA4FFAEF0C006C0077F167E00124D610C
:10361300EF540FFDD0E02DFDD0E03400FC12115229
:1036230090012A12165D7F177E00124D61EFC4547C
:103633000F75F00AA4FFAEF0C006C0077F177E0027
:10364300124D61EF540FFDD0E02DFDD0E03400FCAE
:1036530012115290014012165D7F187E00124D61C7
:10366300EFC4540F75F00AA4FFAEF0C006C0077F85
:10367300187E00124D61EF540FFDD0E02DFDD0E018
:103683003400FC12115290012F12165D7F197E0037
:10369300124D61EFC4540F75F00AA4FFAEF0C006DB
:1036A300C0077F197E00124D61EF540FFDD0E02D4E
:1036B300FDD0E03400FC12115290014412165D7FDC
:1036C300207E00124D61EFC4540F75F00AA4FFAEC3
:1036D300F0C006C0077F207E00124D61EF540FFD3E
:1036E300D0E02DFDD0E03400FC12115290013312D2
:1036F300165D7F217E00124D61EFC4540F75F00AF1
:10370300A4FFAEF0C006C0077F217E00124D61EF1B
:10371300540FFDD0E02DFDD0E03400FC1211529087
:10372300014812165D7F227E00124D61EFC4540FD3
:1037330075F00AA4FFAEF0C006C0077F227E001218
:103743004D61EF540FFDD0E02DFDD0E03400FC12AD
:10375300115290013712165D7F137E00124D61EFF7
:10376300600790010FE04420F090013BE06401709A
:103773001E900106E0700E7D017F10FE1249EE904F
:1037830001067401F090011AE06401703A80179009
:10379300011AE06401701C7D017F10FE1249EE9056
:1037A30001067401F0E4FD7F14FE1249EEE490017A
:1037B3001AF022900106E06401700CFD7F10FE12E6
:0837C30049EEE4900106F0223A
:104DC800EF4488F5C5E5C520E3FBAFC6EF75F004F1
:104DD800A4FFE5E85403FDEF4DFFE5F05403FE2280
:074FA500E4FE7F06024DC887
:074FAC00E4FE7F07024DC87F
:1025C4002005030229EA7F0A7ED77D237C3C900103
:1025D4002AE0F8A3E0F9A3E0FAA3E0FB120FA79026
:1025E400013CE0F8A3E0F9A3E0FAA3E0FB120EB685
:1025F4009001D612165D7F0A7ED77D237C3C900124
:102604002FE0F8A3E0F9A3E0FAA3E0FB120FA790F0
:102614000140E0F8A3E0F9A3E0FAA3E0FB120EB650
:102624009001DA12165D7F0A7ED77D237C3C9001EF
:1026340033E0F8A3E0F9A3E0FAA3E0FB120FA790BC
:102644000144E0F8A3E0F9A3E0FAA3E0FB120EB61C
:102654009001DE12165D7F0A7ED77D237C3C9001BB
:1026640037E0F8A3E0F9A3E0FAA3E0FB120FA79088
:102674000148E0F8A3E0F9A3E0FAA3E0FB120EB6E8
:102684009001E212165D7F007EB07DE57C459001ED
:10269400D6E0F8A3E0F9A3E0FAA3E0FB120FA7E465
:1026A400FBFA797A78441210B09001E612165D7F35
:1026B400E17E987DD27C459001DAE0F8A3E0F9A3AD
:1026C400E0FAA3E0FB120FA7E4FBFA797A7844124C
:1026D40010B09001E6E0F8A3E0F9A3E0FAA3E0FB70
:1026E400120EB69001EA12165D7F487EC17D2C7CE5
:1026F400469001DEE0F8A3E0F9A3E0FAA3E0FB12C0
:102704000FA7E4FBFA797A78441210B09001EAE05A
:10271400F8A3E0F9A3E0FAA3E0FB120EB69001EEF1
:1027240012165D900263E0FEA3E0FFC3EE648094A2
:10273400804008E4900129F0FC801790012974017D
:10274400F0900263E0FEA3E0FFC3E49FFFE49EFE7B
:102754007C007D021213F39001D2EEF0A3EFF0900F
:1027640001D2E0FEA3E0D394F0EE940040030228EB
:102774000AC3EE9400500302280AE4FFFE7DF57CB0
:10278400419001D6E0F8A3E0F9A3E0FAA3E0FB123C
:102794000FA7C004C005C006C0079001D2E0FCA387
:1027A400E0FDE4121152D003D002D001D000120F88
:1027B400A7E4FBFA797A78441210B0900125121636
:1027C4005DE4FFFE7DF57C419001D6E0F8A3E0F9DD
:1027D400A3E0FAA3E0FB120FA7C004C005C006C023
:1027E400079001D2E0FCA3E0FDE4121152D003D023
:1027F40002D001D000120FA712118B9001D4EEF079
:10280400A3EFF00229709001D2E0FEA3E0FFD3947D
:10281400F0EE9400406BD3EF94C2EE940150627FCB
:102824002F7E5D7D007C429001DAE0F8A3E0F9A3FD
:10283400E0FAA3E0FB120FA7C004C005C006C0075E
:102844009001D3E02410FD9001D2E034FFFCE412A7
:102854001152D003D002D001D000120FA7E4FBFA2A
:10286400797A78441210B09001E6E0F8A3E0F9A375
:10287400E0FAA3E0FB120EB690012512165D0229C0
:10288400709001D2E0FEA3E0FFD394C2EE94014025
:102894006AD3EF940CEE940350617F197E047D0695
:1028A4007C429001DEE0F8A3E0F9A3E0FAA3E0FBA8
:1028B400120FA7C004C005C006C0079001D3E024CE
:1028C4003EFD9001D2E034FEFCE4121152D003D05C
:1028D40002D001D000120FA7E4FBFA797A784412EF
:1028E40010B09001EAE0F8A3E0F9A3E0FAA3E0FB5A
:1028F400120EB690012512165D8071D39001D3E0BB
:10290400940C9001D2E0940350030229CE7F817E7F
:10291400957D0B7C429001E2E0F8A3E0F9A3E0FA94
:10292400A3E0FB120FA7C004C005C006C0079001B6
:10293400D3E024F4FD9001D2E034FCFCE412115203
:10294400D003D002D001D000120FA7E4FBFA797AA9
:1029540078441210B09001EEE0F8A3E0F9A3E0FA95
:10296400A3E0FB120EB690012512165D7FCD7ECC3E
:102974007D4C7C3D900125E0F8A3E0F9A3E0FAA3A7
:10298400E0FB120EB612118B900117EFF07FCD7E93
:10299400CC7D4C7C3D900125E0F8A3E0F9A3E0FA5E
:1029A400A3E0FB120EB6E4FBFA79C87842120FA733
:1029B40012118B900123EEF0A3EFF07C007D6412E2
:1029C400139E900123ECF0A3EDF0C205900118E0F2
:1029D4001350137F811233597F2C124A7B7D2C7F35
:0629E400E87E03123F191A
:0129EA0022CA
:104E26007BFF7A4779AC124AFA121C911244AF12F0
:0F4E36004534124CAE1225C4900106E070EB22F9
:1045B800124876124D097BFF7A4779C1124AFA12DE
:1045C8003C3BD2B4D2B5124EE41235931248239034
:1045D8000175E0FF124ABC7BFF7A4779D1900175DB
:1045E800E0FF9001DCE4F0A3EFF0124AFA90010F2B
:1045F800E0FFC413540713500A124E63EF7004907F
:104608000106F0900106E0640178117008E654F0A4
:104618004402F6800BE6540F4420F654F04401F6A9
:10462800C200900106E064017003124E26123D3A62
:0246380080F010
:103D3A007BFF7A4779E3124AFA7811E654F0440194
:103D4A00F6900118E0FF1313543F135004EF54FB8D
:103D5A00F0900118E054FEF07F1A124A7B90011885
:103D6A00E054BFF07F0A124A7BE490011BF0F5B2DF
:103D7A001245341244AF124CAE900106E064016061
:103D8A005C90011BE070297811E6FFC4540F6401AE
:103D9A00701E90010EE0FFC41313540313401190D8
:103DAA00011B7401F07D2E7F107E27123F1980C0FF
:103DBA00124E63EF6401600CE5E8F4FF1313135429
:103DCA001F30E00CE490011BF07F2E124A7B80A08A
:103DDA0090011BE064027098124C5080937D017F21
:103DEA00147E001249EEE4900263F0A3F0900117EA
:103DFA00F0900123F0A3F0900129F0F542F54390E9
:103E0A000110E054FEF0A3E054E04414F07811E607
:103E1A0054F04402F67BFF7A4779FD124AFA75E7B5
:023E2A00202254
:1038ED0001108A41021E00C187C10841021C40C15E
:0138FD008644
:1048C5001B5B306D001B5B303B33316D001B5B3078
:1048D5003B33326D001B5B303B33336D001B5B306C
:1048E5003B33346D001B5B303B33356D001B5B3058
:1048F5003B33366D001B5B303B33376D0030313257
:0E490500333435363738394142434445460095
:1038FE0058026CFF48C5FF48CAFF48D2FF48DAFF9E
:0B390E0048E2FF48EAFF48F2FF48FAD9
:08173B00E0FBA3E0FAA3E0F9D2
:0B174300900207EBF0A3EAF0A3E9F02E
:10174E0090021512166900000001900207E0FBA33B
:10175E00E475F00112143FA9F0FA12130290020D73
:10176E00F07003021C9024DB701B900207E0FBA3B9
:10177E00E0FAA3E0F9121302B42513900208E475FF
:10178E00F0011214292002FD90020D021C66C209FE
:10179E00C20AE4900214F0900207E0FBA3E475F095
:1017AE000112143FA9F0FA12130290020DF0E0FD9F
:1017BE00B4301BD209900207E0FBA3E475F00112CE
:1017CE00143FA9F0FA12130290020DF0801FEDFFE4
:1017DE003395E0FEC3EF9430EE64809480402CD3BA
:1017EE00EF9439EE64809480502190020DE024D065
:1017FE00900214F0900207E0FBA3E475F0011214BE
:10180E003FA9F0FA12130290020DF0900213740227
:10181E00F090020DE024BE602B24E0602724F660D9
:10182E00042420703C900207E0FBA3E475F0011243
:10183E00143FA9F0FA12130290020DF090021374E5
:10184E0004F0801D900207E0FBA3E475F001121472
:10185E003FA9F0FA12130290020DF09002137401D8
:10186E00F090020DE0FF24A87003021B1F24F570F8
:10187E0003021C3B24F07003021BEE24FE600E24B8
:10188E00FD7003021B1F24146003021C6E900213D2
:10189E00E024FE604224FE607B2403600302193FB5
:1018AE00EF90020AB46419E0FBA3E475F001121480
:1018BE003FA9F0FA121302FF3395E0FEFDFC806B98
:1018CE00E0FBA3E475F00112143FA9F0FA12130223
:1018DE00FFE4FCFDFE805490020DE090020AB46419
:1018EE001BE0FBA3E475F00212143FA9F0FA1214E8
:1018FE0055FFAEF0EE3395E0FDFC8016E0FBA3E461
:10190E0075F00212143FA9F0FA121455FFAEF0E46E
:10191E00FCFD801790020DE090020AE0FBA3E47537
:10192E00F00412143FA9F0FA12163D90020F12168F
:10193E005D90020FE0FCA3E0FDA3E0FEA3E0FFEC50
:10194E003350252002FD75992DD20290020FE0FC36
:10195E00A3E0FDA3E0FEA3E0FF74FFFBFAF9F8128B
:10196E0014D790020F12165D900214E06003021A53
:10197E000590020FE0FCA3E0FDA3E0FEA3E0FFEC68
:10198E004D4E4F700B2002FD759930D20202175842
:10199E00E4900214F0A312166900000001900214E4
:1019AE00E0C3940A74809480504D90020FE0FCA323
:1019BE00E0FDA3E0FEA3E0FF900215E0F8A3E0F93E
:1019CE00A3E0FAA3E0FB121562E4FBFAF9F8C312E6
:1019DE0016186023900215E0FCA3E0FDA3E0FEA321
:1019EE00E0FFE47B0AF81214D790021512165D90F0
:1019FE000214E004F080A6E490020EF0900215129C
:101A0E00166900000001900214E024FFFFE434FF89
:101A1E00FE90020EE0FD3395E0FCC3ED9FEE648078
:101A2E00F8EC6480985025900215E0FCA3E0FDA32D
:101A3E00E0FEA3E0FFE47B0AFAF9F81214D7900255
:101A4E001512165D90020EE004F080BA90020FE0BF
:101A5E00FCA3E0FDA3E0FEA3E0FF900215E0F8A3D7
:101A6E00E0F9A3E0FAA3E0FB121562EF2430FF9039
:101A7E00020DF0BF3025200922E47F01FEFDFC900F
:101A8E000215E0F8A3E0F9A3E0FAA3E0FBC31216F7
:101A9E0018600890020D7420F08002D2092002FD19
:101AAE0090020DE0F599D20290020FE0FCA3E0FD4A
:101ABE00A3E0FEA3E0FF900215E0F8A3E0F9A3E097
:101ACE00FAA3E0FB121562AC00AD01AE02AF0390BB
:101ADE00020F12165D900215E0FCA3E0FDA3E0FEDE
:101AEE00A3E0FFE47B0AFAF9F812156290021512D0
:101AFE00165DE4FFFEFDFC900215E0F8A3E0F9A3ED
:101B0E00E0FAA3E0FBC31216186003021A5A02177A
:101B1E0058900213E024FE602224FE6039240370E4
:101B2E004E90020AE0FBA3E475F00112143FA9F0F7
:101B3E00FA121302FFE4FCFDFE802E90020AE0FB77
:101B4E00A3E475F00212143FA9F0FA121455FFAE79
:101B5E00F0E4FCFD801390020AE0FBA3E475F004B0
:101B6E0012143FA9F0FA12163D90020F12165D9054
:101B7E000214E07008900213E025E0A3F0E4900256
:101B8E000EF0900214E0FF90020EE0FD3395E0FCA3
:101B9E00C3ED9F7480F86C9840030217582002FD25
:101BAE0090020EE0FF900214E0C39F1425E025E0A2
:101BBE00F990020FE0FCA3E0FDA3E0FEA3E0FFA876
:101BCE00011216297E00EF540F2402F582EE3449DD
:101BDE00F583E493F599D20290020EE004F080A210
:101BEE0090020AE0FBA3E475F00312143FA9F0FA89
:101BFE0012169A900219EBF0A3EAF0A3E9F0900204
:101C0E0019E0FBA3E0FAA3E0F91213027003021726
:101C1E00582002FD900219E0FBA3E475F0011214A6
:101C2E003FA9F0FA121302F599D20280D190020A5E
:101C3E00E0FBA3E475F00212143FA9F0FA1214555A
:101C4E00FFAEF0EE3395E0FDFC90020F12165D2014
:101C5E0002FD90020FA3A3A3E0F599D2020217583A
:101C6E0090020AE0FBA3E475F00212143FA9F0FA09
:101C7E00121455FFAEF0E4FCFD90020F12165D0239
:021C8E001758E5
:011C90002231
:0B4AFA009001D9EBF0A3EAF0A3E9F073
:104B05009002047401F0A37401F0A374DCF0900228
:104B150004E0F9A3E0FAA3E090020AC9F0A3EAF0E1
:104B2500A3E9F09001D912173B900204E4F0A3F039
:024B3500A3F0EB
:014B3700225B
:0B4B38009001D2EBF0A3EAF0A3E9F03B
:104B43009001FD7401F0A37401F0A374D5F09001FA
:104B5300FDE0F9A3E0FAA3E090020AC9F0A3EAF0AA
:104B6300A3E9F09001D212173B9001FDE4F0A3F00A
:024B7300A3F0AD
:014B7500221D
:0E4A35009001D8EFF0A3EBF0A3EAF0A3E9F0B4
:104A43009002047401F0A37401F0A374DCF09002EB
:104A530004E0F9A3E0FAA3E090020AC9F0A3EAF0A4
:104A6300A3E9F09001D912173B900204E4F0A3F0FC
:074A7300A3F09001D804F04C
:014A7A002219
:104CDC000A0D537973506F776572496E6974696107
:104CEC006C2E2E4F4B2121000D0A28506F776572C8
:0D4CFC005377697463683D253032782900D4
:043919000211000097
:104D0900D283C2A1D284D282C2A1C2B7C286C2EA68
:104D1900D2A6C2A2D2B6C2A0D2E8D2E97FC87E008A
:0C4D2900124EB77BFF7A4C79DC024B384D
:104534007811E6FF540F14602D24FA60502405709E
:1045440063EFC4540F601024F960082406700DE46E
:10455400FF80067F0380027F01124D357811E654F7
:104564000F4420F6803E7811E6C4540F600C24FEFC
:10457400600C24FB700D7F0480067F0280027F069E
:10458400124D357811E6540F4410F680177811E671
:10459400C4540F24FE70057F05124D357811E6547E
:1045A4000F4470F67811E6FF54F0C4540FFEEF5434
:0445B400F04EF622AD
:1030BB009001D6EFF07F1F124A7B7F20124A7B7F55
:1030CB0021124A7B7F22124A7B7F23124A7B7F2469
:1030DB00124A7B9001D6E024F770030232C524FC20
:1030EB0070030231FB147003023189147003023236
:1030FB005424FD700302330F14700302332A24038C
:10310B0060030233587DE07F141242FB900111E003
:10311B0054E04410F0900118E013400A900106E0CF
:10312B006401700280777811E6C4540F6407702D28
:10313B0090010EE0C413135403135002801A900134
:10314B0006E070057D1C02330290010EE0541F64F3
:10315B000470057D220233027D200233517811E683
:10316B00C4540F6402701490010EE0541F64047079
:10317B00057D230233027D1D0233510233077D99F6
:10318B007F141242FB900111E054E0440EF09001C9
:10319B0018E013400D900106E0640170057D1F02DD
:1031AB0033027811E6C4540F6407701590010EE0DA
:1031BB00C4131354031350047D2480027D1F023368
:1031CB0051900106E070139001C7E0700D9001C89B
:1031DB00E0640170057D1E0233029001C7E0700DA3
:1031EB009001C8E0640170057D1B0233020232C1FD
:1031FB00E4FD7F141242FB900111E054E0440DF00A
:10320B00900118E013400D900106E0640170057DFC
:10321B001F0233027811E6C4540F64077015900136
:10322B000EE0C4131354031350047D2280027D1F40
:10323B000233519001C7E0700D9001C8E06401703A
:10324B00057D1E0233020233077D997F141242FB68
:10325B00900111E054E0440FF0900118E013400D81
:10326B00900106E0640170057D1F0233027811E6C0
:10327B00C4540F6407701590010EE0C4131354036C
:10328B001350047D2480027D1F023351900106E010
:10329B0070129001C7E0700C9001C8E064017004DB
:1032AB007D1E80539001C7E0700C9001C8E0640153
:1032BB0070047D1B80417D1D80447DE07F14124294
:1032CB00FB900111E054E04409F0900118E0134029
:1032DB000C900106E0640170047D1F801A7811E6E2
:1032EB00C4540F640270047D1D800C7811E6C45425
:1032FB000F640770077D207F64FE804E7D1C7F640A
:10330B007E008046900118E0C4540F1350077F06CF
:10331B001240D68002D2827D227F647E00802B9069
:10332B000118E0C4540F13500EE4FF1240D6900165
:10333B0018E054EFF08002C282900118E0135004A1
:0E334B007D1D80027D227F647E00123F1922CC
:1040D6009001D7EFF07BFF7A4C79F49001DCE4F0A5
:1040E600A3EFF0124AFA9001D7E0B40A00400302A7
:1040F60041A19040FFF828287302411D02411D028C
:10410600416902411D02416902419302416902412E
:10411600A10241A1024143C282D2B7D2EAD2A6D2BB
:10412600A2C2B67F147E00124EB7D2A07D157FF4D0
:104136007E01123F197D0D7FE87E03804BC283D23C
:10414600A17F407E00124EB7C284D286900118E04D
:10415600FF1313543F135043EF54FBF07F84123385
:10416600598038C2A0D283D284C2A1D282C2A1C24F
:10417600B7C2EAD2A6C2A2C286D2B6900118E0445D
:1041860020F07D2D7FB87E0B123F19800EC2A1D282
:1041960084C2B7C2EAD2A6C2A2C286900111E05476
:0541A600E04414F022CA
:104D35009001D2EFF024FE601A24FE601614601371
:104D450014601024FE600C240824F6500624F76035
:0C4D55000280089001D2E0FF1240D6223C
:10391D00C10C42018100004201C50225420185030F
:10392D00704101C3004101790041017B014101C793
:10393D00004101C8014101780041017A0041017C3B
:10394D000041017D0041017E004101D1004101CBCB
:10395D0000410177004101CD00410184004101CCBE
:10396D00FF410176FE4101C9004101D000410180B6
:10397D0000410183004101C4004101CAFF41017FA3
:09398D00004101CF004101CE0010
:044EB3007FF47E0109
:104EB700EF4E6010C20C300CFDC20CEF1F70011ECC
:054EC700144E70F22200
:104F2300EF75F003A42488F582E43401F583E0FEF1
:044F3300A3E0FF22D6
:104EFA00EF75F003A42487F582E43401F583E0C357
:054F0A0013547FFF229B
:104F3700EF75F003A42487F582E43401F583E05488
:034F4700FEF02257
:104F6E00EF75F003A42487F582E43401F583E01392
:014F7E002210
:10495D00900181E0FFA3E09001FBCFF0A3EFF09079
:10496D0001FBE0FEA3E0FFC3900182E09FFF9001F9
:10497D0081E09EFE124F8ED3EF947FEE6480948083
:10498D00400F900181E0FFA3E09001FBCFF0A3EF7A
:09499D00F09001FBE0FEA3E0FF35
:0149A60022EE
:083B0D009001F6EEF0A3EFF0C9
:103B1500E4A3F0A3F0A3F012495D9001F9EEF0A340
:103B2500EFF09001F6E0FEA3E0FFE4FCFD7B487AB0
:103B3500EEF9F8C3121602500A9001F674EEF0A3DE
:103B45007448F09001F6E0FEA3E0FF9001FAE02F43
:103B5500FF9001F9E03EFEE4FCFD7B487AEEF9F8C2
:103B6500C3121602401F9001F6E0FEA3E0FF90018C
:103B7500F9E0FCA3E0FD2FFFEC3EFED3ED9FEC9EAC
:103B85005003023C32E4900181F0A3F09001F8F07B
:103B95009001F8E0FFC39414748094804003023CC4
:103BA5002BEF75F003A42487F582E43401F583E057
:103BB5005401640170679001F8E0FF75F003A424D7
:103BC50088F582E43401F583E0FCA3E0FD9001F97A
:103BD500E0FAA3E0FBD3ED9BEC9A402CEF75F003E4
:103BE500A42488F582E43401F583C083C082C3A38D
:103BF500E09BFF0582D5820215831582E09AD0826B
:103C0500D083F0A3EFF080159001F8E075F003A4E0
:103C15002488F582E43401F583E4F0A3F09001F8FB
:103C2500E004F0023B95E49001F9F0A3F09001F96E
:053C3500E0FEA3E0FF2A
:013C3A002267
:10003E00E4FFEFC39414748094805015EF75F003B1
:10004E00A42487F582E43401F583E054FEF00F809A
:01005E00E1C0
:01005F00227E
:063F13007D147F647E00B6
:0B3F19009001F2EEF0A3EFF0A3EDF03A
:103F2400E4A3F0F09001F5E0FFC39414748094804E
:103F3400502EEF75F003A42487F582E43401F58351
:103F4400E0FF540164017010EFC313547FFF90012C
:103F5400F4E06F7003023FF79001F5E004F080C4D1
:103F6400E49001F5F09001F5E0FFC394147480949B
:103F7400804003023FF7EF75F003A42487F582E441
:103F84003401F583E0FF540170609001F5E0FE75A3
:103F9400F003A42487F582E43401F583EF4401F0AF
:103FA4009001F4E0547F25E0FFEE75F003A424872C
:103FB400F582E43401F583E054014FF09001F2E01E
:103FC400FEA3E0FF123B0D9001F3E02FFF9001F2FE
:103FD400E03EFE9001F5E075F003A42488F582E448
:103FE4003401F583EEF0A3EFF0229001F5E004F044
:033FF400023F6920
:013FF70022A7
:104A7B00E4FEEEC39414748094805034EE75F0030E
:104A8B00A42487F582E43401F583E0FD540164012D
:104A9B00701BEDC313547FB50713EE75F003A424FD
:104AAB0087F582E43401F583E054FEF0220E80C2D8
:014ABB0022D8
:0B3FF8009001D3EEF0A3EFF0A3EDF07A
:10400300E4A3F0F09001D6E0FFC39414748094808D
:10401300502DEF75F003A42487F582E43401F58372
:10402300E0FF54016401700FEFC313547FFF90014D
:10403300D5E0B5070280649001D6E004F080C5E4C2
:104043009001D6F09001D6E0FFC39414748094805D
:1040530040030240D5EF75F003A42487F582E434CE
:1040630001F583E0FF540170609001D6E0FE75F026
:1040730003A42487F582E43401F583EF4401F0902F
:1040830001D5E0547F25E0FFEE75F003A42487F506
:1040930082E43401F583E054014FF09001D3E0FE54
:1040A300A3E0FF123B0D9001D4E02FFF9001D3E07A
:1040B3003EFE9001D6E075F003A42488F582E43433
:1040C30001F583EEF0A3EFF0229001D6E004F002B5
:0240D300404764
:0140D50022C8
:103E2C00EF14B40D004003023F12903E4475F003B2
:103E3C00A4C58325F0C58373023E6D023E6D023E20
:103E4C006D023E81023E85023E99023EB2023EC8A0
:103E5C00023F12023EF3023F08023F12023F0B8068
:103E6C0000900175E0FF124ABC900175E0FD7F11D6
:103E7C007E000249EE7F80801190010EE0C4131386
:103E8C005403134003023F127F83023359900118ED
:103E9C00E0FF1313543F13406D7811E654F04407C0
:103EAC00F6EF4404F022E4900263F0A3F0900117C3
:103EBC00F0900123F0A3F0900129F022900118E07A
:103ECC00FF131313541F135019EF54F7F054FEF053
:103EDC007F121230BB7D087FB87E0B123F19E4F5C0
:103EEC00B2227F130230BB900118E04440F07F8275
:103EFC001233597D0A7F987E3A023F19024D87D2C0
:073F0C00B77F091240D62225
:1044AF00E49001D2F0A3F0A3F0A3F09001D2F0902A
:1044BF0001D2E0C3941474809480506812495D90C7
:1044CF0001D4EEF0A3EFF09001D2E0FF124F6E5047
:1044DF004B9001D2E0FF124F23D39001D5E09F9074
:1044EF0001D4E09E40369001D2E0FF124F37900189
:1044FF00D2E0FF124EFA9001D3EFF0C3940F748005
:10450F0094805007E0FF123E2C80119001D3E0FF02
:10451F00C3942F7480948050031200669001D2E0F0
:04452F0004F0808B89
:014533002265
:10006600EF24F0B41F004003020EAE90007F75F03F
:1000760003A4C58325F0C5837302016A0203EF0258
:100086000EAE0207E20207690201DE020A9F020DB6
:10009600D8020C2E0207CF020A820200E80200DC18
:1000A6000200E00200E40200ED0200F90201030290
:1000B600010D02011702012102012B020E21020E7F
:1000C60040020E32020E4E020E5C020E6B0201C59B
:1000D6000201D6020EA87F1C800A7F1D80067F1EA5
:1000E60080027F1B0247337F1F1247337D1F7FFA33
:1000F6000207C17F1F1247337D20020A987F211213
:1001060047337D21020A987F221247337D22020A55
:10011600987F231247337D23020A987F24124733A0
:100126007D24020A987F1C1247337F1E1247331222
:100136004EB37F1C124733124EB37F1E1247331243
:100146004EB37F1C124733124EB37F1E1247331233
:100156004EB37F1C124733124EB3900111E054E0A8
:100166004414F022124E63EF6401702490010EE0F5
:10017600C4131354031340427F17124F6E500812D4
:100186004A7B7D17123F157F16124F6E502C802228
:1001960090010EE0C41313540313501E7F17124F21
:1001A6006E5008124A7B7D17123F157F16124F6E4E
:1001B6005008124A7B7D16123F157D10020A989050
:1001C6000118E01350057F811233597D2C020A98DD
:1001D600900118E054DFF022124FAC900185EEF04A
:1001E600A3EFF0124FA59001C5EEF0A3EFF090013A
:1001F60085E0FEA3E0FFD3948AEE940250099001B5
:10020600CC7415F00202F4D3EF948AEE94024012F5
:10021600D3EF9499EE940250099001CC7418F00231
:1002260002F4D3EF9499EE94024012D3EF94A8EE21
:10023600940250099001CC7404F00202F4D3EF94B6
:10024600A8EE94024012D3EF94FBEE94025009906C
:1002560001CC7403F00202F4D3EF94FBEE94024057
:1002660011D3EF9422EE940350089001CC7402F05F
:10027600807CD3EF9422EE94034011D3EF9450EE9A
:10028600940350089001CC7401F08062D3EF94502F
:10029600EE94034010D3EF9475EE94035007E49068
:1002A60001CCF08049D3EF9475EE94034013D3EF5D
:1002B6009496EE9403500A900106E0640170028061
:1002C6001F900185E0FEA3E0FFD39475EE940340F2
:1002D60017D3EF949FEE9403500E900106E070083A
:1002E6009001CC7416F080069001CC7417F0900142
:1002F600CCE0541FFF90010EE054E04FF0900185D2
:10030600E0FFA3E0900112CFF0A3EFF09001C5E06B
:10031600FEA3E0FFD394AFEE94005010EF9414EEDA
:10032600940040089001CA7406F08074D3EF94AF2D
:10033600EE94004011D3EF94DEEE94005008900145
:10034600CA7419F0805AD3EF94DEEE9400400BD3B2
:10035600EF947BEE940250028040D3EF947BEE94B0
:10036600024011D3EF94E5EE940250089001CA744E
:100376001AF0802CD3EF94E5EE94024011D3EF945B
:10038600A0EE940350089001CA7408F08012900100
:100396000EE04420F054E04409F09001CA7407F0DE
:1003A600900111E0541F640970069001CA7407F0A9
:1003B6009001CAE0541FFF90010FE054E04FF0A2F5
:1003C60080E433900179F0E0FF9001C7E06F6002AE
:1003D600EFF0A281E43390017BF0E0FF9001C8E0EA
:1003E6006F7003020EAEEFF022124FAC900185EE55
:1003F600F0A3EFF0900112EEF0A3EFF090010EE003
:10040600C4135407135025E4900178F090017AF054
:1004160090017CF0A3F0A3F09001D1F09001CBF015
:10042600900177F09001CDF09001CCF0900185E03D
:10043600FEA3E0FFD3948AEE9402501BE490017869
:10044600F090017AF090017CF0A3F0A3F09001D136
:10045600E004F0E402051AD3EF948AEE9402402FEA
:10046600D3EF9499EE94025026E4900178F090012F
:100476007AF090017CF0A3F0A3F09001D1F0900106
:10048600CBF0900177F09001CDE004F0020629D37D
:10049600EF9499EE94024022D3EF94A8EE94025082
:1004A60019900178E004F0E490017AF090017CF074
:1004B600A3F0A3F09001D1F0805AD3EF94A8EE9464
:1004C600024027D3EF94FBEE9402501EE49001788D
:1004D600F090017AE004F0E490017CF0A3F0A3F040
:1004E6009001D1F09001CB020602D3EF94FBEE947B
:1004F60002402BD3EF9422EE94035022E49001782D
:10050600F090017AF090017CE004F0E4A3F0A3F00F
:100516009001D1F09001CBF0900177020602D3EF63
:100526009422EE9403402BD3EF9450EE9403502282
:10053600E4900178F090017AF090017CF0A3E00459
:10054600F0E4A3F09001D1F09001CBF09001770296
:100556000602D3EF9450EE9403402AD3EF9475EE3F
:1005660094035021E4900178F090017AF090017C98
:10057600F0A3F0A3E004F0E49001D1F09001CBF0F9
:100586009001778077D3EF9475EE94034031D3EFE3
:100596009496EE94035028900106E0640170209032
:1005A6000178F090017AF090017CF0A3F0A3F0902E
:1005B60001D1F09001CBE004F0E4900177803D900A
:1005C6000185E0FEA3E0FFD39475EE94034030D39B
:1005D600EF949FEE94035027900106E0702190015E
:1005E60078F090017AF090017CF0A3F0A3F09001EE
:1005F600D1F09001CBE004F0E4900177F08020E4A4
:10060600900178F090017AF090017CF0A3F0A3F0CD
:100616009001D1F09001CBF0900177E004F0E490E6
:1006260001CDF0C3900186E094BC900185E0940270
:100636004008900184E004F08005E4900184F09085
:100646000178E06414700B9001CC7404F0E490011E
:1006560078F090017AE06414700B9001CC7403F08A
:10066600E490017AF090017CE06414700B9001CC68
:100676007402F0E490017CF090017DE06414700A4D
:100686009001CC04F0E490017DF090017EE06414CA
:1006960070089001CCF090017EF09001D1E06414D6
:1006A600700B9001CC7415F0E49001D1F09001CB61
:1006B600E064147009A37416F0E49001CBF0900185
:1006C600CDE0641470099001CC7418F0E4A3F090A6
:1006D60001CBE064147009A37416F0E49001CBF02A
:1006E600900177E06414700B9001CC7417F0E490DD
:1006F6000177F09001CCE0FF900176E06F600BEFA0
:10070600F0900111E054E04414F0900184E0641488
:10071600703090010FE0FFC413540713501FEF54BD
:10072600DFF0900111E054E04414F07F137E0012D4
:100736004D61EF6008E4FD7F13FE1249EEE490017F
:1007460084F09001CCE0541FFF90010EE054E04F7E
:10075600F0900106E07D117003020A757F2C7E0180
:10076600020EA5900118E01313543F135009781197
:10077600E654F04402F622900106E0640170087D1A
:100786000A7F64FE020EA5900118E0C413540713F5
:10079600402E90010FE0C413540713500C90010E25
:1007A600E0C41313540313500E9001067401F0FDB8
:1007B6007F107E000249EE7D257F0A7E00020EA58F
:1007C6007D147FB87E0B020EA5900106E0640160E1
:1007D60003020EAE7D0A7F64FE020EA5124FA5909F
:1007E60001C5EEF0A3EFF0D394AFEE94005022E0F3
:1007F60094149001C5E094004017E49001C9F0906C
:1008060001D0F0900180F0900183E004F0E402084A
:10081600E49001C5E0FEA3E0FFD394AFEE94004060
:1008260023D3EF94DEEE9400501AE49001C9F090C1
:1008360001D0F0900180F0900183F09001C4E004B3
:10084600F00208E8D3EF94DEEE9400401ED3EF9456
:100856007BEE940250159001C9E004F0E49001D0BB
:10086600F0900180F0900183F08073D3EF947BEEDB
:100876009402401FD3EF94E5EE94025016E49001E3
:10088600C9F09001D0F0900180E004F0E49001837B
:10089600F0804BD3EF94E5EE9402401FD3EF94A083
:1008A600EE94035016E49001C9F09001D0E004F0F4
:1008B600E4900180F0900183F0802390010EE044E3
:1008C60020F054E04409F09001CA7407F0E4900166
:1008D600C9F09001D0F0900180F0900183F0900172
:1008E600C4F09001C9E0D394037480948050309092
:1008F60001D0E09403748094805024900180E094A9
:1009060003748094805018900183E094037480945B
:1009160080500C9001C4E0940374809480401F9032
:10092600013BE064017017900106E0701190010E22
:10093600E0C41354071350069001067401F09001A9
:1009460083E0640A701C9001CA7406F0E490018387
:10095600F0900110E054FDF054FBF090010EE054CD
:10096600DFF09001C4E0640A701C9001CA7419F0AB
:10097600E49001C4F0900110E04402F054FBF090C2
:10098600010EE054DFF09001C9E0640A701AA37406
:1009960007F0E49001C9F0900110E054FBF054FD1B
:1009A600F090010EE054DFF0900180E0640A701CC4
:1009B6009001CA741AF0E4900180F0900110E044AE
:1009C60004F054FDF090010EE054DFF09001D0E009
:1009D600640A701C9001CA7408F0E49001D0F0908B
:1009E6000110E054FBF054FDF090010EE054DFF0EE
:1009F6009001CAE0541FFF90010FE054E04FF090C1
:100A060001C5E0FEA3E0FFD394DEEE94004009D3D7
:100A1600EF9415EE9403400D9001CFE004F0E490BE
:100A260001CEF0800BE49001CFF09001CEE004F00F
:100A36009001CFE0640A701FF090010EE0FFC4132E
:100A4600135403135021EFC4135407134019900194
:100A560010E04408F080109001CEE0640A7008F0BF
:100A6600900110E054F7F0900106E07D1370067FC8
:100A760064FE020EA57FC87E00020EA5900118E056
:100A8600FFC313135003020EAEEF4408F04410F0F8
:100A96007D087FE87E03020EA5124E63EF640160B7
:100AA60003020BF390010EE0FFC41313540313402B
:100AB6002EEF4440F0C2EAD2A6A280E43390017938
:100AC600F0E0FF9001C7E06F6002EFF0A281E4332F
:100AD60090017BF0E0FF9001C8E06F6002EFF090BC
:100AE600010EE0C41354071350057D2A020BE47867
:100AF60011E6C4540F6402704490010FE0FF541FC6
:100B06006407702CEFC413135403134023A3E0FFB0
:100B160013401DEF131313541F13401490010FE0DD
:100B2600C41354071340047D2780027D26020BE47C
:100B3600900111E0541F6409704F020BDB7811E637
:100B4600C4540F6407704490010FE0FF541F6407FC
:100B5600702BEFC413135403134022A3E0FF13407A
:100B66001CEF131313541F13401390010FE0C4130B
:100B760054071340047D2780027D26806190011171
:100B8600E0541F64097002804C80517811E6C45409
:100B96000F6401705090010FE0FF541F6407702B23
:100BA600EFC413135403134022A3E0FF13401CEFBA
:100BB600131313541F13401390010FE0C41354076B
:100BC6001340047D2880027D268013900111E05495
:100BD6001F640970077D2A7F64FE80067D297F6475
:100BE6007E00123F197D167F887E13803590010E98
:100BF600E054BFF0C2EA4480F0A3E054BFF0900195
:100C06003BE06401700D900106E0640170057F828F
:100C16001233597D297FF47E01123F197D177FF427
:100C26007E01123F19020E1CA280E433900179F076
:100C3600A281E43390017BF0900179E0FF9001C737
:100C4600E06F601990010EE0C413540713400E9034
:100C560001C7EFF0900111E054E04414F090017BDD
:100C6600E0FF9001C8E06F601990010EE0C41354D4
:100C76000713400E9001C8EFF0900111E054E044D4
:100C860014F0900110E0FF134018900113E094FF58
:100C9600900112E09403400AEF4401900110F01213
:100CA6003F1390010EE0541F24FC4003020DC17057
:100CB60003020DA524EF6056147003020DC124FE35
:100CC600604C046003020DCF90010FE0FFC41313C4
:100CD6005403134004EF4440F090010FE0FFC413A7
:100CE600540713501FEF54DFF0900111E054E04415
:100CF60014F07F137E00124D61EF6008E4FD7F1350
:100D0600FE1249EE900110E054EFF0020DCF900173
:100D16000FE0FFC413540713402F900118E013404F
:100D26002890010EE0C41313540313401CEF442013
:100D3600A3F07F137E00124D61EF70087D017F13D3
:100D4600FE1249EE123F13803590010EE0FF541F4C
:100D56006415702A900106E064017022EFC4131333
:100D66005403134019E4F0FD7F10FE1249EE900182
:100D760018E0FF1313543F135004EF54FBF0900197
:100D860018E01313543F1350087811E654F0440248
:100D9600F690010FE054BFF0A3E04410F0802A90D3
:100DA600010FE054BFF0900118E01313543F1350A5
:100DB600187811E654F04402F6800E900110E044D3
:100DC60010F090010FE054BFF07D187F887E13026B
:100DD6000EA5124E63EF6401702790013BE064019B
:100DE600700E900106E070087D147F64FE123F19B4
:100DF600900111E054E04414F07D167F647E00807B
:100E06001220A604D2A6C2EA7D29123F157D177FBD
:100E1600887E13123F19C2EAD2A622900111E0542D
:100E26001F640E7003020EAE7F0E8036900111E035
:100E3600541F640D60727F0D8028900111E0541FCD
:100E4600640F60647F0F801A900111E0541F6410D4
:100E560060567F10800C900111E0541F64096048B1
:100E66007F090230BB900254E0240AF0E0643C7033
:100E760007F090025CE004F090025CE0643C7007CE
:100E8600F0900261E004F0900261E064187007F0EF
:100E9600900260E004F01229EB7D2B7F107E270282
:090EA6003F1990011B7402F022B7
:100EAF000211F7E86480F8E933E83360110460F069
:100EBF00ED33EC337009E8FCE9FDEAFEEBFF2204A9
:100ECF0060DED3EB9FEA9EE99DE8C2E78CF0C2F7A4
:100EDF0095F0400CE8CCF8E9CDF9EACEFAEBCFFB70
:100EEF001211C285D0F05804700320D5B3E80470F6
:100EFF00075002B2D502120192D5EC0460F7E4CC90
:100F0F00C0E0C398F8603B94186008400DD0E0FB38
:100F1F000211D9E4FBFAC9FC8028E830E406E4C9E1
:100F2F00FBE4CAFCE830E305E4C9CACBFCE854078C
:100F3F006010F8C3E913F9EA13FAEB13FBEC13FC97
:100F4F00D8F130F52FC3E49CFCEF9BFFEE9AFEED3A
:100F5F0099FDD0E0FBEF4E4D4C701222DB030211D6
:100F6F00FEEC2CFCEF33FFEE33FEED33FDED30E7FF
:100F7F00EB0211D9EF2BFFEE3AFEED39FDD0E0FB7E
:100F8F0050130BBB0003021201ED13FDEE13FEEF26
:080F9F0013FFEC13FC0211D951
:100FA700EC4D6011E8497017ED33EC3304600DE444
:100FB700FCFFFEFD22E933E8330470F80211F71253
:100FC70011C258046009E4CC248150062850090254
:100FD70012012840030211FEC0E0EB4A7044B980B9
:100FE70006D0E0FB0211EDEF4E701CBD8008EBFF51
:100FF700EAFEE9FD80EBE98DF0A4FEE5F002109032
:10100700E9CDF9EAFEEBFFEF89F0A4FCE5F0CE8924
:10101700F0A42EFFE435F0CD89F0A42DFEE435F0E1
:101027008067EF4E7005BD80D780C3EF8BF0A4AC0F
:10103700F0EE8BF0A42CFCE435F0F8EF8AF0A42C4A
:10104700E5F038FCE433CB8DF0A42CFCE5F03BF85D
:10105700EE8AF0A42CFCE5F038F8E433CF89F0A44D
:101067002CFCE5F038CF3400CE89F0A42FFFE5F053
:101077003EFEE433C98DF0A42EFEE5F039CD8AF0AB
:10108700A42FFFE5F03EFEE43DFD33D0E0FB500723
:101097000BBB000F021201EC2CFCEF33FFEE33FE0B
:0610A700ED33FD0211D93A
:1010AD00021201EC5D046005E8590470030211F7AA
:1010BD001211C2580460F6EC4860F2EC7004FDFEAB
:1010CD00FF22C860DB2481C85009C3986002500616
:1010DD000211FE9850CAF582E9294B4A7005AB8280
:1010ED000211ED75F0007C1A7880C3EF9BEE9AED3E
:1010FD0099400DC3EF9BFFEE9AFEED99FDE842F08E
:10110D00DC23ACF0D0E0FFD0E0FED0E0FDAB8220E0
:10111D00E7101BEB60BAEC2CFCEF33FFEE33FEED6A
:10112D0033FD0211D9E803F830E705C0F075F00082
:10113D00EF2FFFEE33FEED33FD40B830E7C280AA4E
:10114D0075F020800E75F010800575F0087D007E1D
:10115D00007F003392D530D5031215F4EC334010D7
:10116D00EF33FFEE33FEED33FDEC33FCD5F0ED2226
:0E117D00E5F0247EA2D513CC92E7CDCEFF2262
:10118B00EDD2E7CD33EC3392D524814006E4FFFE5C
:10119B00FDFC22FCE4CFCECDCC24E0501174FF80BB
:1011AB00EDC3CC13CCCD13CDCE13CECF13CF047058
:0711BB00F030D5DE0215F44F
:1011C200E9D2E7C933E833F892D5EDD2E7CD33EC73
:0711D20033FC5002B2D522EC
:1011D900EC30E7100FBF000C0EBE00080DBD000477
:1011E9000BEB6014A2D5EB13FCED92E7FD2274FF23
:1011F900FCFDFEFF22E480F8A2D574FF13FC7D807C
:03120900E480EF8F
:10442F000245B8E493A3F8E493A34003F68001F2A6
:10443F0008DFF48029E493A3F85407240CC8C3338E
:10444F00C4540F4420C8834004F456800146F6DF5D
:10445F00E4800B01020408102040809037CBE47EEB
:10446F00019360BCA3FF543F30E509541FFEE49352
:10447F00A360010ECF54C025E060A840B8E493A319
:10448F00FAE493A3F8E493A3C8C582C8CAC583CA44
:10449F00F0A3C8C582C8CAC583CADFE9DEE780BEFC
:013996000030
:10120C00E709F608DFFA8046E709F208DFFA803EC4
:10121C0088828C83E709F0A3DFFA8032E309F608B1
:10122C00DFFA8078E309F208DFFA807088828C8319
:10123C00E309F0A3DFFA806489828A83E0A3F608CD
:10124C00DFFA805889828A83E0A3F208DFFA804CA7
:10125C0080D280FA80C680D4806980F2803380107E
:10126C0080A680EA809A80A880DA80E280CA8033E7
:10127C0089828A83ECFAE493A3C8C582C8CCC5835F
:10128C00CCF0A3C8C582C8CCC583CCDFE9DEE7802F
:10129C000D89828A83E493A3F608DFF9ECFAA9F0AE
:1012AC00EDFB2289828A83ECFAE0A3C8C582C8CC04
:1012BC00C583CCF0A3C8C582C8CCC583CCDFEADE1D
:1012CC00E880DB89828A83E493A3F208DFF980CC7F
:1012DC0088F0EF60010E4E60C388F0ED2402B40478
:1012EC000050B9F582EB2402B4040050AF2323451F
:0612FC00822390125C73D6
:10130200BB010689828A83E0225002E722BBFE02E9
:09131200E32289828A83E493221C
:10131B00BB010CE58229F582E5833AF583E0225087
:10132B0006E92582F8E622BBFE06E92582F8E222D1
:0D133B00E58229F582E5833AF583E49322EB
:10134800BB010989828A83F8E028F022500327F735
:1013580022BBFE05F8E328F3228A838982F8E49306
:02136800282239
:10136A00F8BB010DE58229F582E5833AF583E8F0B9
:10137A00225006E92582C8F622BBFE05E92582C865
:02138A00F2224D
:10138C00EF8DF0A4A8F0CF8CF0A428CE8DF0A42E75
:02139C00FE222F
:10139E00BC000BBE0029EF8DF084FFADF022E4CC33
:1013AE00F875F008EF2FFFEE33FEEC33FCEE9DECFC
:1013BE00984005FCEE9DFE0FD5F0E9E4CEFD22ED42
:1013CE00F8F5F0EE8420D21CFEADF075F008EF2F8C
:1013DE00FFED33FD4007985006D5F0F222C398FD7D
:0513EE000FD5F0EA221A
:1013F300C2D5EC30E709B2D5E4C39DFDE49CFCEE15
:1014030030E715B2D5E4C39FFFE49EFE12139EC3DB
:10141300E49DFDE49CFC800312139E30D507C3E4D6
:061423009FFFE49EFE2283
:10142900C5F0F8A3E028F0C5F0F8E582158270024E
:061439001583E038F022EB
:10143F00A3F8E0C5F025F0F0E58215827002158360
:06144F00E0C838F0E822BD
:10145500BB010A89828A83E0F5F0A3E02250068762
:10146500F009E71922BBFE07E3F5F009E319228924
:0B147500828A83E493F5F07401932257
:10148000BB0110E58229F582E5833AF583E0F5F0AA
:10149000A3E0225009E92582F886F008E622BBFE87
:1014A0000AE92582F8E2F5F008E222E5832AF583CD
:0814B000E993F5F0A3E9932292
:1014B800BB010A89828A83F0E5F0A3F0225006F77F
:0F14C80009A7F01922BBFE06F3E5F009F319227C
:1014D700E88FF0A4CC8BF0A42CFCE98EF0A42CFCB4
:1014E7008AF0EDA42CFCEA8EF0A4CDA8F08BF0A432
:1014F7002DCC3825F0FDE98FF0A42CCD35F0FCEB91
:101507008EF0A4FEA9F0EB8FF0A4CFC5F02ECD3955
:0F151700FEE43CFCEAA42DCE35F0FDE43CFC22C2
:1015260075F008758200EF2FFFEE33FECD33CDCC7C
:1015360033CCC58233C5829BED9AEC99E5829840FF
:101546000CF582EE9BFEED9AFDEC99FC0FD5F0D6DC
:10155600E4CEFBE4CDFAE4CCF9A88222B800C1B906
:101566000059BA002DEC8BF084CFCECDFCE5F0CB44
:10157600F97818EF2FFFEE33FEED33FDEC33FCEB7D
:1015860033FB10D703994004EB99FB0FD8E5E4F938
:10159600FA227818EF2FFFEE33FEED33FDEC33FC25
:1015A600C933C910D7059BE99A4007EC9BFCE99A19
:1015B600F90FD8E0E4C9FAE4CCFB2275F010EF2F5E
:1015C600FFEE33FEED33FDCC33CCC833C810D7075E
:1015D6009BEC9AE899400AED9BFDEC9AFCE899F899
:0E15E6000FD5F0DAE4CDFBE4CCFAE4C8F9222C
:0E15F400C3E49FFFE49EFEE49DFDE49CFC2208
:10160200EB9FF5F0EA9E42F0E99D42F0EC6480C85F
:0616120064809845F022FF
:10161800EB9FF5F0EA9E42F0E99D42F0E89C45F028
:01162800229F
:10162900E86010ECA2E713FCED13FDEE13FEEF13D7
:04163900FFD8F022C4
:10163D00BB010789828A830216EC5005E9F8021670
:10164D00E0BBFE05E9F80216F889828A83021704C9
:0C165D00ECF0A3EDF0A3EEF0A3EFF02200
:10166900A8828583F0D083D0821216801216801248
:101679001680121680E473E493A3C583C5F0C5836D
:10168900C8C582C8F0A3C583C5F0C583C8C582C8CB
:01169900222E
:10169A00BB010789828A8302171D5005E9F80217E0
:1016AA0014BBFE05E9F802172689828A8302172FDE
:1016BA00D083D082F8E4937012740193700DA3A3BF
:1016CA0093F8740193F5828883E4737402936860D3
:0616DA00EFA3A3A380DFD3
:0C4F8E00EE30E707C3E49FFFE49EFE2224
:0C16E000E6FC08E6FD08E6FE08E6FF2236
:0C16EC00E0FCA3E0FDA3E0FEA3E0FF2271
:0C16F800E2FC08E2FD08E2FE08E2FF222E
:10170400E493FC740193FD740293FE740393FF222B
:09171400E6FB08E6FA08E6F922FA
:09171D00E0FBA3E0FAA3E0F922CD
:09172600E2FB08E2FA08E2F922F4
:0C172F00E493FB740193FA740293F92216
:00000001FF
