:03000000022EBE0F
:0C2EBE00787FE4F6D8FD758179022F05BD
:101AA1000D0A507265762E46573A25303278253028
:101AB100327825303278000D0A437572722E4657FE
:101AC1003A253032782530327825303278000D0AC7
:101AD10043616E6E6F742061636365737320454566
:101AE10050524F4D21212121000D0A4E6F20696E68
:101AF100697469616C697A65000D0A285345545F00
:101B010050574D3D253032782076616C3D2530327D
:101B11007829000D0A53797374656D20686173200B
:101B21006265656E20776F726B696E6720666F7292
:101B310020256420646179732C20256420686F75E9
:101B410072732C202564206D696E75746573206134
:101B51006E64202564207365636F6E6473000D0AE3
:101B610053797374656D20686173206265656E20B9
:101B7100776F726B696E6720666F722025642068CB
:101B81006F7572732C202564206D696E7574657391
:101B910020616E64202564207365636F6E64730039
:101BA1000D0A53797374656D2068617320626565F0
:101BB1006E20776F726B696E6720666F7220256485
:101BC100206D696E7574657320616E6420256420D3
:101BD1007365636F6E6473000D0A53797374656D79
:101BE10020686173206265656E20776F726B696E24
:101BF1006720666F72202564207365636F6E64735E
:101C0100000D0A28426174746572794254483D2579
:101C1100642825642E2564562929002854454D50F1
:101C21005F4E4F524D414C29002854454D505F485D
:101C310049474829002854454D505F4C4F572900CA
:101C41000D0A28426174746572794341503D2564DF
:101C51002825642E25645629290028484947485FCC
:101C61004348415247452900284C4F575F4348415B
:101C710052474529002853544F505F43484152472A
:101C8100452900284E4F5F424154542900284241C2
:101C910054545F5354415455535F41435F4D4F4436
:101CA100452900285F424154545F535441545553D0
:101CB1005F43415041434954595F4C4556454C316E
:101CC1002900285F424154545F5354415455535F96
:101CD10043415041434954595F4C4556454C322983
:101CE10000285F424154545F5354415455535F435C
:101CF100415041434954595F4C4556454C332900A5
:101D0100285F424154545F5354415455535F4341FA
:101D11005041434954595F4C4556454C342900289C
:101D21005F424154545F5354415455535F4E4F5F8A
:101D31004241545429000D0A28504F5745525F53D0
:0A1D410054415455533D2564290018
:1026D30041024200410243004102370041023900F6
:1026E30041023A004102350041022E0041024400FA
:1026F30002400000014600C101C100024700000181
:102703004400014500027400000469000000000455
:102713006D00000000C10441022F0101720001425B
:1027230000014300C102C1034102380041023000ED
:1027330041023B0044023E0000000042023C000014
:10293500122D8F9001701208147F047E0012382A20
:102945007E00C007C0067F0512382A7E00C007C07A
:10295500067F0612382A90017EE4F0A3EFF090017D
:102965007CD0E0F0A3D0E0F090017AD0E0F0A3D0E5
:10297500E0F07BFF7A1A79A11235BD122D8FE47B29
:1029850010FAF9F8C31207CF605F7BFF7A1A79B89E
:10299500E490017AF0A3F0A3F0A3F0A3F0A37410E0
:1029A500F01235BD1236397F047E0012382A7E00BA
:1029B500C007C0067F0512382A7E00C007C0067F03
:1029C5000612382A90017EE4F0A3EFF090017CD046
:1029D500E0F0A3D0E0F090017AD0E0F0A3D0E0F0F1
:1029E5007BFF7A1A79B81235BD122D8FE47B10FA68
:1029F500F9F8C31207CF701E7F10FEFDFC90017021
:102A0500E0F8A3E0F9A3E0FAA3E0FBC31207CF6067
:102A15001E12378380197BFF7A1A79CF1235BD7B59
:102A2500FF7A1A79EA1235BD90012874FFF0227FEA
:102A3500641239507811E6540F4410F654F04402EC
:012A4500F69A
:012A4600226D
:1033CB00758DF4759850758922758855758A407579
:1033DB008C4075878075B80275A892D299D2ACE4EF
:1033EB00F5C8C2CAD2AD75AA5075BAF443A6184334
:1033FB00AD10C203F5E9F5F9F5D943D8404393A0D5
:0E340B0043910475B10CF5B275B30CF5B42203
:103980003085107F327E001239AC3085037F0122F2
:063990007F00227F0022EF
:1032AF00900175EFF0A3EDF07BFF7A1A79FA900198
:1032BF007AE4F0A3EFF0EDFFA3E4F0A3EFF0123503
:1032CF00BD900175E0603D24EB602324166031242E
:1032DF00EB703475EC80900176E0FFC374FF9FF5BF
:1032EF00FC75DC42EF6428701EF5DCC2942275ED8C
:1032FF0080900176E0FFC374FF9FF5FD75DD4222DC
:08330F0043D8402253D84022AC
:03000B00021D4B88
:0B1D4B00C0E0C083C082C0D075D0088B
:101D560005730545C3E545940A7480948040139045
:101D660001F2E004F070069001F1E004F075450020
:101D7600D20CD3E5739460748094805003021FC024
:101D8600054AE54A700205497573000544E5446451
:101D9600647010F544E5469002386005E004F08072
:101DA60002E4F0E575F47003E574F460080575E582
:101DB6007570020574AF70AE6FAD6EAC6DEC4D4EC6
:101DC6004F6014EF24FFF570EE34FFF56FED34FF2E
:101DD600F56EEC34FFF56D900231E07002A3E06021
:101DE6000E900232E024FFF0900231E034FFF0E57D
:101DF600B0540C13135403FF900241E06F700302BA
:101E06001F6490023FE090023EF0900240E0900294
:101E16003FF0900241E0900240F0A3EFF0D205902F
:101E260002367430F090023EE0FF7E007020A3E0A0
:101E36006401701AA3E064037014A3E06402700ED8
:101E460090023DE004F0700690023CE004F0EF647E
:101E5600014E702090023FE064037018A3E0640214
:101E66007012A3E0700E90023DE004F0700690023E
:101E76003CE004F090023EE06403701EA3E06402BE
:101E86007018A3E07014A3E06401700E90023DE0A8
:101E960004F0700690023CE004F090023EE0FF7E03
:101EA600006402701EA3E0701AA3E064017014A31C
:101EB600E06403700E90023DE004F0700690023C70
:101EC600E004F0EF4E702290023FE06402701AA325
:101ED600E064037014A3E06401700E90023DE024F8
:101EE600FFF090023CE034FFF090023EE0640270A6
:101EF6001EA3E064037018A3E064017012A3E070EF
:101F06000E90023DE024FFF090023CE034FFF0909A
:101F1600023EE0FF7E006403701EA3E064017018B9
:101F2600A3E07014A3E06402700E90023DE024FF6B
:101F3600F090023CE034FFF0EF64014E7020900216
:101F46003FE0701AA3E064027014A3E06403700E0D
:101F560090023DE024FFF090023CE034FFF0E5E81B
:101F6600F4FF131313541F30E027E541B42018E59E
:101F760040B40313754601D200D201754000754185
:101F8600329002447401F00541E541702D05408010
:101F960029C3E5419432E54094004013900244E0A1
:101FA600700D754601C200D201F540F541800B90D7
:0A1FB6000244E4F0F540F541F54661
:091FC000D0D0D082D083D0E032F1
:101FC900900239E0FF60327BFF7A1B791490017827
:101FD900E4F0A3EFF090023AE0FF90017AE4F0A375
:101FE900EFF0900235E0FF90017CE4F0A3EFF09070
:101FF900022EE0FF90017E805790023AE0FF6025B3
:102009007BFF7A1B795F900178E4F0A3EFF09002EF
:1020190035E0FF90017AE4F0A3EFF090022EE0FFA3
:1020290090017C802B900235E0FF7BFF60167A1BC4
:1020390079A1900178E4F0A3EFF090022EE0FF90EF
:10204900017A800C7A1B79D990022EE0FF900178F1
:10205900E4F0A3EFF07F031234F8900214E0FEA33A
:10206900E0FF900178EEF0A3EFF07805C333CE33AB
:10207900CED8F9FBAA067C277D10FF1205559001E1
:102089007AEEF0A3EFF07C277D10AF03AE021205C4
:1020990055A3ECF0A3EDF07BFF7A1C79027F0212C5
:1020A90034F890010EE054076407700A7BFF7A1C2C
:1020B900791C7F02801A90010EE0540764067BFFA9
:1020C90070087A1C792A7F0180067A1C79367F0488
:1020D9001234F8900110E0FEA3E0FF900178EEF0D1
:1020E900A3EFF07805C333CE33CED8F9FBAA067C2B
:1020F900277D10FF12055590017AEEF0A3EFF07CD1
:10210900277D10AF03AE02120555A3ECF0A3EDF045
:102119007BFF7A1C79417F051234F890010FE05456
:102129000F640D700A7BFF7A1C795B7F02803A90FD
:10213900010FE0540F640E700A7BFF7A1C79697FE6
:1021490003802690010FE0540F640F700A7BFF7A19
:102159001C79767F01801290010FE0540F64097099
:102169000B7BFF7A1C79847F011234F890010DE012
:10217900541F640470087BFF7A1C798E8044900197
:102189000DE0541F640370087BFF7A1C79A4803228
:1021990090010DE0541F640270087BFF7A1C79C31B
:1021A900802090010DE0541F640170087BFF7A1CA8
:1021B90079E2800E90010DE0541F700A7BFF7A1DB1
:1021C90079017F02801290010DE0541F6409700BA0
:1021D9007BFF7A1D79207F011234F87BFF7A1D7904
:1021E900377811E6C4540FFF900178E4F0A3EFF0BB
:0521F9007F060234F82E
:10399600E4FFEFC3941D74809480500974222FF8BD
:0539A600E4F60F80EDC6
:0139AB0022F9
:10314C00EF24E9B40A00507090316275F003A4C505
:10315C008325F0C5837302318C02318002318A02DF
:10316C00318502318E0231C40231960231A0023116
:10317C00AD0231B9D2E9D2E822D2E8C2E922800507
:10318C00801530E817C2E8D2E92230E905C2E9D24D
:10319C00E822800830E805C2E8C2E922D2E8D2E988
:1031AC002230E904C2E98002D2E9C2E82230E80404
:0931BC00C2E88002D2E8C2E92257
:03001300020026C2
:03002600C2AA3239
:030023000237544D
:10375400C0E0C0D075D008309819744B2571F8A614
:10376400990571C3E571941E74809480400375714A
:0F37740000C298309904C299C202D0D0D0E0327E
:03006300023675ED
:10367500C0E0C0D075D008E5AA54016401701A53A2
:10368500AAFE74222542F8A69A0542C3E542941E75
:10369500748094804003754200E5AA540264027068
:0B36A5000553AAFDC203D0D0D0E032D4
:0B3A6100E542B543037F00227F0122F5
:1039170053ADEF74222543F8E6FF0543E543C3940F
:0D3927001E748094804003E4F54343AD100E
:013934002270
:080003002003FD8F9AD20322B5
:03002B00023A4650
:0F3A4600C0E0C2CF0548E54870020547D0E03226
:10395000E5442FFFE433FE7C007D64120555E54409
:07396000B505FBE4B504F717
:01396700223D
:103A11000D0A436C656172426173696345452E2EDF
:023A21002E0075
:102D8F0090017412082000000000E4FFFE12382AA0
:102D9F00EF6430600280287F017E0012382AEF64D2
:102DAF00376002801A7F027E0012382AEF6430608B
:102DBF0002800C7F037E0012382AEF64496006E41C
:102DCF00FFFEFDFC227F057E0012382AEF7F00FEFA
:102DDF00C007C0067F047E0012382A7E00EF7810ED
:102DEF00C333CE33CED8F9FDD0E04EFED0E04DFF49
:102DFF00C007C0067F067E0012382AEFFDD0E0FE26
:102E0F00D0E04DFFEE3395E0FDFC900174120814F5
:0E2E1F00900174E0FCA3E0FDA3E0FEA3E0FF41
:012E2D002282
:103639007D30E4FFFE1234B17D377F017E00123404
:10364900B17D307F027E001234B17D497F037E0057
:103659001234B1E4FD7F04FE1234B1E4FD7F05FEAE
:0C3669001234B17D107F067E000234B1E7
:103783007BFF7A3A79111235BD7D017F107E0012DD
:1037930034B17D0E7F117E001234B1E4FD7F07FE4C
:0B37A3001234B1E4FD7F12FE0234B1CD
:04274300410105004B
:0916BE00123A61EF7003021AA058
:1016C700123917900170EFF07E00647E700DC20B27
:1016D70090010504F0E4900003F022EF647D4E7062
:1016E70003D20B22300B09C20B900170E04470F05B
:1016F700900105E0FB64046010900003E0FE900198
:1017070070E0FDEE6D900003F0EB24FE602E146098
:101717005B1470030217B724036003021AA0900139
:1017270070E0900002F01424F8500A24F924FD50C8
:101737000424E370349001057402F022900170E0F4
:10174700900001F0A3E01424F8500A24F924FD5076
:101757000424E37014900001E070028049E49000D3
:1017670000F09001057403F022021A9B900002E03A
:101777001424F8500A24F924FD500424E3702E9011
:101787000170E0FF900000E02405F582E43400F5E5
:1017970083EFF0900000E004F0A3E0FF900000E08A
:1017A7006F6003021AA09001057404F022021A9BCD
:1017B700900170E0FF900003E06F6003021A9B90B6
:1017C7000002E012087117F501182C0218460318D9
:1017D7004F0418580519690619A6071A760819D16A
:1017E7001019DA111A31121A6B3000001A9B900186
:1017F70015E04401F090010FE054F0F0900115E07E
:10180700FF131313541F13500EEF54F7F07F1212E8
:1018170021FE7F0712353E900115E0C313135003D5
:10182700021A9B80117F1612353E900115E0C313F3
:10183700135003021A9B7D167F107E27021A717DB3
:10184700057FE87E03021A717D067FE87E03021A90
:1018570071900005E0FDC4540F75F00AA4FFED5424
:101867000F7C002FFDEC35F0FC12030990013612B6
:101877000814900006E0FDC4540F75F00AA4FFEDAC
:10188700540F7C002FFDEC35F0FC12030990012466
:10189700120814900007E0FDC4540F75F00AA4FF66
:1018A700ED540F7C002FFDEC35F0FC12030990017D
:1018B7003A120814900008E0FDC4540F75F00AA40A
:1018C700FFED540F7C002FFDEC35F0FC120309905F
:1018D7000129120814900009E0FDC4540F75F00A9D
:1018E700A4FFED540F7C002FFDEC35F0FC1203092B
:1018F70090013E12081490000AE0FDC4540F75F0E1
:101907000AA4FFED540F7C002FFDEC35F0FC120309
:101917000990012D12081490000BE0FDC4540F75B7
:10192700F00AA4FFED540F7C002FFDEC35F0FC12FC
:10193700030990014212081490000CE0FDC4540FF3
:1019470075F00AA4FFED540F7C002FFDEC35F0FC79
:101957001203099001311208147D0B7FE87E030200
:101967001A71900005E0601390016FE0600414F0B5
:101977008005E490016FF07D01801A90016FE0C34C
:101987009428748094805005E004F0800690016FDD
:101997007428F07D027FF47E01122B2F021A9B9090
:1019A7000005E0FD7C00700A900115E054FDF0028F
:1019B7001A9BED64014C6003021A9B7F1612353E99
:1019C700900115E04402F0021A9B7D037FE87E0335
:1019D700021A71900005E07032900115E054FEF094
:1019E7007F1612353E7F1B12353E7F1C12353E7F18
:1019F7001D12353E7F1E12353E7F1F12353E7F205A
:101A070012353E7D1E7F647E00805F900005E06496
:101A1700016003021A9B900115E04408F07D077FDF
:101A2700E87E03122A507F168035900005E0FD7C82
:101A37000064017009900115E054EFF0801F9001D8
:101A470006E064017017ED4C7013900115E054EF38
:101A5700F0E4900106F0FD7F10FE1234B17F091209
:101A6700353E80307D0A7FE87E03122A508025901C
:101A77000005E0640170107D017F12FE1234B19001
:101A870001357401F0800DE4FD7F12FE1234B1E4DC
:091A9700900135F0E4900105F026
:011AA0002223
:0439D6009291D29068
:0F39DA00E4FFEFC394017480948050030F80F3D7
:0139E90022BB
:0B34B100900174EEF0A3EFF0A3EDF02B
:1034BC00900174E0FEA3E07807CEC313CE13D8F9C5
:1034CC0044A054FE900177F0123A23900177E0FF6C
:1034DC001230D1900174A3E0FF1230D1900176E04C
:0C34EC00FF1230D11200167F020239508E
:04382A00AD07AC0634
:10382E00ED7807CEC313CE13D8F944A054FEFF1281
:10383E0036B0900179EFF07F02123950900179E0A5
:01384E00FF7A
:01384F002256
:0836B00090017AEFF0A3EDF0A8
:1036B800123A2390017AE0FF1230D190017BE0FFAB
:1036C8001230D1123A2390017AE04401FF1230D12E
:1036D80012002E90017CEFF012001690017CE0FFA2
:0136E80022BF
:103A2300D2911239DAD2901239DAC2911239DAC24A
:023A33009022DF
:0D001600C2911239DAD2901239DAD2912259
:1030D100AE07C290EE30E703D38001C31239D6C2E6
:1030E10090EE30E603D38001C31239D6C290EE30A0
:1030F100E503D38001C31239D6C290EE30E403D385
:103101008001C31239D6C290EE30E303D38001C3EC
:103111001239D6C290EE30E203D38001C31239D600
:10312100C290EE30E103D38001C31239D6C290EED2
:1031310030E003D38001C31239D6C290C290C2904D
:0B314100D291D290D290D290C2902286
:10002E00E4FED2911239DAC290E4FDFCD290EE25B4
:10003E00E0FE3091034401FEC2900DBD00010CEDB7
:10004E0064084C70E71239DAD290D290D290C290F6
:02005E00AF06EB
:01006000227D
:10305300AE07C290EE30E703D38001C31239D6C264
:1030630090EE30E603D38001C31239D6C290EE301E
:10307300E503D38001C31239D6C290EE30E403D303
:103083008001C31239D6C290EE30E303D38001C36B
:103093001239D6C290EE30E203D38001C31239D67F
:1030A300C290EE30E103D38001C31239D6C290EE51
:1030B30030E003D38001C31239D6C290C290C290CC
:0E30C300D2911239DAD290D290D290C29022DD
:0438B800AB07AA06AA
:1038BC007E5E123A237F5E123053AF03123053AF49
:0C38CC00051230531200167F0202395022
:1037AE007F01123935EF6021900244E06401701000
:1037BE00900106E0640170087D047FF47E018006AE
:0A37CE007D137F647E00122A502252
:10393500A2019209C2012009037F0022EF6003AFB3
:0A3945004622200003AF46227F0057
:01394F002255
:1031C5000D0A5374617274204D61696E204C6F6FE6
:1031D500702E2E2E000D0A537461727420426F6F8B
:1031E500742E2E2E000D0A2843616D657261566F8F
:1031F5006C743D256429000D0A2850535720676FCC
:10320500696E6720746F20706F776572206F6666D0
:103215002E2E2E29000D0A285374617274207570A4
:103225002020506F776572204F6E204D6F64652E9C
:083235002E2E2900000000000C
:1027470045010D0000000000410115004201120083
:10275700004401363F80000044013A3F80000044B6
:10276700013E3F8000004401423F800000440124B5
:10277700000000004401290000000044012D000072
:102787000000440131000000004601070000002856
:1027970000154601160000002800156029014605AE
:1027A70006080A0B0D0F10121416181A1C1E2022E9
:1027B70025272A2C2F3235383B3E4245484B50556A
:0827C700585D61666B70757AC4
:1037210075E5028DE3900179E0F5E41204B9F5E263
:1037310075E64675E6B9740129F9E43AFA9001791A
:10374100E004F0E070030D8DE390017AE014F0E005
:0337510070D32210
:04000E0075E78122EF
:10389700E4900174F012000E7B017A0179749001B3
:1038A7007974FFF0A37401F07DEF12372175E7609B
:0138B70022EE
:102CE200FF6DFD9001937401F0A37401F0A3748E43
:0A2CF200F0EFA3F07B017A01797E78
:102CFC00900190EBF0A3EAF0A3E9F0900196E0FFCD
:102D0C00647E6005EF647D703F900193E0FBA3E06F
:102D1C00FAA3E0F91204B9FF900190E0FBA3E0FAEA
:102D2C00A3E0F98F82758300747D120521900193C5
:102D3C00E0FBA3E0FAA3E0F974011204FF90019602
:102D4C00E0540F4450FF8010900196E0FF900193E7
:102D5C00E0FBA3E0FAA3E0F91204B9FE900190E0C5
:102D6C00FBA3E0FAA3E0F98E82758300EF12052134
:102D7C00900193E0FBA3E0FAA3E0F974011204FFC5
:032D8C007F0022A3
:0B2E2E0090017AEBF0A3EAF0A3E9F0BA
:102E390090017E747EF090018E7401F0EF122CE403
:102E490090017DE0122CE2E490018FF090017DE089
:102E5900FF90018FE0FEC39F501E90017AE0FBA313
:102E6900E0FAA3E0F98E827583001204D2122CE2F3
:102E790090018FE004F080D49001937401F0A37461
:102E890001F0A3748EF0ED122CF4E490018FF09010
:102E9900018EE0FFA3E0FEC39F5017747E2EF582DA
:102EA900E43401F583E0FF12000390018FE004F0A0
:042EB90080DD7F0039
:012EBD0022F2
:0523C600900174EFF02E
:1023CB0078757C017D017BFF7A3279397E007F0441
:1023DB00120493900174E0247F604E147003022565
:1023EB001014700302253B14700302254B24046068
:1023FB000302255C7F047E0012382A900175EFF0F2
:10240B007F057E0012382A900176EFF07F067E0062
:10241B0012382A900177EFF07B017A0179759001E0
:10242B007D7403F07F8002255990010DE0FB541F52
:10243B00900175F0900114E0FF75F00A84C454F01C
:10244B00FEEF75F00A84E5F04E900177F090011DD8
:10245B00E0FEA3E0FF7C007D0A120555EFC454F0AB
:10246B00FA90011DE0FEA3E0FF7C007D0A120555EA
:10247B00EA4D900178F0900123E0900179F0EBC4E4
:10248B0013135403135007900176E04401F09001AD
:10249B000EE05407FD7C0064067007900176E04463
:1024AB0002F0ED64084C7007900176E04404F09064
:1024BB00010DE0C4135407135007900176E0440854
:1024CB00F090010EE0C4540F135007900176E044D6
:1024DB0010F090010EE0FDC4135407135007900148
:1024EB0076E04420F0EDC41313540313500790010E
:1024FB0076E04440F07B017A01797590017D74059B
:10250B00F07F81804990010DE0FFC4131313540138
:10251B0013500D9001757401F0EF547F90010DF085
:10252B007B017A01797590017D7401F07F82801EA9
:10253B007B017A01797590017D7401F07F83800EA8
:10254B007B017A01797590017D7401F07F84122EE5
:01255B002E51
:01255C00225C
:1036E9001238757D107F017E00122A507D147FE803
:1036F9007E03122A507D127F017E00122A507D1B03
:103709007F017E00122A507D0F7F017E00122A5010
:0837190090010DE04440F02294
:10255D00900176EEF0A3EFF0A3EBF0A3EAF0A3E980
:01256D00F07D
:10256E00900004120637FDD3EF9DE5F06480F8EE7F
:10257E00648098400302261190017EE0FBA3E0FAEE
:10258E00A3E0F9900004120637FFAEF012060CFD20
:10259E00C3EF9DFFEE95F0900181F0A3EFF0900157
:1025AE0078E0FBA3E0FAA3E0F9900004120637FDF1
:1025BE00ACF012060CFBAAF0C3ED9BFFEC9AFE905A
:1025CE000183F0A3EFF04E7002FF22900176E0FE41
:1025DE00A3E0FFC3EF9BFFEE9AFE900181E0FCA308
:1025EE00E0FD120543A3E0FCA3E0FD1205AAC00620
:1025FE00C00790017EE0FBA3E0FAA3E0F912060CFF
:10260E000226B590017EE0FBA3E0FAA3E0F990006C
:10261E0004120637FFAEF0900002120637C39FFF7A
:10262E00E5F09E900181F0A3EFF0900178E0FBA31E
:10263E00E0FAA3E0F9900004120637FFAEF0900026
:10264E0002120637C39FFFE5F09EFE900183F0A3B2
:10265E00EFF04E7002FF22900178E0FBA3E0FAA3A8
:10266E00E0F9900004120637FFAEF0AB07AA069011
:10267E000176E0FEA3E0FFC3EF9BFFEE9AFE900112
:10268E0081E0FCA3E0FD120543A3E0FCA3E0FD12F4
:10269E0005AAC006C00790017EE0FBA3E0FAA3E006
:1026AE00F9900004120637FFAEF0D0E02FFFD0E015
:1026BE003EF990017BE0FBA3E0FAA3E0C98FF01294
:0426CE00066F7F0113
:0126D20022E5
:10357F007E0090017B7401F0A37401F0A37474F0CA
:10358F00A37401F0A37401F0A37416F07B017A0108
:10359F00790712255D900174E0FEA3E02446F582C1
:0E35AF0074013EF583E0FD7F027E000238B815
:103850007F107E0012382A900106EFF07F117E0063
:1038600012382A90016FEFF07F127E0012382A90F2
:053870000135EFF0221C
:1038D800EF4488F5C5E5C520E3FBAFC6EF75F004F6
:1038E800A4FFE5E85403FDEF4DFFE5F05403FE2285
:073A6C00E4FE7F060238D8DA
:073A7300E4FE7F070238D8D2
:1012B1002005030216BD7F0A7ED77D237C3C900169
:1012C10024E0F8A3E0F9A3E0FAA3E0FB12015E90A9
:1012D1000136E0F8A3E0F9A3E0FAA3E0FB12006D08
:1012E1009001741208147F0A7ED77D237C3C900103
:1012F10029E0F8A3E0F9A3E0FAA3E0FB12015E9074
:10130100013AE0F8A3E0F9A3E0FAA3E0FB12006DD3
:101311009001781208147F0A7ED77D237C3C9001CE
:101321002DE0F8A3E0F9A3E0FAA3E0FB12015E903F
:10133100013EE0F8A3E0F9A3E0FAA3E0FB12006D9F
:1013410090017C1208147F0A7ED77D237C3C90019A
:1013510031E0F8A3E0F9A3E0FAA3E0FB12015E900B
:101361000142E0F8A3E0F9A3E0FAA3E0FB12006D6B
:101371009001801208147F007EB07DE57C459001CC
:1013810074E0F8A3E0F9A3E0FAA3E0FB12015EE444
:10139100FBFA797A78441202679001841208147F6B
:1013A100E17E987DD27C45900178E0F8A3E0F9A335
:1013B100E0FAA3E0FB12015EE4FBFA797A784412C9
:1013C1000267900184E0F8A3E0F9A3E0FAA3E0FB4F
:1013D10012006D9001881208147F487EC17D2C7C1B
:1013E1004690017CE0F8A3E0F9A3E0FAA3E0FB1248
:1013F100015EE4FBFA797A7844120267900188E091
:10140100F8A3E0F9A3E0FAA3E0FB12006D90018CD0
:1014110012081490023CE0FEA3E0FFC3EE64809446
:10142100804008E4900123F0FC80179001237401AF
:10143100F090023CE0FEA3E0FFC3E49FFFE49EFEC8
:101441007C007D021205AA900170EEF0A3EFF090EE
:101451000170E0FEA3E0D394F0EE94004003021487
:10146100F7C3EE940050030214F7E4FFFE7DF57C10
:1014710041900174E0F8A3E0F9A3E0FAA3E0FB12C4
:10148100015EC004C005C006C007900170E0FCA366
:10149100E0FDE4120309D003D002D001D000120113
:1014A1005EE4FBFA797A784412026790011F120810
:1014B10014E4FFFE7DF57C41900174E0F8A3E0F9AE
:1014C100A3E0FAA3E0FB12015EC004C005C006C0A0
:1014D10007900170E0FCA3E0FDE4120309D003D002
:1014E10002D001D00012015E120342900172EEF0AF
:1014F100A3EFF002165D900170E0FEA3E0FFD3942C
:10150100F0EE9400406BD3EF94C2EE940150627FF1
:101511002F7E5D7D007C42900178E0F8A3E0F9A385
:10152100E0FAA3E0FB12015EC004C005C006C007DB
:10153100900171E02410FD900170E034FFFCE41291
:101541000309D003D002D001D00012015EE4FBFAFE
:10155100797A7844120267900184E0F8A3E0F9A354
:10156100E0FAA3E0FB12006D90011F1208140216AD
:101571005D900170E0FEA3E0FFD394C2EE940140C0
:101581006AD3EF940CEE940350617F197E047D06BB
:101591007C4290017CE0F8A3E0F9A3E0FAA3E0FB30
:1015A10012015EC004C005C006C007900171E024AD
:1015B1003EFD900170E034FEFCE4120309D003D03B
:1015C10002D001D00012015EE4FBFA797A7844126C
:1015D1000267900188E0F8A3E0F9A3E0FAA3E0FB39
:1015E10012006D90011F1208148071D3900171E0F7
:1015F100940C900170E0940350030216BB7F817E2E
:10160100957D0B7C42900180E0F8A3E0F9A3E0FA1C
:10161100A3E0FB12015EC004C005C006C007900133
:1016210071E024F4FD900170E034FCFCE412030944
:10163100D003D002D001D00012015EE4FBFA797A26
:10164100784412026790018CE0F8A3E0F9A3E0FA74
:10165100A3E0FB12006D90011F1208147FCD7ECC18
:101661007D4C7C3D90011FE0F8A3E0F9A3E0FAA3D3
:10167100E0FB12006D120342900114EFF07FCD7E6A
:10168100CC7D4C7C3D90011FE0F8A3E0F9A3E0FA8A
:10169100A3E0FB12006DE4FBFA79C8784212015E07
:1016A10012034290011DEEF0A3EFF07C007D641265
:0C16B100055590011DECF0A3EDF0C20502
:0116BD00220A
:1038F8007BFF7A3179C51235BD1216BE122F4A12D6
:0F3908002FCF1237AE1212B1900106E070EB22F2
:10323D001233CB1238027BFF7A3179DA1235BD1297
:10324D002935D2B4D2B51239961238501236E990CA
:10325D00016FE0FF12357F7BFF7A3179EA90016FC4
:10326D00E0FF90017AE4F0A3EFF01235BD90013547
:10327D00E06401700590010604F0900106E0640120
:10328D0078117008E654F04402F68006E654F044D6
:10329D0001F6900106E0640170031238F812337BD9
:0232AD0080F0AF
:10337B007BFF7A3179FC1235BD7811E654F04401AC
:10338B00F6900115E054FEF07F1612353E900115B4
:10339B00E054EFF07F0912353E122FCF122F4A1255
:1033AB0037AE900106E0640170EFE4F542F5437827
:1033BB0011E654F04402F67BFF7A32791A0235BDDE
:0D27CF0001108A4101BB00C187C108C1860D
:103419001B5B306D001B5B303B33316D001B5B3038
:103429003B33326D001B5B303B33336D001B5B302C
:103439003B33346D001B5B303B33356D001B5B3018
:103449003B33366D001B5B303B33376D0030313217
:0E345900333435363738394142434445460056
:1027DC00580216FF3419FF341EFF3426FF342EFF27
:0B27EC003436FF343EFF3446FF344E0D
:0808F200E0FBA3E0FAA3E0F92A
:0B08FA009001A5EBF0A3EAF0A3E9F0E9
:100905009001B3120820000000019001A5E0FBA3AF
:10091500E475F0011205F6A9F0FA1204B99001ABDD
:10092500F07003020E4724DB701B9001A5E0FBA3CA
:10093500E0FAA3E0F91204B9B425139001A6E47511
:10094500F0011205E02002FD9001AB020E1DC20967
:10095500C20AE49001B2F09001A5E0FBA3E475F0B2
:10096500011205F6A9F0FA1204B99001ABF0E0FD09
:10097500B4301BD2099001A5E0FBA3E475F0011288
:1009850005F6A9F0FA1204B99001ABF0801FEDFF4E
:100995003395E0FEC3EF9430EE64809480402CD311
:1009A500EF9439EE6480948050219001ABE024D01F
:1009B5009001B2F09001A5E0FBA3E475F0011205EA
:1009C500F6A9F0FA1204B99001ABF09001B17402E6
:1009D500F09001ABE024BE602B24E0602724F66094
:1009E500042420703C9001A5E0FBA3E475F00112FE
:1009F50005F6A9F0FA1204B99001ABF09001B174B3
:100A050004F0801D9001A5E0FBA3E475F00112053B
:100A1500F6A9F0FA1204B99001ABF09001B1740196
:100A2500F09001ABE0FF24A87003020CD624F5700A
:100A350003020DF224F07003020DA524FE600E24BE
:100A4500FD7003020CD624146003020E259001B13B
:100A5500E024FE604224FE607B24036003020AF664
:100A6500EF9001A8B46419E0FBA3E475F001120549
:100A7500F6A9F0FA1204B9FF3395E0FEFDFC806B90
:100A8500E0FBA3E475F0011205F6A9F0FA1204B92A
:100A9500FFE4FCFDFE80549001ABE09001A8B46436
:100AA5001BE0FBA3E475F0021205F6A9F0FA1206A5
:100AB5000CFFAEF0EE3395E0FDFC8016E0FBA3E401
:100AC50075F0021205F6A9F0FA12060CFFAEF0E475
:100AD500FCFD80179001ABE09001A8E0FBA3E47555
:100AE500F0041205F6A9F0FA1207F49001AD120808
:100AF500149001ADE0FCA3E0FDA3E0FEA3E0FFEC54
:100B05003350252002FD75992DD2029001ADE0FCF0
:100B1500A3E0FDA3E0FEA3E0FF74FFFBFAF9F812E2
:100B2500068E9001AD1208149001B2E06003020B2D
:100B3500BC9001ADE0FCA3E0FDA3E0FEA3E0FFEC6B
:100B45004D4E4F700B2002FD759930D20202090FF0
:100B5500E49001B2F0A3120820000000019001B258
:100B6500E0C3940A74809480504D9001ADE0FCA3DD
:100B7500E0FDA3E0FEA3E0FF9001B3E0F8A3E0F9F8
:100B8500A3E0FAA3E0FB120719E4FBFAF9F8C31294
:100B950007CF60239001B3E0FCA3E0FDA3E0FEA333
:100BA500E0FFE47B0AF812068E9001B31208149058
:100BB50001B2E004F080A6E49001ACF09001B3121C
:100BC5000820000000019001B2E024FFFFE434FF9B
:100BD500FE9001ACE0FD3395E0FCC3ED9FEE648033
:100BE500F8EC64809850259001B3E0FCA3E0FDA3E8
:100BF500E0FEA3E0FFE47B0AFAF9F812068E900105
:100C0500B31208149001ACE004F080BA9001ADE095
:100C1500FCA3E0FDA3E0FEA3E0FF9001B3E0F8A391
:100C2500E0F9A3E0FAA3E0FB120719EF2430FF90E7
:100C350001ABF0BF3025200922E47F01FEFDFC90C9
:100C450001B3E0F8A3E0F9A3E0FAA3E0FBC31207C0
:100C5500CF60089001AB7420F08002D2092002FD1C
:100C65009001ABE0F599D2029001ADE0FCA3E0FD67
:100C7500A3E0FEA3E0FF9001B3E0F8A3E0F9A3E051
:100C8500FAA3E0FB120719AC00AD01AE02AF039069
:100C950001AD1208149001B3E0FCA3E0FDA3E0FE52
:100CA500A3E0FFE47B0AFAF9F81207199001B312E1
:100CB5000814E4FFFEFDFC9001B3E0F8A3E0F9A3FE
:100CC500E0FAA3E0FBC31207CF6003020C1102098F
:100CD5000F9001B1E024FE602224FE6039240370E8
:100CE5004E9001A8E0FBA3E475F0011205F6A9F00A
:100CF500FA1204B9FFE4FCFDFE802E9001A8E0FB8A
:100D0500A3E475F0021205F6A9F0FA12060CFFAE7F
:100D1500F0E4FCFD80139001A8E0FBA3E475F0046A
:100D25001205F6A9F0FA1207F49001AD1208149015
:100D350001B2E070089001B1E025E0A3F0E4900174
:100D4500ACF09001B2E0FF9001ACE0FD3395E0FC22
:100D5500C3ED9F7480F86C98400302090F2002FDD3
:100D65009001ACE0FF9001B2E0C39F1425E025E0BF
:100D7500F99001ADE0FCA3E0FDA3E0FEA3E0FFA830
:100D8500011207E07E00EF540F2456F582EE34344D
:100D9500F583E493F599D2029001ACE004F080A2CA
:100DA5009001A8E0FBA3E475F0031205F6A9F0FA9B
:100DB5001208519001B7EBF0A3EAF0A3E9F0900116
:100DC500B7E0FBA3E0FAA3E0F91204B97003020946
:100DD5000F2002FD9001B7E0FBA3E475F0011205B9
:100DE500F6A9F0FA1204B9F599D20280D19001A8BA
:100DF500E0FBA3E475F0021205F6A9F0FA12060C61
:100E0500FFAEF0EE3395E0FDFC9001AD1208142025
:100E150002FD9001ADA3A3A3E0F599D20202090F4B
:100E25009001A8E0FBA3E475F0021205F6A9F0FA1B
:100E350012060CFFAEF0E4FCFD9001AD12081402A1
:020E4500090F93
:010E47002288
:0B35BD00900177EBF0A3EAF0A3E9F027
:1035C8009001A27401F0A37401F0A3747AF0900141
:1035D800A2E0F9A3E0FAA3E09001A8C9F0A3EAF0F9
:1035E800A3E9F09001771208F29001A2E4F0A3F0A9
:0235F800A3F03E
:0135FA0022AE
:0B35FB00900170EBF0A3EAF0A3E9F0F0
:1036060090019B7401F0A37401F0A37473F0900110
:103616009BE0F9A3E0FAA3E09001A8C9F0A3EAF0C1
:10362600A3E9F09001701208F290019BE4F0A3F078
:02363600A3F0FF
:01363800226F
:0E34F800900174EFF0A3EBF0A3EAF0A3E9F06B
:103506009001A07401F0A37401F0A37478F0900107
:10351600A0E0F9A3E0FAA3E09001A8C9F0A3EAF0BD
:10352600A3E9F09001751208F29001A0E4F0A3F06F
:07353600A3F090017404F002
:01353D00226B
:103968000A0D537973506F776572496E697469618E
:083978006C2E2E4F4B212100A3
:0427F70002110000CB
:10380200D283C2A1D284D282C2A1C2B7C286C2EA84
:10381200C2A6C2A2D2E8D2E97FC87E001239AC7B2E
:08382200FF7A3979680235FBD9
:102FCF007811E6FF540F14602D24FA605024057019
:102FDF0063EFC4540F601024F960082406700DE4E9
:102FEF00FF80067F0380027F011237D87811E654E5
:102FFF000F4420F6803E7811E6C4540F600C24FE77
:10300F00600C24FB700D7F0480067F0280027F0618
:10301F001237D87811E6540F4410F680177811E65E
:10302F00C4540F24FE70057F051237D87811E6546B
:10303F000F4470F67811E6FF54F0C4540FFEEF54AE
:04304F00F04EF62227
:1021FE00900174EFF07F1B12353E7F1C12353E7F2F
:10220E001D12353E7F1E12353E7F1F12353E7F203A
:10221E0012353E900174E024F7700302235B24FC18
:10222E0070030223161470030222CF24FD700302E2
:10223E0023A51470030223AF240360030223C57D7C
:10224E00DA7F141232AF90010FE0440FF0900115B7
:10225E00E013400B900106E0640170030222EE7859
:10226E0011E6C4540F6407703090010DE0C41313CF
:10227E005403135002801E900106E070057D180273
:10228E00239890010DE0541FFF64036005EF64096D
:10229E0070030223A77D1C80687811E6C4540F6476
:1022AE0002701990010DE0541FFF64036005EF6486
:1022BE000970047D1F804A7D190223557D18022363
:1022CE00557DDA7F141232AF90010FE054F0440EB8
:1022DE00F0900115E013400D900106E064017005C9
:1022EE007D1B0223987811E6C4540F640770149076
:1022FE00010DE0C4131354031350047D2080027D9E
:10230E001B80447D170223BE7D287F141232AF90AE
:10231E00010FE054F0440DF0900115E013400C90C5
:10232E000106E0640170047D1B805F7811E6C454E1
:10233E000F6407701490010DE0C41313540313506F
:10234E00047D1E80027D1B80677D1A80447DDA7FAE
:10235E00141232AF90010FE054F04409F0900115C1
:10236E00E013400C900106E0640170047D1B801A9E
:10237E007811E6C4540F640270047D19800C781134
:10238E00E6C4540F640770077D1C7F64FE80257DB4
:10239E00187F647E00801DD2827D1E7F647E008049
:1023AE0013C282900115E01350047D1980027D1E28
:0823BE007F647E00122A502208
:10331700EF24FE602F240224FC500A602714603E2D
:103327001460218047C283D2A1C284C282D2B7D29D
:1033370086D2EAD2A6D2A2D2B67F407E001239AC9C
:10334700D2A08028C2A0D283D284C2A1D282C2A135
:10335700C2B7C2EAC2A6C2A2C2B6C286800EC2A1C4
:10336700D284C2B7C2EAC2A6C2A2C28690010FE047
:0433770054F0F022FC
:1037D800900170EFF024FE601824FE601C14601144
:1037E80014600E240624F85008600624F66002804F
:0A37F80008900170E0FF1233172261
:0B27FB00C10C4201F10000410213007C
:1039AC00EF4E6010C20C300CFDC20CEF1F70011EEC
:0539BC00144E70F22220
:1039EA00EF75F003A424F6F582E43401F583E0FED2
:0439FA00A3E0FF2225
:1039C100EF75F003A424F5F582E43401F583E0C337
:0539D10013547FFF22EA
:1039FE00EF75F003A424F5F582E43401F583E05469
:033A0E00FEF022A5
:103A3500EF75F003A424F5F582E43401F583E01372
:013A4500225E
:103467009001F1E0FFA3E090017ECFF0A3EFF09091
:10347700017EE0FEA3E0FFC39001F2E09FFF900111
:10348700F1E09EFE123A55D3EF947FEE648094806C
:10349700400F9001F1E0FFA3E090017ECFF0A3EF92
:0934A700F090017EE0FEA3E0FFBD
:0134B00022F9
:08280700900179EEF0A3EFF05F
:10280F00E4A3F0A3F0A3F012346790017CEEF0A3E1
:10281F00EFF0900179E0FEA3E0FFE4FCFD7B487A46
:10282F00EEF9F8C31207B9500A90017974EEF0A3CC
:10283F007448F0900179E0FEA3E0FF90017DE02F56
:10284F00FF90017CE03EFEE4FCFD7B487AEEF9F858
:10285F00C31207B9401F900179E0FEA3E0FF90017A
:10286F007CE0FCA3E0FD2FFFEC3EFED3ED9FEC9E42
:10287F00500302292CE49001F1F0A3F090017BF0BA
:10288F0090017BE0FFC3940A748094804003022977
:10289F0025EF75F003A424F5F582E43401F583E008
:1028AF0054016401706790017BE0FF75F003A4246D
:1028BF00F6F582E43401F583E0FCA3E0FD90017CA2
:1028CF00E0FAA3E0FBD3ED9BEC9A402CEF75F003FD
:1028DF00A424F6F582E43401F583C083C082C3A338
:1028EF00E09BFF0582D5820215831582E09AD08284
:1028FF00D083F0A3EFF0801590017BE075F003A477
:10290F0024F6F582E43401F583E4F0A3F090017B23
:10291F00E004F002288FE490017CF0A3F090017C9A
:05292F00E0FEA3E0FF43
:012934002280
:10387500E4FFEFC3940A748094805015EF75F0034C
:10388500A424F5F582E43401F583E054FEF00F80BD
:01389500E151
:01389600220F
:092A470012353E7D157F647E000E
:0B2A5000900175EEF0A3EFF0A3EDF095
:102A5B00E4A3F0F0900178E0FFC3940A74809480B3
:102A6B00502EEF75F003A424F5F582E43401F583C1
:102A7B00E0FF540164017010EFC313547FFF90010A
:102A8B0077E06F7003022B2E900178E004F080C486
:102A9B00E4900178F0900178E0FFC3940A7480947D
:102AAB00804003022B2EEF75F003A424F5F582E48E
:102ABB003401F583E0FF54017060900178E0FE75FE
:102ACB00F003A424F5F582E43401F583EF4401F01F
:102ADB00900177E0547F25E0FFEE75F003A424F519
:102AEB00F582E43401F583E054014FF0900175E079
:102AFB00FEA3E0FF122807900176E02FFF900175EF
:102B0B00E03EFE900178E075F003A424F6F582E434
:102B1B003401F583EEF0A3EFF022900178E004F09E
:032B2B00022AA0DB
:012B2E002284
:10353E00E4FEEEC3940A748094805034EE75F0036A
:10354E00A424F5F582E43401F583E0FD5401640111
:10355E00701BEDC313547FB50713EE75F003A4244F
:10356E00F5F582E43401F583E054FEF0220E80C2BC
:01357E00222A
:0B2B2F00900171EEF0A3EFF0A3EDF0B9
:102B3A00E4A3F0F0900174E0FFC3940A74809480D7
:102B4A00502DEF75F003A424F5F582E43401F583E2
:102B5A00E0FF54016401700FEFC313547FFF90012B
:102B6A0073E0B507028064900174E004F080C5E464
:102B7A00900174F0900174E0FFC3940A7480948009
:102B8A004003022C0CEF75F003A424F5F582E4341B
:102B9A0001F583E0FF54017060900174E0FE75F066
:102BAA0003A424F5F582E43401F583EF4401F0909F
:102BBA000173E0547F25E0FFEE75F003A424F5F5D8
:102BCA0082E43401F583E054014FF0900171E0FE94
:102BDA00A3E0FF122807900172E02FFF900171E035
:102BEA003EFE900174E075F003A424F6F582E43405
:102BFA0001F583EEF0A3EFF022900174E004F002F5
:022C0A002B7E1F
:012C0C0022A5
:102C0D00EF14B40C004003022CE1902C2575F00359
:102C1D00A4C58325F0C58373022C49022C49022CCF
:102C2D005D022C61022C72022C8B022CA1022CE174
:102C3D00022CC7022CDC022CE1022CDF90016FE08C
:102C4D00FF12357F90016FE0FD7F117E000234B1E0
:102C5D007F80800E90010DE0C41313540313507444
:102C6D007F830223C6900115E0FF1313543F1340D9
:102C7D00637811E654F04407F6EF4404F022E49033
:102C8D00023CF0A3F0900114F090011DF0A3F09020
:102C9D000123F022900115E0FF131313541F13505D
:102CAD0014EF54F7F054FEF07F111221FE7D077FD3
:102CBD00E87E0380177F120221FE900115E044107B
:102CCD00F07F821223C67D097F987E3A022A500238
:052CDD003897D2B72278
:102F4A00E4900170F0A3F0A3F0A3F0900170F09068
:102F5A000170E0C3940A74809480506812346790B8
:102F6A000172EEF0A3EFF0900170E0FF123A3550D3
:102F7A004B900170E0FF1239EAD3900173E09F9001
:102F8A000172E09E4036900170E0FF1239FE900116
:102F9A0070E0FF1239C1900171EFF0C3940E748092
:102FAA0094805007E0FF122C0D8011900171E0FF10
:102FBA00C39426748094805003120E48900170E0E6
:042FCA0004F0808B04
:012FCE0022E0
:100E4800EF24F1B4170040030212B0900E6175F060
:100E580003A4C58325F0C58373020F0B020F6C0230
:100E680012B002106602102B0211270211DF0211C4
:100E78000D020EB2020EA6020EAA020EAE020EB7A6
:100E8800020EC5020ED3020EE1020EEF020EFD02A3
:100E9800123A0212480212560212640212737F18A2
:100EA800800A7F1980067F1A80027F1702314C7FE3
:100EB8001B12314C7D1B7FFA7E000212AD7F1B1284
:100EC800314C7D1C7FE87E030212AD7F1D12314C30
:100ED8007D1D7FE87E030212AD7F1E12314C7D1E00
:100EE8007FE87E030212AD7F1F12314C7D1F7FE821
:100EF8007E030212AD7F2012314C7D207FE87E03F5
:100F08000212AD123980EF6401701F90010DE0C428
:100F1800131354031340387F15123A355003122A1D
:100F2800477F14123A355027801D90010DE0C413F5
:100F38001354031350197F15123A355003122A47D8
:100F48007F14123A35500812353E7D14122A4C90FF
:100F58000115E01350057F811223C67D0F7FE87EBF
:100F6800030212AD123A73900110EEF0A3EFF0C332
:100F780094C8EE9400500F90010DE04420F054E026
:100F88004409F002102290010DE054DFF0900110A6
:100F9800E0FCA3E0FDD394C3EC9402500B90010D48
:100FA800E054E04404F08072D3ED94C3EC94024022
:100FB8001AD3900111E09418900110E09403500B9B
:100FC80090010DE054E04403F0804F900110E0FEE2
:100FD800A3E0FFD39418EE94034014D3EF943FEEAC
:100FE8009403500B90010DE054E04402F0802B90E4
:100FF8000110E0FEA3E0FFD3943FEE94034014D326
:10100800EF946CEE9403500B90010DE054E0440112
:10101800F0800790010DE054E0F07D107F887E138A
:101028000212AD900115E0FF1313543F13501178CD
:1010380011E654F04402F6EF54FBF07F840223C615
:10104800900106E0640170087D097F64FE0212AD1C
:101058009001067401F0FD7F107E000234B1123A4F
:101068006C900214EEF0A3EFF090010FE0540F64BF
:101078000F700A90010EE04407F002110490021468
:10108800E0FCA3E0FDC39432EC9400500990010EFB
:10109800E054F8F08066D3ED9432EC94004016905A
:1010A8000215E094C8900214E09400500890010ED4
:1010B800E044408043900214E0FEA3E0FFD3942074
:1010C800EE94034014EF9484EE9403500C90010EB8
:1010D800E04420F054BFF08023D3900215E094E858
:1010E800900214E0940390010EE0400754F844067F
:1010F800F080094407F054BFF054DFF07D127F10F0
:101108007E270212AD900115E0FFC31313500302AE
:1011180012B0EF4408F07D077FE87E030212AD129B
:101128003980EF640160030211BA90010DE0FFC439
:101138001313540313400FEF4440F0C2EAC2A67DD4
:10114800DA7F141232AF90010DE0C4135407135024
:10115800047D2480527811E6C4540F640270129002
:10116800010EE05407640660047D2180027D23801F
:10117800367811E6C4540F6407701290010EE054DB
:1011880007640660047D2180027D23801A7811E6B9
:10119800C4540F6401701390010EE0540764066094
:1011A800047D2280027D23122A4C7D147F887E13C1
:1011B800802090010DE054BFF0C2EA4480F07F82A5
:1011C8001223C67D237FF47E01122A507D157FF4F9
:1011D8007E01122A508056123980EF6401701F90E8
:1011E8000135E0640170087D137F64FE122A509077
:1011F800010FE054F0F07D147F647E00802C20A65F
:1012080004C2A6C2EA90010DE0541F640470109055
:101218000106E0640170087D097F64FE122A507D92
:1012280023122A4C7D157F887E13122A50C2EAC2E7
:10123800A62290010FE0540F640E606C7F0E802888
:1012480090010FE0540F640D605E7F0D801A9001CD
:101258000FE0540F640F60507F0F800C90010FE077
:10126800540F640960427F090221FE90022EE02497
:101278000AF0E0643C7007F0900235E004F0900258
:1012880035E0643C7007F090023AE004F090023ACE
:10129800E064187007F0900239E004F0121FC97D6D
:0912A800257F107E27122A502236
:100066000203AEE86480F8E933E83360110460F017
:10007600ED33EC337009E8FCE9FDEAFEEBFF220400
:1000860060DED3EB9FEA9EE99DE8C2E78CF0C2F7FB
:1000960095F0400CE8CCF8E9CDF9EACEFAEBCFFBC7
:1000A60012037985D0F05804700320D5B3E80470A4
:1000B600075002B2D50203B892D5EC0460F7E4CC3F
:1000C600C0E0C398F8603B94186008400DD0E0FB90
:1000D600020390E4FBFAC9FC8028E830E406E4C990
:1000E600FBE4CAFCE830E305E4C9CACBFCE85407E4
:1000F6006010F8C3E913F9EA13FAEB13FBEC13FCEF
:10010600D8F130F52FC3E49CFCEF9BFFEE9AFEED91
:1001160099FDD0E0FBEF4E4D4C701222DB0302033B
:10012600B5EC2CFCEF33FFEE33FEED33FDED30E79F
:10013600EB020390EF2BFFEE3AFEED39FDD0E0FB2C
:1001460050130BBB00030203B8ED13FDEE13FEEFD5
:0801560013FFEC13FC020390FF
:10015E00EC4D6011E8497017ED33EC3304600DE49B
:10016E00FCFFFEFD22E933E8330470F80203AE1201
:10017E00037958046009E4CC248150062850090202
:10018E0003B82840030203B5C0E0EB4A7044B980BF
:10019E0006D0E0FB0203A4EF4E701CBD8008EBFFFF
:1001AE00EAFEE9FD80EBE98DF0A4FEE5F0020247E0
:1001BE00E9CDF9EAFEEBFFEF89F0A4FCE5F0CE897C
:1001CE00F0A42EFFE435F0CD89F0A42DFEE435F039
:1001DE008067EF4E7005BD80D780C3EF8BF0A4AC67
:1001EE00F0EE8BF0A42CFCE435F0F8EF8AF0A42CA2
:1001FE00E5F038FCE433CB8DF0A42CFCE5F03BF8B5
:10020E00EE8AF0A42CFCE5F038F8E433CF89F0A4A4
:10021E002CFCE5F038CF3400CE89F0A42FFFE5F0AA
:10022E003EFEE433C98DF0A42EFEE5F039CD8AF002
:10023E00A42FFFE5F03EFEE43DFD33D0E0FB50077A
:10024E000BBB000F0203B8EC2CFCEF33FFEE33FEBA
:06025E00ED33FD020390E8
:100264000203B8EC5D046005E8590470030203AEB0
:10027400120379580460F6EC4860F2EC7004FDFE59
:10028400FF22C860DB2481C85009C398600250066D
:100294000203B59850CAF582E9294B4A7005AB822E
:1002A4000203A475F0007C1A7880C3EF9BEE9AEDEC
:1002B40099400DC3EF9BFFEE9AFEED99FDE842F0E5
:1002C400DC23ACF0D0E0FFD0E0FED0E0FDAB822038
:1002D400E7101BEB60BAEC2CFCEF33FFEE33FEEDC2
:1002E40033FD020390E803F830E705C0F075F00031
:1002F400EF2FFFEE33FEED33FD40B830E7C280AAA6
:1003040075F020800E75F010800575F0087D007E74
:10031400007F003392D530D5031207ABEC33401085
:10032400EF33FFEE33FEED33FDEC33FCD5F0ED227D
:0E033400E5F0247EA2D513CC92E7CDCEFF22B9
:10034200EDD2E7CD33EC3392D524814006E4FFFEB3
:10035200FDFC22FCE4CFCECDCC24E0501174FF8012
:10036200EDC3CC13CCCD13CDCE13CECF13CF0470AF
:07037200F030D5DE0207ABFD
:10037900E9D2E7C933E833F892D5EDD2E7CD33ECCA
:0703890033FC5002B2D52243
:10039000EC30E7100FBF000C0EBE00080DBD0004CE
:1003A0000BEB6014A2D5EB13FCED92E7FD2274FF7A
:1003B000FCFDFEFF22E480F8A2D574FF13FC7D80D3
:0303C000E480EFE7
:102ECA0002323DE493A3F8E493A34003F68001F2AF
:102EDA0008DFF48029E493A3F85407240CC8C33309
:102EEA00C4540F4420C8834004F456800146F6DFD8
:102EFA00E4800B01020408102040809026D3E47E6F
:102F0A00019360BCA3FF543F30E509541FFEE493CC
:102F1A00A360010ECF54C025E060A840B8E493A393
:102F2A00FAE493A3F8E493A3C8C582C8CAC583CABE
:102F3A00F0A3C8C582C8CAC583CADFE9DEE780BE76
:0128060000D1
:1003C300E709F608DFFA8046E709F208DFFA803E1C
:1003D30088828C83E709F0A3DFFA8032E309F60809
:1003E300DFFA8078E309F208DFFA807088828C8371
:1003F300E309F0A3DFFA806489828A83E0A3F60825
:10040300DFFA805889828A83E0A3F208DFFA804CFE
:1004130080D280FA80C680D4806980F280338010D5
:1004230080A680EA809A80A880DA80E280CA80333E
:1004330089828A83ECFAE493A3C8C582C8CCC583B6
:10044300CCF0A3C8C582C8CCC583CCDFE9DEE78086
:100453000D89828A83E493A3F608DFF9ECFAA9F005
:10046300EDFB2289828A83ECFAE0A3C8C582C8CC5B
:10047300C583CCF0A3C8C582C8CCC583CCDFEADE74
:10048300E880DB89828A83E493A3F208DFF980CCD6
:1004930088F0EF60010E4E60C388F0ED2402B404CF
:1004A3000050B9F582EB2402B4040050AF23234576
:0604B30082239004137384
:1004B900BB010689828A83E0225002E722BBFE0241
:0904C900E32289828A83E4932274
:1004D200BB010CE58229F582E5833AF583E02250DF
:1004E20006E92582F8E622BBFE06E92582F8E22229
:0D04F200E58229F582E5833AF583E4932243
:1004FF00BB010989828A83F8E028F022500327F78D
:10050F0022BBFE05F8E328F3228A838982F8E4935D
:02051F00282290
:10052100F8BB010DE58229F582E5833AF583E8F010
:10053100225006E92582C8F622BBFE05E92582C8BC
:02054100F222A4
:10054300EF8DF0A4A8F0CF8CF0A428CE8DF0A42ECC
:02055300FE2286
:10055500BC000BBE0029EF8DF084FFADF022E4CC8A
:10056500F875F008EF2FFFEE33FEEC33FCEE9DEC53
:10057500984005FCEE9DFE0FD5F0E9E4CEFD22ED99
:10058500F8F5F0EE8420D21CFEADF075F008EF2FE3
:10059500FFED33FD4007985006D5F0F222C398FDD4
:0505A5000FD5F0EA2271
:1005AA00C2D5EC30E709B2D5E4C39DFDE49CFCEE6C
:1005BA0030E715B2D5E4C39FFFE49EFE120555C38A
:1005CA00E49DFDE49CFC800312055530D507C3E485
:0605DA009FFFE49EFE22DB
:1005E000C5F0F8A3E028F0C5F0F8E58215827002A6
:0605F0001583E038F02243
:1005F600A3F8E0C5F025F0F0E582158270021583B8
:06060600E0C838F0E82214
:10060C00BB010A89828A83E0F5F0A3E022500687B9
:10061C00F009E71922BBFE07E3F5F009E31922897B
:0B062C00828A83E493F5F074019322AE
:10063700BB0110E58229F582E5833AF583E0F5F001
:10064700A3E0225009E92582F886F008E622BBFEDE
:100657000AE92582F8E2F5F008E222E5832AF58324
:08066700E993F5F0A3E99322E9
:10066F00BB010A89828A83F0E5F0A3F0225006F7D6
:0F067F0009A7F01922BBFE06F3E5F009F31922D3
:10068E00E88FF0A4CC8BF0A42CFCE98EF0A42CFC0B
:10069E008AF0EDA42CFCEA8EF0A4CDA8F08BF0A489
:1006AE002DCC3825F0FDE98FF0A42CCD35F0FCEBE8
:1006BE008EF0A4FEA9F0EB8FF0A4CFC5F02ECD39AD
:0F06CE00FEE43CFCEAA42DCE35F0FDE43CFC221A
:1006DD0075F008758200EF2FFFEE33FECD33CDCCD4
:1006ED0033CCC58233C5829BED9AEC99E582984057
:1006FD000CF582EE9BFEED9AFDEC99FC0FD5F0D634
:10070D00E4CEFBE4CDFAE4CCF9A88222B800C1B95D
:10071D000059BA002DEC8BF084CFCECDFCE5F0CB9B
:10072D00F97818EF2FFFEE33FEED33FDEC33FCEBD4
:10073D0033FB10D703994004EB99FB0FD8E5E4F98F
:10074D00FA227818EF2FFFEE33FEED33FDEC33FC7C
:10075D00C933C910D7059BE99A4007EC9BFCE99A70
:10076D00F90FD8E0E4C9FAE4CCFB2275F010EF2FB5
:10077D00FFEE33FEED33FDCC33CCC833C810D707B5
:10078D009BEC9AE899400AED9BFDEC9AFCE899F8F0
:0E079D000FD5F0DAE4CDFBE4CCFAE4C8F92283
:0E07AB00C3E49FFFE49EFEE49DFDE49CFC225F
:1007B900EB9FF5F0EA9E42F0E99D42F0EC6480C8B7
:0607C90064809845F02257
:1007CF00EB9FF5F0EA9E42F0E99D42F0E89C45F080
:0107DF0022F7
:1007E000E86010ECA2E713FCED13FDEE13FEEF132F
:0407F000FFD8F0221C
:1007F400BB010789828A830208A35005E9F802082D
:1008040097BBFE05E9F80208AF89828A830208BB18
:0C081400ECF0A3EDF0A3EEF0A3EFF02257
:10082000A8828583F0D083D082120837120837124D
:100830000837120837E473E493A3C583C5F0C58372
:10084000C8C582C8F0A3C583C5F0C583C8C582C822
:010850002285
:10085100BB010789828A830208D45005E9F802089E
:10086100CBBBFE05E9F80208DD89828A830208E62E
:10087100D083D082F8E4937012740193700DA3A316
:1008810093F8740193F5828883E47374029368602A
:06089100EFA3A3A380DF2A
:0C3A5500EE30E707C3E49FFFE49EFE2272
:0C089700E6FC08E6FD08E6FE08E6FF228D
:0C08A300E0FCA3E0FDA3E0FEA3E0FF22C8
:0C08AF00E2FC08E2FD08E2FE08E2FF2285
:1008BB00E493FC740193FD740293FE740393FF2283
:0908CB00E6FB08E6FA08E6F92252
:0908D400E0FBA3E0FAA3E0F92225
:0908DD00E2FB08E2FA08E2F9224C
:0C08E600E493FB740193FA740293F9226E
:00000001FF
