:030000000257366E
:0C573600787FE4F6D8FD75817902577D7C
:102809000D0A507265762E46573A253032782530B2
:10281900327825303278000D0A437572722E465788
:102829003A253032782530327825303278000D0A51
:1028390043616E6E6F7420616363657373204545F0
:1028490050524F4D21212121000D0A4E6F20696EF2
:10285900697469616C697A65000D0A484152445787
:102869004152455F564552204552524F52000D0A7A
:10287900526573657420526F74617465204E756D6D
:10288900626572000D0A48415244574152455F56EC
:1028990045523D256400285345545F4D43555F50CB
:1028A9004F5745525F444F574E5F4D4F444529207E
:1028B900000D0A285345545F50574D3D2530327855
:1028C9002076616C3D253032782900282A445652F9
:1028D9004368616E676543757272656E743D333026
:1028E900306D412900282A4456524368616E676554
:1028F90043757272656E743D313030306D41290017
:102909000D0A3D3D3D3D3D3D3D3D3D3D3D3D3D3D51
:102919003D3D3D3D3D3D3D3D3D3D3D3D3D3D3D3DDE
:102929003D3D3D3D000D0A53797374656D20686125
:1029390073206265656E20776F726B696E672066BA
:102949006F7220256420646179732C2025642068C6
:102959006F7572732C202564206D696E75746573AB
:1029690020616E64202564207365636F6E64730053
:102979000D0A53797374656D20686173206265650A
:102989006E20776F726B696E6720666F722025649F
:1029990020686F7572732C202564206D696E7574BB
:1029A900657320616E64202564207365636F6E64AE
:1029B90073000D0A53797374656D20686173206221
:1029C90065656E20776F726B696E6720666F72201E
:1029D9002564206D696E7574657320616E642025A8
:1029E90064207365636F6E6473000D0A53797374A1
:1029F900656D20686173206265656E20776F726B03
:102A0900696E6720666F72202564207365636F6E37
:102A19006473000D0A2842617474657279425448DE
:102A29003D25642825642E25645629290028544506
:102A39004D505F48494748290028484947485F544D
:102A49004D45505F5741524E29002854454D505F1E
:102A59004C4F572900284C4F575F544D45505F57ED
:102A690041524E29002854454D505F4E4F524D4119
:102A79004C29000D0A2842617474657279434150EA
:102A89003D25642825642E253034645629292825B6
:102A99006456290028484947485F434841524745F9
:102AA9002900284C4F575F43484152474529002880
:102AB9004E4F524D414C5F434841524745290028EA
:102AC90053544F505F4348415247452900284348D2
:102AD900415247455F4E4F5F424154542900285F98
:102AE900424154545F5354415455535F43415041FB
:102AF900434954595F4C4556454C302900285F429B
:102B09004154545F5354415455535F4341504143D9
:102B19004954595F4C4556454C312900285F42417B
:102B290054545F5354415455535F434150414349B1
:102B390054595F4C4556454C322900285F4241544F
:102B4900545F5354415455535F4341504143495491
:102B5900595F4C4556454C332900285F424154542E
:102B69005F5354415455535F43415041434954596C
:102B79005F4C4556454C342900285F424154545F07
:102B89005354415455535F43415041434954595F4C
:102B99004D494E2900285F424154545F53544154D2
:102BA90055535F43415041434954595F4D41582959
:102BB90000285F424154545F5354415455535F4375
:102BC900415041434954595F4D41585F53544F5007
:102BD900290028424154544552595F4341504143C9
:102BE9004954595F4E4F5F5354415254555029002F
:102BF900285F424154545F5354415455535F4E4FDB
:102C09005F424154542900284348415247455F5483
:102C19004D45505F41424E4F524D414C29000D0ADE
:102C2900285F504F5745525F5354415455535F5392
:102C39004156494E4729000D0A285F504F574552C2
:102C49005F5354415455535F4F464629000D0A2896
:102C59005F504F5745525F5354415455535F4E4F40
:102C6900524D414C29000D0A28504F5745525F5388
:0A2C790054415455533D25642900D1
:104739004102AA004102AB004102930041029C00E0
:1047490041029E0041029100410289004102AC00F0
:1047590041028E0002400000014600C101C18002F1
:10476900470000014400014500027400000469008B
:10477900000000046D00000000C10441028A01012B
:104789007200014200014300C102C10341029400C9
:1047990041028B0041029F004402A6000000004133
:1047A90002A4004102A5004402A000000000440246
:1047B900970000000041029B00420295000041025F
:0247C9009D0051
:104AE900125C7A9001FF12170B7F047E001261207D
:104AF9007E00C007C0067F051261207E00C007C086
:104B0900067F0612612090020DE4F0A3EFF09002F7
:104B19000BD0E0F0A3D0E0F0900209D0E0F0A3D0F0
:104B2900E0F07BFF7A287909125EE7125C7AE47B70
:104B390041FAF9F8C31216A0605F7BFF7A28792041
:104B4900E4900209F0A3F0A3F0A3F0A3F0A3744149
:104B5900F0125EE712623A7F047E001261207E0045
:104B6900C007C0067F051261207E00C007C0067F0E
:104B79000612612090020DE4F0A3EFF090020BD031
:104B8900E0F0A3D0E0F0900209D0E0F0A3D0E0F08B
:104B99007BFF7A287920125EE7125C7AE47B41FA7E
:104BA900F9F8C31216A0700B125D0EEF701E1253A6
:104BB9000480197BFF7A287937125EE77BFF7A2810
:104BC9007952125EE790015B74FFF0227F087E0044
:104BD900126120EF6401604B7BFF7A287962125ED3
:104BE900E77BFF7A287977125EE7E4FD7F23FE12DF
:104BF9005D55E4FD7F24FE125D55E4FD7F25FE121F
:104C09005D55E4FD7F26FE125D55E4FD7F27FE120A
:104C19005D55E4FD7F28FE125D557D017F087E000C
:104C2900125D557F087E00126120900209E4F0A30D
:104C3900EFF07BFF7A28798D125EE77F6412626C50
:0D4C49007811E6540F4410F654F04402F6C2
:014C5600223B
:105B8900758DF4759850758922758855758A407593
:105B99008C4075878075B80275A892D299D2ACE409
:105BA900F5C8C2CAD2AD75AA5075BAF443A618434E
:105BB900AD10C203F5E9F5F975D90443D84043930B
:105BC900A04391C475964075B10CF5B275B30CF547
:025BD900B422F4
:10603D007BFF7A28799F125EE7D2C2C2C1D2C0D24D
:10604D00C6C2C5D2C490028EE5A8F075A880900195
:0F605D00217401F0D2E8D2E97587820000002299
:1062030020850320EA137F327E0012625720850324
:0C62130020EA037F01227F00227F00228E
:10556500900204EFF0A3EDF07BFF7A2879BA900260
:1055750009E4F0A3EFF0EDFFA3E4F0A3EFF0125E72
:10558500E7900204E0607A24EB60602416606E24E4
:10559500EB707175EC80900205E0FFC374FF9FF519
:1055A500FC75DC42EF7004F5DCC294900118E064F0
:1055B50010701175EC8075FC6675DC427BFF7A28EE
:1055C50079D48017900118E06411701275EC80751C
:1055D500FCFF75DC427BFF7A2879EE125EE79002CC
:1055E50005E0F4701F75DCFFD2942275ED80900202
:1055F50005E0FFC374FF9FF5FD75DD422243D840EA
:055605002253D84022F1
:03000B000222C608
:0D22C600C0E0C0F0C083C082C0D075D00859
:1022D30005730545C3E545940A74809480401390C3
:1022E30001AFE004F070069001AEE004F075450024
:1022F300D20C900292E0600214F0900292E060032C
:102303000226D2E5B0540C13135403FF9002A9E044
:102313006F70030226D29002A7E09002A6F090020B
:10232300A8E09002A7F09002A9E09002A8F0A3EF22
:10233300F0D205900120E0FF7E00640190029270CC
:1023430003F080037430F0EF64014E600302244312
:102353009002A6E0FF7E007014A3E06401700EA358
:10236300E064037008A3E064027002804FEF64012D
:102373004E70149002A7E06403700CA3E064027033
:1023830006A3E0700280359002A6E064037012A3F6
:10239300E06402700CA3E07008A3E06401700280A3
:1023A3001B9002A6E0FF7E0064027017A3E0701387
:1023B300A3E06401700DA3E06403700790029BF037
:1023C300022697EF4E70169002A7E06402700EA3E8
:1023D300E064037008A3E064017002805B9002A6CE
:1023E300E064027012A3E06403700CA3E064017064
:1023F30006A3E0700280419002A6E0FF7E00640322
:102403007012A3E06401700CA3E07008A3E06402FF
:1024130070028024EF64014E60030226979002A7A6
:10242300E06003022697A3E064026003022697A3F9
:10243300E06403600302269790029B04F002269750
:102443009002A6E07045A3E06401703FA3E064033B
:102453007039A3E0640270339002A0E0FCA3E0FDB6
:10246300A3E0FEA3E0FFE4FAF9F8EF2401FFEA3E5C
:10247300FEE93DFDE83CFC9002A012170B9002968A
:10248300E004F07006900295E004F09002A6E06488
:10249300017043A3E06403703DA3E064027037A3BB
:1024A300E070339002A0E0FCA3E0FDA3E0FEA3E014
:1024B300FFE4FAF9F8EF2401FFEA3EFEE93DFDE807
:1024C3003CFC9002A012170B900296E004F07006F9
:1024D300900295E004F09002A6E064037043A3E049
:1024E3006402703DA3E07039A3E06401703390028D
:1024F300A0E0FCA3E0FDA3E0FEA3E0FFE4FAF9F80B
:10250300EF2401FFEA3EFEE93DFDE83CFC9002A01A
:1025130012170B900296E004F07006900295E00407
:10252300F09002A6E064027043A3E0703FA3E0646E
:10253300017039A3E0640370339002A0E0FCA3E0D0
:10254300FDA3E0FEA3E0FFE4FAF9F8EF2401FFEABC
:102553003EFEE93DFDE83CFC9002A012170B900201
:1025630096E004F07006900295E004F09002A6E075
:102573007044A3E06402703EA3E064037038A3E0F8
:10258300640170329002A0E0FCA3E0FDA3E0FEA38F
:10259300E0FFEF24FFFFEE34FFFEED34FFFDEC34EC
:1025A300FFFC9002A012170B900296E004F0700655
:1025B300900295E004F09002A6E064027042A3E06A
:1025C3006403703CA3E064017036A3E070329002B0
:1025D300A0E0FCA3E0FDA3E0FEA3E0FFEF24FFFFE8
:1025E300EE34FFFEED34FFFDEC34FFFC9002A0124D
:1025F300170B900296E004F07006900295E004F049
:102603009002A6E064037042A3E06401703CA3E07F
:102613007038A3E0640270329002A0E0FCA3E0FDF6
:10262300A3E0FEA3E0FFEF24FFFFEE34FFFEED3453
:10263300FFFDEC34FFFC9002A012170B900296E012
:1026430004F07006900295E004F09002A6E06401A5
:102653007042A3E0703EA3E064027038A3E0640319
:1026630070329002A0E0FCA3E0FDA3E0FEA3E0FF34
:10267300EF24FFFFEE34FFFEED34FFFDEC34FFFCEF
:102683009002A012170B900296E004F070069002DD
:1026930095E004F0900120E07035C3900296E09439
:1026A3003C900295E094004026900106E0FCA3E0F4
:1026B300FDA3E0FEA3E02401FFE43EFEE43DFDE4D0
:1026C3003CFC90010612170B900295E4F0A3F0D3A3
:1026D300E57394607480948050030227FE054AE5F5
:1026E3004A700205497573000544E544646470103B
:1026F300F544E5469002946005E004F08002E4F0BE
:10270300E575F47003E574F460080575E57570020A
:102713000574AF70AE6FAD6EAC6DEC4D4E4F601483
:10272300EF24FFF570EE34FFF56FED34FFF56EEC3B
:1027330034FFF56D90028CE07002A3E0600E90020E
:102743008DE024FFF090028CE034FFF0E5E8F4FF25
:10275300131313541F30E079E54164324540701A76
:1027630090010AE0600B7811E6FFC4540F64077010
:1027730056754601C200D201804DE541642C7004B8
:10278300E540640170219002A4E064017019900196
:102793000AE06401701130002E754601D2019002E7
:1027A300A504F0C2008020E541B4201BE540B4033A
:1027B3001630000D754601D2019002AC7401F0C2CF
:1027C300007540007541330541E541702E05408099
:1027D3002AC3E5419432E5409400401290010AE097
:1027E3006401700A300007754601D2018005754601
:0B27F30000C201D200754000754100DB
:0B27FE00D0D0D082D083D0F0D0E032E9
:103953007BFF7A2979097F01125D9C90029CE0FF2D
:1039630060327BFF7A29792E900209E4F0A3EFF00D
:1039730090029EE0FF90020BE4F0A3EFF09002911F
:10398300E0FF90020DE4F0A3EFF0900289E0FF90D6
:10399300020F805790029EE0FF60257BFF7A297912
:1039A30079900209E4F0A3EFF0900291E0FF900216
:1039B3000BE4F0A3EFF0900289E0FF90020D802B5F
:1039C300900291E0FF7BFF60167A2979BB90020990
:1039D300E4F0A3EFF0900289E0FF90020B800C7AF1
:1039E3002979F3900289E0FF900209E4F0A3EFF054
:1039F3007F03125D9C9001F2E0FEA3E0FF900209B9
:103A0300EEF0A3EFF07805C333CE33CED8F9FBAA9B
:103A1300067C277D10FF12142690020BEEF0A3EF15
:103A2300F07C277D10AF03AE02121426A3ECF0A3A3
:103A3300EDF07BFF7A2A791C7F02125D9C900113C3
:103A4300E0541F6406700A7BFF7A2A79367F01806F
:103A530042900114E0C31313500A7BFF7A2A794280
:103A63007F03802F900113E0541F6408700A7BFFCB
:103A73007A2A79537F04801B900114E01313543F77
:103A8300137BFF50087A2A795E7F0380067A2A79AE
:103A93006E7F02125D9C900115E0541F6409706FE4
:103AA300A3E0FEA3E07805C333CE33CED8F9246A6E
:103AB300FFEE34FFFE7C277D101214267E007F6408
:103AC300CFCDCFCECCCE121426AA06AB07900116CB
:103AD300E0FEA3E07805C333CE33CED8F9246AFFE2
:103AE300EE34FFFE7C277D101214267C007D6412C9
:103AF3001414EF2BFFEE3AFE900203F0A3EFF07DD8
:103B0300371214147D64121426900203EE80719010
:103B13000116E0FEA3E0FF7C007D3B1214147D64DC
:103B2300121426EF25E0FBEE33FA900116E0FEA314
:103B3300E0FF7C007D3B1214147D64121426EF2BEE
:103B4300FFEE3AFE900203F0A3EFF07C037DE81250
:103B53001426EF4E9002036017E0FEA3E0FF7C0003
:103B63007D0A121426EF2401FFE43E900203801025
:103B7300E0FEA3E0FF7C007D0A121426900203EE10
:103B8300F0A3EFF0900116E0FEA3E0FF900209EE30
:103B9300F0A3EFF07C007D21121414AA06AB077C7E
:103BA300277D10121426A3EEF0A3EFF07C277D10DF
:103BB300AF03AE02121426A3ECF0A3EDF0900203C0
:103BC300E0FFA3E090020FCFF0A3EFF07BFF7A2A90
:103BD300797C7F05125D9C900115E0541F640D7084
:103BE3000A7BFF7A2A799D7F02804E900115E0546B
:103BF3001F640E700A7BFF7A2A79AB7F03803A90A9
:103C03000115E0541F640F700A7BFF7A2A79B87F8D
:103C1300058026900115E0541F6410700A7BFF7A1B
:103C23002A79C87F018012900115E0541F6409703E
:103C33000B7BFF7A2A79D67F01125D9C900112E0FB
:103C4300541F640470087BFF7A2A79E7804490014B
:103C530012E0541F640370087BFF7A2B79068032CD
:103C6300900112E0541F640270087BFF7A2B7925C0
:103C73008020900112E0541F640170087BFF7A2BAF
:103C83007944800E900112E0541F700A7BFF7A2B57
:103C930079637F028062900112E0541F6415700AF9
:103CA3007BFF7A2B79827F04804E900112E0541FB0
:103CB3006416700A7BFF7A2B799E7F06803A900107
:103CC30012E0541F6417700A7BFF7A2B79BA7F05C1
:103CD3008026900112E0541F6418700A7BFF7A2B30
:103CE30079DB7F058012900112E0541F6409700B89
:103CF3007BFF7A2B79F97F01125D9C900114E0130D
:103D03001313541F13500B7BFF7A2C79107F01126E
:103D13005D9C7811E6C4540F640770087BFF7A2C0E
:103D2300792780377811E6C4540F640170087BFF4C
:103D33007A2C794080257811E6C4540F64027BFF06
:103D430070067A2C795680137A2C796F7811E6C431
:103D5300540FFF900209E4F0A3EFF07F06125D9C7D
:0B3D63007BFF7A2979097F01025D9C3B
:10628400E4FFEFC3941D74809480500974222FF8A6
:05629400E4F60F80EDAF
:0162990022E2
:105A4600EF24E2B40A005070905A5C75F003A4C5C6
:105A56008325F0C58373025A86025A7A025A840253
:105A66005A7F025A88025ABE025A90025A9A025A1B
:105A7600A7025AB3D2E9D2E822D2E8C2E9228005C7
:105A8600801530E817C2E8D2E92230E905C2E9D22A
:105A9600E822800830E805C2E8C2E922D2E8D2E965
:105AA6002230E904C2E98002D2E9C2E82230E804E1
:095AB600C2E88002D2E8C2E92234
:0300030002560A98
:10560A00C0E0C0F0C083C082C0D075D008C2A890E4
:10561A00029BE0900297701DE0FCA3E0FDA3E0FE70
:10562A00A3E0FFE4FAF9F8EF2401FFEA3EFEE93DC0
:10563A00FDE83C801AE0FCA3E0FDA3E0FEA3E0FF46
:10564A00EF24FFFFEE34FFFEED34FFFDEC34FFFCE8
:10565A0090029712170B90029DE0C3946474809491
:10566A00804026900127E0FCA3E0FDA3E0FEA3E032
:10567A002401FFE43EFEE43DFDE43CFC90012712D8
:10568A00170B90029DE4F0800690029DE004F0D290
:0C569A00A8D0D0D082D083D0F0D0E03275
:0300130002000EDA
:03000E00C2AA3251
:0300230002606C0C
:10606C00C0E0C0D075D008309819744B2571F8A6D3
:10607C00990571C3E571941E748094804003757109
:0F608C0000C298309904C299C202D0D0D0E0323D
:03006300025F63D6
:105F6300C0E0C0D075D008E5AA54016401701A538B
:105F7300AAFE74222542F8A69A0542C3E542941E5E
:105F8300748094804003754200E5AA540264027051
:0B5F93000553AAFDC203D0D0D0E032BD
:0B633A00E542B543037F00227F0122F3
:1061E50053ADEF74222543F8E6FF0543E543C39419
:0D61F5001E748094804003E4F54343AD1018
:016202002279
:086345002003FD8F9AD2032210
:03002B0002631F4E
:0F631F00C0E0C2CF0548E54870020547D0E03224
:10626C00E5442FFFE433FE7C007D64121426E544E4
:07627C00B505FBE4B504F7D2
:0162830022F8
:030033000261A7C0
:1061A700C0E0C083C082C2C2C2C175878090028E20
:0F61B700E0F5A8900121E4F0D082D083D0E0324F
:03003B000261C699
:1061C600C0E0C083C082C2C6C2C575878090028EF9
:0F61D600E0F5A8900121E4F0D082D083D0E03230
:1062EA000D0A436C656172426173696345452E2EDE
:0262FA002E0074
:105C7A007E007D007C007F05126120EF7F00FEC060
:105C8A0007C0067F047E001261207E00EF7810C3F1
:105C9A0033CE33CED8F9FDD0E04EFED0E04DFFC072
:105CAA0007C0067F067E00126120EFFDD0E0FED01D
:095CBA00E04DFFEE3395E0FDFC26
:015CC30022BE
:105D0E009002037401F0E4FFFE126120EF64306034
:105D1E00037F00227F017E00126120EF6437600353
:105D2E007F00227F027E00126120EF643060037FCD
:105D3E0000227F037E00126120EF644960037F0022
:065D4E0022900203E0FFB9
:015D5400222C
:10623A00E4FD7F04FE125D55E4FD7F05FE125D5507
:09624A007D417F067E00025D55D6
:105304007BFF7A6279EA125EE77D30E4FFFE125D8C
:10531400557D377F017E00125D557D307F027E0012
:10532400125D557D497F037E00125D557D017F101E
:105334007E00125D557D277F117E00125D55E4FDD0
:105344007F07FE125D55E4FD7F12FE125D55E4FDFC
:105354007F13FE125D557D017F147E00125D55E4BE
:10536400FD7F29FE125D557D017F157E00125D557E
:10537400E4FD7F16FE125D557D017F177E00125DF0
:1053840055E4FD7F18FE125D557D017F197E0012E4
:105394005D55E4FD7F20FE125D557D017F217E0079
:1053A400125D55E4FD7F22FE125D55E4FD7F23FE70
:1053B400125D55E4FD7F24FE125D55E4FD7F25FE5C
:1053C400125D55E4FD7F26FE125D55E4FD7F27FE48
:0B53D400125D55E4FD7F28FE025D55D0
:0447CB0041010500A3
:0917E90012633AEF7003021D6F58
:1017F2001261E59001FFEFF07E00647E700DC20B76
:1018020090010504F0E4900003F022EF647D4E7035
:1018120003D20B22300B09C20B9001FFE04470F09F
:10182200900105E0FB64046010900003E0FE90016B
:10183200FFE0FDEE6D900003F0EB24FE603B1460D0
:101842007214700302190324036003021D6F9001D6
:10185200FFE0900002F01424F8501424F924FD5003
:101862000E248C6011240224FB5004245A704190EF
:1018720001057402F022021D6A9001FFE09000014E
:10188200F0A3E01424F8501424F924FD500E248C03
:10189200601E240224FB5004245A7014900001E0BC
:1018A20070028053E4900000F09001057403F0226E
:1018B200021D6A900002E01424F8501424F924FD59
:1018C200500E248C6038240224FB5004245A702EBB
:1018D2009001FFE0FF900000E02405F582E434006F
:1018E200F583EFF0900000E004F0A3E0FF90000029
:1018F200E06F6003021D6F9001057404F022021D67
:101902006A9001FFE0FF900003E06F6003021D6A2E
:10191200900002E0121768194D0119900219AA03EA
:1019220019B30419BC051B2D061B73071CE1081B08
:101932009E101BA7111C16121CD9301D08851D26CE
:10194200861D2E881D398900001D6A90011DE04404
:1019520001F0900115E054E04414F090011DE0FF05
:10196200131313541F13500EEF54F7F07F13124446
:101972002E7F08125E6890011DE0C3131340097D9B
:101982001D7F107E2712514775B230021D6A7F1DDE
:10199200125E6890011DE0C313135003021D6A7D9D
:1019A2001D7F107E27021D347D067FE87E03021D07
:1019B200347D077F647E00021D34900005E0FDC483
:1019C200540F75F00AA4FFED540F7C002FFDEC3587
:1019D200F0FC1211DA90016912170B900006E0FD7B
:1019E200C4540F75F00AA4FFED540F7C002FFDECD8
:1019F20035F0FC1211DA90015712170B900007E034
:101A0200FDC4540F75F00AA4FFED540F7C002FFDA6
:101A1200EC35F0FC1211DA90016D12170B900008F0
:101A2200E0FDC4540F75F00AA4FFED540F7C002FA3
:101A3200FDEC35F0FC1211DA90015C12170B9000EC
:101A420009E0FDC4540F75F00AA4FFED540F7C00A9
:101A52002FFDEC35F0FC1211DA90017112170B9088
:101A6200000AE0FDC4540F75F00AA4FFED540F7C88
:101A7200002FFDEC35F0FC1211DA90016012170B09
:101A820090000BE0FDC4540F75F00AA4FFED540F53
:101A92007C002FFDEC35F0FC1211DA900175121763
:101AA2000B90000CE0FDC4540F75F00AA4FFED5436
:101AB2000F7C002FFDEC35F0FC1211DA900164125C
:101AC200170B900005E0FD7F157E00125D5590001A
:101AD20006E0FD7F167E00125D55900007E0FD7F57
:101AE200177E00125D55900008E0FD7F187E0012FF
:101AF2005D55900009E0FD7F197E00125D55900052
:101B02000AE0FD7F207E00125D5590000BE0FD7F14
:101B1200217E00125D5590000CE0FD7F227E0012B6
:101B22005D557D0C7FE87E03021D34900005E0C305
:101B320094057480948050037405F0900005E024AD
:101B4200FB75F00AA4FFA3E02F9001A2F0D3942822
:101B52007480948040057428F0800A9001A2E0FF0E
:101B6200C374289FF07D037FF47E01125226021D6A
:101B72006A900005E0FD7C00700A90011DE054FDB2
:101B8200F0021D6AED64014C6003021D6A7F1D12A2
:101B92005E6890011DE04402F0021D6A7D047FE848
:101BA2007E03021D34900005E0703390011DE05465
:101BB200FEF07F1D125E687F22125E687F23125E36
:101BC200687F24125E687F25125E687F26125E6837
:101BD2007F27125E687D257F647E00021D3490009F
:101BE20005E06401700890011DE044088014900033
:101BF20005E064026003021D6A90011DE04408F0E2
:101C02004410F07D087FE87E031251477F1D125E6B
:101C120068021D6A900005E0FD7C006401700E9070
:101C2200011DE054BFF0E49002A4F0802F90010A5D
:101C3200E064017027ED4C702390011DE054BFF069
:101C4200E490010AF0FD7F10FE125D5590011DE047
:101C5200FF1313543F135004EF54FBF090010AE0BA
:101C620064017046900005E06402703E900113E04A
:101C72004420F090011DE054BFF0E490010AF0FD11
:101C82007F10FE125D557F137E00126120EF7008F7
:101C92007D017F13FE125D5590011DE0FF13135469
:101CA2003F13501BEF54FBF0801590010AE06401D2
:101CB200700D900005E0640370059002A404F07FAB
:101CC2000A125E689002A4E064016003021D6A7D4C
:101CD2000A7F987E3A805B7D0B7FE87E038053907B
:101CE2000005E0640170107D017F12FE125D5590C7
:101CF20001687401F08071E4FD7F12FE125D55E40B
:101D0200900168F08062900005E064019001187013
:101D1200057411F080037410F0900115E054E04452
:101D220014F080447D0F7FE87E0380067D107FE8FB
:101D32007E031251478031900005E06401701590D6
:101D4200012004F043B80143B70143A801E4900223
:101D52009DF08014E4900120F053B8FE53B7FE5377
:0D1D6200A8FE900295F0A3F0E4900105F0BA
:011D6F002251
:0462AF009291D29066
:0F62B300E4FFEFC394017480948050030F80F3D5
:0162C20022B9
:0B5D5500900207EEF0A3EFF0A3EDF0CA
:105D6000900207E0FEA3E07807CEC313CE13D8F964
:105D700044A054FE90020AF01262FC90020AE0FF76
:105D80001259CB900207A3E0FF1259CB900209E011
:0C5D9000FF1259CB1200167F0202626C59
:04612000AD07AC0615
:10612400ED7807CEC313CE13D8F944A054FEFF1262
:106134005F9E900233EFF07F0212626C900233E0B4
:01614400FF5B
:016145002237
:085F9E00900234EFF0A3EDF0D6
:105FA6001262FC900234E0FF1259CB900235E0FFFA
:105FB6001259CB1262FC900234E04401FF1259CB15
:105FC600125FD7900236EFF0120016900236E0FF0D
:015FD60022A8
:1062FC00D2911262B3D2901262B3C2911262B3C243
:02630C009022DD
:0D001600C2911262B3D2901262B3D2912255
:1059CB00AE07C290EE30E703D38001C31262AFC2C1
:1059DB0090EE30E603D38001C31262AFC290EE307B
:1059EB00E503D38001C31262AFC290EE30E403D360
:1059FB008001C31262AFC290EE30E303D38001C3C8
:105A0B001262AFC290EE30E203D38001C31262AFD9
:105A1B00C290EE30E103D38001C31262AFC290EEAD
:105A2B0030E003D38001C31262AFC290C290C29028
:0B5A3B00D291D290D290D290C2902263
:105FD700E4FED2911262B3C290E4FDFCD290EE25AA
:105FE700E0FE3091034401FEC2900DBD00010CEDAF
:105FF70064084C70E71262B3D290D290D290C290EC
:02600700AF06E2
:016009002274
:10594D00AE07C290EE30E703D38001C31262AFC23F
:10595D0090EE30E603D38001C31262AFC290EE30F9
:10596D00E503D38001C31262AFC290EE30E403D3DE
:10597D008001C31262AFC290EE30E303D38001C346
:10598D001262AFC290EE30E203D38001C31262AF58
:10599D00C290EE30E103D38001C31262AFC290EE2C
:1059AD0030E003D38001C31262AFC290C290C290A7
:0E59BD00D2911262B3D290D290D290C29022B8
:04616700AB07AA06D2
:10616B007E5E1262FC7F5E12594DAF0312594DAF2A
:0C617B000512594D1200167F0202626CE2
:105BDB007F0112621FEF60489002ACE06401701409
:105BEB0090010AE06401700C9002ACF07D057FF42B
:105BFB007E0180299002A5E06401701B90010AE0F0
:105C0B00640170139002A4F09002A5F090010AF0C9
:105C1B00FD7F10FE025D557D167F647E001251479D
:015C2B002256
:10621F00A2019209C2012009037F0022EF6003AFA0
:0A622F004622200003AF46227F0044
:016239002242
:105ABF000D0A5374617274204D61696E204C6F6FC3
:105ACF00702E2E2E000D0A537461727420426F6F68
:105ADF00742E2E2E000D0A2843616D657261566F6C
:105AEF006C743D256429000D0A28476F696E672085
:105AFF00746F20706F776572206F66662E2E2E2959
:105B0F00000D0A2853746172742075702020506F35
:105B1F00776572204F6E204D6F64652E2E2E2900F3
:075B2F00000000000000006F
:1047CF0046011200000000000042011D00004101DF
:1047DF002200410118004101210041012001440143
:1047EF005200000000420119000041011B0041016D
:1047FF00560041014D0044014E0000000044016984
:10480F003F80000044016D3F8000004401713F80F4
:10481F0000004401753F8000004401570000000074
:10482F0044015C00000000440160000000004401EE
:10483F0064000000004401373F8000004401413F05
:10484F008000004401453F8000004401493F800043
:10485F00004401230000000044012B00000000442D
:10486F00012F000000004401330000000044010646
:10487F00000000004401270000000046010C00006A
:10488F000028001546013B00000028001560290193
:10489F00790506080A0B0D0F10121416181A1C1E94
:1048AF00202225272A2C2F3235383B3E4245484BB4
:0A48BF005055585D61666B70757A04
:10600A0075E5028DE3900208E0F5E412138AF5E2E1
:10601A0075E64675E6B9740129F9E43AFA90020878
:10602A00E004F0E070030D8DE3900209E014F0E063
:03603A0070D322FE
:0400060075E78122F7
:10614600E4900203F01200067B017A0279039002C2
:106156000874FFF0A37401F07DEF12600A75E76022
:016166002216
:1054B800FF6DFD90024D7401F0A37402F0A37448CF
:0A54C800F0EFA3F07B017A027938BF
:1054D20090024AEBF0A3EAF0A3E9F0900250E0FF59
:1054E200647E6005EF647D703F90024DE0FBA3E0B7
:1054F200FAA3E0F912138AFF90024AE0FBA3E0FA52
:10550200A3E0F98F82758300747D1213F290024D2D
:10551200E0FBA3E0FAA3E0F974011213D090025069
:10552200E0540F4450FF8010900250E0FF90024D73
:10553200E0FBA3E0FAA3E0F912138AFE90024AE02C
:10554200FBA3E0FAA3E0F98E82758300EF1213F257
:1055520090024DE0FBA3E0FAA3E0F974011213D02C
:035562007F0022A5
:0B56A600900234EBF0A3EAF0A3E9F05F
:1056B100900238747EF09002487401F0EF1254BAEF
:1056C100900237E01254B8E4900249F0900237E0BA
:1056D100FF900249E0FEC39F501E900234E0FBA3FD
:1056E100E0FAA3E0F98E827583001213A31254B875
:1056F100900249E004F080D490024D7401F0A3744B
:1057010002F0A37448F0ED1254CAE4900249F090FB
:105711000248E0FFA3E0FEC39F501774382EF582C4
:10572100E43402F583E0FF126345900249E004F09E
:0457310080DD7F0098
:015735002251
:05353000900227EFF0FE
:1035350078287C027D017BFF7A5B792F7E007F07EF
:10354500121364900227E0247F605514700302373C
:103555005114700302377D14700302378E24FD70F9
:103565000302379F240760030239527F047E00124D
:103575006120900228EFF07F057E00126120900205
:1035850029EFF07F067E0012612090022AEFF07B82
:10359500017A0279289002377403F07F8002394F4F
:1035A500900116E0FEA3E0FF7C007D3B1214147D24
:1035B50064121426EF25E0FBEE33FA900116E0FEC7
:1035C500A3E0FF7C007D3B1214147D64121426EFEA
:1035D5002BFFEE3AAB07FA7C037DE8FE121426EFCB
:1035E5004E7C007D0AAF03AE026009121426EF245B
:1035F50001FB8005121426AB07900228EBF0900121
:10360500F2E0FCA3E0FDEC90022AF0EDA3F09001BE
:103615001BE0FF75F00A84C454F0FEEF75F00A84D0
:10362500E5F04E90022CF0E47B0AFAF9F890014E91
:10363500E0FCA3E0FDA3E0FEA3E0FF1215EA780499
:103645001216D8C004C005C006C007E47B0AFAF903
:10365500F890014EE0FCA3E0FDA3E0FEA3E0FF121D
:1036650015EAAE02AF03D003D002D001D000EF4B74
:10367500FF90022DEFF0900156E090022EF09001A0
:1036850012E0F9C413135403135007900229E044C0
:1036950001F0900113E0541FFD7C00640670079053
:1036A5000229E04402F0ED64084C7007900229E01D
:1036B5004404F0E9C4135407135007900229E04469
:1036C50008F0900114E0FD135007900229E0441022
:1036D500F0EDC313135007900229E04420F0900148
:1036E50014E01313543F135007900229E04440F0AF
:1036F500208048308145D39001F3E0945A9001F23F
:10370500E094004036900113E0FFC41313540313F3
:103715004029EF541F64077022A3E0131313541FAD
:10372500134018900112E0C413540713400D900183
:103735001CE07007900229E04480F07B017A027951
:10374500289002377407F07F8102394F900112E00B
:10375500FFC4131313540113500D9002287401F084
:10376500EF547F900112F07B017A0279289002379D
:103775007401F07F8202394F7B017A027928900229
:10378500377401F07F8302394F7B017A02792890E3
:1037950002377401F07F8402394F900120E0640103
:1037A50070059001278003900106E0FCA3E0FDA3CE
:1037B500E0FEA3E0FF90022F12170B7BA07A86791B
:1037C50001780090022FE0FCA3E0FDA3E0FEA3E05A
:1037D500FF1215EA900228EFF0E0C454F0F09002D1
:1037E5002FE0FCA3E0FDA3E0FEA3E0FF7BA07A862B
:1037F500790178001215EAAC00AD01AE02AF039075
:10380500022F12170B900228E0FFC007E47B107A05
:1038150027F9F890022FE0FCA3E0FDA3E0FEA3E06A
:10382500FF1215EAD0E04F900228F090022FE0FC3D
:10383500A3E0FDA3E0FEA3E0FFE47B107A27F9F8FF
:103845001215EAAC00AD01AE02AF0390022F1217BC
:103855000BE47BE87A03F9F890022FE0FCA3E0FD86
:10386500A3E0FEA3E0FF1215EA900229EFF0E0C401
:1038750054F0F090022FE0FCA3E0FDA3E0FEA3E0EE
:10388500FFE47BE87A03F9F81215EAAC00AD01AE66
:1038950002AF0390022F12170B900229E0FFC00719
:1038A500E47B64FAF9F890022FE0FCA3E0FDA3E0C5
:1038B500FEA3E0FF1215EAD0E04F900229F0900236
:1038C5002FE0FCA3E0FDA3E0FEA3E0FFE47B64FAA8
:1038D500F9F81215EAAC00AD01AE02AF0390022F64
:1038E50012170BE47B0AFAF9F890022FE0FCA3E02B
:1038F500FDA3E0FEA3E0FF1215EA90022AEFF0E037
:10390500C454F0F090022FE0FCA3E0FDA3E0FEA379
:10391500E0FFE47B0AFAF9F81215EAAC00AD01AE56
:1039250002AF0390022F12170B90022AE0FB9002C0
:103935002FA3A3A3E0FFEB4F90022AF07B017A02AD
:0D39450079289002377403F07F871256A690
:013952002252
:105B360012003E7D177F017E001251477D137F01C3
:105B46007E001251477D187FE87E031251477D156E
:105B56007F017E001251477D227F017E0012514750
:105B66007D127F017E001251477D2F7F107E271206
:105B760051477D1A7F107E27125147900112E0444B
:035B860040F022CA
:10497300900205EEF0A3EFF0A3EBF0A3EAF0A3E9B6
:01498300F043
:10498400900004121508FDD3EF9DE5F06480F8EE65
:104994006480984003024A2790020DE0FBA3E0FAEA
:1049A400A3E0F9900004121508FFAEF01214DDFD27
:1049B400C3EF9DFFEE95F0900210F0A3EFF090028C
:1049C40007E0FBA3E0FAA3E0F9900004121508FD48
:1049D400ACF01214DDFBAAF0C3ED9BFFEC9AFE9041
:1049E4000212F0A3EFF04E7002FF22900205E0FEE7
:1049F400A3E0FFC3EF9BFFEE9AFE900210E0FCA33E
:104A0400E0FD121414A3E0FCA3E0FD12147BC00625
:104A1400C00790020DE0FBA3E0FAA3E0F91214DD55
:104A2400024ACB90020DE0FBA3E0FAA3E0F9900068
:104A340004121508FFAEF0900002121508C39FFF80
:104A4400E5F09E900210F0A3EFF0900207E0FBA3C4
:104A5400E0FAA3E0F9900004121508FFAEF090000C
:104A640002121508C39FFFE5F09EFE900212F0A308
:104A7400EFF04E7002FF22900207E0FBA3E0FAA3DE
:104A8400E0F9900004121508FFAEF0AB07AA0690F7
:104A94000205E0FEA3E0FFC3EF9BFFEE9AFE900247
:104AA40010E0FCA3E0FD121414A3E0FCA3E0FD124B
:104AB400147BC006C00790020DE0FBA3E0FAA3E05C
:104AC400F9900004121508FFAEF0D0E02FFFD0E0FB
:104AD4003EF990020AE0FBA3E0FAA3E0C98FF012CA
:044AE40015407F01F9
:014AE80022AB
:105EA9007E0090020A7401F0A37402F0A37403F057
:105EB900A37401F0A37401F0A3743BF07B017A0190
:105EC900790C124973900203E0FEA3E02479F5826C
:0E5ED90074013EF583E0FD7F027E00026167EA
:024C5700AB07A9
:104C59009001FF12171700000000EB6401600302C6
:104C69004CFC7F25FE126120E4FCFDFE9001FF1241
:104C7900170B9001FFE0FCA3E0FDA3E0FEA3E0FF1A
:104C890078081216D89001FF12170B9001FFE0F86F
:104C9900A3E0F9A3E0FAA3E0FBC000C001C002C091
:104CA900037F247E00126120D003D002D001D000FE
:104CB900EB4FFFEAFEE9FDE8FC9001FF12170B90AC
:104CC90001FFE0FCA3E0FDA3E0FEA3E0FF780812EA
:104CD90016D89001FF12170B9001FFE0F8A3E0F935
:104CE900A3E0FAA3E0FBC000C001C002C0037F2318
:104CF900024D8B7F287E00126120E4FCFDFE9001AD
:104D0900FF12170B9001FFE0FCA3E0FDA3E0FEA357
:104D1900E0FF78081216D89001FF12170B9001FFD7
:104D2900E0F8A3E0F9A3E0FAA3E0FBC000C001C0EA
:104D390002C0037F277E00126120D003D002D00178
:104D4900D000EB4FFFEAFEE9FDE8FC9001FF1217E6
:104D59000B9001FFE0FCA3E0FDA3E0FEA3E0FF78D8
:104D6900081216D89001FF12170B9001FFE0F8A363
:104D7900E0F9A3E0FAA3E0FBC000C001C002C00350
:104D89007F267E00126120D003D002D001D000EB33
:104D99004FFFEAFEE9FDE8FC9001FF12170B9001B5
:0C4DA900FFE0FCA3E0FDA3E0FEA3E0FFA0
:014DB50022DB
:104109009001FF12171700000000900127E0FCA39F
:10411900E0FDA3E0FEA3E0FF90020312170B7F2549
:104129007E00126120E4FCFDFE9001FF12170B9046
:1041390001FFE0FCA3E0FDA3E0FEA3E0FF78081285
:1041490016D89001FF12170B9001FFE0F8A3E0F9D0
:10415900A3E0FAA3E0FBC000C001C002C0037F24B2
:104169007E00126120D003D002D001D000EB4FFFB6
:10417900EAFEE9FDE8FC9001FF12170B9001FFE050
:10418900FCA3E0FDA3E0FEA3E0FF78081216D89097
:1041990001FF12170B9001FFE0F8A3E0F9A3E0FA81
:1041A900A3E0FBC000C001C002C0037F237E001250
:1041B9006120D003D002D001D000EB4FFFEAFEE925
:1041C900FDE8FC9001FF12170B900203E0FCA3E04D
:1041D900FDA3E0FEA3E0FF9001FFE0F8A3E0F9A34F
:1041E900E0FAA3E0FBC31216A070030242A07F3FCE
:1041F9007E427D0F7C00900203E0F8A3E0F9A3E082
:10420900FAA3E0FBD31216A04022900203E0FCA31C
:10421900E0FDA3E0FEA3E0943FFFEE9442FEED949F
:104229000FFDEC9400FC90020312170B900203E0BF
:10423900FCA3A3A3E0FFE4AD077F23FE125D559025
:104249000203E0FCA3E0FDA3E0FEA3E0FF7808126F
:1042590016B190020312170B900203E0FCA3A3A36B
:10426900E0FFE4AD077F24FE125D55900203E0FCF8
:10427900A3E0FDA3E0FEA3E0FF78081216B19002C7
:104289000312170B900203E0FCA3A3A3E0FFE4AD24
:10429900077F25FE125D55900106E0FCA3E0FDA312
:1042A900E0FEA3E0FF90020312170B7F287E0012A5
:1042B9006120E4FCFDFE9001FF12170B9001FFE065
:1042C900FCA3E0FDA3E0FEA3E0FF78081216D89056
:1042D90001FF12170B9001FFE0F8A3E0F9A3E0FA40
:1042E900A3E0FBC000C001C002C0037F277E00120B
:1042F9006120D003D002D001D000EB4FFFEAFEE9E4
:10430900FDE8FC9001FF12170B9001FFE0FCA3E010
:10431900FDA3E0FEA3E0FF78081216D89001FF1272
:10432900170B9001FFE0F8A3E0F9A3E0FAA3E0FB83
:10433900C000C001C002C0037F267E00126120D0E8
:1043490003D002D001D000EB4FFFEAFEE9FDE8FC03
:104359009001FF12170B900203E0FCA3E0FDA3E01C
:10436900FEA3E0FF9001FFE0F8A3E0F9A3E0FAA3C0
:10437900E0FBC31216A0700302442D7F3F7E427DED
:104389000F7C00900203E0F8A3E0F9A3E0FAA3E0B0
:10439900FBD31216A04022900203E0FCA3E0FDA388
:1043A900E0FEA3E0943FFFEE9442FEED940FFDEC96
:1043B9009400FC90020312170B900203E0FCA3A3E4
:1043C900A3E0FFE4AD077F26FE125D55900203E0EE
:1043D900FCA3E0FDA3E0FEA3E0FF78081216B1906C
:1043E900020312170B900203E0FCA3A3A3E0FFE46E
:1043F900AD077F27FE125D55900203E0FCA3E0FDA7
:10440900A3E0FEA3E0FF78081216B1900203121789
:104419000B900203E0FCA3A3A3E0FFE4AD077F2810
:04442900FE125D55CD
:01442D00226C
:103D6E007F107E0012612090010AEFF07F117E001D
:103D7E001261209001A2EFF07F127E00126120905E
:103D8E000168EFF07F147E0012612090011FEFF0AA
:103D9E007F157E00126120EFC4540F75F00AA4FF48
:103DAE00AEF0C006C0077F157E00126120EF540FE3
:103DBE00FDD0E02DFDD0E03400FC1211DA90016947
:103DCE0012170B7F167E00126120EFC4540F75F090
:103DDE000AA4FFAEF0C006C0077F167E0012612057
:103DEE00EF540FFDD0E02DFDD0E03400FC1211DABF
:103DFE0090015712170B7F177E00126120EFC454EB
:103E0E000F75F00AA4FFAEF0C006C0077F177E0044
:103E1E00126120EF540FFDD0E02DFDD0E03400FCF8
:103E2E001211DA90016D12170B7F187E00126120AD
:103E3E00EFC4540F75F00AA4FFAEF0C006C0077FA2
:103E4E00187E00126120EF540FFDD0E02DFDD0E062
:103E5E003400FC1211DA90015C12170B7F197E00F0
:103E6E00126120EFC4540F75F00AA4FFAEF0C00625
:103E7E00C0077F197E00126120EF540FFDD0E02D98
:103E8E00FDD0E03400FC1211DA90017112170B7F95
:103E9E00207E00126120EFC4540F75F00AA4FFAE0D
:103EAE00F0C006C0077F207E00126120EF540FFD88
:103EBE00D0E02DFDD0E03400FC1211DA900160123A
:103ECE00170B7F217E00126120EFC4540F75F00A8C
:103EDE00A4FFAEF0C006C0077F217E00126120EF66
:103EEE00540FFDD0E02DFDD0E03400FC1211DA901D
:103EFE00017512170B7F227E00126120EFC4540F42
:103F0E0075F00AA4FFAEF0C006C0077F227E001235
:103F1E006120EF540FFDD0E02DFDD0E03400FC12F7
:103F2E0011DA90016412170B7F257E00126120E4D6
:103F3E00FCFDFE90012712170B900127E0FCA3E079
:103F4E00FDA3E0FEA3E0FF78081216D89001271219
:103F5E00170B900127E0F8A3E0F9A3E0FAA3E0FB2A
:103F6E00C000C001C002C0037F247E00126120D0B9
:103F7E0003D002D001D000EB4FFFEAFEE9FDE8FCD2
:103F8E0090012712170B900127E0FCA3E0FDA3E0A0
:103F9E00FEA3E0FF78081216D890012712170B9097
:103FAE000127E0F8A3E0F9A3E0FAA3E0FBC000C00C
:103FBE0001C002C0037F237E00126120D003D00215
:103FCE00D001D000EB4FFFEAFEE9FDE8FC9001279F
:103FDE0012170B7F287E00126120E4FCFDFE90017B
:103FEE000612170B900106E0FCA3E0FDA3E0FEA372
:103FFE00E0FF78081216D890010612170B900106F2
:10400E00E0F8A3E0F9A3E0FAA3E0FBC000C001C012
:10401E0002C0037F277E00126120D003D002D001A0
:10402E00D000EB4FFFEAFEE9FDE8FC900106121707
:10403E000B900106E0FCA3E0FDA3E0FEA3E0FF78F9
:10404E00081216D890010612170B900106E0F8A37D
:10405E00E0F9A3E0FAA3E0FBC000C001C002C00378
:10406E007F267E00126120D003D002D001D000EB5B
:10407E004FFFEAFEE9FDE8FC90010612170B7F13D5
:10408E007E00126120EF6007900113E04420F09053
:10409E000168E06401701E90010AE0700E7D017FE0
:1040AE0010FE125D5590010A7401F090011FE0643C
:1040BE0001703B801790011FE06401701D7D017F30
:1040CE0010FE125D5590010A7401F0E4FD7F14FE9E
:1040DE00125D55E490011FF0801490010AE0640116
:1040EE00700CFD7F10FE125D55E490010AF07F29E1
:0B40FE007E0012612090011CEFF022F8
:10618700EF4488F5C5E5C520E3FBAFC6EF75F0041E
:10619700A4FFE5E85403FDEF4DFFE5F05403FE22AD
:07634D00E4FE7F06026187F8
:07635400E4FE7F07026187F0
:1030E40020050302352F7F0A7ED77D237C3C900187
:1030F40057E0F8A3E0F9A3E0FAA3E0FB12102F9045
:103104000169E0F8A3E0F9A3E0FAA3E0FB120F3EA3
:1031140090020312170B7F0A7ED77D237C3C90011B
:103124005CE0F8A3E0F9A3E0FAA3E0FB12102F900F
:10313400016DE0F8A3E0F9A3E0FAA3E0FB120F3E6F
:1031440090020712170B7F0A7ED77D237C3C9001E7
:1031540060E0F8A3E0F9A3E0FAA3E0FB12102F90DB
:103164000171E0F8A3E0F9A3E0FAA3E0FB120F3E3B
:1031740090020B12170B7F0A7ED77D237C3C9001B3
:1031840064E0F8A3E0F9A3E0FAA3E0FB12102F90A7
:103194000175E0F8A3E0F9A3E0FAA3E0FB120F3E07
:1031A40090020F12170B7F007EB07DE57C459002E4
:1031B40003E0F8A3E0F9A3E0FAA3E0FB12102FE484
:1031C400FBFA797A784412113890021312170B7FA4
:1031D400E17E987DD27C45900207E0F8A3E0F9A354
:1031E400E0FAA3E0FB12102FE4FBFA797A78441298
:1031F4001138900213E0F8A3E0F9A3E0FAA3E0FB8E
:10320400120F3E90021712170B7F487EC17D2C7C53
:103214004690020BE0F8A3E0F9A3E0FAA3E0FB1266
:10322400102FE4FBFA797A7844121138900217E0EF
:10323400F8A3E0F9A3E0FAA3E0FB120F3E90021B0F
:1032440012170B9002A0E0FCA3E0FDA3E0FEA3E0B4
:10325400FFEC334013E4900156F07B02FAF9F89046
:1032640002A0A3A3A3E0801D9001567401F0900274
:10327400A0E0FCA3E0FDA3E0FEA3E0FF12167CE4C3
:103284007B02FAF9F8125DE29001FFEEF0A3EFF091
:103294009001FFE0FEA3E0D394F0EE94004003021B
:1032A400333BC3EE9400500302333BE4FFFE7DF551
:1032B4007C41900203E0F8A3E0F9A3E0FAA3E0FB69
:1032C40012102FC004C005C006C0079001FFE0FC27
:1032D400A3E0FDE41211DAD003D002D001D0001231
:1032E400102FE4FBFA797A784412113890015212C3
:1032F400170BE4FFFE7DF57C41900203E0F8A3E0A8
:10330400F9A3E0FAA3E0FB12102FC004C005C00625
:10331400C0079001FFE0FCA3E0FDE41211DAD00342
:10332400D002D001D00012102F121213900201EE1D
:10333400F0A3EFF00234A19001FFE0FEA3E0FFD37D
:1033440094F0EE9400406BD3EF94C2EE940150627B
:103354007F2F7E5D7D007C42900207E0F8A3E0F9B8
:10336400A3E0FAA3E0FB12102FC004C005C006C0FE
:1033740007900200E02410FD9001FFE034FFFCE41C
:103384001211DAD003D002D001D00012102FE4FBC6
:10339400FA797A7844121138900213E0F8A3E0F92C
:1033A400A3E0FAA3E0FB120F3E90015212170B02A6
:1033B40034A19001FFE0FEA3E0FFD394C2EE940198
:1033C400406AD3EF940CEE940350617F197E047D20
:1033D400067C4290020BE0F8A3E0F9A3E0FAA3E034
:1033E400FB12102FC004C005C006C007900200E005
:1033F400243EFD9001FFE034FEFCE41211DAD00318
:10340400D002D001D00012102FE4FBFA797A78446C
:10341400121138900217E0F8A3E0F9A3E0FAA3E050
:10342400FB120F3E90015212170B8071D3900200D1
:10343400E0940C9001FFE0940350030235137F8164
:103444007E957D0B7C4290020FE0F8A3E0F9A3E0A7
:10345400FAA3E0FB12102FC004C005C006C00790F9
:103464000200E024F4FD9001FFE034FCFCE41211BE
:10347400DAD003D002D001D00012102FE4FBFA7985
:103484007A784412113890021BE0F8A3E0F9A3E023
:10349400FAA3E0FB120F3E90015212170B7FCD7E70
:1034A400CC7D4C7C3D900152E0F8A3E0F9A3E0FA16
:1034B400A3E0FB120F3E12121390011BEFF07FCD1D
:1034C4007ECC7D4C7C3D900152E0F8A3E0F9A3E072
:1034D400FAA3E0FB120F3EE4FBFA79C8784212101B
:1034E4002F12121390014E12170B90014EE0FCA301
:1034F400E0FDA3E0FEA3E0FFE47B64FAF9F8121513
:10350400EAAC00AD01AE02AF0390014E12170BC23C
:103514000590011DE01350137F811235307F2F1267
:0B3524005E687D2F7FE87E0312514798
:01352F002279
:102C83002005030230E3900297E0FCA3E0FDA3E0FC
:102C9300FEA3E0FF90020712170B7F0A7ED77D2366
:102CA3007C3C900123E0F8A3E0F9A3E0FAA3E0FB66
:102CB30012102F900137E0F8A3E0F9A3E0FAA3E0A4
:102CC300FB120F3E90020B12170B7F0A7ED77D2358
:102CD3007C3C90012BE0F8A3E0F9A3E0FAA3E0FB2E
:102CE30012102F900141E0F8A3E0F9A3E0FAA3E06A
:102CF300FB120F3E90020F12170B7F0A7ED77D2324
:102D03007C3C90012FE0F8A3E0F9A3E0FAA3E0FBF9
:102D130012102F900145E0F8A3E0F9A3E0FAA3E035
:102D2300FB120F3E90021312170B7F0A7ED77D23EF
:102D33007C3C900133E0F8A3E0F9A3E0FAA3E0FBC5
:102D430012102F900149E0F8A3E0F9A3E0FAA3E001
:102D5300FB120F3E90021712170B7F007EB07DE52A
:102D63007C4590020BE0F8A3E0F9A3E0FAA3E0FBB3
:102D730012102FE4FBFA797A784412113890021B6F
:102D830012170B7FE17E987DD27C4590020FE0F80D
:102D9300A3E0F9A3E0FAA3E0FB12102FE4FBFA7916
:102DA3007A784412113890021BE0F8A3E0F9A3E00B
:102DB300FAA3E0FB120F3E90021F12170B7F487E0F
:102DC300C17D2C7C46900213E0F8A3E0F9A3E0FA5E
:102DD300A3E0FB12102FE4FBFA797A78441211383E
:102DE30090021FE0F8A3E0F9A3E0FAA3E0FB120FBF
:102DF3003E90022312170B900207E0FCA3E0FDA311
:102E0300E0FEA3E0FFEC33400EE4900156F09002A5
:102E130007A3A3A3E080179001567401F090020763
:102E2300E0FCA3E0FDA3E0FEA3E0FF12167C90010B
:102E3300FF12170BE47FF0FEFDFC9001FFE0F8A307
:102E4300E0F9A3E0FAA3E0FBD31216A04003022F9C
:102E530000E4FFFEFDFC9001FFE0F8A3A3A3E0C3A1
:102E63001216A05003022F007F667E667D0F7C43FF
:102E730090020BE0F8A3E0F9A3E0FAA3E0FB121041
:102E83002FC004C005C006C0079001FFE0FCA3E00B
:102E9300FDA3E0FEA3E0FFE41211D5D003D002D0DE
:102EA30001D00012102F7B007A5079C3784712119A
:102EB3003890015212170BE4FFFE7DF57C4190021E
:102EC3000BE0F8A3E0F9A3E0FAA3E0FB12102FC094
:102ED30004C005C006C0079001FFE0FCA3E0FDA30A
:102EE300E0FEA3E0FFE41211D5D003D002D001D05D
:102EF3000012102F121213900203023068E47FF0C5
:102F0300FEFDFC9001FFE0F8A3E0F9A3E0FAA3E0E3
:102F1300FBD31216A04065E47FC27E01FDFC900145
:102F2300FFE0F8A3A3A3E0D31216A0504F7F667E61
:102F3300667D0F7C4390020BE0F8A3E0F9A3E0FA6F
:102F4300A3E0FB12102FC004C005C006C007900108
:102F5300FFE0FCA3E0FDA3E0FEA3E0FFE41211D534
:102F6300D003D002D001D00012102F7B007A507909
:102F7300C37847121138900152023068E47FC27E51
:102F830001FDFC9001FFE0F8A3E0F9A3E0FAA3E060
:102F9300FBD31216A04064E47F0C7E03FDFC90017A
:102FA300FFE0F8A3A3A3E0D31216A0504E7F667EE2
:102FB300667D0F7C4390020BE0F8A3E0F9A3E0FAEF
:102FC300A3E0FB12102FC004C005C006C007900188
:102FD300FFE0FCA3E0FDA3E0FEA3E0FFE41211D5B4
:102FE300D003D002D001D00012102F7B007A507989
:102FF300C37847121138900152806AE47F0C7E0334
:10300300FDFC9001FFE0F8A3E0F9A3E0FAA3E0FBE5
:10301300D31216A050030230C77F667E667D0F7CF5
:103023004390020BE0F8A3E0F9A3E0FAA3E0FB125C
:10303300102FC004C005C006C0079001FFE0FCA329
:10304300E0FDA3E0FEA3E0FFE41211D5D003D0021C
:10305300D001D00012102F7B007A5079C378471229
:10306300113890015212170B900152E0FCA3E0FDBE
:10307300A3E0FEA3E0FF12121390011BEFF0E4FFA5
:10308300FE7DC87C42900152E0F8A3E0F9A3E0FA88
:10309300A3E0FB12102F12121390014E12170B9084
:1030A300014EE0FCA3E0FDA3E0FEA3E0FFE47B64AC
:1030B300FAF9F81215EAAC00AD01AE02AF039001C4
:1030C3004E12170BC20590011DE01350137F81129E
:1030D30035307F2F125E687D2F7FE87E03125147C4
:0130E30022CA
:105E26007BFF7A5A79BF125EE7E4FF124C57900166
:105E36000612170B7F01124C5790012712170B12EF
:105E460017E91257C2125847125BDB900120E06433
:105E5600017005122C8380031230E490010AE07071
:025E6600DE223A
:1058CB00125B891260C87BFF7A5A79D4125EE71299
:1058DB004AE9D2B4D2B5126284123D6E125B369095
:1058EB0001A2E0FF125EA97BFF7A5A79E49001A234
:1058FB00E0FF900209E4F0A3EFF0125EE7900113D2
:10590B00E0FFC413540713500A126203EF700490A4
:10591B00010AF090010AE0640178117008E654F076
:10592B004402F6800BE6540F4420F654F04401F683
:10593B00C20090010AE064017003125E2612503F10
:02594B0080F0EA
:10503F007BFF7A5A79F6125EE77811E654F0440155
:10504F00F690011DE0FF1313543F135004EF54FB70
:10505F00F090011DE054FEF07F1D125E6890011D5F
:10506F00E054BFF07F0A125E68E4900121F0F5B2C0
:10507F009002A4F01241091258471257C2125BDB7B
:10508F0090010AE06401605C900121E070297811C1
:10509F00E6FFC4540F6401701E900112E0FFC413A9
:1050AF001354031340119001217401F07D317F10CF
:1050BF007E2712514780C0126203EF6401600CE536
:1050CF00E8F4FF131313541F30E00CE4900121F0A8
:1050DF007F31125E6880A0900121E0640270981207
:1050EF00603D80937D017F147E00125D559002A07C
:1050FF0012171700000000E490011BF090014E12F0
:10510F00171700000000E4900156F0F542F54390A8
:10511F000114E054FEF0A3E054E04414F07811E6DB
:10512F0054F04402F67BFF7A5B7910125EE775E765
:02513F0020222C
:1048C90001108A41025300C187C10841025140C108
:0148D9008658
:105C2C001B5B306D001B5B303B33316D001B5B30FD
:105C3C003B33326D001B5B303B33336D001B5B30F1
:105C4C003B33346D001B5B303B33356D001B5B30DD
:105C5C003B33366D001B5B303B33376D00303132DC
:0E5C6C0033343536373839414243444546001B
:1048DA005802ADFF5C2CFF5C31FF5C39FF5C41FF85
:0B48EA005C49FF5C51FF5C59FF5C6102
:081D7000E0FBA3E0FAA3E0F997
:0B1D7800900234EBF0A3EAF0A3E9F0C6
:101D830090024212171700000001900234E0FBA3F7
:101D9300E475F0011214C7A9F0FA12138A90023AFB
:101DA300F070030222C524DB701B900234E0FBA316
:101DB300E0FAA3E0F912138AB42513900235E4750F
:101DC300F0011214B12002FD90023A02229BC209D3
:101DD300C20AE4900241F0900234E0FBA3E475F000
:101DE300011214C7A9F0FA12138A90023AF0E0FD27
:101DF300B4301BD209900234E0FBA3E475F0011266
:101E030014C7A9F0FA12138A90023AF0801FEDFF6B
:101E13003395E0FEC3EF9430EE64809480402CD37E
:101E2300EF9439EE64809480502190023AE024D0FC
:101E3300900241F0900234E0FBA3E475F001121428
:101E4300C7A9F0FA12138A90023AF0900240740282
:101E5300F090023AE024BE602B24E0602724F66071
:101E6300042420703C900234E0FBA3E475F00112DB
:101E730014C7A9F0FA12138A90023AF09002407440
:101E830004F0801D900234E0FBA3E475F00112140A
:101E9300C7A9F0FA12138A90023AF0900240740133
:101EA300F090023AE0FF24A8700302215424F57055
:101EB3000302227024F0700302222324FE600E2406
:101EC300FD7003022154241460030222A3900240F4
:101ED300E024FE604224FE607B24036003021F743F
:101EE300EF900237B46419E0FBA3E475F001121418
:101EF300C7A9F0FA12138AFF3395E0FEFDFC806B4D
:101F0300E0FBA3E475F0011214C7A9F0FA12138AD7
:101F1300FFE4FCFDFE805490023AE0900237B46483
:101F23001BE0FBA3E475F0021214C7A9F0FA121424
:101F3300DDFFAEF0EE3395E0FDFC8016E0FBA3E49D
:101F430075F0021214C7A9F0FA1214DDFFAEF0E423
:101F5300FCFD801790023AE0900237E0FBA3E475A2
:101F6300F0041214C7A9F0FA1216EB90023C1217F0
:101F73000B90023CE0FCA3E0FDA3E0FEA3E0FFEC3A
:101F83003350252002FD75992DD20290023CE0FCCE
:101F9300A3E0FDA3E0FEA3E0FF74FFFBFAF9F81250
:101FA300155F90023C12170B900241E06003022080
:101FB3003A90023CE0FCA3E0FDA3E0FEA3E0FFECCB
:101FC3004D4E4F700B2002FD759930D202021D8DCC
:101FD300E4900241F0A312171700000001900241A0
:101FE300E0C3940A74809480504D90023CE0FCA3BB
:101FF300E0FDA3E0FEA3E0FF900242E0F8A3E0F9D6
:10200300A3E0FAA3E0FB1215EAE4FBFAF9F8C31222
:1020130016A06023900242E0FCA3E0FDA3E0FEA330
:10202300E0FFE47B0AF812155F90024212170B904F
:102033000241E004F080A6E490023BF090024212D9
:10204300171700000001900241E024FFFFE434FF72
:10205300FE90023BE0FD3395E0FCC3ED9FEE648010
:10206300F8EC6480985025900242E0FCA3E0FDA3C5
:10207300E0FEA3E0FFE47B0AFAF9F812155F900291
:102083004212170B90023BE004F080BA90023CE04E
:10209300FCA3E0FDA3E0FEA3E0FF900242E0F8A36F
:1020A300E0F9A3E0FAA3E0FB1215EAEF2430FF9076
:1020B300023AF0BF3025200922E47F01FEFDFC90A7
:1020C3000242E0F8A3E0F9A3E0FAA3E0FBC312168F
:1020D300A0600890023A7420F08002D2092002FD29
:1020E30090023AE0F599D20290023CE0FCA3E0FDB5
:1020F300A3E0FEA3E0FF900242E0F8A3E0F9A3E02F
:10210300FAA3E0FB1215EAAC00AD01AE02AF0390F7
:10211300023C12170B900242E0FCA3E0FDA3E0FE99
:10212300A3E0FFE47B0AFAF9F81215EA90024212DF
:10213300170BE4FFFEFDFC900242E0F8A3E0F9A3D5
:10214300E0FAA3E0FBC31216A0600302208F021D76
:102153008D900240E024FE602224FE603924037047
:102163004E900237E0FBA3E475F0011214C7A9F007
:10217300FA12138AFFE4FCFDFE802E900237E0FB87
:10218300A3E475F0021214C7A9F0FA1214DDFFAE2E
:10219300F0E4FCFD8013900237E0FBA3E475F00448
:1021A3001214C7A9F0FA1216EB90023C12170B9007
:1021B3000241E07008900240E025E0A3F0E49002C1
:1021C3003BF0900241E0FF90023BE0FD3395E0FCE1
:1021D300C3ED9F7480F86C984003021D8D2002FDAF
:1021E30090023BE0FF900241E0C39F1425E025E00D
:1021F300F990023CE0FCA3E0FDA3E0FEA3E0FFA80E
:10220300011216C47E00EF540F2469F582EE345C8C
:10221300F583E493F599D20290023BE004F080A2A7
:10222300900237E0FBA3E475F0031214C7A9F0FA98
:10223300121748900246EBF0A3EAF0A3E9F09002EC
:1022430046E0FBA3E0FAA3E0F912138A7003021D30
:102253008D2002FD900246E0FBA3E475F001121409
:10226300C7A9F0FA12138AF599D20280D1900237E6
:10227300E0FBA3E475F0021214C7A9F0FA1214DD0F
:10228300FFAEF0EE3395E0FDFC90023C12170B20FD
:1022930002FD90023CA3A3A3E0F599D202021D8D97
:1022A300900237E0FBA3E475F0021214C7A9F0FA19
:1022B3001214DDFFAEF0E4FCFD90023C12170B029A
:0222C3001D8D6F
:0122C50022F6
:0B5EE700900206EBF0A3EAF0A3E9F044
:105EF2009002317401F0A37402F0A37409F09002CD
:105F020031E0F9A3E0FAA3E0900237C9F0A3EAF086
:105F1200A3E9F0900206121D70900231E4F0A3F0A2
:025F2200A3F0EA
:015F2400225A
:0B5F25009001FFEBF0A3EAF0A3E9F00D
:105F300090022A7401F0A37402F0A37402F090029C
:105F40002AE0F9A3E0FAA3E0900237C9F0A3EAF04F
:105F5000A3E9F09001FF121D7090022AE4F0A3F073
:025F6000A3F0AC
:015F6200221C
:0E5D9C00900205EFF0A3EBF0A3EAF0A3E9F00C
:105DAA009002317401F0A37402F0A37409F0900216
:105DBA0031E0F9A3E0FAA3E0900237C9F0A3EAF0D0
:105DCA00A3E9F0900206121D70900231E4F0A3F0EC
:075DDA00A3F090020504F0A4
:015DE100229F
:10609B000A0D537973506F776572496E6974696134
:1060AB006C2E2E4F4B2121000D0A28506F776572F5
:0D60BB005377697463683D25303278290001
:0448F50002110000AC
:1060C800D283C2A1D284D282C2A1C2B7C286C2EA96
:1060D800C2A6C2A2D2B6C2A0D2E8D2E97FC87E00C8
:0C60E8001262577BFF7A60799B025F25F3
:105847007811E6FF540F14602D24FA605024057078
:1058570063EFC4540F601024F960082406700DE448
:10586700FF80067F0380027F011260F47811E654FF
:105877000F4420F6803E7811E6C4540F600C24FED6
:10588700600C24FB700D7F0480067F0280027F0678
:105897001260F47811E6540F4410F680177811E679
:1058A700C4540F24FE70057F051260F47811E65486
:1058B7000F4470F67811E6FF54F0C4540FFEEF540E
:0458C700F04EF62287
:10442E00900203EFF07F22125E687F23125E687F98
:10443E0024125E687F25125E687F26125E687F27D3
:10444E00125E68900203E024F7700302469F24FC7C
:10445E00700302458C1470030244FD147003024570
:10446E00FD24FD70030246EF14700302470A240375
:10447E0060030247387DFF7F14125565900115E0E9
:10448E0054E04410F090011DE013400B90010AE03F
:10449E00640170030245287811E6C4540F64077056
:1044AE002D900112E0C413135403135002801A907E
:1044BE00010AE070057D1F0246C0900112E0541FF4
:1044CE00640470057D250246C07D230247317811B4
:1044DE00E6C4540F64027014900112E0541F640479
:1044EE0070057D260246C07D200247310246E790C8
:1044FE00011CE0640170047DFF80027D997F14121F
:10450E005565900115E054E0440EF090011DE01346
:10451E00400D90010AE0640170057D220246C078CC
:10452E0011E6C4540F6407701A900112E0C41313FD
:10453E00540313500B90011CE070057D270246C0FA
:10454E0002464D90010AE070199001F4E07013904C
:10455E0001F5E06401700B90011CE070057D2102F5
:10456E0046C09001F4E070139001F5E06401700B09
:10457E0090011CE070057D1E0246C0024688900127
:10458E001CE0640170047DFF8002E4FD7F1412556F
:10459E0065900115E054E0440DF090011DE01340CC
:1045AE000D90010AE0640170057D220246C078116B
:1045BE00E6C4540F64077019900112E0C41313542B
:1045CE000313500B90011CE070057D250246C08040
:1045DE006E9001F4E070139001F5E06401700B90A1
:1045EE00011CE070057D210246C07D1F02468A90A7
:1045FE00011CE0640170047DFF80027D997F14121E
:10460E005565900115E054E0440FF090011DE01344
:10461E00400D90010AE0640170057D220246C078CB
:10462E0011E6C4540F6407701B900112E0C41313FB
:10463E00540313500A90011CE070047D2780737D93
:10464E00220246E990010AE070189001F4E070121F
:10465E009001F5E06401700A90011CE070047D2168
:10466E0080509001F4E070129001F5E06401700A40
:10467E0090011CE070047D1E80387D207F647E00DA
:10468E001251477F1C125E687D1C7F887E13024785
:10469E00357DFF7F14125565900115E054E04409F5
:1046AE00F090011DE013400F90010AE064017007C5
:1046BE007D227F64FE80707811E6C4540F64027010
:1046CE00077D207F64FE805F7811E6C4540F640777
:1046DE0070077D237F64FE804E7D1F7F647E008089
:1046EE004690011DE0C4540F1350077F061253DF8E
:1046FE008002D2827D257F647E00802B90011DE09A
:10470E00C4540F13500EE4FF1253DF90011DE054FA
:10471E00EFF08002C28290011DE01350047D2080D4
:0B472E00027D257F647E0012514722AF
:1053DF00900204EFF07BFF7A6079B3900209E4F05A
:1053EF00A3EFF0125EE7900204E0B40A004003025C
:1053FF0054AE905408F828287302542602542602FB
:10540F00547502542602547502549F025475025467
:10541F00AE0254AE02544CC282D2B7D2EAD2A6D256
:10542F00A2C2B67F147E00126257D2A07D177FF4FE
:10543F007E011251477D0D7FE87E03804EC283D2DD
:10544F00A17F407E00126257C284D28690011DE078
:10545F00FF1313543F135009EF54FBF07F841235A1
:10546F003075B2308039C2A0D283D284C2A1D28229
:10547F00C2A1C2B7C2EAC2A6C2A2C286D2B6900168
:10548F001DE04420F07D307FB87E0B125147800F16
:10549F00C2A1D284C2B7C2EAC2A2C286E4F5B29058
:0954AF000115E054E04414F02260
:1060F4009001FFEFF024FE601A24FE601614601372
:1061040014601024FE600C240824F6500624F76062
:0C6114000280089001FFE0FF1253DF2220
:1048F900C10C4201AE00004201F202254201B2039D
:10490900704101F0004101A6004101A8014101F4F3
:10491900004101F5014101A5004101A7004101A99B
:10492900004101AA004101AB004101FE004101F82B
:10493900004101A4004101FA004101B1004101F91E
:10494900FF4101A3FE4101F6004101FD004101AD16
:10495900004101B0004101F1004101F7FF4101AC03
:09496900004101FC004101FB00CA
:046253007FF47E0155
:10625700EF4E6010C20C300CFDC20CEF1F70011E18
:05626700144E70F2224C
:1062C300EF75F003A424B5F582E43401F583E0FE11
:0462D300A3E0FF2223
:10629A00EF75F003A424B4F582E43401F583E0C376
:0562AA0013547FFF22E8
:1062D700EF75F003A424B4F582E43401F583E054A8
:0362E700FEF022A4
:10630E00EF75F003A424B4F582E43401F583E013B1
:01631E00225C
:105CC4009001AEE0FFA3E0900230CFF0A3EFF0909C
:105CD4000230E0FEA3E0FFC39001AFE09FFF90011C
:105CE400AEE09EFE12632ED3EF947FEE6480948028
:105CF400400F9001AEE0FFA3E0900230CFF0A3EF9D
:095D0400F0900230E0FEA3E0FF84
:015D0D002273
:084F110090022BEEF0A3EFF07B
:104F1900E4A3F0A3F0A3F0125CC490022EEEF0A378
:104F2900EFF090022BE0FEA3E0FFE4FCFD7B487A62
:104F3900EEF9F8C312168A500A90022B74EEF0A308
:104F49007448F090022BE0FEA3E0FF90022FE02FBF
:104F5900FF90022EE03EFEE4FCFD7B487AEEF9F874
:104F6900C312168A401F90022BE0FEA3E0FF9002B5
:104F79002EE0FCA3E0FD2FFFEC3EFED3ED9FEC9E5F
:104F89005003025036E49001AEF0A3F090022DF0E8
:104F990090022DE0FFC39414748094804003025062
:104FA9002FEF75F003A424B4F582E43401F583E00E
:104FB90054016401706790022DE0FF75F003A42489
:104FC900B5F582E43401F583E0FCA3E0FD90022EFF
:104FD900E0FAA3E0FBD3ED9BEC9A402CEF75F003CC
:104FE900A424B5F582E43401F583C083C082C3A348
:104FF900E09BFF0582D5820215831582E09AD08253
:10500900D083F0A3EFF0801590022DE075F003A492
:1050190024B5F582E43401F583E4F0A3F090022D80
:10502900E004F0024F99E490022EF0A3F090022ED2
:05503900E0FEA3E0FF12
:01503E00224F
:10003E00E4FFEFC39414748094805015EF75F003B1
:10004E00A424B4F582E43401F583E054FEF00F806D
:01005E00E1C0
:01005F00227E
:065141007D167F647E0074
:0B514700900227EEF0A3EFF0A3EDF0C4
:10515200E4A3F0F090022AE0FFC3941474809480D8
:10516200502EEF75F003A424B4F582E43401F583E4
:10517200E0FF540164017010EFC313547FFF9002EB
:1051820029E06F700302522590022AE004F080C4E5
:10519200E490022AF090022AE0FFC39414748094EF
:1051A200804003025225EF75F003A424B4F582E493
:1051B2003401F583E0FF5401706090022AE0FE752D
:1051C200F003A424B4F582E43401F583EF4401F042
:1051D200900229E0547F25E0FFEE75F003A424B489
:1051E200F582E43401F583E054014FF0900227E0A8
:1051F200FEA3E0FF124F11900228E02FFF9002273A
:10520200E03EFE90022AE075F003A424B5F582E4A4
:105212003401F583EEF0A3EFF02290022AE004F0CD
:035222000251979F
:015225002266
:105E6800E4FEEEC39414748094805034EE75F0030D
:105E7800A424B4F582E43401F583E0FD54016401FF
:105E8800701BEDC313547FB50713EE75F003A424FC
:105E9800B4F582E43401F583E054FEF0220E80C2AA
:015EA80022D7
:0B522600900200EEF0A3EFF0A3EDF00B
:10523100E4A3F0F0900203E0FFC39414748094801F
:10524100502DEF75F003A424B4F582E43401F58305
:10525100E0FF54016401700FEFC313547FFF90020C
:1052610002E0B507028064900203E004F080C5E427
:10527100900203F0900203E0FFC3941474809480C1
:105281004003025303EF75F003A424B4F582E43420
:1052910001F583E0FF54017060900203E0FE75F0B8
:1052A10003A424B4F582E43401F583EF4401F090C2
:1052B1000202E0547F25E0FFEE75F003A424B4F56B
:1052C10082E43401F583E054014FF0900200E0FEE6
:1052D100A3E0FF124F11900201E02FFF900200E0C6
:1052E1003EFE900203E075F003A424B5F582E43498
:1052F10001F583EEF0A3EFF022900203E004F00247
:025301005275E3
:015303002287
:104DB600EF14B410004003024F10904DCE75F0036F
:104DC600A4C58325F0C58373024E00024E00024E31
:104DD60000024E14024E63024E77024E93024EC6F6
:104DE600024F10024EF1024F06024F10024F090207
:104DF6004F10024E18024E1C80009001A2E0FF12D6
:104E06005EA99001A2E0FD7F117E00025D557F80C4
:104E1600805C7F878058900120E06401701CFD7FD4
:104E260023FE125D55E4FD7F24FE125D55E4FD7FF1
:104E360025FE125D55900127801BE4FD7F26FE129C
:104E46005D55E4FD7F27FE125D55E4FD7F28FE12C9
:104E56005D559001061217170000000022900112FE
:104E6600E0C413135403134003024F107F8302352B
:104E76003090011DE0FF1313543F135003024F10EF
:104E86007811E654F04407F6EF4404F0229002A0AD
:104E96001217170000000090029712171700000063
:104EA60000E490011BF090014E121717000000005D
:104EB600E4900156F0900295F0A3F090029DF02246
:104EC60090011DE0FF131313541F135019EF54F7ED
:104ED600F054FEF07F1212442E7D087FB87E0B122E
:104EE6005147E4F5B2227F1302442E90011DE0449F
:104EF60040F07F821235307D0A7F987E3A02514714
:0B4F0600026146D2B77F091253DF2280
:1057C200E49001FFF0A3F0A3F0A3F09001FFF090AA
:1057D20001FFE0C39414748094805068125CC490FA
:1057E2000201EEF0A3EFF09001FFE0FF12630E5012
:1057F2004B9001FFE0FF1262C3D3900202E09F9040
:105802000201E09E40369001FFE0FF1262D7900154
:10581200FFE0FF12629A900200EFF0C394117480CD
:1058220094805007E0FF124DB68011900200E0FF15
:10583200C394327480948050031200669001FFE09A
:0458420004F0808B63
:01584600223F
:10006600EF24EEB420004003020F3690007F75F0B7
:1000760003A4C58325F0C583730201660203EB0260
:100086000F3602081B0207A50201DA020AD8020E81
:1000960064020CBA020808020C65020ABB0200EBF5
:1000A6000200DF0200E30200E70200F00200FC02A9
:1000B600010602011002011A02012402012E020E9B
:1000C600A9020EC8020EBA020ED6020EE4020EF302
:1000D6000201C10201D2020F307F1F800A7F2080F9
:1000E600067F2180027F1E025A467F22125A467DD3
:1000F600227FFA0207FA7F22125A467D23020AD18C
:100106007F24125A467D24020AD17F25125A467D43
:1001160025020AD17F26125A467D26020AD17F275A
:10012600125A467D27020AD17F1F125A467F211294
:100136005A461262537F1F125A461262537F211289
:100146005A461262537F1F125A461262537F211279
:100156005A461262537F1F125A46126253020CB05D
:10016600126203EF64017024900112E0C413135469
:10017600031340427F1912630E5008125E687D1900
:100186001251437F1812630E502C8022900112E008
:10019600C41313540313501E7F1912630E50081212
:1001A6005E687D191251437F1812630E5008125E65
:1001B600687D181251437D12020AD190011DE01389
:1001C60050057F811235307D2F020AD190011DE046
:1001D60054DFF0221263549001B2EEF0A3EFF01256
:1001E600634D9001F2EEF0A3EFF09001B2E0FEA3B2
:1001F600E0FFD3948AEE940250099001F97415F049
:100206000202F0D3EF948AEE94024012D3EF94994F
:10021600EE940250099001F97418F00202F0D3EF3F
:100226009499EE94024012D3EF94A8EE94025009EA
:100236009001F97404F00202F0D3EF94A8EE940250
:100246004012D3EF94FBEE940250099001F9740327
:10025600F00202F0D3EF94FBEE94024011D3EF9438
:1002660022EE940350089001F97402F0807CD3EFDB
:100276009422EE94034011D3EF9450EE9403500869
:100286009001F97401F08062D3EF9450EE9403402C
:1002960010D3EF9475EE94035007E49001F9F080C3
:1002A60049D3EF9475EE94034013D3EF94C0EE94C4
:1002B60003500A90010AE064017002801F9001B2A7
:1002C600E0FEA3E0FFD39475EE94034017D3EF94BA
:1002D600C9EE9403500E90010AE070089001F9747B
:1002E60016F080069001F97417F09001F9E0541F9A
:1002F600FF900112E054E04FF09001B2E0FFA3E05E
:10030600900116CFF0A3EFF09001F2E0FEA3E0FF1C
:10031600D394AFEE94005010EF9414EE940040087E
:100326009001F77406F08074D3EF94AFEE9400401A
:1003360011D3EF94DEEE940050089001F77419F093
:10034600805AD3EF94DEEE9400400BD3EF947BEE0D
:10035600940250028040D3EF947BEE94024011D376
:10036600EF94E5EE940250089001F7741AF0802C91
:10037600D3EF94E5EE94024011D3EF94A0EE9403EC
:1003860050089001F77408F08012900112E04420A2
:10039600F054E04409F09001F77407F0900115E07D
:1003A600541F640970069001F77407F09001F7E096
:1003B600541FFF900113E054E04FF0A280E4339005
:1003C60001A6F0E0FF9001F4E06F6002EFF0A28179
:1003D600E4339001A8F0E0FF9001F5E06F700302AE
:1003E6000F36EFF0221263549001B2EEF0A3EFF055
:1003F600900116EEF0A3EFF0900112E0C41354073B
:10040600135025E49001A5F09001A7F09001A9F002
:10041600A3F0A3F09001FEF09001F8F09001A4F093
:100426009001FAF09001F9F09001B2E0FEA3E0FF2E
:10043600D3948AEE9402501BE49001A5F09001A794
:10044600F09001A9F0A3F0A3F09001FEE004F0E41F
:10045600020516D3EF948AEE9402402FD3EF9499B7
:10046600EE94025026E49001A5F09001A7F09001C9
:10047600A9F0A3F0A3F09001FEF09001F8F090012E
:10048600A4F09001FAE004F0020625D3EF9499EE69
:1004960094024022D3EF94A8EE940250199001A53D
:1004A600E004F0E49001A7F09001A9F0A3F0A3F016
:1004B6009001FEF0805AD3EF94A8EE94024027D321
:1004C600EF94FBEE9402501EE49001A5F09001A774
:1004D600E004F0E49001A9F0A3F0A3F09001FEF08F
:1004E6009001F80205FED3EF94FBEE9402402BD365
:1004F600EF9422EE94035022E49001A5F09001A718
:10050600F09001A9E004F0E4A3F0A3F09001FEF05E
:100516009001F8F09001A40205FED3EF9422EE9428
:1005260003402BD3EF9450EE94035022E49001A5A0
:10053600F09001A7F09001A9F0A3E004F0E4A3F085
:100546009001FEF09001F8F09001A40205FED3EFB1
:100556009450EE9403402AD3EF9475EE9403502101
:10056600E49001A5F09001A7F09001A9F0A3F0A3F3
:10057600E004F0E49001FEF09001F8F09001A48010
:1005860077D3EF9475EE94034031D3EF94C0EE9495
:1005960003502890010AE0640170209001A5F090B4
:1005A60001A7F09001A9F0A3F0A3F09001FEF0904E
:1005B60001F8E004F0E49001A4803D9001B2E0FE71
:1005C600A3E0FFD39475EE94034030D3EF94C9EEC5
:1005D6009403502790010AE070219001A5F0900144
:1005E600A7F09001A9F0A3F0A3F09001FEF090010E
:1005F600F8E004F0E49001A4F08020E49001A5F076
:100606009001A7F09001A9F0A3F0A3F09001FEF0ED
:100616009001F8F09001A4E004F0E49001FAF0C330
:100626009001B3E094BC9001B2E0940240089001BE
:10063600B1E004F08005E49001B1F09001A5E0641A
:1006460014700B9001F97404F0E49001A5F0900188
:10065600A7E06414700B9001F97403F0E49001A70D
:10066600F09001A9E06414700B9001F97402F0E4B3
:100676009001A9F09001AAE06414700A9001F904AF
:10068600F0E49001AAF09001ABE0641470089001C8
:10069600F9F09001ABF09001FEE06414700B90014C
:1006A600F97415F0E49001FEF09001F8E06414701E
:1006B60009A37416F0E49001F8F09001FAE06414CE
:1006C60070099001F97418F0E4A3F09001F8E06461
:1006D600147009A37416F0E49001F8F09001A4E0F8
:1006E6006414700B9001F97417F0E49001A4F09073
:1006F60001F9E0FF9001A3E06F600BEFF0900115A8
:10070600E054E04414F090011CE06401703890015C
:10071600F9E0FFD3940474809480400AEF64156076
:1007260005EF64187020E490011CF07F29FE126129
:1007360020EF64017007FD7F29FE125D55900115BB
:10074600E054E04414F09001B1E06414703090017C
:1007560013E0FFC413540713501FEF54DFF090014A
:1007660015E054E04414F07F137E00126120EF6020
:1007760008E4FD7F13FE125D55E49001B1F090018F
:10078600F9E0541FFF900112E054E04FF090010A87
:10079600E07D137003020AAE7F2C7E01020F2D90BE
:1007A600011DE01313543F1350097811E654F04429
:1007B60002F62290010AE0640170087D0A7F64FE59
:1007C600020F2D90011DE0C413540713402B900116
:1007D60013E0FFC4135407135008126203EF6401B9
:1007E600700E90010A7401F0FD7F107E00025D55C7
:1007F6007D287F0A7E00020F2D7D167FB87E0B02B4
:100806000F2D90010AE064016003020F367D0A7F16
:1008160064FE020F2D12634D9001F2EEF0A3EFF08D
:10082600D394AFEE94005022E094149001F2E09439
:10083600004017E49001F6F09001FDF09001ADF054
:100846009001B0E004F0E402091D9001F2E0FEA37D
:10085600E0FFD394AFEE94004023D3EF94DEEE9402
:1008660000501AE49001F6F09001FDF09001ADF011
:100876009001B0F09001F1E004F0020921D3EF9469
:10088600DEEE9400401ED3EF947BEE94025015905A
:1008960001F6E004F0E49001FDF09001ADF0900166
:1008A600B0F08073D3EF947BEE9402401FD3EF94A5
:1008B600E5EE94025016E49001F6F09001FDF090FA
:1008C60001ADE004F0E49001B0F0804BD3EF94E585
:1008D600EE9402401FD3EF94A0EE94035016E490DA
:1008E60001F6F09001FDE004F0E49001ADF0900116
:1008F600B0F08023900112E04420F054E04409F067
:100906009001F77407F0E49001F6F09001FDF09085
:1009160001ADF09001B0F09001F1F09001F6E0D356
:1009260094037480948050309001FDE094037480A9
:10093600948050249001ADE0940374809480501804
:100946009001B0E0940374809480500C9001F1E023
:10095600940374809480401F900168E064017017CE
:1009660090010AE07011900112E0C413540713506D
:100976000690010A7401F09001B0E0640A701C90C0
:1009860001F77406F0E49001B0F0900114E054FD14
:10099600F054FBF0900112E054DFF09001F1E064B6
:1009A6000A701C9001F77419F0E49001F1F09001BF
:1009B60014E04402F054FBF0900112E054DFF09092
:1009C60001F6E0640A701AA37407F0E49001F6F0E9
:1009D600900114E054FBF054FDF0900112E054DF56
:1009E600F09001ADE0640A701C9001F7741AF0E40F
:1009F6009001ADF0900114E04404F054FDF0900134
:100A060012E054DFF09001FDE0640A701C9001F7DB
:100A16007408F0E49001FDF0900114E054FBF054EA
:100A2600FDF0900112E054DFF09001F7E0541FFF53
:100A3600900113E054E04FF09001F2E0FEA3E0FFD6
:100A4600D394DEEE94004009D3EF9415EE94034060
:100A56000D9001FCE004F0E49001FBF0800BE490C3
:100A660001FCF09001FBE004F09001FCE0640A70E8
:100A76001FF0900112E0FFC413135403135021EF2B
:100A8600C4135407134019900114E04408F0801071
:100A96009001FBE0640A7008F0900114E054F7F04E
:100AA60090010AE07D1570067F64FE020F2D7FC857
:100AB6007E00020F2D90011DE0FFC31313500302A9
:100AC6000F36EF4408F04410F07D087FE87E0302FD
:100AD6000F2D126203EF64016003020C2A900112CB
:100AE600E0FFC41313540313402CEF4440F0C2EA52
:100AF600A280E4339001A6F0E0FF9001F4E06F607D
:100B060002EFF0A281E4339001A8F0E0FF9001F536
:100B1600E06F6002EFF0900112E0C4135407135027
:100B2600057D2D020C1B7811E6C4540F6402704437
:100B3600900113E0FF541F6407702CEFC413135485
:100B460003134023A3E0FF13401DEF131313541F99
:100B5600134014900113E0C41354071340047D2A74
:100B660080027D29020C1B900115E0541F64097058
:100B76004F020C127811E6C4540F640770449001BA
:100B860013E0FF541F6407702BEFC41313540313B1
:100B96004022A3E0FF13401CEF131313541F13400E
:100BA60013900113E0C41354071340047D2A8002F6
:100BB6007D298061900115E0541F64097002804C04
:100BC60080517811E6C4540F64017050900113E00F
:100BD600FF541F6407702BEFC413135403134022F2
:100BE600A3E0FF13401CEF131313541F134013907D
:100BF6000113E0C41354071340047D2B80027D29A2
:100C06008013900115E0541F640970077D2D7F64E1
:100C1600FE80067D2C7F647E001251477D187F88FA
:100C26007E138035900112E054BFF0C2EA4480F092
:100C3600A3E054BFF0900168E06401700D90010AD2
:100C4600E0640170057F821235307D2C7FF47E01D1
:100C56001251477D197FF47E01125147C2EA2220C4
:100C66008003020F36208103020F3690011CE060DC
:100C760003020F36126203EF64016003020F36901F
:100C86000112E0541FFF64166008EF641760030248
:100C96000F3690011C7401F07F297E00126120EF4F
:100CA60070087D017F29FE125D55900115E054E024
:100CB6004414F022A280E4339001A6F0A281E4332A
:100CC6009001A8F09001A6E0FF9001F4E06F601992
:100CD600900112E0C413540713400E9001F4EFF094
:100CE600900115E054E04414F09001A8E0FF900153
:100CF600F5E06F6019900112E0C413540713400E1B
:100D06009001F5EFF0900115E054E04414F09001E5
:100D160014E0FF134018900117E094FF900116E0CD
:100D26009403400AEF4401900114F01251419001DE
:100D360012E0541F24FC4003020E4D7003020E31D4
:100D460024EF6056147003020E4D24FE604C0460BE
:100D560003020E5B900113E0FFC413135403134008
:100D660004EF4440F0900113E0FFC41354071350FE
:100D76001FEF54DFF0900115E054E04414F07F13A8
:100D86007E00126120EF6008E4FD7F13FE125D55C0
:100D9600900114E054EFF0020E5B900113E0FFC4E3
:100DA60013540713402F90011DE0134028900112A1
:100DB600E0C41313540313401CEF4420A3F07F1325
:100DC6007E00126120EF70087D017F13FE125D55D3
:100DD6001251418035900112E0FF541F6415702AAC
:100DE60090010AE064017022EFC413135403134008
:100DF60019E4F0FD7F10FE125D5590011DE0FF1312
:100E060013543F135004EF54FBF090011DE01313ED
:100E1600543F1350087811E654F04402F69001133B
:100E2600E054BFF0A3E04410F0802A900113E05490
:100E3600BFF090011DE01313543F1350187811E6CC
:100E460054F04402F6800E900114E04410F0900134
:100E560013E054BFF07D1A7F887E13020F2D1262B5
:100E660003EF64017027900168E06401700E900141
:100E76000AE070087D167F64FE125147900115E066
:100E860054E04414F07D187F647E00801020A60292
:100E9600C2EA7D2C1251437D197F887E1312514779
:100EA600C2EA22900115E0541F640E7003020F3649
:100EB6007F0E8036900115E0541F640D60727F0D21
