:030000000247A212
:0C47A200787FE4F6D8FD7581790247E9C4
:102ADE000D0A507265762E46573A253032782530DB
:102AEE00327825303278000D0A437572722E4657B1
:102AFE003A253032782530327825303278000D0A7A
:102B0E0043616E6E6F742061636365737320454518
:102B1E0050524F4D21212121000D0A4E6F20696E1A
:102B2E00697469616C697A65000D0A53797374650D
:102B3E006D20686173206265656E20776F726B69B8
:102B4E006E6720666F7220256420646179732C2075
:102B5E00256420686F7572732C202564206D696E54
:102B6E007574657320616E64202564207365636FD0
:102B7E006E6473000D0A53797374656D206861730A
:102B8E00206265656E20776F726B696E6720666F67
:102B9E007220256420686F7572732C202564206D59
:102BAE00696E7574657320616E642025642073658B
:102BBE00636F6E6473000D0A53797374656D2068CC
:102BCE006173206265656E20776F726B696E672028
:102BDE00666F72202564206D696E75746573206151
:102BEE006E64202564207365636F6E6473000D0A36
:102BFE0053797374656D20686173206265656E200C
:102C0E00776F726B696E6720666F72202564207312
:102C1E0065636F6E6473000D0A2842617474657289
:102C2E00794254483D256429002854454D505F4E45
:102C3E004F524D414C29002854454D505F4849474D
:102C4E004829002854454D505F4C4F5729000D0A16
:102C5E0028426174746572794341503D25642900A0
:102C6E0028484947485F4348415247452900284C68
:102C7E004F575F43484152474529002853544F5000
:102C8E005F4348415247452900284E4F5F42415409
:102C9E005429000D0A28504F5745525F5354415442
:072CAE0055533D2564290088
:103BC7004102200041022100410215004102170075
:103BD700410218004102130041020C004102230078
:103BE70002400000014600C101C100024700000178
:103BF700440001450002740000046900000000044D
:103C07006D00000000C10441020D01017200014274
:103C170000014300C102C1034102160041020E0028
:103C27004102190044021C0000000042021A000071
:103AB6001246739001061208147F047E001253E822
:103AC6007E00C007C0067F051253E87E00C007C00F
:103AD600067F061253E8900133E4F0A3EFF090015D
:103AE60031D0E0F0A3D0E0F090012FD0E0F0A3D0E9
:103AF600E0F07BFF7A2A79DE124FF0124673E47B00
:103B060001FAF9F8C31207CF605E7BFF7A2A79F5CE
:103B1600E490012FF0A3F0A3F0A3F0A3F0A304F028
:103B2600124FF012502E7F047E001253E87E00C022
:103B360007C0067F051253E87E00C007C0067F0651
:103B46001253E8900133E4F0A3EFF0900131D0E096
:103B5600F0A3D0E0F090012FD0E0F0A3D0E0F07B0E
:103B6600FF7A2A79F5124FF0124673E47B01FAF9CF
:103B7600F8C31207CF701E7F01FEFDFC900106E020
:103B8600F8A3E0F9A3E0FAA3E0FBC31207CF601E97
:103B960012540E80197BFF7A2B790C124FF07BFFA3
:103BA6007A2B7927124FF09001D574FFF0227F64AB
:103BB6001255457814E6540F4410F654F04402F6B4
:013BC60022DC
:104D8300758DF4759850758922758855758A4075A7
:104D93008C4075878075B80275A892D299D2ACE41D
:104DA300F5C8C2CAD2AD75AA5075BAF443A6184362
:104DB300AD10C203F5E9F5F9F5D943D840439104A1
:0B4DC30075B120F5B275B30CF5B422F9
:10555D003085107F327E001255893085037F012200
:06556D007F00227F0022F6
:1052BA00EF602624EB60152416602224EB7021751A
:1052CA00EC80C374FF9DF5FC75DC422275ED80C34A
:1052DA0074FF9DF5FD75DD422243D8402253D84024
:0152EA0022A1
:03000B0002261AB0
:0B261A00C0E0C083C082C0D075D008B3
:1026250005730545C3E545940A748094804013906D
:1026350001E8E004F070069001E7E004F07545005C
:10264500D209D3E57394607480948050030228A066
:10265500054AE54A700205497573000544E5446479
:10266500647010F544E5469002166005E004F080BC
:1026750002E4F0E575F47003E574F460080575E5AA
:102685007570020574AF70AE6FAD6EAC6DEC4D4EEE
:102695004F6014EF24FFF570EE34FFF56FED34FF56
:1026A500F56EEC34FFF56D90020FE07002A3E0606B
:1026B5000E900210E024FFF090020FE034FFF0903E
:1026C5000214E0600214F0900214E0600302284452
:1026D500E5B0540C13135403FF90021FE06F700311
:1026E50002284490021DE090021CF090021EE0902A
:1026F500021DF090021FE090021EF0A3EFF0D2053C
:102705009002147430F090021CE0FF7E007020A34C
:10271500E06401701AA3E064037014A3E06402701E
:102725000E90021BE004F0700690021AE004F0EF30
:1027350064014E702090021DE064037018A3E064EC
:10274500027012A3E0700E90021BE004F070069078
:10275500021AE004F090021CE06403701EA3E0641A
:10276500027018A3E07014A3E06401700E90021BC0
:10277500E004F0700690021AE004F090021CE0FFFD
:102785007E006402701EA3E0701AA3E06401701459
:10279500A3E06403700E90021BE004F07006900243
:1027A5001AE004F0EF4E702290021DE06402701AE8
:1027B500A3E064037014A3E06401700E90021BE0B3
:1027C50024FFF090021AE034FFF090021CE064024E
:1027D500701EA3E064037018A3E064017012A3E007
:1027E500700E90021BE024FFF090021AE034FFF017
:1027F50090021CE0FF7E006403701EA3E06401707C
:1028050018A3E07014A3E06402700E90021BE0248C
:10281500FFF090021AE034FFF0EF64014E70209053
:10282500021DE0701AA3E064027014A3E064037053
:102835000E90021BE024FFF090021AE034FFF0E551
:10284500E8F4FF131313541F30E027E541B42018B3
:10285500E540B40313754601D200D20175400075F9
:1028650041329002237401F00541E541702D054088
:102875008029C3E5419432E540940040139002233A
:10288500E0700D754601C200D201F540F541800B9F
:0B289500900223E4F0F540F541F54609
:0928A000D0D0D082D083D0E03208
:10331000900217E0FF60327BFF7A2B793790010F24
:10332000E4F0A3EFF0900218E0FF900111E4F0A3A5
:10333000EFF0900213E0FF900113E4F0A3EFF090A0
:10334000020CE0FF9001158057900218E0FF602505
:103350007BFF7A2B798290010FE4F0A3EFF09002CB
:1033600013E0FF900111E4F0A3EFF090020CE0FFF6
:10337000900113802B900213E0FF7BFF60167A2BE5
:1033800079C490010FE4F0A3EFF090020CE0FF90FD
:103390000111800C7A2B79FC90020CE0FF90010F58
:1033A000E4F0A3EFF07F03124C387BFF7A2C7925F1
:1033B00090020AE0FFA3E090010FCFF0A3EFF07FAF
:1033C00002124C389001BFE054076406700A7BFF7C
:1033D0007A2C79377F02801A9001BFE05407640588
:1033E0007BFF70087A2C79457F0180067A2C795111
:1033F0007F04124C387BFF7A2C795C9001C1E0FF8E
:10340000A3E090010FCFF0A3EFF07F05124C3890AE
:1034100001C0E0540F640C700A7BFF7A2C796E7F38
:1034200002803A9001C0E0540F640D700A7BFF7A6D
:103430002C797C7F0380269001C0E0540F640E70CD
:103440000A7BFF7A2C79897F0180129001C0E054B9
:103450000F6408700B7BFF7A2C79977F01124C3830
:103460007BFF7A2C79A17814E6C4540FFF90010FEA
:0A347000E4F0A3EFF07F06024C38F1
:10557300E4FFEFC3941D74809480500974222FF8C4
:05558300E4F60F80EDCD
:015588002200
:104B1800EF24E7B40800505E904B2E75F003A4C54F
:104B28008325F0C58373024B52024B46024B500259
:104B38004B4B024B54024B5C024B66024B73D2E95F
:104B4800D2E822D2E8C2E9228005801530E817C2EF
:104B5800E8D2E92230E905C2E9D2E822800830E843
:104B680005C2E8C2E922D2E8D2E92230E904C2E962
:074B78008002D2E9C2E8222D
:030013000256E4AE
:0356E400C2AA3225
:030023000252EB9B
:1052EB00C0E0C0D075D008309819744B2571F8A662
:1052FB00990571C3E571941E748094804003757198
:0F530B0000C298309904C299C202D0D0D0E032CB
:0300630002506ADE
:10506A00C0E0C0D075D008E5AA54016401701A5393
:10507A00AAFE74222542F8A69A0542C3E542941E66
:10508A00748094804003754200E5AA540264027059
:0B509A000553AAFDC203D0D0D0E032C5
:0B567F00E571B572037F00227F01225D
:1054F500C2AC744B2572F8E6FF0572E572C3941EC3
:0B550500748094804003E4F572D2AC87
:015510002278
:0B568A00E542B543037F00227F0122B0
:1054D70053ADEF74222543F8E6FF0543E543C39434
:0D54E7001E748094804003E4F54343AD1033
:0154F4002295
:080003002002FD8F99D20222B8
:0856A9002003FD8F9AD20322B9
:03002B0002562357
:0F562300C0E0C2CF0548E54870020547D0E0322D
:10554500E5442FFFE433FE7C007D64120555E544F8
:07555500B505FBE4B504F706
:01555C00222C
:1055EE000D0A436C656172426173696345452E2EE7
:0255FE002E007D
:1046730090010A12082000000000E4FFFE1253E834
:10468300EF6430600280287F017E001253E8EF64FC
:10469300376002801A7F027E001253E8EF643060B5
:1046A30002800C7F037E001253E8EF64496006E446
:1046B300FFFEFDFC227F057E001253E8EF7F00FE24
:1046C300C007C0067F047E001253E87E00EF781017
:1046D300C333CE33CED8F9FDD0E04EFED0E04DFF4C
:1046E300C007C0067F067E001253E8EFFDD0E0FE50
:1046F300D0E04DFFEE3395E0FDFC90010A12081463
:0E47030090010AE0FCA3E0FDA3E0FEA3E0FFAE
:014711002285
:10502E007D30E4FFFE124E617D377F017E00124E11
:10503E00617D307F027E00124E617D497F037E00CE
:10504E00124E61E4FD7F04FE124E61E4FD7F05FE0B
:0C505E00124E617D017F067E00024E6153
:0756C1007F077E000253E8A1
:0956A000AD077F077E00024E6198
:10540E007BFF7A5579EE124FF07D017F107E0012F0
:10541E004E617D327F117E00124E61E4FD7F07FEEC
:03542E00024E61CA
:103998000D0A28474F542055415254204441544160
:1039A80029002831290028322900283329000D0A46
:1039B80028576F726B20434D443D253032782900DB
:1039C8000D0A28434D443A5359532052454144590E
:1039D80029000D0A28434D443A574454206B696323
:1039E8006B29000D0A28434D443A454E5452595FFD
:1039F800534C45455029000D0A28434D443A444943
:103A08005354414E43455F524553455429000D0ACE
:103A180028434D443A454E434F4445525F5345541D
:103A280029000D0A28434D443A43414D4552415F10
:103A3800564F4C5441474529000D0A28434D443AF6
:103A480053544F505F5245424F4F5429000D0A2896
:103A5800434D443A4745545F4D43555F4657290007
:103A68000D0A28434D443A4456525F5245424F4F3F
:103A78005429000D0A28434D443A4456525F53488E
:103A88005554444F574E29000D0A28434D443A4D8A
:103A980043555F454E5445525F4953505F4D4F441F
:0E3AA800452900284353206572726F72290071
:043C37004101050042
:0923770012568AEF7003022619C8
:102380001254D7900106EFF0647E70197BFF7A3902
:1023900079987F06124C38C20D9001057401F0E463
:1023A000900003F022900106E0FF647D7003D20DDF
:1023B00022300D09C20DEF4470900106F090010526
:1023C000E0FB64046010900003E0FE900106E0FD75
:1023D000EE6D900003F0EB24FE602E146067147025
:1023E0000302249B24036003022619900106E09057
:1023F0000002F01424F9500A24F824FD500424E3C8
:1024000070409001057402F022900106E0900001F6
:10241000F0A3E01424F9500A24F824FD500424E326
:102420007020900001E070079001057404F022E430
:10243000900000F09001057403F07BFF7A3979AACF
:102440008051022614900002E01424F9500A24F866
:1024500024FD500424E37040900106E0FF9000004A
:10246000E02405F582E43400F583EFF0900000E00D
:1024700004F0A3E0FF900000E0B50711900105749F
:1024800004F07BFF7A3979AE7F06124C387BFF7AF5
:102490003979B27F06024C38022614900106E0FF1B
:1024A000900003E06F600302260B7BFF7A3979B658
:1024B000900002E0FF90010FE4F0A3EFF07F06121E
:1024C0004C38900002E012087124EE012509022523
:1024D0002003253404254805255C06257A07258D2B
:1024E0001025A01125C51225F530000026147BFF0C
:1024F0007A3979C87F06124C389001C6E04401F061
:102500007D187F107E270226067BFF7A3979DA7FD5
:1025100006124C387D187F107E27123DA402261427
:102520007BFF7A3979EB7F06124C387D067FE87E97
:10253000030226067BFF7A3979FF7F06124C387D2D
:10254000077FE87E030226067BFF7A3A79167F062C
:10255000124C387D0C7FE87E030226067BFF7A3A18
:10256000792A7F06124C38900005E060047D0280D5
:10257000027D037FE87E030226067BFF7A3A7941DB
:102580007F06124C387D097FFA7E0080797BFF7AC6
:102590003A79557F06124C387D047FE87E038066C9
:1025A0007BFF7A3A79687F06124C389001C6E04486
:1025B00008F054FEF07D087FE87E03123CC57F18CA
:1025C000124F30804F7BFF7A3A797B7F06124C386E
:1025D0009001B7E06401703C9001C6E0FFC4540F65
:1025E000135031EF54EFF0E49001B7F0FD7F10FE8F
:1025F000124E61801F7BFF7A3A79907F06124C3829
:102600007D0B7FE87E03123CC580097BFF7A3A7917
:09261000AB124EB0E4900105F09C
:01261900229E
:0455B3009291D2906F
:0F55B700E4FFEFC394017480948050030F80F3DE
:0155C60022C2
:0B4E610090010AEEF0A3EFF0A3EDF0CB
:104E6C0090010AE0FEA3E07807CEC313CE13D8F965
:104E7C0044A054FE90010DF012560090010DE0FF7D
:104E8C00124A3390010AA3E0FF124A3390010CE05E
:0C4E9C00FF124A331200167F0202554537
:0453E800AD07AC065B
:1053EC00ED7807CEC313CE13D8F944A054FEFF12A8
:1053FC0050A590010EEFF07F0212554590010EE082
:01540C00FFA0
:01540D00227C
:0850A50090010FEFF0A3EDF004
:1050AD0012560090010FE0FF124A33900110E0FFFD
:1050BD00124A3312560090010FE04401FF124A3399
:1050CD001251EF900111EFF0120016900111E0FF57
:0150DD0022B0
:1053710090010DEFF0A3EDF0A3EBF01256009001B8
:105381000DE0FF124A3390010EE0FF124A33900103
:095391000FE0FF124A330200167E
:0156EB00229C
:10560000D2911255B7D2901255B7C2911255B7C266
:025610009022E6
:0D001600C2911255B7D2901255B7D2912267
:104A3300AE07C290EE30E703D38001C31255B3C271
:104A430090EE30E603D38001C31255B3C290EE302B
:104A5300E503D38001C31255B3C290EE30E403D310
:104A63008001C31255B3C290EE30E303D38001C378
:104A73001255B3C290EE30E203D38001C31255B393
:104A8300C290EE30E103D38001C31255B3C290EE5E
:104A930030E003D38001C31255B3C290C290C290D9
:0B4AA300D291D290D290D290C290220B
:1051EF00E4FED2911255B7C290E4FDFCD290EE25A9
:1051FF00E0FE3091034401FEC2900DBD00010CEDA5
:10520F0064084C70E71255B7D290D290D290C290EA
:02521F00AF06D8
:01522100226A
:10493900AE07C290EE30E703D38001C31255B3C26C
:1049490090EE30E603D38001C31255B3C290EE3026
:10495900E503D38001C31255B3C290EE30E403D30B
:104969008001C31255B3C290EE30E303D38001C373
:104979001255B3C290EE30E203D38001C31255B38E
:10498900C290EE30E103D38001C31255B3C290EE59
:1049990030E003D38001C31255B3C290C290C290D4
:0E49A900D2911255B7D290D290D290C29022E5
:10002E00E4FED2911255B7C290E4FDFCD290EE25BB
:10003E00E0FE3091034401FEC2900DBD00010CEDB7
:10004E0064084C70E7D291D290D290D2901255B7EC
:04005E00C290AF0697
:01006200227B
:1051BB00E4FED2911255B7C290E4FDFCD290EE25DD
:1051CB00E0FE3091034401FEC2900DBD00010CEDD9
:1051DB0064084C70E7C2911255B7D2901255B7C202
:0351EB0090AF067C
:0151EE00229E
:024EEE00AC070F
:104EF000125600AF04124A33AF05124A331256005D
:104F0000EC4401FF124A331251BB90023FE4F0A37C
:104F1000EFF0E0F8E4F0E890023FF01251EFE0F03B
:0F4F2000A3E04FF012001690023FE0FEA3E0FF67
:014F2F00225F
:04549700AB07AA06AF
:10549B007E5E1256007F5E124939AF03124939AF57
:0C54AB00051249391200167F0202554517
:0450DE00AD07AC0668
:1050E2007B5E1256007F5E124939AF05124939E4E0
:1050F200FF124939125600745E4401FF12493912F7
:10510200002E900108EFF01200167F021255459012
:045112000108E0FFB1
:015116002276
:105347007F01125511EF6021900223E06401701074
:105357009001B7E0640170087D057FF47E01800647
:0A5367007D137F647E00123CC52216
:10551100A201920BC201200B037F0022EF6003AFB7
:0A5521004622200003AF46227F005F
:01552B00225D
:103734000D0A456E636F72646572436F756E7454DF
:10374400656D703D256420000D0A456E636F7264DB
:1037540065724C656E5F4F66667365743D256420C3
:10376400000D0A456E636F72646572436F756E7403
:10377400504E3D256420000D0A74656D705F456EE2
:10378400636F72646572436F756E7454656D703DDA
:10379400256420000D0A456E636F726465724C6582
:1037A4006E3D256420000D0A456E636F7264657278
:1037B400436F756E743D256420000D0A456E636F7A
:1037C400726465724C656E696E743D256420000DEB
:1037D4000A456E636F726465724C656E54656D70F4
:1037E4003D25642E25646D20000D0A456E636F72BD
:1037F4006465724C656E666C6F6161743D2564200E
:10380400000D0A5374617274204D61696E204C6F0F
:103814006F702E2E2E000D0A537461727420426F45
:103824006F742E2E2E000D0A2850535720676F698F
:103834006E6720746F20706F776572206F66662ED6
:103844002E2E29000D0A285374617274207570207D
:1038540020506F776572204F6E204D6F64652E2E59
:063864002E290000000007
:103C3B004501BE00000000004101C6004201C30067
:103C4B00004401D642C800004401DA42C8000044D7
:103C5B0001DE42C800004401E242C800004601B840
:0F3C6B000000006400324601C70000007F0056D1
:1052220075E5028DE390010FE0F5E41204B9F5E2B1
:1052320075E64675E6B9740129F9E43AFA90010F68
:10524200E004F0E070030D8DE3900110E014F0E053
:0352520070D322F4
:0456DC0075E78122CB
:10547600E490010AF01256DC7B017A01790A900168
:105486000F74FFF0A37401F07DEF12522275E760EE
:0154960022F3
:1043CE00FF6DFD9001287401F0A37401F0A3742316
:0A43DE00F0EFA3F07B017A017913E0
:1043E800900125EBF0A3EAF0A3E9F090012BE0FFA0
:1043F800647E6005EF647D703F900128E0FBA3E0D8
:10440800FAA3E0F91204B9FF900125E0FBA3E0FA52
:10441800A3E0F98F82758300747D1205219001282D
:10442800E0FBA3E0FAA3E0F974011204FF90012B6A
:10443800E0540F4450FF801090012BE0FF900128BA
:10444800E0FBA3E0FAA3E0F91204B9FE900125E02D
:10445800FBA3E0FAA3E0F98E82758300EF12052131
:10446800900128E0FBA3E0FAA3E0F974011204FF2D
:034478007F0022A0
:0B47120090010FEBF0A3EAF0A3E9F028
:10471D00900113747EF09001237401F0EF1243D0D9
:10472D00900112E01243CEE4900124F0900112E0CA
:10473D00FF900124E0FEC39F501E90010FE0FBA3EC
:10474D00E0FAA3E0F98E827583001204D21243CEF3
:10475D00900124E004F080D49001287401F0A3743A
:10476D0001F0A37423F0ED1243E0E4900124F090E6
:10477D000123E0FFA3E0FEC39F501774132EF582B3
:10478D00E43401F583E0FF1256A9900124E004F012
:04479D0080DD7F003C
:0147A10022F5
:05402D0090010AEFF014
:10403200780B7C017D017BFF7A3879677E007F03F4
:1040420012049390010AE0247F6047147003024037
:10405200D11470030240E1240360030240F27F04A2
:104062007E001253E890010BEFF07F057E001253A1
:10407200E890010CEFF07F067E001253E890010DEC
:10408200EFF07B017A01790B9001127403F07F80CB
:10409200805B9001BFE054076405700890010B74C7
:1040A20005F0800A9001BEE0541F90010BF09001D0
:1040B200C5E090010CF09001CEA3E090010DF07BE1
:1040C200017A01790B9001127403F07F81801E7BCB
:1040D200017A01790B9001127401F07F82800E7BCC
:1040E200017A01790B9001127401F07F8312471259
:0140F20022AB
:10539A001254547D107F017E00123CC57D127F019C
:1053AA007E00123CC57D147F017E00123CC57D251E
:0753BA007F107E27023CC5B5
:10319A0090010CEEF0A3EFF0A3EBF0A3EAF0A3E9A1
:0131AA00F034
:1031AB00900004120637FDD3EF9DE5F06480F8EE36
:1031BB00648098400302324E900114E0FBA3E0FAC6
:1031CB00A3E0F9900004120637FFAEF012060CFDD7
:1031DB00C3EF9DFFEE95F0900117F0A3EFF0900178
:1031EB000EE0FBA3E0FAA3E0F9900004120637FD12
:1031FB00ACF012060CFBAAF0C3ED9BFFEC9AFE9011
:10320B000119F0A3EFF04E7002FF2290010CE0FECB
:10321B00A3E0FFC3EF9BFFEE9AFE900117E0FCA328
:10322B00E0FD120543A3E0FCA3E0FD1205AAC006D6
:10323B00C007900114E0FBA3E0FAA3E0F912060C1F
:10324B000232F2900114E0FBA3E0FAA3E0F9900044
:10325B0004120637FFAEF0900002120637C39FFF31
:10326B00E5F09E900117F0A3EFF090010EE0FBA3A9
:10327B00E0FAA3E0F9900004120637FFAEF09000DD
:10328B0002120637C39FFFE5F09EFE900119F0A3D3
:10329B00EFF04E7002FF2290010EE0FBA3E0FAA3C9
:1032AB00E0F9900004120637FFAEF0AB07AA0690C8
:1032BB00010CE0FEA3E0FFC3EF9BFFEE9AFE900133
:1032CB0017E0FCA3E0FD120543A3E0FCA3E0FD1215
:1032DB0005AAC006C007900114E0FBA3E0FAA3E027
:1032EB00F9900004120637FFAEF0D0E02FFFD0E0CC
:1032FB003EF9900111E0FBA3E0FAA3E0C98FF012B5
:04330B00066F7F01C9
:01330F00229B
:105288007E009001117401F0A37401F0A3740AF078
:10529800A37401F0A37401F0A374C7F07B017A0131
:1052A80079B812319A90010AA3E0FD7F027E0002CC
:0252B800549709
:10552C007F107E001253E89001B7EFF07F117E00E0
:09553C001253E89001E6EFF022A1
:1054B700EF4488F5C5E5C520E3FBAFC6EF75F004FB
:1054C700A4FFE5E85403FDEF4DFFE5F05403FE228A
:05000E007F060254B75B
:050026007F070254B742
:100F8D002005030215D17F0A7ED77D237C3C90017D
:100F9D00D6E0F8A3E0F9A3E0FAA3E0FB12015E901E
:100FAD0001101208147F0A7ED77D237C3C9001DA54
:100FBD00E0F8A3E0F9A3E0FAA3E0FB12015E9001D3
:100FCD00141208147F0A7ED77D237C3C9001DEE04D
:100FDD00F8A3E0F9A3E0FAA3E0FB12015E9001187B
:100FED001208147F0A7ED77D237C3C9001E2E0F845
:100FFD00A3E0F9A3E0FAA3E0FB12015E90011C123D
:10100D0008147F007EB07DE57C45900110E0F8A3CB
:10101D00E0F9A3E0FAA3E0FB12015EE4FBFA797AB2
:10102D0078441202679001201208147FE17E987DAA
:10103D00D27C45900114E0F8A3E0F9A3E0FAA3E017
:10104D00FB12015EE4FBFA797A7844120267900193
:10105D0020E0F8A3E0F9A3E0FAA3E0FB12006D9005
:10106D0001241208147F487EC17D2C7C4690011806
:10107D00E0F8A3E0F9A3E0FAA3E0FB12015EE4FBC4
:10108D00FA797A7844120267900124E0F8A3E0F926
:10109D00A3E0FAA3E0FB12006D9001281208149052
:1010AD00021AE0FEA3E0FFC3EE648094804008E4E2
:1010BD009001D4F0FC80179001D47401F090021AC5
:1010CD00E0FEA3E0FFC3E49FFFE49EFE7C007D02F3
:1010DD001205AA900106EEF0A3EFF0900106E0FED6
:1010ED00A3E0D394F0EE94004003021232C3EE94C9
:1010FD000050030212327BFF7A377934900106A338
:10110D00E0FF90012FEEF0A3EFF0124FF07BFF7A8E
:10111D0037794C9001C3E0FFA3E090012FCFF0A3EE
:10112D00EFF0124FF07BFF7A3779659001D4E0FF35
:10113D0090012FE4F0A3EFF0124FF0E4FFFE7DF5E8
:10114D007C41900110E0F8A3E0F9A3E0FAA3E0FBE5
:10115D0012015EC004C005C006C007900106E0FC88
:10116D00A3E0FDE4120309D003D002D001D0001298
:10117D00015EE4FBFA797A78441202679001D0128D
:10118D000814E4FFFE7DF57C41900110E0F8A3E02A
:10119D00F9A3E0FAA3E0FB12015EC004C005C0068E
:1011AD00C007900106E0FCA3E0FDE4120309D003A3
:1011BD00D002D001D00012015E120342900108EE60
:1011CD00F0A3EFF07FCD7ECC7D4C7C3D9001D0E047
:1011DD00F8A3E0F9A3E0FAA3E0FB12006D120342BD
:1011ED009001C5EFF07FCD7ECC7D4C7C3D9001D044
:1011FD00E0F8A3E0F9A3E0FAA3E0FB12006DE4FB35
:10120D00FA7920784112015E1203429001CEEEF080
:10121D00A3EFF07C007D0A1205559001CEECF0A3F2
:10122D00EDF00215B6900106E0FEA3E0FFD394F0B9
:10123D00EE9400500302137DD3EF94C2EE9401405F
:10124D000302137D7F2F7E5D7D007C42900114E0B3
:10125D00F8A3E0F9A3E0FAA3E0FB12015EC004C01D
:10126D0005C006C007900107E02410FD900106E0BF
:10127D0034FFFCE4120309D003D002D001D00012D8
:10128D00015EE4FBFA797A7844120267900120E05E
:10129D00F8A3E0F9A3E0FAA3E0FB12006D9001D0F2
:1012AD001208147BFF7A37797B9001C3E0FEA3E02F
:1012BD00FFC374F09FFFE49EFEC390010BE09FFF00
:1012CD0090010AE09E90012FF0A3EFF0124FF07BFA
:1012DD00FF7A37794C9001C3E0FFA3E090012FCF47
:1012ED00F0A3EFF0124FF07BFF7A37797B90010A74
:1012FD00E0FFA3E090012FCFF0A3EFF0124FF0909D
:10130D0001D0E0FCA3E0FDA3E0FEA3E0FF12034249
:10131D0090012FEEF0A3EFF07BFF7A377998124F03
:10132D00F07BFF7A3779AA90021AE0FFA3E09001D3
:10133D002FCFF0A3EFF0124FF07FCD7ECC7D4C7C04
:10134D003D9001D0E0F8A3E0F9A3E0FAA3E0FB1291
:10135D00006D1203429001C5EFF07BFF7A3779BE25
:10136D00E0FF90012FE4F0A3EFF0124FF0021434E0
:10137D00900106E0FEA3E0FFD394C2EE940150036A
:10138D00021465D3EF940CEE940340030214657FB1
:10139D00197E047D067C42900118E0F8A3E0F9A3C4
:1013AD00E0FAA3E0FB12015EC004C005C006C00751
:1013BD00900107E0243EFD900106E034FEFCE412AE
:1013CD000309D003D002D001D00012015EE4FBFA74
:1013DD00797A7844120267900124E0F8A3E0F9A32A
:1013ED00E0FAA3E0FB12006D9001D01208147BFF10
:1013FD007A3779AA90021AE0FFA3E090012FCFF07F
:10140D00A3EFF0124FF07FCD7ECC7D4C7C3D900153
:10141D00D0E0F8A3E0F9A3E0FAA3E0FB12006D120F
:10142D0003429001C5EFF07FCD7ECC7D4C7C3D908D
:10143D0001D0E0F8A3E0F9A3E0FAA3E0FB12006D00
:10144D00E4FBFA7920784112015E1203429001CE3D
:10145D00EEF0A3EFF002158BD3900107E0940C9002
:10146D000106E0940350030215B67F817E957D0B36
:10147D007C4290011CE0F8A3E0F9A3E0FAA3E0FBA5
:10148D0012015EC004C005C006C007900107E0242C
:10149D00F4FD900106E034FCFCE4120309D003D006
:1014AD0002D001D00012015EE4FBFA797A78441281
:1014BD000267900128E0F8A3E0F9A3E0FAA3E0FBAE
:1014CD0012006D9001D01208147BFF7A3779AA9023
:1014DD00021AE0FFA3E090012FCFF0A3EFF0124F1F
:1014ED00F09001D0E0FCA3E0FDA3E0FEA3E0FF122D
:1014FD00034290012FEEF0A3EFF07BFF7A3779983E
:10150D00124FF07FCD7ECC7D4C7C3D9001D0E0F82C
:10151D00A3E0F9A3E0FAA3E0FB12006D12034290E1
:10152D0001C5EFF07BFF7A3779BEE0FF90012FE424
:10153D00F0A3EFF0124FF07FCD7ECC7D4C7C3D9033
:10154D0001D0E0F8A3E0F9A3E0FAA3E0FB12006DEF
:10155D00E4FBFA7920784112015E1203429001CE2C
:10156D00EEF0A3EFF07BFF7A3779ED90012FEEF0DF
:10157D00A3EFF0124FF09001CEE0FEA3E0FF7C0050
:10158D007D0A1205559001CEECF0A3EDF07BFF7AAC
:10159D003779D39001C5E0FF90012FE4F0A3EFF070
:1015AD00A3ECF0A3EDF0124FF0C2059001C5E09051
:1015BD00010CF09001CEA3E090010DF09001D4E06C
:0415CD0090010EF08B
:0115D10022F7
:10531A007BFF7A387905124FF012567FEF6005123B
:10532A001B2880F51223771248B4124C9012431AA4
:0D533A00120F8D1253479001B7E070DD2275
:104BDD00124D83124E187BFF7A38791A124FF0124C
:104BED003AB6D2B4D2B512557312552C12539A7DD2
:104BFD00497F027E001254977814E6540FF6900107
:104C0D00B7E064017008E654F04402F680087814A9
:104C1D00E654F04401F67F071256329001B7E06476
:0B4C2D0001700312531A124FB180F007
:104FB1007BFF7A38792A124FF07814E654F04401D5
:104FC100F69001C6E054FEF07F18124F3012431ADA
:104FD1001248B41253479001B7E0640170EF78149E
:0F4FE100E654F04402F67BFF7A387948024FF02D
:1008F2000D0A4D43555F4932435B253032785D5BCB
:1009020025643A25643A25643A25645D3E000D0A61
:100912004D43555F4932435B253032785D5B256438
:100922003A25643A25645D3E000D0A4D43555F4900
:1009320032435B253032785D5B25643A25645D3E47
:10094200000D0A4D43555F4932435B253032785DD5
:100952005B25645D3E002020202D2D3E204D6973D5
:1009620073696E6720706172616D657465722021B2
:100972002121000D0A5265616420253278683A25EA
:10098200327868000D0A57726974652025327868DA
:100992003A2532786820003D3D3E20526561642050
:1009A200253278683A253278680057726974652072
:1009B200253278683A2532786820000D0A3D3D3E9E
:1009C200205265616420253278683A2532786800C1
:1009D2000D0A3C523E2532785B2532785D3D253248
:1009E20078000D0A2020202D2D3E2057726F6E6751
:1009F2002072616E6765206F6620626974206F7075
:100A020065726174696F6E20212121000D0A496EA1
:100A120073756666696369656E7420706172616D73
:100A220065746572732E2E2E000D0A3D3D3D3D3DCF
:100A32003D3D3D3D3D3D3D3D3D3D3D3D3D3D3D3DE4
:100A42003D3D3D3D3D3D3D3D3D3D3D3D3D3D3D3DD4
:100A52003D3D3D3D3D3D3D3D3D3D3D3D3D3D3D3DC4
:100A62003D3D000D0A3E3E3E202020202057656C71
:100A7200636F6D6520746F205465636877656C6C75
:100A8200204D6F6E69746F72202052657620312E70
:100A9200303020202020203C3C3C000D0A20202029
:100AA2005220696920202020202020202020202080
:100AB200203B20526561642041443531313020644D
:100AC200617461000D0A2020205720696920646446
:100AD200202020202020202020203B2057726974D3
:100AE20065204144353131302064617461000D0A62
:100AF20020202044205B69695D205B63635D2020C8
:100B0200202020203B2044756D70000D0A202020FB
:100B1200432061612020202020202020202020202E
:100B2200203B204368616E6765204932432061643F
:100B32006472657373000D0A2020204D203F20202F
:100B42002020202020202020202020203B20437510
:100B52007272656E7420496E707574000D0A2020E1
:100B6200204D2064642020202020202020202020CE
:100B720020203B204368616E676520496E70757462
:100B8200000D0A202020416363657373205B302CC3
:100B9200315D20202020203B2050726F6772616DF2
:100BA2002054573838787820416363657373204F37
:100BB20046462F4F4E000D0A2020204175746F4487
:100BC2006574656374205B302C315D203B2050439B
:100BD200204175746F6D6F6465204F46462F4F4EEE
:100BE200000D0A20202050434175746F090920200E
:100BF20020203B2052554E205043204175746F20D7
:100C020041646A757374000D0A2020204465627580
:100C120067205B302E2E3235355D2020203B20446C
:100C220065627567696E6720646973706C617920AB
:100C32006C6576656C000D0A2020204563686F2084
:100C42004F6E2F4F66662020202020203B205465C7
:100C5200726D696E616C204563686F696E67204FC3
:100C62006E2F4F6666000D0A20202044656C746169
:100C72002020202020202020202020203B20496EE0
:100C820069742044656C74615247422050616E65FC
:100C92006C000D0A20202044656C74612077206965
:100CA2006920646820646C3B205350492057726964
:100CB200746520746F2044656C7461524742205001
:100CC200616E656C000D0A0044000D0A64756D705A
:100CD20020414435313130207374617274000D0A41
:100CE20041443531313020524441433D2530327840
:100CF200000D0A41443531313020454550524F4DA7
:100D02003D253032780026004200505357000D0A2C
:100D120028506F776572466C6167203D25303278C6
:100D22002900570052000D0A41443531313020521A
:100D320065616420616464723D25303278202064EC
:100D42006174613D25303278004300480048454CCB
:100D520050003F002A000D0A20202A2030203A208D
:100D620050726F6772616D2064656661756C742084
:100D72004C6F61646572000D0A20202A2031203AEE
:100D82002050726F6772616D2065787465726E6152
:100D92006C204C6F61646572000D0A20202A20329B
:100DA200203A2045786563757465204C6F616465EF
:100DB2007200504F574552004445425547000D0AB4
:100DC2004465627567204C6576656C203D2025324E
:100DD20078006563686F006F6666000D0A65636878
:100DE2006F206F6666000D0A6563686F206F6E0084
:100DF20072657365740030000D0A54575F72657333
:100E020065745F70696E203D3E20300031000D0A2E
:100E120054575F72657365745F70696E203D3E2042
:100E220031000D0A54575F72657365745F70696EA5
:100E3200203D2025640074657374000D0A54575FC9
:100E4200746573745F70696E203D3E2030000D0A38
:100E520054575F746573745F70696E203D3E203134
:100E6200000D0A54575F746573745F70696E203D9C
:100E72002025640070646E000D0A54575F506F772E
:100E82006572446F776E5F70696E203D3E20300060
:100E92000D0A54575F506F776572446F776E5F70BB
:100EA200696E203D3E2031000D0A54575F506F7726
:100EB2006572446F776E5F70696E203D2025640015
:100EC2004F5344006C6F676F00656E64000D0A49F2
:100ED2006620796F752764206C696B6520746F20BA
:100EE200657869742C20707265737320616E792045
:100EF2004B65792E2E2E2E00696E70757400505738
:100F02004D30000D0A5345542050574D50312E3468
:100F12000050574D31000D0A5345542050574D5043
:100F2200312E350050574D000D0A504F454E20507E
:100F3200574D000D0A53544F502050574D005458EE
:100F420000464F4E540052414D00524F4D000D0A83
:100F520020466F6E7420524F4D2023206F72204620
:100F62006F6E742052414D202320666F722074658B
:100F72007374696E67000D0A496E76616C6964204C
:0B0F8200636F6D6D616E642E2E2E00FB
:103C7A0001108A41018100C187C108C18641017DC5
:093C8A000041017E0041017F00B0
:1041AF00900217E0FF60397BFF7A0879F290012FB8
:1041BF00E4F0A3745EF0A3E4F0A3EFF0900218E034
:1041CF00FF900133E4F0A3EFF0900213E0FF9001B2
:1041DF0035E4F0A3EFF090020CE0FF900137806E12
:1041EF00900218E0FF602C7BFF7A09791090012F65
:1041FF00E4F0A3745EF0A3E4F0A3EFF0900213E0F9
:10420F00FF900133E4F0A3EFF090020CE0FF900178
:10421F0035803B900213E0FF7BFF601D7A09792BFD
:10422F0090012FE4F0A3745EF0A3E4F0A3EFF090FD
:10423F00020CE0FF90013380157A09794390012F2A
:10424F00E4F0A3745EF090020CE0FF900131E4F013
:07425F00A3EFF0124FF02263
:0556B100900109E0FF7B
:0356B600020003EC
:0B45260090010AEBF0A3EAF0A3E9F01B
:10453100A312082000000000E4900111F090010A8C
:10454100E0FBA3E0FAA3E0F91204B9607064206013
:104551006CE47F0AFEFDFC90010DE0F8A3E0F9A3F5
:10456100E0FAA3E0FB12068EA804C005C006C0074E
:1045710090010AE0FBA3E0FAA3E0F91204B9FFE419
:10458100FCFDFED003D002D001EB2FFFEE3AFEED91
:1045910039FDEC38FCEF24D0FFEE34FFFEED34FFA3
:1045A100FDEC34FFFC90010D120814900111E004A0
:1045B100F090010BE475F0011205E0808090010D8F
:0B45C100E0FCA3E0FDA3E0FEA3E0FF90
:0145CC0022CC
:10511700EFC39430400CEFD394395006C3EF94306B
:10512700FF22EFC39461400BEFD394665005EF2441
:10513700A9FF22EFC39441400BEFD394465005EFEC
:0751470024C9FF227F0022B2
:0D4F7100EFF09001A5E0FBA3E0FAA3E0F94A
:104F7E00E4FDFC1204B9602864206024EDC4F854EA
:104F8E000FC868FDECC454F048FC1204B9FF12516E
:104F9E0017EF2DFDE43CFC740129F9E43AFA80D3B5
:024FAE00AF054D
:014FB00022DE
:10543100E0FBA3E475F0011205F6A9F0FA1204B934
:01544100FF6B
:10544200EFC39461400BEFD3947A5005EF24E0FF51
:02545200222214
:0D4B7F00A3F09001A2E0FBA3E0FAA3E0F98F
:0B4B8C00900108EBF0A3EAF0A3E9F0B1
:104B9700E490010EF0A3F0900108E0FBA3E0FAA374
:104BA700E0F91204B9602B90010B125431EFFD7C30
:104BB70000900108125431C3EF9DFFE49CFE4F6043
:104BC700012290010FE004F070CD90010EE004F097
:054BD70080C5E4FEFFB3
:014BDC0022B6
:104AAE00900181E0C3940274809480400A124F7387
:104ABE009001A1EFF080097BFF7A097958024FF03F
:104ACE00E510648A9001A17006E0FD7F8A8004E003
:104ADE00FDAF101250A5900180EFF03007237BFF41
:104AEE007A0979759001A1E0FF90012FE4F0A3EF10
:104AFE00F0900180E0FF900131E4F0A3EFF0124F4F
:0A4B0E00F0900180E0900182F02297
:103F5E00900181E0C394037480948050097BFF7AB2
:103F6E00097958024009124F739001A1EFF09001A8
:103F7E00A8124F76900182EFF020070302400C7BCF
:103F8E00FF7A0979869001A1E0FF90012FE4F0A35A
:103F9E00EFF0900182E0FF900131E4F0A3EFF01218
:103FAE004FF0E510648A9001A17015E0FD9001823A
:103FBE00E0FB7F8A1253719001A1E0FD7F8A80138E
:103FCE00E0FD900182E0FBAF101253719001A1E071
:103FDE00FDAF101250A5900180EFF07BFF7A0979AA
:103FEE00999001A1E0FF90012FE4F0A3EFF0900172
:103FFE0080E0FF900131E4F0A3EFF0024FF0E51006
:10400E00648A9001A1700BE0FD900182E0FB7F8A33
:0F401E008009E0FD900182E0FBAF101253712288
:10426600EF14601324F7601714601D240B70209060
:104276000182E014F08018900182E004F080109032
:104286000182E024F0F08007900182E02410F0E53E
:1042960010648A9001A17015E0FD900182E0FB7F19
:1042A6008A1253719001A1E0FD7F8A8013E0FD9090
:1042B6000182E0FBAF101253719001A1E0FDAF1037
:1042C6001250A5900180EFF03007467BFF7A0979FE
:1042D600AC9001A1E0FF90012FE4F0A3EFF0900174
:1042E60082E0FF900131E4F0A3EFF0124FF07BFF84
:1042F6007A0979999001A1E0FF90012FE4F0A3EFEC
:10430600F0900180E0FF900131E4F0A3EFF0124F4E
:04431600F00241AFC1
:1030050090023DE4F0A37408F0900181E0C39402BE
:10301500748094804008124F739001A1EFF09001E5
:1030250081E0C3940374809480400D9001A8124FF1
:103035007690023CEFF0800F90023DA3E0FF9001F7
:10304500A1E02F90023CF09001A1E0FF90023CE04E
:10305500C39F500374FFF090023CE0C39FFFE494CC
:1030650000CF2401CF3400A3F0A3EFF02007030223
:103075003127E510648A7055D390023EE0940090A4
:10308500023DE06480948050030231999001A1E0F3
:10309500FD7F8A1250A5900180EFF07BFF7A0979B8
:1030A500BD9001A1E0FD90012FE4F0A3EDF0A3E4B4
:1030B500F0A3EFF0124FF09001A1E004F090023E72
:1030C500E024FFF090023DE034FFF080ABD39002A6
:1030D5003EE0940090023DE064809480500302310C
:1030E500999001A1E0FDAF101250A5900180EFF07D
:1030F5007BFF7A0979BD9001A1E0FD90012FE4F0F5
:10310500A3EDF0A3E4F0A3EFF0124FF09001A1E0DE
:1031150004F090023EE024FFF090023DE034FFF021
:1031250080ABE510648A7036D390023EE09400903F
:10313500023DE064809480405B9001A1E0FD7F8AC0
:103145001250A5900180EFF09001A1E004F09002EB
:103155003EE024FFF090023DE034FFF080CAD390BA
:10316500023EE0940090023DE0648094804025900A
:1031750001A1E0FDAF101250A5900180EFF0900184
:10318500A1E004F090023EE024FFF090023DE0341F
:04319500FFF080CAFD
:013199002213
:10482E00900181E0C3940374809480400D9001A8A0
:10483E00124F769001A1EFF080097BFF7A0979582B
:10484E00024FF0124F73900241EFF0648A7009909C
:10485E0001A1E0FD7F8A800A900241E0FF9001A154
:10486E00E0FD1250A5900180EFF03007307BFF7A0B
:10487E000979D2900241E0FF90012FE4F0A3EFF00E
:10488E009001A1E0FF900131E4F0A3EFF0900180E0
:10489E00E0FF900133E4F0A3EFF0124FF0900180AF
:0548AE00E0900182F022
:0148B30022E2
:1045CD00900181E0C394047480948050097BFF7A3C
:1045DD0009795802466F9001A8124F769001A1EF0C
:1045ED00F09001AB124F76900182124F7190024202
:1045FD00EFF0648A70189001A1E0FD900182E0FB5C
:10460D007F8A1253719001A1E0FD7F8A801C900278
:10461D0042E0FF9001A1E0FD900182E0FB12537199
:10462D00900242E0FF9001A1E0FD1250A5900180A3
:10463D00EFF03007307BFF7A0979D2900242E0FF2C
:10464D0090012FE4F0A3EFF09001A1E0FF90013174
:10465D00E4F0A3EFF0900180E0FF900133E4F0A3CC
:05466D00EFF0124FF018
:014672002225
:102E6B00900181E0C3940274809480400B9001A880
:102E7B00124F769001A1EFF0900181E0C39403749F
:102E8B00809480400B9001AB124F76900108EFF0CD
:102E9B00124F73900109EFF0200703022F83E064B8
:102EAB008A70699001A1E0FF90010AE4F0A3EFF0B2
:102EBB00900108E0FF90010AE0FCA3E0FDD39FEC3A
:102ECB00940040030230047F8A1250A5900180EFDA
:102EDB00F07BFF7A0979D2900109E0FD90012FE494
:102EEB00F0A3EDF090010AE0FDA3E0900131CDF0ED
:102EFB00A3EDF0A3E4F0A3EFF0124FF090010BE081
:102F0B0004F070AC90010AE004F080A49001A1E001
:102F1B00FF90010AE4F0A3EFF0900108E0FF9001AD
:102F2B000AE0FCA3E0FDD39FEC94004003023004C5
:102F3B00900109E0FF1250A5900180EFF07BFF7A22
:102F4B000979D2900109E0FD90012FE4F0A3EDF097
:102F5B0090010AE0FDA3E0900131CDF0A3EDF0A3C9
:102F6B00E4F0A3EFF0124FF090010BE004F070A926
:102F7B0090010AE004F080A1900109E0648A703BA3
:102F8B009001A1E0FF90010AE4F0A3EFF09001089B
:102F9B00E0FF90010AE0FCA3E0FDD39FEC9400500E
:102FAB00587F8A1250A5900180EFF090010BE0043E
:102FBB00F070DA90010AE004F080D29001A1E0FFFA
:102FCB0090010AE4F0A3EFF0900108E0FF90010AF2
:102FDB00E0FCA3E0FDD39FEC9400501D900109E0B1
:102FEB00FF1250A5900180EFF090010BE004F07000
:092FFB00D790010AE004F080CF38
:0130040022A9
:10347A00900181E0C394057480948050097BFF7A9F
:10348A000979580235DF124F7390010CEFF0900161
:10349A00A8124F769001A1EFF09001AB124F76EF90
:1034AA00C4540F900109F09001AB124F76EF540FFC
:1034BA0090010AF09001AE124F7690010BEFF09056
:1034CA00010AE0FF900109E0FEC39F4013EED39486
:1034DA0007748094805009EF94077480948040099F
:1034EA007BFF7A0979E40235DF90010874FFF07CEA
:1034FA007F7E07900109E0FDEED39D400C90010804
:10350A00E05CF0EC13FC1E80EA7CFEE4FE90010A0B
:10351A00E0FFEEC39F500D900108E05CF0EC25E05F
:10352A00FC0E80E990010CE0648A70359001A1E0FC
:10353A00FD7F8A1250A5900180EFF0900108E0FE0D
:10354A00F45FFF90010BE05E4F900182F0FB900167
:10355A00A1E0FD7F8A1253719001A1E0FD7F8A806C
:10356A003C90010CE0FF9001A1E0FD1250A59001F2
:10357A0080EFF0900108E0FEF45FFF90010BE05E3F
:10358A004F900182F0FB90010CE0FF9001A1E0FD59
:10359A0012537190010CE0FF9001A1E0FD1250A5B9
:1035AA00900180EFF03007307BFF7A0979D29001E1
:1035BA000CE0FF90012FE4F0A3EFF09001A1E0FFEF
:1035CA00900131E4F0A3EFF0900180E0FF90013325
:0835DA00E4F0A3EFF0124FF042
:0135E20022C6
:104CE600900181E0C394027480948050097BFF7A1E
:104CF6000A790E0252559001A5E0FBA3E0FAA3E063
:104D0600F9124526900108EEF0A3EFF0900108A3F2
:104D1600E0541F2420FF120003900109E024FFF055
:0E4D2600900108E034FFF0E07002A3E070DEC0
:014D3400225C
:10447B007BFF7A0A792B124FF07BFF7A0A79651250
:10448B004FF07BFF7A0A792B124FF07BFF7A0A7978
:10449B009D124FF07BFF7A0A79C6124FF07BFF7AA1
:1044AB000A79F0124FF07BFF7A0B790D124FF07BEC
:1044BB00FF7A0B7938124FF07BFF7A0B795E124F34
:1044CB00F07BFF7A0B7983124FF07BFF7A0B79B875
:1044DB00124FF07BFF7A0B79E3124FF07BFF7A0CD4
:1044EB007909124FF07BFF7A0C7938124FF07BFF72
:1044FB007A0C7968124FF07BFF7A0C7994124FF09B
:10450B007BFF7A0C79C7124FF07BFF7A0A792B125B
:0B451B004FF07BFF7A0C79C7024FF0D5
:1028A900E490010AF012567FEF7002FF221254F5EC
:1028B900900109EFF0D20A7D0E7F307E75123DA49A
:1028C90090017DE0601C900109E0FF640D6005EF57
:1028D900641B7007E490017DF0801B900109E0FF03
:1028E900800E900109E0FFB43B0C90017D7401F06A
:1028F9001256B67F0022900109E024F87003022ADB
:102909006024FB603024E17003022A7524FE700301
:10291900022A8D147003022A5024F37003022A81BB
:1029290024FE7003022A9924236003022AA8E49052
:102939000181F0805890017EE070061241AF022AB1
:10294900C390017EE0FF04F074832FF582E4340123
:10295900F583E4F0900181F0900108F090017EE0A8
:10296900FF900108E0FEC39F501674832EF582E4A0
:102979003401F583E0B42008900108E004F080DC1C
:1029890074832EF582E43401F583E0700E90017EA4
:10299900F090017DF01241AF7F0022900108E02400
:1029A90083F9E43401FA9001A27401F0A3EAF0A3D7
:1029B900E9F090017EE0FF900108E0FEC39F5071AD
:1029C90074832EF582E43401F583E0FF642060030B
:1029D900EF705674832EF582E43401F583E4F080B8
:1029E90012900108E02483F582E43401F583E0FFC5
:1029F900B42008900108E004F080E6900181E00429
:102A0900F0EF6025900108E02483F9E43401FA909D
:102A19000181E075F003A424A2F582E43401F58371
:102A29007401F0A3EAF0A3E9F0900108E004F08052
:102A39008190010A7401F0900181E090017FF0E436
:102A490090017EF0022AC390017FE0900181F0900D
:102A5900010A7401F0806390017EE0605D14F01258
:102A690056B17F201256B61256B1804E90017EE0C3
:102A79006002802BE4FF802290017EE06002801FCB
:102A89007F0A801690017EE0600280137F01800A30
:102A990090017EE0600280077F0B124266801B1264
:102AA90056B1900109E0FF90017EE0FE04F07483C5
:102AB9002EF582E43401F583EFF090010AE0FF601E
:102AC9000EE490017DF0900181E090017FF0229069
:042AD900010AE0FF0F
:012ADD0022D6
:101B28001228A9EF7003022073C20890010B74FFFA
:101B3800F0A3740CF074CA124B7FEF4E703B7BFF1E
:101B48007A0C79CC124FF07F057E001250DE90019E
:101B580006EFF07BFF7A0C79E090012FE4F0A3EF19
:101B6800F0124FF07F067E001250DE900106EFF073
:101B78007BFF7A0C79F3021D4690010B74FFF0A3EA
:101B8800740DF07408124B7FEF4E7008C208122EC5
:101B98006B02207090010B74FFF0A3740DF0A37416
:101BA8000A124B80EF4E700612347A0220709001B0
:101BB8000B74FFF0A3740DF0A3740C124B80EF4E5E
:101BC80070119001B7E06401FFF07BFF7A0D791086
:101BD800021D4690010B74FFF0A3740DF0A374244A
:101BE800124B80EF4E7033124F737E00C007900186
:101BF800A8124F76AD07D007125497124F73EF64AF
:101C08000260030220707F05FE1250DE900106EF8D
:101C1800F07BFF7A0C79E0021D4690010B74FFF00F
:101C2800A3740DF0A37426124B80EF4E7027124F49
:101C3800737E001250DE900106124F7190012FE45E
:101C4800F0A3EFF07BFF7A0D7928900106E0FF9072
:101C58000131021D4990010B74FFF0A3740DF0A32C
:101C6800744B124B80EF4E7008124F738F10022086
:101C78007090010B74FFF0A3740DF0A3744D124B18
:101C880080EF4E602890010B74FFF0A3740DF0A351
:101C9800744F124B80EF4E601490010B74FFF0A349
:101CA800740DF0A37454124B80EF4E700612447BEF
:101CB80002207090010B74FFF0A3740DF0A374560A
:101CC800124B80EF4E702E900181E06401701B7BF7
:101CD800FF7A0D7958124FF07BFF7A0D7979124F00
:0A1CE800F07BFF7A0D799B02206D5E
:081CF200124F73900107EFF09F
:101CFA0002207090010B74FFF0A3740DF0A374B46A
:101D0A00124B80EF4E700302207090010B74FFF0AB
:101D1A00A3740DF0A374BA124B80EF4E7029900190
:101D2A0081E06402700B124F739001D5EFF01256E6
:101D3A00A07BFF7A0D79C09001D5E0FF90012FE4D6
:101D4A00F0A3EFF002206D90010B74FFF0A3740D65
:101D5A00F0A374D4124B80EF4E702E90010B74FFD7
:101D6A00F0A3740DF0A374D9F09001A5124B84EF7F
:101D7A004E700BC2077BFF7A0D79DD02206DD20708
:101D8A007BFF7A0D79E802206D90010B74FFF0A3B6
:101D9A00740DF0A374F2124B80EF4E705C90010B3D
:101DAA0074FFF0A3740DF0A374F8F09001A5124B20
:101DBA0084EF4E700BC2B47BFF7A0D79FA02206D64
:101DCA0090010B74FFF0A3740EF0A3740EF090014F
:101DDA00A5124B84EF4E700BD2B47BFF7A0E7910AA
:101DEA0002206D7BFF7A0E7924A2B4E4FF339001BE
:101DFA002FCFF0A3EFF002206D90010B74FFF0A338
:101E0A00740EF0A37438124B80EF4E705690010B8B
:101E1A0074FFF0A3740DF0A374F8F09001A5124BAF
:101E2A0084EF4E70097BFF7A0E793D02206D900196
:101E3A000B74FFF0A3740EF0A3740EF09001A512B8
:101E4A004B84EF4E7BFF70077A0E795002206D7A31
:101E5A000E7963A287E4FF3390012FCFF0A3EFF04E
:101E6A0002206D90010B74FFF0A3740EF0A3747638
:101E7A00124B80EF4E705C90010B74FFF0A3740D4F
:101E8A00F0A374F8F09001A5124B84EF4E700BC2C8
:101E9A00B77BFF7A0E797A02206D90010B74FFF0FE
:101EAA00A3740EF0A3740EF09001A5124B84EF4EAA
:101EBA00700BD2B77BFF7A0E799202206D7BFF7A84
:101ECA000E79AAA2B7E4FF3390012FCFF0A3EFF067
:101EDA0002206D90010B74FFF0A3740EF0A374C27C
:101EEA00124B80EF4E6003021F7890010B74FFF0D3
:101EFA00A3740EF0A374C6F09001A5124B84EF4EA2
:101F0A00700302207090010B74FFF0A3740EF0A30B
:101F1A0074CBF09001A5124B84EF4E701D7BFF7AB3
:101F2A000E79CF12525512567FEF60030220707D50
:101F3A00957F8A1250A58FA080EC90010B74FFF058
:101F4A00A3740EF0A374FAF09001A5124B84EF4E1D
:101F5A00700302207090010B74FFF0A3740DF0A3BC
:101F6A0074D9F09001A5124B84EF4E0220709001B3
:101F7A000B74FFF0A3740FF0A37400124B80EF4EA2
:101F8A007013124F73AD077F141252BA7BFF7A0F88
:101F9A00790502206290010B74FFF0A3740FF0A37D
:101FAA007413124B80EF4E7013124F73AD077F15E7
:101FBA001252BA7BFF7A0F791802206290010B74D1
:101FCA00FFF0A3740FF0A37426124B80EF4E702516
:101FDA00124F73EF60107DFF7FFF1252BA7BFF7AB8
:101FEA000F792A022062E4FDFF1252BA7BFF7A0FB0
:101FFA00793502206290010B74FFF0A3740FF0A3ED
:10200A007440124B80EF4E7005124CE680589001D6
:10201A000B74FFF0A3740FF0A37443124B80EF4EBE
:10202A00703B90010B74FFF0A3740FF0A37448F097
:10203A009001A5124B84EF4E602C90010B74FFF0B7
:10204A00A3740FF0A3744CF09001A5124B84EF4EC9
:10205A0060147BFF7A0F795012525580097BFF7A00
:09206A000F7978124FF01241AF1A
:01207300224A
:104D35001B5B306D001B5B303B33316D001B5B3003
:104D45003B33326D001B5B303B33336D001B5B30F7
:104D55003B33346D001B5B303B33356D001B5B30E3
:104D65003B33366D001B5B303B33376D00303132E2
:0E4D7500333435363738394142434445460021
:103C9300580224FF4D35FF4D3AFF4D42FF4D4AFF79
:0B3CA3004D52FF4D5AFF4D62FF4D6A6D
:0815D200E0FBA3E0FAA3E0F93D
:0B15DA00900168EBF0A3EAF0A3E9F039
:1015E50090017612082000000001900168E0FBA33D
:1015F500E475F0011205F6A9F0FA1204B990016E2E
:10160500F07003021B2724DB701B900168E0FBA32D
:10161500E0FAA3E0F91204B9B42513900169E47561
:10162500F0011205E02002FD90016E021AFDC20BC9
:10163500C20CE4900175F0900168E0FBA3E475F03D
:10164500011205F6A9F0FA1204B990016EF0E0FD59
:10165500B4301BD20B900168E0FBA3E475F00112D6
:1016650005F6A9F0FA1204B990016EF0801FEDFF9E
:101675003395E0FEC3EF9430EE64809480402CD324
:10168500EF9439EE64809480502190016EE024D06F
:10169500900175F0900168E0FBA3E475F001120577
:1016A500F6A9F0FA1204B990016EF0900174740273
:1016B500F090016EE024BE602B24E0602724F660E4
:1016C500042420703C900168E0FBA3E475F001124E
:1016D50005F6A9F0FA1204B990016EF09001747440
:1016E50004F0801D900168E0FBA3E475F00112058C
:1016F500F6A9F0FA1204B990016EF0900174740124
:10170500F090016EE0FF24A870030219B624F5706D
:1017150003021AD224F07003021A8524FE600E24F7
:10172500FD70030219B624146003021B05900174B1
:10173500E024FE604224FE607B240360030217D68A
:10174500EF90016BB46419E0FBA3E475F001120599
:10175500F6A9F0FA1204B9FF3395E0FEFDFC806BA3
:10176500E0FBA3E475F0011205F6A9F0FA1204B93D
:10177500FFE4FCFDFE805490016EE090016BB464C3
:101785001BE0FBA3E475F0021205F6A9F0FA1206B8
:101795000CFFAEF0EE3395E0FDFC8016E0FBA3E414
:1017A50075F0021205F6A9F0FA12060CFFAEF0E488
:1017B500FCFD801790016EE090016BE0FBA3E475E2
:1017C500F0041205F6A9F0FA1207F4900170120858
:1017D50014900170E0FCA3E0FDA3E0FEA3E0FFECA4
:1017E5003350252002FD75992DD202900170E0FC41
:1017F500A3E0FDA3E0FEA3E0FF74FFFBFAF9F812F6
:10180500068E900170120814900175E060030218AD
:101815009C900170E0FCA3E0FDA3E0FEA3E0FFECDB
:101825004D4E4F700B2002FD759930D2020215EF17
:10183500E4900175F0A312082000000001900175E5
:10184500E0C3940A74809480504D900170E0FCA32D
:10185500E0FDA3E0FEA3E0FF900176E0F8A3E0F948
:10186500A3E0FAA3E0FB120719E4FBFAF9F8C312A7
:1018750007CF6023900176E0FCA3E0FDA3E0FEA383
:10188500E0FFE47B0AF812068E90017612081490A8
:101895000175E004F080A6E490016FF090017612E6
:1018A500082000000001900175E024FFFFE434FFEB
:1018B500FE90016FE0FD3395E0FCC3ED9FEE648083
:1018C500F8EC6480985025900176E0FCA3E0FDA338
:1018D500E0FEA3E0FFE47B0AFAF9F812068E900118
:1018E5007612081490016FE004F080BA900170E060
:1018F500FCA3E0FDA3E0FEA3E0FF900176E0F8A3E2
:10190500E0F9A3E0FAA3E0FB120719EF2430FF90FA
:10191500016EF0BF3025200B22E47F01FEFDFC9017
:101925000176E0F8A3E0F9A3E0FAA3E0FBC3120710
:10193500CF600890016E7420F08002D20B2002FD6A
:1019450090016EE0F599D202900170E0FCA3E0FDF4
:10195500A3E0FEA3E0FF900176E0F8A3E0F9A3E0A1
:10196500FAA3E0FB120719AC00AD01AE02AF03907C
:101975000170120814900176E0FCA3E0FDA3E0FEDF
:10198500A3E0FFE47B0AFAF9F81207199001761231
:101995000814E4FFFEFDFC900176E0F8A3E0F9A34E
:1019A500E0FAA3E0FBC31207CF60030218F10215AA
:1019B500EF900174E024FE602224FE603924037058
:1019C5004E90016BE0FBA3E475F0011205F6A9F05A
:1019D500FA1204B9FFE4FCFDFE802E90016BE0FBDA
:1019E500A3E475F0021205F6A9F0FA12060CFFAE93
:1019F500F0E4FCFD801390016BE0FBA3E475F004BB
:101A05001205F6A9F0FA1207F49001701208149065
:101A15000175E07008900174E025E0A3F0E4900101
:101A25006FF0900175E0FF90016FE0FD3395E0FCEC
:101A3500C3ED9F7480F86C9840030215EF2002FDFA
:101A450090016FE0FF900175E0C39F1425E025E04C
:101A5500F9900170E0FCA3E0FDA3E0FEA3E0FFA880
:101A6500011207E07E00EF540F2472F582EE344D2B
:101A7500F583E493F599D20290016FE004F080A21A
:101A850090016BE0FBA3E475F0031205F6A9F0FAEB
:101A950012085190017AEBF0A3EAF0A3E9F0900166
:101AA5007AE0FBA3E0FAA3E0F91204B9700302158A
:101AB500EF2002FD90017AE0FBA3E475F001120529
:101AC500F6A9F0FA1204B9F599D20280D190016B0A
:101AD500E0FBA3E475F0021205F6A9F0FA12060C74
:101AE500FFAEF0EE3395E0FDFC9001701208142076
:101AF50002FD900170A3A3A3E0F599D2020215EFB0
:101B050090016BE0FBA3E475F0021205F6A9F0FA6B
:101B150012060CFFAEF0E4FCFD90017012081402F1
:021B250015EFBA
:011B2700229B
:0B4FF00090012CEBF0A3EAF0A3E9F025
:104FFB009001577401F0A37401F0A3742FF090018A
:10500B0057E0F9A3E0FAA3E090016BC9F0A3EAF033
:10501B00A3E9F090012C1215D2900157E4F0A3F004
:02502B00A3F0F0
:01502D002260
:084EA800E0FBA3E0FAA3E0F92E
:0B4EB00090013AEBF0A3EAF0A3E9F058
:104EBB009001657401F0A37401F0A3743DF09001AF
:104ECB0065E0F9A3E0FAA3E090016BC9F0A3EAF067
:104EDB00A3E9F090013A1215D2900165E4F0A3F02A
:024EEB00A3F032
:014EED0022A2
:1052550090010AEBF0A3EAF0A3E9F090010AE0FB64
:10526500A3E0FAA3E0F91204B9601790010AA3E4D8
:1052750075F0011205F6A9F0FA1204B9FF12000340
:0352850080D922AB
:0B4C380090010CEBF0A3EAF0A3E9F000
:104C4300200A49EF75F003A42424F582E43402F525
:104C530083124EA89001377401F0A37401F0A3747A
:104C63000FF0900137E0F9A3E0FAA3E090016BC9DC
:104C7300F0A3EAF0A3E9F090010C1215D2900137EA
:0C4C8300E4F0A3F0A3F0900224124EA86D
:014C8F002202
:1053C1000D0A5379734A7564676548616E646C654B
:1053D100723D5F4D4F44455F5354415455535F49AE
:0753E1004E495449414C0004
:104C90007814E6FFC4540F24FE602624FB6015241C
:104CA000FB6011240B703C7811E6541F64076033DD
:104CB0007F07801A7811E6541F640660267F0680FD
:104CC0000D7811E6541F600B24F97017E4FF12569B
:104CD0003280107F011256327BFF7A5379C17F02F6
:064CE000124C380249B736
:0256E700D322CC
:0F563200EF541FFF7811E654E04FF64480F62244
:1049B7007812E6540F24FE602324FE604014602E14
:1049C70024FD604D2407704E7814E6FFC4540F642D
:1049D7000160437F011256F77F0180377811E65453
:1049E7001F640370317F021256F77F028025781407
:1049F700E6FFC4540F6401601D7F0580167814E636
:104A0700FFC4540F6401600E7F041256F77F0480C1
:104A1700027F081256327812E654F0F61256E74033
:0C4A27000A7F011256F77F01125632225E
:0456E000E4FEFF22C3
:10514E000A0D537973506F776572496E6974696190
:10515E006C2E2E4F4B212100284456525F504F5734
:10516E0045525F4F4E2900284456525F504F5745C7
:07517E00525F4F4646290075
:043CAE0002140000FC
:104E1800D283C2A1D284D282C2A1C2B7C286C2EA58
:104E2800C2A6C2A2C2B6C2A0D2E8D2E97FC87E009A
:104E3800125589C283D2A1C284C282D2B7D286D285
:104E4800EAD2A6D2A2D2B67F407E00125589D2A05D
:094E58007BFF7A51794E024EB045
:10431A007814E6FF540F14603424FA605F24FB60BB
:10432A007C240A60030243BEEFC4540F601024F9D0
:10433A0060082406700DE4FF80067F0380027F0177
:10434A001251857814E6540F4420F680677814E6F3
:10435A00C4540F601024FE601424F6600C24057007
:10436A00117F04800A7F0280067F0B80027F06127B
:10437A0051857814E6540F4410F680387814E6C450
:10438A00540F24F46008240A70097F0580027F0A0A
:10439A001251857814E6540F4470F680177814E6A3
:1043AA00C4540F640270057F091251857814E654CB
:1043BA000F44C0F67814E6FF54F0C4540FFEEF54CD
:0443CA00F04EF62299
:103E820090010AEFF07F1D124F307F1E124F307FDC
:103E92001F124F307F20124F3090010AE024F87039
:103EA20003023F3324FC6057146022146003023F74
:103EB2005DE4FD7F151252BA9001C0E054F0440E49
:103EC200F07814E6C4540F64027062807E7D207F15
:103ED200151252BA9001C0E054F0440DF07814E685
:103EE200C4540F640770149001BEE0C4131354034A
:103EF2001350047D1F80347D1D80307D1B80557DD5
:103F0200807F151252BA9001C0E054F0440CF07850
:103F120014E6C4540F640770149001BEE0C4131376
:103F220054031350047D1F80027D1D80277D1C8059
:103F320023E4FD7F151252BA9001C0E054F0440808
:103F4200F07814E6C4540F640270077D1B7F64FE90
:0C3F520080067D1C7F647E00123CC522AE
:1040F300EFB4090040030241A7904103F828287355
:1041030002411E02411E02414502411E0241450277
:10411300416502414502418B02419AC283D2A1C249
:1041230084C282D2B7D286D2EAD2A6D2A2D2B67F34
:10413300407E00125589D2A012555DEF6401703D97
:104143008034D283D284C2A1D284C2A1C2B7C2EACC
:10415300C2A6C2A2C2A012555DEF6401700280160E
:10416300801BC2A1D284C2B7C2EAC2A6C2A21255A0
:104173005DEF640170077D147F64FE80067D157F0B
:10418300647E00123DA4801C7BFF7A5179667F0513
:10419300124C38C282800D7BFF7A5179757F0512EC
:0C41A3004C38D2829001C0E0440FF022A2
:1051850090010AEFF012087151B20051B20151B20B
:105195000251B20351B20551B20651B20751B208DC
:1051A50051B20A51B20B51B215000051BA90010A21
:0651B500E0FF1240F322AE
:0156EC00229B
:0856B9007814E6C4540FFF222F
:0556D600E4900243F026
:0156DB0022AC
:0156ED00229A
:0156EE002299
:0156EF002298
:0156F0002297
:0156F1002296
:0156F2002295
:0C564F00EF540FFF7814E654F04FF622E1
:0756C8007814E6540FFF22E5
:1035E3002D3E002843414D5F494E4320253032781C
:1035F30029002843414D5F44454320253032782933
:1036030000284745545F4D43555F56455253494F34
:103613004E2900284456525F464143544F52595F46
:103623004D4F44452900284456525F464143544F69
:1036330052595F4641494C2900284D43555F4E4F2F
:10364300524D414C5F544F5F534C4545505F4D4F76
:10365300444529000D0A20436C656172456E636F12
:10366300726465722000284456525F5245424F4FA0
:10367300542900284456525F53485554444F574EDB
:103683002900284D43555F454E5445525F495350D9
:103693005F4D4F4445290028454E434F4445525FF3
:1036A30053455429002850616E656C5F4F4E2900C5
:1036B300284456522053544F50205245424F4F54A2
:1036C30029000D0A504F574552206B6579207072BF
:1036D300657373656400284D43555F534C454550EE
:1036E3005F544F5F4E4F524D414C5F4D4F44452900
:1036F300000D0A28574454206B69636B206F76656D
:1037030072203130207365636F6E64732C205472A2
:103713007920746F207265626F6F742074686520FE
:103723004456522900284143290028424154542930
:013733000095
:0D3CB200C1094201E7000041020900C10AFA
:10558900EF4E6010C2093009FDC209EF1F70011EFC
:05559900144E70F22227
:1055C700EF75F003A424ECF582E43401F583E0FEE3
:0455D700A3E0FF222C
:10559E00EF75F003A424EBF582E43401F583E0C348
:0555AE0013547FFF22F1
:1055DB00EF75F003A424EBF582E43401F583E0547A
:0355EB00FEF022AD
:10561200EF75F003A424EBF582E43401F583E01383
:015622002265
:104DCE009001E7E0FFA3E0900114CFF0A3EFF09085
:104DDE000114E0FEA3E0FFC39001E8E09FFF900105
:104DEE00E7E09EFE125673D3EF947FEE64809480BC
:104DFE00400F9001E7E0FFA3E0900114CFF0A3EF86
:094E0E00F0900114E0FEA3E0FFA6
:014E17002278
:08386A0090010FEEF0A3EFF056
:10387200E4A3F0A3F0A3F0124DCE900112EEF0A358
:10388200EFF090010FE0FEA3E0FFE4FCFD7B487A3D
:10389200EEF9F8C31207B9500A90010F74EEF0A3C3
:1038A2007448F090010FE0FEA3E0FF900113E02FB7
:1038B200FF900112E03EFEE4FCFD7B487AEEF9F84F
:1038C200C31207B9401F90010FE0FEA3E0FF900171
:1038D20012E0FCA3E0FD2FFFEC3EFED3ED9FEC9E39
:1038E200500302398FE49001E7F0A3F0900111F048
:1038F200900111E0FFC3940A74809480400302395E
:1039020088EF75F003A424EBF582E43401F583E03B
:10391200540164017067900111E0FF75F003A42463
:10392200ECF582E43401F583E0FCA3E0FD900112A2
:10393200E0FAA3E0FBD3ED9BEC9A402CEF75F00389
:10394200A424ECF582E43401F583C083C082C3A3CE
:10395200E09BFF0582D5820215831582E09AD08210
:10396200D083F0A3EFF08015900111E075F003A46D
:1039720024ECF582E43401F583E4F0A3F090011124
:10398200E004F00238F2E4900112F0A3F090011288
:05399200E0FEA3E0FFD0
:01399700220D
:10545400E4FFEFC3940A748094805015EF75F00351
:10546400A424EBF582E43401F583E054FEF00F80CC
:01547400E156
:015475002214
:0B3CC50090010BEEF0A3EFF0A3EDF078
:103CD000E4A3F0F090010EE0FFC3940A7480948096
:103CE000502EEF75F003A424EBF582E43401F58344
:103CF000E0FF540164017010EFC313547FFF900183
:103D00000DE06F7003023DA390010EE004F080C44B
:103D1000E490010EF090010EE0FFC3940A748094C9
:103D2000804003023DA3EF75F003A424EBF582E489
:103D30003401F583E0FF5401706090010EE0FE75E0
:103D4000F003A424EBF582E43401F583EF4401F0A1
:103D500090010DE0547F25E0FFEE75F003A424EB05
:103D6000F582E43401F583E054014FF090010BE05B
:103D7000FEA3E0FF12386A90010CE02FFF90010BC8
:103D8000E03EFE90010EE075F003A424ECF582E421
:103D90003401F583EEF0A3EFF02290010EE004F081
:033DA000023D15CC
:013DA30022FD
:104F3000E4FEEEC3940A748094805034EE75F0035E
:104F4000A424EBF582E43401F583E0FD540164010F
:104F5000701BEDC313547FB50713EE75F003A42443
:104F6000EBF582E43401F583E054FEF0220E80C2BA
:014F7000221E
:0B3DA40090010BEEF0A3EFF0A3EDF098
:103DAF00E4A3F0F090010EE0FFC3940A74809480B6
:103DBF00502DEF75F003A424EBF582E43401F58365
:103DCF00E0FF54016401700FEFC313547FFF9001A4
:103DDF000DE0B50702806490010EE004F080C5E4A9
:103DEF0090010EF090010EE0FFC3940A748094804E
:103DFF004003023E81EF75F003A424EBF582E43417
:103E0F0001F583E0FF5401706090010EE0FE75F044
:103E1F0003A424EBF582E43401F583EF4401F09021
:103E2F00010DE0547F25E0FFEE75F003A424EBF5C0
:103E3F0082E43401F583E054014FF090010BE0FE72
:103E4F00A3E0FF12386A90010CE02FFF90010BE006
:103E5F003EFE90010EE075F003A424ECF582E434ED
:103E6F0001F583EEF0A3EFF02290010EE004F002D3
:023E7F003DF311
:013E8100221E
:102CB500EFB40F004003022E6A902CC5F828287344
:102CC500022CF2022E6A022D04022D38022D6F020B
:102CD5002D7C022DA0022DC6022DE9022E5B022EAF
:102CE50017022E37022E45022E4F022E687BFF7AE1
:102CF5003579E3124FF0E4FD7FE87E03022E349030
:102D050001E6E0C39464748094805005E004F0808B
:102D1500069001E67464F09001E6E0FF1252889097
:102D250001E6E0FD7F117E00124E617BFF7A357969
:102D3500E680299001E6E0600414F08005E4900146
:102D4500E6F09001E6E0FF1252889001E6E0FD7F93
:102D5500117E00124E617BFF7A3579F59001E6E030
:102D6500FF90010FE4F0A3EF80757F8012402D7B6B
:102D7500FF7A36790480459001BEE0C413135403ED
:102D850013500D7F8312402D7BFF7A36791680060E
:102D95007BFF7A3679297F01022E659001C6E0FF17
:102DA5001313543F135003022E6A7814E654F0446B
:102DB50007F6EF4404F07BFF7A36793C7F03022E59
:102DC50065E490021AF0A3F09001C5F09001CEF0F1
:102DD500A3F09001D4F07BFF7A36795790010FF07C
:102DE5007F03807C7BFF7A3679697F03124C3890AC
:102DF50001C6E0FF131313541F135011EF54F7F0DE
:102E05007F081251857D087F607EEA80227F070258
:102E150051857BFF7A3679767F03124C389001C64F
:102E2500E04410F07F8212402D7D0A7F987E3A02A1
:102E35003CC57BFF7A3679857F03124C3802547680
:102E45007BFF7A36799A7F038016D2B77BFF7A3675
:102E550079A87F03800AD2B77BFF7A3679B37F03DF
:062E6500024C38C20A22F3
:0156F3002294
:1048B400E4900106F0A3F0A3F0A3F0900106F090B9
:1048C4000106E0C3940A748094805068124DCE901F
:1048D4000108EEF0A3EFF0900106E0FF125612502B
:1048E4004B900106E0FF1255C7D3900109E09F9059
:1048F4000108E09E4036900106E0FF1255DB90016E
:1049040006E0FF12559E900107EFF0C3940F7480E8
:1049140094805007E0FF122CB58011900107E0FF4E
:10492400C39426748094805003122074900106E08E
:0449340004F0808B80
:01493800225C
:10207400EF24F0B41600400302237690208D75F00F
:1020840003A4C58325F0C5837302210902237602C4
:1020940021E402219802223C0222DD02237602235B
:1020A400760222280220DB0220CF0220D30220D78E
:1020B4000220E00220E90220F20220FB02230002B7
:1020C400230E02231C02232A0223397F1A800A7F4B
:1020D4001B80067F1C80027F19024B187F1D124B48
:1020E400187D1D80197F1E124B187D1E80107F1FC6
:1020F400124B187D1F80077F20124B187D207FE82C
:102104007E030223731200269001C1EEF0A3EFF0C8
:102114009001BEE0FFC4135407135008EF54E04489
:1021240004F0805B9001C1E0FCA3E0FDC3EC9401EA
:10213400500B9001BEE054E04403F08042D3ED9490
:1021440000EC940140139001C1E09402500B900103
:10215400BEE054E04402F080269001C1E0FEA3E01A
:10216400D39400EE94024010EE9403500B9001BE01
:10217400E054E04401F080079001BEE054E0F090A8
:1021840001C6E01350057F8112402D7D107F887EAB
:10219400130223737BFF7A3679C57F06124C38907D
:1021A40001C6E0FF1313543F1350177814E654F09C
:1021B4004402F6EF54FBF07BFF7A3679D97F0302B1
:1021C4004C389001B7E0640170087D0A7F64FE0218
:1021D40023739001B77401F0FD7F107E00024E61FD
:1021E40012000E90020AEEF0A3EFF0C39432EE94C4
:1021F40000500B9001BFE054F84405F0801DD390CB
:10220400020BE0940090020AE094039001BFE040C6
:10221400054407F0800554F84406F07D127F107ED3
:10222400270223737BFF7A3679F47F01124C387DC1
:10223400187F107E270223737BFF7A3779287F0665
:10224400124C3812555DEF640170759001BEE04484
:1022540040F0E0C41354071350047D2480527814D2
:10226400E6C4540F640270129001BFE05407640581
:1022740060047D2180027D2380367814E6C4540FE7
:10228400640770129001BFE05407640560047D2266
:1022940080027D23801A7814E6C4540F64017017F9
:1022A4009001BFE05407640560047D2280027D2311
:1022B4007F647E00123CC57D147F887E13022373E5
:1022C4009001BEE054BFF07D237FF47E01123CC533
:1022D4007D157FF47E010223737BFF7A37792D7F8E
:1022E40006124C3812555DEF640170087D147FF4BA
:1022F4007E01807B7D157F887E1380739001C0E012
:10230400540F640D606C7F0D80289001C0E0540F61
:10231400640C605E7F0C801A9001C0E0540F640E60
:1023240060507F0E800C9001C0E0540F640860423E
:102334007F08023E8290020CE0240AF0E0643C70C4
:1023440007F0900213E004F0900213E0643C70077D
:10235400F0900218E004F0900218E064187007F09E
:10236400900217E004F01233107D257F107E2712AF
:032374003CC52243
:053CBF000311000000EC
:0156F4002293
:0C565B00EF541FFF7811E654E04FF622D8
:0756CF007811E6541FFF22D1
:0E5641001256F51256F61256E9400122D322F7
:0156F5002292
:0156F6002291
:0256E900D322CA
:0156F7002290
:0156F800228F
:0B5695007811E6C41313135401132214
:0C566700EF540FFF7812E654F04FF622CB
:0156F900228E
:100066000203AEE86480F8E933E83360110460F017
:10007600ED33EC337009E8FCE9FDEAFEEBFF220400
:1000860060DED3EB9FEA9EE99DE8C2E78CF0C2F7FB
:1000960095F0400CE8CCF8E9CDF9EACEFAEBCFFBC7
:1000A60012037985D0F05804700320D5B3E80470A4
:1000B600075002B2D50203B892D5EC0460F7E4CC3F
:1000C600C0E0C398F8603B94186008400DD0E0FB90
:1000D600020390E4FBFAC9FC8028E830E406E4C990
:1000E600FBE4CAFCE830E305E4C9CACBFCE85407E4
:1000F6006010F8C3E913F9EA13FAEB13FBEC13FCEF
:10010600D8F130F52FC3E49CFCEF9BFFEE9AFEED91
:1001160099FDD0E0FBEF4E4D4C701222DB0302033B
:10012600B5EC2CFCEF33FFEE33FEED33FDED30E79F
:10013600EB020390EF2BFFEE3AFEED39FDD0E0FB2C
:1001460050130BBB00030203B8ED13FDEE13FEEFD5
:0801560013FFEC13FC020390FF
:10015E00EC4D6011E8497017ED33EC3304600DE49B
:10016E00FCFFFEFD22E933E8330470F80203AE1201
:10017E00037958046009E4CC248150062850090202
:10018E0003B82840030203B5C0E0EB4A7044B980BF
:10019E0006D0E0FB0203A4EF4E701CBD8008EBFFFF
:1001AE00EAFEE9FD80EBE98DF0A4FEE5F0020247E0
:1001BE00E9CDF9EAFEEBFFEF89F0A4FCE5F0CE897C
:1001CE00F0A42EFFE435F0CD89F0A42DFEE435F039
:1001DE008067EF4E7005BD80D780C3EF8BF0A4AC67
:1001EE00F0EE8BF0A42CFCE435F0F8EF8AF0A42CA2
:1001FE00E5F038FCE433CB8DF0A42CFCE5F03BF8B5
:10020E00EE8AF0A42CFCE5F038F8E433CF89F0A4A4
:10021E002CFCE5F038CF3400CE89F0A42FFFE5F0AA
:10022E003EFEE433C98DF0A42EFEE5F039CD8AF002
:10023E00A42FFFE5F03EFEE43DFD33D0E0FB50077A
:10024E000BBB000F0203B8EC2CFCEF33FFEE33FEBA
:06025E00ED33FD020390E8
:100264000203B8EC5D046005E8590470030203AEB0
:10027400120379580460F6EC4860F2EC7004FDFE59
:10028400FF22C860DB2481C85009C398600250066D
:100294000203B59850CAF582E9294B4A7005AB822E
:1002A4000203A475F0007C1A7880C3EF9BEE9AEDEC
:1002B40099400DC3EF9BFFEE9AFEED99FDE842F0E5
:1002C400DC23ACF0D0E0FFD0E0FED0E0FDAB822038
:1002D400E7101BEB60BAEC2CFCEF33FFEE33FEEDC2
:1002E40033FD020390E803F830E705C0F075F00031
:1002F400EF2FFFEE33FEED33FD40B830E7C280AAA6
:1003040075F020800E75F010800575F0087D007E74
:10031400007F003392D530D5031207ABEC33401085
:10032400EF33FFEE33FEED33FDEC33FCD5F0ED227D
:0E033400E5F0247EA2D513CC92E7CDCEFF22B9
:10034200EDD2E7CD33EC3392D524814006E4FFFEB3
:10035200FDFC22FCE4CFCECDCC24E0501174FF8012
:10036200EDC3CC13CCCD13CDCE13CECF13CF0470AF
:07037200F030D5DE0207ABFD
:10037900E9D2E7C933E833F892D5EDD2E7CD33ECCA
:0703890033FC5002B2D52243
:10039000EC30E7100FBF000C0EBE00080DBD0004CE
:1003A0000BEB6014A2D5EB13FCED92E7FD2274FF7A
:1003B000FCFDFEFF22E480F8A2D574FF13FC7D80D3
:0303C000E480EFE7
:1047AE00024BDDE493A3F8E493A34003F68001F2F9
:1047BE0008DFF48029E493A3F85407240CC8C3330C
:1047CE00C4540F4420C8834004F456800146F6DFDB
:1047DE00E4800B0102040810204080903BC7E47E69
:1047EE00019360BCA3FF543F30E509541FFEE493D0
:1047FE00A360010ECF54C025E060A840B8E493A397
:10480E00FAE493A3F8E493A3C8C582C8CAC583CAC1
:10481E00F0A3C8C582C8CAC583CADFE9DEE780BE79
:013CC40000FF
:1003C300E709F608DFFA8046E709F208DFFA803E1C
:1003D30088828C83E709F0A3DFFA8032E309F60809
:1003E300DFFA8078E309F208DFFA807088828C8371
:1003F300E309F0A3DFFA806489828A83E0A3F60825
:10040300DFFA805889828A83E0A3F208DFFA804CFE
:1004130080D280FA80C680D4806980F280338010D5
:1004230080A680EA809A80A880DA80E280CA80333E
:1004330089828A83ECFAE493A3C8C582C8CCC583B6
:10044300CCF0A3C8C582C8CCC583CCDFE9DEE78086
:100453000D89828A83E493A3F608DFF9ECFAA9F005
:10046300EDFB2289828A83ECFAE0A3C8C582C8CC5B
:10047300C583CCF0A3C8C582C8CCC583CCDFEADE74
:10048300E880DB89828A83E493A3F208DFF980CCD6
:1004930088F0EF60010E4E60C388F0ED2402B404CF
:1004A3000050B9F582EB2402B4040050AF23234576
:0604B30082239004137384
:1004B900BB010689828A83E0225002E722BBFE0241
:0904C900E32289828A83E4932274
:1004D200BB010CE58229F582E5833AF583E02250DF
:1004E20006E92582F8E622BBFE06E92582F8E22229
:0D04F200E58229F582E5833AF583E4932243
:1004FF00BB010989828A83F8E028F022500327F78D
:10050F0022BBFE05F8E328F3228A838982F8E4935D
:02051F00282290
:10052100F8BB010DE58229F582E5833AF583E8F010
:10053100225006E92582C8F622BBFE05E92582C8BC
:02054100F222A4
:10054300EF8DF0A4A8F0CF8CF0A428CE8DF0A42ECC
:02055300FE2286
:10055500BC000BBE0029EF8DF084FFADF022E4CC8A
:10056500F875F008EF2FFFEE33FEEC33FCEE9DEC53
:10057500984005FCEE9DFE0FD5F0E9E4CEFD22ED99
:10058500F8F5F0EE8420D21CFEADF075F008EF2FE3
:10059500FFED33FD4007985006D5F0F222C398FDD4
:0505A5000FD5F0EA2271
:1005AA00C2D5EC30E709B2D5E4C39DFDE49CFCEE6C
:1005BA0030E715B2D5E4C39FFFE49EFE120555C38A
:1005CA00E49DFDE49CFC800312055530D507C3E485
:0605DA009FFFE49EFE22DB
:1005E000C5F0F8A3E028F0C5F0F8E58215827002A6
:0605F0001583E038F02243
:1005F600A3F8E0C5F025F0F0E582158270021583B8
:06060600E0C838F0E82214
:10060C00BB010A89828A83E0F5F0A3E022500687B9
:10061C00F009E71922BBFE07E3F5F009E31922897B
:0B062C00828A83E493F5F074019322AE
:10063700BB0110E58229F582E5833AF583E0F5F001
:10064700A3E0225009E92582F886F008E622BBFEDE
:100657000AE92582F8E2F5F008E222E5832AF58324
:08066700E993F5F0A3E99322E9
:10066F00BB010A89828A83F0E5F0A3F0225006F7D6
:0F067F0009A7F01922BBFE06F3E5F009F31922D3
:10068E00E88FF0A4CC8BF0A42CFCE98EF0A42CFC0B
:10069E008AF0EDA42CFCEA8EF0A4CDA8F08BF0A489
:1006AE002DCC3825F0FDE98FF0A42CCD35F0FCEBE8
:1006BE008EF0A4FEA9F0EB8FF0A4CFC5F02ECD39AD
:0F06CE00FEE43CFCEAA42DCE35F0FDE43CFC221A
:1006DD0075F008758200EF2FFFEE33FECD33CDCCD4
:1006ED0033CCC58233C5829BED9AEC99E582984057
:1006FD000CF582EE9BFEED9AFDEC99FC0FD5F0D634
:10070D00E4CEFBE4CDFAE4CCF9A88222B800C1B95D
:10071D000059BA002DEC8BF084CFCECDFCE5F0CB9B
:10072D00F97818EF2FFFEE33FEED33FDEC33FCEBD4
:10073D0033FB10D703994004EB99FB0FD8E5E4F98F
:10074D00FA227818EF2FFFEE33FEED33FDEC33FC7C
:10075D00C933C910D7059BE99A4007EC9BFCE99A70
:10076D00F90FD8E0E4C9FAE4CCFB2275F010EF2FB5
:10077D00FFEE33FEED33FDCC33CCC833C810D707B5
:10078D009BEC9AE899400AED9BFDEC9AFCE899F8F0
:0E079D000FD5F0DAE4CDFBE4CCFAE4C8F92283
:0E07AB00C3E49FFFE49EFEE49DFDE49CFC225F
:1007B900EB9FF5F0EA9E42F0E99D42F0EC6480C8B7
:0607C90064809845F02257
:1007CF00EB9FF5F0EA9E42F0E99D42F0E89C45F080
:0107DF0022F7
:1007E000E86010ECA2E713FCED13FDEE13FEEF132F
:0407F000FFD8F0221C
:1007F400BB010789828A830208A35005E9F802082D
:1008040097BBFE05E9F80208AF89828A830208BB18
:0C081400ECF0A3EDF0A3EEF0A3EFF02257
:10082000A8828583F0D083D082120837120837124D
:100830000837120837E473E493A3C583C5F0C58372
:10084000C8C582C8F0A3C583C5F0C583C8C582C822
:010850002285
:10085100BB010789828A830208D45005E9F802089E
:10086100CBBBFE05E9F80208DD89828A830208E62E
:10087100D083D082F8E4937012740193700DA3A316
:1008810093F8740193F5828883E47374029368602A
:06089100EFA3A3A380DF2A
:0C567300EE30E707C3E49FFFE49EFE2238
:0C089700E6FC08E6FD08E6FE08E6FF228D
:0C08A300E0FCA3E0FDA3E0FEA3E0FF22C8
:0C08AF00E2FC08E2FD08E2FE08E2FF2285
:1008BB00E493FC740193FD740293FE740393FF2283
:0908CB00E6FB08E6FA08E6F92252
:0908D400E0FBA3E0FAA3E0F92225
:0908DD00E2FB08E2FA08E2F9224C
:0C08E600E493FB740193FA740293F9226E
:00000001FF
