:03000000025EAEEF
:0C5EAE00787FE4F6D8FD758179025EF57E
:103C1D000D0A507265762E46573A2530327825308A
:103C2D00327825303278000D0A437572722E465760
:103C3D003A253032782530327825303278000D0A29
:103C4D0043616E6E6F7420616363657373204545C8
:103C5D0050524F4D21212121000D0A4E6F20696ECA
:103C6D00697469616C697A6500285345545F4D43E9
:103C7D00555F504F5745525F444F574E5F4D4F4420
:103C8D00452920000D0A285345545F50574D3D25B9
:103C9D003032782076616C3D253032782900282A23
:103CAD004456524368616E676543757272656E74F2
:103CBD003D3330306D412900282A44565243686106
:103CCD006E676543757272656E743D313030306D5F
:103CDD004129000D0A3D3D3D3D3D3D3D3D3D3D3DB7
:103CED003D3D3D3D3D3D3D3D3D3D3D3D3D3D3D3DF7
:103CFD003D3D3D3D3D3D3D000D0A53797374656D70
:103D0D0020686173206265656E20776F726B696ED6
:103D1D006720666F7220256420646179732C2025DD
:103D2D006420686F7572732C202564206D696E7523
:103D3D0074657320616E64202564207365636F6EF6
:103D4D006473000D0A53797374656D206861732077
:103D5D006265656E20776F726B696E6720666F7234
:103D6D0020256420686F7572732C202564206D6981
:103D7D006E7574657320616E6420256420736563B0
:103D8D006F6E6473000D0A53797374656D206861ED
:103D9D0073206265656E20776F726B696E67206642
:103DAD006F72202564206D696E7574657320616E68
:103DBD0064202564207365636F6E6473000D0A5370
:103DCD00797374656D20686173206265656E207707
:103DDD006F726B696E6720666F7220256420736544
:103DED00636F6E6473000D0A284261747465727995
:103DFD004254483D25642825642E25645629290002
:103E0D002854454D505F484947482900284849479F
:103E1D00485F544D45505F5741524E290028544537
:103E2D004D505F4C4F572900284C4F575F544D450F
:103E3D00505F5741524E29002854454D505F4E4F0B
:103E4D00524D414C29000D0A2842617474657279F6
:103E5D004341503D25642825642E25303464562970
:103E6D002928256456290028484947485F43484179
:103E7D005247452900284C4F575F4348415247450B
:103E8D002900284E4F524D414C5F43484152474502
:103E9D0029002853544F505F43484152474529004C
:103EAD00284348415247455F4E4F5F424154542984
:103EBD0000285F424154545F5354415455535F435E
:103ECD00415041434954595F4C4556454C302900AA
:103EDD00285F424154545F5354415455535F4341FD
:103EED005041434954595F4C4556454C31290028A2
:103EFD005F424154545F5354415455535F434150B5
:103F0D0041434954595F4C4556454C322900285F71
:103F1D00424154545F5354415455535F43415041B2
:103F2D00434954595F4C4556454C332900285F424F
:103F3D004154545F5354415455535F434150414391
:103F4D004954595F4C4556454C342900285F424130
:103F5D0054545F5354415455535F43415041434969
:103F6D0054595F4D494E2900285F424154545F53C7
:103F7D0054415455535F43415041434954595F4D4A
:103F8D0041582900285F424154545F5354415455C0
:103F9D00535F43415041434954595F4D41585F531D
:103FAD00544F50290028424154544552595F4341C2
:103FBD005041434954595F4E4F5F535441525455EC
:103FCD00502900285F424154545F53544154555376
:103FDD005F4E4F5F42415454290028434841524798
:103FED00455F544D45505F41424E4F524D414C2916
:103FFD00000D0A285F504F5745525F535441545599
:10400D00535F534156494E4729000D0A285F504FC3
:10401D005745525F5354415455535F4F46462900FF
:10402D000D0A285F504F5745525F53544154555315
:10403D005F4E4F524D414C29000D0A28504F5745A8
:0D404D00525F5354415455533D25642900E2
:104EC8004102AB004102AC004102940041029D0046
:104ED80041029F004102920041028A004102AD0056
:104EE80041028F0002400000014600C101C180025A
:104EF80047000001440001450002740000046900F5
:104F0800000000046D00000000C10441028B010193
:104F18007200014200014300C102C1034102950031
:104F280041028C004102A0004402A7000000004199
:104F380002A5004102A6004402A1000000004402AC
:104F4800980000000041029C0042029600004102C5
:024F58009E00B9
:105895001263FB9002001218317F047E001268A18A
:1058A5007E00C007C0067F051268A17E00C007C044
:1058B500067F061268A190020EE4F0A3EFF09002B5
:1058C5000CD0E0F0A3D0E0F090020AD0E0F0A3D035
:1058D500E0F07BFF7A3C791D1266681263FBE47B7E
:1058E50044FAF9F8C31217C6605F7BFF7A3C793436
:1058F500E490020AF0A3F0A3F0A3F0A3F0A374448C
:10590500F01266681269BB7F047E001268A17E00F2
:10591500C007C0067F051268A17E00C007C0067FCC
:10592500061268A190020EE4F0A3EFF090020CD0ED
:10593500E0F0A3D0E0F090020AD0E0F0A3D0E0F0D0
:105945007BFF7A3C79341266681263FBE47B44FA88
:10595500F9F8C31217C6700B12648FEF701E12563A
:105965006480197BFF7A3C794B1266687BFF7A3C31
:10597500796612666890015B74FFF0227F64126994
:0E598500ED7811E6540F4410F654F04402F68B
:0159930022F1
:10630A00758DF4759850758922758855758A40750A
:10631A008C4075878075B80275A892D299D2ACE480
:10632A00F5C8C2CAD2AD75AA5075BAF443A61843C5
:10633A00AD10C203F5E9F5F975D90443D840439382
:10634A00A04391C475964075B10CF5B275B30CF5BE
:02635A00B4226B
:1067BE007BFF7A3C7976126668D2C2C2C1D2C0D251
:1067CE00C6C2C5D2C490028FE5A8F075A88090010C
:0F67DE00217401F0D2E8D2E97587820000002211
:1069840020850320EA137F327E001269D820850314
:0C69940020EA037F01227F00227F002206
:105CDD00900205EFF0A3EDF07BFF7A3C79919002F5
:105CED000AE4F0A3EFF0EDFFA3E4F0A3EFF01266EA
:105CFD0068900205E0607A24EB60602416606E24E3
:105D0D00EB707175EC80900206E0FFC374FF9FF598
:105D1D00FC75DC42EF7004F5DCC294900118E06470
:105D2D0010701175EC8075FC6675DC427BFF7A3C5A
:105D3D0079AB8017900118E06411701275EC8075C5
:105D4D00FCFF75DC427BFF7A3C79C51266689002D8
:105D5D0006E0F4701F75DCFFD2942275ED80900281
:105D6D0006E0FFC374FF9FF5FD75DD422243D84069
:055D7D002253D8402272
:03000B00022E2D95
:0D2E2D00C0E0C0F0C083C082C0D075D008E6
:102E3A0005730545C3E545940A7480948040139050
:102E4A0001AFE004F070069001AEE004F0754500B1
:102E5A00D20C900293E0600214F0900293E06003B7
:102E6A00023239E5B0540C13135403FF9002AAE05E
:102E7A006F70030232399002A8E09002A7F0900224
:102E8A00A9E09002A8F09002AAE09002A9F0A3EFAC
:102E9A00F0D205900120E0FF7E0064019002937059
:102EAA0003F080037430F0EF64014E6003022FAA2E
:102EBA009002A7E0FF7E007014A3E06401700EA3E5
:102ECA00E064037008A3E064027002804FEF6401BB
:102EDA004E70149002A8E06403700CA3E0640270C0
:102EEA0006A3E0700280359002A7E064037012A383
:102EFA00E06402700CA3E07008A3E0640170028031
:102F0A001B9002A7E0FF7E0064027017A3E0701313
:102F1A00A3E06401700DA3E06403700790029CF0C3
:102F2A000231FEEF4E70169002A8E06402700EA302
:102F3A00E064037008A3E064017002805B9002A75A
:102F4A00E064027012A3E06403700CA3E0640170F1
:102F5A0006A3E0700280419002A7E0FF7E006403AE
:102F6A007012A3E06401700CA3E07008A3E064028D
:102F7A0070028024EF64014E60030231FE9002A8C1
:102F8A00E060030231FEA3E0640260030231FEA3A3
:102F9A00E0640360030231FE90029C04F00231FEF9
:102FAA009002A7E07045A3E06401703FA3E06403C8
:102FBA007039A3E0640270339002A1E0FCA3E0FD43
:102FCA00A3E0FEA3E0FFE4FAF9F8EF2401FFEA3EEA
:102FDA00FEE93DFDE83CFC9002A1121831900297EF
:102FEA00E004F07006900296E004F09002A7E06414
:102FFA00017043A3E06403703DA3E064027037A349
:10300A00E070339002A1E0FCA3E0FDA3E0FEA3E0A0
:10301A00FFE4FAF9F8EF2401FFEA3EFEE93DFDE894
:10302A003CFC9002A1121831900297E004F070065D
:10303A00900296E004F09002A7E064037043A3E0D4
:10304A006402703DA3E07039A3E06401703390021A
:10305A00A1E0FCA3E0FDA3E0FEA3E0FFE4FAF9F897
:10306A00EF2401FFEA3EFEE93DFDE83CFC9002A1A7
:10307A00121831900297E004F07006900296E0046C
:10308A00F09002A7E064027043A3E0703FA3E064FB
:10309A00017039A3E0640370339002A1E0FCA3E05D
:1030AA00FDA3E0FEA3E0FFE4FAF9F8EF2401FFEA4A
:1030BA003EFEE93DFDE83CFC9002A1121831900267
:1030CA0097E004F07006900296E004F09002A7E000
:1030DA007044A3E06402703EA3E064037038A3E086
:1030EA00640170329002A1E0FCA3E0FDA3E0FEA31C
:1030FA00E0FFEF24FFFFEE34FFFEED34FFFDEC347A
:10310A00FFFC9002A1121831900297E004F07006B9
:10311A00900296E004F09002A7E064027042A3E0F5
:10312A006403703CA3E064017036A3E0703290023D
:10313A00A1E0FCA3E0FDA3E0FEA3E0FFEF24FFFF74
:10314A00EE34FFFEED34FFFDEC34FFFC9002A112D9
:10315A001831900297E004F07006900296E004F0AD
:10316A009002A7E064037042A3E06401703CA3E00C
:10317A007038A3E0640270329002A1E0FCA3E0FD83
:10318A00A3E0FEA3E0FFEF24FFFFEE34FFFEED34E1
:10319A00FFFDEC34FFFC9002A1121831900297E077
:1031AA0004F07006900296E004F09002A7E0640131
:1031BA007042A3E0703EA3E064027038A3E06403A7
:1031CA0070329002A1E0FCA3E0FDA3E0FEA3E0FFC1
:1031DA00EF24FFFFEE34FFFEED34FFFDEC34FFFC7D
:1031EA009002A1121831900297E004F07006900242
:1031FA0096E004F0900120E07035C3900297E094C5
:10320A003C900296E094004026900106E0FCA3E080
:10321A00FDA3E0FEA3E02401FFE43EFEE43DFDE45D
:10322A003CFC900106121831900296E4F0A3F0D308
:10323A00E5739460748094805003023365054AE50F
:10324A004A700205497573000544E54464647010C8
:10325A00F544E5469002956005E004F08002E4F04A
:10326A00E575F47003E574F460080575E575700298
:10327A000574AF70AE6FAD6EAC6DEC4D4E4F601411
:10328A00EF24FFF570EE34FFF56FED34FFF56EECC9
:10329A0034FFF56D90028DE07002A3E0600E90029B
:1032AA008EE024FFF090028DE034FFF0E5E8F4FFB1
:1032BA00131313541F30E079E54164324540701A04
:1032CA0090010AE0600B7811E6FFC4540F6407709E
:1032DA0056754601C200D201804DE541642C700446
:1032EA00E540640170219002A5E064017019900123
:1032FA000AE06401701130002E754601D201900275
:10330A00A604F0C2008020E541B4201BE540B403C6
:10331A001630000D754601D2019002AD7401F0C25B
:10332A00007540007541330541E541702E05408026
:10333A002AC3E5419432E5409400401290010AE024
:10334A006401700A300007754601D201800575468E
:0B335A0000C201D20075400075410068
:0B336500D0D0D082D083D0F0D0E03276
:10447D007BFF7A3C79E07F0112651D90029DE0FF84
:10448D0060327BFF7A3D790590020AE4F0A3EFF0EC
:10449D0090029FE0FF90020CE4F0A3EFF0900292E7
:1044AD00E0FF90020EE4F0A3EFF090028AE0FF909F
:1044BD000210805790029FE0FF60257BFF7A3D79C7
:1044CD005090020AE4F0A3EFF0900292E0FF900208
:1044DD000CE4F0A3EFF090028AE0FF90020E802B27
:1044ED00900292E0FF7BFF60167A3D799290020A6E
:1044FD00E4F0A3EFF090028AE0FF90020C800C7ABA
:10450D003D79CA90028AE0FF90020AE4F0A3EFF031
:10451D007F0312651D9001F2E0FEA3E0FF90020AF9
:10452D00EEF0A3EFF07805C333CE33CED8F9FBAA66
:10453D00067C277D10FF12154C90020CEEF0A3EFB8
:10454D00F07C277D10AF03AE0212154CA3ECF0A347
:10455D00EDF07BFF7A3D79F37F0212651D9001131B
:10456D00E0541F6406700A7BFF7A3E790D7F01804F
:10457D0042900114E0C31313500A7BFF7A3E791960
:10458D007F03802F900113E0541F6408700A7BFF96
:10459D007A3E792A7F04801B900114E01313543F57
:1045AD00137BFF50087A3E79357F0380067A3E797A
:1045BD00457F0212651D900115E0541F6409706F4F
:1045CD00A3E0FEA3E07805C333CE33CED8F9246A39
:1045DD00FFEE34FFFE7C277D1012154C7E007F64AC
:1045ED00CFCDCFCECCCE12154CAA06AB079001166F
:1045FD00E0FEA3E07805C333CE33CED8F9246AFFAD
:10460D00EE34FFFE7C277D1012154C7C007D64126C
:10461D00153AEF2BFFEE3AFE900204F0A3EFF07D7A
:10462D003712153A7D6412154C900204EE8071908C
:10463D000116E0FEA3E0FF7C007D3B12153A7D6480
:10464D0012154CEF25E0FBEE33FA900116E0FEA3B8
:10465D00E0FF7C007D3B12153A7D6412154CEF2B6B
:10466D00FFEE3AFE900204F0A3EFF07C037DE8121A
:10467D00154CEF4E9002046017E0FEA3E0FF7C00A6
:10468D007D0A12154CEF2401FFE43E9002048010C8
:10469D00E0FEA3E0FF7C007D0A12154C900204EEB3
:1046AD00F0A3EFF0900116E0FEA3E0FF90020AEEFA
:1046BD00F0A3EFF07C007D2112153AAA06AB077C22
:1046CD00277D1012154CA3EEF0A3EFF07C277D1083
:1046DD00AF03AE0212154CA3ECF0A3EDF090020463
:1046ED00E0FFA3E0900210CFF0A3EFF07BFF7A3E46
:1046FD0079537F0512651D900115E0541F640D70EF
:10470D000A7BFF7A3E79747F02804E900115E0544A
:10471D001F640E700A7BFF7A3E79827F03803A9088
:10472D000115E0541F640F700A7BFF7A3E798F7F6D
:10473D00058026900115E0541F6410700A7BFF7AE6
:10474D003E799F7F018012900115E0541F6409701E
:10475D000B7BFF7A3E79AD7F0112651D900112E052
:10476D00541F640470087BFF7A3E79BE804490012B
:10477D0012E0541F640370087BFF7A3E79DD8032AE
:10478D00900112E0541F640270087BFF7A3E79FCA1
:10479D008020900112E0541F640170087BFF7A3F66
:1047AD00791B800E900112E0541F700A7BFF7A3F37
:1047BD00793A7F028062900112E0541F6415700AED
:1047CD007BFF7A3F79597F04804E900112E0541F90
:1047DD006416700A7BFF7A3F79757F06803A9001E7
:1047ED0012E0541F6417700A7BFF7A3F79917F05A1
:1047FD008026900112E0541F6418700A7BFF7A3FE7
:10480D0079B27F058012900112E0541F6409700B7C
:10481D007BFF7A3F79D07F0112651D900114E01363
:10482D001313541F13500B7BFF7A3F79E77F01124F
:10483D00651D7811E6C4540F640770087BFF7A3F3D
:10484D0079FE80377811E6C4540F640170087BFF40
:10485D007A40791780257811E6C4540F64027BFFE6
:10486D0070067A40792D80137A4079467811E6C426
:10487D00540FFF90020AE4F0A3EFF07F0612651DBE
:0B488D007BFF7A3C79E07F0102651D93
:106A0500E4FFEFC3941D74809480500974222FF81D
:056A1500E4F60F80ED26
:016A1A002259
:1061BE00EF24E2B40A0050709061D475F003A4C5C8
:1061CE008325F0C583730261FE0261F20261FC0257
:1061DE0061F7026200026236026208026212026215
:1061EE001F02622BD2E9D2E822D2E8C2E922800550
:1061FE00801530E817C2E8D2E92230E905C2E9D2AB
:10620E00E822800830E805C2E8C2E922D2E8D2E9E5
:10621E002230E904C2E98002D2E9C2E82230E80461
:09622E00C2E88002D2E8C2E922B4
:03000300025D8219
:105D8200C0E0C0F0C083C082C0D075D008C2A89065
:105D9200029CE0900298701DE0FCA3E0FDA3E0FEEF
:105DA200A3E0FFE4FAF9F8EF2401FFEA3EFEE93D41
:105DB200FDE83C801AE0FCA3E0FDA3E0FEA3E0FFC7
:105DC200EF24FFFFEE34FFFEED34FFFDEC34FFFC69
:105DD20090029812183190029EE0C39464748094E9
:105DE200804026900127E0FCA3E0FDA3E0FEA3E0B3
:105DF2002401FFE43EFEE43DFDE43CFC9001271259
:105E0200183190029EE4F0800690029EE004F0D2E7
:0C5E1200A8D0D0D082D083D0F0D0E032F5
:0300130002000EDA
:03000E00C2AA3251
:030023000267ED84
:1067ED00C0E0C0D075D008309819744B2571F8A64B
:1067FD00990571C3E571941E748094804003757181
:0F680D0000C298309904C299C202D0D0D0E032B4
:030063000266E44E
:1066E400C0E0C0D075D008E5AA54016401701A5303
:1066F400AAFE74222542F8A69A0542C3E542941ED6
:10670400748094804003754200E5AA5402640270C8
:0B6714000553AAFDC203D0D0D0E03234
:0B6ABB00E542B543037F00227F01226B
:1069660053ADEF74222543F8E6FF0543E543C39490
:0D6976001E748094804003E4F54343AD108F
:0169830022F1
:086AC6002003FD8F9AD2032288
:03002B00026AA0C6
:0F6AA000C0E0C2CF0548E54870020547D0E0329C
:1069ED00E5442FFFE433FE7C007D6412154CE54435
:0769FD00B505FBE4B504F74A
:016A0400226F
:0300330002692837
:10692800C0E0C083C082C2C2C2C175878090028F96
:0F693800E0F5A8900121E4F0D082D083D0E032C6
:03003B0002694710
:10694700C0E0C083C082C2C6C2C575878090028F6F
:0F695700E0F5A8900121E4F0D082D083D0E032A7
:106A6B000D0A436C656172426173696345452E2E55
:026A7B002E00EB
:1063FB007E007D007C007F051268A1EF7F00FEC050
:10640B0007C0067F047E001268A17E00EF7810C3E0
:10641B0033CE33CED8F9FDD0E04EFED0E04DFFC0E9
:10642B0007C0067F067E001268A1EFFDD0E0FED00C
:09643B00E04DFFEE3395E0FDFC9D
:016444002235
:10648F009002047401F0E4FFFE1268A1EF64306023
:10649F00037F00227F017E001268A1EF6437600343
:1064AF007F00227F027E001268A1EF643060037FBD
:1064BF0000227F037E001268A1EF644960037F0012
:0664CF0022900204E0FF30
:0164D50022A4
:1069BB00E4FD7F04FE1264D6E4FD7F05FE1264D66F
:0969CB007D447F067E000264D6C3
:105664007BFF7A6A796B1266687D30E4FFFE126410
:10567400D67D377F017E001264D67D307F027E00A6
:105684001264D67D497F037E001264D67D017F10AB
:105694007E001264D67D277F117E001264D6E4FD5D
:1056A4007F07FE1264D6E4FD7F12FE1264D6E4FD89
:1056B4007F13FE1264D67D017F147E001264D6E44B
:1056C400FD7F29FE1264D67D017F157E001264D60B
:1056D400E4FD7F16FE1264D67D017F177E001264FE
:1056E400D6E4FD7F18FE1264D67D017F197E001278
:1056F40064D6E4FD7F20FE1264D67D017F217E0006
:105704001264D6E4FD7F22FE1264D6E4FD7F23FEFC
:105714001264D6E4FD7F24FE1264D6E4FD7F25FEE8
:105724001264D6E4FD7F26FE1264D6E4FD7F27FED4
:105734001264D6E4FD7F28FE1264D67D017F307E9C
:10574400001264D6E4FD7F31FE1264D67D017F32FF
:105754007E001264D6E4FD7F33FE1264D67D017FA1
:10576400347E001264D6E4FD7F35FE1264D67D01DA
:0F5774007F367E001264D6E4FD7F37FE0264D6D6
:044F5A00410105000C
:09210E00126ABBEF70030228D62F
:10211700126966900200EFF07E00647E700DC20BBC
:1021270090010504F0E4900003F022EF647D4E7007
:1021370003D20B22300B09C20B900200E04470F06F
:10214700900105E0FB64046010900003E0FE90023C
:1021570000E0FDEE6D900003F0EB24FE603B1460A1
:1021670072147003022228240360030228D6900207
:1021770000E0900002F01424F8501424F924FD50D4
:102187000E248C6011240224FB5004245A704190C1
:1021970001057402F0220228D1900200E0900001AC
:1021A700F0A3E01424F8501424F924FD500E248CD5
:1021B700601E240224FB5004245A7014900001E08E
:1021C70070028053E4900000F09001057403F02240
:1021D7000228D1900002E01424F8501424F924FDB9
:1021E700500E248C6038240224FB5004245A702E8D
:1021F700900200E0FF900000E02405F582E434003F
:10220700F583EFF0900000E004F0A3E0FF900000FA
:10221700E06F60030228D69001057404F0220228BB
:10222700D1900200E0FF900003E06F60030228D125
:10223700900002E012188E22720122B50222CF030B
:1022470022D80422E10526940626DA07284808271B
:102257000510270E11277D12284030286F85288DFD
:102267008628958828A089000028D190011DE04480
:1022770001F0900115E054E04414F090011DE0FFD7
:10228700131313541F13500EEF54F7F07F13124B11
:10229700BD7F081265E990011DE0C3131340097D56
:1022A7001D7F107E2712599A75B2300228D17F1DE3
:1022B7001265E990011DE0C3131350030228D17D75
:1022C7001D7F107E2702289B7D067FE87E0302285C
:1022D7009B7D077F647E0002289B900120E06003BE
:1022E7000224BA7F15FE1268A1900005E06F705BAB
:1022F7007F16FE1268A1900006E06F704E7F17FEF2
:102307001268A1900007E06F70417F18FE1268A164
:10231700900008E06F70347F19FE1268A1900009E1
:10232700E06F70277F20FE1268A190000AE06F70AF
:102337001A7F21FE1268A190000BE06F700D7F22BB
:10234700FE1268A190000CE06F6060900005E0FD50
:102357007F157E001264D6900006E0FD7F167E0092
:102367001264D6900007E0FD7F177E001264D690B6
:102377000008E0FD7F187E001264D6900009E0FD9A
:102387007F197E001264D690000AE0FD7F207E0050
:102397001264D690000BE0FD7F217E001264D69078
:1023A700000CE0FD7F227E001264D6900005E0FD60
:1023B700C4540F75F00AA4FFED540F7C002FFDECF9
:1023C70035F0FC121300900169121831900006E0F5
:1023D700FDC4540F75F00AA4FFED540F7C002FFDC8
:1023E700EC35F0FC121300900157121831900007DA
:1023F700E0FDC4540F75F00AA4FFED540F7C002FC5
:10240700FDEC35F0FC12130090016D1218319000AD
:1024170008E0FDC4540F75F00AA4FFED540F7C00CB
:102427002FFDEC35F0FC12130090015C121831906F
:102437000009E0FDC4540F75F00AA4FFED540F7CAA
:10244700002FFDEC35F0FC121300900171121831CA
:1024570090000AE0FDC4540F75F00AA4FFED540F75
:102467007C002FFDEC35F0FC121300900160121870
:102477003190000BE0FDC4540F75F00AA4FFED5432
:102487000F7C002FFDEC35F0FC1213009001751244
:10249700183190000CE0FDC4540F75F00AA4FFED4D
:1024A700540F7C002FFDEC35F0FC121300900164F3
:1024B7000226887F307E001268A1900005E06F70C9
:1024C7005B7F31FE1268A1900006E06F704E7F328D
:1024D700FE1268A1900007E06F70417F33FE12681B
:1024E700A1900008E06F70347F34FE1268A190005D
:1024F70009E06F70277F35FE1268A190000AE06F30
:10250700701A7F36FE1268A190000BE06F700D7F86
:1025170037FE1268A190000CE06F6060900005E044
:10252700FD7F307E001264D6900006E0FD7F317E8D
:10253700001264D6900007E0FD7F327E001264D659
:10254700900008E0FD7F337E001264D6900009E01A
:10255700FD7F347E001264D690000AE0FD7F357E51
:10256700001264D690000BE0FD7F367E001264D621
:1025770090000CE0FD7F377E001264D6900005E0E6
:10258700FDC4540F75F00AA4FFED540F7C002FFD16
:10259700EC35F0FC12130090013712183190000649
:1025A700E0FDC4540F75F00AA4FFED540F7C002F13
:1025B700FDEC35F0FC121300900123121831900046
:1025C70007E0FDC4540F75F00AA4FFED540F7C001B
:1025D7002FFDEC35F0FC12130090014112183190D9
:1025E7000008E0FDC4540F75F00AA4FFED540F7CFA
:1025F700002FFDEC35F0FC12130090012B1218315F
:10260700900009E0FDC4540F75F00AA4FFED540FC4
:102617007C002FFDEC35F0FC1213009001451218D9
:102627003190000AE0FDC4540F75F00AA4FFED5481
:102637000F7C002FFDEC35F0FC12130090012F12D8
:10264700183190000BE0FDC4540F75F00AA4FFED9C
:10265700540F7C002FFDEC35F0FC1213009001495C
:1026670012183190000CE0FDC4540F75F00AA4FF56
:10267700ED540F7C002FFDEC35F0FC121300900198
:10268700331218317D0C7FE87E0302289B900005EA
:10269700E0C394057480948050037405F09000059E
:1026A700E024FB75F00AA4FFA3E02F9001A2F0D36A
:1026B70094287480948040057428F0800A9001A2C1
:1026C700E0FFC374289FF07D037FF47E01125A79DF
:1026D7000228D1900005E0FD7C00700A90011DE002
:1026E70054FDF00228D1ED64014C60030228D17F2C
:1026F7001D1265E990011DE04402F00228D17D0416
:102707007FE87E0302289B900005E0703390011D4F
:10271700E054FEF07F1D1265E97F221265E97F23F1
:102727001265E97F241265E97F251265E97F261284
:1027370065E97F271265E97D257F647E0002289B76
:10274700900005E06401700890011DE044088014C2
:10275700900005E0640260030228D190011DE04467
:1027670008F04410F07D087FE87E0312599A7F1D18
:102777001265E90228D1900005E0FD7C0064017034
:102787000E90011DE054BFF0E49002A5F0802F9059
:10279700010AE064017027ED4C702390011DE0549D
:1027A700BFF0E490010AF0FD7F10FE1264D690019D
:1027B7001DE0FF1313543F135004EF54FBF0900137
:1027C7000AE064017046900005E06402703E9001E3
:1027D70013E04420F090011DE054BFF0E490010A9B
:1027E700F0FD7F10FE1264D67F137E001268A1EF02
:1027F70070087D017F13FE1264D690011DE0FF1360
:1028070013543F13501BEF54FBF0801590010AE05F
:102817006401700D900005E0640370059002A50443
:10282700F07F0A1265E99002A5E0640160030228BF
:10283700D17D0A7F987E3A805B7D0B7FE87E03809F
:1028470053900005E0640170107D017F12FE126451
:10285700D69001687401F08071E4FD7F12FE126466
:10286700D6E4900168F08062900005E06401900171
:102877001870057411F080037410F0900115E0547E
:10288700E04414F080447D0F7FE87E0380067D10CE
:102897007FE87E0312599A8031900005E064017049
:1028A7001590012004F043B80143B70143A801E4A0
:1028B70090029EF08014E4900120F053B8FE53B7C5
:0F28C700FE53A8FE900296F0A3F0E4900105F0F6
:0128D60022DF
:046A30009291D290DD
:0F6A3400E4FFEFC394017480948050030F80F34C
:016A43002230
:0B64D600900208EEF0A3EFF0A3EDF041
:1064E100900208E0FEA3E07807CEC313CE13D8F9DB
:1064F10044A054FE90020BF0126A7D90020BE0FF63
:10650100126143900208A3E0FF12614390020AE086
:0C651100FF1261431200167F020269EDC8
:0468A100AD07AC068D
:1068A500ED7807CEC313CE13D8F944A054FEFF12DA
:1068B500671F900234EFF07F021269ED900234E019
:0168C500FFD3
:0168C60022AF
:08671F00900235EFF0A3EDF04C
:10672700126A7D900235E0FF126143900236E0FF66
:10673700126143126A7D900235E04401FF12614302
:10674700126758900237EFF0120016900237E0FFF9
:01675700221F
:106A7D00D291126A34D290126A34C291126A34C21F
:026A8D00902255
:0D001600C291126A34D290126A34D2912243
:10614300AE07C290EE30E703D38001C3126A30C2B8
:1061530090EE30E603D38001C3126A30C290EE3072
:10616300E503D38001C3126A30C290EE30E403D357
:106173008001C3126A30C290EE30E303D38001C3BF
:10618300126A30C290EE30E203D38001C3126A3048
:10619300C290EE30E103D38001C3126A30C290EEA5
:1061A30030E003D38001C3126A30C290C290C29020
:0B61B300D291D290D290D290C29022E4
:10675800E4FED291126A34C290E4FDFCD290EE2598
:10676800E0FE3091034401FEC2900DBD00010CED26
:1067780064084C70E7126A34D290D290D290C290DA
:02678800AF065A
:01678A0022EC
:1060C500AE07C290EE30E703D38001C3126A30C237
:1060D50090EE30E603D38001C3126A30C290EE30F1
:1060E500E503D38001C3126A30C290EE30E403D3D6
:1060F5008001C3126A30C290EE30E303D38001C33E
:10610500126A30C290EE30E203D38001C3126A30C6
:10611500C290EE30E103D38001C3126A30C290EE23
:1061250030E003D38001C3126A30C290C290C2909E
:0E613500D291126A34D290D290D290C29022AF
:0468E800AB07AA064A
:1068EC007E5E126A7D7F5E1260C5AF031260C5AF1B
:0C68FC00051260C51200167F020269ED53
:10635C007F011269A0EF60489002ADE064017014F7
:10636C0090010AE06401700C9002ADF07D057FF4A1
:10637C007E0180299002A6E06401701B90010AE066
:10638C00640170139002A5F09002A6F090010AF03F
:10639C00FD7F10FE0264D67D167F647E0012599A32
:0163AC0022CE
:1069A000A2019209C2012009037F0022EF6003AF18
:0A69B0004622200003AF46227F00BC
:0169BA0022BA
:106237000D0A5374617274204D61696E204C6F6F43
:10624700702E2E2E000D0A537461727420426F6FE8
:10625700742E2E2E000D0A2843616D657261566FEC
:106267006C743D256429000D0A28476F696E672005
:10627700746F20706F776572206F66662E2E2E29D9
:10628700000D0A2853746172742075702020506FB6
:10629700776572204F6E204D6F64652E2E2E290074
:0762A70000000000000000F0
:104F5E0046011200000000000042011D0000410148
:104F6E0022004101180041012100410120014401AC
:104F7E005200000000420119000041011B004101D6
:104F8E00560041014D0044014E00000000440169ED
:104F9E003F80000044016D3F8000004401713F805E
:104FAE0000004401753F80000044015700000000DE
:104FBE0044015C0000000044016000000000440158
:104FCE0064000000004401373F8000004401413F6F
:104FDE008000004401453F8000004401493F8000AD
:104FEE00004401230000000044012B000000004497
:104FFE00012F0000000044013300000000440106B0
:10500E00000000004401270000000046010C0000D3
:10501E000028001546013B000000280015602901FC
:10502E00790506080A0B0D0F10121416181A1C1EFD
:10503E00202225272A2C2F3235383B3E4245484B1D
:0A504E005055585D61666B70757A6D
:10678B0075E5028DE3900209E0F5E41214B0F5E231
:10679B0075E64675E6B9740129F9E43AFA900209EF
:1067AB00E004F0E070030D8DE390020AE014F0E0DA
:0367BB0070D32276
:0400060075E78122F7
:1068C700E4900204F01200067B017A027904900238
:1068D7000974FFF0A37401F07DEF12678B75E76011
:0168E700228E
:105C3000FF6DFD90024E7401F0A37402F0A374494D
:0A5C4000F0EFA3F07B017A0279393E
:105C4A0090024BEBF0A3EAF0A3E9F0900251E0FFD7
:105C5A00647E6005EF647D703F90024EE0FBA3E036
:105C6A00FAA3E0F91214B0FF90024BE0FBA3E0FAAA
:105C7A00A3E0F98F82758300747D12151890024E85
:105C8A00E0FBA3E0FAA3E0F974011214F6900251C2
:105C9A00E0540F4450FF8010900251E0FF90024EF2
:105CAA00E0FBA3E0FAA3E0F91214B0FE90024BE085
:105CBA00FBA3E0FAA3E0F98E82758300EF121518B0
:105CCA0090024EE0FBA3E0FAA3E0F974011214F685
:035CDA007F002226
:0B5E1E00900235EBF0A3EAF0A3E9F0DE
:105E2900900239747EF09002497401F0EF125C32ED
:105E3900900238E0125C30E490024AF0900238E0B7
:105E4900FF90024AE0FEC39F501E900235E0FBA37B
:105E5900E0FAA3E0F98E827583001214C9125C304E
:105E690090024AE004F080D490024E7401F0A374C9
:105E790002F0A37449F0ED125C42E490024AF090FA
:105E89000249E0FFA3E0FEC39F501774392EF58243
:105E9900E43402F583E0FF126AC690024AE004F096
:045EA90080DD7F0019
:015EAD0022D2
:05405A00900228EFF0C8
:10405F0078297C027D017BFF7A6279A77E007F073A
:10406F0012148A900228E0247F60551470030242D4
:10407F007B1470030242A71470030242B824FD7030
:10408F00030242C92407600302447C7F047E0012AE
:10409F0068A1900229EFF07F057E001268A19002BF
:1040AF002AEFF07F067E001268A190022BEFF07BC3
:1040BF00017A0279299002387403F07F80024479E3
:1040CF00900116E0FEA3E0FF7C007D3B12153A7DC8
:1040DF006412154CEF25E0FBEE33FA900116E0FE6B
:1040EF00A3E0FF7C007D3B12153A7D6412154CEF67
:1040FF002BFFEE3AAB07FA7C037DE8FE12154CEF6F
:10410F004E7C007D0AAF03AE02600912154CEF24FE
:10411F0001FB800512154CAB07900229EBF09001C3
:10412F00F2E0FCA3E0FDEC90022BF0EDA3F0900188
:10413F001BE0FF75F00A84C454F0FEEF75F00A849B
:10414F00E5F04E90022DF0E47B0AFAF9F890014E5B
:10415F00E0FCA3E0FDA3E0FEA3E0FF12171078043C
:10416F001217FEC004C005C006C007E47B0AFAF9A7
:10417F00F890014EE0FCA3E0FDA3E0FEA3E0FF12E8
:10418F001710AE02AF03D003D002D001D000EF4B17
:10419F00FF90022EEFF0900156E090022FF0900169
:1041AF0012E0F9C41313540313500790022AE0448A
:1041BF0001F0900113E0541FFD7C0064067007901E
:1041CF00022AE04402F0ED64084C700790022AE0E6
:1041DF004404F0E9C413540713500790022AE04433
:1041EF0008F0900114E0FD13500790022AE04410EC
:1041FF00F0EDC31313500790022AE04420F0900112
:10420F0014E01313543F13500790022AE04440F078
:10421F00208048308145D39001F3E0945A9001F209
:10422F00E094004036900113E0FFC41313540313BE
:10423F004029EF541F64077022A3E0131313541F78
:10424F00134018900112E0C413540713400D90014E
:10425F001CE0700790022AE04480F07B017A02791B
:10426F00299002387407F07F81024479900112E09F
:10427F00FFC4131313540113500D9002297401F04E
:10428F00EF547F900112F07B017A02792990023866
:10429F007401F07F820244797B017A0279299002BE
:1042AF00387401F07F830244797B017A0279299077
:1042BF0002387401F07F84024479900120E0640198
:1042CF0070059001278003900106E0FCA3E0FDA399
:1042DF00E0FEA3E0FF9002301218317BA07A8679BE
:1042EF00017800900230E0FCA3E0FDA3E0FEA3E024
:1042FF00FF121710900229EFF0E0C454F0F0900273
:10430F0030E0FCA3E0FDA3E0FEA3E0FF7BA07A86F4
:10431F0079017800121710AC00AD01AE02AF039017
:10432F000230121831900229E0FFC007E47B107AA7
:10433F0027F9F8900230E0FCA3E0FDA3E0FEA3E034
:10434F00FF121710D0E04F900229F0900230E0FCDE
:10435F00A3E0FDA3E0FEA3E0FFE47B107A27F9F8CA
:10436F00121710AC00AD01AE02AF0390023012185D
:10437F0031E47BE87A03F9F8900230E0FCA3E0FD2A
:10438F00A3E0FEA3E0FF12171090022AEFF0E0C4A3
:10439F0054F0F0900230E0FCA3E0FDA3E0FEA3E0B8
:1043AF00FFE47BE87A03F9F8121710AC00AD01AE09
:1043BF0002AF0390023012183190022AE0FFC007BB
:1043CF00E47B64FAF9F8900230E0FCA3E0FDA3E08F
:1043DF00FEA3E0FF121710D0E04F90022AF09002D8
:1043EF0030E0FCA3E0FDA3E0FEA3E0FFE47B64FA72
:1043FF00F9F8121710AC00AD01AE02AF0390023006
:10440F00121831E47B0AFAF9F8900230E0FCA3E0CD
:10441F00FDA3E0FEA3E0FF12171090022BEFF0E0D8
:10442F00C454F0F0900230E0FCA3E0FDA3E0FEA343
:10443F00E0FFE47B0AFAF9F8121710AC00AD01AEF9
:10444F0002AF0390023012183190022BE0FB900262
:10445F0030A3A3A3E0FFEB4F90022BF07B017A0276
:0D446F0079299002387403F07F87125E1ED9
:01447C00221D
:1062AE0012003E7D177F017E0012599A7D137F01E9
:1062BE007E0012599A7D187FE87E0312599A7D1539
:1062CE007F017E0012599A7D227F017E0012599A1B
:1062DE007D127F017E0012599A7D2F7F107E27122C
:1062EE00599A7D1A7F887E1312599A7D317F587E76
:0C62FE001B12599A900112E04440F0225B
:10510600900206EEF0A3EFF0A3EBF0A3EAF0A3E91A
:01511600F0A8
:1051170090000412162EFDD3EF9DE5F06480F8EEA3
:1051270064809840030251BA90020EE0FBA3E0FAB4
:10513700A3E0F990000412162EFFAEF0121603FD3D
:10514700C3EF9DFFEE95F0900211F0A3EFF09002F0
:1051570008E0FBA3E0FAA3E0F990000412162EFD85
:10516700ACF0121603FBAAF0C3ED9BFFEC9AFE907E
:105177000213F0A3EFF04E7002FF22900206E0FE4A
:10518700A3E0FFC3EF9BFFEE9AFE900211E0FCA3A2
:10519700E0FD12153AA3E0FCA3E0FD1215A1C0063D
:1051A700C00790020EE0FBA3E0FAA3E0F912160392
:1051B70002525E90020EE0FBA3E0FAA3E0F9900032
:1051C7000412162EFFAEF090000212162EC39FFF98
:1051D700E5F09E900211F0A3EFF0900208E0FBA328
:1051E700E0FAA3E0F990000412162EFFAEF090004B
:1051F7000212162EC39FFFE5F09EFE900213F0A346
:10520700EFF04E7002FF22900208E0FBA3E0FAA342
:10521700E0F990000412162EFFAEF0AB07AA069035
:105227000206E0FEA3E0FFC3EF9BFFEE9AFE9002AB
:1052370011E0FCA3E0FD12153AA3E0FCA3E0FD1288
:1052470015A1C006C00790020EE0FBA3E0FAA3E099
:10525700F990000412162EFFAEF0D0E02FFFD0E039
:105267003EF990020BE0FBA3E0FAA3E0C98FF0122E
:0452770016667F0137
:01527B002210
:10662A007E0090020B7401F0A37402F0A37404F0CC
:10663A00A37401F0A37401F0A3743BF07B017A0107
:10664A00790C125106900204E0FEA3E02479F58247
:0E665A0074013EF583E0FD7F027E000268E8D9
:02527C00AB077E
:10527E0090020012183D00000000EB640160030272
:10528E0053217F25FE1268A1E4FCFDFE9002001260
:10529E001831900200E0FCA3E0FDA3E0FEA3E0FFC6
:1052AE0078081217FE900200121831900200E0F8F2
:1052BE00A3E0F9A3E0FAA3E0FBC000C001C002C066
:1052CE00037F247E001268A1D003D002D001D0004B
:1052DE00EB4FFFEAFEE9FDE8FC9002001218319058
:1052EE000200E0FCA3E0FDA3E0FEA3E0FF780812BD
:1052FE0017FE900200121831900200E0F8A3E0F9B8
:10530E00A3E0FAA3E0FBC000C001C002C0037F23EC
:10531E000253B07F287E001268A1E4FCFDFE9002CD
:10532E0000121831900200E0FCA3E0FDA3E0FEA302
:10533E00E0FF78081217FE9002001218319002005A
:10534E00E0F8A3E0F9A3E0FAA3E0FBC000C001C0BF
:10535E0002C0037F277E001268A1D003D002D001C5
:10536E00D000EB4FFFEAFEE9FDE8FC9002001218B8
:10537E0031900200E0FCA3E0FDA3E0FEA3E0FF7885
:10538E00081217FE900200121831900200E0F8A3E6
:10539E00E0F9A3E0FAA3E0FBC000C001C002C00325
:1053AE007F267E001268A1D003D002D001D000EB80
:1053BE004FFFEAFEE9FDE8FC900200121831900260
:0C53CE0000E0FCA3E0FDA3E0FEA3E0FF74
:0153DA0022B0
:1048980090020012183D00000000900127E0FCA3E0
:1048A800E0FDA3E0FEA3E0FF9002041218317F258B
:1048B8007E001268A1E4FCFDFE90020012183190FF
:1048C8000200E0FCA3E0FDA3E0FEA3E0FF780812ED
:1048D80017FE900200121831900200E0F8A3E0F9E8
:1048E800A3E0FAA3E0FBC000C001C002C0037F241C
:1048F8007E001268A1D003D002D001D000EB4FFF98
:10490800EAFEE9FDE8FC900200121831900200E08E
:10491800FCA3E0FDA3E0FEA3E0FF78081217FE90D9
:104928000200121831900200E0F8A3E0F9A3E0FABF
:10493800A3E0FBC000C001C002C0037F237E0012B9
:1049480068A1D003D002D001D000EB4FFFEAFEE906
:10495800FDE8FC900200121831900204E0FCA3E08C
:10496800FDA3E0FEA3E0FF900200E0F8A3E0F9A3B6
:10497800E0FAA3E0FBC31217C67003024A2F7F3F79
:104988007E427D0F7C00900204E0F8A3E0F9A3E0EA
:10499800FAA3E0FBD31217C64022900204E0FCA35E
:1049A800E0FDA3E0FEA3E0943FFFEE9442FEED9409
:1049B8000FFDEC9400FC900204121831900204E000
:1049C800FCA3A3A3E0FFE4AD077F23FE1264D69007
:1049D8000204E0FCA3E0FDA3E0FEA3E0FF780812D8
:1049E80017D7900204121831900204E0FCA3A3A385
:1049F800E0FFE4AD077F24FE1264D6900204E0FCD9
:104A0800A3E0FDA3E0FEA3E0FF78081217D7900209
:104A180004121831900204E0FCA3A3A3E0FFE4AD64
:104A2800077F25FE1264D6900106E0FCA3E0FDA3F3
:104A3800E0FEA3E0FF9002041218317F287E0012E6
:104A480068A1E4FCFDFE900200121831900200E01B
:104A5800FCA3E0FDA3E0FEA3E0FF78081217FE9098
:104A68000200121831900200E0F8A3E0F9A3E0FA7E
:104A7800A3E0FBC000C001C002C0037F277E001274
:104A880068A1D003D002D001D000EB4FFFEAFEE9C5
:104A9800FDE8FC900200121831900200E0FCA3E04F
:104AA800FDA3E0FEA3E0FF78081217FE90020012B3
:104AB8001831900200E0F8A3E0F9A3E0FAA3E0FBC4
:104AC800C000C001C002C0037F267E001268A1D0CA
:104AD80003D002D001D000EB4FFFEAFEE9FDE8FC6D
:104AE800900200121831900204E0FCA3E0FDA3E05C
:104AF800FEA3E0FF900200E0F8A3E0F9A3E0FAA328
:104B0800E0FBC31217C67003024BBC7F3F7E427D99
:104B18000F7C00900204E0F8A3E0F9A3E0FAA3E018
:104B2800FBD31217C64022900204E0FCA3E0FDA3C9
:104B3800E0FEA3E0943FFFEE9442FEED940FFDECFF
:104B48009400FC900204121831900204E0FCA3A324
:104B5800A3E0FFE4AD077F26FE1264D6900204E0CE
:104B6800FCA3E0FDA3E0FEA3E0FF78081217D790AE
:104B78000204121831900204E0FCA3A3A3E0FFE4AE
:104B8800AD077F27FE1264D6900204E0FCA3E0FD87
:104B9800A3E0FEA3E0FF78081217D79002041218CA
:104BA80031900204E0FCA3A3A3E0FFE4AD077F2853
:044BB800FE1264D6AF
:014BBC0022D6
:10190F007F107E001268A190010AEFF07F117E0018
:10191F001268A19001A2EFF07F127E001268A190D1
:10192F000168EFF07F147E001268A190011FEFF0A5
:10193F0090010AE0C3940274809480400B7401F00C
:10194F00FD7F107E001264D6900168E0C39402748C
:10195F008094804009E4F0FD7F12FE1264D690015E
:10196F001FE0C3940274809480400B7401F0FD7FDC
:10197F00147E001264D67F157E001268A1EFC45446
:10198F000F75F00AA4FFAEF0C006C0077F157E00EA
:10199F001268A1EF540FFDD0E02DFDD0E03400FC14
:1019AF001213009001691218317F167E001268A180
:1019BF00EFC4540F75F00AA4FFAEF0C006C0077F46
:1019CF00167E001268A1EF540FFDD0E02DFDD0E080
:1019DF003400FC1213009001571218317F177E004C
:1019EF001268A1EFC4540F75F00AA4FFAEF0C00641
:1019FF00C0077F177E001268A1EF540FFDD0E02DB6
:101A0F00FDD0E03400FC12130090016D1218317FED
:101A1F00187E001268A1EFC4540F75F00AA4FFAE30
:101A2F00F0C006C0077F187E001268A1EF540FFDAB
:101A3F00D0E02DFDD0E03400FC12130090015C12B9
:101A4F0018317F197E001268A1EFC4540F75F00A88
:101A5F00A4FFAEF0C006C0077F197E001268A1EF89
:101A6F00540FFDD0E02DFDD0E03400FC1213009098
:101A7F0001711218317F207E001268A1EFC4540F3C
:101A8F0075F00AA4FFAEF0C006C0077F207E0012DB
:101A9F0068A1EF540FFDD0E02DFDD0E03400FC1213
:101AAF0013009001601218317F217E001268A1EFA0
:101ABF00C4540F75F00AA4FFAEF0C006C0077F2113
:101ACF007E001268A1EF540FFDD0E02DFDD0E03461
:101ADF0000FC1213009001751218317F227E001244
:101AEF0068A1EFC4540F75F00AA4FFAEF0C006C092
:101AFF00077F227E001268A1EF540FFDD0E02DFD6D
:101B0F00D0E03400FC121300900164121831E4FF8E
:101B1F00FE7DC07C40900169E0F8A3E0F9A3E0FAF4
:101B2F00A3E0FB121282402590016912183D3F80FD
:101B3F00000090015712183D000000007D017F1535
:101B4F007E001264D6E4FD7F16FE1264D6E4FFFE1B
:101B5F007DC07C4090016DE0F8A3E0F9A3E0FAA30B
:101B6F00E0FB121282402590016D12183D3F80005C
:101B7F000090015C12183D000000007D017F177E70
:101B8F00001264D6E4FD7F18FE1264D6E4FFFE7DDA
:101B9F00C07C40900171E0F8A3E0F9A3E0FAA3E064
:101BAF00FB121282402590017112183D3F800000F8
:101BBF0090016012183D000000007D017F197E002A
:101BCF001264D6E4FD7F20FE1264D6E4FFFE7DC0D2
:101BDF007C40900175E0F8A3E0F9A3E0FAA3E0FBE5
:101BEF00121282402590017512183D3F800000901F
:101BFF00016412183D000000007D017F217E00125C
:101C0F0064D6E4FD7F22FE1264D67F307E00126818
:101C1F00A1EFC4540F75F00AA4FFAEF0C006C007C1
:101C2F007F307E001268A1EF540FFDD0E02DFDD064
:101C3F00E03400FC1213009001371218317F317E0F
:101C4F00001268A1EFC4540F75F00AA4FFAEF0C0E4
:101C5F0006C0077F317E001268A1EF540FFDD0E060
:101C6F002DFDD0E03400FC12130090012312183127
:101C7F007F327E001268A1EFC4540F75F00AA4FFE3
:101C8F00AEF0C006C0077F327E001268A1EF540F7E
:101C9F00FDD0E02DFDD0E03400FC12130090014187
:101CAF001218317F337E001268A1EFC4540F75F004
:101CBF000AA4FFAEF0C006C0077F337E001268A1F2
:101CCF00EF540FFDD0E02DFDD0E03400FC121300D7
:101CDF0090012B1218317F347E001268A1EFC4548B
:101CEF000F75F00AA4FFAEF0C006C0077F347E0068
:101CFF001268A1EF540FFDD0E02DFDD0E03400FCB1
:101D0F001213009001451218317F357E001268A121
:101D1F00EFC4540F75F00AA4FFAEF0C006C0077FE2
:101D2F00357E001268A1EF540FFDD0E02DFDD0E0FD
:101D3F003400FC12130090012F1218317F367E00F1
:101D4F001268A1EFC4540F75F00AA4FFAEF0C006DD
:101D5F00C0077F367E001268A1EF540FFDD0E02D33
:101D6F00FDD0E03400FC1213009001491218317FAE
:101D7F00377E001268A1EFC4540F75F00AA4FFAEAE
:101D8F00F0C006C0077F377E001268A1EF540FFD29
:101D9F00D0E02DFDD0E03400FC121300900133127F
:101DAF001831E4FFFE7DC07C40900137E0F8A3E0DE
:101DBF00F9A3E0FAA3E0FB1212824025900137123B
:101DCF00183D3F80000090012312183D00000000D5
:101DDF007D017F307E001264D6E4FD7F31FE1264F8
:101DEF00D6E4FFFE7DC07C40900141E0F8A3E0F90E
:101DFF00A3E0FAA3E0FB12128240259001411218D2
:101E0F003D3F80000090012B12183D000000007D27
:101E1F00017F327E001264D6E4FD7F33FE1264D65A
:101E2F00E4FFFE7DC07C40900145E0F8A3E0F9A3FC
:101E3F00E0FAA3E0FB121282402590014512183DF3
:101E4F003F80000090012F12183D000000007D011F
:101E5F007F347E001264D6E4FD7F35FE1264D6E433
:101E6F00FFFE7DC07C40900149E0F8A3E0F9A3E0BC
:101E7F00FAA3E0FB121282402590014912183D3F50
:101E8F0080000090013312183D000000007D017F9B
:101E9F00367E001264D6E4FD7F37FE1264D67F25AE
:101EAF007E001268A1E4FCFDFE900127121831900C
:101EBF000127E0FCA3E0FDA3E0FEA3E0FF780812FA
:101ECF0017FE900127121831900127E0F8A3E0F9CF
:101EDF00A3E0FAA3E0FBC000C001C002C0037F244F
:101EEF007E001268A1D003D002D001D000EB4FFFCB
:101EFF00EAFEE9FDE8FC900127121831900127E076
:101F0F00FCA3E0FDA3E0FEA3E0FF78081217FE900C
:101F1F000127121831900127E0F8A3E0F9A3E0FAA6
:101F2F00A3E0FBC000C001C002C0037F237E0012EC
:101F3F0068A1D003D002D001D000EB4FFFEAFEE939
:101F4F00FDE8FC9001271218317F407E427D0F7C07
:101F5F0000900127E0F8A3E0F9A3E0FAA3E0FBC3A8
:101F6F001217C6402290012712183D00000000E40E
:101F7F00FD7F23FE1264D6E4FD7F24FE1264D6E4B7
:101F8F00FD7F25FE1264D67F287E001268A1E4FC37
:101F9F00FDFE900106121831900106E0FCA3E0FD52
:101FAF00A3E0FEA3E0FF78081217FE9001061218B7
:101FBF0031900106E0F8A3E0F9A3E0FAA3E0FBC03B
:101FCF0000C001C002C0037F277E001268A1D003AA
:101FDF00D002D001D000EB4FFFEAFEE9FDE8FC9004
:101FEF000106121831900106E0FCA3E0FDA3E0FE0C
:101FFF00A3E0FF78081217FE900106121831900126
:10200F0006E0F8A3E0F9A3E0FAA3E0FBC000C001EB
:10201F00C002C0037F267E001268A1D003D002D079
:10202F0001D000EB4FFFEAFEE9FDE8FC900106123C
:10203F0018317F407E427D0F7C00900106E0F8A3AF
:10204F00E0F9A3E0FAA3E0FBC31217C64022900108
:10205F000612183D00000000E4FD7F26FE1264D634
:10206F00E4FD7F27FE1264D6E4FD7F28FE1264D6BE
:10207F007F137E001268A1EF6007900113E04420E8
:10208F00F0900168E06401701E90010AE0700E7D0F
:10209F00017F10FE1264D690010A7401F090011FA7
:1020AF00E06401703B801790011FE06401701D7D9B
:1020BF00017F10FE1264D690010A7401F0E4FD7FD7
:1020CF0014FE1264D6E490011FF0801490010AE010
:1020DF006401700CFD7F10FE1264D6E490010AF0CB
:1020EF007F297E001268A190011CEFF0C394027447
:0F20FF008094804009E4F0FD7F29FE1264D62210
:10690800EF4488F5C5E5C520E3FBAFC6EF75F00495
:10691800A4FFE5E85403FDEF4DFFE5F05403FE2224
:076ACE00E4FE7F06026908E7
:076AD500E4FE7F07026908DF
:1037D100200503023C1C7F0A7ED77D237C3C90019F
:1037E10057E0F8A3E0F9A3E0FAA3E0FB1210DC90A4
:1037F1000169E0F8A3E0F9A3E0FAA3E0FB120FEB03
:103801009002041218317F0A7ED77D237C3C9001FF
:103811005CE0F8A3E0F9A3E0FAA3E0FB1210DC906E
:10382100016DE0F8A3E0F9A3E0FAA3E0FB120FEBCE
:103831009002081218317F0A7ED77D237C3C9001CB
:1038410060E0F8A3E0F9A3E0FAA3E0FB1210DC903A
:103851000171E0F8A3E0F9A3E0FAA3E0FB120FEB9A
:1038610090020C1218317F0A7ED77D237C3C900197
:1038710064E0F8A3E0F9A3E0FAA3E0FB1210DC9006
:103881000175E0F8A3E0F9A3E0FAA3E0FB120FEB66
:103891009002101218317F007EB07DE57C459002C8
:1038A10004E0F8A3E0F9A3E0FAA3E0FB1210DCE4E2
:1038B100FBFA797A78441211E59002141218317FDB
:1038C100E17E987DD27C45900208E0F8A3E0F9A35F
:1038D100E0FAA3E0FB1210DCE4FBFA797A784412F7
:1038E10011E5900214E0F8A3E0F9A3E0FAA3E0FBEC
:1038F100120FEB9002181218317F487EC17D2C7C8B
:103901004690020CE0F8A3E0F9A3E0FAA3E0FB1271
:1039110010DCE4FBFA797A78441211E5900218E0A0
:10392100F8A3E0F9A3E0FAA3E0FB120FEB90021C6D
:103931001218319002A1E0FCA3E0FDA3E0FEA3E098
:10394100FFEC334013E4900156F07B02FAF9F89052
:1039510002A1A3A3A3E0801D9001567401F090027F
:10396100A1E0FCA3E0FDA3E0FEA3E0FF1217A2E4A7
:103971007B02FAF9F8126563900200EEF0A3EFF012
:10398100900200E0FEA3E0D394F0EE940040030225
:103991003A28C3EE94005003023A28E4FFFE7DF575
:1039A1007C41900204E0F8A3E0F9A3E0FAA3E0FB74
:1039B1001210DCC004C005C006C007900200E0FC84
:1039C100A3E0FDE4121300D003D002D001D0001215
:1039D10010DCE4FBFA797A78441211E59001521275
:1039E1001831E4FFFE7DF57C41900204E0F8A3E08C
:1039F100F9A3E0FAA3E0FB1210DCC004C005C00685
:103A0100C007900200E0FCA3E0FDE4121300D00324
:103A1100D002D001D0001210DC121339900202EE54
:103A2100F0A3EFF0023B8E900200E0FEA3E0FFD393
:103A310094F0EE9400406BD3EF94C2EE9401506287
:103A41007F2F7E5D7D007C42900208E0F8A3E0F9C3
:103A5100A3E0FAA3E0FB1210DCC004C005C006C05D
:103A610007900201E02410FD900200E034FFFCE425
:103A7100121300D003D002D001D0001210DCE4FBFD
:103A8100FA797A78441211E5900214E0F8A3E0F98A
:103A9100A3E0FAA3E0FB120FEB90015212183102DE
:103AA1003B8E900200E0FEA3E0FFD394C2EE9401AE
:103AB100406AD3EF940CEE940350617F197E047D2C
:103AC100067C4290020CE0F8A3E0F9A3E0FAA3E03F
:103AD100FB1210DCC004C005C006C007900201E063
:103AE100243EFD900200E034FEFCE4121300D003FA
:103AF100D002D001D0001210DCE4FBFA797A7844CC
:103B01001211E5900218E0F8A3E0F9A3E0FAA3E0AE
:103B1100FB120FEB9001521218318071D390020108
:103B2100E0940C900200E094035003023C007F817A
:103B31007E957D0B7C42900210E0F8A3E0F9A3E0B2
:103B4100FAA3E0FB1210DCC004C005C006C0079058
:103B51000201E024F4FD900200E034FCFCE41213C5
:103B610000D003D002D001D0001210DCE4FBFA79BE
:103B71007A78441211E590021CE0F8A3E0F9A3E081
:103B8100FAA3E0FB120FEB9001521218317FCD7EA8
:103B9100CC7D4C7C3D900152E0F8A3E0F9A3E0FA22
:103BA100A3E0FB120FEB12133990011BEFF07FCD55
:103BB1007ECC7D4C7C3D900152E0F8A3E0F9A3E07E
:103BC100FAA3E0FB120FEBE4FBFA79C8784212107A
:103BD100DC12133990014E12183190014EE0FCA312
:103BE100E0FDA3E0FEA3E0FFE47B64FAF9F812171D
:103BF10010AC00AD01AE02AF0390014E121831C2FC
:103C01000590011DE01350137F8112405A7F2F123E
:0B3C110065E97D2F7FE87E0312599AC1
:013C1C002285
:103370002005030237D0900298E0FCA3E0FDA3E013
:10338000FEA3E0FF9002081218317F0A7ED77D234A
:103390007C3C900123E0F8A3E0F9A3E0FAA3E0FB72
:1033A0001210DC900137E0F8A3E0F9A3E0FAA3E003
:1033B000FB120FEB90020C1218317F0A7ED77D238F
:1033C0007C3C90012BE0F8A3E0F9A3E0FAA3E0FB3A
:1033D0001210DC900141E0F8A3E0F9A3E0FAA3E0C9
:1033E000FB120FEB9002101218317F0A7ED77D235B
:1033F0007C3C90012FE0F8A3E0F9A3E0FAA3E0FB06
:103400001210DC900145E0F8A3E0F9A3E0FAA3E094
:10341000FB120FEB9002141218317F0A7ED77D2326
:103420007C3C900133E0F8A3E0F9A3E0FAA3E0FBD1
:103430001210DC900149E0F8A3E0F9A3E0FAA3E060
:10344000FB120FEB9002181218317F007EB07DE561
:103450007C4590020CE0F8A3E0F9A3E0FAA3E0FBBE
:103460001210DCE4FBFA797A78441211E590021C20
:103470001218317FE17E987DD27C45900210E0F8F1
:10348000A3E0F9A3E0FAA3E0FB1210DCE4FBFA7975
:103490007A78441211E590021CE0F8A3E0F9A3E069
:1034A000FAA3E0FB120FEB9002201218317F487E46
:1034B000C17D2C7C46900214E0F8A3E0F9A3E0FA69
:1034C000A3E0FB1210DCE4FBFA797A78441211E5F0
:1034D000900220E0F8A3E0F9A3E0FAA3E0FB120FCA
:1034E000EB900224121831900208E0FCA3E0FDA347
:1034F000E0FEA3E0FFEC33400EE4900156F09002B2
:1035000008A3A3A3E080179001567401F09002086D
:10351000E0FCA3E0FDA3E0FEA3E0FF1217A29002EF
:1035200000121831E47FF0FEFDFC900200E0F8A3E9
:10353000E0F9A3E0FAA3E0FBD31217C6400302357B
:10354000EDE4FFFEFDFC900200E0F8A3A3A3E0C3BE
:103550001217C650030235ED7F667E667D0F7C43F1
:1035600090020CE0F8A3E0F9A3E0FAA3E0FB12104C
:10357000DCC004C005C006C007900200E0FCA3E068
:10358000FDA3E0FEA3E0FFE41212FBD003D002D0C3
:1035900001D0001210DC7B007A5079C378471211F9
:1035A000E5900152121831E4FFFE7DF57C41900256
:1035B0000CE0F8A3E0F9A3E0FAA3E0FB1210DCC0F2
:1035C00004C005C006C007900200E0FCA3E0FDA314
:1035D000E0FEA3E0FFE41212FBD003D002D001D042
:1035E000001210DC121339900204023755E47FF008
:1035F000FEFDFC900200E0F8A3E0F9A3E0FAA3E0EE
:10360000FBD31217C64065E47FC27E01FDFC900229
:1036100000E0F8A3A3A3E0D31217C6504F7F667E45
:10362000667D0F7C4390020CE0F8A3E0F9A3E0FA7A
:10363000A3E0FB1210DCC004C005C006C007900266
:1036400000E0FCA3E0FDA3E0FEA3E0FFE41212FB18
:10365000D003D002D001D0001210DC7B007A507968
:10366000C378471211E5900152023755E47FC27EBC
:1036700001FDFC900200E0F8A3E0F9A3E0FAA3E06A
:10368000FBD31217C64064E47F0C7E03FDFC90025E
:1036900000E0F8A3A3A3E0D31217C6504E7F667EC6
:1036A000667D0F7C4390020CE0F8A3E0F9A3E0FAFA
:1036B000A3E0FB1210DCC004C005C006C0079002E6
:1036C00000E0FCA3E0FDA3E0FEA3E0FFE41212FB98
:1036D000D003D002D001D0001210DC7B007A5079E8
:1036E000C378471211E5900152806AE47F0C7E0393
:1036F000FDFC900200E0F8A3E0F9A3E0FAA3E0FBF0
:10370000D31217C650030237B47F667E667D0F7CE6
:103710004390020CE0F8A3E0F9A3E0FAA3E0FB1267
:1037200010DCC004C005C006C007900200E0FCA386
:10373000E0FDA3E0FEA3E0FFE41212FBD003D00201
:10374000D001D0001210DC7B007A5079C378471288
:1037500011E5900152121831900152E0FCA3E0FDF6
:10376000A3E0FEA3E0FF12133990011BEFF0E4FF8A
:10377000FE7DC87C42900152E0F8A3E0F9A3E0FA94
:10378000A3E0FB1210DC12133990014E1218319095
:10379000014EE0FCA3E0FDA3E0FEA3E0FFE47B64B8
:1037A000FAF9F8121710AC00AD01AE02AF039001A8
:1037B0004E121831C20590011DE01350137F811283
:1037C000405A7F2F1265E97D2F7FE87E0312599AB8
:0137D00022D6
:1065A7007BFF7A627937126668E4FF12527C9001AA
:1065B700061218317F0112527C90012712183112EE
:1065C700210E125F3A125FBF12635C900120E064F4
:1065D70001700512337080031237D190010AE07001
:0265E700DE22B2
:1060430012630A1268497BFF7A62794C12666812FE
:106053005895D2B4D2B5126A0512190F1262AE90D6
:1060630001A2E0FF12662A7BFF7A62795C9001A2AB
:10607300E0FF90020AE4F0A3EFF0126668900113C8
:10608300E0FFC413540713500A126984EF7004909D
:10609300010AF090010AE0640178117008E654F0F7
:1060A3004402F6800BE6540F4420F654F04401F604
:1060B300C20090010AE0640170031265A7125783BE
:0260C30080F06B
:105783007BFF7A62796E1266687811E654F0440101
:10579300F690011DE0FF1313543F135004EF54FB25
:1057A300F090011DE054FEF07F1D1265E990011D8C
:1057B300E054BFF07F0A1265E99001FA7401F07FAB
:1057C300311265E97F321265E9E4900121F0F5B207
:1057D3009002A5F0124898125FBF125F3A12635C01
:1057E30090010AE06401605C900121E07029781166
:1057F300E6FFC4540F6401701E900112E0FFC4134E
:105803001354031340119001217401F07D337F1071
:105813007E2712599A80C0126984EF6401600CE5F7
:10582300E8F4FF131313541F30E00CE4900121F04C
:105833007F331265E980A0900121E0640270981221
:1058430067BE80937D017F147E001264D69002A10F
:1058530012183D00000000E490011BF090014E126D
:10586300183D00000000E4900156F0F542F5439026
:105873000114E054FEF0A3E054E04414F07811E680
:1058830054F04402F67BFF7A62798812666875E702
:025893002022D1
:1050580001108A41025400C187C10841025240C16F
:0150680086C1
:1063AD001B5B306D001B5B303B33316D001B5B3075
:1063BD003B33326D001B5B303B33336D001B5B3069
:1063CD003B33346D001B5B303B33356D001B5B3055
:1063DD003B33366D001B5B303B33376D0030313254
:0E63ED00333435363738394142434445460093
:105069005802AEFF63ADFF63B2FF63BAFF63C2FFCD
:0B50790063CAFF63D2FF63DAFF63E24B
:0828D700E0FBA3E0FAA3E0F925
:0B28DF00900235EBF0A3EAF0A3E9F053
:1028EA0090024312183D00000001900235E0FBA35C
:1028FA00E475F0011215EDA9F0FA1214B090023B3A
:10290A00F07003022E2C24DB701B900235E0FBA32F
:10291A00E0FAA3E0F91214B0B42513900236E47574
:10292A00F0011215D72002FD90023B022E02C209C5
:10293A00C20AE4900242F0900235E0FBA3E475F08B
:10294A00011215EDA9F0FA1214B090023BF0E0FD65
:10295A00B4301BD209900235E0FBA3E475F00112F2
:10296A0015EDA9F0FA1214B090023BF0801FEDFFAA
:10297A003395E0FEC3EF9430EE64809480402CD30C
:10298A00EF9439EE64809480502190023BE024D089
:10299A00900242F0900235E0FBA3E475F0011215B3
:1029AA00EDA9F0FA1214B090023BF09002417402C1
:1029BA00F090023BE024BE602B24E0602724F660FE
:1029CA00042420703C900235E0FBA3E475F0011268
:1029DA0015EDA9F0FA1214B090023BF0900241747E
:1029EA0004F0801D900235E0FBA3E475F001121596
:1029FA00EDA9F0FA1214B090023BF0900241740172
:102A0A00F090023BE0FF24A87003022CBB24F5706F
:102A1A0003022DD724F07003022D8A24FE600E24AF
:102A2A00FD7003022CBB24146003022E0A9002419B
:102A3A00E024FE604224FE607B24036003022ADB5A
:102A4A00EF900238B46419E0FBA3E475F0011215A3
:102A5A00EDA9F0FA1214B0FF3395E0FEFDFC806B8D
:102A6A00E0FBA3E475F0011215EDA9F0FA1214B017
:102A7A00FFE4FCFDFE805490023BE0900238B4640F
:102A8A001BE0FBA3E475F0021215EDA9F0FA121689
:102A9A0003FFAEF0EE3395E0FDFC8016E0FBA3E405
:102AAA0075F0021215EDA9F0FA121603FFAEF0E462
:102ABA00FCFD801790023BE0900238E0FBA3E4752E
:102ACA00F0041215EDA9F0FA12181190023D12182D
:102ADA003190023DE0FCA3E0FDA3E0FEA3E0FFECA1
:102AEA003350252002FD75992DD20290023DE0FC5B
:102AFA00A3E0FDA3E0FEA3E0FF74FFFBFAF9F812DE
:102B0A00168590023D121831900242E06003022BB2
:102B1A00A190023DE0FCA3E0FDA3E0FEA3E0FFECF0
:102B2A004D4E4F700B2002FD759930D2020228F4E7
:102B3A00E4900242F0A312183D0000000190024204
:102B4A00E0C3940A74809480504D90023DE0FCA347
:102B5A00E0FDA3E0FEA3E0FF900243E0F8A3E0F962
:102B6A00A3E0FAA3E0FB121710E4FBFAF9F8C31288
:102B7A0017C66023900243E0FCA3E0FDA3E0FEA396
:102B8A00E0FFE47B0AF8121685900243121831908E
:102B9A000242E004F080A6E490023CF09002431264
:102BAA00183D00000001900242E024FFFFE434FFD8
:102BBA00FE90023CE0FD3395E0FCC3ED9FEE64809D
:102BCA00F8EC6480985025900243E0FCA3E0FDA352
:102BDA00E0FEA3E0FFE47B0AFAF9F81216859002F8
:102BEA004312183190023CE004F080BA90023DE0B2
:102BFA00FCA3E0FDA3E0FEA3E0FF900243E0F8A3FC
:102C0A00E0F9A3E0FAA3E0FB121710EF2430FF90DB
:102C1A00023BF0BF3025200922E47F01FEFDFC9033
:102C2A000243E0F8A3E0F9A3E0FAA3E0FBC312171A
:102C3A00C6600890023B7420F08002D2092002FD8F
:102C4A0090023BE0F599D20290023DE0FCA3E0FD40
:102C5A00A3E0FEA3E0FF900243E0F8A3E0F9A3E0BB
:102C6A00FAA3E0FB121710AC00AD01AE02AF03905D
:102C7A00023D121831900243E0FCA3E0FDA3E0FEFE
:102C8A00A3E0FFE47B0AFAF9F81217109002431244
:102C9A001831E4FFFEFDFC900243E0F8A3E0F9A33B
:102CAA00E0FAA3E0FBC31217C66003022BF6022860
:102CBA00F4900241E024FE602224FE60392403706D
:102CCA004E900238E0FBA3E475F0011215EDA9F06D
:102CDA00FA1214B0FFE4FCFDFE802E900238E0FBED
:102CEA00A3E475F0021215EDA9F0FA121603FFAE6D
:102CFA00F0E4FCFD8013900238E0FBA3E475F004D5
:102D0A001215EDA9F0FA12181190023D121831901D
:102D1A000242E07008900241E025E0A3F0E490024C
:102D2A003CF0900242E0FF90023CE0FD3395E0FC6B
:102D3A00C3ED9F7480F86C9840030228F42002FDCA
:102D4A0090023CE0FF900242E0C39F1425E025E098
:102D5A00F990023DE0FCA3E0FDA3E0FEA3E0FFA89A
:102D6A00011217EA7E00EF540F24EAF582EE34636B
:102D7A00F583E493F599D20290023CE004F080A234
:102D8A00900238E0FBA3E475F0031215EDA9F0FAFE
:102D9A0012186E900247EBF0A3EAF0A3E9F0900252
:102DAA0047E0FBA3E0FAA3E0F91214B0700302288B
:102DBA00F42002FD900247E0FBA3E475F00112152E
:102DCA00EDA9F0FA1214B0F599D20280D190023826
:102DDA00E0FBA3E475F0021215EDA9F0FA1216034E
:102DEA00FFAEF0EE3395E0FDFC90023D1218312063
:102DFA0002FD90023DA3A3A3E0F599D2020228F4B2
:102E0A00900238E0FBA3E475F0021215EDA9F0FA7E
:102E1A00121603FFAEF0E4FCFD90023D12183102D7
:022E2A0028F48A
:012E2C002283
:0B666800900207EBF0A3EAF0A3E9F0BA
:106673009002327401F0A37402F0A3740AF0900242
:1066830032E0F9A3E0FAA3E0900238C9F0A3EAF0FC
:10669300A3E9F09002071228D7900232E4F0A3F0A6
:0266A300A3F062
:0166A50022D2
:0B66A600900200EBF0A3EAF0A3E9F083
:1066B10090022B7401F0A37402F0A37403F0900212
:1066C1002BE0F9A3E0FAA3E0900238C9F0A3EAF0C5
:1066D100A3E9F09002001228D790022BE4F0A3F076
:0266E100A3F024
:0166E3002294
:0E651D00900206EFF0A3EBF0A3EAF0A3E9F082
:10652B009002327401F0A37402F0A3740AF090028B
:10653B0032E0F9A3E0FAA3E0900238C9F0A3EAF045
:10654B00A3E9F09002071228D7900232E4F0A3F0EF
:07655B00A3F090020604F01A
:016562002216
:10681C000A0D537973506F776572496E69746961AB
:10682C006C2E2E4F4B2121000D0A28506F7765726C
:0D683C005377697463683D25303278290078
:045084000211000015
:10684900D283C2A1D284D282C2A1C2B7C286C2EA0D
:10685900C2A6C2A2D2B6C2A0D2E8D2E97FC87E003F
:0C6869001269D87BFF7A68791C0266A6D1
:105FBF007811E6FF540F14602D24FA6050240570F9
:105FCF0063EFC4540F601024F960082406700DE4C9
:105FDF00FF80067F0380027F011268757811E654F7
:105FEF000F4420F6803E7811E6C4540F600C24FE57
:105FFF00600C24FB700D7F0480067F0280027F06F9
:10600F001268757811E6540F4410F680177811E670
:10601F00C4540F24FE70057F051268757811E6547D
:10602F000F4470F67811E6FF54F0C4540FFEEF548E
:04603F00F04EF62207
:104BBD00900204EFF07F221265E97F231265E97FF1
:104BCD00241265E97F251265E97F261265E97F27A5
:104BDD001265E9900204E024F77003024E2E24FCC6
:104BED007003024D1B147003024C8C147003024DA4
:104BFD008C24FD7003024E7E147003024E99240323
:104C0D006003024EC77DFF7F14125CDD900115E03D
:104C1D0054E04410F090011DE013400B90010AE0A8
:104C2D0064017003024CB77811E6C4540F64077029
:104C3D002D900112E0C413135403135002801A90E7
:104C4D00010AE070057D1F024E4F900112E0541FC6
:104C5D00640470057D25024E4F7D23024EC07811F0
:104C6D00E6C4540F64027014900112E0541F6404E2
:104C7D0070057D26024E4F7D20024EC0024E76906D
:104C8D00011CE0640170047DFF80027D997F141288
:104C9D005CDD900115E054E0440EF090011DE01331
:104CAD00400D90010AE0640170057D22024E4F789F
:104CBD0011E6C4540F6407701A900112E0C4131367
:104CCD00540313500B90011CE070057D27024E4FCD
:104CDD00024DDC90010AE070199001F4E070139020
:104CED0001F5E06401700B90011CE070057D21025F
:104CFD004E4F9001F4E070139001F5E06401700BDC
:104D0D0090011CE070057D1E024E4F024E17900162
:104D1D001CE0640170047DFF8002E4FD7F14125CD1
:104D2D00DD900115E054E0440DF090011DE01340BD
:104D3D000D90010AE0640170057D22024E4F78113D
:104D4D00E6C4540F64077019900112E0C413135494
:104D5D000313500B90011CE070057D25024E4F8012
:104D6D006E9001F4E070139001F5E06401700B900A
:104D7D00011CE070057D21024E4F7D1F024E1990E2
:104D8D00011CE0640170047DFF80027D997F141287
:104D9D005CDD900115E054E0440FF090011DE0132F
:104DAD00400D90010AE0640170057D22024E4F789E
:104DBD0011E6C4540F6407701B900112E0C4131365
:104DCD00540313500A90011CE070047D2780737DFD
:104DDD0022024E7890010AE070189001F4E07012F2
:104DED009001F5E06401700A90011CE070047D21D2
:104DFD0080509001F4E070129001F5E06401700AAA
:104E0D0090011CE070047D1E80387D207F647E0043
:104E1D0012599A7F1C1265E97D1C7F887E13024E04
:104E2D00C47DFF7F14125CDD900115E054E0440950
:104E3D00F090011DE013400F90010AE0640170072E
:104E4D007D227F64FE80707811E6C4540F64027079
:104E5D00077D207F64FE805F7811E6C4540F6407E0
:104E6D0070077D237F64FE804E7D1F7F647E0080F2
:104E7D004690011DE0C4540F1350077F06125B5777
:104E8D008002D2827D257F647E00802B90011DE003
:104E9D00C4540F13500EE4FF125B5790011DE054E4
:104EAD00EFF08002C28290011DE01350047D20803E
:0B4EBD00027D257F647E0012599A22BE
:105B5700900205EFF07BFF7A68793490020AE4F04F
:105B6700A3EFF0126668900205E0B40A0040030252
:105B77005C26905B80F8282873025B9E025B9E027E
:105B87005BED025B9E025BED025C17025BED025C64
:105B970026025C26025BC4C282D2B7D2EAD2A6D260
:105BA700A2C2B67F147E001269D8D2A07D177FF4F7
:105BB7007E0112599A7D0D7FE87E03804EC283D203
:105BC700A17F407E001269D8C284D28690011DE071
:105BD700FF1313543F135009EF54FBF07F84124017
:105BE7005A75B2308039C2A0D283D284C2A1D28280
:105BF700C2A1C2B7C2EAC2A6C2A2C286D2B69001E9
:105C07001DE04420F07D307FB87E0B12599A800F3B
:105C1700C2A1D284C2B7C2EAC2A2C286E4F5B290D8
:095C27000115E054E04414F022E0
:10687500900200EFF024FE601A24FE6016146013E7
:1068850014601024FE600C240824F6500624F760DA
:0C689500028008900200E0FF125B572216
:10508800C10C4201AE00004201F202254201B20306
:10509800704101F0004101A6004101A8014101F45D
:1050A800004101F5014101A5004101A7004101A905
:1050B800004101AA004101AB004101FF004101F894
:1050C800004101A4004101FB004101B1004101F987
:1050D800FF4101A3FE4101F6004101FE004101AD7F
:1050E800004101B0004101F1004101F7FF4101AC6D
:0D50F800004101FD004101FC004101FA01F1
:0469D4007FF47E01CD
:1069D800EF4E6010C20C300CFDC20CEF1F70011E90
:0569E800144E70F222C4
:106A4400EF75F003A424B5F582E43401F583E0FE88
:046A5400A3E0FF229A
:106A1B00EF75F003A424B4F582E43401F583E0C3ED
:056A2B0013547FFF225F
:106A5800EF75F003A424B4F582E43401F583E0541F
:036A6800FEF0221B
:106A8F00EF75F003A424B4F582E43401F583E01329
:016A9F0022D4
:106445009001AEE0FFA3E0900231CFF0A3EFF09012
:106455000231E0FEA3E0FFC39001AFE09FFF900192
:10646500AEE09EFE126AAFD3EF947FEE6480948017
:10647500400F9001AEE0FFA3E0900231CFF0A3EF13
:09648500F0900231E0FEA3E0FFFB
:01648E0022EB
:0855360090022CEEF0A3EFF04F
:10553E00E4A3F0A3F0A3F012644590022FEEF0A3C3
:10554E00EFF090022CE0FEA3E0FFE4FCFD7B487A36
:10555E00EEF9F8C31217B0500A90022C74EEF0A3B5
:10556E007448F090022CE0FEA3E0FF900230E02F92
:10557E00FF90022FE03EFEE4FCFD7B487AEEF9F848
:10558E00C31217B0401F90022CE0FEA3E0FF900262
:10559E002FE0FCA3E0FD2FFFEC3EFED3ED9FEC9E33
:1055AE00500302565BE49001AEF0A3F090022EF091
:1055BE0090022EE0FFC39414748094804003025630
:1055CE0054EF75F003A424B4F582E43401F583E0BE
:1055DE0054016401706790022EE0FF75F003A4245D
:1055EE00B5F582E43401F583E0FCA3E0FD90022FD3
:1055FE00E0FAA3E0FBD3ED9BEC9A402CEF75F003A1
:10560E00A424B5F582E43401F583C083C082C3A31C
:10561E00E09BFF0582D5820215831582E09AD08227
:10562E00D083F0A3EFF0801590022EE075F003A466
:10563E0024B5F582E43401F583E4F0A3F090022E54
:10564E00E004F00255BEE490022FF0A3F090022F7A
:05565E00E0FEA3E0FFE7
:015663002224
:10003E00E4FFEFC39414748094805015EF75F003B1
:10004E00A424B4F582E43401F583E054FEF00F806D
:01005E00E1C0
:01005F00227E
:065994007D167F647E0019
:0B599A00900228EEF0A3EFF0A3EDF068
:1059A500E4A3F0F090022BE0FFC39414748094807C
:1059B500502EEF75F003A424B4F582E43401F58389
:1059C500E0FF540164017010EFC313547FFF900290
:1059D5002AE06F7003025A7890022BE004F080C42D
:1059E500E490022BF090022BE0FFC3941474809492
:1059F500804003025A78EF75F003A424B4F582E4DD
:105A05003401F583E0FF5401706090022BE0FE75D0
:105A1500F003A424B4F582E43401F583EF4401F0E6
:105A250090022AE0547F25E0FFEE75F003A424B42C
:105A3500F582E43401F583E054014FF0900228E04B
:105A4500FEA3E0FF125536900229E02FFF900228B1
:105A5500E03EFE90022BE075F003A424B5F582E448
:105A65003401F583EEF0A3EFF02290022BE004F071
:035A75000259EAE9
:015A7800220B
:1065E900E4FEEEC39414748094805034EE75F00385
:1065F900A424B4F582E43401F583E0FD5401640177
:10660900701BEDC313547FB50713EE75F003A42473
:10661900B4F582E43401F583E054FEF0220E80C221
:01662900224E
:0B5A7900900201EEF0A3EFF0A3EDF0AF
:105A8400E4A3F0F0900204E0FFC3941474809480C3
:105A9400502DEF75F003A424B4F582E43401F583AA
:105AA400E0FF54016401700FEFC313547FFF9002B1
:105AB40003E0B507028064900204E004F080C5E4CA
:105AC400900204F0900204E0FFC394147480948064
:105AD4004003025B56EF75F003A424B4F582E4346A
:105AE40001F583E0FF54017060900204E0FE75F05C
:105AF40003A424B4F582E43401F583EF4401F09067
:105B04000203E0547F25E0FFEE75F003A424B4F50E
:105B140082E43401F583E054014FF0900201E0FE89
:105B2400A3E0FF125536900202E02FFF900201E03D
:105B34003EFE900204E075F003A424B5F582E4343B
:105B440001F583EEF0A3EFF022900204E004F002EA
:025B54005AC82D
:015B5600222C
:1053DB00EF14B4100040030255359053F375F003EE
:1053EB00A4C58325F0C583730254250254250254AA
:1053FB002502543902548802549C0254B80254EBCF
:10540B0002553502551602552B02553502552E0203
:10541B00553502543D02544180009001A2E0FF1229
:10542B00662A9001A2E0FD7F117E000264D67F8088
:10543B00805C7F878058900120E06401701CFD7FA9
:10544B0023FE1264D6E4FD7F24FE1264D6E4FD7FB6
:10545B0025FE1264D6900127801BE4FD7F26FE12E9
:10546B0064D6E4FD7F27FE1264D6E4FD7F28FE128E
:10547B0064D690010612183D000000002290011224
:10548B00E0C4131354031340030255357F830240CA
:10549B005A90011DE0FF1313543F1350030255356F
:1054AB007811E654F04407F6EF4404F0229002A181
:1054BB0012183D0000000090029812183D000000E9
:1054CB0000E490011BF090014E12183D000000000B
:1054DB00E4900156F0900296F0A3F090029EF02219
:1054EB0090011DE0FF131313541F135019EF54F7C2
:1054FB00F054FEF07F12124BBD7D087FB87E0B126D
:10550B00599AE4F5B2227F13024BBD90011DE04482
:10551B0040F07F8212405A7D0A7F987E3A02599A58
:0B552B000268C7D2B77F09125B57224D
:105F3A00E4900200F0A3F0A3F0A3F0900200F09026
:105F4A000200E0C3941474809480506812644590EF
:105F5A000202EEF0A3EFF0900200E0FF126A8F5007
:105F6A004B900200E0FF126A44D3900203E09F9034
:105F7A000202E09E4036900200E0FF126A58900248
:105F8A0000E0FF126A1B900201EFF0C394117480C3
:105F9A0094805007E0FF1253DB8011900201E0FF6A
:105FAA00C39434748094805003120066900200E017
:045FBA0004F0808BE4
:015FBE0022C0
:10006600EF24EEB422004003020FE390007F75F008
:1000760003A4C58325F0C5837302016C02043E0206
:100086000FE30208AE0208380201E0020B6B020F12
:1000960011020D6702089B020D12020B4E0200F1BF
:1000A6000200E50200E90200ED0200F6020102028A
:1000B600010C02011602012002012A020134020F7C
:1000C60056020F75020F67020F83020F91020FA0EF
:1000D6000201C70201D80203F1020411020FDD7FFB
:1000E6001F800A7F2080067F2180027F1E0261BE5C
:1000F6007F221261BE7D227FFA02082A7F221261C8
:10010600BE7D23020B647F241261BE7D24020B6434
:100116007F251261BE7D25020B647F261261BE7D9E
:1001260026020B647F271261BE7D27020B647F1FA8
:100136001261BE7F211261BE1269D47F1F1261BE99
:100146001269D47F211261BE1269D47F1F1261BE6B
:100156001269D47F211261BE1269D47F1F1261BE5B
:100166001269D4020D5D126984EF64017024900156
:1001760012E0C4131354031340427F19126A8F50BE
:10018600081265E97D191259967F18126A8F502C4C
:100196008022900112E0C41313540313501E7F19DA
:1001A600126A8F50081265E97D191259967F181246
:1001B6006A8F50081265E97D181259967D12020B56
:1001C6006490011DE01350057F8112405A7D2F0275
:1001D6000B6490011DE054DFF022126AD59001B243
:1001E600EEF0A3EFF0126ACE9001F2EEF0A3EFF07C
:1001F6009001B2E0FEA3E0FFD3948AEE9402500988
:100206009001F97415F00202F6D3EF948AEE940287
:100216004012D3EF9499EE940250099001F97418A4
:10022600F00202F6D3EF9499EE94024012D3EF94C3
:10023600A8EE940250099001F97404F00202F6D374
:10024600EF94A8EE94024012D3EF94FBEE94025082
:10025600099001F97403F00202F6D3EF94FBEE94D1
:10026600024011D3EF9422EE940350089001F974E2
:1002760002F0807CD3EF9422EE94034011D3EF94E6
:1002860050EE940350089001F97401F08062D3EFA8
:100296009450EE94034010D3EF9475EE94035007F8
:1002A600E49001F9F08049D3EF9475EE940340137E
:1002B600D3EF94C0EE9403500A90010AE0640170F3
:1002C60002801F9001B2E0FEA3E0FFD39475EE9486
:1002D600034017D3EF94C9EE9403500E90010AE041
:1002E60070089001F97416F080069001F97417F001
:1002F6009001F9E0541FFF900112E054E04FF09096
:1003060001B2E0FFA3E0900116CFF0A3EFF0900159
:10031600F2E0FEA3E0FFD394AFEE94005010EF940A
:1003260014EE940040089001F77406F08074D3EF41
:1003360094AFEE94004011D3EF94DEEE9400500893
:100346009001F77419F0805AD3EF94DEEE940040D2
:100356000BD3EF947BEE940250028040D3EF947B54
:10036600EE94024011D3EF94E5EE9402500890010A
:10037600F7741AF0802CD3EF94E5EE94024011D373
:10038600EF94A0EE940350089001F77408F08012E1
:10039600900112E04420F054E04409F09001F77413
:1003A60007F0900115E0541F640970069001F77478
:1003B60007F09001F7E0541FFF900113E054E04F5F
:1003C600F0A280E4339001A6F0E0FF9001F4E06F24
:1003D6006002EFF0A281E4339001A8F0E0FF900103
:1003E600F5E06F7003020FE3EFF0227DFF7F14123A
:1003F6005CDD9001FA7401F07F131265E97D13123A
:1004060059967D327FA07E0F020FDAE49001FAF052
:10041600900115E054E04414F0126984EF64017011
:100426000E7F181265E97D187FE87E0312599A7DC2
:10043600317F607EEA020FDA900115E0541F6410E6
:100446006016308005308102800E9001FAE064016A
:10045600600690010AE0700B126AD59001B2EEF0C8
:10046600A3EFF09001B2E0FEA3E0FF900116EEF0DC
:10047600A3EFF0900112E0FDC4135407135025E4D6
:100486009001A5F09001A7F09001A9F0A3F0A3F0C8
:100496009001FFF09001F8F09001A4F09001FBF0BC
:1004A6009001F9F0D3EF948AEE9402501BE4900188
:1004B600A5F09001A7F09001A9F0A3F0A3F0900198
:1004C600FFE004F0E40205999001B2E0FEA3E0FF2C
:1004D600D3948AEE9402402FD3EF9499EE9402506F
:1004E60026E49001A5F09001A7F09001A9F0A3F0F1
:1004F600A3F09001FFF09001F8F09001A4F09001B4
:10050600FBE004F00206A89001B2E0FEA3E0FFD3F0
:100516009499EE94024022D3EF94A8EE94025019D7
:100526009001A5E004F0E49001A7F09001A9F0A3E2
:10053600F0A3F09001FFF0805AD3EF94A8EE940256
:100546004027D3EF94FBEE9402501EE49001A5F0F1
:100556009001A7E004F0E49001A9F0A3F0A3F090C5
:1005660001FFF09001F8020681D3EF94FBEE9402AE
:10057600402BD3EF9422EE94035022E49001A5F091
:100586009001A7F09001A9E004F0E4A3F0A3F09095
:1005960001FFF09001F8F09001A4020681D3EF94D8
:1005A60022EE9403402BD3EF9450EE94035022E4B2
:1005B6009001A5F09001A7F09001A9F0A3E004F046
:1005C600E4A3F09001FFF09001F8F09001A4020678
:1005D60081D3EF9450EE9403402AD3EF9475EE94B2
:1005E600035021E49001A5F09001A7F09001A9F035
:1005F600A3F0A3E004F0E49001FFF09001F8F0907E
:1006060001A48077D3EF9475EE94034031D3EF9431
:10061600C0EE9403502890010AE064017020900116
:10062600A5F09001A7F09001A9F0A3F0A3F0900126
:10063600FFF09001F8E004F0E49001A4803D900101
:10064600B2E0FEA3E0FFD39475EE94034030D3EFFF
:1006560094C9EE9403502790010AE070219001A5F9
:10066600F09001A7F09001A9F0A3F0A3F09001FF8C
:10067600F09001F8E004F0E49001A4F08020E4900A
:1006860001A5F09001A7F09001A9F0A3F0A3F090C6
:1006960001FFF09001F8F09001A4E004F0E490016D
:1006A600FBF0C39001B3E094BC9001B2E094024029
:1006B600089001B1E004F08005E49001B1F09001EA
:1006C600A5E06414700B9001F97404F0E49001A5A0
:1006D600F09001A7E06414700B9001F97403F0E444
:1006E6009001A7F09001A9E06414700B9001F974D1
:1006F60002F0E49001A9F09001AAE06414700A9057
:1007060001F904F0E49001AAF09001ABE0641470E2
:10071600089001F9F09001ABF09001FFE0641470CD
:100726000B9001F97415F0E49001FFF09001F8E0E8
:1007360064147009A37416F0E49001F8F09001FBBC
:10074600E06414700B9001F97418F0E49001FBF06A
:100756009001F8E064147009A37416F0E49001F8AF
:10076600F09001A4E06414700B9001F97417F0E4A2
:100776009001A4F09001F9E0FF9001A3E06F600BF7
:10078600EFF0900115E054E04414F090011CE06491
:100796000170389001F9E0FFD3940474809480408E
:1007A6000AEF64156005EF64187020E490011CF0F0
:1007B6007F29FE1268A1EF64017007FD7F29FE12F2
:1007C60064D6900115E054E04414F09001B1E06461
:1007D600147030900113E0FFC413540713501FEF39
:1007E60054DFF0900115E054E04414F07F137E00CE
:1007F6001268A1EF6008E4FD7F13FE1264D6E49050
:1008060001B1F09001F9E0541FFF900112E054E0AD
:100816004FF090010AE060089001FAE06401700967
:100826007D137F647E00020FDA7D137F2C7E01022A
:100836000FDA90011DE01313543F1350097811E6A7
:1008460054F04402F62290010AE0640170087D0A21
:100856007F64FE020FDA90011DE0C41354071340B3
