:0300000002302F9C
:0C302F00787FE4F6D8FD758179023076D8
:101ADA000D0A507265762E46573A253032782530EF
:101AEA00327825303278000D0A437572722E4657C5
:101AFA003A253032782530327825303278000D0A8E
:101B0A0043616E6E6F74206163636573732045452C
:101B1A0050524F4D21212121000D0A4E6F20696E2E
:101B2A00697469616C697A65000D0A285345545FC6
:101B3A0050574D3D253032782076616C3D25303244
:101B4A007829000D0A53797374656D2068617320D2
:101B5A006265656E20776F726B696E6720666F7259
:101B6A0020256420646179732C20256420686F75B0
:101B7A0072732C202564206D696E757465732061FB
:101B8A006E64202564207365636F6E6473000D0AAA
:101B9A0053797374656D20686173206265656E2080
:101BAA00776F726B696E6720666F72202564206892
:101BBA006F7572732C202564206D696E7574657358
:101BCA0020616E64202564207365636F6E64730000
:101BDA000D0A53797374656D2068617320626565B7
:101BEA006E20776F726B696E6720666F722025644C
:101BFA00206D696E7574657320616E64202564209A
:101C0A007365636F6E6473000D0A53797374656D3F
:101C1A0020686173206265656E20776F726B696EEA
:101C2A006720666F72202564207365636F6E647324
:101C3A00000D0A28426174746572794254483D2540
:101C4A00642825642E2564562929002854454D50B8
:101C5A005F4E4F524D414C29002854454D505F4824
:101C6A0049474829002854454D505F4C4F57290091
:101C7A000D0A28426174746572794341503D2564A6
:101C8A002825642E25645629290028484947485F93
:101C9A004348415247452900284C4F575F43484122
:101CAA0052474529002853544F505F4348415247F1
:101CBA00452900284E4F5F42415454290028424189
:101CCA0054545F5354415455535F41435F4D4F44FD
:101CDA00452900285F424154545F53544154555397
:101CEA005F43415041434954595F4C4556454C3135
:101CFA002900285F424154545F5354415455535F5D
:101D0A0043415041434954595F4C4556454C322949
:101D1A0000285F424154545F5354415455535F4322
:101D2A00415041434954595F4C4556454C3329006B
:101D3A00285F424154545F5354415455535F4341C1
:101D4A005041434954595F4C4556454C3429002863
:101D5A005F424154545F5354415455535F4E4F5F51
:101D6A004241545429000D0A28504F5745525F5397
:101D7A0054415455533D256429000D0A2842617483
:101D8A00746572794341503D256428256456292992
:011D9A000048
:1028270041024200410243004102370041023900A0
:1028370041023A004102350041022E0041024400A4
:1028470002400000014600C101C10002470000012B
:102857004400014500027400000469000000000400
:102867006D00000000C10441022F01017200014206
:1028770000014300C102C103410238004102300098
:1028870041023B0044023E0000000042023C0000BF
:102AA100122F009001701208147F047E001239DB8E
:102AB1007E00C007C0067F051239DB7E00C007C05B
:102AC100067F061239DB90017EE4F0A3EFF090015E
:102AD1007CD0E0F0A3D0E0F090017AD0E0F0A3D078
:102AE100E0F07BFF7A1A79DA1237A4122F00E47B27
:102AF10011FAF9F8C31207CF605F7BFF7A1A79F1F7
:102B0100E490017AF0A3F0A3F0A3F0A3F0A3741171
:102B1100F01237A41238207F047E001239DB7E00C8
:102B2100C007C0067F051239DB7E00C007C0067FE3
:102B3100061239DB90017EE4F0A3EFF090017CD026
:102B4100E0F0A3D0E0F090017AD0E0F0A3D0E0F083
:102B51007BFF7A1A79F11237A4122F00E47B11FA64
:102B6100F9F8C31207CF701E7F11FEFDFC900170B2
:102B7100E0F8A3E0F9A3E0FAA3E0FBC31207CF60FA
:102B81001E12395E80197BFF7A1B79081237A47BEC
:102B9100FF7A1B79231237A490012874FFF0227F5A
:102BA10064123B017811E6540F4410F654F04402CC
:012BB100F62D
:012BB2002200
:10357100758DF4759850758922758855758A4075D1
:103581008C4075878075B80275A892D299D2ACE447
:10359100F5C8C2CAD2AD75AA5075BAF443A618438C
:1035A100AD10C203F5E9F5F9F5D943D8404393A02D
:0E35B10043910475B10CF5B275B30CF5B4225C
:103B31003085107F327E00123B5D3085037F01228C
:063B41007F00227F00223C
:1034A500900175EFF0A3EDF07BFF7A1B7933900166
:1034B5007AE4F0A3EFF0EDFFA3E4F0A3EFF0123709
:1034C500A4900175E0603D24EB602324166031244F
:1034D500EB703475EC80900176E0FFC374FF9FF5C7
:1034E500FC75DC42EF6428701EF5DCC2942275ED94
:1034F50080900176E0FFC374FF9FF5FD75DD4222E4
:0835050043D8402253D84022B4
:03000B0002205779
:0B205700C0E0C083C082C0D075D0087C
:1020620005730545C3E545940A7480948040139036
:1020720001F2E004F070069001F1E004F075450011
:10208200D20CD3E57394607480948050030222CC06
:10209200054AE54A700205497573000544E5446442
:1020A200647010F544E5469002386005E004F08063
:1020B20002E4F0E575F47003E574F460080575E573
:1020C2007570020574AF70AE6FAD6EAC6DEC4D4EB7
:1020D2004F6014EF24FFF570EE34FFF56FED34FF1F
:1020E200F56EEC34FFF56D900231E07002A3E06012
:1020F2000E900232E024FFF0900231E034FFF0E56E
:10210200B0540C13135403FF900241E06F700302AA
:10211200227090023FE090023EF0900240E0900276
:102122003FF0900241E0900240F0A3EFF0D2059020
:1021320002367430F090023EE0FF7E007020A3E091
:102142006401701AA3E064037014A3E06402700EC9
:1021520090023DE004F0700690023CE004F0EF646F
:10216200014E702090023FE064037018A3E0640205
:102172007012A3E0700E90023DE004F0700690022F
:102182003CE004F090023EE06403701EA3E06402AF
:102192007018A3E07014A3E06401700E90023DE099
:1021A20004F0700690023CE004F090023EE0FF7EF4
:1021B200006402701EA3E0701AA3E064017014A30D
:1021C200E06403700E90023DE004F0700690023C61
:1021D200E004F0EF4E702290023FE06402701AA316
:1021E200E064037014A3E06401700E90023DE024E9
:1021F200FFF090023CE034FFF090023EE064027097
:102202001EA3E064037018A3E064017012A3E070DF
:102212000E90023DE024FFF090023CE034FFF0908B
:10222200023EE0FF7E006403701EA3E064017018AA
:10223200A3E07014A3E06402700E90023DE024FF5C
:10224200F090023CE034FFF0EF64014E7020900207
:102252003FE0701AA3E064027014A3E06403700EFE
:1022620090023DE024FFF090023CE034FFF0E5E80C
:10227200F4FF131313541F30E027E541B42018E58F
:1022820040B40313754601D200D201754000754176
:10229200329002447401F00541E541702D05408001
:1022A20029C3E5419432E54094004013900244E092
:1022B200700D754601C200D201F540F541800B90C8
:0A22C2000244E4F0F540F541F54652
:0922CC00D0D0D082D083D0E032E2
:101D9B00900239E0FF60327BFF7A1B794D90017A1C
:101DAB00E4F0A3EFF090023AE0FF90017CE4F0A3A3
:101DBB00EFF0900235E0FF90017EE4F0A3EFF0909E
:101DCB00022EE0FF900180805790023AE0FF6025E1
:101DDB007BFF7A1B799890017AE4F0A3EFF09002E5
:101DEB0035E0FF90017CE4F0A3EFF090022EE0FFD2
:101DFB0090017E802B900235E0FF7BFF60167A1BF3
:101E0B0079DA90017AE4F0A3EFF090022EE0FF90E4
:101E1B00017C800C7A1C791290022EE0FF90017AE3
:101E2B00E4F0A3EFF07F0312369E900214E0FEA3C2
:101E3B00E0FF90017AEEF0A3EFF07805C333CE33D9
:101E4B00CED8F9FBAA067C277D10FF120555900111
:101E5B007CEEF0A3EFF07C277D10AF03AE021205F2
:101E6B0055A3ECF0A3EDF07BFF7A1C793B7F0212BC
:101E7B00369E90010EE054076407700A7BFF7A1CB4
:101E8B0079557F02801A90010EE0540764067BFFA0
:101E9B0070087A1C79637F0180067A1C796F7F0446
:101EAB0012369E900110E0FEA3E0FF90017AEEF057
:101EBB00A3EFF07805C333CE33CED8F9FBAA067C5B
:101ECB00277D10FF12055590017CEEF0A3EFF07CFF
:101EDB00277D10AF03AE02120555A3ECF0A3EDF076
:101EEB007BFF7A1C797A7F0512369E90010FE054A6
:101EFB000F640D700A7BFF7A1C79947F02803A90F5
:101F0B00010FE0540F640E700A7BFF7A1C79A27FDD
:101F1B0003802690010FE0540F640F700A7BFF7A49
:101F2B001C79AF7F01801290010FE0540F64097090
:101F3B000B7BFF7A1C79BD7F0112369E90010DE061
:101F4B00541F640470087BFF7A1C79C7804490018E
:101F5B000DE0541F640370087BFF7A1C79DD80321F
:101F6B0090010DE0541F640270087BFF7A1C79FC12
:101F7B00802090010DE0541F640170087BFF7A1DD7
:101F8B00791B800E90010DE0541F700A7BFF7A1DA8
:101F9B00793A7F02801290010DE0541F6409700B97
:101FAB007BFF7A1D79597F0112369E7BFF7A1D7953
:101FBB00707811E6C4540FFF90017AE4F0A3EFF0B0
:101FCB007F0612369E900110E0FEA3E07805C33326
:101FDB00CE33CED8F9FF7C277D101205557E007FBE
:101FEB0064CFCDCFCECCCE120555AA06AB07900150
:101FFB0010E0FEA3E07805C333CE33CED8F9FF7CD7
:10200B00277D101205557C007D64120543EF2BFFD5
:10201B00EE3AFE900174F0A3EFF07D361205437D8E
:10202B0064120555900174EEF0A3EFF07BFF7A1D5F
:10203B007984900110E0FDA3E090017ACDF0A3ED3F
:0C204B00F0A3EEF0A3EFF07F0502369E3C
:103B4700E4FFEFC3941D74809480500974222FF80A
:053B5700E4F60F80ED13
:013B5C002246
:10334200EF24E9B40A00507090335875F003A4C515
:103352008325F0C5837302338202337602338002FF
:10336200337B0233840233BA02338C023396023344
:10337200A30233AFD2E9D2E822D2E8C2E922800521
:10338200801530E817C2E8D2E92230E905C2E9D255
:10339200E822800830E805C2E8C2E922D2E8D2E990
:1033A2002230E904C2E98002D2E9C2E82230E8040C
:0933B200C2E88002D2E8C2E9225F
:03001300020026C2
:03002600C2AA3239
:030023000239039C
:10390300C0E0C0D075D008309819744B2571F8A663
:10391300990571C3E571941E748094804003757199
:0F39230000C298309904C299C202D0D0D0E032CD
:0300630002385C04
:10385C00C0E0C0D075D008E5AA54016401701A53B9
:10386C00AAFE74222542F8A69A0542C3E542941E8C
:10387C00748094804003754200E5AA54026402707F
:0B388C000553AAFDC203D0D0D0E032EB
:0B3C1200E542B543037F00227F012242
:103AC80053ADEF74222543F8E6FF0543E543C3945D
:0D3AD8001E748094804003E4F54343AD105C
:013AE50022BE
:080003002003FD8F9AD20322B5
:03002B00023BF79E
:0F3BF700C0E0C2CF0548E54870020547D0E03274
:103B0100E5442FFFE433FE7C007D64120555E54456
:073B1100B505FBE4B504F764
:013B1800228A
:103BC2000D0A436C656172426173696345452E2E2D
:023BD2002E00C3
:102F000090017412082000000000E4FFFE1239DB7B
:102F1000EF6430600280287F017E001239DBEF64AD
:102F2000376002801A7F027E001239DBEF64306066
:102F300002800C7F037E001239DBEF64496006E4F7
:102F4000FFFEFDFC227F057E001239DBEF7F00FED5
:102F5000C007C0067F047E001239DB7E00EF7810C8
:102F6000C333CE33CED8F9FDD0E04EFED0E04DFFD6
:102F7000C007C0067F067E001239DBEFFDD0E0FE01
:102F8000D0E04DFFEE3395E0FDFC90017412081483
:0E2F9000900174E0FCA3E0FDA3E0FEA3E0FFCF
:012F9E002210
:103820007D30E4FFFE1236577D377F017E00123671
:10383000577D307F027E001236577D497F037E0020
:10384000123657E4FD7F04FE123657E4FD7F05FE75
:0C3850001236577D117F067E00023657AD
:10395E007BFF7A3B79C21237A47D017F107E001265
:10396E0036577D0E7F117E00123657E4FD7F07FE1F
:0B397E00123657E4FD7F12FE023657A0
:0428970041010500F6
:0916E400123C12EF7003021AD946
:1016ED00123AC8900170EFF07E00647E700DC20B4F
:1016FD0090010504F0E4900003F022EF647D4E703C
:10170D0003D20B22300B09C20B900170E04470F034
:10171D00900105E0FB64046010900003E0FE900171
:10172D0070E0FDEE6D900003F0EB24FE602E146072
:10173D005B1470030217DD24036003021AD99001B4
:10174D0070E0900002F01424F8500A24F924FD50A2
:10175D000424E370349001057402F022900170E0CE
:10176D00900001F0A3E01424F8500A24F924FD5050
:10177D000424E37014900001E070028049E49000AD
:10178D0000F09001057403F022021AD4900002E0DB
:10179D001424F8500A24F924FD500424E3702E90EB
:1017AD000170E0FF900000E02405F582E43400F5BF
:1017BD0083EFF0900000E004F0A3E0FF900000E064
:1017CD006F6003021AD99001057404F022021AD435
:1017DD00900170E0FF900003E06F6003021AD49057
:1017ED000002E0120871181B01185202186C031840
:1017FD007504187E05198F0619CC071AAF0819F74D
:10180D00101A00111A6A121AA43000001AD490018D
:10181D0015E04401F090010FE054F0F0900115E057
:10182D00FF131313541F13500EEF54F7F07F1212C2
:10183D0022D57F07123725900115E0C313135003EE
:10184D00021AD480117F16123725900115E0C313AB
:10185D00135003021AD47D167F107E27021AAA7D1B
:10186D00057FE87E03021AAA7D067FE87E03021A31
:10187D00AA900005E0FDC4540F75F00AA4FFED54C5
:10188D000F7C002FFDEC35F0FC1203099001361290
:10189D000814900006E0FDC4540F75F00AA4FFED86
:1018AD00540F7C002FFDEC35F0FC12030990012440
:1018BD00120814900007E0FDC4540F75F00AA4FF40
:1018CD00ED540F7C002FFDEC35F0FC120309900157
:1018DD003A120814900008E0FDC4540F75F00AA4E4
:1018ED00FFED540F7C002FFDEC35F0FC1203099039
:1018FD000129120814900009E0FDC4540F75F00A77
:10190D00A4FFED540F7C002FFDEC35F0FC12030904
:10191D0090013E12081490000AE0FDC4540F75F0BA
:10192D000AA4FFED540F7C002FFDEC35F0FC1203E3
:10193D000990012D12081490000BE0FDC4540F7591
:10194D00F00AA4FFED540F7C002FFDEC35F0FC12D6
:10195D00030990014212081490000CE0FDC4540FCD
:10196D0075F00AA4FFED540F7C002FFDEC35F0FC53
:10197D001203099001311208147D0B7FE87E0302DA
:10198D001AAA900005E0601390016FE0600414F056
:10199D008005E490016FF07D01801A90016FE0C326
:1019AD009428748094805005E004F0800690016FB7
:1019BD007428F07D027FF47E01122C9B021AD490C4
:1019CD000005E0FD7C00700A900115E054FDF00269
:1019DD001AD4ED64014C6003021AD47F1612372518
:1019ED00900115E04402F0021AD47D037FE87E03D6
:1019FD00021AAA900005E07032900115E054FEF035
:101A0D007F161237257F1B1237257F1C1237257F36
:101A1D001D1237257F1E1237257F1F1237257F2078
:101A2D001237257D1E7F647E008072900005E06474
:101A3D00017008900115E044088014900005E064E1
:101A4D00026003021AD4900115E04408F04410F02E
:101A5D007D077FE87E03122BBC7F16803590000535
:101A6D00E0FD7C0064017009900115E054DFF08009
:101A7D001F900106E064017017ED4C701390011575
:101A8D00E054DFF0E4900106F0FD7F10FE123657B2
:101A9D007F0912372580307D0A7FE87E03122BBC2B
:101AAD008025900005E0640170107D017F12FE120B
:101ABD0036579001357401F0800DE4FD7F12FE1252
:0C1ACD003657E4900135F0E4900105F07C
:011AD90022EA
:043B87009291D290B5
:0F3B8B00E4FFEFC394017480948050030F80F324
:013B9A002208
:0B365700900174EEF0A3EFF0A3EDF083
:10366200900174E0FEA3E07807CEC313CE13D8F91D
:1036720044A054FE900177F0123BD4900177E0FF12
:103682001232C7900174A3E0FF1232C7900176E0B4
:0C369200FF1232C71200167F02023B013B
:0439DB00AD07AC0682
:1039DF00ED7807CEC313CE13D8F944A054FEFF12CF
:1039EF003897900195EFF07F02123B01900195E01F
:0139FF00FFC8
:013A000022A3
:08389700900196EFF0A3EDF0A3
:10389F00123BD4900196E0FF1232C7900197E0FFE0
:1038AF001232C7123BD4900196E04401FF1232C787
:1038BF0012002E900198EFF0120016900198E0FF81
:0138CF0022D6
:103BD400D291123B8BD290123B8BC291123B8BC27F
:023BE40090222D
:0D001600C291123B8BD290123B8BD29122F3
:1032C700AE07C290EE30E703D38001C3123B87C23B
:1032D70090EE30E603D38001C3123B87C290EE30F5
:1032E700E503D38001C3123B87C290EE30E403D3DA
:1032F7008001C3123B87C290EE30E303D38001C342
:10330700123B87C290EE30E203D38001C3123B87A2
:10331700C290EE30E103D38001C3123B87C290EE27
:1033270030E003D38001C3123B87C290C290C290A2
:0B333700D291D290D290D290C290228E
:10002E00E4FED291123B8BC290E4FDFCD290EE2501
:10003E00E0FE3091034401FEC2900DBD00010CEDB7
:10004E0064084C70E7123B8BD290D290D290C29043
:02005E00AF06EB
:01006000227D
:10324900AE07C290EE30E703D38001C3123B87C2B9
:1032590090EE30E603D38001C3123B87C290EE3073
:10326900E503D38001C3123B87C290EE30E403D358
:103279008001C3123B87C290EE30E303D38001C3C0
:10328900123B87C290EE30E203D38001C3123B8721
:10329900C290EE30E103D38001C3123B87C290EEA6
:1032A90030E003D38001C3123B87C290C290C29021
:0E32B900D291123B8BD290D290D290C2902232
:043A6900AB07AA06F7
:103A6D007E5E123BD47F5E123249AF03123249AFF4
:0C3A7D00051232491200167F02023B01C4
:103989007F01123AE6EF6021900244E06401701071
:10399900900106E0640170087D047FF47E018006D1
:0A39A9007D137F647E00122BBC2208
:103AE600A2019209C2012009037F0022EF6003AF01
:0A3AF6004622200003AF46227F00A5
:013B000022A2
:1033BB000D0A5374617274204D61696E204C6F6FEE
:1033CB00702E2E2E000D0A537461727420426F6F93
:1033DB00742E2E2E000D0A2843616D657261566F97
:1033EB006C743D256429000D0A2850535720676FD4
:1033FB00696E6720746F20706F776572206F6666D9
:10340B002E2E2E29000D0A285374617274207570AC
:10341B002020506F776572204F6E204D6F64652EA4
:08342B002E2E29000000000014
:10289B0045010D00000000004101150044011F001F
:1028AB00000000420112000041011400410123000D
:1028BB0041011C0042011D00004401363F80000015
:1028CB0044013A3F80000044013E3F800000440138
:1028DB00423F800000440124000000004401290015
:1028EB0000000044012D00000000440131000000F5
:1028FB0000460107000000280015460116000000E5
:10290B00280015602901460506080A0B0D0F101249
:10291B001416181A1C1E202225272A2C2F32353864
:10292B003B3E4245484B5055585D61666B70757A1E
:1038D00075E5028DE3900179E0F5E41204B9F5E2B3
:1038E00075E64675E6B9740129F9E43AFA9001796A
:1038F000E004F0E070030D8DE390017AE014F0E055
:0339000070D3225F
:04000E0075E78122EF
:103A4800E4900174F012000E7B017A017974900100
:103A58007974FFF0A37401F07DEF1238D075E76038
:013A6800223B
:102E5300FF6DFD9001AF7401F0A37401F0A374AA98
:0A2E6300F0EFA3F07B017A01799AE9
:102E6D009001ACEBF0A3EAF0A3E9F09001B2E0FF22
:102E7D00647E6005EF647D703F9001AFE0FBA3E0E1
:102E8D00FAA3E0F91204B9FF9001ACE0FBA3E0FA5C
:102E9D00A3E0F98F82758300747D1205219001AF37
:102EAD00E0FBA3E0FAA3E0F974011204FF9001B274
:102EBD00E0540F4450FF80109001B2E0FF9001AF3D
:102ECD00E0FBA3E0FAA3E0F91204B9FE9001ACE037
:102EDD00FBA3E0FAA3E0F98E82758300EF120521C2
:102EED009001AFE0FBA3E0FAA3E0F974011204FF37
:032EFD007F002231
:0B2F9F00900196EBF0A3EAF0A3E9F02C
:102FAA0090019A747EF09001AA7401F0EF122E55E6
:102FBA00900199E0122E53E49001ABF0900199E050
:102FCA00FF9001ABE0FEC39F501E900196E0FBA369
:102FDA00E0FAA3E0F98E827583001204D2122E530E
:102FEA009001ABE004F080D49001AF7401F0A374B7
:102FFA0001F0A374AAF0ED122E65E49001ABF090F3
:10300A0001AAE0FFA3E0FEC39F5017749A2EF5822F
:10301A00E43401F583E0FF1200039001ABE004F011
:04302A0080DD7F00C6
:01302E00227F
:0524C700900190EFF010
:1024CC0078917C017D017BFF7A34792F7E007F042B
:1024DC00120493900190E0247F604E147003022646
:1024EC006414700302268F14700302269F24046068
:1024FC00030226B07F047E001239DB900191EFF0CD
:10250C007F057E001239DB900192EFF07F067E0092
:10251C001239DB900193EFF07B017A0179919001F4
:10252C00997403F07F800226AD900110E0FEA3E0C9
:10253C007805C333CE33CED8F9FF7C277D10120536
:10254C00557E007F64CFCDCFCECCCE120555AA06DA
:10255C00AB07900110E0FEA3E07805C333CE33CE79
:10256C00D8F9FF7C277D101205557C007D6412057F
:10257C0043EF2BFFEE3AFE7D361205437D641205C8
:10258C0055900191EFF0900114E0FF75F00A84C4AE
:10259C0054F0FEEF75F00A84E5F04E900193F09044
:1025AC00011DE0FEA3E0FF7C007D0A120555EFC47F
:1025BC0054F0FB90011DE0FEA3E0FF7C007D0A12AD
:1025CC000555EB4D900194F0900123E0900195F0AE
:1025DC0090010DE0F9C413135403135007900192AA
:1025EC00E04401F090010EE05407FD7C006406709D
:1025FC0007900192E04402F0ED64084C70079001E2
:10260C0092E04404F0E9C41354071350079001926C
:10261C00E04408F090010EE0C4540F1350079001F1
:10262C0092E04410F090010EE0FDC41354071350D7
:10263C0007900192E04420F0EDC41313540313509F
:10264C0007900192E04440F07B017A01799190016E
:10265C00997405F07F81804990010DE0FFC413133C
:10266C0013540113500D9001917401F0EF547F90AD
:10267C00010DF07B017A0179919001997401F07F41
:10268C0082801E7B017A0179919001997401F07F0F
:10269C0083800E7B017A0179919001997401F07F0E
:0426AC0084122F9FC6
:0126B0002207
:1036E400123A267D107F017E00122BBC7D147FE8E8
:1036F4007E03122BBC7D127F017E00122BBC7D1B2E
:103704007F017E00122BBC7D0F7F017E00122BBC3B
:103714007D267F107E27122BBC90010DE04440F0E3
:013724002282
:1026B100900176EEF0A3EFF0A3EBF0A3EAF0A3E92B
:0126C100F028
:1026C200900004120637FDD3EF9DE5F06480F8EE2A
:1026D200648098400302276590017EE0FBA3E0FA44
:1026E200A3E0F9900004120637FFAEF012060CFDCB
:1026F200C3EF9DFFEE95F0900181F0A3EFF0900102
:1027020078E0FBA3E0FAA3E0F9900004120637FD9B
:10271200ACF012060CFBAAF0C3ED9BFFEC9AFE9004
:102722000183F0A3EFF04E7002FF22900176E0FEEB
:10273200A3E0FFC3EF9BFFEE9AFE900181E0FCA3B2
:10274200E0FD120543A3E0FCA3E0FD1205AAC006CA
:10275200C00790017EE0FBA3E0FAA3E0F912060CA9
:1027620002280990017EE0FBA3E0FAA3E0F99000C1
:1027720004120637FFAEF0900002120637C39FFF25
:10278200E5F09E900181F0A3EFF0900178E0FBA3C9
:10279200E0FAA3E0F9900004120637FFAEF09000D1
:1027A20002120637C39FFFE5F09EFE900183F0A35D
:1027B200EFF04E7002FF22900178E0FBA3E0FAA353
:1027C200E0F9900004120637FFAEF0AB07AA0690BC
:1027D2000176E0FEA3E0FFC3EF9BFFEE9AFE9001BD
:1027E20081E0FCA3E0FD120543A3E0FCA3E0FD129F
:1027F20005AAC006C00790017EE0FBA3E0FAA3E0B1
:10280200F9900004120637FFAEF0D0E02FFFD0E0BF
:102812003EF990017BE0FBA3E0FAA3E0C98FF0123E
:04282200066F7F01BD
:01282600228F
:103766007E0090017B7401F0A37401F0A37474F0E1
:10377600A37401F0A37401F0A37416F07B017A011F
:1037860079071226B1900174E0FEA3E02446F58283
:0E37960074013EF583E0FD7F027E00023A6979
:103A01007F107E001239DB900106EFF07F117E00FE
:103A11001239DB90016FEFF07F127E001239DB90DB
:053A21000135EFF02269
:103A8900EF4488F5C5E5C520E3FBAFC6EF75F00443
:103A9900A4FFE5E85403FDEF4DFFE5F05403FE22D2
:073C1D00E4FE7F06023A8974
:073C2400E4FE7F07023A896C
:1012BD002005030216E37F0A7ED77D237C3C900137
:1012CD0024E0F8A3E0F9A3E0FAA3E0FB12015E909D
:1012DD000136E0F8A3E0F9A3E0FAA3E0FB12006DFC
:1012ED009001741208147F0A7ED77D237C3C9001F7
:1012FD0029E0F8A3E0F9A3E0FAA3E0FB12015E9068
:10130D00013AE0F8A3E0F9A3E0FAA3E0FB12006DC7
:10131D009001781208147F0A7ED77D237C3C9001C2
:10132D002DE0F8A3E0F9A3E0FAA3E0FB12015E9033
:10133D00013EE0F8A3E0F9A3E0FAA3E0FB12006D93
:10134D0090017C1208147F0A7ED77D237C3C90018E
:10135D0031E0F8A3E0F9A3E0FAA3E0FB12015E90FF
:10136D000142E0F8A3E0F9A3E0FAA3E0FB12006D5F
:10137D009001801208147F007EB07DE57C459001C0
:10138D0074E0F8A3E0F9A3E0FAA3E0FB12015EE438
:10139D00FBFA797A78441202679001841208147F5F
:1013AD00E17E987DD27C45900178E0F8A3E0F9A329
:1013BD00E0FAA3E0FB12015EE4FBFA797A784412BD
:1013CD000267900184E0F8A3E0F9A3E0FAA3E0FB43
:1013DD0012006D9001881208147F487EC17D2C7C0F
:1013ED004690017CE0F8A3E0F9A3E0FAA3E0FB123C
:1013FD00015EE4FBFA797A7844120267900188E085
:10140D00F8A3E0F9A3E0FAA3E0FB12006D90018CC4
:10141D0012081490023CE0FEA3E0FFC3EE6480943A
:10142D00804008E4900123F0FC80179001237401A3
:10143D00F090023CE0FEA3E0FFC3E49FFFE49EFEBC
:10144D007C007D021205AA900170EEF0A3EFF090E2
:10145D000170E0FEA3E0D394F0EE9400400302157A
:10146D0003C3EE94005003021503E4FFFE7DF57CEB
:10147D0041900174E0F8A3E0F9A3E0FAA3E0FB12B8
:10148D00015EC004C005C006C007900170E0FCA35A
:10149D00E0FDE4120309D003D002D001D000120107
:1014AD005EE4FBFA797A784412026790011F120804
:1014BD0014E4FFFE7DF57C41900174E0F8A3E0F9A2
:1014CD00A3E0FAA3E0FB12015EC004C005C006C094
:1014DD0007900170E0FCA3E0FDE4120309D003D0F6
:1014ED0002D001D00012015E120342900172EEF0A3
:1014FD00A3EFF0021669900170E0FEA3E0FFD39414
:10150D00F0EE9400406BD3EF94C2EE940150627FE5
:10151D002F7E5D7D007C42900178E0F8A3E0F9A379
:10152D00E0FAA3E0FB12015EC004C005C006C007CF
:10153D00900171E02410FD900170E034FFFCE41285
:10154D000309D003D002D001D00012015EE4FBFAF2
:10155D00797A7844120267900184E0F8A3E0F9A348
:10156D00E0FAA3E0FB12006D90011F1208140216A1
:10157D0069900170E0FEA3E0FFD394C2EE940140A8
:10158D006AD3EF940CEE940350617F197E047D06AF
:10159D007C4290017CE0F8A3E0F9A3E0FAA3E0FB24
:1015AD0012015EC004C005C006C007900171E024A1
:1015BD003EFD900170E034FEFCE4120309D003D02F
:1015CD0002D001D00012015EE4FBFA797A78441260
:1015DD000267900188E0F8A3E0F9A3E0FAA3E0FB2D
:1015ED0012006D90011F1208148071D3900171E0EB
:1015FD00940C900170E0940350030216C77F817E16
:10160D00957D0B7C42900180E0F8A3E0F9A3E0FA10
:10161D00A3E0FB12015EC004C005C006C007900127
:10162D0071E024F4FD900170E034FCFCE412030938
:10163D00D003D002D001D00012015EE4FBFA797A1A
:10164D00784412026790018CE0F8A3E0F9A3E0FA68
:10165D00A3E0FB12006D90011F1208147FCD7ECC0C
:10166D007D4C7C3D90011FE0F8A3E0F9A3E0FAA3C7
:10167D00E0FB12006D120342900114EFF07FCD7E5E
:10168D00CC7D4C7C3D90011FE0F8A3E0F9A3E0FA7E
:10169D00A3E0FB12006DE4FBFA79C8784212015EFB
:1016AD0012034290011DEEF0A3EFF07C007D641259
:1016BD00055590011DECF0A3EDF0C205900115E06C
:1016CD001350137F811224C77F261237257D267F65
:0616DD00E87E03122BBCA5
:0116E30022E4
:103AA9007BFF7A3379BB1237A41216E41231401224
:0F3AB90031C51239891212BD900106E070EB225F
:103433001235711239B37BFF7A3379D01237A41264
:103443002AA1D2B4D2B5123B47123A011236E49004
:10345300016FE0FF1237667BFF7A3379E090016FEB
:10346300E0FF90017AE4F0A3EFF01237A490013566
:10347300E06401700590010604F0900106E0640128
:1034830078117008E654F04402F68006E654F044DE
:1034930001F6900106E064017003123AA912350D9A
:0234A30080F0B7
:10350D007BFF7A3379F21237A47811E654F0440137
:10351D00F6900115E054FEF07F1612372590011537
:10352D00E054DFF07F091237251231C512314012F8
:10353D003989900106E0640170EFE490023CF0A33C
:10354D00F0900114F090011DF0A3F0900123F0F51F
:10355D0042F5437811E654F04402F67BFF7A347954
:04356D00100237A46D
:0D293B0001108A4101BB00C187C108C1869F
:1035BF001B5B306D001B5B303B33316D001B5B3091
:1035CF003B33326D001B5B303B33336D001B5B3085
:1035DF003B33346D001B5B303B33356D001B5B3071
:1035EF003B33366D001B5B303B33376D0030313270
:0E35FF003334353637383941424344454600AF
:10294800580216FF35BFFF35C4FF35CCFF35D4FF1D
:0B29580035DCFF35E4FF35ECFF35F403
:0808F200E0FBA3E0FAA3E0F92A
:0B08FA009001A5EBF0A3EAF0A3E9F0E9
:100905009001B3120820000000019001A5E0FBA3AF
:10091500E475F0011205F6A9F0FA1204B99001ABDD
:10092500F07003020E4724DB701B9001A5E0FBA3CA
:10093500E0FAA3E0F91204B9B425139001A6E47511
:10094500F0011205E02002FD9001AB020E1DC20967
:10095500C20AE49001B2F09001A5E0FBA3E475F0B2
:10096500011205F6A9F0FA1204B99001ABF0E0FD09
:10097500B4301BD2099001A5E0FBA3E475F0011288
:1009850005F6A9F0FA1204B99001ABF0801FEDFF4E
:100995003395E0FEC3EF9430EE64809480402CD311
:1009A500EF9439EE6480948050219001ABE024D01F
:1009B5009001B2F09001A5E0FBA3E475F0011205EA
:1009C500F6A9F0FA1204B99001ABF09001B17402E6
:1009D500F09001ABE024BE602B24E0602724F66094
:1009E500042420703C9001A5E0FBA3E475F00112FE
:1009F50005F6A9F0FA1204B99001ABF09001B174B3
:100A050004F0801D9001A5E0FBA3E475F00112053B
:100A1500F6A9F0FA1204B99001ABF09001B1740196
:100A2500F09001ABE0FF24A87003020CD624F5700A
:100A350003020DF224F07003020DA524FE600E24BE
:100A4500FD7003020CD624146003020E259001B13B
:100A5500E024FE604224FE607B24036003020AF664
:100A6500EF9001A8B46419E0FBA3E475F001120549
:100A7500F6A9F0FA1204B9FF3395E0FEFDFC806B90
:100A8500E0FBA3E475F0011205F6A9F0FA1204B92A
:100A9500FFE4FCFDFE80549001ABE09001A8B46436
:100AA5001BE0FBA3E475F0021205F6A9F0FA1206A5
:100AB5000CFFAEF0EE3395E0FDFC8016E0FBA3E401
:100AC50075F0021205F6A9F0FA12060CFFAEF0E475
:100AD500FCFD80179001ABE09001A8E0FBA3E47555
:100AE500F0041205F6A9F0FA1207F49001AD120808
:100AF500149001ADE0FCA3E0FDA3E0FEA3E0FFEC54
:100B05003350252002FD75992DD2029001ADE0FCF0
:100B1500A3E0FDA3E0FEA3E0FF74FFFBFAF9F812E2
:100B2500068E9001AD1208149001B2E06003020B2D
:100B3500BC9001ADE0FCA3E0FDA3E0FEA3E0FFEC6B
:100B45004D4E4F700B2002FD759930D20202090FF0
:100B5500E49001B2F0A3120820000000019001B258
:100B6500E0C3940A74809480504D9001ADE0FCA3DD
:100B7500E0FDA3E0FEA3E0FF9001B3E0F8A3E0F9F8
:100B8500A3E0FAA3E0FB120719E4FBFAF9F8C31294
:100B950007CF60239001B3E0FCA3E0FDA3E0FEA333
:100BA500E0FFE47B0AF812068E9001B31208149058
:100BB50001B2E004F080A6E49001ACF09001B3121C
:100BC5000820000000019001B2E024FFFFE434FF9B
:100BD500FE9001ACE0FD3395E0FCC3ED9FEE648033
:100BE500F8EC64809850259001B3E0FCA3E0FDA3E8
:100BF500E0FEA3E0FFE47B0AFAF9F812068E900105
:100C0500B31208149001ACE004F080BA9001ADE095
:100C1500FCA3E0FDA3E0FEA3E0FF9001B3E0F8A391
:100C2500E0F9A3E0FAA3E0FB120719EF2430FF90E7
:100C350001ABF0BF3025200922E47F01FEFDFC90C9
:100C450001B3E0F8A3E0F9A3E0FAA3E0FBC31207C0
:100C5500CF60089001AB7420F08002D2092002FD1C
:100C65009001ABE0F599D2029001ADE0FCA3E0FD67
:100C7500A3E0FEA3E0FF9001B3E0F8A3E0F9A3E051
:100C8500FAA3E0FB120719AC00AD01AE02AF039069
:100C950001AD1208149001B3E0FCA3E0FDA3E0FE52
:100CA500A3E0FFE47B0AFAF9F81207199001B312E1
:100CB5000814E4FFFEFDFC9001B3E0F8A3E0F9A3FE
:100CC500E0FAA3E0FBC31207CF6003020C1102098F
:100CD5000F9001B1E024FE602224FE6039240370E8
:100CE5004E9001A8E0FBA3E475F0011205F6A9F00A
:100CF500FA1204B9FFE4FCFDFE802E9001A8E0FB8A
:100D0500A3E475F0021205F6A9F0FA12060CFFAE7F
:100D1500F0E4FCFD80139001A8E0FBA3E475F0046A
:100D25001205F6A9F0FA1207F49001AD1208149015
:100D350001B2E070089001B1E025E0A3F0E4900174
:100D4500ACF09001B2E0FF9001ACE0FD3395E0FC22
:100D5500C3ED9F7480F86C98400302090F2002FDD3
:100D65009001ACE0FF9001B2E0C39F1425E025E0BF
:100D7500F99001ADE0FCA3E0FDA3E0FEA3E0FFA830
:100D8500011207E07E00EF540F24FCF582EE3435A6
:100D9500F583E493F599D2029001ACE004F080A2CA
:100DA5009001A8E0FBA3E475F0031205F6A9F0FA9B
:100DB5001208519001B7EBF0A3EAF0A3E9F0900116
:100DC500B7E0FBA3E0FAA3E0F91204B97003020946
:100DD5000F2002FD9001B7E0FBA3E475F0011205B9
:100DE500F6A9F0FA1204B9F599D20280D19001A8BA
:100DF500E0FBA3E475F0021205F6A9F0FA12060C61
:100E0500FFAEF0EE3395E0FDFC9001AD1208142025
:100E150002FD9001ADA3A3A3E0F599D20202090F4B
:100E25009001A8E0FBA3E475F0021205F6A9F0FA1B
:100E350012060CFFAEF0E4FCFD9001AD12081402A1
:020E4500090F93
:010E47002288
:0B37A400900177EBF0A3EAF0A3E9F03E
:1037AF009001A27401F0A37401F0A3747AF0900158
:1037BF00A2E0F9A3E0FAA3E09001A8C9F0A3EAF010
:1037CF00A3E9F09001771208F29001A2E4F0A3F0C0
:0237DF00A3F055
:0137E10022C5
:0B37E200900170EBF0A3EAF0A3E9F007
:1037ED0090019B7401F0A37401F0A37473F0900128
:1037FD009BE0F9A3E0FAA3E09001A8C9F0A3EAF0D9
:10380D00A3E9F09001701208F290019BE4F0A3F08F
:02381D00A3F016
:01381F002286
:0E369E00900176EFF0A3EBF0A3EAF0A3E9F0C1
:1036AC009001A27401F0A37401F0A3747AF090015C
:1036BC00A2E0F9A3E0FAA3E09001A8C9F0A3EAF014
:1036CC00A3E9F09001771208F29001A2E4F0A3F0C4
:0736DC00A3F090017604F059
:0136E30022C4
:103B19000A0D537973506F776572496E69746961DB
:083B29006C2E2E4F4B212100F0
:04296300021100005D
:1039B300D283C2A1D284D282C2A1C2B7C286C2EAD2
:1039C300C2A6C2A2D2E8D2E97FC87E00123B5D7BC9
:0839D300FF7A3B79190237E28B
:1031C5007811E6FF540F14602D24FA605024057021
:1031D50063EFC4540F601024F960082406700DE4F1
:1031E500FF80067F0380027F011239327811E65491
:1031F5000F4420F6803E7811E6C4540F600C24FE7F
:10320500600C24FB700D7F0480067F0280027F0620
:103215001239327811E6540F4410F680177811E60A
:10322500C4540F24FE70057F051239327811E65417
:103235000F4470F67811E6FF54F0C4540FFEEF54B6
:04324500F04EF6222F
:1022D500900174EFF07F1B1237257F1C1237257F85
:1022E5001D1237257F1E1237257F1F1237257F20A8
:1022F500123725900174E024F7700302243324FC7F
:1023050070030223ED1470030223A624FD7003025B
:10231500247D147003022498240360030224C67DDF
:10232500DA7F141234A590010FE0440FF0900115E7
:10233500E013400B900106E0640170030223C578A9
:1023450011E6C4540F6407703090010DE0C41313F7
:102355005403135002801E900106E070057D18029B
:10236500247090010DE0541FFF64036005EF6409BC
:1023750070030224907D1C80687811E6C4540F64B4
:1023850002701990010DE0541FFF64036005EF64AE
:102395000970047D1F804A7D1902242C7D180224B2
:1023A5002C7DDA7F141234A590010FE054F0440E11
:1023B500F0900115E013400D900106E064017005F1
:1023C5007D1B0224707811E6C4540F6407701490C5
:1023D500010DE0C4131354031350047D2080027DC6
:1023E5001B80447D170224BF7D287F141234A590DD
:1023F500010FE054F0440DF0900115E013400C90EE
:102405000106E0640170047D1B80607811E6C45408
:102415000F6407701590010DE0C413135403135096
:10242500047D1E80027D1B0224BF7D1A80447DDA57
:102435007F141234A590010FE054F04409F0900187
:1024450015E013400C900106E0640170047D1B80CB
:102455001A7811E6C4540F640270047D19800C7853
:1024650011E6C4540F640770077D1C7F64FE804E1F
:102475007D187F647E008046900115E0C4540F13DB
:1024850050077F061230BB8002D2827D1E7F647E9C
:1024950000802B900115E0C4540F13500EE4FF1279
:1024A50030BB900115E054EFF08002C28290011517
:1024B500E01350047D1980027D1E7F647E00122B7F
:0224C500BC2237
:1030BB00EFB40A0050779030C8F82828730230E636
:1030CB000230E60231100230E602311002312A02E0
:1030DB0031100231380231380230FFC282D2B7D2FE
:1030EB00EAD2A6D2A2D2B6D2A07D0C7FF47E011278
:1030FB002BBC8039C283D2A17F407E00123B5DC2C4
:10310B0084D2868028C2A0D283D284C2A1D282C2AA
:10311B00A1C2B7C2EAC2A6C2A2C2B6C286800EC202
:10312B00A1D284C2B7C2EAC2A6C2A2C28690010FC4
:05313B00E054F0F02259
:10393200900170EFF024FE601A24FE601E146013E2
:1039420014601024FE600C240824F6500624F7604C
:0C395200028008900170E0FF1230BB22E0
:0B296700C10C4201F10000410213000E
:103B5D00EF4E6010C20C300CFDC20CEF1F70011E39
:053B6D00144E70F2226D
:103B9B00EF75F003A424F6F582E43401F583E0FE1F
:043BAB00A3E0FF2272
:103B7200EF75F003A424F5F582E43401F583E0C384
:053B820013547FFF2237
:103BAF00EF75F003A424F5F582E43401F583E054B6
:033BBF00FEF022F3
:103BE600EF75F003A424F5F582E43401F583E013C0
:013BF60022AC
:10360D009001F1E0FFA3E0900199CFF0A3EFF090CE
:10361D000199E0FEA3E0FFC39001F2E09FFF90014E
:10362D00F1E09EFE123C06D3EF947FEE6480948011
:10363D00400F9001F1E0FFA3E0900199CFF0A3EFCF
:09364D00F0900199E0FEA3E0FFFA
:013656002251
:08297300900194EEF0A3EFF0D7
:10297B00E4A3F0A3F0A3F012360D900197EEF0A3B1
:10298B00EFF0900194E0FEA3E0FFE4FCFD7B487ABE
:10299B00EEF9F8C31207B9500A90019474EEF0A344
:1029AB007448F0900194E0FEA3E0FF900198E02FB3
:1029BB00FF900197E03EFEE4FCFD7B487AEEF9F8D0
:1029CB00C31207B9401F900194E0FEA3E0FF9001F2
:1029DB0097E0FCA3E0FD2FFFEC3EFED3ED9FEC9EBA
:1029EB005003022A98E49001F1F0A3F0900196F0C5
:1029FB00900196E0FFC3940A748094804003022AEE
:102A0B0091EF75F003A424F5F582E43401F583E02E
:102A1B00540164017067900196E0FF75F003A424E4
:102A2B00F6F582E43401F583E0FCA3E0FD90019719
:102A3B00E0FAA3E0FBD3ED9BEC9A402CEF75F0038F
:102A4B00A424F6F582E43401F583C083C082C3A3CA
:102A5B00E09BFF0582D5820215831582E09AD08216
:102A6B00D083F0A3EFF08015900196E075F003A4EE
:102A7B0024F6F582E43401F583E4F0A3F09001969B
:102A8B00E004F00229FBE4900197F0A3F09001978A
:052A9B00E0FEA3E0FFD6
:012AA0002213
:103A2600E4FFEFC3940A748094805015EF75F00399
:103A3600A424F5F582E43401F583E054FEF00F800A
:013A4600E19E
:013A4700225C
:092BB3001237257D157F647E00B8
:0B2BBC00900190EEF0A3EFF0A3EDF00D
:102BC700E4A3F0F0900193E0FFC3940A748094802B
:102BD700502EEF75F003A424F5F582E43401F58354
:102BE700E0FF540164017010EFC313547FFF90019D
:102BF70092E06F7003022C9A900193E004F080C476
:102C0700E4900193F0900193E0FFC3940A748094D9
:102C1700804003022C9AEF75F003A424F5F582E4B3
:102C27003401F583E0FF54017060900193E0FE7575
:102C3700F003A424F5F582E43401F583EF4401F0B1
:102C4700900192E0547F25E0FFEE75F003A424F590
:102C5700F582E43401F583E054014FF0900190E0F0
:102C6700FEA3E0FF122973900191E02FFF900190DE
:102C7700E03EFE900193E075F003A424F6F582E4AC
:102C87003401F583EEF0A3EFF022900193E004F016
:032C9700022C0C00
:012C9A002217
:10372500E4FEEEC3940A748094805034EE75F00381
:10373500A424F5F582E43401F583E0FD5401640128
:10374500701BEDC313547FB50713EE75F003A42466
:10375500F5F582E43401F583E054FEF0220E80C2D3
:013765002241
:0B2C9B00900171EEF0A3EFF0A3EDF04C
:102CA600E4A3F0F0900174E0FFC3940A748094806A
:102CB600502DEF75F003A424F5F582E43401F58375
:102CC600E0FF54016401700FEFC313547FFF9001BE
:102CD60073E0B507028064900174E004F080C5E4F7
:102CE600900174F0900174E0FFC3940A748094809C
:102CF6004003022D78EF75F003A424F5F582E43441
:102D060001F583E0FF54017060900174E0FE75F0F8
:102D160003A424F5F582E43401F583EF4401F09031
:102D26000173E0547F25E0FFEE75F003A424F5F56A
:102D360082E43401F583E054014FF0900171E0FE26
:102D4600A3E0FF122973900172E02FFF900171E05A
:102D56003EFE900174E075F003A424F6F582E43497
:102D660001F583EEF0A3EFF022900174E004F00287
:022D76002CEA45
:012D78002238
:102D7900EF14B40C004003022E52902D9175F0030C
:102D8900A4C58325F0C58373022DB5022DB5022D87
:102D9900C9022DCD022DDE022DF7022E0D022E5273
:102DA900022E33022E48022E52022E4B90016FE062
:102DB900FF12376690016FE0FD7F117E00023657E2
:102DC9007F80800E90010DE0C413135403135079D2
:102DD9007F830224C7900115E0FF1313543F13406A
:102DE900687811E654F04407F6EF4404F022E490C1
:102DF900023CF0A3F0900114F090011DF0A3F090B3
:102E09000123F022900115E0FF131313541F1350EF
:102E190014EF54F7F054FEF07F111222D57D077F8D
:102E2900E87E0380177F120222D5900115E0442025
:102E3900F07F821224C77D097F987E3A022BBC025B
:0A2E49003A48D2B77F091230BB22CD
:10314000E4900170F0A3F0A3F0A3F0900170F09070
:103150000170E0C3940A74809480506812360D9018
:103160000172EEF0A3EFF0900170E0FF123BE65029
:103170004B900170E0FF123B9BD3900173E09F9056
:103180000172E09E4036900170E0FF123BAF90016B
:1031900070E0FF123B72900171EFF0C3940E7480E7
:1031A00094805007E0FF122D798011900171E0FFAB
:1031B000C39427748094805003120E48900170E0ED
:0431C00004F0808B0C
:0131C40022E8
:100E4800EF24F1B4180040030212BC900E6175F053
:100E580003A4C58325F0C58373020F0E020F780221
:100E680012BC0210720210370211330211EB021188
:100E780019020EB5020EA9020EAD020EB1020EBA8B
:100E8800020EC8020ED6020EE4020EF2020F000293
:100E9800124602125402126202127002127F020FEC
:100EA800637F18800A7F1980067F1A80027F1702E5
:100EB80033427F1B1233427D1B7FFA7E000212B938
:100EC8007F1B1233427D1C7FE87E030212B97F1D0F
:100ED8001233427D1D7FE87E030212B97F1E123352
:100EE800427D1E7FE87E030212B97F1F1233427DC6
:100EF8001F7FE87E030212B97F201233427D207FD4
:100F0800E87E030212B9123B31EF6401701F9001B1
:100F18000DE0C4131354031340387F15123BE650F9
:100F280003122BB37F14123BE65027801D90010D4E
:100F3800E0C4131354031350197F15123BE65003F2
:100F4800122BB37F14123BE650081237257D14127A
:100F58002BB87D0F7FE87E030212B9900115E013CC
:100F680050057F811224C77D267FE87E030212B9CF
:100F7800123C24900110EEF0A3EFF0C394C8EE9455
:100F880000500F90010DE04420F054E04409F002B5
:100F9800102E90010DE054DFF0900110E0FCA3E06A
:100FA800FDD394C3EC9402500B90010DE054E0443F
:100FB80004F08072D3ED94C3EC9402401AD39001EC
:100FC80011E09418900110E09403500B90010DE08B
:100FD80054E04403F0804F900110E0FEA3E0FFD3FB
:100FE8009418EE94034014D3EF943FEE9403500BFF
:100FF80090010DE054E04402F0802B900110E0FED7
:10100800A3E0FFD3943FEE94034014D3EF946CEE27
:101018009403500B90010DE054E04401F0800790D8
:10102800010DE054E0F07D107F887E130212B99024
:101038000115E0FF1313543F1350117811E654F0D3
:101048004402F6EF54FBF07F840224C7900106E0C7
:10105800640170087D097F64FE0212B9900106746C
:1010680001F0FD7F107E00023657123C1D900214DD
:10107800EEF0A3EFF090010FE0540F640F700A90A8
:10108800010EE04407F0021110900214E0FCA3E006
:10109800FDC39432EC9400500990010EE054F8F02E
:1010A8008066D3ED9432EC94004016900215E094DB
:1010B800C8900214E09400500890010EE04440806B
:1010C80043900214E0FEA3E0FFD39420EE94034083
:1010D80014EF9484EE9403500C90010EE04420F039
:1010E80054BFF08023D3900215E094E8900214E0F6
:1010F800940390010EE0400754F84406F080094438
:1011080007F054BFF054DFF07D127F107E270212E3
:10111800B9900115E0FFC3131350030212BCEF444A
:1011280008F07D077FE87E030212B9123B31EF64B5
:101138000160030211C690010DE0FFC413135403AC
:1011480013400FEF4440F0C2EAC2A67DDA7F1412C2
:1011580034A590010DE0C41354071350047D248076
:10116800527811E6C4540F6402701290010EE054D4
:1011780007640660047D2180027D2380367811E6AD
:10118800C4540F6407701290010EE054076406609F
:10119800047D2180027D23801A7811E6C4540F64EF
:1011A80001701390010EE05407640660047D2280EC
:1011B800027D23122BB87D147F887E138020900136
:1011C8000DE054BFF0C2EA4480F07F821224C77D4C
:1011D800237FF47E01122BBC7D157FF47E01122B38
:1011E800BC8056123B31EF6401701F900135E064FA
:1011F8000170087D137F64FE122BBC90010FE05430
:10120800F0F07D147F647E00802C20A604C2A6C264
:10121800EA90010DE0541F64047010900106E06428
:101228000170087D097F64FE122BBC7D23122BB848
:101238007D157F887E13122BBCC2EAC2A6229001BC
:101248000FE0540F640E606C7F0E802890010FE051
:10125800540F640D605E7F0D801A90010FE0540FEB
:10126800640F60507F0F800C90010FE0540F6409E9
:1012780060427F090222D590022EE0240AF0E06441
:101288003C7007F0900235E004F0900235E0643CD1
:101298007007F090023AE004F090023AE0641870A7
:1012A80007F0900239E004F0121D9B7D257F107E27
:0512B80027122BBC22EF
:100066000203AEE86480F8E933E83360110460F017
:10007600ED33EC337009E8FCE9FDEAFEEBFF220400
:1000860060DED3EB9FEA9EE99DE8C2E78CF0C2F7FB
:1000960095F0400CE8CCF8E9CDF9EACEFAEBCFFBC7
:1000A60012037985D0F05804700320D5B3E80470A4
:1000B600075002B2D50203B892D5EC0460F7E4CC3F
:1000C600C0E0C398F8603B94186008400DD0E0FB90
:1000D600020390E4FBFAC9FC8028E830E406E4C990
:1000E600FBE4CAFCE830E305E4C9CACBFCE85407E4
:1000F6006010F8C3E913F9EA13FAEB13FBEC13FCEF
:10010600D8F130F52FC3E49CFCEF9BFFEE9AFEED91
:1001160099FDD0E0FBEF4E4D4C701222DB0302033B
:10012600B5EC2CFCEF33FFEE33FEED33FDED30E79F
:10013600EB020390EF2BFFEE3AFEED39FDD0E0FB2C
:1001460050130BBB00030203B8ED13FDEE13FEEFD5
:0801560013FFEC13FC020390FF
:10015E00EC4D6011E8497017ED33EC3304600DE49B
:10016E00FCFFFEFD22E933E8330470F80203AE1201
:10017E00037958046009E4CC248150062850090202
:10018E0003B82840030203B5C0E0EB4A7044B980BF
:10019E0006D0E0FB0203A4EF4E701CBD8008EBFFFF
:1001AE00EAFEE9FD80EBE98DF0A4FEE5F0020247E0
:1001BE00E9CDF9EAFEEBFFEF89F0A4FCE5F0CE897C
:1001CE00F0A42EFFE435F0CD89F0A42DFEE435F039
:1001DE008067EF4E7005BD80D780C3EF8BF0A4AC67
:1001EE00F0EE8BF0A42CFCE435F0F8EF8AF0A42CA2
:1001FE00E5F038FCE433CB8DF0A42CFCE5F03BF8B5
:10020E00EE8AF0A42CFCE5F038F8E433CF89F0A4A4
:10021E002CFCE5F038CF3400CE89F0A42FFFE5F0AA
:10022E003EFEE433C98DF0A42EFEE5F039CD8AF002
:10023E00A42FFFE5F03EFEE43DFD33D0E0FB50077A
:10024E000BBB000F0203B8EC2CFCEF33FFEE33FEBA
:06025E00ED33FD020390E8
:100264000203B8EC5D046005E8590470030203AEB0
:10027400120379580460F6EC4860F2EC7004FDFE59
:10028400FF22C860DB2481C85009C398600250066D
:100294000203B59850CAF582E9294B4A7005AB822E
:1002A4000203A475F0007C1A7880C3EF9BEE9AEDEC
:1002B40099400DC3EF9BFFEE9AFEED99FDE842F0E5
:1002C400DC23ACF0D0E0FFD0E0FED0E0FDAB822038
:1002D400E7101BEB60BAEC2CFCEF33FFEE33FEEDC2
:1002E40033FD020390E803F830E705C0F075F00031
:1002F400EF2FFFEE33FEED33FD40B830E7C280AAA6
:1003040075F020800E75F010800575F0087D007E74
:10031400007F003392D530D5031207ABEC33401085
:10032400EF33FFEE33FEED33FDEC33FCD5F0ED227D
:0E033400E5F0247EA2D513CC92E7CDCEFF22B9
:10034200EDD2E7CD33EC3392D524814006E4FFFEB3
:10035200FDFC22FCE4CFCECDCC24E0501174FF8012
:10036200EDC3CC13CCCD13CDCE13CECF13CF0470AF
:07037200F030D5DE0207ABFD
:10037900E9D2E7C933E833F892D5EDD2E7CD33ECCA
:0703890033FC5002B2D52243
:10039000EC30E7100FBF000C0EBE00080DBD0004CE
:1003A0000BEB6014A2D5EB13FCED92E7FD2274FF7A
:1003B000FCFDFEFF22E480F8A2D574FF13FC7D80D3
:0303C000E480EFE7
:10303B00023433E493A3F8E493A34003F68001F244
:10304B0008DFF48029E493A3F85407240CC8C33396
:10305B00C4540F4420C8834004F456800146F6DF65
:10306B00E4800B0102040810204080902827E47EA6
:10307B00019360BCA3FF543F30E509541FFEE4935A
:10308B00A360010ECF54C025E060A840B8E493A321
:10309B00FAE493A3F8E493A3C8C582C8CAC583CA4C
:1030AB00F0A3C8C582C8CAC583CADFE9DEE780BE04
:012972000064
:1003C300E709F608DFFA8046E709F208DFFA803E1C
:1003D30088828C83E709F0A3DFFA8032E309F60809
:1003E300DFFA8078E309F208DFFA807088828C8371
:1003F300E309F0A3DFFA806489828A83E0A3F60825
:10040300DFFA805889828A83E0A3F208DFFA804CFE
:1004130080D280FA80C680D4806980F280338010D5
:1004230080A680EA809A80A880DA80E280CA80333E
:1004330089828A83ECFAE493A3C8C582C8CCC583B6
:10044300CCF0A3C8C582C8CCC583CCDFE9DEE78086
:100453000D89828A83E493A3F608DFF9ECFAA9F005
:10046300EDFB2289828A83ECFAE0A3C8C582C8CC5B
:10047300C583CCF0A3C8C582C8CCC583CCDFEADE74
:10048300E880DB89828A83E493A3F208DFF980CCD6
:1004930088F0EF60010E4E60C388F0ED2402B404CF
:1004A3000050B9F582EB2402B4040050AF23234576
:0604B30082239004137384
:1004B900BB010689828A83E0225002E722BBFE0241
:0904C900E32289828A83E4932274
:1004D200BB010CE58229F582E5833AF583E02250DF
:1004E20006E92582F8E622BBFE06E92582F8E22229
:0D04F200E58229F582E5833AF583E4932243
:1004FF00BB010989828A83F8E028F022500327F78D
:10050F0022BBFE05F8E328F3228A838982F8E4935D
:02051F00282290
:10052100F8BB010DE58229F582E5833AF583E8F010
:10053100225006E92582C8F622BBFE05E92582C8BC
:02054100F222A4
:10054300EF8DF0A4A8F0CF8CF0A428CE8DF0A42ECC
:02055300FE2286
:10055500BC000BBE0029EF8DF084FFADF022E4CC8A
:10056500F875F008EF2FFFEE33FEEC33FCEE9DEC53
:10057500984005FCEE9DFE0FD5F0E9E4CEFD22ED99
:10058500F8F5F0EE8420D21CFEADF075F008EF2FE3
:10059500FFED33FD4007985006D5F0F222C398FDD4
:0505A5000FD5F0EA2271
:1005AA00C2D5EC30E709B2D5E4C39DFDE49CFCEE6C
:1005BA0030E715B2D5E4C39FFFE49EFE120555C38A
:1005CA00E49DFDE49CFC800312055530D507C3E485
:0605DA009FFFE49EFE22DB
:1005E000C5F0F8A3E028F0C5F0F8E58215827002A6
:0605F0001583E038F02243
:1005F600A3F8E0C5F025F0F0E582158270021583B8
:06060600E0C838F0E82214
:10060C00BB010A89828A83E0F5F0A3E022500687B9
:10061C00F009E71922BBFE07E3F5F009E31922897B
:0B062C00828A83E493F5F074019322AE
:10063700BB0110E58229F582E5833AF583E0F5F001
:10064700A3E0225009E92582F886F008E622BBFEDE
:100657000AE92582F8E2F5F008E222E5832AF58324
:08066700E993F5F0A3E99322E9
:10066F00BB010A89828A83F0E5F0A3F0225006F7D6
:0F067F0009A7F01922BBFE06F3E5F009F31922D3
:10068E00E88FF0A4CC8BF0A42CFCE98EF0A42CFC0B
:10069E008AF0EDA42CFCEA8EF0A4CDA8F08BF0A489
:1006AE002DCC3825F0FDE98FF0A42CCD35F0FCEBE8
:1006BE008EF0A4FEA9F0EB8FF0A4CFC5F02ECD39AD
:0F06CE00FEE43CFCEAA42DCE35F0FDE43CFC221A
:1006DD0075F008758200EF2FFFEE33FECD33CDCCD4
:1006ED0033CCC58233C5829BED9AEC99E582984057
:1006FD000CF582EE9BFEED9AFDEC99FC0FD5F0D634
:10070D00E4CEFBE4CDFAE4CCF9A88222B800C1B95D
:10071D000059BA002DEC8BF084CFCECDFCE5F0CB9B
:10072D00F97818EF2FFFEE33FEED33FDEC33FCEBD4
:10073D0033FB10D703994004EB99FB0FD8E5E4F98F
:10074D00FA227818EF2FFFEE33FEED33FDEC33FC7C
:10075D00C933C910D7059BE99A4007EC9BFCE99A70
:10076D00F90FD8E0E4C9FAE4CCFB2275F010EF2FB5
:10077D00FFEE33FEED33FDCC33CCC833C810D707B5
:10078D009BEC9AE899400AED9BFDEC9AFCE899F8F0
:0E079D000FD5F0DAE4CDFBE4CCFAE4C8F92283
:0E07AB00C3E49FFFE49EFEE49DFDE49CFC225F
:1007B900EB9FF5F0EA9E42F0E99D42F0EC6480C8B7
:0607C90064809845F02257
:1007CF00EB9FF5F0EA9E42F0E99D42F0E89C45F080
:0107DF0022F7
:1007E000E86010ECA2E713FCED13FDEE13FEEF132F
:0407F000FFD8F0221C
:1007F400BB010789828A830208A35005E9F802082D
:1008040097BBFE05E9F80208AF89828A830208BB18
:0C081400ECF0A3EDF0A3EEF0A3EFF02257
:10082000A8828583F0D083D082120837120837124D
:100830000837120837E473E493A3C583C5F0C58372
:10084000C8C582C8F0A3C583C5F0C583C8C582C822
:010850002285
:10085100BB010789828A830208D45005E9F802089E
:10086100CBBBFE05E9F80208DD89828A830208E62E
:10087100D083D082F8E4937012740193700DA3A316
:1008810093F8740193F5828883E47374029368602A
:06089100EFA3A3A380DF2A
:0C3C0600EE30E707C3E49FFFE49EFE22BF
:0C089700E6FC08E6FD08E6FE08E6FF228D
:0C08A300E0FCA3E0FDA3E0FEA3E0FF22C8
:0C08AF00E2FC08E2FD08E2FE08E2FF2285
:1008BB00E493FC740193FD740293FE740393FF2283
:0908CB00E6FB08E6FA08E6F92252
:0908D400E0FBA3E0FAA3E0F92225
:0908DD00E2FB08E2FA08E2F9224C
:0C08E600E493FB740193FA740293F9226E
:00000001FF
