:0300000002329E2B
:0C329E00787FE4F6D8FD7581790232E5F6
:101D25000D0A507265762E46573A253032782530A1
:101D3500327825303278000D0A437572722E465777
:101D45003A253032782530327825303278000D0A40
:101D550043616E6E6F7420616363657373204545DF
:101D650050524F4D21212121000D0A4E6F20696EE1
:101D7500697469616C697A65000D0A285345545F79
:101D850050574D3D253032782076616C3D253032F7
:101D95007829000D0A53797374656D206861732085
:101DA5006265656E20776F726B696E6720666F720C
:101DB50020256420646179732C20256420686F7563
:101DC50072732C202564206D696E757465732061AE
:101DD5006E64202564207365636F6E6473000D0A5D
:101DE50053797374656D20686173206265656E2033
:101DF500776F726B696E6720666F72202564206845
:101E05006F7572732C202564206D696E757465730A
:101E150020616E64202564207365636F6E647300B2
:101E25000D0A53797374656D206861732062656569
:101E35006E20776F726B696E6720666F72202564FE
:101E4500206D696E7574657320616E64202564204C
:101E55007365636F6E6473000D0A53797374656DF2
:101E650020686173206265656E20776F726B696E9D
:101E75006720666F72202564207365636F6E6473D7
:101E8500000D0A28426174746572794254483D25F3
:101E9500642825642E2564562929002854454D506B
:101EA5005F4E4F524D414C29002854454D505F48D7
:101EB50049474829002854454D505F4C4F57290044
:101EC5000D0A28426174746572794341503D256459
:101ED5002825642E25645629290028484947485F46
:101EE5004348415247452900284C4F575F434841D5
:101EF50052474529002853544F505F4348415247A4
:101F0500452900284E4F5F4241545429002842413B
:101F150054545F5354415455535F41435F4D4F44AF
:101F2500452900285F424154545F53544154555349
:101F35005F43415041434954595F4C4556454C31E7
:101F45002900285F424154545F5354415455535F0F
:101F550043415041434954595F4C4556454C3229FC
:101F650000285F424154545F5354415455535F43D5
:101F7500415041434954595F4C4556454C3329001E
:101F8500285F424154545F5354415455535F434174
:101F95005041434954595F4C4556454C3429002816
:101FA5005F424154545F5354415455535F4E4F5F04
:101FB5004241545429000D0A28504F5745525F534A
:0A1FC50054415455533D2564290092
:102AB30041025D0041025E004102520041025400A6
:102AC30041025500410250004102490041025F00AA
:102AD30002400000014600C101C10002470000019D
:102AE3004400014500027400000469000000000472
:102AF3006D00000000C10441024A0101720001425D
:102B030000014300C102C1034102530041024B00D3
:102B130041025600440259000000004202570000DF
:102D150012316F9001701208147F047E00123B92ED
:102D25007E00C007C0067F05123B927E00C007C02B
:102D3500067F06123B92900199E4F0A3EFF0900113
:102D450097D0E0F0A3D0E0F0900195D0E0F0A3D0CB
:102D5500E0F07BFF7A1D792512392512316FE47B6E
:102D65000FFAF9F8C31207CF605F7BFF7A1D793C34
:102D7500E4900195F0A3F0A3F0A3F0A3F0A3740FE2
:102D8500F01239251239A17F047E00123B927E0094
:102D9500C007C0067F05123B927E00C007C0067FB4
:102DA50006123B92900199E4F0A3EFF0900197D0C1
:102DB500E0F0A3D0E0F0900195D0E0F0A3D0E0F0F2
:102DC5007BFF7A1D793C12392512316FE47B0FFAAE
:102DD500F9F8C31207CF701E7F0FFEFDFC9001703E
:102DE500E0F8A3E0F9A3E0FAA3E0FBC31207CF6084
:102DF5001E123AEB80197BFF7A1D79531239257B18
:102E0500FF7A1D796E12392590012874FFF0227F13
:102E150064123CB87811E6540F4410F654F044029D
:012E2500F6B6
:012E26002289
:10373300758DF4759850758922758855758A40750D
:103743008C4075878075B80275A892D299D2ACE483
:10375300F5C8C2CAD2AD75AA5075BAF443A61843C8
:10376300AD10C203F5E9F5F9F5D943D8404393A069
:0E37730043910475B10CF5B275B30CF5B42298
:103CE8003085107F327E00123D143085037F01221B
:063CF8007F00227F002284
:10361700900175EFF0A3EDF07BFF7A1D797E9001A5
:1036270095E4F0A3EFF0EDFFA3E4F0A3EFF0123978
:1036370025900175E0603D24EB602324166031245A
:10364700EB703475EC80900176E0FFC374FF9FF553
:10365700FC75DC42EF6428701EF5DCC2942275ED20
:1036670080900176E0FFC374FF9FF5FD75DD422270
:0836770043D8402253D8402241
:03000B00021FCF02
:0B1FCF00C0E0C083C082C0D075D00805
:101FDA0005730545C3E545940A74809480401390BF
:101FEA00020DE004F0700690020CE004F075450062
:101FFA00D20CD3E573946074809480500302224417
:10200A00054AE54A700205497573000544E54464CA
:10201A00647010F544E5469002536005E004F080D0
:10202A0002E4F0E575F47003E574F460080575E5FB
:10203A007570020574AF70AE6FAD6EAC6DEC4D4E3F
:10204A004F6014EF24FFF570EE34FFF56FED34FFA7
:10205A00F56EEC34FFF56D90024CE07002A3E0607F
:10206A000E90024DE024FFF090024CE034FFF0E5C0
:10207A00B0540C13135403FF90025CE06F70030218
:10208A0021E890025AE0900259F090025BE0900237
:10209A005AF090025CE090025BF0A3EFF0D2059058
:1020AA0002517430F0900259E0FF7E007020A3E0E4
:1020BA006401701AA3E064037014A3E06402700E52
:1020CA00900258E004F07006900257E004F0EF64C2
:1020DA00014E702090025AE064037018A3E0640273
:1020EA007012A3E0700E900258E004F0700690029D
:1020FA0057E004F0900259E06403701EA3E0640202
:10210A007018A3E07014A3E06401700E900258E006
:10211A0004F07006900257E004F0900259E0FF7E46
:10212A00006402701EA3E0701AA3E064017014A395
:10213A00E06403700E900258E004F07006900257B3
:10214A00E004F0EF4E702290025AE06402701AA383
:10215A00E064037014A3E06401700E900258E02456
:10216A00FFF0900257E034FFF0900259E0640270E9
:10217A001EA3E064037018A3E064017012A3E07068
:10218A000E900258E024FFF0900257E034FFF090DE
:10219A000259E0FF7E006403701EA3E06401701818
:1021AA00A3E07014A3E06402700E900258E024FFCA
:1021BA00F0900257E034FFF0EF64014E7020900275
:1021CA005AE0701AA3E064027014A3E06403700E6C
:1021DA00900258E024FFF0900257E034FFF0E5E85F
:1021EA00F4FF131313541F30E027E541B42018E518
:1021FA0040B40313754601D200D2017540007541FF
:10220A003290025F7401F00541E541702D0540806E
:10221A0029C3E5419432E5409400401390025FE0FF
:10222A00700D754601C200D201F540F541800B9050
:0A223A00025FE4F0F540F541F546BF
:09224400D0D0D082D083D0E0326A
:10224D00900254E0FF60327BFF7A1D7998900178FF
:10225D00E4F0A3EFF0900255E0FF90017AE4F0A3D3
:10226D00EFF0900250E0FF90017CE4F0A3EFF090CE
:10227D000249E0FF90017E8057900255E0FF6025F6
:10228D007BFF7A1D79E3900178E4F0A3EFF09002E3
:10229D0050E0FF90017AE4F0A3EFF0900249E0FFE7
:1022AD0090017C802B900250E0FF7BFF60167A1E20
:1022BD007925900178E4F0A3EFF0900249E0FF90CA
:1022CD00017A800C7A1E795D900249E0FF900178C9
:1022DD00E4F0A3EFF07F0312386090022FE0FEA32D
:1022ED00E0FF900178EEF0A3EFF07805C333CE3325
:1022FD00CED8F9FBAA067C277D10FF12055590015B
:10230D007AEEF0A3EFF07C277D10AF03AE0212053D
:10231D0055A3ECF0A3EDF07BFF7A1E79867F0212B8
:10232D00386090010EE054076407700A7BFF7A1E37
:10233D0079A07F02801A90010EE0540764067BFF9E
:10234D0070087A1E79AE7F0180067A1E79BA7F04F5
:10235D00123860900110E0FEA3E0FF900178EEF0DE
:10236D00A3EFF07805C333CE33CED8F9FBAA067CA4
:10237D00277D10FF12055590017AEEF0A3EFF07C4A
:10238D00277D10AF03AE02120555A3ECF0A3EDF0BF
:10239D007BFF7A1E79C57F0512386090010FE054DE
:1023AD000F640D700A7BFF7A1E79DF7F02803A90F1
:1023BD00010FE0540F640E700A7BFF7A1E79ED7FDA
:1023CD0003802690010FE0540F640F700A7BFF7A93
:1023DD001E79FA7F01801290010FE0540F6409708D
:1023ED000B7BFF7A1F79087F0112386090010DE099
:1023FD00541F640470087BFF7A1F7912804490018A
:10240D000DE0541F640370087BFF7A1F792880321A
:10241D0090010DE0541F640270087BFF7A1F79470D
:10242D00802090010DE0541F640170087BFF7A1F1E
:10243D007966800E90010DE0541F700A7BFF7A1FA4
:10244D0079857F02801290010DE0541F6409700B95
:10245D007BFF7A1F79A47F011238607BFF7A1F7989
:10246D00BB7811E6C4540FFF900178E4F0A3EFF0B0
:05247D007F060238603B
:103CFE00E4FFEFC3941D74809480500974222FF852
:053D0E00E4F60F80ED5A
:013D1300228D
:10352C00EF24E9B40A00507090354275F003A4C53D
:10353C008325F0C5837302356C02356002356A024F
:10354C00356502356E0235A40235760235800235BA
:10355C008D023599D2E9D2E822D2E8C2E92280055F
:10356C00801530E817C2E8D2E92230E905C2E9D269
:10357C00E822800830E805C2E8C2E922D2E8D2E9A4
:10358C002230E904C2E98002D2E9C2E82230E80420
:09359C00C2E88002D2E8C2E92273
:03001300020026C2
:03002600C2AA3239
:03002300023ABCE2
:103ABC00C0E0C0D075D008309819744B2571F8A6A9
:103ACC00990571C3E571941E7480948040037571DF
:0F3ADC0000C298309904C299C202D0D0D0E03213
:030063000239DD82
:1039DD00C0E0C0D075D008E5AA54016401701A5337
:1039ED00AAFE74222542F8A69A0542C3E542941E0A
:1039FD00748094804003754200E5AA5402640270FD
:0B3A0D000553AAFDC203D0D0D0E03268
:0B3DC900E542B543037F00227F01228A
:103C7F0053ADEF74222543F8E6FF0543E543C394A4
:0D3C8F001E748094804003E4F54343AD10A3
:013C9C002205
:080003002003FD8F9AD20322B5
:03002B00023DAEE5
:0F3DAE00C0E0C2CF0548E54870020547D0E032BB
:103CB800E5442FFFE433FE7C007D64120555E5449E
:073CC800B505FBE4B504F7AC
:013CCF0022D2
:103D79000D0A436C656172426173696345452E2E74
:023D89002E000A
:10316F0090017412082000000000E4FFFE123B9251
:10317F00EF6430600280287F017E00123B92EF6483
:10318F00376002801A7F027E00123B92EF6430603C
:10319F0002800C7F037E00123B92EF64496006E4CD
:1031AF00FFFEFDFC227F057E00123B92EF7F00FEAB
:1031BF00C007C0067F047E00123B927E00EF78109E
:1031CF00C333CE33CED8F9FDD0E04EFED0E04DFF65
:1031DF00C007C0067F067E00123B92EFFDD0E0FED7
:1031EF00D0E04DFFEE3395E0FDFC90017412081412
:0E31FF00900174E0FCA3E0FDA3E0FEA3E0FF5E
:01320D00229E
:1039A1007D30E4FFFE1238197D377F017E00123829
:1039B100197D307F027E001238197D497F037E0018
:1039C100123819E4FD7F04FE123819E4FD7F05FE6B
:0C39D1001238197D0F7F067E00023819A5
:103AEB007BFF7A3D79791239257D017F107E00129B
:103AFB0038197D0E7F117E00123819E4FD7F07FE09
:0B3B0B00123819E4FD7F12FE02381989
:042B23004101050067
:09193900123DC9EF7003021D24E8
:10194200123C7F900170EFF07E00647E700DC20B3E
:1019520090010504F0E4900003F022EF647D4E70E4
:1019620003D20B22300B09C20B900170E04470F0DD
:10197200900105E0FB64046010900003E0FE90011A
:1019820070E0FDEE6D900003F0EB24FE602E14601B
:101992005B147003021A3224036003021D249001B7
:1019A20070E0900002F01424F8500A24F924FD504B
:1019B2000424E370349001057402F022900170E077
:1019C200900001F0A3E01424F8500A24F924FD50F9
:1019D2000424E37014900001E070028049E4900056
:1019E20000F09001057403F022021D1F900002E036
:1019F2001424F8500A24F924FD500424E3702E9094
:101A02000170E0FF900000E02405F582E43400F567
:101A120083EFF0900000E004F0A3E0FF900000E00C
:101A22006F6003021D249001057404F022021D1F41
:101A3200900170E0FF900003E06F6003021D1F90B1
:101A42000002E01208711A70011AA7021AC1031AE1
:101A5200CA041AD3051BE4061C21071CFA081C4CF5
:101A6200101C55111CB5121CEF3000001D1F9001F7
:101A720015E04401F090010FE054F0F0900115E000
:101A8200FF131313541F13500EEF54F7F07F12126B
:101A920024827F071238A6900115E0C31313500366
:101AA200021D1F80117F161238A6900115E0C31384
:101AB200135003021D1F7D167F107E27021CF57D29
:101AC200057FE87E03021CF57D067FE87E03021C8B
:101AD200F5900005E0FDC4540F75F00AA4FFED5423
:101AE2000F7C002FFDEC35F0FC1203099001361239
:101AF2000814900006E0FDC4540F75F00AA4FFED2F
:101B0200540F7C002FFDEC35F0FC120309900124E8
:101B1200120814900007E0FDC4540F75F00AA4FFE8
:101B2200ED540F7C002FFDEC35F0FC1203099001FF
:101B32003A120814900008E0FDC4540F75F00AA48C
:101B4200FFED540F7C002FFDEC35F0FC12030990E1
:101B52000129120814900009E0FDC4540F75F00A1F
:101B6200A4FFED540F7C002FFDEC35F0FC120309AD
:101B720090013E12081490000AE0FDC4540F75F063
:101B82000AA4FFED540F7C002FFDEC35F0FC12038C
:101B92000990012D12081490000BE0FDC4540F753A
:101BA200F00AA4FFED540F7C002FFDEC35F0FC127F
:101BB200030990014212081490000CE0FDC4540F76
:101BC20075F00AA4FFED540F7C002FFDEC35F0FCFC
:101BD2001203099001311208147D0B7FE87E030283
:101BE2001CF5900005E0601390016FE0600414F0B2
:101BF2008005E490016FF07D01801A90016FE0C3CF
:101C02009428748094805005E004F0800690016F5F
:101C12007428F07D027FF47E01122F0F021D1F90A7
:101C22000005E0FD7C00700A900115E054FDF00211
:101C32001D1FED64014C6003021D1F7F161238A6A2
:101C4200900115E04402F0021D1F7D037FE87E0330
:101C5200021CF5900005E0703B900115E054FEF087
:101C62007F161238A67D167F607EEA122E307F1B09
:101C72001238A67F1C1238A67F1D1238A67F1E12AC
:101C820038A67F1F1238A67F201238A67D1E7F64D9
:101C92007E00805F900005E064016003021D1F90DA
:101CA2000115E04408F07D077FE87E03122E307FA5
:101CB200168035900005E0FD7C00640170099001FA
:101CC20015E054EFF0801F900106E064017017EDFB
:101CD2004C7013900115E054EFF0E4900106F0FD12
:101CE2007F10FE1238197F091238A680307D0A7FD4
:101CF200E87E03122E308025900005E0640170100A
:101D02007D017F12FE1238199001357401F0800DA9
:101D1200E4FD7F12FE123819E4900135F0E49001DF
:021D220005F0CA
:011D2400229C
:043D3E009291D290FC
:0F3D4200E4FFEFC394017480948050030F80F36B
:013D5100224F
:0B381900900174EEF0A3EFF0A3EDF0BF
:10382400900174E0FEA3E07807CEC313CE13D8F959
:1038340044A054FE900177F0123D8B900177E0FF95
:103844001234B1900174A3E0FF1234B1900176E018
:0C385400FF1234B11200167F02023CB8D3
:043B9200AD07AC06C9
:103B9600ED7807CEC313CE13D8F944A054FEFF1216
:103BA6003A18900179EFF07F02123CB8900179E063
:013BB600FF0F
:013BB70022EB
:083A180090017AEFF0A3EDF03C
:103A2000123D8B90017AE0FF1234B190017BE0FFF0
:103A30001234B1123D8B90017AE04401FF1234B18F
:103A400012002E90017CEFF012001690017CE0FF36
:013A50002253
:103D8B00D291123D42D290123D42C291123D42C29B
:023D9B00902274
:0D001600C291123D42D290123D42D2912281
:1034B100AE07C290EE30E703D38001C3123D3EC296
:1034C10090EE30E603D38001C3123D3EC290EE3050
:1034D100E503D38001C3123D3EC290EE30E403D335
:1034E1008001C3123D3EC290EE30E303D38001C39D
:1034F100123D3EC290EE30E203D38001C3123D3E45
:10350100C290EE30E103D38001C3123D3EC290EE82
:1035110030E003D38001C3123D3EC290C290C290FD
:0B352100D291D290D290D290C29022A2
:10002E00E4FED291123D42C290E4FDFCD290EE2548
:10003E00E0FE3091034401FEC2900DBD00010CEDB7
:10004E0064084C70E7123D42D290D290D290C2908A
:02005E00AF06EB
:01006000227D
:10343300AE07C290EE30E703D38001C3123D3EC214
:1034430090EE30E603D38001C3123D3EC290EE30CE
:10345300E503D38001C3123D3EC290EE30E403D3B3
:103463008001C3123D3EC290EE30E303D38001C31B
:10347300123D3EC290EE30E203D38001C3123D3EC3
:10348300C290EE30E103D38001C3123D3EC290EE01
:1034930030E003D38001C3123D3EC290C290C2907C
:0E34A300D291123D42D290D290D290C290228D
:043C2000AB07AA063E
:103C24007E5E123D8B7F5E123433AF03123433AFAA
:0C3C3400051234331200167F02023CB867
:103B16007F01123C9DEF602190025FE0640170100E
:103B2600900106E0640170087D047FF47E01800642
:0A3B36007D137F647E00122E302202
:103C9D00A2019209C2012009037F0022EF6003AF48
:0A3CAD004622200003AF46227F00EC
:013CB70022EA
:102957000D0A456E636F72646572436F756E743DE1
:102967002564000D0A456E636F72646572436F7567
:102977006E7454656D703D256420000D0A456E63C5
:102987006F726465724C656E5F4F66667365743D02
:10299700256420000D0A456E636F72646572436F8C
:1029A700756E74504E3D256420000D0A74656D7078
:1029B7005F456E636F72646572436F756E745465BD
:1029C7006D703D256420000D0A456E636F72646566
:1029D700724C656E3D256420000D0A456E636F726B
:1029E700646572436F756E743D256420000D0A455A
:1029F7006E636F726465724C656E696E743D2564B3
:102A070020000D0A456E636F726465724C656E54E3
:102A1700656D703D25642E25646D20000D0A456E99
:102A2700636F726465724C656E666C6F6161743D4D
:102A3700256420000D0A5374617274204D61696E1C
:102A4700204C6F6F702E2E2E000D0A537461727416
:102A570020426F6F742E2E2E000D0A2843616D657C
:102A67007261566F6C743D256429000D0A28505316
:102A77005720676F696E6720746F20706F77657274
:102A8700206F66662E2E2E29000D0A285374617258
:102A9700742075702020506F776572204F6E204D1F
:0C2AA7006F64652E2E2E29000000000038
:102B270045010D000000000041011500420112009F
:102B3700004401363F80000044013A3F80000044D2
:102B4700013E3F8000004401423F800000440124D1
:102B5700000000004401290000000044012D00008E
:102B67000000440131000000004601070000002872
:102B770000154601160000002800156029014605CA
:102B870006080A0B0D0F10121416181A1C1E202205
:102B970025272A2C2F3235383B3E4245484B505586
:082BA700585D61666B70757AE0
:103A890075E5028DE3900179E0F5E41204B9F5E2F8
:103A990075E64675E6B9740129F9E43AFA900179AF
:103AA900E004F0E070030D8DE390017AE014F0E09A
:033AB90070D322A5
:04000E0075E78122EF
:103BFF00E4900174F012000E7B017A017974900148
:103C0F007974FFF0A37401F07DEF123A8975E760C4
:013C1F002282
:1030C200FF6DFD9001937401F0A37401F0A3748E5F
:0A30D200F0EFA3F07B017A01797E94
:1030DC00900190EBF0A3EAF0A3E9F0900196E0FFE9
:1030EC00647E6005EF647D703F900193E0FBA3E08C
:1030FC00FAA3E0F91204B9FF900190E0FBA3E0FA07
:10310C00A3E0F98F82758300747D120521900193E1
:10311C00E0FBA3E0FAA3E0F974011204FF9001961E
:10312C00E0540F4450FF8010900196E0FF90019303
:10313C00E0FBA3E0FAA3E0F91204B9FE900190E0E1
:10314C00FBA3E0FAA3E0F98E82758300EF12052150
:10315C00900193E0FBA3E0FAA3E0F974011204FFE1
:03316C007F0022BF
:0B320E0090017AEBF0A3EAF0A3E9F0D6
:1032190090017E747EF090018E7401F0EF1230C43B
:1032290090017DE01230C2E490018FF090017DE0C1
:10323900FF90018FE0FEC39F501E90017AE0FBA32F
:10324900E0FAA3E0F98E827583001204D21230C22B
:1032590090018FE004F080D49001937401F0A3747D
:1032690001F0A3748EF0ED1230D4E490018FF09048
:10327900018EE0FFA3E0FEC39F5017747E2EF582F6
:10328900E43401F583E0FF12000390018FE004F0BC
:0432990080DD7F0055
:01329D00220E
:05264A00900174EFF0A7
:10264F0078757C017D017BFF7A2A79AF7E007F044C
:10265F00120493900174E0247F604E1470030227DC
:10266F00941470030227BF1470030227CF24046051
:10267F00030227E07F047E00123B92900175EFF07A
:10268F007F057E00123B92900176EFF07F067E0071
:10269F00123B92900177EFF07B017A0179759001EF
:1026AF007D7403F07F800227DD90010DE0FB541F46
:1026BF00900175F0900114E0FF75F00A84C454F096
:1026CF00FEEF75F00A84E5F04E900177F090011D52
:1026DF00E0FEA3E0FF7C007D0A120555EFC454F025
:1026EF00FA90011DE0FEA3E0FF7C007D0A12055564
:1026FF00EA4D900178F0900123E0900179F0EBC45E
:10270F0013135403135007900176E04401F0900126
:10271F000EE05407FD7C0064067007900176E044DC
:10272F0002F0ED64084C7007900176E04404F090DD
:10273F00010DE0C4135407135007900176E04408CD
:10274F00F090010EE0C4540F135007900176E0444F
:10275F0010F090010EE0FDC41354071350079001C1
:10276F0076E04420F0EDC413135403135007900187
:10277F0076E04440F07B017A01797590017D740514
:10278F00F07F81804990010DE0FFC41313135401B2
:10279F0013500D9001757401F0EF547F90010DF0FF
:1027AF007B017A01797590017D7401F07F82801E23
:1027BF007B017A01797590017D7401F07F83800E22
:1027CF007B017A01797590017D7401F07F8412325B
:0127DF000EEB
:0127E00022D6
:103A5100123BDD7D107F017E00122E307D147FE848
:103A61007E03122E307D127F017E00122E307D1BCF
:103A71007F017E00122E307D0F7F017E00122E30DD
:083A810090010DE04440F02229
:1027E100900176EEF0A3EFF0A3EBF0A3EAF0A3E9FA
:0127F100F0F7
:1027F200900004120637FDD3EF9DE5F06480F8EEF9
:10280200648098400302289590017EE0FBA3E0FAE1
:10281200A3E0F9900004120637FFAEF012060CFD99
:10282200C3EF9DFFEE95F0900181F0A3EFF09001D0
:1028320078E0FBA3E0FAA3E0F9900004120637FD6A
:10284200ACF012060CFBAAF0C3ED9BFFEC9AFE90D3
:102852000183F0A3EFF04E7002FF22900176E0FEBA
:10286200A3E0FFC3EF9BFFEE9AFE900181E0FCA381
:10287200E0FD120543A3E0FCA3E0FD1205AAC00699
:10288200C00790017EE0FBA3E0FAA3E0F912060C78
:1028920002293990017EE0FBA3E0FAA3E0F990005F
:1028A20004120637FFAEF0900002120637C39FFFF4
:1028B200E5F09E900181F0A3EFF0900178E0FBA398
:1028C200E0FAA3E0F9900004120637FFAEF09000A0
:1028D20002120637C39FFFE5F09EFE900183F0A32C
:1028E200EFF04E7002FF22900178E0FBA3E0FAA322
:1028F200E0F9900004120637FFAEF0AB07AA06908B
:102902000176E0FEA3E0FFC3EF9BFFEE9AFE90018B
:1029120081E0FCA3E0FD120543A3E0FCA3E0FD126D
:1029220005AAC006C00790017EE0FBA3E0FAA3E07F
:10293200F9900004120637FFAEF0D0E02FFFD0E08E
:102942003EF990017BE0FBA3E0FAA3E0C98FF0120D
:04295200066F7F018C
:01295600225E
:1038E7007E0090017B7401F0A37401F0A37474F05F
:1038F700A37401F0A37401F0A37416F07B017A019D
:1039070079071227E1900174E0FEA3E02446F582CF
:0E39170074013EF583E0FD7F027E00023C203D
:103BB8007F107E00123B92900106EFF07F117E008D
:103BC800123B9290016FEFF07F127E00123B9290B1
:053BD8000135EFF022B1
:103C4000EF4488F5C5E5C520E3FBAFC6EF75F0048A
:103C5000A4FFE5E85403FDEF4DFFE5F05403FE2219
:073DD400E4FE7F06023C4003
:073DDB00E4FE7F07023C40FB
:1008F200200503020F797BFF7A297957900257E08E
:10090200FFA3E0900195CFF0A3EFF01239257F0A03
:100912007ED77D237C3C900124E0F8A3E0F9A3E09C
:10092200FAA3E0FB12015E900136E0F8A3E0F9A31E
:10093200E0FAA3E0FB12006D9001761208147F0A20
:100942007ED77D237C3C900129E0F8A3E0F9A3E067
:10095200FAA3E0FB12015E90013AE0F8A3E0F9A3EA
:10096200E0FAA3E0FB12006D90017A1208147F0AEC
:100972007ED77D237C3C90012DE0F8A3E0F9A3E033
:10098200FAA3E0FB12015E90013EE0F8A3E0F9A3B6
:10099200E0FAA3E0FB12006D90017E1208147F0AB8
:1009A2007ED77D237C3C900131E0F8A3E0F9A3E0FF
:1009B200FAA3E0FB12015E900142E0F8A3E0F9A382
:1009C200E0FAA3E0FB12006D9001821208147F008E
:1009D2007EB07DE57C45900176E0F8A3E0F9A3E0E6
:1009E200FAA3E0FB12015EE4FBFA797A7844120280
:1009F200679001861208147FE17E987DD27C459033
:100A0200017AE0F8A3E0F9A3E0FAA3E0FB12015EA9
:100A1200E4FBFA797A7844120267900186E0F8A33F
:100A2200E0F9A3E0FAA3E0FB12006D90018A12083C
:100A3200147F487EC17D2C7C4690017EE0F8A3E0C5
:100A4200F9A3E0FAA3E0FB12015EE4FBFA797A78FB
:100A52004412026790018AE0F8A3E0F9A3E0FAA346
:100A6200E0FB12006D90018E120814900257E0FE16
:100A7200A3E0FFC3EE648094804008E4900123F079
:100A8200FC80179001237401F0900257E0FEA3E06E
:100A9200FFC3E49FFFE49EFE7C007D021205AA9044
:100AA2000170EEF0A3EFF0900170E0FEA3E0D394AA
:100AB200F0EE94004003020BF3C3EE9400500302E5
:100AC2000BF37BFF7A29796A900170A3E0FF900112
:100AD20095EEF0A3EFF01239257BFF7A2979829007
:100AE2000112E0FFA3E0900195CFF0A3EFF01239DD
:100AF200257BFF7A29799B900123E0FF900195E401
:100B0200F0A3EFF0123925E4FFFE7DF57C41900160
:100B120076E0F8A3E0F9A3E0FAA3E0FB12015EC0DD
:100B220004C005C006C007900170E0FCA3E0FDE42C
:100B3200120309D003D002D001D00012015EE4FBFF
:100B4200FA797A784412026790011F120814E4FFBE
:100B5200FE7DF57C41900176E0F8A3E0F9A3E0FA8E
:100B6200A3E0FB12015EC004C005C006C0079001ED
:100B720070E0FCA3E0FDE4120309D003D002D0012F
:100B8200D00012015E120342900172EEF0A3EFF068
:100B92007FCD7ECC7D4C7C3D90011FE0F8A3E0F937
:100BA200A3E0FAA3E0FB12006D120342900114EFDE
:100BB200F07FCD7ECC7D4C7C3D90011FE0F8A3E020
:100BC200F9A3E0FAA3E0FB12006DE4FBFA79C8781E
:100BD2004212015E12034290011DEEF0A3EFF07C7F
:100BE200007D6412055590011DECF0A3EDF0020F9B
:100BF20077900170E0FEA3E0FFD394F0EE940050F2
:100C020003020D3ED3EF94C2EE94014003020D3E67
:100C12007F2F7E5D7D007C4290017AE0F8A3E0F9AF
:100C2200A3E0FAA3E0FB12015EC004C005C006C047
:100C320007900171E02410FD900170E034FFFCE4A4
:100C4200120309D003D002D001D00012015EE4FBEE
:100C5200FA797A7844120267900186E0F8A3E0F903
:100C6200A3E0FAA3E0FB12006D90011F1208147BAF
:100C7200FF7A2979B1900112E0FEA3E0FFC374F07C
:100C82009FFFE49EFEC3900175E09FFF900174E018
:100C92009E900195F0A3EFF01239257BFF7A297916
:100CA20082900112E0FFA3E0900195CFF0A3EFF054
:100CB2001239257BFF7A2979B1900174E0FFA3E014
:100CC200900195CFF0A3EFF012392590011FE0FCBF
:100CD200A3E0FDA3E0FEA3E0FF120342900195EE24
:100CE200F0A3EFF07BFF7A2979CE1239257BFF7AC8
:100CF2002979E0900257E0FFA3E0900195CFF0A39D
:100D0200EFF01239257FCD7ECC7D4C7C3D90011FCA
:100D1200E0F8A3E0F9A3E0FAA3E0FB12006D1203EE
:100D220042900114EFF07BFF7A2979F4E0FF900101
:100D320095E4F0A3EFF0123925020DF5900170E071
:100D4200FEA3E0FFD394C2EE94015003020E26D319
:100D5200EF940CEE94034003020E267F197E047D6D
:100D6200067C4290017EE0F8A3E0F9A3E0FAA3E05A
:100D7200FB12015EC004C005C006C007900171E00D
:100D8200243EFD900170E034FEFCE4120309D0031E
:100D9200D002D001D00012015EE4FBFA797A7844E5
:100DA20012026790018AE0F8A3E0F9A3E0FAA3E057
:100DB200FB12006D90011F1208147BFF7A2979E063
:100DC200900257E0FFA3E0900195CFF0A3EFF0125D
:100DD20039257FCD7ECC7D4C7C3D90011FE0F8A370
:100DE200E0F9A3E0FAA3E0FB12006D1203429001C6
:100DF20014EFF07FCD7ECC7D4C7C3D90011FE0F85E
:100E0200A3E0F9A3E0FAA3E0FB12006DE4FBFA7998
:100E1200C8784212015E12034290011DEEF0A3EF68
:100E2200F0020F4CD3900171E0940C900170E094A9
:100E3200035003020F777F817E957D0B7C429001E8
:100E420082E0F8A3E0F9A3E0FAA3E0FB12015EC09E
:100E520004C005C006C007900171E024F4FD9001B2
:100E620070E034FCFCE4120309D003D002D001D0BC
:100E72000012015EE4FBFA797A784412026790016B
:100E82008EE0F8A3E0F9A3E0FAA3E0FB12006D9074
:100E9200011F1208147BFF7A2979E0900257E0FFC4
:100EA200A3E0900195CFF0A3EFF012392590011F36
:100EB200E0FCA3E0FDA3E0FEA3E0FF1203429001E9
:100EC20095EEF0A3EFF07BFF7A2979CE1239257FD8
:100ED200CD7ECC7D4C7C3D90011FE0F8A3E0F9A3D0
:100EE200E0FAA3E0FB12006D120342900114EFF04E
:100EF2007BFF7A2979F4E0FF900195E4F0A3EFF00B
:100F02001239257FCD7ECC7D4C7C3D90011FE0F8CF
:100F1200A3E0F9A3E0FAA3E0FB12006DE4FBFA7987
:100F2200C8784212015E12034290011DEEF0A3EF57
:100F3200F07BFF7A2A7923900195EEF0A3EFF0126D
:100F4200392590011DE0FEA3E0FF7C007D641205BF
:100F52005590011DECF0A3EDF07BFF7A2A79099000
:100F62000114E0FF900195E4F0A3EFF0A3ECF0A3ED
:070F7200EDF0123925C20564
:010F79002255
:103C60007BFF7A2A793B12392512193912332A122D
:0F3C700033AF123B161208F2900106E070EB2200
:1035A500123733123B6A7BFF7A2A7950123925127A
:1035B5002D15D2B4D2B5123CFE123BB8123A519039
:1035C500016FE0FF1238E77BFF7A2A796090016F7F
:1035D500E0FF900195E4F0A3EFF012392590013555
:1035E500E06401700590010604F0900106E06401B5
:1035F50078117008E654F04402F68006E654F0446B
:1036050001F6900106E064017003123C601236E396
:0236150080F043
:1036E3007BFF7A2A79721239257811E654F0440166
:1036F300F6900115E054FEF07F161238A6900115DE
:10370300E054EFF07F091238A61233AF12332A12B6
:103713003B16900106E0640170EFE4F542F543784F
:1037230011E654F04402F67BFF7A2A799002392598
:0D2BAF0001108A4101D600C187C108C1860E
:103781001B5B306D001B5B303B33316D001B5B30CD
:103791003B33326D001B5B303B33336D001B5B30C1
:1037A1003B33346D001B5B303B33356D001B5B30AD
:1037B1003B33366D001B5B303B33376D00303132AC
:0E37C1003334353637383941424344454600EB
:102BBC00580231FF3781FF3786FF378EFF3796FF7C
:0B2BCC00379EFF37A6FF37AEFF37B67D
:080F7A00E0FBA3E0FAA3E0F99B
:0B0F82009001C0EBF0A3EAF0A3E9F03F
:100F8D009001CE120820000000019001C0E0FBA3EB
:100F9D00E475F0011205F6A9F0FA1204B99001C634
:100FAD00F070030214CF24DB701B9001C0E0FBA393
:100FBD00E0FAA3E0F91204B9B425139001C1E47568
:100FCD00F0011205E02002FD9001C60214A5C20930
:100FDD00C20AE49001CDF09001C0E0FBA3E475F0EE
:100FED00011205F6A9F0FA1204B99001C6F0E0FD60
:100FFD00B4301BD2099001C0E0FBA3E475F00112DF
:10100D0005F6A9F0FA1204B99001C6F0801FEDFFA4
:10101D003395E0FEC3EF9430EE64809480402CD382
:10102D00EF9439EE6480948050219001C6E024D075
:10103D009001CDF09001C0E0FBA3E475F001120525
:10104D00F6A9F0FA1204B99001C6F09001CC740221
:10105D00F09001C6E024BE602B24E0602724F660EA
:10106D00042420703C9001C0E0FBA3E475F0011254
:10107D0005F6A9F0FA1204B99001C6F09001CC74EE
:10108D0004F0801D9001C0E0FBA3E475F001120592
:10109D00F6A9F0FA1204B99001C6F09001CC7401D2
:1010AD00F09001C6E0FF24A8700302135E24F570D2
:1010BD000302147A24F0700302142D24FE600E2412
:1010CD00FD700302135E241460030214AD9001CC75
:1010DD00E024FE604224FE607B2403600302117E47
:1010ED00EF9001C3B46419E0FBA3E475F0011205A0
:1010FD00F6A9F0FA1204B9FF3395E0FEFDFC806B02
:10110D00E0FBA3E475F0011205F6A9F0FA1204B99B
:10111D00FFE4FCFDFE80549001C6E09001C3B46471
:10112D001BE0FBA3E475F0021205F6A9F0FA120616
:10113D000CFFAEF0EE3395E0FDFC8016E0FBA3E472
:10114D0075F0021205F6A9F0FA12060CFFAEF0E4E6
:10115D00FCFD80179001C6E09001C3E0FBA3E47590
:10116D00F0041205F6A9F0FA1207F49001C812085E
:10117D00149001C8E0FCA3E0FDA3E0FEA3E0FFECAA
:10118D003350252002FD75992DD2029001C8E0FC47
:10119D00A3E0FDA3E0FEA3E0FF74FFFBFAF9F81254
:1011AD00068E9001C81208149001CDE06003021262
:1011BD00449001C8E0FCA3E0FDA3E0FEA3E0FFEC3A
:1011CD004D4E4F700B2002FD759930D202020F97D4
:1011DD00E49001CDF0A3120820000000019001CD94
:1011ED00E0C3940A74809480504D9001C8E0FCA334
:1011FD00E0FDA3E0FEA3E0FF9001CEE0F8A3E0F94F
:10120D00A3E0FAA3E0FB120719E4FBFAF9F8C31205
:10121D0007CF60239001CEE0FCA3E0FDA3E0FEA389
:10122D00E0FFE47B0AF812068E9001CE12081490AE
:10123D0001CDE004F080A6E49001C7F09001CE123C
:10124D000820000000019001CDE024FFFFE434FFF1
:10125D00FE9001C7E0FD3395E0FCC3ED9FEE648089
:10126D00F8EC64809850259001CEE0FCA3E0FDA33E
:10127D00E0FEA3E0FFE47B0AFAF9F812068E900176
:10128D00CE1208149001C7E004F080BA9001C8E0B6
:10129D00FCA3E0FDA3E0FEA3E0FF9001CEE0F8A3E8
:1012AD00E0F9A3E0FAA3E0FB120719EF2430FF9059
:1012BD0001C6F0BF3025200922E47F01FEFDFC9020
:1012CD0001CEE0F8A3E0F9A3E0FAA3E0FBC3120717
:1012DD00CF60089001C67420F08002D2092002FD73
:1012ED009001C6E0F599D2029001C8E0FCA3E0FDA3
:1012FD00A3E0FEA3E0FF9001CEE0F8A3E0F9A3E0A8
:10130D00FAA3E0FB120719AC00AD01AE02AF0390DA
:10131D0001C81208149001CEE0FCA3E0FDA3E0FE8D
:10132D00A3E0FFE47B0AFAF9F81207199001CE1237
:10133D000814E4FFFEFDFC9001CEE0F8A3E0F9A354
:10134D00E0FAA3E0FBC31207CF6003021299020F6C
:10135D00979001CCE024FE602224FE6039240370B6
:10136D004E9001C3E0FBA3E475F0011205F6A9F060
:10137D00FA1204B9FFE4FCFDFE802E9001C3E0FBE0
:10138D00A3E475F0021205F6A9F0FA12060CFFAEF1
:10139D00F0E4FCFD80139001C3E0FBA3E475F004C1
:1013AD001205F6A9F0FA1207F49001C8120814906C
:1013BD0001CDE070089001CCE025E0A3F0E49001B0
:1013CD00C7F09001CDE0FF9001C7E0FD3395E0FC43
:1013DD00C3ED9F7480F86C984003020F972002FDB7
:1013ED009001C7E0FF9001CDE0C39F1425E025E0FB
:1013FD00F99001C8E0FCA3E0FDA3E0FEA3E0FFA887
:10140D00011207E07E00EF540F24BEF582EE343753
:10141D00F583E493F599D2029001C7E004F080A220
:10142D009001C3E0FBA3E475F0031205F6A9F0FAF1
:10143D001208519001D2EBF0A3EAF0A3E9F090016C
:10144D00D2E0FBA3E0FAA3E0F91204B97003020F96
:10145D00972002FD9001D2E0FBA3E475F001120587
:10146D00F6A9F0FA1204B9F599D20280D19001C310
:10147D00E0FBA3E475F0021205F6A9F0FA12060CD2
:10148D00FFAEF0EE3395E0FDFC9001C8120814207C
:10149D0002FD9001C8A3A3A3E0F599D202020F9714
:1014AD009001C3E0FBA3E475F0021205F6A9F0FA72
:1014BD0012060CFFAEF0E4FCFD9001C812081402F8
:0214CD000F9777
:0114CF0022FA
:0B392500900192EBF0A3EAF0A3E9F0A0
:103930009001BD7401F0A37401F0A37495F090019F
:10394000BDE0F9A3E0FAA3E09001C3C9F0A3EAF057
:10395000A3E9F0900192120F7A9001BDE4F0A3F078
:02396000A3F0D2
:013962002242
:0B396300900170EBF0A3EAF0A3E9F084
:10396E0090019B7401F0A37401F0A37473F09001A5
:10397E009BE0F9A3E0FAA3E09001C3C9F0A3EAF03B
:10398E00A3E9F0900170120F7A90019BE4F0A3F07E
:02399E00A3F094
:0139A0002204
:0E386000900174EFF0A3EBF0A3EAF0A3E9F0FF
:10386E009001A07401F0A37401F0A37478F090019C
:10387E00A0E0F9A3E0FAA3E09001C3C9F0A3EAF037
:10388E00A3E9F0900175120F7A9001A0E4F0A3F075
:07389E00A3F090017404F097
:0138A5002200
:103CD0000A0D537973506F776572496E6974696123
:083CE0006C2E2E4F4B21210038
:042BD70002110000E7
:103B6A00D283C2A1D284D282C2A1C2B7C286C2EA19
:103B7A00C2A6C2A2D2E8D2E97FC87E00123D147B57
:083B8A00FF7A3C79D002396397
:1033AF007811E6FF540F14602D24FA605024057035
:1033BF0063EFC4540F601024F960082406700DE405
:1033CF00FF80067F0380027F01123B407811E65495
:1033DF000F4420F6803E7811E6C4540F600C24FE93
:1033EF00600C24FB700D7F0480067F0280027F0635
:1033FF00123B407811E6540F4410F680177811E60F
:10340F00C4540F24FE70057F05123B407811E6541B
:10341F000F4470F67811E6FF54F0C4540FFEEF54CA
:04342F00F04EF62243
:10248200900174EFF07F1B1238A67F1C1238A67FD2
:102492001D1238A67F1E1238A67F1F1238A67F2073
:1024A2001238A6900174E024F770030225DF24FCA1
:1024B200700302259A14700302255324FD7003024F
:1024C2002629147003022633240360030226497D61
:1024D200DA7F1412361790010FE0440FF0900115C5
:1024E200E013400B900106E064017003022572784C
:1024F20011E6C4540F6407703090010DE0C4131349
:102502005403135002801E900106E070057D1802EC
:10251200261C90010DE0541FFF64036005EF64095F
:10252200700302262B7D1C80687811E6C4540F6468
:1025320002701990010DE0541FFF64036005EF64FF
:102542000970047D1F804A7D190225D97D18022554
:10255200D97DDA7F1412361790010FE054F0440E41
:10256200F0900115E013400D900106E06401700542
:102572007D1B02261C7811E6C4540F640770149068
:10258200010DE0C4131354031350047D2080027D17
:102592001B80447D170226427D287F141236179035
:1025A200010FE054F0440DF0900115E013400C903F
:1025B2000106E0640170047D1B805F7811E6C4545B
:1025C2000F6407701490010DE0C4131354031350E9
:1025D200047D1E80027D1B80677D1A80447DDA7F28
:1025E2001412361790010FE054F04409F0900115CF
:1025F200E013400C900106E0640170047D1B801A18
:102602007811E6C4540F640270047D19800C7811AD
:10261200E6C4540F640770077D1C7F64FE80257D2D
:10262200187F647E00801DD2827D1E7F647E0080C2
:1026320013C282900115E01350047D1980027D1EA1
:082642007F647E00122E30229D
:10367F00EF24FE602F240224FC500A602714603EC2
:10368F001460218047C283D2A1C284C282D2B7D232
:10369F0086D2EAD2A6D2A2D2B67F407E00123D14C5
:1036AF00D2A08028C2A0D283D284C2A1D282C2A1CA
:1036BF00C2B7C2EAC2A6C2A2C2B6C286800EC2A159
:1036CF00D284C2B7C2EAC2A6C2A2C28690010FE0DC
:0436DF0054F0F02291
:103B4000900170EFF024FE601824FE601C146011D8
:103B500014600E240624F85008600624F6600280E3
:0A3B600008900170E0FF12367F228A
:0B2BDB00C10C42020C000041022E0061
:103D1400EF4E6010C20C300CFDC20CEF1F70011E80
:053D2400144E70F222B4
:103D5200EF75F003A42411F582E43402F583E0FE4A
:043D6200A3E0FF22B9
:103D2900EF75F003A42410F582E43402F583E0C3AF
:053D390013547FFF227E
:103D6600EF75F003A42410F582E43402F583E054E1
:033D7600FEF0223A
:103D9D00EF75F003A42410F582E43402F583E013EB
:013DAD0022F3
:1037CF0090020CE0FFA3E090017ECFF0A3EFF0900A
:1037DF00017EE0FEA3E0FFC390020DE09FFF900289
:1037EF000CE09EFE123DBDD3EF947FEE648094807B
:1037FF00400F90020CE0FFA3E090017ECFF0A3EF0B
:09380F00F090017EE0FEA3E0FF51
:01381800228D
:082BE700900179EEF0A3EFF07C
:102BEF00E4A3F0A3F0A3F01237CF90017CEEF0A393
:102BFF00EFF0900179E0FEA3E0FFE4FCFD7B487A63
:102C0F00EEF9F8C31207B9500A90017974EEF0A3E8
:102C1F007448F0900179E0FEA3E0FF90017DE02F72
:102C2F00FF90017CE03EFEE4FCFD7B487AEEF9F874
:102C3F00C31207B9401F900179E0FEA3E0FF900196
:102C4F007CE0FCA3E0FD2FFFEC3EFED3ED9FEC9E5E
:102C5F005003022D0CE490020CF0A3F090017BF0D6
:102C6F0090017BE0FFC3940A748094804003022D8F
:102C7F0005EF75F003A42410F582E43402F583E028
:102C8F0054016401706790017BE0FF75F003A42489
:102C9F0011F582E43402F583E0FCA3E0FD90017CA2
:102CAF00E0FAA3E0FBD3ED9BEC9A402CEF75F00319
:102CBF00A42411F582E43402F583C083C082C3A338
:102CCF00E09BFF0582D5820215831582E09AD082A0
:102CDF00D083F0A3EFF0801590017BE075F003A493
:102CEF002411F582E43402F583E4F0A3F090017B24
:102CFF00E004F0022C6FE490017CF0A3F090017CD3
:052D0F00E0FEA3E0FF5F
:012D1400229C
:103BDD00E4FFEFC3940A748094805015EF75F003E1
:103BED00A42410F582E43402F583E054FEF00F8036
:013BFD00E1E6
:013BFE0022A4
:092E27001238A67D157F647E00BF
:0B2E3000900175EEF0A3EFF0A3EDF0B1
:102E3B00E4A3F0F0900178E0FFC3940A74809480CF
:102E4B00502EEF75F003A42410F582E43402F583C1
:102E5B00E0FF540164017010EFC313547FFF900126
:102E6B0077E06F7003022F0E900178E004F080C4BE
:102E7B00E4900178F0900178E0FFC3940A74809499
:102E8B00804003022F0EEF75F003A42410F582E4AB
:102E9B003402F583E0FF54017060900178E0FE7519
:102EAB00F003A42410F582E43402F583EF4401F01F
:102EBB00900177E0547F25E0FFEE75F003A424101A
:102ECB00F582E43402F583E054014FF0900175E094
:102EDB00FEA3E0FF122BE7900176E02FFF90017528
:102EEB00E03EFE900178E075F003A42411F582E436
:102EFB003402F583EEF0A3EFF022900178E004F0BA
:032F0B00022E8013
:012F0E0022A0
:1038A600E4FEEEC3940A748094805034EE75F003FF
:1038B600A42410F582E43402F583E0FD540164018A
:1038C600701BEDC313547FB50713EE75F003A424E4
:1038D60010F582E43402F583E054FEF0220E80C235
:0138E60022BF
:0B2F0F00900171EEF0A3EFF0A3EDF0D5
:102F1A00E4A3F0F0900174E0FFC3940A74809480F3
:102F2A00502DEF75F003A42410F582E43402F583E2
:102F3A00E0FF54016401700FEFC313547FFF900147
:102F4A0073E0B507028064900174E004F080C5E480
:102F5A00900174F0900174E0FFC3940A7480948025
:102F6A004003022FECEF75F003A42410F582E43439
:102F7A0002F583E0FF54017060900174E0FE75F081
:102F8A0003A42410F582E43402F583EF4401F0909F
:102F9A000173E0547F25E0FFEE75F003A42410F5D9
:102FAA0082E43402F583E054014FF0900171E0FEAF
:102FBA00A3E0FF122BE7900172E02FFF900171E06E
:102FCA003EFE900174E075F003A42411F582E43406
:102FDA0002F583EEF0A3EFF022900174E004F00210
:022FEA002F5E58
:012FEC0022C2
:102FED00EF14B40C0040030230C190300575F003AE
:102FFD00A4C58325F0C58373023029023029023020
:10300D003D02304102305202306B0230810230C13C
:10301D000230A70230BC0230C10230BF90016FE018
:10302D00FF1238E790016FE0FD7F117E0002381925
:10303D007F80800E90010DE0C41313540313507460
:10304D007F8302264A900115E0FF1313543F13406E
:10305D00637811E654F04407F6EF4404F022E4904F
:10306D000257F0A3F0900114F090011DF0A3F09021
:10307D000123F022900115E0FF131313541F135079
:10308D0014EF54F7F054FEF07F111224827D077F68
:10309D00E87E0380177F12022482900115E0441010
:1030AD00F07F8212264A7D097F987E3A022E3002E9
:0530BD003BFFD2B72229
:10332A00E4900170F0A3F0A3F0A3F0900170F09084
:10333A000170E0C3940A7480948050681237CF9069
:10334A000172EEF0A3EFF0900170E0FF123D9D5084
:10335A004B900170E0FF123D52D3900173E09F90B1
:10336A000172E09E4036900170E0FF123D669001C6
:10337A0070E0FF123D29900171EFF0C3940E748042
:10338A0094805007E0FF122FED8011900171E0FF49
:10339A00C394267480948050031214D0900170E074
:0433AA0004F0808B20
:0133AE0022FC
:1014D000EF24F1B4170040030219389014E975F0B5
:1014E00003A4C58325F0C583730215930215F40286
:1014F00019380216EE0216B30217AF021867021768
:101500009502153A02152E02153202153602153FC4
:1015100002154D02155B0215690215770215850249
:1015200018C20218D00218DE0218EC0218FB7F184D
:10153000800A7F1980067F1A80027F1702352C7F70
:101540001B12352C7D1B7FFA7E000219357F1B1282
:10155000352C7D1C7FE87E030219357F1D12352C4A
:101560007D1D7FE87E030219357F1E12352C7D1EFE
:101570007FE87E030219357F1F12352C7D1F7FE81F
:101580007E030219357F2012352C7D207FE87E03F3
:10159000021935123CE8EF6401701F90010DE0C4A0
:1015A000131354031340387F15123D9D5003122E20
:1015B000277F14123D9D5027801D90010DE0C4131C
:1015C0001354031350197F15123D9D5003122E27FB
:1015D0007F14123D9D50081238A67D14122E2C90B7
:1015E0000115E01350057F8112264A7D0F7FE87EAA
:1015F00003021935123DDB900110EEF0A3EFF0C3AA
:1016000094C8EE9400500F90010DE04420F054E097
:101610004409F00216AA90010DE054DFF090011089
:10162000E0FCA3E0FDD394C3EC9402500B90010DB9
:10163000E054E04404F08072D3ED94C3EC94024093
:101640001AD3900111E09418900110E09403500B0C
:1016500090010DE054E04403F0804F900110E0FE53
:10166000A3E0FFD39418EE94034014D3EF943FEE1D
:101670009403500B90010DE054E04402F0802B9055
:101680000110E0FEA3E0FFD3943FEE94034014D397
:10169000EF946CEE9403500B90010DE054E0440184
:1016A000F0800790010DE054E0F07D107F887E13FC
:1016B000021935900115E0FF1313543F13501178B0
:1016C00011E654F04402F6EF54FBF07F8402264A00
:1016D000900106E0640170087D097F64FE021935FF
:1016E0009001067401F0FD7F107E00023819123D52
:1016F000D490022FEEF0A3EFF090010FE0540F64AE
:101700000F700A90010EE04407F002178C90022F30
:10171000E0FCA3E0FDC39432EC9400500990010E6C
:10172000E054F8F08066D3ED9432EC9400401690CB
:101730000230E094C890022FE09400500890010E0F
:10174000E04440804390022FE0FEA3E0FFD39420CA
:10175000EE94034014EF9484EE9403500C90010E29
:10176000E04420F054BFF08023D3900230E094E8AE
:1017700090022FE0940390010EE0400754F84406D5
:10178000F080094407F054BFF054DFF07D127F1061
:101790007E27021935900115E0FFC3131350030291
:1017A0001938EF4408F07D077FE87E0302193512EF
:1017B0003CE8EF6401600302184290010DE0FFC4B1
:1017C0001313540313400FEF4440F0C2EAC2A67D46
:1017D000DA7F1412361790010DE0C413540713502A
:1017E000047D2480527811E6C4540F640270129074
:1017F000010EE05407640660047D2180027D238091
:10180000367811E6C4540F6407701290010EE0544C
:1018100007640660047D2180027D23801A7811E62A
:10182000C4540F6401701390010EE0540764066005
:10183000047D2280027D23122E2C7D147F887E134E
:10184000802090010DE054BFF0C2EA4480F07F8216
:1018500012264A7D237FF47E01122E307D157FF4FF
:101860007E01122E308056123CE8EF6401701F900A
:101870000135E0640170087D137F64FE122E309004
:10188000010FE054F0F07D147F647E00802C20A6D0
:1018900004C2A6C2EA90010DE0541F6404701090C7
:1018A0000106E0640170087D097F64FE122E307D20
:1018B00023122E2C7D157F887E13122E30C2EAC291
:1018C000A62290010FE0540F640E606C7F0E8028FA
:1018D00090010FE0540F640D605E7F0D801A90013F
:1018E0000FE0540F640F60507F0F800C90010FE0E9
:1018F000540F640960427F09022482900249E02467
:101900000AF0E0643C7007F0900250E004F09002AE
:1019100050E0643C7007F0900255E004F0900255EE
:10192000E064187007F0900254E004F012224D7D3C
:09193000257F107E27122E3022C3
:100066000203AEE86480F8E933E83360110460F017
:10007600ED33EC337009E8FCE9FDEAFEEBFF220400
:1000860060DED3EB9FEA9EE99DE8C2E78CF0C2F7FB
:1000960095F0400CE8CCF8E9CDF9EACEFAEBCFFBC7
:1000A60012037985D0F05804700320D5B3E80470A4
:1000B600075002B2D50203B892D5EC0460F7E4CC3F
:1000C600C0E0C398F8603B94186008400DD0E0FB90
:1000D600020390E4FBFAC9FC8028E830E406E4C990
:1000E600FBE4CAFCE830E305E4C9CACBFCE85407E4
:1000F6006010F8C3E913F9EA13FAEB13FBEC13FCEF
:10010600D8F130F52FC3E49CFCEF9BFFEE9AFEED91
:1001160099FDD0E0FBEF4E4D4C701222DB0302033B
:10012600B5EC2CFCEF33FFEE33FEED33FDED30E79F
:10013600EB020390EF2BFFEE3AFEED39FDD0E0FB2C
:1001460050130BBB00030203B8ED13FDEE13FEEFD5
:0801560013FFEC13FC020390FF
:10015E00EC4D6011E8497017ED33EC3304600DE49B
:10016E00FCFFFEFD22E933E8330470F80203AE1201
:10017E00037958046009E4CC248150062850090202
:10018E0003B82840030203B5C0E0EB4A7044B980BF
:10019E0006D0E0FB0203A4EF4E701CBD8008EBFFFF
:1001AE00EAFEE9FD80EBE98DF0A4FEE5F0020247E0
:1001BE00E9CDF9EAFEEBFFEF89F0A4FCE5F0CE897C
:1001CE00F0A42EFFE435F0CD89F0A42DFEE435F039
:1001DE008067EF4E7005BD80D780C3EF8BF0A4AC67
:1001EE00F0EE8BF0A42CFCE435F0F8EF8AF0A42CA2
:1001FE00E5F038FCE433CB8DF0A42CFCE5F03BF8B5
:10020E00EE8AF0A42CFCE5F038F8E433CF89F0A4A4
:10021E002CFCE5F038CF3400CE89F0A42FFFE5F0AA
:10022E003EFEE433C98DF0A42EFEE5F039CD8AF002
:10023E00A42FFFE5F03EFEE43DFD33D0E0FB50077A
:10024E000BBB000F0203B8EC2CFCEF33FFEE33FEBA
:06025E00ED33FD020390E8
:100264000203B8EC5D046005E8590470030203AEB0
:10027400120379580460F6EC4860F2EC7004FDFE59
:10028400FF22C860DB2481C85009C398600250066D
:100294000203B59850CAF582E9294B4A7005AB822E
:1002A4000203A475F0007C1A7880C3EF9BEE9AEDEC
:1002B40099400DC3EF9BFFEE9AFEED99FDE842F0E5
:1002C400DC23ACF0D0E0FFD0E0FED0E0FDAB822038
:1002D400E7101BEB60BAEC2CFCEF33FFEE33FEEDC2
:1002E40033FD020390E803F830E705C0F075F00031
:1002F400EF2FFFEE33FEED33FD40B830E7C280AAA6
:1003040075F020800E75F010800575F0087D007E74
:10031400007F003392D530D5031207ABEC33401085
:10032400EF33FFEE33FEED33FDEC33FCD5F0ED227D
:0E033400E5F0247EA2D513CC92E7CDCEFF22B9
:10034200EDD2E7CD33EC3392D524814006E4FFFEB3
:10035200FDFC22FCE4CFCECDCC24E0501174FF8012
:10036200EDC3CC13CCCD13CDCE13CECF13CF0470AF
:07037200F030D5DE0207ABFD
:10037900E9D2E7C933E833F892D5EDD2E7CD33ECCA
:0703890033FC5002B2D52243
:10039000EC30E7100FBF000C0EBE00080DBD0004CE
:1003A0000BEB6014A2D5EB13FCED92E7FD2274FF7A
:1003B000FCFDFEFF22E480F8A2D574FF13FC7D80D3
:0303C000E480EFE7
:1032AA000235A5E493A3F8E493A34003F68001F260
:1032BA0008DFF48029E493A3F85407240CC8C33325
:1032CA00C4540F4420C8834004F456800146F6DFF4
:1032DA00E4800B0102040810204080902AB3E47EA7
:1032EA00019360BCA3FF543F30E509541FFEE493E9
:1032FA00A360010ECF54C025E060A840B8E493A3B0
:10330A00FAE493A3F8E493A3C8C582C8CAC583CADA
:10331A00F0A3C8C582C8CAC583CADFE9DEE780BE92
:012BE60000EE
:1003C300E709F608DFFA8046E709F208DFFA803E1C
:1003D30088828C83E709F0A3DFFA8032E309F60809
:1003E300DFFA8078E309F208DFFA807088828C8371
:1003F300E309F0A3DFFA806489828A83E0A3F60825
:10040300DFFA805889828A83E0A3F208DFFA804CFE
:1004130080D280FA80C680D4806980F280338010D5
:1004230080A680EA809A80A880DA80E280CA80333E
:1004330089828A83ECFAE493A3C8C582C8CCC583B6
:10044300CCF0A3C8C582C8CCC583CCDFE9DEE78086
:100453000D89828A83E493A3F608DFF9ECFAA9F005
:10046300EDFB2289828A83ECFAE0A3C8C582C8CC5B
:10047300C583CCF0A3C8C582C8CCC583CCDFEADE74
:10048300E880DB89828A83E493A3F208DFF980CCD6
:1004930088F0EF60010E4E60C388F0ED2402B404CF
:1004A3000050B9F582EB2402B4040050AF23234576
:0604B30082239004137384
:1004B900BB010689828A83E0225002E722BBFE0241
:0904C900E32289828A83E4932274
:1004D200BB010CE58229F582E5833AF583E02250DF
:1004E20006E92582F8E622BBFE06E92582F8E22229
:0D04F200E58229F582E5833AF583E4932243
:1004FF00BB010989828A83F8E028F022500327F78D
:10050F0022BBFE05F8E328F3228A838982F8E4935D
:02051F00282290
:10052100F8BB010DE58229F582E5833AF583E8F010
:10053100225006E92582C8F622BBFE05E92582C8BC
:02054100F222A4
:10054300EF8DF0A4A8F0CF8CF0A428CE8DF0A42ECC
:02055300FE2286
:10055500BC000BBE0029EF8DF084FFADF022E4CC8A
:10056500F875F008EF2FFFEE33FEEC33FCEE9DEC53
:10057500984005FCEE9DFE0FD5F0E9E4CEFD22ED99
:10058500F8F5F0EE8420D21CFEADF075F008EF2FE3
:10059500FFED33FD4007985006D5F0F222C398FDD4
:0505A5000FD5F0EA2271
:1005AA00C2D5EC30E709B2D5E4C39DFDE49CFCEE6C
:1005BA0030E715B2D5E4C39FFFE49EFE120555C38A
:1005CA00E49DFDE49CFC800312055530D507C3E485
:0605DA009FFFE49EFE22DB
:1005E000C5F0F8A3E028F0C5F0F8E58215827002A6
:0605F0001583E038F02243
:1005F600A3F8E0C5F025F0F0E582158270021583B8
:06060600E0C838F0E82214
:10060C00BB010A89828A83E0F5F0A3E022500687B9
:10061C00F009E71922BBFE07E3F5F009E31922897B
:0B062C00828A83E493F5F074019322AE
:10063700BB0110E58229F582E5833AF583E0F5F001
:10064700A3E0225009E92582F886F008E622BBFEDE
:100657000AE92582F8E2F5F008E222E5832AF58324
:08066700E993F5F0A3E99322E9
:10066F00BB010A89828A83F0E5F0A3F0225006F7D6
:0F067F0009A7F01922BBFE06F3E5F009F31922D3
:10068E00E88FF0A4CC8BF0A42CFCE98EF0A42CFC0B
:10069E008AF0EDA42CFCEA8EF0A4CDA8F08BF0A489
:1006AE002DCC3825F0FDE98FF0A42CCD35F0FCEBE8
:1006BE008EF0A4FEA9F0EB8FF0A4CFC5F02ECD39AD
:0F06CE00FEE43CFCEAA42DCE35F0FDE43CFC221A
:1006DD0075F008758200EF2FFFEE33FECD33CDCCD4
:1006ED0033CCC58233C5829BED9AEC99E582984057
:1006FD000CF582EE9BFEED9AFDEC99FC0FD5F0D634
:10070D00E4CEFBE4CDFAE4CCF9A88222B800C1B95D
:10071D000059BA002DEC8BF084CFCECDFCE5F0CB9B
:10072D00F97818EF2FFFEE33FEED33FDEC33FCEBD4
:10073D0033FB10D703994004EB99FB0FD8E5E4F98F
:10074D00FA227818EF2FFFEE33FEED33FDEC33FC7C
:10075D00C933C910D7059BE99A4007EC9BFCE99A70
:10076D00F90FD8E0E4C9FAE4CCFB2275F010EF2FB5
:10077D00FFEE33FEED33FDCC33CCC833C810D707B5
:10078D009BEC9AE899400AED9BFDEC9AFCE899F8F0
:0E079D000FD5F0DAE4CDFBE4CCFAE4C8F92283
:0E07AB00C3E49FFFE49EFEE49DFDE49CFC225F
:1007B900EB9FF5F0EA9E42F0E99D42F0EC6480C8B7
:0607C90064809845F02257
:1007CF00EB9FF5F0EA9E42F0E99D42F0E89C45F080
:0107DF0022F7
:1007E000E86010ECA2E713FCED13FDEE13FEEF132F
:0407F000FFD8F0221C
:1007F400BB010789828A830208A35005E9F802082D
:1008040097BBFE05E9F80208AF89828A830208BB18
:0C081400ECF0A3EDF0A3EEF0A3EFF02257
:10082000A8828583F0D083D082120837120837124D
:100830000837120837E473E493A3C583C5F0C58372
:10084000C8C582C8F0A3C583C5F0C583C8C582C822
:010850002285
:10085100BB010789828A830208D45005E9F802089E
:10086100CBBBFE05E9F80208DD89828A830208E62E
:10087100D083D082F8E4937012740193700DA3A316
:1008810093F8740193F5828883E47374029368602A
:06089100EFA3A3A380DF2A
:0C3DBD00EE30E707C3E49FFFE49EFE2207
:0C089700E6FC08E6FD08E6FE08E6FF228D
:0C08A300E0FCA3E0FDA3E0FEA3E0FF22C8
:0C08AF00E2FC08E2FD08E2FE08E2FF2285
:1008BB00E493FC740193FD740293FE740393FF2283
:0908CB00E6FB08E6FA08E6F92252
:0908D400E0FBA3E0FAA3E0F92225
:0908DD00E2FB08E2FA08E2F9224C
:0C08E600E493FB740193FA740293F9226E
:00000001FF
