:0300000002315F6B
:0C315F00787FE4F6D8FD7581790231A676
:101BCA000D0A507265762E46573A253032782530FE
:101BDA00327825303278000D0A437572722E4657D4
:101BEA003A253032782530327825303278000D0A9D
:101BFA0043616E6E6F74206163636573732045453C
:101C0A0050524F4D21212121000D0A4E6F20696E3D
:101C1A00697469616C697A65000D0A285345545FD5
:101C2A0050574D3D253032782076616C3D25303253
:101C3A007829000D0A53797374656D2068617320E1
:101C4A006265656E20776F726B696E6720666F7268
:101C5A0020256420646179732C20256420686F75BF
:101C6A0072732C202564206D696E7574657320610A
:101C7A006E64202564207365636F6E6473000D0AB9
:101C8A0053797374656D20686173206265656E208F
:101C9A00776F726B696E6720666F722025642068A1
:101CAA006F7572732C202564206D696E7574657367
:101CBA0020616E64202564207365636F6E6473000F
:101CCA000D0A53797374656D2068617320626565C6
:101CDA006E20776F726B696E6720666F722025645B
:101CEA00206D696E7574657320616E6420256420A9
:101CFA007365636F6E6473000D0A53797374656D4F
:101D0A0020686173206265656E20776F726B696EF9
:101D1A006720666F72202564207365636F6E647333
:101D2A00000D0A28426174746572794254483D254F
:101D3A00642825642E2564562929002854454D50C7
:101D4A005F4E4F524D414C29002854454D505F4833
:101D5A0049474829002854454D505F4C4F572900A0
:101D6A000D0A28426174746572794341503D2564B5
:101D7A002825642E25645629290028484947485FA2
:101D8A004348415247452900284C4F575F43484131
:101D9A0052474529002853544F505F434841524700
:101DAA00452900284E4F5F42415454290028424198
:101DBA0054545F5354415455535F41435F4D4F440C
:101DCA00452900285F424154545F535441545553A6
:101DDA005F43415041434954595F4C4556454C3144
:101DEA002900285F424154545F5354415455535F6C
:101DFA0043415041434954595F4C4556454C322959
:101E0A0000285F424154545F5354415455535F4331
:101E1A00415041434954595F4C4556454C3329007A
:101E2A00285F424154545F5354415455535F4341D0
:101E3A005041434954595F4C4556454C3429002872
:101E4A005F424154545F5354415455535F4E4F5F60
:101E5A004241545429000D0A28504F5745525F53A6
:0A1E6A0054415455533D25642900EE
:1025F900410245004102460041023A0041023C00C5
:1026090041023D00410238004102310041024800C7
:1026190002400000014600C101C10002470000015B
:102629004400014500027400000469000000000430
:102639006D00000000C10441023201017200014233
:1026490000014300C102C10341023B0041023300C2
:1026590041023E004402410000000042023F0000E6
:10298D00122FA29001701208147F047E001239FEDE
:10299D007E00C007C0067F051239FE7E00C007C04D
:1029AD00067F061239FE900199E4F0A3EFF0900135
:1029BD0097D0E0F0A3D0E0F0900195D0E0F0A3D057
:1029CD00E0F07BFF7A1B79CA1237E5122FA2E47B68
:1029DD0005FAF9F8C31207CF605F7BFF7A1B79E127
:1029ED00E4900195F0A3F0A3F0A3F0A3F0A3740578
:1029FD00F01237E51238617F047E001239FE7E0039
:102A0D00C007C0067F051239FE7E00C007C0067FD5
:102A1D00061239FE900199E4F0A3EFF0900197D0E2
:102A2D00E0F0A3D0E0F0900195D0E0F0A3D0E0F07D
:102A3D007BFF7A1B79E11237E5122FA2E47B05FAB1
:102A4D00F9F8C31207CF701E7F05FEFDFC900170D3
:102A5D00E0F8A3E0F9A3E0FAA3E0FBC31207CF600F
:102A6D001E1239A980197BFF7A1B79F81237E57B85
:102A7D00FF7A1C79131237E590012874FFF0227F3D
:102A8D0064123B457814E6540F4410F654F044029A
:012A9D00F642
:012A9E002215
:10352200758DF4759850758922758855758A407520
:103532008C4075878075B80275A892D299D2ACE496
:10354200F5C8C2CAD2AD75AA5075BAF443A61843DB
:10355200AD10C203F5E9F5F9F5D943D840439320FC
:0E35620043910475B10CF5B275B30CF5B422AB
:103B75003085107F327E00123BA13085037F012204
:063B85007F00227F0022F8
:1034C300900175EFF0A3EDF07BFF7A1C7923900157
:1034D30095E4F0A3EFF0EDFFA3E4F0A3EFF01237D0
:1034E300E5900175E0603424EB601A24166028240B
:1034F300EB702B75EC80900176E0FFC374FF9FF5B2
:10350300FC75DC422275ED80900176E0FFC374FF09
:0F3513009FF5FD75DD422243D8402253D8402258
:03000B00021E745E
:0B1E7400C0E0C083C082C0D075D00861
:101E7F0005730545C3E545940A748094804013901B
:101E8F00020DE004F0700690020CE004F0754500BE
:101E9F00D20CD3E57394607480948050030220E9D0
:101EAF00054AE54A700205497573000544E5446427
:101EBF00647010F544E54690023B6005E004F08045
:101ECF0002E4F0E575F47003E574F460080575E558
:101EDF007570020574AF70AE6FAD6EAC6DEC4D4E9C
:101EEF004F6014EF24FFF570EE34FFF56FED34FF04
:101EFF00F56EEC34FFF56D900234E07002A3E060F4
:101F0F000E900235E024FFF0900234E034FFF0E54C
:101F1F00B0540C13135403FF900244E06F7003028C
:101F2F00208D900242E0900241F0900243E0900237
:101F3F0042F0900244E0900243F0A3EFF0D20590FC
:101F4F0002397430F0900241E0FF7E007020A3E070
:101F5F006401701AA3E064037014A3E06402700EAE
:101F6F00900240E004F0700690023FE004F0EF644E
:101F7F00014E7020900242E064037018A3E06402E7
:101F8F007012A3E0700E900240E004F07006900211
:101F9F003FE004F0900241E06403701EA3E064028E
:101FAF007018A3E07014A3E06401700E900240E07B
:101FBF0004F0700690023FE004F0900241E0FF7ED3
:101FCF00006402701EA3E0701AA3E064017014A3F2
:101FDF00E06403700E900240E004F0700690023F40
:101FEF00E004F0EF4E7022900242E06402701AA3F8
:101FFF00E064037014A3E06401700E900240E024CB
:10200F00FFF090023FE034FFF0900241E064027075
:10201F001EA3E064037018A3E064017012A3E070C4
:10202F000E900240E024FFF090023FE034FFF0906A
:10203F000241E0FF7E006403701EA3E0640170188C
:10204F00A3E07014A3E06402700E900240E024FF3E
:10205F00F090023FE034FFF0EF64014E70209002E9
:10206F0042E0701AA3E064027014A3E06403700EE0
:10207F00900240E024FFF090023FE034FFF0E5E8EB
:10208F00F4FF131313541F30E027E541B42018E574
:10209F0040B40313754601D200D20175400075415B
:1020AF00329002487401F00541E541702D054080E2
:1020BF0029C3E5419432E54094004013900248E073
:1020CF00700D754601C200D201F540F541800B90AD
:0A20DF000248E4F0F540F541F54633
:0920E900D0D0D082D083D0E032C7
:1020F20090023CE0FF60327BFF7A1C793D900178D0
:10210200E4F0A3EFF090023DE0FF90017AE4F0A347
:10211200EFF0900238E0FF90017CE4F0A3EFF09042
:102122000231E0FF90017E805790023DE0FF602582
:102132007BFF7A1C7988900178E4F0A3EFF090029B
:1021420038E0FF90017AE4F0A3EFF0900231E0FF73
:1021520090017C802B900238E0FF7BFF60167A1C96
:1021620079CA900178E4F0A3EFF0900231E0FF9099
:10217200017A800C7A1D7902900231E0FF90017899
:10218200E4F0A3EFF07F0312369790022FE0FEA354
:10219200E0FF900178EEF0A3EFF07805C333CE3381
:1021A200CED8F9FBAA067C277D10FF1205559001B7
:1021B2007AEEF0A3EFF07C277D10AF03AE0212059A
:1021C20055A3ECF0A3EDF07BFF7A1D792B7F021271
:1021D200369790010EE054076407700A7BFF7A1D60
:1021E20079457F02801A90010EE0540764067BFF56
:1021F20070087A1D79537F0180067A1D795F7F040A
:10220200123697900110E0FEA3E0FF900178EEF005
:10221200A3EFF07805C333CE33CED8F9FBAA067C00
:10222200277D10FF12055590017AEEF0A3EFF07CA6
:10223200277D10AF03AE02120555A3ECF0A3EDF01B
:102242007BFF7A1D796A7F0512369790010FE05461
:102252000F640D700A7BFF7A1D79847F02803A90A9
:10226200010FE0540F640E700A7BFF7A1D79927F92
:1022720003802690010FE0540F640F700A7BFF7AEF
:102282001D799F7F01801290010FE0540F64097045
:102292000B7BFF7A1D79AD7F0112369790010DE01D
:1022A200541F640470087BFF7A1D79B78044900143
:1022B2000DE0541F640370087BFF7A1D79CD8032D4
:1022C20090010DE0541F640270087BFF7A1D79ECC7
:1022D200802090010DE0541F640170087BFF7A1E7C
:1022E200790B800E90010DE0541F700A7BFF7A1E5D
:1022F200792A7F02801290010DE0541F6409700B4D
:102302007BFF7A1E79497F011236977BFF7A1E790D
:10231200607814E6C4540FFF900178E4F0A3EFF064
:052322007F0602369762
:103B8B00E4FFEFC3941D74809480500974222FF8C6
:053B9B00E4F60F80EDCF
:013BA0002202
:10345C00EF24E7B40800505E90347275F003A4C5F5
:10346C008325F0C5837302349602348A02349402A5
:10347C00348F0234980234A00234AA0234B7D2E951
:10348C00D2E822D2E8C2E9228005801530E817C2C2
:10349C00E8D2E92230E905C2E9D2E822800830E816
:1034AC0005C2E8C2E922D2E8D2E92230E904C2E935
:0734BC008002D2E9C2E82200
:03001300020026C2
:03002600C2AA3239
:0300230002397A25
:10397A00C0E0C0D075D008309819744B2571F8A6EC
:10398A00990571C3E571941E748094804003757122
:0F399A0000C298309904C299C202D0D0D0E03256
:0300630002389DC3
:10389D00C0E0C0D075D008E5AA54016401701A5378
:1038AD00AAFE74222542F8A69A0542C3E542941E4B
:1038BD00748094804003754200E5AA54026402703E
:0B38CD000553AAFDC203D0D0D0E032AA
:0B3C6500E542B543037F00227F0122EF
:103AEE0053ADEF74222543F8E6FF0543E543C39437
:0D3AFE001E748094804003E4F54343AD1036
:013B0B002297
:080003002003FD8F9AD20322B5
:03002B00023C3B59
:0F3C3B00C0E0C2CF0548E54870020547D0E0322F
:103B4500E5442FFFE433FE7C007D64120555E54412
:073B5500B505FBE4B504F720
:013B5C002246
:103C06000D0A436C656172426173696345452E2EE8
:023C16002E007E
:102FA20090017412082000000000E4FFFE1239FEB6
:102FB200EF6430600280287F017E001239FEEF64E8
:102FC200376002801A7F027E001239FEEF643060A1
:102FD20002800C7F037E001239FEEF64496006E432
:102FE200FFFEFDFC227F057E001239FEEF7F00FE10
:102FF200C007C0067F047E001239FE7E00EF781003
:10300200C333CE33CED8F9FDD0E04EFED0E04DFF33
:10301200C007C0067F067E001239FEEFFDD0E0FE3B
:10302200D0E04DFFEE3395E0FDFC900174120814E0
:0E303200900174E0FCA3E0FDA3E0FEA3E0FF2C
:01304000226D
:103861007D30E4FFFE1236507D377F017E00123637
:10387100507D307F027E001236507D497F037E00ED
:10388100123650E4FD7F04FE123650E4FD7F05FE42
:0C3891001236507D057F067E0002365086
:1039A9007BFF7A3C79061237E57D017F107E001294
:1039B90036507D1E7F117E00123650E4FD7F07FED2
:0B39C900123650E4FD7F12FE02365063
:042669004101050026
:0918CF00123C65EF7003021BC915
:1018D800123AEE900170EFF07E00647E700DC20B3C
:1018E80090010504F0E4900003F022EF647D4E704F
:1018F80003D20B22300B09C20B900170E04470F048
:10190800900105E0FB64046010900003E0FE900184
:1019180070E0FDEE6D900003F0EB24FE602E146085
:101928005B1470030219C824036003021BC99001E9
:1019380070E0900002F01424F8500A24F924FD50B5
:101948000424E370349001057402F022900170E0E1
:10195800900001F0A3E01424F8500A24F924FD5063
:101968000424E37014900001E070028049E49000C0
:1019780000F09001057403F022021BC4900002E0FD
:101988001424F8500A24F924FD500424E3702E90FE
:101998000170E0FF900000E02405F582E43400F5D2
:1019A80083EFF0900000E004F0A3E0FF900000E077
:1019B8006F6003021BC99001057404F022021BC466
:1019C800900170E0FF900003E06F6003021BC49079
:1019D8000002E01208711A06011A32021A42031AAA
:1019E80047041A4C051AC8061B09071BB0081B2513
:1019F800101B2D111B63121BA53000001BC4900186
:101A080015E04401F090010FE054F0F0900115E06A
:101A1800FF131313541F13500EEF54F7F07F1212D5
:101A28002A9F7F08123766021B0F900115E04402B7
:101A3800F07D187F107E27021B037D06021B277D81
:101A480007021B27900005E0FCE412030E90013604
:101A5800120814900006E0FCE412030E9001241210
:101A68000814900007E0FCE412030E90013A1208F3
:101A780014900008E0FCE412030E900129120814E7
:101A8800900009E0FCE412030E90013E1208149045
:101A9800000AE0FCE412030E90012D1208149000D5
:101AA8000BE0FCE412030E90014212081490000CA3
:101AB800E0FCE412030E9001311208147D0C805FE3
:101AC800900005E0601790016FE0600414F0800555
:101AD800E490016FF07D027FF47E01801E90016F1B
:101AE800E0C39428748094805005E004F080069048
:101AF800016F7428F07D037FF47E01122D63021BB1
:101B0800C4900005E070097D187F107E27021BAB8A
:101B1800900005E064016003021BC4803A7D047FE5
:101B2800E87E03807E900005E07014900115E05473
:101B3800FEF07F181237667D187F607EEA80649019
:101B48000005E064017075900115E04408F07D0817
:101B58007FE87E03122C847F18803D900005E0FB0F
:101B68007A0064017009900115E054EFF080279025
:101B78000106E06401701F900115E0F9C4540F13C9
:101B88005014EB4A7010E954EFF0E4900106F0FDB0
:101B98007F10FE1236507F0A123766801F7D0B7F3A
:101BA800E87E03122C848014900005E06401700420
:101BB8007D018002E4FD7F12FE123650E49001059B
:011BC800F02C
:011BC90022F9
:043BCB009291D29071
:0F3BCF00E4FFEFC394017480948050030F80F3E0
:013BDE0022C4
:0B365000900174EEF0A3EFF0A3EDF08A
:10365B00900174E0FEA3E07807CEC313CE13D8F924
:10366B0044A054FE900177F0123C18900177E0FFD4
:10367B0012336A900174A3E0FF12336A900176E073
:0C368B00FF12336A1200167F02023B455A
:0439FE00AD07AC065F
:103A0200ED7807CEC313CE13D8F944A054FEFF12AB
:103A120038D8900179EFF07F02123B45900179E0AE
:013A2200FFA4
:013A23002280
:0838D80090017AEFF0A3EDF07E
:1038E000123C1890017AE0FF12336A90017BE0FFEE
:1038F00012336A123C1890017AE04401FF12336AD5
:1039000012002E90017CEFF012001690017CE0FF77
:013910002294
:103C1800D291123BCFD290123BCFC291123BCFC26E
:023C28009022E8
:0D001600C291123BCFD290123BCFD291226B
:10336A00AE07C290EE30E703D38001C3123BCBC253
:10337A0090EE30E603D38001C3123BCBC290EE300D
:10338A00E503D38001C3123BCBC290EE30E403D3F2
:10339A008001C3123BCBC290EE30E303D38001C35A
:1033AA00123BCBC290EE30E203D38001C3123BCB77
:1033BA00C290EE30E103D38001C3123BCBC290EE40
:1033CA0030E003D38001C3123BCBC290C290C290BB
:0B33DA00D291D290D290D290C29022EB
:10002E00E4FED291123BCFC290E4FDFCD290EE25BD
:10003E00E0FE3091034401FEC2900DBD00010CEDB7
:10004E0064084C70E7123BCFD290D290D290C290FF
:02005E00AF06EB
:01006000227D
:10327000AE07C290EE30E703D38001C3123BCBC24E
:1032800090EE30E603D38001C3123BCBC290EE3008
:10329000E503D38001C3123BCBC290EE30E403D3ED
:1032A0008001C3123BCBC290EE30E303D38001C355
:1032B000123BCBC290EE30E203D38001C3123BCB72
:1032C000C290EE30E103D38001C3123BCBC290EE3B
:1032D00030E003D38001C3123BCBC290C290C290B6
:0E32E000D291123BCFD290D290D290C29022C7
:043AAE00AB07AA06B2
:103AB2007E5E123C187F5E123270AF03123270AF1C
:0C3AC200051232701200167F02023B4514
:1039D4007F01123B2AEF6021900248E064017010DD
:1039E400900106E0640170087D057FF47E01800685
:0A39F4007D137F647E00122C8422F4
:103B2A00A2019209C2012009037F0022EF6003AFBC
:0A3B3A004622200003AF46227F0060
:013B4400225E
:10249D000D0A456E636F72646572436F756E743DA0
:1024AD002564000D0A456E636F72646572436F7526
:1024BD006E7454656D703D256420000D0A456E6384
:1024CD006F726465724C656E5F4F66667365743DC1
:1024DD00256420000D0A456E636F72646572436F4B
:1024ED00756E74504E3D256420000D0A74656D7037
:1024FD005F456E636F72646572436F756E7454657C
:10250D006D703D256420000D0A456E636F72646524
:10251D00724C656E3D256420000D0A456E636F7229
:10252D00646572436F756E743D256420000D0A4518
:10253D006E636F726465724C656E696E743D256471
:10254D0020000D0A456E636F726465724C656E54A2
:10255D00656D703D25642E25646D20000D0A456E58
:10256D00636F726465724C656E666C6F6161743D0C
:10257D00256420000D0A5374617274204D61696EDB
:10258D00204C6F6F702E2E2E000D0A5374617274D5
:10259D0020426F6F742E2E2E000D0A2843616D653B
:1025AD007261566F6C743D256429000D0A285053D5
:1025BD005720676F696E6720746F20706F77657233
:1025CD00206F66662E2E2E29000D0A285374617217
:1025DD00742075702020506F776572204F6E204DDE
:0C25ED006F64652E2E2E290000000000F7
:10266D0045010D000000000041011500420112005E
:10267D000044013642C8000044013A42C8000044FB
:10268D00013E42C8000044014242C80000440124FA
:10269D00000000004401290000000044012D00004D
:1026AD000000440131000000004601070000002831
:1026BD000015460116000000280015602901460589
:1026CD0006080A0B0D0F10121416181A1C1E2022C4
:1026DD0025272A2C2F3235383B3E4245484B505545
:0826ED00585D61666B70757A9F
:1039470075E5028DE3900179E0F5E41204B9F5E23B
:1039570075E64675E6B9740129F9E43AFA900179F2
:10396700E004F0E070030D8DE390017AE014F0E0DD
:0339770070D322E8
:04000E0075E78122EF
:103A8D00E4900174F012000E7B017A0179749001BB
:103A9D007974FFF0A37401F07DEF12394775E7607B
:013AAD0022F6
:102EF500FF6DFD9001937401F0A37401F0A3748E2E
:0A2F0500F0EFA3F07B017A01797E62
:102F0F00900190EBF0A3EAF0A3E9F0900196E0FFB7
:102F1F00647E6005EF647D703F900193E0FBA3E05A
:102F2F00FAA3E0F91204B9FF900190E0FBA3E0FAD5
:102F3F00A3E0F98F82758300747D120521900193B0
:102F4F00E0FBA3E0FAA3E0F974011204FF900196ED
:102F5F00E0540F4450FF8010900196E0FF900193D2
:102F6F00E0FBA3E0FAA3E0F91204B9FE900190E0B0
:102F7F00FBA3E0FAA3E0F98E82758300EF1205211F
:102F8F00900193E0FBA3E0FAA3E0F974011204FFB0
:032F9F007F00228E
:0B30410090017AEBF0A3EAF0A3E9F0A5
:10304C0090017E747EF090018E7401F0EF122EF7D9
:10305C0090017DE0122EF5E490018FF090017DE05F
:10306C00FF90018FE0FEC39F501E90017AE0FBA3FE
:10307C00E0FAA3E0F98E827583001204D2122EF5C9
:10308C0090018FE004F080D49001937401F0A3744C
:10309C0001F0A3748EF0ED122F07E490018FF090E5
:1030AC00018EE0FFA3E0FEC39F5017747E2EF582C5
:1030BC00E43401F583E0FF12000390018FE004F08B
:0430CC0080DD7F0024
:0130D00022DD
:05286000900174EFF08F
:1028650078757C017D017BFF7A2579F57E007F04F3
:10287500120493900174E0247F60481470030229C8
:102885006B14700302297B2403600302298C7F04E7
:102895007E001239FE900175EFF07F057E0012393A
:1028A500FE900176EFF07F067E001239FE900177EB
:1028B500EFF07B017A01797590017D7403F07F80DB
:1028C50002298990010DE0FE541F900175F09001D9
:1028D50014E0900177F090011DA3E0900178F0EEEF
:1028E500C413135403135007900176E04401F0908C
:1028F500010EE05407FD7C0064067007900176E048
:102905004402F0ED64084C7007900176E04404F051
:1029150090010DE0C4135407135007900176E0446D
:1029250008F090010EE0C4540F135007900176E0B3
:102935004410F090010EE0FDC413540713500790A6
:102945000176E04420F0EDC41313540313500790AF
:102955000176E04440F07B017A01797590017D7440
:1029650004F07F81801E7B017A01797590017D7469
:1029750001F07F82800E7B017A01797590017D746B
:0729850001F07F83123041D5
:01298C002228
:103B0C00123A6B7D107F017E00122C847D127F880F
:0E3B1C007E13122C847D147F017E00022C8407
:10232700900176EEF0A3EFF0A3EBF0A3EAF0A3E9B8
:01233700F0B5
:10233800900004120637FDD3EF9DE5F06480F8EEB7
:1023480064809840030223DB90017EE0FBA3E0FA5F
:10235800A3E0F9900004120637FFAEF012060CFD58
:10236800C3EF9DFFEE95F0900181F0A3EFF090018F
:1023780078E0FBA3E0FAA3E0F9900004120637FD29
:10238800ACF012060CFBAAF0C3ED9BFFEC9AFE9092
:102398000183F0A3EFF04E7002FF22900176E0FE79
:1023A800A3E0FFC3EF9BFFEE9AFE900181E0FCA340
:1023B800E0FD120543A3E0FCA3E0FD1205AAC00658
:1023C800C00790017EE0FBA3E0FAA3E0F912060C37
:1023D80002247F90017EE0FBA3E0FAA3E0F99000DD
:1023E80004120637FFAEF0900002120637C39FFFB3
:1023F800E5F09E900181F0A3EFF0900178E0FBA357
:10240800E0FAA3E0F9900004120637FFAEF090005E
:1024180002120637C39FFFE5F09EFE900183F0A3EA
:10242800EFF04E7002FF22900178E0FBA3E0FAA3E0
:10243800E0F9900004120637FFAEF0AB07AA069049
:102448000176E0FEA3E0FFC3EF9BFFEE9AFE90014A
:1024580081E0FCA3E0FD120543A3E0FCA3E0FD122C
:1024680005AAC006C00790017EE0FBA3E0FAA3E03E
:10247800F9900004120637FFAEF0D0E02FFFD0E04D
:102488003EF990017BE0FBA3E0FAA3E0C98FF012CC
:04249800066F7F014B
:01249C00221D
:1037A7007E0090017B7401F0A37401F0A37474F0A0
:1037B700A37401F0A37401F0A37416F07B017A01DE
:1037C7007907122327900174E0FEA3E02446F582CF
:0E37D70074013EF583E0FD7F027E00023AAEF3
:103A24007F107E001239FE900106EFF07F117E00B8
:103A34001239FE90016FEFF07F127E001239FE9072
:053A44000135EFF02246
:103ACE00EF4488F5C5E5C520E3FBAFC6EF75F004FE
:103ADE00A4FFE5E85403FDEF4DFFE5F05403FE228D
:073C7000E4FE7F06023ACEDC
:073C7700E4FE7F07023ACED4
:1008F200200503020F797BFF7A24799D90023FE065
:10090200FFA3E0900195CFF0A3EFF01237E590013D
:1009120024E0FCA3E0FDA3E0FEA3E0FF900136E0AB
:10092200F8A3E0F9A3E0FAA3E0FB12006D7B0A7AD8
:10093200D77923783C12015E900176120814900157
:1009420029E0FCA3E0FDA3E0FEA3E0FF90013AE072
:10095200F8A3E0F9A3E0FAA3E0FB12006D7B0A7AA8
:10096200D77923783C12015E90017A120814900123
:100972002DE0FCA3E0FDA3E0FEA3E0FF90013EE03A
:10098200F8A3E0F9A3E0FAA3E0FB12006D7B0A7A78
:10099200D77923783C12015E90017E1208149001EF
:1009A20031E0FCA3E0FDA3E0FEA3E0FF900142E002
:1009B200F8A3E0F9A3E0FAA3E0FB12006D7B0A7A48
:1009C200D77923783C12015E9001821208147F00CD
:1009D2007EB07DE57C45900176E0F8A3E0F9A3E0E6
:1009E200FAA3E0FB12015EE4FBFA797A7844120280
:1009F200679001861208147FE17E987DD27C459033
:100A0200017AE0F8A3E0F9A3E0FAA3E0FB12015EA9
:100A1200E4FBFA797A7844120267900186E0F8A33F
:100A2200E0F9A3E0FAA3E0FB12006D90018A12083C
:100A3200147F487EC17D2C7C4690017EE0F8A3E0C5
:100A4200F9A3E0FAA3E0FB12015EE4FBFA797A78FB
:100A52004412026790018AE0F8A3E0F9A3E0FAA346
:100A6200E0FB12006D90018E12081490023FE0FE2E
:100A7200A3E0FFC3EE648094804008E4900123F079
:100A8200FC80179001237401F090023FE0FEA3E086
:100A9200FFC3E49FFFE49EFE7C007D021205AA9044
:100AA2000170EEF0A3EFF0900170E0FEA3E0D394AA
:100AB200F0EE94004003020BF3C3EE9400500302E5
:100AC2000BF37BFF7A2479B0900170A3E0FF9001D1
:100AD20095EEF0A3EFF01237E57BFF7A2479C89008
:100AE2000112E0FFA3E0900195CFF0A3EFF01237DF
:100AF200E57BFF7A2479E1900123E0FF900195E400
:100B0200F0A3EFF01237E5E4FFFE7DF57C419001A2
:100B120076E0F8A3E0F9A3E0FAA3E0FB12015EC0DD
:100B220004C005C006C007900170E0FCA3E0FDE42C
:100B3200120309D003D002D001D00012015EE4FBFF
:100B4200FA797A784412026790011F120814E4FFBE
:100B5200FE7DF57C41900176E0F8A3E0F9A3E0FA8E
:100B6200A3E0FB12015EC004C005C006C0079001ED
:100B720070E0FCA3E0FDE4120309D003D002D0012F
:100B8200D00012015E120342900172EEF0A3EFF068
:100B92007FCD7ECC7D4C7C3D90011FE0F8A3E0F937
:100BA200A3E0FAA3E0FB12006D120342900114EFDE
:100BB200F07FCD7ECC7D4C7C3D90011FE0F8A3E020
:100BC200F9A3E0FAA3E0FB12006DE4FBFA792078C6
:100BD2004112015E12034290011DEEF0A3EFF07C80
:100BE200007D0A12055590011DECF0A3EDF0020FF5
:100BF20077900170E0FEA3E0FFD394F0EE940050F2
:100C020003020D3ED3EF94C2EE94014003020D3E67
:100C12007F2F7E5D7D007C4290017AE0F8A3E0F9AF
:100C2200A3E0FAA3E0FB12015EC004C005C006C047
:100C320007900171E02410FD900170E034FFFCE4A4
:100C4200120309D003D002D001D00012015EE4FBEE
:100C5200FA797A7844120267900186E0F8A3E0F903
:100C6200A3E0FAA3E0FB12006D90011F1208147BAF
:100C7200FF7A2479F7900112E0FEA3E0FFC374F03B
:100C82009FFFE49EFEC3900175E09FFF900174E018
:100C92009E900195F0A3EFF01237E57BFF7A24795D
:100CA200C8900112E0FFA3E0900195CFF0A3EFF00E
:100CB2001237E57BFF7A2479F7900174E0FFA3E015
:100CC200900195CFF0A3EFF01237E590011FE0FC01
:100CD200A3E0FDA3E0FEA3E0FF120342900195EE24
:100CE200F0A3EFF07BFF7A2579141237E57BFF7AC8
:100CF20025792690023FE0FFA3E0900195CFF0A373
:100D0200EFF01237E57FCD7ECC7D4C7C3D90011F0C
:100D1200E0F8A3E0F9A3E0FAA3E0FB12006D1203EE
:100D220042900114EFF07BFF7A25793AE0FF9001BF
:100D320095E4F0A3EFF01237E5020DF5900170E0B3
:100D4200FEA3E0FFD394C2EE94015003020E26D319
:100D5200EF940CEE94034003020E267F197E047D6D
:100D6200067C4290017EE0F8A3E0F9A3E0FAA3E05A
:100D7200FB12015EC004C005C006C007900171E00D
:100D8200243EFD900170E034FEFCE4120309D0031E
:100D9200D002D001D00012015EE4FBFA797A7844E5
:100DA20012026790018AE0F8A3E0F9A3E0FAA3E057
:100DB200FB12006D90011F1208147BFF7A25792621
:100DC20090023FE0FFA3E0900195CFF0A3EFF01275
:100DD20037E57FCD7ECC7D4C7C3D90011FE0F8A3B2
:100DE200E0F9A3E0FAA3E0FB12006D1203429001C6
:100DF20014EFF07FCD7ECC7D4C7C3D90011FE0F85E
:100E0200A3E0F9A3E0FAA3E0FB12006DE4FBFA7998
:100E120020784112015E12034290011DEEF0A3EF11
:100E2200F0020F4CD3900171E0940C900170E094A9
:100E3200035003020F777F817E957D0B7C429001E8
:100E420082E0F8A3E0F9A3E0FAA3E0FB12015EC09E
:100E520004C005C006C007900171E024F4FD9001B2
:100E620070E034FCFCE4120309D003D002D001D0BC
:100E72000012015EE4FBFA797A784412026790016B
:100E82008EE0F8A3E0F9A3E0FAA3E0FB12006D9074
:100E9200011F1208147BFF7A25792690023FE0FF9A
:100EA200A3E0900195CFF0A3EFF01237E590011F78
:100EB200E0FCA3E0FDA3E0FEA3E0FF1203429001E9
:100EC20095EEF0A3EFF07BFF7A2579141237E57FD8
:100ED200CD7ECC7D4C7C3D90011FE0F8A3E0F9A3D0
:100EE200E0FAA3E0FB12006D120342900114EFF04E
:100EF2007BFF7A25793AE0FF900195E4F0A3EFF0C9
:100F02001237E57FCD7ECC7D4C7C3D90011FE0F811
:100F1200A3E0F9A3E0FAA3E0FB12006DE4FBFA7987
:100F220020784112015E12034290011DEEF0A3EF00
:100F3200F07BFF7A257969900195EEF0A3EFF0122C
:100F420037E590011DE0FEA3E0FF7C007D0A12055B
:100F52005590011DECF0A3EDF07BFF7A25794F90BF
:100F62000114E0FF900195E4F0A3EFF0A3ECF0A3ED
:070F7200EDF01237E5C205A6
:010F79002255
:103A49007BFF7A2579811237E51218CF1231EB12F3
:103A59003608122E411239D41208F2900106E0708C
:023A6900E82251
:1033E5001235221236DD7BFF7A2579961237E512E2
:1033F500298DD2B4D2B5123B8B123A24123B0C90D4
:10340500016FE0FF1237A77BFF7A2579A690016F40
:10341500E0FF900195E4F0A3EFF01237E590013558
:10342500E06401700590010604F0900106E0640176
:1034350078147008E654F04402F68006E654F04429
:1034450001F67F07123C4A900106E0640170031201
:073455003A4912372280F012
:103722007BFF7A2579B81237E57814E654F0440124
:10373200F6900115E054FEF07F18123766122E4102
:103742001231EB1239D4900106E0640170EFE4F516
:1037520042F5437814E654F04402F67BFF7A257969
:04376200D60237E56F
:0D26F50001108A4101D600C187C108C186CD
:103570001B5B306D001B5B303B33316D001B5B30E0
:103580003B33326D001B5B303B33336D001B5B30D4
:103590003B33346D001B5B303B33356D001B5B30C0
:1035A0003B33366D001B5B303B33376D00303132BF
:0E35B0003334353637383941424344454600FE
:10270200580249FF3570FF3575FF357DFF3585FF6E
:0B271200358DFF3595FF359DFF35A587
:080F7A00E0FBA3E0FAA3E0F99B
:0B0F82009001C0EBF0A3EAF0A3E9F03F
:100F8D009001CE120820000000019001C0E0FBA3EB
:100F9D00E475F0011205F6A9F0FA1204B99001C634
:100FAD00F070030214CF24DB701B9001C0E0FBA393
:100FBD00E0FAA3E0F91204B9B425139001C1E47568
:100FCD00F0011205E02002FD9001C60214A5C20930
:100FDD00C20AE49001CDF09001C0E0FBA3E475F0EE
:100FED00011205F6A9F0FA1204B99001C6F0E0FD60
:100FFD00B4301BD2099001C0E0FBA3E475F00112DF
:10100D0005F6A9F0FA1204B99001C6F0801FEDFFA4
:10101D003395E0FEC3EF9430EE64809480402CD382
:10102D00EF9439EE6480948050219001C6E024D075
:10103D009001CDF09001C0E0FBA3E475F001120525
:10104D00F6A9F0FA1204B99001C6F09001CC740221
:10105D00F09001C6E024BE602B24E0602724F660EA
:10106D00042420703C9001C0E0FBA3E475F0011254
:10107D0005F6A9F0FA1204B99001C6F09001CC74EE
:10108D0004F0801D9001C0E0FBA3E475F001120592
:10109D00F6A9F0FA1204B99001C6F09001CC7401D2
:1010AD00F09001C6E0FF24A8700302135E24F570D2
:1010BD000302147A24F0700302142D24FE600E2412
:1010CD00FD700302135E241460030214AD9001CC75
:1010DD00E024FE604224FE607B2403600302117E47
:1010ED00EF9001C3B46419E0FBA3E475F0011205A0
:1010FD00F6A9F0FA1204B9FF3395E0FEFDFC806B02
:10110D00E0FBA3E475F0011205F6A9F0FA1204B99B
:10111D00FFE4FCFDFE80549001C6E09001C3B46471
:10112D001BE0FBA3E475F0021205F6A9F0FA120616
:10113D000CFFAEF0EE3395E0FDFC8016E0FBA3E472
:10114D0075F0021205F6A9F0FA12060CFFAEF0E4E6
:10115D00FCFD80179001C6E09001C3E0FBA3E47590
:10116D00F0041205F6A9F0FA1207F49001C812085E
:10117D00149001C8E0FCA3E0FDA3E0FEA3E0FFECAA
:10118D003350252002FD75992DD2029001C8E0FC47
:10119D00A3E0FDA3E0FEA3E0FF74FFFBFAF9F81254
:1011AD00068E9001C81208149001CDE06003021262
:1011BD00449001C8E0FCA3E0FDA3E0FEA3E0FFEC3A
:1011CD004D4E4F700B2002FD759930D202020F97D4
:1011DD00E49001CDF0A3120820000000019001CD94
:1011ED00E0C3940A74809480504D9001C8E0FCA334
:1011FD00E0FDA3E0FEA3E0FF9001CEE0F8A3E0F94F
:10120D00A3E0FAA3E0FB120719E4FBFAF9F8C31205
:10121D0007CF60239001CEE0FCA3E0FDA3E0FEA389
:10122D00E0FFE47B0AF812068E9001CE12081490AE
:10123D0001CDE004F080A6E49001C7F09001CE123C
:10124D000820000000019001CDE024FFFFE434FFF1
:10125D00FE9001C7E0FD3395E0FCC3ED9FEE648089
:10126D00F8EC64809850259001CEE0FCA3E0FDA33E
:10127D00E0FEA3E0FFE47B0AFAF9F812068E900176
:10128D00CE1208149001C7E004F080BA9001C8E0B6
:10129D00FCA3E0FDA3E0FEA3E0FF9001CEE0F8A3E8
:1012AD00E0F9A3E0FAA3E0FB120719EF2430FF9059
:1012BD0001C6F0BF3025200922E47F01FEFDFC9020
:1012CD0001CEE0F8A3E0F9A3E0FAA3E0FBC3120717
:1012DD00CF60089001C67420F08002D2092002FD73
:1012ED009001C6E0F599D2029001C8E0FCA3E0FDA3
:1012FD00A3E0FEA3E0FF9001CEE0F8A3E0F9A3E0A8
:10130D00FAA3E0FB120719AC00AD01AE02AF0390DA
:10131D0001C81208149001CEE0FCA3E0FDA3E0FE8D
:10132D00A3E0FFE47B0AFAF9F81207199001CE1237
:10133D000814E4FFFEFDFC9001CEE0F8A3E0F9A354
:10134D00E0FAA3E0FBC31207CF6003021299020F6C
:10135D00979001CCE024FE602224FE6039240370B6
:10136D004E9001C3E0FBA3E475F0011205F6A9F060
:10137D00FA1204B9FFE4FCFDFE802E9001C3E0FBE0
:10138D00A3E475F0021205F6A9F0FA12060CFFAEF1
:10139D00F0E4FCFD80139001C3E0FBA3E475F004C1
:1013AD001205F6A9F0FA1207F49001C8120814906C
:1013BD0001CDE070089001CCE025E0A3F0E49001B0
:1013CD00C7F09001CDE0FF9001C7E0FD3395E0FC43
:1013DD00C3ED9F7480F86C984003020F972002FDB7
:1013ED009001C7E0FF9001CDE0C39F1425E025E0FB
:1013FD00F99001C8E0FCA3E0FDA3E0FEA3E0FFA887
:10140D00011207E07E00EF540F24ADF582EE343566
:10141D00F583E493F599D2029001C7E004F080A220
:10142D009001C3E0FBA3E475F0031205F6A9F0FAF1
:10143D001208519001D2EBF0A3EAF0A3E9F090016C
:10144D00D2E0FBA3E0FAA3E0F91204B97003020F96
:10145D00972002FD9001D2E0FBA3E475F001120587
:10146D00F6A9F0FA1204B9F599D20280D19001C310
:10147D00E0FBA3E475F0021205F6A9F0FA12060CD2
:10148D00FFAEF0EE3395E0FDFC9001C8120814207C
:10149D0002FD9001C8A3A3A3E0F599D202020F9714
:1014AD009001C3E0FBA3E475F0021205F6A9F0FA72
:1014BD0012060CFFAEF0E4FCFD9001C812081402F8
:0214CD000F9777
:0114CF0022FA
:0B37E500900192EBF0A3EAF0A3E9F0E2
:1037F0009001BD7401F0A37401F0A37495F09001E1
:10380000BDE0F9A3E0FAA3E09001C3C9F0A3EAF098
:10381000A3E9F0900192120F7A9001BDE4F0A3F0B9
:02382000A3F013
:013822002283
:0B382300900170EBF0A3EAF0A3E9F0C5
:10382E0090019B7401F0A37401F0A37473F09001E6
:10383E009BE0F9A3E0FAA3E09001C3C9F0A3EAF07C
:10384E00A3E9F0900170120F7A90019BE4F0A3F0BF
:02385E00A3F0D5
:013860002245
:0E369700900174EFF0A3EBF0A3EAF0A3E9F0CA
:1036A5009001A07401F0A37401F0A37478F0900167
:1036B500A0E0F9A3E0FAA3E09001C3C9F0A3EAF002
:1036C500A3E9F0900175120F7A9001A0E4F0A3F040
:0736D500A3F090017404F062
:0136DC0022CB
:103608007814E6FFC4540F24FE602624FB601524BA
:10361800FB6011240B702E7811E6541F6407602597
:103628007F07801E7811E6541F640660187F0680A5
:10363800117811E6541F600824F97009E4FF80022C
:083648007F01123C4A0232EE40
:02002900D322E0
:0F3C4A00EF541FFF7811E654E04FF64480F62246
:1032EE007812E6540F24FE602324FE604014602EF4
:1032FE0024FD604D2407704E7814E6FFC4540F640D
:10330E000160437F011200127F0180377811E6546D
:10331E001F640370317F021200127F028025781421
:10332E00E6FFC4540F6401601D7F0580167814E615
:10333E00FFC4540F6401600E7F041200127F0480DC
:10334E00027F08123C4A7812E654F0F61200294029
:0C335E000A7F011200127F01123C4A227B
:103B5D000A0D537973506F776572496E6974696197
:083B6D006C2E2E4F4B212100AC
:04271D0002140000A2
:1036DD00D283C2A1D284D282C2A1C2B7C286C2EAAB
:1036ED00C2A6C2A2D2E8D2E97FC87E00123BA1C217
:1036FD0083D2A1C284C282D2B7D286D2EAD2A6D256
:10370D00A2D2B67F407E00123BA1D2A07BFF7A3BB6
:05371D00795D02382374
:102E41007814E6FF540F14603424FA605F24FB60A9
:102E51007C240A6003022EE5EFC4540F601024F9AC
:102E610060082406700DE4FF80067F0380027F0165
:102E71001239117814E6540F4420F680677814E66D
:102E8100C4540F601024FE601424F6600C240570F5
:102E9100117F04800A7F0280067F0B80027F061269
:102EA10039117814E6540F4410F680387814E6C4CA
:102EB100540F24F46008240A70097F0580027F0AF8
:102EC1001239117814E6540F4470F680177814E61D
:102ED100C4540F640270057F091239117814E65445
:102EE1000F44C0F67814E6FF54F0C4540FFEEF54BB
:042EF100F04EF62287
:102A9F00900174EFF07F1D1237667F1E1237667F2D
:102AAF001F1237667F20123766900174E024F7708B
:102ABF0003022B5A24FC606314602E24FD70030262
:102ACF002B83147003022B8D24036003022BA3E4CA
:102ADF00FD7F141234C390010FE0440FF07814E619
:102AEF00C4540F64027062807C7D287F141234C33B
:102AFF0090010FE054F0440EF07814E6C4540F64C4
:102B0F0007701490010DE0C4131354031350047D88
:102B1F001F80347D1D80307D1B80727DFF7F1412DE
:102B2F0034C390010FE054F0440DF07814E6C45410
:102B3F000F6407701490010DE0C413135403135066
:102B4F00047D1F80027D1D80448021E4FD7F1412CF
:102B5F0034C390010FE054F04409F07814E6C454E4
:102B6F000F640270077D1B7F64FE80257D1C7F64D0
:102B7F007E00801DD2827D1F7F647E008013C28203
:102B8F00900115E01350047D1B80027D1F7F647E32
:052B9F0000122C84224D
:1030D100EF24FE6037240224FC500A602F14605054
:1030E1001460298071C283D2A1C284C282D2B7D2B4
:1030F10086D2EAD2A6D2A2D2B67F407E00123BA1EE
:10310100D2A0123B75EF64017043803AC2A0D28312
:10311100D284C2A1D282C2A1C2B7C2EAC2A6C2A24D
:10312100C2B6C286123B75EF640170028018801D21
:10313100C2A1D284C2B7C2EAC2A6C2A2C286123B4F
:1031410075EF640170077D147F64FE80067D157F35
:0E315100647E00122D6390010FE054F0F02216
:10391100900170EFF0120871393E00393E01393ED5
:1039210002393E03393E05393E06393E07393E0824
:10393100393E0A393E0B393E150000394690017077
:06394100E0FF1230D1226C
:033C7E002D3E00D8
:0B272100C10C42020C000041022E001F
:103BA100EF4E6010C20C300CFDC20CEF1F70011EF5
:053BB100144E70F22229
:103BDF00EF75F003A42411F582E43402F583E0FEBF
:043BEF00A3E0FF222E
:103BB600EF75F003A42410F582E43402F583E0C324
:053BC60013547FFF22F3
:103BF300EF75F003A42410F582E43402F583E05456
:033C0300FEF022AE
:103C2A00EF75F003A42410F582E43402F583E0135F
:013C3A002267
:1035BE0090020CE0FFA3E090017ECFF0A3EFF0901D
:1035CE00017EE0FEA3E0FFC390020DE09FFF90029C
:1035DE000CE09EFE123C59D3EF947FEE64809480F3
:1035EE00400F90020CE0FFA3E090017ECFF0A3EF1E
:0935FE00F090017EE0FEA3E0FF65
:0136070022A0
:08273200900179EEF0A3EFF035
:10273A00E4A3F0A3F0A3F01235BE90017CEEF0A35F
:10274A00EFF0900179E0FEA3E0FFE4FCFD7B487A1C
:10275A00EEF9F8C31207B9500A90017974EEF0A3A2
:10276A007448F0900179E0FEA3E0FF90017DE02F2C
:10277A00FF90017CE03EFEE4FCFD7B487AEEF9F82E
:10278A00C31207B9401F900179E0FEA3E0FF900150
:10279A007CE0FCA3E0FD2FFFEC3EFED3ED9FEC9E18
:1027AA005003022857E490020CF0A3F090017BF04A
:1027BA0090017BE0FFC3940A74809480400302284E
:1027CA0050EF75F003A42410F582E43402F583E097
:1027DA0054016401706790017BE0FF75F003A42443
:1027EA0011F582E43402F583E0FCA3E0FD90017C5C
:1027FA00E0FAA3E0FBD3ED9BEC9A402CEF75F003D3
:10280A00A42411F582E43402F583C083C082C3A3F1
:10281A00E09BFF0582D5820215831582E09AD08259
:10282A00D083F0A3EFF0801590017BE075F003A44C
:10283A002411F582E43402F583E4F0A3F090017BDD
:10284A00E004F00227BAE490017CF0A3F090017C46
:05285A00E0FEA3E0FF19
:01285F002256
:103A6B00E4FFEFC3940A748094805015EF75F00354
:103A7B00A42410F582E43402F583E054FEF00F80A9
:013A8B00E159
:013A8C002217
:0B2C8400900175EEF0A3EFF0A3EDF05F
:102C8F00E4A3F0F0900178E0FFC3940A748094807D
:102C9F00502EEF75F003A42410F582E43402F5836F
:102CAF00E0FF540164017010EFC313547FFF9001D4
:102CBF0077E06F7003022D62900178E004F080C41A
:102CCF00E4900178F0900178E0FFC3940A74809447
:102CDF00804003022D62EF75F003A42410F582E407
:102CEF003402F583E0FF54017060900178E0FE75C7
:102CFF00F003A42410F582E43402F583EF4401F0CD
:102D0F00900177E0547F25E0FFEE75F003A42410C7
:102D1F00F582E43402F583E054014FF0900175E041
:102D2F00FEA3E0FF122732900176E02FFF9001758E
:102D3F00E03EFE900178E075F003A42411F582E4E3
:102D4F003402F583EEF0A3EFF022900178E004F067
:032D5F00022CD46F
:012D6200224E
:10376600E4FEEEC3940A748094805034EE75F00340
:10377600A42410F582E43402F583E0FD54016401CB
:10378600701BEDC313547FB50713EE75F003A42425
:1037960010F582E43402F583E054FEF0220E80C276
:0137A6002200
:0B2D6300900171EEF0A3EFF0A3EDF083
:102D6E00E4A3F0F0900174E0FFC3940A74809480A1
:102D7E00502DEF75F003A42410F582E43402F58390
:102D8E00E0FF54016401700FEFC313547FFF9001F5
:102D9E0073E0B507028064900174E004F080C5E42E
:102DAE00900174F0900174E0FFC3940A74809480D3
:102DBE004003022E40EF75F003A42410F582E43494
:102DCE0002F583E0FF54017060900174E0FE75F02F
:102DDE0003A42410F582E43402F583EF4401F0904D
:102DEE000173E0547F25E0FFEE75F003A42410F587
:102DFE0082E43402F583E054014FF0900171E0FE5D
:102E0E00A3E0FF122732900172E02FFF900171E0D4
:102E1E003EFE900174E075F003A42411F582E434B3
:102E2E0002F583EEF0A3EFF022900174E004F002BD
:022E3E002DB2B3
:012E4000226F
:102BA400EFB40E004003022C83902BB4F828287352
:102BB400022BDE022C83022BEB022BEB022BFF02F7
:102BC4002C03022C14022C2D022C43022C83022CE5
:102BD40069022C7E022C83022C817BFF7A3C797E55
:102BE4001237E5E4FD807390016FE0FF1237A79080
:102BF400016FE0FD7F117E000236507F80800E90D1
:102C0400010DE0C4131354031350747F830228602E
:102C1400900115E0FF1313543F1340637814E654F6
:102C2400F04407F6EF4404F022E490023FF0A3F0EE
:102C3400900114F090011DF0A3F0900123F0229074
:102C44000115E0FF131313541F135014EF54F7F03E
:102C540054FEF07F11122A9F7D087FE87E038017BF
:102C64007F12022A9F900115E04410F07F821228FF
:102C7400607D0A7F987E3A022C84023A8DD2B72274
:1031EB00E4900170F0A3F0A3F0A3F0900170F090C5
:1031FB000170E0C3940A7480948050681235BE90BD
:10320B000172EEF0A3EFF0900170E0FF123C2A5038
:10321B004B900170E0FF123BDFD3900173E09F9066
:10322B000172E09E4036900170E0FF123BF390017B
:10323B0070E0FF123BB6900171EFF0C3940F7480F6
:10324B0094805007E0FF122BA48011900171E0FFD6
:10325B00C394267480948050031214D0900170E0B4
:04326B0004F0808B60
:01326F00223C
:1014D000EF24F0B4160040030218CE9014E975F022
:1014E00003A4C58325F0C583730215640218CE02D8
:1014F000166202162B0217190217FE0218CE0218E6
:10150000CE02170902153702152B02152F021533CB
:1015100002153C02154602155002155A02185802CF
:1015200018660218740218820218917F1A800A7FC6
:101530001B80067F1C80027F1902345C7F1D1234E1
:101540005C7D1D0217127F1E12345C7D1E02171275
:101550007F1F12345C7D1F0217127F2012345C7DC6
:1015600020021712123C77900110EEF0A3EFF0C3A7
:1015700094C8EE9400500F90010DE04420F054E028
:101580004409F002161A90010DE054DFF0900110AA
:10159000E0FCA3E0FDD394C3EC9402500B90010D4A
:1015A000E054E04404F08072D3ED94C3EC94024024
:1015B0001AD3900111E09418900110E09403500B9D
:1015C00090010DE054E04403F0804F900110E0FEE4
:1015D000A3E0FFD39418EE94034014D3EF943FEEAE
:1015E0009403500B90010DE054E04402F0802B90E6
:1015F0000110E0FEA3E0FFD3943FEE94034014D328
:10160000EF946CEE9403500B90010DE054E0440114
:10161000F0800790010DE054E0F0900115E01350C8
:10162000057F811228607D100217DC900115E0FF14
:101630001313543F13500D7814E654F04402F6EFA0
:1016400054FBF022900106E0640170087D0A7F647B
:10165000FE0218CB9001067401F0FD7F107E00029F
:101660003650123C7090022FEEF0A3EFF090010F75
:10167000E0540F640F700A90010EE04407F0021767
:101680000090022FE0FCA3E0FDC39432EC940050E4
:101690000990010EE054F8F08066D3ED9432EC949A
:1016A000004016900230E094C890022FE094005061
:1016B0000890010EE04440804390022FE0FEA3E03A
:1016C000FFD39420EE94034014EF9484EE940350DF
:1016D0000C90010EE04420F054BFF08023D3900220
:1016E00030E094E890022FE0940390010EE0400770
:1016F00054F84406F080094407F054BFF054DFF07A
:101700007D127F107E270218CB900115E04408F06F
:101710007D087FE87E030218CB123B75EF64016001
:10172000030217E390010DE0FFC4131354031340A9
:1017300026EF4440F0D2EA7F327E00123BA1C2A6DF
:10174000E4FD7F141234C3900135E0640170089009
:101750000106E0700204F090010DE0541F70077D57
:10176000237F64FE807190010DE0C4135407135071
:10177000087D247F647E00805E7814E6C4540F6484
:1017800002701690010EE05407640660047D21800B
:10179000027D237F647E00803E7814E6C4540F648B
:1017A00007701690010EE05407640660047D2280E5
:1017B000027D237F647E00801E7814E6C4540F648B
:1017C00001701790010EE05407640660047D2280CA
:1017D000027D237F647E00122C847D147F887E131B
:1017E0000218CB90010DE054BFF0C2EA7D237FF4D4
:1017F0007E01122C847D157FF47E010218CB123BF2
:1018000075EF64017019900135E064017008900172
:1018100006E0700204F07D147FF47E010218CB20F4
:10182000A60BD2A67F327E00123BA1C2EA90010D28
:10183000E0541F64047010900106E0640170087D9C
:101840000A7F64FE122C847D237F647E00122C8428
:101850007D157F887E13807390010FE0540F640E16
:10186000606C7F0E802890010FE0540F640D605E65
:101870007F0D801A90010FE0540F640F60507F0FAE
:10188000800C90010FE0540F640960427F09022A26
:101890009F900231E0240AF0E0643C7007F090026F
:1018A00038E004F0900238E0643C7007F090023DAC
:1018B000E004F090023DE064187007F090023CE014
:0F18C00004F01220F27D257F107E27122C842247
:05272C00031100000094
:0100120022CB
:100066000203AEE86480F8E933E83360110460F017
:10007600ED33EC337009E8FCE9FDEAFEEBFF220400
:1000860060DED3EB9FEA9EE99DE8C2E78CF0C2F7FB
:1000960095F0400CE8CCF8E9CDF9EACEFAEBCFFBC7
:1000A60012037985D0F05804700320D5B3E80470A4
:1000B600075002B2D50203B892D5EC0460F7E4CC3F
:1000C600C0E0C398F8603B94186008400DD0E0FB90
:1000D600020390E4FBFAC9FC8028E830E406E4C990
:1000E600FBE4CAFCE830E305E4C9CACBFCE85407E4
:1000F6006010F8C3E913F9EA13FAEB13FBEC13FCEF
:10010600D8F130F52FC3E49CFCEF9BFFEE9AFEED91
:1001160099FDD0E0FBEF4E4D4C701222DB0302033B
:10012600B5EC2CFCEF33FFEE33FEED33FDED30E79F
:10013600EB020390EF2BFFEE3AFEED39FDD0E0FB2C
:1001460050130BBB00030203B8ED13FDEE13FEEFD5
:0801560013FFEC13FC020390FF
:10015E00EC4D6011E8497017ED33EC3304600DE49B
:10016E00FCFFFEFD22E933E8330470F80203AE1201
:10017E00037958046009E4CC248150062850090202
:10018E0003B82840030203B5C0E0EB4A7044B980BF
:10019E0006D0E0FB0203A4EF4E701CBD8008EBFFFF
:1001AE00EAFEE9FD80EBE98DF0A4FEE5F0020247E0
:1001BE00E9CDF9EAFEEBFFEF89F0A4FCE5F0CE897C
:1001CE00F0A42EFFE435F0CD89F0A42DFEE435F039
:1001DE008067EF4E7005BD80D780C3EF8BF0A4AC67
:1001EE00F0EE8BF0A42CFCE435F0F8EF8AF0A42CA2
:1001FE00E5F038FCE433CB8DF0A42CFCE5F03BF8B5
:10020E00EE8AF0A42CFCE5F038F8E433CF89F0A4A4
:10021E002CFCE5F038CF3400CE89F0A42FFFE5F0AA
:10022E003EFEE433C98DF0A42EFEE5F039CD8AF002
:10023E00A42FFFE5F03EFEE43DFD33D0E0FB50077A
:10024E000BBB000F0203B8EC2CFCEF33FFEE33FEBA
:06025E00ED33FD020390E8
:100264000203B8EC5D046005E8590470030203AEB0
:10027400120379580460F6EC4860F2EC7004FDFE59
:10028400FF22C860DB2481C85009C398600250066D
:100294000203B59850CAF582E9294B4A7005AB822E
:1002A4000203A475F0007C1A7880C3EF9BEE9AEDEC
:1002B40099400DC3EF9BFFEE9AFEED99FDE842F0E5
:1002C400DC23ACF0D0E0FFD0E0FED0E0FDAB822038
:1002D400E7101BEB60BAEC2CFCEF33FFEE33FEEDC2
:1002E40033FD020390E803F830E705C0F075F00031
:1002F400EF2FFFEE33FEED33FD40B830E7C280AAA6
:1003040075F020800E75F010800575F0087D007E74
:10031400007F003392D530D5031207ABEC33401085
:10032400EF33FFEE33FEED33FDEC33FCD5F0ED227D
:0E033400E5F0247EA2D513CC92E7CDCEFF22B9
:10034200EDD2E7CD33EC3392D524814006E4FFFEB3
:10035200FDFC22FCE4CFCECDCC24E0501174FF8012
:10036200EDC3CC13CCCD13CDCE13CECF13CF0470AF
:07037200F030D5DE0207ABFD
:10037900E9D2E7C933E833F892D5EDD2E7CD33ECCA
:0703890033FC5002B2D52243
:10039000EC30E7100FBF000C0EBE00080DBD0004CE
:1003A0000BEB6014A2D5EB13FCED92E7FD2274FF7A
:1003B000FCFDFEFF22E480F8A2D574FF13FC7D80D3
:0303C000E480EFE7
:10316B000233E5E493A3F8E493A34003F68001F262
:10317B0008DFF48029E493A3F85407240CC8C33365
:10318B00C4540F4420C8834004F456800146F6DF34
:10319B00E4800B01020408102040809025F9E47EA6
:1031AB00019360BCA3FF543F30E509541FFEE49329
:1031BB00A360010ECF54C025E060A840B8E493A3F0
:1031CB00FAE493A3F8E493A3C8C582C8CAC583CA1B
:1031DB00F0A3C8C582C8CAC583CADFE9DEE780BED3
:0127310000A7
:1003C300E709F608DFFA8046E709F208DFFA803E1C
:1003D30088828C83E709F0A3DFFA8032E309F60809
:1003E300DFFA8078E309F208DFFA807088828C8371
:1003F300E309F0A3DFFA806489828A83E0A3F60825
:10040300DFFA805889828A83E0A3F208DFFA804CFE
:1004130080D280FA80C680D4806980F280338010D5
:1004230080A680EA809A80A880DA80E280CA80333E
:1004330089828A83ECFAE493A3C8C582C8CCC583B6
:10044300CCF0A3C8C582C8CCC583CCDFE9DEE78086
:100453000D89828A83E493A3F608DFF9ECFAA9F005
:10046300EDFB2289828A83ECFAE0A3C8C582C8CC5B
:10047300C583CCF0A3C8C582C8CCC583CCDFEADE74
:10048300E880DB89828A83E493A3F208DFF980CCD6
:1004930088F0EF60010E4E60C388F0ED2402B404CF
:1004A3000050B9F582EB2402B4040050AF23234576
:0604B30082239004137384
:1004B900BB010689828A83E0225002E722BBFE0241
:0904C900E32289828A83E4932274
:1004D200BB010CE58229F582E5833AF583E02250DF
:1004E20006E92582F8E622BBFE06E92582F8E22229
:0D04F200E58229F582E5833AF583E4932243
:1004FF00BB010989828A83F8E028F022500327F78D
:10050F0022BBFE05F8E328F3228A838982F8E4935D
:02051F00282290
:10052100F8BB010DE58229F582E5833AF583E8F010
:10053100225006E92582C8F622BBFE05E92582C8BC
:02054100F222A4
:10054300EF8DF0A4A8F0CF8CF0A428CE8DF0A42ECC
:02055300FE2286
:10055500BC000BBE0029EF8DF084FFADF022E4CC8A
:10056500F875F008EF2FFFEE33FEEC33FCEE9DEC53
:10057500984005FCEE9DFE0FD5F0E9E4CEFD22ED99
:10058500F8F5F0EE8420D21CFEADF075F008EF2FE3
:10059500FFED33FD4007985006D5F0F222C398FDD4
:0505A5000FD5F0EA2271
:1005AA00C2D5EC30E709B2D5E4C39DFDE49CFCEE6C
:1005BA0030E715B2D5E4C39FFFE49EFE120555C38A
:1005CA00E49DFDE49CFC800312055530D507C3E485
:0605DA009FFFE49EFE22DB
:1005E000C5F0F8A3E028F0C5F0F8E58215827002A6
:0605F0001583E038F02243
:1005F600A3F8E0C5F025F0F0E582158270021583B8
:06060600E0C838F0E82214
:10060C00BB010A89828A83E0F5F0A3E022500687B9
:10061C00F009E71922BBFE07E3F5F009E31922897B
:0B062C00828A83E493F5F074019322AE
:10063700BB0110E58229F582E5833AF583E0F5F001
:10064700A3E0225009E92582F886F008E622BBFEDE
:100657000AE92582F8E2F5F008E222E5832AF58324
:08066700E993F5F0A3E99322E9
:10066F00BB010A89828A83F0E5F0A3F0225006F7D6
:0F067F0009A7F01922BBFE06F3E5F009F31922D3
:10068E00E88FF0A4CC8BF0A42CFCE98EF0A42CFC0B
:10069E008AF0EDA42CFCEA8EF0A4CDA8F08BF0A489
:1006AE002DCC3825F0FDE98FF0A42CCD35F0FCEBE8
:1006BE008EF0A4FEA9F0EB8FF0A4CFC5F02ECD39AD
:0F06CE00FEE43CFCEAA42DCE35F0FDE43CFC221A
:1006DD0075F008758200EF2FFFEE33FECD33CDCCD4
:1006ED0033CCC58233C5829BED9AEC99E582984057
:1006FD000CF582EE9BFEED9AFDEC99FC0FD5F0D634
:10070D00E4CEFBE4CDFAE4CCF9A88222B800C1B95D
:10071D000059BA002DEC8BF084CFCECDFCE5F0CB9B
:10072D00F97818EF2FFFEE33FEED33FDEC33FCEBD4
:10073D0033FB10D703994004EB99FB0FD8E5E4F98F
:10074D00FA227818EF2FFFEE33FEED33FDEC33FC7C
:10075D00C933C910D7059BE99A4007EC9BFCE99A70
:10076D00F90FD8E0E4C9FAE4CCFB2275F010EF2FB5
:10077D00FFEE33FEED33FDCC33CCC833C810D707B5
:10078D009BEC9AE899400AED9BFDEC9AFCE899F8F0
:0E079D000FD5F0DAE4CDFBE4CCFAE4C8F92283
:0E07AB00C3E49FFFE49EFEE49DFDE49CFC225F
:1007B900EB9FF5F0EA9E42F0E99D42F0EC6480C8B7
:0607C90064809845F02257
:1007CF00EB9FF5F0EA9E42F0E99D42F0E89C45F080
:0107DF0022F7
:1007E000E86010ECA2E713FCED13FDEE13FEEF132F
:0407F000FFD8F0221C
:1007F400BB010789828A830208A35005E9F802082D
:1008040097BBFE05E9F80208AF89828A830208BB18
:0C081400ECF0A3EDF0A3EEF0A3EFF02257
:10082000A8828583F0D083D082120837120837124D
:100830000837120837E473E493A3C583C5F0C58372
:10084000C8C582C8F0A3C583C5F0C583C8C582C822
:010850002285
:10085100BB010789828A830208D45005E9F802089E
:10086100CBBBFE05E9F80208DD89828A830208E62E
:10087100D083D082F8E4937012740193700DA3A316
:1008810093F8740193F5828883E47374029368602A
:06089100EFA3A3A380DF2A
:0C3C5900EE30E707C3E49FFFE49EFE226C
:0C089700E6FC08E6FD08E6FE08E6FF228D
:0C08A300E0FCA3E0FDA3E0FEA3E0FF22C8
:0C08AF00E2FC08E2FD08E2FE08E2FF2285
:1008BB00E493FC740193FD740293FE740393FF2283
:0908CB00E6FB08E6FA08E6F92252
:0908D400E0FBA3E0FAA3E0F92225
:0908DD00E2FB08E2FA08E2F9224C
:0C08E600E493FB740193FA740293F9226E
:00000001FF
