:030000000232D6F3
:0C32D600787FE4F6D8FD75817902331D85
:101D52000D0A507265762E46573A25303278253074
:101D6200327825303278000D0A437572722E46574A
:101D72003A253032782530327825303278000D0A13
:101D820043616E6E6F7420616363657373204545B2
:101D920050524F4D21212121000D0A4E6F20696EB4
:101DA200697469616C697A65000D0A285345545F4C
:101DB20050574D3D253032782076616C3D253032CA
:101DC2007829000D0A53797374656D206861732058
:101DD2006265656E20776F726B696E6720666F72DF
:101DE20020256420646179732C20256420686F7536
:101DF20072732C202564206D696E75746573206181
:101E02006E64202564207365636F6E6473000D0A2F
:101E120053797374656D20686173206265656E2005
:101E2200776F726B696E6720666F72202564206817
:101E32006F7572732C202564206D696E75746573DD
:101E420020616E64202564207365636F6E64730085
:101E52000D0A53797374656D20686173206265653C
:101E62006E20776F726B696E6720666F72202564D1
:101E7200206D696E7574657320616E64202564201F
:101E82007365636F6E6473000D0A53797374656DC5
:101E920020686173206265656E20776F726B696E70
:101EA2006720666F72202564207365636F6E6473AA
:101EB200000D0A28426174746572794254483D25C6
:101EC200642825642E2564562929002854454D503E
:101ED2005F4E4F524D414C29002854454D505F48AA
:101EE20049474829002854454D505F4C4F57290017
:101EF2000D0A28426174746572794341503D25642C
:101F02002825642E25645629290028484947485F18
:101F12004348415247452900284C4F575F434841A7
:101F220052474529002853544F505F434841524776
:101F3200452900284E4F5F4241545429002842410E
:101F420054545F5354415455535F41435F4D4F4482
:101F5200452900285F424154545F5354415455531C
:101F62005F43415041434954595F4C4556454C31BA
:101F72002900285F424154545F5354415455535FE2
:101F820043415041434954595F4C4556454C3229CF
:101F920000285F424154545F5354415455535F43A8
:101FA200415041434954595F4C4556454C332900F1
:101FB200285F424154545F5354415455535F434147
:101FC2005041434954595F4C4556454C34290028E9
:101FD2005F424154545F5354415455535F4E4F5FD7
:101FE2004241545429000D0A28504F5745525F531D
:0A1FF20054415455533D2564290065
:102AE00041025D0041025E00410252004102540079
:102AF00041025500410250004102490041025F007D
:102B000002400000014600C101C10002470000016F
:102B10004400014500027400000469000000000444
:102B20006D00000000C10441024A0101720001422F
:102B300000014300C102C1034102530041024B00A6
:102B400041025600440259000000004202570000B2
:102D42001231A79001701208147F047E00123BC159
:102D52007E00C007C0067F05123BC17E00C007C0CF
:102D6200067F06123BC1900199E4F0A3EFF09001B7
:102D720097D0E0F0A3D0E0F0900195D0E0F0A3D09E
:102D8200E0F07BFF7A1D79521239541231A7E47BAD
:102D92000EFAF9F8C31207CF605F7BFF7A1D7969DB
:102DA200E4900195F0A3F0A3F0A3F0A3F0A3740EB6
:102DB200F01239541239D07F047E00123BC17E00DA
:102DC200C007C0067F05123BC17E00C007C0067F58
:102DD20006123BC1900199E4F0A3EFF0900197D065
:102DE200E0F0A3D0E0F0900195D0E0F0A3D0E0F0C5
:102DF2007BFF7A1D79691239541231A7E47B0EFAEE
:102E0200F9F8C31207CF701E7F0EFEFDFC90017011
:102E1200E0F8A3E0F9A3E0FAA3E0FBC31207CF6056
:102E22001E123B1A80197BFF7A1D79801239547B5E
:102E3200FF7A1D799B12395490012874FFF0227F8A
:102E420064123CE77811E6540F4410F654F0440241
:012E5200F689
:012E5300225C
:10376200758DF4759850758922758855758A4075DE
:103772008C4075878075B80275A892D299D2ACE454
:10378200F5C8C2CAD2AD75AA5075BAF443A6184399
:10379200AD10C203F5E9F5F9F5D943D840439320BA
:0E37A20043910475B10CF5B275B30CF5B42269
:103D17003085107F327E00123D433085037F0122BC
:063D27007F00227F002254
:1036B300900175EFF0A3EDF07BFF7A1D79AB9001DC
:1036C30095E4F0A3EFF0EDFFA3E4F0A3EFF01239DC
:1036D30054900175E0603424EB601A2416602824AA
:1036E300EB702B75EC80900176E0FFC374FF9FF5C0
:1036F300FC75DC422275ED80900176E0FFC374FF18
:0F3703009FF5FD75DD422243D8402253D8402266
:03000B00021FFCD5
:0B1FFC00C0E0C083C082C0D075D008D8
:1020070005730545C3E545940A7480948040139091
:10201700020DE004F0700690020CE004F075450034
:10202700D20CD3E5739460748094805003022271BC
:10203700054AE54A700205497573000544E544649D
:10204700647010F544E5469002536005E004F080A3
:1020570002E4F0E575F47003E574F460080575E5CE
:102067007570020574AF70AE6FAD6EAC6DEC4D4E12
:102077004F6014EF24FFF570EE34FFF56FED34FF7A
:10208700F56EEC34FFF56D90024CE07002A3E06052
:102097000E90024DE024FFF090024CE034FFF0E593
:1020A700B0540C13135403FF90025CE06F700302EB
:1020B700221590025AE0900259F090025BE09002DC
:1020C7005AF090025CE090025BF0A3EFF0D205902B
:1020D70002517430F0900259E0FF7E007020A3E0B7
:1020E7006401701AA3E064037014A3E06402700E25
:1020F700900258E004F07006900257E004F0EF6495
:10210700014E702090025AE064037018A3E0640245
:102117007012A3E0700E900258E004F0700690026F
:1021270057E004F0900259E06403701EA3E06402D4
:102137007018A3E07014A3E06401700E900258E0D9
:1021470004F07006900257E004F0900259E0FF7E19
:10215700006402701EA3E0701AA3E064017014A368
:10216700E06403700E900258E004F0700690025786
:10217700E004F0EF4E702290025AE06402701AA356
:10218700E064037014A3E06401700E900258E02429
:10219700FFF0900257E034FFF0900259E0640270BC
:1021A7001EA3E064037018A3E064017012A3E0703B
:1021B7000E900258E024FFF0900257E034FFF090B1
:1021C7000259E0FF7E006403701EA3E064017018EB
:1021D700A3E07014A3E06402700E900258E024FF9D
:1021E700F0900257E034FFF0EF64014E7020900248
:1021F7005AE0701AA3E064027014A3E06403700E3F
:10220700900258E024FFF0900257E034FFF0E5E831
:10221700F4FF131313541F30E027E541B42018E5EA
:1022270040B40313754601D200D2017540007541D1
:102237003290025F7401F00541E541702D05408041
:1022470029C3E5419432E5409400401390025FE0D2
:10225700700D754601C200D201F540F541800B9023
:0A226700025FE4F0F540F541F54692
:09227100D0D0D082D083D0E0323D
:10227A00900254E0FF60327BFF7A1D79C5900178A5
:10228A00E4F0A3EFF0900255E0FF90017AE4F0A3A6
:10229A00EFF0900250E0FF90017CE4F0A3EFF090A1
:1022AA000249E0FF90017E8057900255E0FF6025C9
:1022BA007BFF7A1E7910900178E4F0A3EFF0900288
:1022CA0050E0FF90017AE4F0A3EFF0900249E0FFBA
:1022DA0090017C802B900250E0FF7BFF60167A1EF3
:1022EA007952900178E4F0A3EFF0900249E0FF9070
:1022FA00017A800C7A1E798A900249E0FF9001786F
:10230A00E4F0A3EFF07F0312388F90022FE0FEA3D0
:10231A00E0FF900178EEF0A3EFF07805C333CE33F7
:10232A00CED8F9FBAA067C277D10FF12055590012D
:10233A007AEEF0A3EFF07C277D10AF03AE02120510
:10234A0055A3ECF0A3EDF07BFF7A1E79B37F02125E
:10235A00388F90010EE054076407700A7BFF7A1EDB
:10236A0079CD7F02801A90010EE0540764067BFF44
:10237A0070087A1E79DB7F0180067A1E79E77F046E
:10238A0012388F900110E0FEA3E0FF900178EEF082
:10239A00A3EFF07805C333CE33CED8F9FBAA067C77
:1023AA00277D10FF12055590017AEEF0A3EFF07C1D
:1023BA00277D10AF03AE02120555A3ECF0A3EDF092
:1023CA007BFF7A1E79F27F0512388F90010FE05455
:1023DA000F640D700A7BFF7A1F790C7F02803A9096
:1023EA00010FE0540F640E700A7BFF7A1F791A7F7F
:1023FA0003802690010FE0540F640F700A7BFF7A66
:10240A001F79277F01801290010FE0540F64097031
:10241A000B7BFF7A1F79357F0112388F90010DE00F
:10242A00541F640470087BFF7A1F793F804490012F
:10243A000DE0541F640370087BFF7A1F79558032C0
:10244A0090010DE0541F640270087BFF7A1F7974B3
:10245A00802090010DE0541F640170087BFF7A1FF1
:10246A007993800E90010DE0541F700A7BFF7A1F4A
:10247A0079B27F02801290010DE0541F6409700B3B
:10248A007BFF7A1F79D17F0112388F7BFF7A1F7900
:10249A00E87811E6C4540FFF900178E4F0A3EFF056
:0524AA007F0602388FDF
:103D2D00E4FFEFC3941D74809480500974222FF822
:053D3D00E4F60F80ED2B
:013D4200225E
:10356400EF24E6B40A00507090357A75F003A4C5D0
:103574008325F0C583730235A40235980235A2026F
:10358400359D0235A60235DC0235AE0235B802356A
:10359400C50235D1D2E9D2E822D2E8C2E9228005B7
:1035A400801530E817C2E8D2E92230E905C2E9D231
:1035B400E822800830E805C2E8C2E922D2E8D2E96C
:1035C4002230E904C2E98002D2E9C2E82230E804E8
:0935D400C2E88002D2E8C2E9223B
:03001300020026C2
:03002600C2AA3239
:03002300023AEBB3
:103AEB00C0E0C0D075D008309819744B2571F8A67A
:103AFB00990571C3E571941E7480948040037571B0
:0F3B0B0000C298309904C299C202D0D0D0E032E3
:03006300023A0C52
:103A0C00C0E0C0D075D008E5AA54016401701A5307
:103A1C00AAFE74222542F8A69A0542C3E542941EDA
:103A2C00748094804003754200E5AA5402640270CD
:0B3A3C000553AAFDC203D0D0D0E03239
:0B3DF800E542B543037F00227F01225B
:103CAE0053ADEF74222543F8E6FF0543E543C39475
:0D3CBE001E748094804003E4F54343AD1074
:013CCB0022D6
:080003002003FD8F9AD20322B5
:03002B00023DDDB6
:0F3DDD00C0E0C2CF0548E54870020547D0E0328C
:103CE700E5442FFFE433FE7C007D64120555E5446F
:073CF700B505FBE4B504F77D
:013CFE0022A3
:103DA8000D0A436C656172426173696345452E2E45
:023DB8002E00DB
:1031A70090017412082000000000E4FFFE123BC1EA
:1031B700EF6430600280287F017E00123BC1EF641C
:1031C700376002801A7F027E00123BC1EF643060D5
:1031D70002800C7F037E00123BC1EF64496006E466
:1031E700FFFEFDFC227F057E00123BC1EF7F00FE44
:1031F700C007C0067F047E00123BC17E00EF781037
:10320700C333CE33CED8F9FDD0E04EFED0E04DFF2C
:10321700C007C0067F067E00123BC1EFFDD0E0FE6F
:10322700D0E04DFFEE3395E0FDFC900174120814D9
:0E323700900174E0FCA3E0FDA3E0FEA3E0FF25
:013245002266
:1039D0007D30E4FFFE1238487D377F017E001238CB
:1039E000487D307F027E001238487D497F037E008B
:1039F000123848E4FD7F04FE123848E4FD7F05FEDE
:0C3A00001238487D0E7F067E0002384818
:103B1A007BFF7A3D79A81239547D017F107E00120D
:103B2A0038487D0E7F117E00123848E4FD7F07FE7B
:0B3B3A00123848E4FD7F12FE023848FC
:042B5000410105003A
:09196600123DF8EF7003021D515F
:10196F00123CAE900170EFF07E00647E700DC20BE2
:10197F0090010504F0E4900003F022EF647D4E70B7
:10198F0003D20B22300B09C20B900170E04470F0B0
:10199F00900105E0FB64046010900003E0FE9001ED
:1019AF0070E0FDEE6D900003F0EB24FE602E1460EE
:1019BF005B147003021A5F24036003021D51900130
:1019CF0070E0900002F01424F8500A24F924FD501E
:1019DF000424E370349001057402F022900170E04A
:1019EF00900001F0A3E01424F8500A24F924FD50CC
:1019FF000424E37014900001E070028049E4900029
:101A0F0000F09001057403F022021D4C900002E0DB
:101A1F001424F8500A24F924FD500424E3702E9066
:101A2F000170E0FF900000E02405F582E43400F53A
:101A3F0083EFF0900000E004F0A3E0FF900000E0DF
:101A4F006F6003021D519001057404F022021D4CBA
:101A5F00900170E0FF900003E06F6003021D4C9057
:101A6F000002E01208711A9D011AD4021AEE031A2D
:101A7F00F7041B00051C11061C4E071D27081C79B7
:101A8F00101C82111CE2121D1C3000001D4C900115
:101A9F0015E04401F090010FE054F0F0900115E0D3
:101AAF00FF131313541F13500EEF54F7F07F12123E
:101ABF0024AF7F081238D5900115E0C313135003DC
:101ACF00021D4C80117F191238D5900115E0C313F8
:101ADF00135003021D4C7D197F107E27021D227D9E
:101AEF00067FE87E03021D227D077FE87E03021D2D
:101AFF0022900005E0FDC4540F75F00AA4FFED54C9
:101B0F000F7C002FFDEC35F0FC120309900136120B
:101B1F000814900006E0FDC4540F75F00AA4FFED01
:101B2F00540F7C002FFDEC35F0FC120309900124BB
:101B3F00120814900007E0FDC4540F75F00AA4FFBB
:101B4F00ED540F7C002FFDEC35F0FC1203099001D2
:101B5F003A120814900008E0FDC4540F75F00AA45F
:101B6F00FFED540F7C002FFDEC35F0FC12030990B4
:101B7F000129120814900009E0FDC4540F75F00AF2
:101B8F00A4FFED540F7C002FFDEC35F0FC12030980
:101B9F0090013E12081490000AE0FDC4540F75F036
:101BAF000AA4FFED540F7C002FFDEC35F0FC12035F
:101BBF000990012D12081490000BE0FDC4540F750D
:101BCF00F00AA4FFED540F7C002FFDEC35F0FC1252
:101BDF00030990014212081490000CE0FDC4540F49
:101BEF0075F00AA4FFED540F7C002FFDEC35F0FCCF
:101BFF001203099001311208147D0C7FE87E030255
:101C0F001D22900005E0601390016FE0600414F056
:101C1F008005E490016FF07D02801A90016FE0C3A0
:101C2F009428748094805005E004F0800690016F32
:101C3F007428F07D037FF47E0112301C021D4C903E
:101C4F000005E0FD7C00700A900115E054FDF002E4
:101C5F001D4CED64014C6003021D4C7F191238D5E9
:101C6F00900115E04402F0021D4C7D047FE87E03D5
:101C7F00021D22900005E0703B900115E054FEF02C
:101C8F007F191238D57D197F607EEA122E5D7F1E77
:101C9F001238D57F1F1238D57F201238D57F2112E9
:101CAF0038D57F221238D57F231238D57D217F6416
:101CBF007E00805F900005E064016003021D4C9080
:101CCF000115E04408F07D087FE87E03122E5D7F4A
:101CDF00198035900005E0FD7C00640170099001CA
:101CEF0015E054EFF0801F900106E064017017EDCE
:101CFF004C7013900115E054EFF0E4900106F0FDE5
:101D0F007F10FE1238487F0A1238D580307D0B7F46
:101D1F00E87E03122E5D8025900005E064017010AF
:101D2F007D017F12FE1238489001357401F0800D4D
:101D3F00E4FD7F12FE123848E4900135F0E4900183
:021D4F0005F09D
:011D5100226F
:043D6D009291D290CD
:0F3D7100E4FFEFC394017480948050030F80F33C
:013D80002220
:0B384800900174EEF0A3EFF0A3EDF090
:10385300900174E0FEA3E07807CEC313CE13D8F92A
:1038630044A054FE900177F0123DBA900177E0FF37
:103873001234E9900174A3E0FF1234E9900176E079
:0C388300FF1234E91200167F02023CE73D
:043BC100AD07AC069A
:103BC500ED7807CEC313CE13D8F944A054FEFF12E7
:103BD5003A47900179EFF07F02123CE7900179E0D6
:013BE500FFE0
:013BE60022BC
:083A470090017AEFF0A3EDF00D
:103A4F00123DBA90017AE0FF1234E990017BE0FF5A
:103A5F001234E9123DBA90017AE04401FF1234E9C1
:103A6F0012002E90017CEFF012001690017CE0FF07
:013A7F002224
:103DBA00D291123D71D290123D71C291123D71C2DF
:023DCA00902245
:0D001600C291123D71D290123D71D2912223
:1034E900AE07C290EE30E703D38001C3123D6DC22F
:1034F90090EE30E603D38001C3123D6DC290EE30E9
:10350900E503D38001C3123D6DC290EE30E403D3CD
:103519008001C3123D6DC290EE30E303D38001C335
:10352900123D6DC290EE30E203D38001C3123D6DAE
:10353900C290EE30E103D38001C3123D6DC290EE1B
:1035490030E003D38001C3123D6DC290C290C29096
:0B355900D291D290D290D290C290226A
:10002E00E4FED291123D71C290E4FDFCD290EE2519
:10003E00E0FE3091034401FEC2900DBD00010CEDB7
:10004E0064084C70E7123D71D290D290D290C2905B
:02005E00AF06EB
:01006000227D
:10346B00AE07C290EE30E703D38001C3123D6DC2AD
:10347B0090EE30E603D38001C3123D6DC290EE3067
:10348B00E503D38001C3123D6DC290EE30E403D34C
:10349B008001C3123D6DC290EE30E303D38001C3B4
:1034AB00123D6DC290EE30E203D38001C3123D6D2D
:1034BB00C290EE30E103D38001C3123D6DC290EE9A
:1034CB0030E003D38001C3123D6DC290C290C29015
:0E34DB00D291123D71D290D290D290C2902226
:043C4F00AB07AA060F
:103C53007E5E123DBA7F5E12346BAF0312346BAFDC
:0C3C63000512346B1200167F02023CE7D1
:103B45007F01123CCCEF602190025FE064017010B0
:103B5500900106E0640170087D057FF47E01800612
:0A3B65007D147F647E00122E5D22A5
:103CCC00A2019209C2012009037F0022EF6003AF19
:0A3CDC004622200003AF46227F00BD
:013CE60022BB
:102984000D0A456E636F72646572436F756E743DB4
:102994002564000D0A456E636F72646572436F753A
:1029A4006E7454656D703D256420000D0A456E6398
:1029B4006F726465724C656E5F4F66667365743DD5
:1029C400256420000D0A456E636F72646572436F5F
:1029D400756E74504E3D256420000D0A74656D704B
:1029E4005F456E636F72646572436F756E74546590
:1029F4006D703D256420000D0A456E636F72646539
:102A0400724C656E3D256420000D0A456E636F723D
:102A1400646572436F756E743D256420000D0A452C
:102A24006E636F726465724C656E696E743D256485
:102A340020000D0A456E636F726465724C656E54B6
:102A4400656D703D25642E25646D20000D0A456E6C
:102A5400636F726465724C656E666C6F6161743D20
:102A6400256420000D0A5374617274204D61696EEF
:102A7400204C6F6F702E2E2E000D0A5374617274E9
:102A840020426F6F742E2E2E000D0A2843616D654F
:102A94007261566F6C743D256429000D0A285053E9
:102AA4005720676F696E6720746F20706F77657247
:102AB400206F66662E2E2E29000D0A28537461722B
:102AC400742075702020506F776572204F6E204DF2
:0C2AD4006F64652E2E2E2900000000000B
:102B540045010D0000000000410115004201120072
:102B64000044013642C8000044013A42C80000440F
:102B7400013E42C8000044014242C800004401240E
:102B8400000000004401290000000044012D000061
:102B94000000440131000000004601070000002845
:102BA400001546011600000028001560290146059D
:102BB40006080A0B0D0F10121416181A1C1E2022D8
:102BC40025272A2C2F3235383B3E4245484B505559
:082BD400585D61666B70757AB3
:103AB80075E5028DE3900179E0F5E41204B9F5E2C9
:103AC80075E64675E6B9740129F9E43AFA90017980
:103AD800E004F0E070030D8DE390017AE014F0E06B
:033AE80070D32276
:04000E0075E78122EF
:103C2E00E4900174F012000E7B017A017974900118
:103C3E007974FFF0A37401F07DEF123AB875E76066
:013C4E002253
:1030FA00FF6DFD9001937401F0A37401F0A3748E27
:0A310A00F0EFA3F07B017A01797E5B
:10311400900190EBF0A3EAF0A3E9F0900196E0FFB0
:10312400647E6005EF647D703F900193E0FBA3E053
:10313400FAA3E0F91204B9FF900190E0FBA3E0FACE
:10314400A3E0F98F82758300747D120521900193A9
:10315400E0FBA3E0FAA3E0F974011204FF900196E6
:10316400E0540F4450FF8010900196E0FF900193CB
:10317400E0FBA3E0FAA3E0F91204B9FE900190E0A9
:10318400FBA3E0FAA3E0F98E82758300EF12052118
:10319400900193E0FBA3E0FAA3E0F974011204FFA9
:0331A4007F002287
:0B32460090017AEBF0A3EAF0A3E9F09E
:1032510090017E747EF090018E7401F0EF1230FCCB
:1032610090017DE01230FAE490018FF090017DE051
:10327100FF90018FE0FEC39F501E90017AE0FBA3F7
:10328100E0FAA3E0F98E827583001204D21230FABB
:1032910090018FE004F080D49001937401F0A37445
:1032A10001F0A3748EF0ED12310CE490018FF090D7
:1032B100018EE0FFA3E0FEC39F5017747E2EF582BE
:1032C100E43401F583E0FF12000390018FE004F084
:0432D10080DD7F001D
:0132D50022D6
:05267700900174EFF07A
:10267C0078757C017D017BFF7A2A79DC7E007F04F2
:10268C00120493900174E0247F604E1470030227AF
:10269C00C11470030227EC1470030227FC2404609D
:1026AC000302280D7F047E00123BC1900175EFF0F0
:1026BC007F057E00123BC1900176EFF07F067E0015
:1026CC00123BC1900177EFF07B017A017975900193
:1026DC007D7403F07F8002280A90010DE0FB541FEB
:1026EC00900175F0900114E0FF75F00A84C454F069
:1026FC00FEEF75F00A84E5F04E900177F090011D25
:10270C00E0FEA3E0FF7C007D0A120555EFC454F0F7
:10271C00FA90011DE0FEA3E0FF7C007D0A12055536
:10272C00EA4D900178F0900123E0900179F0EBC430
:10273C0013135403135007900176E04401F09001F9
:10274C000EE05407FD7C0064067007900176E044AF
:10275C0002F0ED64084C7007900176E04404F090B0
:10276C00010DE0C4135407135007900176E04408A0
:10277C00F090010EE0C4540F135007900176E04422
:10278C0010F090010EE0FDC4135407135007900194
:10279C0076E04420F0EDC41313540313500790015A
:1027AC0076E04440F07B017A01797590017D7405E7
:1027BC00F07F81804990010DE0FFC4131313540185
:1027CC0013500D9001757401F0EF547F90010DF0D2
:1027DC007B017A01797590017D7401F07F82801EF6
:1027EC007B017A01797590017D7401F07F83800EF5
:1027FC007B017A01797590017D7401F07F8412322E
:01280C004685
:01280D0022A8
:103A8000123C0C7D117F017E00122E5D7D137F881C
:103A90007E13122E5D7D157F017E00122E5D7D1E30
:103AA0007F017E00122E5D7D107F017E00122E5D53
:083AB00090010DE04440F022FA
:10280E00900176EEF0A3EFF0A3EBF0A3EAF0A3E9CC
:01281E00F0C9
:10281F00900004120637FDD3EF9DE5F06480F8EECB
:10282F0064809840030228C290017EE0FBA3E0FA87
:10283F00A3E0F9900004120637FFAEF012060CFD6C
:10284F00C3EF9DFFEE95F0900181F0A3EFF09001A3
:10285F0078E0FBA3E0FAA3E0F9900004120637FD3D
:10286F00ACF012060CFBAAF0C3ED9BFFEC9AFE90A6
:10287F000183F0A3EFF04E7002FF22900176E0FE8D
:10288F00A3E0FFC3EF9BFFEE9AFE900181E0FCA354
:10289F00E0FD120543A3E0FCA3E0FD1205AAC0066C
:1028AF00C00790017EE0FBA3E0FAA3E0F912060C4B
:1028BF0002296690017EE0FBA3E0FAA3E0F9900005
:1028CF0004120637FFAEF0900002120637C39FFFC7
:1028DF00E5F09E900181F0A3EFF0900178E0FBA36B
:1028EF00E0FAA3E0F9900004120637FFAEF0900073
:1028FF0002120637C39FFFE5F09EFE900183F0A3FF
:10290F00EFF04E7002FF22900178E0FBA3E0FAA3F4
:10291F00E0F9900004120637FFAEF0AB07AA06905D
:10292F000176E0FEA3E0FFC3EF9BFFEE9AFE90015E
:10293F0081E0FCA3E0FD120543A3E0FCA3E0FD1240
:10294F0005AAC006C00790017EE0FBA3E0FAA3E052
:10295F00F9900004120637FFAEF0D0E02FFFD0E061
:10296F003EF990017BE0FBA3E0FAA3E0C98FF012E0
:04297F00066F7F015F
:012983002231
:103916007E0090017B7401F0A37401F0A37474F02F
:10392600A37401F0A37401F0A37416F07B017A016D
:10393600790712280E900174E0FEA3E02446F58272
:0E39460074013EF583E0FD7F027E00023C4FDF
:103BE7007F107E00123BC1900106EFF07F117E002F
:103BF700123BC190016FEFF07F127E00123BC19024
:053C07000135EFF02281
:103C6F00EF4488F5C5E5C520E3FBAFC6EF75F0045B
:103C7F00A4FFE5E85403FDEF4DFFE5F05403FE22EA
:073E0300E4FE7F06023C6FA4
:073E0A00E4FE7F07023C6F9C
:1008F200200503020FA17BFF7A297984900257E039
:10090200FFA3E0900195CFF0A3EFF0123954E4FF7A
:10091200FE7DC87C42900124E0F8A3E0F9A3E0FA4E
:10092200A3E0FB12015E900136E0F8A3E0F9A3E038
:10093200FAA3E0FB12006D7B0A7AD77923783C1286
:10094200015E900176120814E4FFFE7DC87C42909D
:100952000129E0F8A3E0F9A3E0FAA3E0FB12015EAB
:1009620090013AE0F8A3E0F9A3E0FAA3E0FB120059
:100972006D7B0A7AD77923783C12015E90017A1254
:100982000814E4FFFE7DC87C4290012DE0F8A3E04C
:10099200F9A3E0FAA3E0FB12015E90013EE0F8A3A6
:1009A200E0F9A3E0FAA3E0FB12006D7B0A7AD779A3
:1009B20023783C12015E90017E120814E4FFFE7D52
:1009C200C87C42900131E0F8A3E0F9A3E0FAA3E089
:1009D200FB12015E900142E0F8A3E0F9A3E0FAA362
:1009E200E0FB12006D7B0A7AD77923783C12015E14
:1009F2009001821208147F007EB07DE57C45900153
:100A020076E0F8A3E0F9A3E0FAA3E0FB12015EE4CA
:100A1200FBFA797A78441202679001861208147FF1
:100A2200E17E987DD27C4590017AE0F8A3E0F9A3BB
:100A3200E0FAA3E0FB12015EE4FBFA797A78441251
:100A42000267900186E0F8A3E0F9A3E0FAA3E0FBD5
:100A520012006D90018A1208147F487EC17D2C7CA1
:100A62004690017EE0F8A3E0F9A3E0FAA3E0FB12CE
:100A7200015EE4FBFA797A784412026790018AE017
:100A8200F8A3E0F9A3E0FAA3E0FB12006D90018E57
:100A9200120814900257E0FEA3E0FFC3EE648094B4
:100AA200804008E4900123F0FC8017900123740138
:100AB200F0900257E0FEA3E0FFC3E49FFFE49EFE36
:100AC2007C007D021205AA900170EEF0A3EFF09077
:100AD2000170E0FEA3E0D394F0EE94004003020C18
:100AE2001BC3EE94005003020C1B7BFF7A297997FB
:100AF200900170A3E0FF900195EEF0A3EFF01239A0
:100B0200547BFF7A2979AF900112E0FFA3E09001B4
:100B120095CFF0A3EFF01239547BFF7A2979C89070
:100B22000123E0FF900195E4F0A3EFF0123954E4C1
:100B3200FFFE7DF57C41900176E0F8A3E0F9A3E0A9
:100B4200FAA3E0FB12015EC004C005C006C0079014
:100B52000170E0FCA3E0FDE4120309D003D002D04F
:100B620001D00012015EE4FBFA797A78441202673E
:100B720090011F120814E4FFFE7DF57C419001767E
:100B8200E0F8A3E0F9A3E0FAA3E0FB12015EC004DF
:100B9200C005C006C007900170E0FCA3E0FDE412AE
:100BA2000309D003D002D001D00012015E12034229
:100BB200900172EEF0A3EFF07FCD7ECC7D4C7C3DB8
:100BC20090011FE0F8A3E0F9A3E0FAA3E0FB120012
:100BD2006D120342900114EFF07FCD7ECC7D4C7CF0
:100BE2003D90011FE0F8A3E0F9A3E0FAA3E0FB12B5
:100BF200006DE4FBFA79C8784212015E120342905A
:100C0200011DEEF0A3EFF07C007D6412055590010A
:100C12001DECF0A3EDF0020F9F900170E0FEA3E047
:100C2200FFD394F0EE94005003020D66D3EF94C20A
:100C3200EE94014003020D667F2F7E5D7D007C42B3
:100C420090017AE0F8A3E0F9A3E0FAA3E0FB120135
:100C52005EC004C005C006C007900171E02410FD0B
:100C6200900170E034FFFCE4120309D003D002D0FB
:100C720001D00012015EE4FBFA797A78441202672D
:100C8200900186E0F8A3E0F9A3E0FAA3E0FB1200EA
:100C92006D90011F1208147BFF7A2979DE900112F0
:100CA200E0FEA3E0FFC374F09FFFE49EFEC3900149
:100CB20075E09FFF900174E09E900195F0A3EFF024
:100CC2001239547BFF7A2979AF900112E0FFA3E039
:100CD200900195CFF0A3EFF01239547BFF7A297976
:100CE200DE900174E0FFA3E0900195CFF0A3EFF056
:100CF20012395490011FE0FCA3E0FDA3E0FEA3E043
:100D0200FF120342900195EEF0A3EFF07BFF7A29E8
:100D120079FB1239547BFF7A2A790D900257E0FF52
:100D2200A3E0900195CFF0A3EFF01239547FCD7E6E
:100D3200CC7D4C7C3D90011FE0F8A3E0F9A3E0FAE2
:100D4200A3E0FB12006D120342900114EFF07BFF4F
:100D52007A2A7921E0FF900195E4F0A3EFF01239AD
:100D620054020E1D900170E0FEA3E0FFD394C2EE88
:100D720094015003020E4ED3EF940CEE9403400301
:100D8200020E4E7F197E047D067C4290017EE0F8C1
:100D9200A3E0F9A3E0FAA3E0FB12015EC004C005E0
:100DA200C006C007900171E0243EFD900170E0345E
:100DB200FEFCE4120309D003D002D001D0001201DC
:100DC2005EE4FBFA797A784412026790018AE0F8CD
:100DD200A3E0F9A3E0FAA3E0FB12006D90011F1259
:100DE20008147BFF7A2A790D900257E0FFA3E09066
:100DF2000195CFF0A3EFF01239547FCD7ECC7D4C1C
:100E02007C3D90011FE0F8A3E0F9A3E0FAA3E0FB28
:100E120012006D120342900114EFF07FCD7ECC7D63
:100E22004C7C3D90011FE0F8A3E0F9A3E0FAA3E0B7
:100E3200FB12006DE4FBFA79C8784212015E1203DC
:100E42004290011DEEF0A3EFF0020F74D3900171F6
:100E5200E0940C900170E094035003020F9F7F8195
:100E62007E957D0B7C42900182E0F8A3E0F9A3E03D
:100E7200FAA3E0FB12015EC004C005C006C00790E1
:100E82000171E024F4FD900170E034FCFCE41203F3
:100E920009D003D002D001D00012015EE4FBFA793E
:100EA2007A784412026790018EE0F8A3E0F9A3E099
:100EB200FAA3E0FB12006D90011F1208147BFF7A67
:100EC2002A790D900257E0FFA3E0900195CFF0A39D
:100ED200EFF012395490011FE0FCA3E0FDA3E0FE05
:100EE200A3E0FF120342900195EEF0A3EFF07BFF27
:100EF2007A2979FB1239547FCD7ECC7D4C7C3D9092
:100F0200011FE0F8A3E0F9A3E0FAA3E0FB12006DF1
:100F1200120342900114EFF07BFF7A2A7921E0FF5D
:100F2200900195E4F0A3EFF01239547FCD7ECC7D91
:100F32004C7C3D90011FE0F8A3E0F9A3E0FAA3E0A6
:100F4200FB12006DE4FBFA79C8784212015E1203CB
:100F52004290011DEEF0A3EFF07BFF7A2A795090C8
:100F62000195EEF0A3EFF012395490011DE0FEA3BB
:100F7200E0FF7C007D6412055590011DECF0A3EDAD
:100F8200F07BFF7A2A7936900114E0FF900195E414
:0F0F9200F0A3EFF0A3ECF0A3EDF0123954C20579
:010FA100222D
:103C8F007BFF7A2A7968123954121966123362123D
:0F3C9F0033E7123B451208F2900106E070EB226A
:1035DD00123762123B997BFF7A2A797D1239541288
:1035ED002D42D2B4D2B5123D2D123BE7123A809046
:1035FD00016FE0FF1239167BFF7A2A798D90016FEA
:10360D00E0FF900195E4F0A3EFF0123954900135ED
:10361D00E06401700590010604F0900106E064017C
:10362D0078117008E654F04402F68006E654F04432
:10363D0001F6900106E064017003123C8F123712FF
:02364D0080F00B
:103712007BFF7A2A799F1239547811E654F04401DA
:10372200F6900115E054FEF07F191238D59001157C
:10373200E054EFF07F0A1238D51233E712336212E7
:103742003B45900106E0640170EFE4F542F54378F1
:1037520011E654F04402F67BFF7A2A79BD0239540D
:0D2BDC0001108A4101D600C187C108C186E1
:1037B0001B5B306D001B5B303B33316D001B5B309E
:1037C0003B33326D001B5B303B33336D001B5B3092
:1037D0003B33346D001B5B303B33356D001B5B307E
:1037E0003B33366D001B5B303B33376D003031327D
:0E37F0003334353637383941424344454600BC
:102BE900580231FF37B0FF37B5FF37BDFF37C5FF93
:0B2BF90037CDFF37D5FF37DDFF37E594
:080FA200E0FBA3E0FAA3E0F973
:0B0FAA009001C0EBF0A3EAF0A3E9F017
:100FB5009001CE120820000000019001C0E0FBA3C3
:100FC500E475F0011205F6A9F0FA1204B99001C60C
:100FD500F070030214F724DB701B9001C0E0FBA343
:100FE500E0FAA3E0F91204B9B425139001C1E47540
:100FF500F0011205E02002FD9001C60214CDC209E0
:10100500C20AE49001CDF09001C0E0FBA3E475F0C5
:10101500011205F6A9F0FA1204B99001C6F0E0FD37
:10102500B4301BD2099001C0E0FBA3E475F00112B6
:1010350005F6A9F0FA1204B99001C6F0801FEDFF7C
:101045003395E0FEC3EF9430EE64809480402CD35A
:10105500EF9439EE6480948050219001C6E024D04D
:101065009001CDF09001C0E0FBA3E475F0011205FD
:10107500F6A9F0FA1204B99001C6F09001CC7402F9
:10108500F09001C6E024BE602B24E0602724F660C2
:10109500042420703C9001C0E0FBA3E475F001122C
:1010A50005F6A9F0FA1204B99001C6F09001CC74C6
:1010B50004F0801D9001C0E0FBA3E475F00112056A
:1010C500F6A9F0FA1204B99001C6F09001CC7401AA
:1010D500F09001C6E0FF24A8700302138624F57082
:1010E500030214A224F0700302145524FE600E249A
:1010F500FD7003021386241460030214D59001CCFD
:10110500E024FE604224FE607B240360030211A6F6
:10111500EF9001C3B46419E0FBA3E475F001120577
:10112500F6A9F0FA1204B9FF3395E0FEFDFC806BD9
:10113500E0FBA3E475F0011205F6A9F0FA1204B973
:10114500FFE4FCFDFE80549001C6E09001C3B46449
:101155001BE0FBA3E475F0021205F6A9F0FA1206EE
:101165000CFFAEF0EE3395E0FDFC8016E0FBA3E44A
:1011750075F0021205F6A9F0FA12060CFFAEF0E4BE
:10118500FCFD80179001C6E09001C3E0FBA3E47568
:10119500F0041205F6A9F0FA1207F49001C8120836
:1011A500149001C8E0FCA3E0FDA3E0FEA3E0FFEC82
:1011B5003350252002FD75992DD2029001C8E0FC1F
:1011C500A3E0FDA3E0FEA3E0FF74FFFBFAF9F8122C
:1011D500068E9001C81208149001CDE0600302123A
:1011E5006C9001C8E0FCA3E0FDA3E0FEA3E0FFECEA
:1011F5004D4E4F700B2002FD759930D202020FBF84
:10120500E49001CDF0A3120820000000019001CD6B
:10121500E0C3940A74809480504D9001C8E0FCA30B
:10122500E0FDA3E0FEA3E0FF9001CEE0F8A3E0F926
:10123500A3E0FAA3E0FB120719E4FBFAF9F8C312DD
:1012450007CF60239001CEE0FCA3E0FDA3E0FEA361
:10125500E0FFE47B0AF812068E9001CE1208149086
:1012650001CDE004F080A6E49001C7F09001CE1214
:101275000820000000019001CDE024FFFFE434FFC9
:10128500FE9001C7E0FD3395E0FCC3ED9FEE648061
:10129500F8EC64809850259001CEE0FCA3E0FDA316
:1012A500E0FEA3E0FFE47B0AFAF9F812068E90014E
:1012B500CE1208149001C7E004F080BA9001C8E08E
:1012C500FCA3E0FDA3E0FEA3E0FF9001CEE0F8A3C0
:1012D500E0F9A3E0FAA3E0FB120719EF2430FF9031
:1012E50001C6F0BF3025200922E47F01FEFDFC90F8
:1012F50001CEE0F8A3E0F9A3E0FAA3E0FBC31207EF
:10130500CF60089001C67420F08002D2092002FD4A
:101315009001C6E0F599D2029001C8E0FCA3E0FD7A
:10132500A3E0FEA3E0FF9001CEE0F8A3E0F9A3E07F
:10133500FAA3E0FB120719AC00AD01AE02AF0390B2
:1013450001C81208149001CEE0FCA3E0FDA3E0FE65
:10135500A3E0FFE47B0AFAF9F81207199001CE120F
:101365000814E4FFFEFDFC9001CEE0F8A3E0F9A32C
:10137500E0FAA3E0FBC31207CF60030212C1020F1C
:10138500BF9001CCE024FE602224FE603924037066
:101395004E9001C3E0FBA3E475F0011205F6A9F038
:1013A500FA1204B9FFE4FCFDFE802E9001C3E0FBB8
:1013B500A3E475F0021205F6A9F0FA12060CFFAEC9
:1013C500F0E4FCFD80139001C3E0FBA3E475F00499
:1013D5001205F6A9F0FA1207F49001C81208149044
:1013E50001CDE070089001CCE025E0A3F0E4900188
:1013F500C7F09001CDE0FF9001C7E0FD3395E0FC1B
:10140500C3ED9F7480F86C984003020FBF2002FD66
:101415009001C7E0FF9001CDE0C39F1425E025E0D2
:10142500F99001C8E0FCA3E0FDA3E0FEA3E0FFA85E
:10143500011207E07E00EF540F24EDF582EE3437FC
:10144500F583E493F599D2029001C7E004F080A2F8
:101455009001C3E0FBA3E475F0031205F6A9F0FAC9
:101465001208519001D2EBF0A3EAF0A3E9F0900144
:10147500D2E0FBA3E0FAA3E0F91204B97003020F6E
:10148500BF2002FD9001D2E0FBA3E475F001120537
:10149500F6A9F0FA1204B9F599D20280D19001C3E8
:1014A500E0FBA3E475F0021205F6A9F0FA12060CAA
:1014B500FFAEF0EE3395E0FDFC9001C81208142054
:1014C50002FD9001C8A3A3A3E0F599D202020FBFC4
:1014D5009001C3E0FBA3E475F0021205F6A9F0FA4A
:1014E50012060CFFAEF0E4FCFD9001C812081402D0
:0214F5000FBF27
:0114F70022D2
:0B395400900192EBF0A3EAF0A3E9F071
:10395F009001BD7401F0A37401F0A37495F0900170
:10396F00BDE0F9A3E0FAA3E09001C3C9F0A3EAF028
:10397F00A3E9F0900192120FA29001BDE4F0A3F021
:02398F00A3F0A3
:013991002213
:0B399200900170EBF0A3EAF0A3E9F055
:10399D0090019B7401F0A37401F0A37473F0900176
:1039AD009BE0F9A3E0FAA3E09001C3C9F0A3EAF00C
:1039BD00A3E9F0900170120FA290019BE4F0A3F027
:0239CD00A3F065
:0139CF0022D5
:0E388F00900174EFF0A3EBF0A3EAF0A3E9F0D0
:10389D009001A07401F0A37401F0A37478F090016D
:1038AD00A0E0F9A3E0FAA3E09001C3C9F0A3EAF008
:1038BD00A3E9F0900175120FA29001A0E4F0A3F01E
:0738CD00A3F090017404F068
:0138D40022D1
:103CFF000A0D537973506F776572496E69746961F4
:083D0F006C2E2E4F4B21210008
:042C040002110000B9
:103B9900D283C2A1D284D282C2A1C2B7C286C2EAEA
:103BA900C2A6C2A2D2E8D2E97FC87E00123D437BF9
:083BB900FF7A3C79FF0239920A
:1033E7007811E6FF540F14602D24FA6050240570FD
:1033F70063EFC4540F601024F960082406700DE4CD
:10340700FF80067F0380027F01123B6F7811E6542D
:103417000F4420F6803E7811E6C4540F600C24FE5A
:10342700600C24FB700D7F0480067F0280027F06FC
:10343700123B6F7811E6540F4410F680177811E6A7
:10344700C4540F24FE70057F05123B6F7811E654B4
:103457000F4470F67811E6FF54F0C4540FFEEF5492
:04346700F04EF6220B
:1024AF00900174EFF07F1E1238D57F1F1238D57F41
:1024BF00201238D57F211238D57F221238D57F23AD
:1024CF001238D5900174E024F7700302260C24FC17
:1024DF0070030225C714700302258024FD700302C8
:1024EF00265614700302266024036003022676E446
:1024FF00FD7F141236B390010FE0440FF0900115D9
:10250F00E013400B900106E06401700302259F78F1
:10251F0011E6C4540F6407703090010DE0C413131B
:10252F005403135002801E900106E070057D1B02BC
:10253F00264990010DE0541FFF64036005EF640905
:10254F0070030226587D1F80687811E6C4540F640B
:10255F0002701990010DE0541FFF64036005EF64D2
:10256F000970047D22804A7D1C0226067D1B0226EF
:10257F00067DFF7F141236B390010FE054F0440E26
:10258F00F0900115E013400D900106E06401700515
:10259F007D1E0226497811E6C4540F64077014900B
:1025AF00010DE0C4131354031350047D2380027DE7
:1025BF001E80447D1A02266F7D287F141236B39039
:1025CF00010FE054F0440DF0900115E013400C9012
:1025DF000106E0640170047D1E805F7811E6C4542B
:1025EF000F6407701490010DE0C4131354031350BC
:1025FF00047D2180027D1E80677D1D8044E4FD7F68
:10260F00141236B390010FE054F04409F090011505
:10261F00E013400C900106E0640170047D1E801AE7
:10262F007811E6C4540F640270047D1C800C78117D
:10263F00E6C4540F640770077D1F7F64FE80257DFD
:10264F001B7F647E00801DD2827D217F647E00808F
:10265F0013C282900115E01350047D1C80027D216E
:08266F007F647E00122E5D2243
:10364F00EF24FE602F240224FC500A602714603EF2
:10365F001460218047C283D2A1C284C282D2B7D262
:10366F0086D2EAD2A6D2A2D2B67F407E00123D43C6
:10367F00D2A08028C2A0D283D284C2A1D282C2A1FA
:10368F00C2B7C2EAC2A6C2A2C2B6C286800EC2A189
:10369F00D284C2B7C2EAC2A6C2A2C28690010FE00C
:0436AF0054F0F022C1
:103B6F00900170EFF024FE601824FE601C146011A9
:103B7F0014600E240624F85008600624F6600280B4
:0A3B8F0008900170E0FF12364F228B
:033E11002D3E0043
:0B2C0800C10C42020C000041022E0033
:103D4300EF4E6010C20C300CFDC20CEF1F70011E51
:053D5300144E70F22285
:103D8100EF75F003A42411F582E43402F583E0FE1B
:043D9100A3E0FF228A
:103D5800EF75F003A42410F582E43402F583E0C380
:053D680013547FFF224F
:103D9500EF75F003A42410F582E43402F583E054B2
:033DA500FEF0220B
:103DCC00EF75F003A42410F582E43402F583E013BC
:013DDC0022C4
:1037FE0090020CE0FFA3E090017ECFF0A3EFF090DB
:10380E00017EE0FEA3E0FFC390020DE09FFF900259
:10381E000CE09EFE123DECD3EF947FEE648094801C
:10382E00400F90020CE0FFA3E090017ECFF0A3EFDB
:09383E00F090017EE0FEA3E0FF22
:01384700225E
:082C1400900179EEF0A3EFF04E
:102C1C00E4A3F0A3F0A3F01237FE90017CEEF0A336
:102C2C00EFF0900179E0FEA3E0FFE4FCFD7B487A35
:102C3C00EEF9F8C31207B9500A90017974EEF0A3BB
:102C4C007448F0900179E0FEA3E0FF90017DE02F45
:102C5C00FF90017CE03EFEE4FCFD7B487AEEF9F847
:102C6C00C31207B9401F900179E0FEA3E0FF900169
:102C7C007CE0FCA3E0FD2FFFEC3EFED3ED9FEC9E31
:102C8C005003022D39E490020CF0A3F090017BF07C
:102C9C0090017BE0FFC3940A748094804003022D62
:102CAC0032EF75F003A42410F582E43402F583E0CE
:102CBC0054016401706790017BE0FF75F003A4245C
:102CCC0011F582E43402F583E0FCA3E0FD90017C75
:102CDC00E0FAA3E0FBD3ED9BEC9A402CEF75F003EC
:102CEC00A42411F582E43402F583C083C082C3A30B
:102CFC00E09BFF0582D5820215831582E09AD08273
:102D0C00D083F0A3EFF0801590017BE075F003A465
:102D1C002411F582E43402F583E4F0A3F090017BF6
:102D2C00E004F0022C9CE490017CF0A3F090017C78
:052D3C00E0FEA3E0FF32
:012D4100226F
:103C0C00E4FFEFC3940A748094805015EF75F003B1
:103C1C00A42410F582E43402F583E054FEF00F8006
:013C2C00E1B6
:013C2D002274
:092E54001238D57D167F647E0062
:0B2E5D00900175EEF0A3EFF0A3EDF084
:102E6800E4A3F0F0900178E0FFC3940A74809480A2
:102E7800502EEF75F003A42410F582E43402F58394
:102E8800E0FF540164017010EFC313547FFF9001F9
:102E980077E06F7003022F3B900178E004F080C464
:102EA800E4900178F0900178E0FFC3940A7480946C
:102EB800804003022F3BEF75F003A42410F582E451
:102EC8003402F583E0FF54017060900178E0FE75EC
:102ED800F003A42410F582E43402F583EF4401F0F2
:102EE800900177E0547F25E0FFEE75F003A42410ED
:102EF800F582E43402F583E054014FF0900175E067
:102F0800FEA3E0FF122C14900176E02FFF900175CC
:102F1800E03EFE900178E075F003A42411F582E408
:102F28003402F583EEF0A3EFF022900178E004F08C
:032F3800022EADB9
:012F3B002273
:1038D500E4FEEEC3940A748094805034EE75F003D0
:1038E500A42410F582E43402F583E0FD540164015B
:1038F500701BEDC313547FB50713EE75F003A424B5
:1039050010F582E43402F583E054FEF0220E80C205
:01391500228F
:0B301C00900171EEF0A3EFF0A3EDF0C7
:10302700E4A3F0F0900174E0FFC3940A74809480E5
:10303700502DEF75F003A42410F582E43402F583D4
:10304700E0FF54016401700FEFC313547FFF900139
:1030570073E0B507028064900174E004F080C5E472
:10306700900174F0900174E0FFC3940A7480948017
:1030770040030230F9EF75F003A42410F582E4341D
:1030870002F583E0FF54017060900174E0FE75F073
:1030970003A42410F582E43402F583EF4401F09091
:1030A7000173E0547F25E0FFEE75F003A42410F5CB
:1030B70082E43402F583E054014FF0900171E0FEA1
:1030C700A3E0FF122C14900172E02FFF900171E032
:1030D7003EFE900174E075F003A42411F582E434F8
:1030E70002F583EEF0A3EFF022900174E004F00202
:0230F700306B3C
:0130F90022B4
:102F3C00EFB40E00400302301B902F4CF82828737E
:102F4C00022F7602301B022F83022F83022F97024F
:102F5C002F9B022FAC022FC5022FDB02301B02303D
:102F6C000102301602301B0230197BFF7A3E7911B8
:102F7C00123954E4FD807390016FE0FF1239169002
:102F8C00016FE0FD7F117E000238487F80800E903B
:102F9C00010DE0C4131354031350747F830226777E
:102FAC00900115E0FF1313543F1340637811E6545E
:102FBC00F04407F6EF4404F022E4900257F0A3F03B
:102FCC00900114F090011DF0A3F0900123F02290D9
:102FDC000115E0FF131313541F135014EF54F7F0A3
:102FEC0054FEF07F111224AF7D087FE87E0380171A
:102FFC007F120224AF900115E04410F07F8212265C
:10300C00777D0A7F987E3A022E5D023C2ED2B72243
:10336200E4900170F0A3F0A3F0A3F0900170F0904C
:103372000170E0C3940A7480948050681237FE9002
:103382000172EEF0A3EFF0900170E0FF123DCC501D
:103392004B900170E0FF123D81D3900173E09F904A
:1033A2000172E09E4036900170E0FF123D9590015F
:1033B20070E0FF123D58900171EFF0C3940F7480DA
:1033C20094805007E0FF122F3C8011900171E0FFC2
:1033D200C394297480948050031214F8900170E011
:0433E20004F0808BE8
:0133E60022C4
:1014F800EF24F0B41900400302196590151175F036
:1015080003A4C58325F0C583730215AB0216080230
:1015180019650216FE0216C30217B50218920219BF
:10152800650219650217A502156802155C021560A7
:1015380002156402156D02157902158302158D02D4
:1015480015970215A10218EF0218FD02190B0219CE
:10155800190219287F1B800A7F1C80067F1D8002C4
:101568007F1A0235647F1E1235647D1E7FFA0218C9
:10157800B57F1E1235647D1F0217AE7F20123564B9
:101588007D200217AE7F211235647D210217AE7FC0
:10159800221235647D220217AE7F231235647D2323
:1015A8000217AE123D17EF6401701F90010DE0C4E1
:1015B800131354031340387F16123DCC5003122ED8
:1015C800547F15123DCC5027801D90010DE0C413A7
:1015D8001354031350197F16123DCC5003122E5486
:1015E8007F15123DCC50081238D57D15122E599012
:1015F8000115E01350057F811226777D100217AE82
:10160800123E0A900110EEF0A3EFF0C394C8EE94D6
:1016180000500F90010DE04420F054E04409F0021E
:1016280016BE90010DE054DFF0900110E0FCA3E03D
:10163800FDD394C3EC9402500B90010DE054E044A8
:1016480004F08072D3ED94C3EC9402401AD3900155
:1016580011E09418900110E09403500B90010DE0F4
:1016680054E04403F0804F900110E0FEA3E0FFD364
:101678009418EE94034014D3EF943FEE9403500B68
:1016880090010DE054E04402F0802B900110E0FE40
:10169800A3E0FFD3943FEE94034014D3EF946CEE91
:1016A8009403500B90010DE054E04401F080079042
:1016B800010DE054E0F07D11021868900115E0FF7B
:1016C8001313543F1350117811E654F04402F6EF07
:1016D80054FBF07F84022677900106E064017008CD
:1016E8007D0A7F64FE0219629001067401F0FD7F95
:1016F800107E00023848123E0390022FEEF0A3EF4E
:10170800F090010FE0540F640F700A90010EE0444E
:1017180007F002179C90022FE0FCA3E0FDC394326F
:10172800EC9400500990010EE054F8F08066D3ED77
:101738009432EC94004016900230E094C890022F46
:10174800E09400500890010EE04440804390022F3E
:10175800E0FEA3E0FFD39420EE94034014EF9484BA
:10176800EE9403500C90010EE04420F054BFF0803A
:1017780023D3900230E094E890022FE09403900184
:101788000EE0400754F84406F080094407F054BFBF
:10179800F054DFF07D137F107E2702196290011547
:1017A800E04408F07D087FE87E03021962123D17C5
:1017B800EF6401600302186F90010DE0FFC413137A
:1017C8005403134016EF4440F0D2EA7F327E0012F1
:1017D8003D43C2A6E4FD7F141236B390010DE054D8
:1017E8001F70077D267F64FE807190010DE0C41391
:1017F80054071350087D277F647E00805E7811E6C9
:10180800C4540F6402701690010EE0540764066019
:10181800047D2480027D267F647E00803E7811E668
:10182800C4540F6407701690010EE05407640660F4
:10183800047D2480027D267F647E00801E7811E668
:10184800C4540F6401701790010EE05407640660D9
:10185800047D2580027D267F647E00122E5D7D1525
:101868007F887E1302196290010DE054BFF0C2EA2E
:101878004480F07F821226777D267FF47E01122E27
:101888005D7D167FF47E01021962123D17EF640137
:101898007020900135E0640170087D147F64FE12A9
:1018A8002E5D90010FE054F0F07D157F647E0002FC
:1018B800196220A60BD2A67F327E00123D43C2EAEF
:1018C80090010DE0541F64047010900106E064015B
:1018D80070087D0A7F64FE122E5D7D26122E597DCA
:1018E800167F887E13807390010FE0540F640E609A
:1018F8006C7F0E802890010FE0540F640D605E7FAE
:101908000D801A90010FE0540F640F60507F0F8014
:101918000C90010FE0540F640960427F090224AF64
:10192800900249E0240AF0E0643C7007F09002500D
:10193800E004F0900250E0643C7007F0900255E03B
:1019480004F0900255E064187007F0900254E00427
:0E195800F012227A7D287F107E27122E5D224B
:100066000203AEE86480F8E933E83360110460F017
:10007600ED33EC337009E8FCE9FDEAFEEBFF220400
:1000860060DED3EB9FEA9EE99DE8C2E78CF0C2F7FB
:1000960095F0400CE8CCF8E9CDF9EACEFAEBCFFBC7
:1000A60012037985D0F05804700320D5B3E80470A4
:1000B600075002B2D50203B892D5EC0460F7E4CC3F
:1000C600C0E0C398F8603B94186008400DD0E0FB90
:1000D600020390E4FBFAC9FC8028E830E406E4C990
:1000E600FBE4CAFCE830E305E4C9CACBFCE85407E4
:1000F6006010F8C3E913F9EA13FAEB13FBEC13FCEF
:10010600D8F130F52FC3E49CFCEF9BFFEE9AFEED91
:1001160099FDD0E0FBEF4E4D4C701222DB0302033B
:10012600B5EC2CFCEF33FFEE33FEED33FDED30E79F
:10013600EB020390EF2BFFEE3AFEED39FDD0E0FB2C
:1001460050130BBB00030203B8ED13FDEE13FEEFD5
:0801560013FFEC13FC020390FF
:10015E00EC4D6011E8497017ED33EC3304600DE49B
:10016E00FCFFFEFD22E933E8330470F80203AE1201
:10017E00037958046009E4CC248150062850090202
:10018E0003B82840030203B5C0E0EB4A7044B980BF
:10019E0006D0E0FB0203A4EF4E701CBD8008EBFFFF
:1001AE00EAFEE9FD80EBE98DF0A4FEE5F0020247E0
:1001BE00E9CDF9EAFEEBFFEF89F0A4FCE5F0CE897C
:1001CE00F0A42EFFE435F0CD89F0A42DFEE435F039
:1001DE008067EF4E7005BD80D780C3EF8BF0A4AC67
:1001EE00F0EE8BF0A42CFCE435F0F8EF8AF0A42CA2
:1001FE00E5F038FCE433CB8DF0A42CFCE5F03BF8B5
:10020E00EE8AF0A42CFCE5F038F8E433CF89F0A4A4
:10021E002CFCE5F038CF3400CE89F0A42FFFE5F0AA
:10022E003EFEE433C98DF0A42EFEE5F039CD8AF002
:10023E00A42FFFE5F03EFEE43DFD33D0E0FB50077A
:10024E000BBB000F0203B8EC2CFCEF33FFEE33FEBA
:06025E00ED33FD020390E8
:100264000203B8EC5D046005E8590470030203AEB0
:10027400120379580460F6EC4860F2EC7004FDFE59
:10028400FF22C860DB2481C85009C398600250066D
:100294000203B59850CAF582E9294B4A7005AB822E
:1002A4000203A475F0007C1A7880C3EF9BEE9AEDEC
:1002B40099400DC3EF9BFFEE9AFEED99FDE842F0E5
:1002C400DC23ACF0D0E0FFD0E0FED0E0FDAB822038
:1002D400E7101BEB60BAEC2CFCEF33FFEE33FEEDC2
:1002E40033FD020390E803F830E705C0F075F00031
:1002F400EF2FFFEE33FEED33FD40B830E7C280AAA6
:1003040075F020800E75F010800575F0087D007E74
:10031400007F003392D530D5031207ABEC33401085
:10032400EF33FFEE33FEED33FDEC33FCD5F0ED227D
:0E033400E5F0247EA2D513CC92E7CDCEFF22B9
:10034200EDD2E7CD33EC3392D524814006E4FFFEB3
:10035200FDFC22FCE4CFCECDCC24E0501174FF8012
:10036200EDC3CC13CCCD13CDCE13CECF13CF0470AF
:07037200F030D5DE0207ABFD
:10037900E9D2E7C933E833F892D5EDD2E7CD33ECCA
:0703890033FC5002B2D52243
:10039000EC30E7100FBF000C0EBE00080DBD0004CE
:1003A0000BEB6014A2D5EB13FCED92E7FD2274FF7A
:1003B000FCFDFEFF22E480F8A2D574FF13FC7D80D3
:0303C000E480EFE7
:1032E2000235DDE493A3F8E493A34003F68001F2F0
:1032F20008DFF48029E493A3F85407240CC8C333ED
:10330200C4540F4420C8834004F456800146F6DFBB
:10331200E4800B0102040810204080902AE0E47E41
:10332200019360BCA3FF543F30E509541FFEE493B0
:10333200A360010ECF54C025E060A840B8E493A377
:10334200FAE493A3F8E493A3C8C582C8CAC583CAA2
:10335200F0A3C8C582C8CAC583CADFE9DEE780BE5A
:012C130000C0
:1003C300E709F608DFFA8046E709F208DFFA803E1C
:1003D30088828C83E709F0A3DFFA8032E309F60809
:1003E300DFFA8078E309F208DFFA807088828C8371
:1003F300E309F0A3DFFA806489828A83E0A3F60825
:10040300DFFA805889828A83E0A3F208DFFA804CFE
:1004130080D280FA80C680D4806980F280338010D5
:1004230080A680EA809A80A880DA80E280CA80333E
:1004330089828A83ECFAE493A3C8C582C8CCC583B6
:10044300CCF0A3C8C582C8CCC583CCDFE9DEE78086
:100453000D89828A83E493A3F608DFF9ECFAA9F005
:10046300EDFB2289828A83ECFAE0A3C8C582C8CC5B
:10047300C583CCF0A3C8C582C8CCC583CCDFEADE74
:10048300E880DB89828A83E493A3F208DFF980CCD6
:1004930088F0EF60010E4E60C388F0ED2402B404CF
:1004A3000050B9F582EB2402B4040050AF23234576
:0604B30082239004137384
:1004B900BB010689828A83E0225002E722BBFE0241
:0904C900E32289828A83E4932274
:1004D200BB010CE58229F582E5833AF583E02250DF
:1004E20006E92582F8E622BBFE06E92582F8E22229
:0D04F200E58229F582E5833AF583E4932243
:1004FF00BB010989828A83F8E028F022500327F78D
:10050F0022BBFE05F8E328F3228A838982F8E4935D
:02051F00282290
:10052100F8BB010DE58229F582E5833AF583E8F010
:10053100225006E92582C8F622BBFE05E92582C8BC
:02054100F222A4
:10054300EF8DF0A4A8F0CF8CF0A428CE8DF0A42ECC
:02055300FE2286
:10055500BC000BBE0029EF8DF084FFADF022E4CC8A
:10056500F875F008EF2FFFEE33FEEC33FCEE9DEC53
:10057500984005FCEE9DFE0FD5F0E9E4CEFD22ED99
:10058500F8F5F0EE8420D21CFEADF075F008EF2FE3
:10059500FFED33FD4007985006D5F0F222C398FDD4
:0505A5000FD5F0EA2271
:1005AA00C2D5EC30E709B2D5E4C39DFDE49CFCEE6C
:1005BA0030E715B2D5E4C39FFFE49EFE120555C38A
:1005CA00E49DFDE49CFC800312055530D507C3E485
:0605DA009FFFE49EFE22DB
:1005E000C5F0F8A3E028F0C5F0F8E58215827002A6
:0605F0001583E038F02243
:1005F600A3F8E0C5F025F0F0E582158270021583B8
:06060600E0C838F0E82214
:10060C00BB010A89828A83E0F5F0A3E022500687B9
:10061C00F009E71922BBFE07E3F5F009E31922897B
:0B062C00828A83E493F5F074019322AE
:10063700BB0110E58229F582E5833AF583E0F5F001
:10064700A3E0225009E92582F886F008E622BBFEDE
:100657000AE92582F8E2F5F008E222E5832AF58324
:08066700E993F5F0A3E99322E9
:10066F00BB010A89828A83F0E5F0A3F0225006F7D6
:0F067F0009A7F01922BBFE06F3E5F009F31922D3
:10068E00E88FF0A4CC8BF0A42CFCE98EF0A42CFC0B
:10069E008AF0EDA42CFCEA8EF0A4CDA8F08BF0A489
:1006AE002DCC3825F0FDE98FF0A42CCD35F0FCEBE8
:1006BE008EF0A4FEA9F0EB8FF0A4CFC5F02ECD39AD
:0F06CE00FEE43CFCEAA42DCE35F0FDE43CFC221A
:1006DD0075F008758200EF2FFFEE33FECD33CDCCD4
:1006ED0033CCC58233C5829BED9AEC99E582984057
:1006FD000CF582EE9BFEED9AFDEC99FC0FD5F0D634
:10070D00E4CEFBE4CDFAE4CCF9A88222B800C1B95D
:10071D000059BA002DEC8BF084CFCECDFCE5F0CB9B
:10072D00F97818EF2FFFEE33FEED33FDEC33FCEBD4
:10073D0033FB10D703994004EB99FB0FD8E5E4F98F
:10074D00FA227818EF2FFFEE33FEED33FDEC33FC7C
:10075D00C933C910D7059BE99A4007EC9BFCE99A70
:10076D00F90FD8E0E4C9FAE4CCFB2275F010EF2FB5
:10077D00FFEE33FEED33FDCC33CCC833C810D707B5
:10078D009BEC9AE899400AED9BFDEC9AFCE899F8F0
:0E079D000FD5F0DAE4CDFBE4CCFAE4C8F92283
:0E07AB00C3E49FFFE49EFEE49DFDE49CFC225F
:1007B900EB9FF5F0EA9E42F0E99D42F0EC6480C8B7
:0607C90064809845F02257
:1007CF00EB9FF5F0EA9E42F0E99D42F0E89C45F080
:0107DF0022F7
:1007E000E86010ECA2E713FCED13FDEE13FEEF132F
:0407F000FFD8F0221C
:1007F400BB010789828A830208A35005E9F802082D
:1008040097BBFE05E9F80208AF89828A830208BB18
:0C081400ECF0A3EDF0A3EEF0A3EFF02257
:10082000A8828583F0D083D082120837120837124D
:100830000837120837E473E493A3C583C5F0C58372
:10084000C8C582C8F0A3C583C5F0C583C8C582C822
:010850002285
:10085100BB010789828A830208D45005E9F802089E
:10086100CBBBFE05E9F80208DD89828A830208E62E
:10087100D083D082F8E4937012740193700DA3A316
:1008810093F8740193F5828883E47374029368602A
:06089100EFA3A3A380DF2A
:0C3DEC00EE30E707C3E49FFFE49EFE22D8
:0C089700E6FC08E6FD08E6FE08E6FF228D
:0C08A300E0FCA3E0FDA3E0FEA3E0FF22C8
:0C08AF00E2FC08E2FD08E2FE08E2FF2285
:1008BB00E493FC740193FD740293FE740393FF2283
:0908CB00E6FB08E6FA08E6F92252
:0908D400E0FBA3E0FAA3E0F92225
:0908DD00E2FB08E2FA08E2F9224C
:0C08E600E493FB740193FA740293F9226E
:00000001FF
