:03000000023E5E5F
:0C3E5E00787FE4F6D8FD758179023EA55E
:10284D000D0A507265762E46573A2530327825306E
:10285D00327825303278000D0A437572722E465744
:10286D003A253032782530327825303278000D0A0D
:10287D0043616E6E6F7420616363657373204545AC
:10288D0050524F4D21212121000D0A4E6F20696EAE
:10289D00697469616C697A65000D0A285345545F46
:1028AD0050574D3D253032782076616C3D253032C4
:1028BD007829000D0A3D3D3D3D3D3D3D3D3D3D3DB4
:1028CD003D3D3D3D3D3D3D3D3D3D3D3D3D3D3D3D2B
:1028DD003D3D3D3D3D3D3D000D0A53797374656DA4
:1028ED0020686173206265656E20776F726B696E0B
:1028FD006720666F7220256420646179732C202512
:10290D006420686F7572732C202564206D696E7557
:10291D0074657320616E64202564207365636F6E2A
:10292D006473000D0A53797374656D2068617320AB
:10293D006265656E20776F726B696E6720666F7268
:10294D0020256420686F7572732C202564206D69B5
:10295D006E7574657320616E6420256420736563E4
:10296D006F6E6473000D0A53797374656D20686121
:10297D0073206265656E20776F726B696E67206676
:10298D006F72202564206D696E7574657320616E9C
:10299D0064202564207365636F6E6473000D0A53A4
:1029AD00797374656D20686173206265656E20773B
:1029BD006F726B696E6720666F7220256420736578
:1029CD00636F6E6473000D0A2842617474657279C9
:1029DD004254483D25642825642E25645629290036
:1029ED002854454D505F48494748290028484947D4
:1029FD00485F544D45505F5741524E29002854456C
:102A0D004D505F4C4F572900284C4F575F544D4543
:102A1D00505F5741524E29002854454D505F4E4F3F
:102A2D00524D414C29000D0A28426174746572792A
:102A3D004341503D25642825642E253034645629A4
:102A4D002928256456290028484947485F434841AD
:102A5D005247452900284C4F575F4348415247453F
:102A6D002900284E4F524D414C5F43484152474536
:102A7D0029002853544F505F434841524745290080
:102A8D00284348415247455F4E4F5F4241545429B8
:102A9D0000285F424154545F5354415455535F4392
:102AAD00415041434954595F4C4556454C302900DE
:102ABD00285F424154545F5354415455535F434131
:102ACD005041434954595F4C4556454C31290028D6
:102ADD005F424154545F5354415455535F434150E9
:102AED0041434954595F4C4556454C322900285FA6
:102AFD00424154545F5354415455535F43415041E7
:102B0D00434954595F4C4556454C332900285F4283
:102B1D004154545F5354415455535F4341504143C5
:102B2D004954595F4C4556454C342900285F424164
:102B3D0054545F5354415455535F4341504143499D
:102B4D0054595F4D494E2900285F424154545F53FB
:102B5D0054415455535F43415041434954595F4D7E
:102B6D0041582900285F424154545F5354415455F4
:102B7D00535F43415041434954595F4D41585F5351
:102B8D00544F50290028424154544552595F4341F6
:102B9D005041434954595F4E4F5F53544152545520
:102BAD00502900285F424154545F535441545553AA
:102BBD005F4E4F5F424154542900284348415247CC
:102BCD00455F544D45505F41424E4F524D414C294A
:102BDD00000D0A285F504F5745525F5354415455CD
:102BED00535F534156494E4729000D0A285F504FF8
:102BFD005745525F5354415455535F4F4646290034
:102C0D000D0A285F504F5745525F53544154555349
:102C1D005F4E4F524D414C29000D0A28504F5745DC
:0D2C2D00525F5354415455533D2564290016
:1033C70041027E0041027F00410273004102750005
:1033D700410276004102710041026A004102800009
:1033E70002400000014600C101C180024700000100
:1033F7004400014500027400000469000000000455
:103407006D00000000C10441026B0101720001421E
:1034170000014300C102C1034102740041026C0074
:103427004102770044027A0000000042027800005F
:10382B001244959001D01215997F047E00124850D6
:10383B007E00C007C0067F051248507E00C007C03F
:10384B00067F061248509001DEE4F0A3EFF09001E2
:10385B00DCD0E0F0A3D0E0F09001DAD0E0F0A3D020
:10386B00E0F07BFF7A28794D12467C124495E47B7D
:10387B0024FAF9F8C3121554605F7BFF7A28796438
:10388B00E49001DAF0A3F0A3F0A3F0A3F0A3742467
:10389B00F012467C1249517F047E001248507E0084
:1038AB00C007C0067F051248507E00C007C0067FC8
:1038BB00061248509001DEE4F0A3EFF09001DCD04B
:1038CB00E0F0A3D0E0F09001DAD0E0F0A3D0E0F08C
:1038DB007BFF7A28796412467C124495E47B24FAA8
:1038EB00F9F8C3121554700B124529EF701E1243D1
:1038FB004780197BFF7A28797B12467C7BFF7A28DD
:10390B00799612467C90012C74FFF0227F64124949
:0E391B00837811E6540F4410F654F04402F67F
:01392900227B
:1043F800758DF4759850758922758855758A40753C
:104408008C4075878075B80275A892D299D2ACE4B1
:10441800F5C8C2CAD2AD75AA5075BAF443A61843F6
:10442800AD10C203F5E9F5F975D90443D8404393B3
:0F443800A04391C475B10CF5B275B30CF5B42265
:1049B3003085107F327E0012496E3085037F0122DD
:0649C3007F00227F0022AC
:1042E1009001D5EFF0A3EDF07BFF7A2879A690013C
:1042F100DAE4F0A3EFF0EDFFA3E4F0A3EFF0124650
:104301007C9001D5E0603B24EB60212416602F24D2
:10431100EB703275EC809001D6E0FFC374FF9FF51E
:10432100FC75DC42EF701EF5DCC2942275ED8090C5
:1043310001D6E0FFC374FF9FF5FD75DD422243D82E
:06434100402253D8402287
:03000B00022C3A8A
:0B2C3A00C0E0C083C082C0D075D0088D
:102C450005730545C3E545940A7480948040139047
:102C55000180E004F0700690017FE004F075450006
:102C6500D20C900272E0600214F0900272E06003F0
:102C7500022DE7E5B0540C13135403FF90027DE0D9
:102C85006F7003022DE790027BE090027AF09002CC
:102C95007CE090027BF090027DE090027CF0A3EF57
:102CA500F0D2059002727430F090027AE0FF7E0057
:102CB5007020A3E06401701AA3E064037014A3E01C
:102CC5006402700E900279E004F07006900278E0DC
:102CD50004F0EF64014E702090027BE064037018ED
:102CE500A3E064027012A3E0700E900279E004F094
:102CF5007006900278E004F090027AE06403701E9A
:102D0500A3E064027018A3E07014A3E06401700EE0
:102D1500900279E004F07006900278E004F09002E9
:102D25007AE0FF7E006402701EA3E0701AA3E064DF
:102D3500017014A3E06403700E900279E004F07052
:102D450006900278E004F0EF4E702290027BE0647A
:102D550002701AA3E064037014A3E06401700E907E
:102D65000279E024FFF0900278E034FFF090027AD7
:102D7500E06402701EA3E064037018A3E0640170B0
:102D850012A3E0700E900279E024FFF0900278E043
:102D950034FFF090027AE0FF7E006403701EA3E02A
:102DA50064017018A3E07014A3E06402700E900231
:102DB50079E024FFF0900278E034FFF0EF64014EF3
:102DC500702090027BE0701AA3E064027014A3E007
:102DD5006403700E900279E024FFF0900278E034ED
:102DE500FFF0D3E5739460748094805003022EE65F
:102DF500054AE54A700205497573000544E54464D2
:102E0500647010F544E5469002746005E004F080B6
:102E150002E4F0E575F47003E574F460080575E502
:102E25007570020574AF70AE6FAD6EAC6DEC4D4E46
:102E35004F6014EF24FFF570EE34FFF56FED34FFAE
:102E4500F56EEC34FFF56D90026DE07002A3E06065
:102E55000E90026EE024FFF090026DE034FFF0E585
:102E6500E8F4FF131313541F30E04CE54164324579
:102E750040701A900106E0600B7811E6FFC4540F0C
:102E850064077029754601C200D2018020E541B46E
:102E9500201BE540B4031630000D754601D20190A4
:102EA50002807401F0C2007540007541330541E5AB
:102EB50041702E0540802AC3E5419432E5409400D7
:102EC5004012900106E06401700A30000775460162
:102ED500D2018005754600C201D2007540007541DA
:012EE50000EC
:092EE600D0D0D082D083D0E032BC
:102432007BFF7A2879C07F011245B7900275E0FFD1
:1024420060327BFF7A2879E59001DAE4F0A3EFF0BD
:10245200900276E0FF9001DCE4F0A3EFF0900271CD
:10246200E0FF9001DEE4F0A3EFF090026AE0FF905B
:1024720001E08057900276E0FF60257BFF7A2979A0
:10248200309001DAE4F0A3EFF0900271E0FF9001E6
:10249200DCE4F0A3EFF090026AE0FF9001DE802B13
:1024A200900271E0FF7BFF60167A2979729001DA5F
:1024B200E4F0A3EFF090026AE0FF9001DC800C7A76
:1024C2002979AA90026AE0FF9001DAE4F0A3EFF022
:1024D2007F031245B79001C3E0FEA3E0FF9001DA4B
:1024E200EEF0A3EFF07805C333CE33CED8F9FBAAD2
:1024F200067C277D10FF1212DA9001DCEEF0A3EFCA
:10250200F07C277D10AF03AE021212DAA3ECF0A327
:10251200EDF07BFF7A2979D37F021245B790010F44
:10252200E0541F6406700A7BFF7A2979ED7F0180EF
:1025320042900110E0C31313500A7BFF7A2979F904
:102542007F03802F90010FE0541F6408700A7BFF05
:102552007A2A790A7F04801B900110E01313543FFA
:10256200137BFF50087A2A79157F0380067A2A792D
:10257200257F021245B7900111E0541F6409706F64
:10258200A3E0FEA3E07805C333CE33CED8F9246AA4
:10259200FFEE34FFFE7C277D101212DA7E007F648C
:1025A200CFCDCFCECCCE1212DAAA06AB0790011253
:1025B200E0FEA3E07805C333CE33CED8F9246AFF18
:1025C200EE34FFFE7C277D101212DA7C007D64124D
:1025D20012C8EF2BFFEE3AFE9001D4F0A3EFF07D8C
:1025E200371212C87D641212DA9001D4EE80719013
:1025F2000112E0FEA3E0FF7C007D3B1212C87D6465
:102602001212DAEF25E0FBEE33FA900112E0FEA39C
:10261200E0FF7C007D3B1212C87D641212DAEF2BC0
:10262200FFEE3AFE9001D4F0A3EFF07C037DE812B6
:1026320012DAEF4E9001D46017E0FEA3E0FF7C00B7
:102642007D0A1212DAEF2401FFE43E9001D48010D9
:10265200E0FEA3E0FF7C007D0A1212DA9001D4EEC4
:10266200F0A3EFF0900112E0FEA3E0FF9001DAEE9A
:10267200F0A3EFF07C007D211212C8AA06AB077C02
:10268200277D101212DAA3EEF0A3EFF07C277D1063
:10269200AF03AE021212DAA3ECF0A3EDF09001D474
:1026A200E0FFA3E09001E0CFF0A3EFF07BFF7A2AF6
:1026B20079337F051245B7900111E0541F640D7004
:1026C2000A7BFF7A2A79547F02804E900111E054EE
:1026D2001F640E700A7BFF7A2A79627F03803A9028
:1026E2000111E0541F640F700A7BFF7A2A796F7F11
:1026F200058026900111E0541F6410700A7BFF7A56
:102702002A797F7F018012900111E0541F640970C1
:102712000B7BFF7A2A798D7F011245B790010EE07B
:10272200541F640470087BFF7A2A799E80449001CA
:102732000EE0541F640370087BFF7A2A79BD803251
:1027420090010EE0541F640270087BFF7A2A79DC44
:10275200802090010EE0541F640170087BFF7A2AEA
:1027620079FB800E90010EE0541F700A7BFF7A2BDA
:10277200791A7F02806290010EE0541F6415700A7C
:102782007BFF7A2B79397F04804E90010EE0541F33
:102792006416700A7BFF7A2B79557F06803A900186
:1027A2000EE0541F6417700A7BFF7A2B79717F0544
:1027B200802690010EE0541F6418700A7BFF7A2B6A
:1027C20079927F05801290010EE0541F6409700B0C
:1027D2007BFF7A2B79B07F011245B7900110E0138D
:1027E2001313541F13500B7BFF7A2B79C77F0112EF
:1027F20045B77811E6C4540F640770087BFF7A2B43
:1028020079DE80377811E6C4540F640170087BFFCB
:102812007A2B79F780257811E6C4540F64027BFF86
:1028220070067A2C790D80137A2C79267811E6C4F9
:10283200540FFF9001DAE4F0A3EFF07F061245B7E0
:0B2842007BFF7A2879C07F010245B7B8
:1049C900E4FFEFC3941D74809480500974222FF87A
:0549D900E4F60F80ED83
:0149DE0022B6
:10426800EF24E5B40A00507090427E75F003A4C5AF
:104278008325F0C583730242A802429C0242A6022B
:1042880042A10242AA0242E00242B20242BC0242F7
:10429800C90242D5D2E9D2E822D2E8C2E922800591
:1042A800801530E817C2E8D2E92230E905C2E9D220
:1042B800E822800830E805C2E8C2E922D2E8D2E95B
:1042C8002230E904C2E98002D2E9C2E82230E804D7
:0942D800C2E88002D2E8C2E9222A
:03001300020026C2
:03002600C2AA3239
:0300230002479FF2
:10479F00C0E0C0D075D008309819744B2571F8A6B9
:1047AF00990571C3E571941E7480948040037571EF
:0F47BF0000C298309904C299C202D0D0D0E03223
:030063000246F85A
:1046F800C0E0C0D075D008E5AA54016401701A530F
:10470800AAFE74222542F8A69A0542C3E542941EE1
:10471800748094804003754200E5AA5402640270D4
:0B4728000553AAFDC203D0D0D0E03240
:0B4A7F00E542B543037F00227F0122C7
:1049180053ADEF74222543F8E6FF0543E543C394FE
:0D4928001E748094804003E4F54343AD10FD
:01493500225F
:080003002003FD8F9AD20322B5
:03002B00024A6422
:0F4A6400C0E0C2CF0548E54870020547D0E032F8
:10498300E5442FFFE433FE7C007D641212DAE54434
:07499300B505FBE4B504F7D4
:01499A0022FA
:104A2F000D0A436C656172426173696345452E2EB1
:024A3F002E0047
:104495007E007D007C007F05124850EF7F00FEC046
:1044A50007C0067F047E001248507E00EF7810C3D7
:1044B50033CE33CED8F9FDD0E04EFED0E04DFFC06F
:1044C50007C0067F067E00124850EFFDD0E0FED003
:0944D500E04DFFEE3395E0FDFC23
:0144DE0022BB
:104529009001D47401F0E4FFFE124850EF6430604A
:10453900037F00227F017E00124850EF6437600339
:104549007F00227F027E00124850EF643060037FB3
:1045590000227F037E00124850EF644960037F0008
:06456900229001D4E0FFE6
:01456F002229
:10495100E4FD7F04FE124570E4FD7F05FE12457003
:094961007D247F067E00024570F2
:104347007BFF7A4A792F12467C7D30E4FFFE1245C7
:10435700707D377F017E001245707D307F027E00C1
:104367001245707D497F037E001245707D017F10E5
:104377007E001245707D277F117E00124570E4FD97
:104387007F07FE124570E4FD7F12FE124570E4FDC3
:0E4397007F13FE124570E4FD7F14FE02457098
:04343700410105004A
:091BCD00124A7FEF700302200AA6
:101BD6001249189001D0EFF07E00647E700DC20BA2
:101BE60090010504F0E4900003F022EF647D4E704E
:101BF60003D20B22300B09C20B9001D0E04470F0E7
:101C0600900105E0FB64046010900003E0FE900183
:101C1600D0E0FDEE6D900003F0EB24FE602E146024
:101C26005B147003021CC62403600302200A9001A1
:101C3600D0E0900002F01424F8500A24F924FD5054
:101C46000424E370349001057402F0229001D0E080
:101C5600900001F0A3E01424F8500A24F924FD5062
:101C66000424E37014900001E070028049E49000BF
:101C760000F09001057403F022022005900002E0B6
:101C86001424F8500A24F924FD500424E3702E90FD
:101C960001D0E0FF900000E02405F582E43400F571
:101CA60083EFF0900000E004F0A3E0FF900000E076
:101CB6006F600302200A9001057404F022022005D9
:101CC6009001D0E0FF900003E06F600302200590D2
:101CD6000002E01215F61D04011D3D021D57031DED
:101CE60060041D69051E7A061EC0071FE0081EEB6C
:101CF600101EF4111F5F121FD53000002005900141
:101D060017E04401F0900111E054E04414F0900112
:101D160017E0FF131313541F13500EEF54F7F07F01
:101D260013122EEF7F081245FD900117E0C313131F
:101D3600500302200580117F1A1245FD900117E01D
:101D4600C3131350030220057D1A7F107E27021F3E
:101D5600DB7D067FE87E03021FDB7D077FE87E03CF
:101D6600021FDB900005E0FDC4540F75F00AA4FFC6
:101D7600ED540F7C002FFDEC35F0FC12108E900117
:101D86003A121599900006E0FDC4540F75F00AA4A6
:101D9600FFED540F7C002FFDEC35F0FC12108E90F9
:101DA6000128121599900007E0FDC4540F75F00A3A
:101DB600A4FFED540F7C002FFDEC35F0FC12108EC5
:101DC60090013E121599900008E0FDC4540F75F07D
:101DD6000AA4FFED540F7C002FFDEC35F0FC121029
:101DE6008E90012D121599900009E0FDC4540F75CF
:101DF600F00AA4FFED540F7C002FFDEC35F0FC1229
:101E0600108E90014212159990000AE0FDC4540FFD
:101E160075F00AA4FFED540F7C002FFDEC35F0FCA5
:101E260012108E90013112159990000BE0FDC454EA
:101E36000F75F00AA4FFED540F7C002FFDEC35F072
:101E4600FC12108E90014612159990000CE0FDC40C
:101E5600540F75F00AA4FFED540F7C002FFDEC35EE
:101E6600F0FC12108E9001351215997D0C7FE87EDC
:101E760003021FDB900005E0C39405748094805034
:101E8600037405F0900005E024FB75F00AA4FFA397
:101E9600E02F900173F0D3942874809480400574E9
:101EA60028F0800A900173E0FFC374289FF07D0339
:101EB6007FF47E01123AEE022005900005E0FD7CDB
:101EC60000700A900117E054FDF0022005ED640150
:101ED6004C60030220057F1A1245FD900117E0446D
:101EE60002F00220057D047FE87E03021FDB9000DE
:101EF60005E07033900117E054FEF07F1A1245FD9D
:101F06007F1F1245FD7F201245FD7F211245FD7F73
:101F1600221245FD7F231245FD7F241245FD7D22B9
:101F26007F647E00021FDB900005E064017008906C
:101F36000117E044088014900005E0640260030283
:101F46002005900117E04408F04410F07D087FE872
:101F56007E031239307F1A8071900005E0FD7C0007
:101F660064017009900117E054BFF0801F900106CC
:101F7600E064017017ED4C7013900117E054BFF048
:101F8600E4900106F0FD7F10FE124570900106E018
:101F960064017034900005E06402702C90010FE03B
:101FA6004420F0900117E054BFF0E4900106F0FDE4
:101FB6007F10FE1245707F137E00124850EF7008A6
:101FC6007D017F13FE1245707F0A1245FD80307D2C
:101FD6000B7FE87E031239308025900005E064010E
:101FE60070107D017F12FE1245709001397401F068
:101FF600800DE4FD7F12FE124570E4900139F0E495
:04200600900105F050
:01200A0022B3
:0449F4009291D2903A
:0F49F800E4FFEFC394017480948050030F80F3A9
:014A0700228C
:0B4570009001D4EEF0A3EFF0A3EDF0FB
:10457B009001D4E0FEA3E07807CEC313CE13D8F995
:10458B0044A054FE9001D7F0124A419001D7E0FFAE
:10459B001241729001D4A3E0FF1241729001D6E058
:0C45AB00FF1241721200167F02024983C9
:04485000AD07AC06FE
:10485400ED7807CEC313CE13D8F944A054FEFF124B
:1048640047339001F8EFF07F021249839001F8E09A
:01487400FF44
:014875002220
:084733009001F9EFF0A3EDF095
:10473B00124A419001F9E0FF1241729001FAE0FF39
:10474B00124172124A419001F9E04401FF12417289
:10475B0012002E9001FBEFF01200169001FBE0FF10
:01476B00222B
:104A4100D2911249F8D2901249F8C2911249F8C292
:024A51009022B1
:0D001600C2911249F8D2901249F8D29122FD
:10417200AE07C290EE30E703D38001C31249F4C206
:1041820090EE30E603D38001C31249F4C290EE30C0
:10419200E503D38001C31249F4C290EE30E403D3A5
:1041A2008001C31249F4C290EE30E303D38001C30D
:1041B2001249F4C290EE30E203D38001C31249F4F3
:1041C200C290EE30E103D38001C31249F4C290EEF3
:1041D20030E003D38001C31249F4C290C290C2906E
:0B41E200D291D290D290D290C29022D5
:10002E00E4FED2911249F8C290E4FDFCD290EE2586
:10003E00E0FE3091034401FEC2900DBD00010CEDB7
:10004E0064084C70E71249F8D290D290D290C290C8
:02005E00AF06EB
:01006000227D
:1040F400AE07C290EE30E703D38001C31249F4C285
:1041040090EE30E603D38001C31249F4C290EE303E
:10411400E503D38001C31249F4C290EE30E403D323
:104124008001C31249F4C290EE30E303D38001C38B
:104134001249F4C290EE30E203D38001C31249F471
:10414400C290EE30E103D38001C31249F4C290EE71
:1041540030E003D38001C31249F4C290C290C290EC
:0E416400D2911249F8D290D290D290C29022FD
:0448B900AB07AA0699
:1048BD007E5E124A417F5E1240F4AF031240F4AFA8
:0C48CD00051240F41200167F020249831D
:1047CE007F01124936EF6025900280E0640170147B
:1047DE00900106E06401700C900280F07D057FF47C
:0E47EE007E0180067D147F647E001239302229
:10493600A2019209C2012009037F0022EF6003AFA2
:0A4946004622200003AF46227F0046
:014950002244
:1041ED000D0A5374617274204D61696E204C6F6FAE
:1041FD00702E2E2E000D0A537461727420426F6F53
:10420D00742E2E2E000D0A2843616D657261566F56
:10421D006C743D256429000D0A2850535720676F93
:10422D00696E6720746F20706F776572206F666698
:10423D002E2E2E29000D0A2853746172742075706C
:10424D002020506F776572204F6E204D6F64652E64
:0B425D002E2E290000000000000000D1
:10343B0046010E000000000000420117000044018D
:10344B00230000000042011400004101160041015D
:10345B00270041012000420121000044013A3F8036
:10346B00000044013E3F8000004401423F800000C9
:10347B004401463F80000044012800000000440145
:10348B002D00000000440131000000004401350014
:10349B0000000046010800000028001546011A0034
:1034AB0000002800156029014A0506080A0B0D0FBC
:1034BB0010121416181A1C1E202225272A2C2F3204
:1034CB0035383B3E4245484B5055585D61666B70F5
:0234DB00757A00
:10476C0075E5028DE39001D9E0F5E412123EF5E215
:10477C0075E64675E6B9740129F9E43AFA9001D95F
:10478C00E004F0E070030D8DE39001DAE014F0E04A
:03479C0070D322B5
:04000E0075E78122EF
:10489800E49001D4F012000E7B017A0179D49001E2
:1048A800D974FFF0A37401F07DEF12476C75E760CF
:0148B80022DD
:103C8100FF6DFD9002127401F0A37402F0A3740D94
:0A3C9100F0EFA3F07B017A0179FD4A
:103C9B0090020FEBF0A3EAF0A3E9F0900215E0FF1E
:103CAB00647E6005EF647D703F900212E0FBA3E041
:103CBB00FAA3E0F912123EFF90020FE0FBA3E0FA29
:103CCB00A3E0F98F82758300747D1212A690021205
:103CDB00E0FBA3E0FAA3E0F9740112128490021541
:103CEB00E0540F4450FF8010900215E0FF90021239
:103CFB00E0FBA3E0FAA3E0F912123EFE90020FE004
:103D0B00FBA3E0FAA3E0F98E82758300EF1212A6F3
:103D1B00900212E0FBA3E0FAA3E0F9740112128403
:033D2B007F0022F4
:0B3DCE009001F9EBF0A3EAF0A3E9F08C
:103DD9009001FD747EF090020D7401F0EF123C83A6
:103DE9009001FCE0123C81E490020EF09001FCE0AD
:103DF900FF90020EE0FEC39F501E9001F9E0FBA365
:103E0900E0FAA3E0F98E82758300121257123C8101
:103E190090020EE004F080D49002127401F0A374B1
:103E290002F0A3740DF0ED123C93E490020EF090B1
:103E3900020DE0FFA3E0FEC39F501774FD2EF5822B
:103E4900E43401F583E0FF12000390020EE004F070
:043E590080DD7F0089
:013E5D002242
:05318D009001F0EFF0DD
:1031920078F17C017D017BFF7A4279617E007F07B5
:1031A2001212189001F0E0247F604E147003023373
:1031B2007A1470030233A51470030233B524046039
:1031C200030233C67F047E001248509001F1EFF0F3
:1031D2007F057E001248509001F2EFF07F067E00DC
:1031E2001248509001F3EFF07B017A0179F19001DE
:1031F200FC7403F07F800233C3900112E0FEA3E06F
:10320200FF7C007D3B1212C87D641212DAEF25E0CA
:10321200FBEE33FA900112E0FEA3E0FF7C007D3B5F
:103222001212C87D641212DAEF2BFFEE3AAB07FAE4
:103232007C037DE8FE1212DAEF4E7C007D0AAF03BA
:10324200AE0260091212DAEF2401FB80051212DAD3
:10325200AB079001F1EBF09001C3E0FCA3E0FDECC1
:103262009001F3F0EDA3F0900116E0FF75F00A84EF
:10327200C454F0FEEF75F00A84E5F04E9001F5F0CB
:10328200900121E0FEA3E0FF7C007D0A1212DAEF3A
:10329200C454F0FB900121E0FEA3E0FF7C007D0A14
:1032A2001212DAEB4D9001F6F0900127E09001F74F
:1032B200F090010EE0F9C413135403135007900168
:1032C200F2E04401F090010FE0541FFD7C0064061F
:1032D20070079001F2E04402F0ED64084C70079030
:1032E20001F2E04404F0E9C41354071350079001BB
:1032F200F2E04408F0900110E0FD1350079001F253
:10330200E04410F0EDC3131350079001F2E04420A3
:10331200F0900110E01313543F1350079001F2E0B4
:103322004440F020804230813FD39001C4E0945A5F
:103332009001C3E09400403090010FE0FFC41313EA
:103342005403134023EF541F6407701CA3E01313AC
:1033520013541F13401290010EE0C413540713407C
:10336200079001F2E04480F07B017A0179F190014B
:10337200FC7407F07F81804990010EE0FFC41313B3
:1033820013540113500D9001F17401F0EF547F902A
:10339200010EF07B017A0179F19001FC7401F07F5A
:1033A20082801E7B017A0179F19001FC7401F07F29
:1033B20083800E7B017A0179F19001FC7401F07F28
:0433C20084123DCE66
:0133C60022E4
:1043A5001248767D157F017E001239307D117F011F
:1043B5007E001239307D167FE87E031239307D1379
:1043C5007F017E001239307D1F7F017E001239305A
:1043D5007D107F017E001239307D2C7F107E2712E3
:1043E50039307D187F107E2712393090010EE04458
:0343F50040F02273
:103587009001D6EEF0A3EFF0A3EBF0A3EAF0A3E9E6
:01359700F043
:103598009000041213BCFDD3EF9DE5F06480F8EEB3
:1035A800648098400302363B9001DEE0FBA3E0FA1A
:1035B800A3E0F99000041213BCFFAEF0121391FDC2
:1035C800C3EF9DFFEE95F09001E1F0A3EFF09001BD
:1035D800D8E0FBA3E0FAA3E0F99000041213BCFDC5
:1035E800ACF0121391FBAAF0C3ED9BFFEC9AFE908E
:1035F80001E3F0A3EFF04E7002FF229001D6E0FE47
:10360800A3E0FFC3EF9BFFEE9AFE9001E1E0FCA36D
:10361800E0FD1212C8A3E0FCA3E0FD12132FC006C0
:10362800C0079001DEE0FBA3E0FAA3E0F9121391D2
:103638000236DF9001DEE0FBA3E0FAA3E0F9900098
:10364800041213BCFFAEF09000021213BCC39FFF1C
:10365800E5F09E9001E1F0A3EFF09001D8E0FBA324
:10366800E0FAA3E0F99000041213BCFFAEF090005A
:10367800021213BCC39FFFE5F09EFE9001E3F0A386
:10368800EFF04E7002FF229001D8E0FBA3E0FAA30E
:10369800E0F99000041213BCFFAEF0AB07AA069045
:1036A80001D6E0FEA3E0FFC3EF9BFFEE9AFE900178
:1036B800E1E0FCA3E0FD1212C8A3E0FCA3E0FD12C8
:1036C800132FC006C0079001DEE0FBA3E0FAA3E0D9
:1036D800F99000041213BCFFAEF0D0E02FFFD0E049
:1036E8003EF99001DBE0FBA3E0FAA3E0C98FF012FA
:0436F80013F47F0147
:0136FC0022AB
:10463E007E009001DB7401F0A37401F0A374D4F03A
:10464E00A37401F0A37401F0A3741AF07B017A0134
:10465E0079081235879001D4E0FEA3E0244AF58252
:0E466E0074013EF583E0FD7F027E000248B934
:103D2E007F107E00124850900106EFF07F117E004A
:103D3E00124850900173EFF07F127E00124850909F
:103D4E000139EFF07F147E00124850900119EFF008
:103D5E007F137E00124850EF600790010FE0442061
:103D6E00F0900139E06401701E900106E0700E7D46
:103D7E00017F10FE1245709001067401F09001193A
:103D8E00E06401703A8017900119E06401701C7DA7
:103D9E00017F10FE1245709001067401F0E4FD7F64
:103DAE0014FE124570E4900119F022900106E064B1
:103DBE0001700CFD7F10FE124570E4900106F0229A
:1048D900EF4488F5C5E5C520E3FBAFC6EF75F004E5
:1048E900A4FFE5E85403FDEF4DFFE5F05403FE2274
:074A8A00E4FE7F060248D99B
:074A9100E4FE7F070248D993
:10200B002005030224317F0A7ED77D237C3C90017F
:10201B0028E0F8A3E0F9A3E0FAA3E0FB120EE390AB
:10202B00013AE0F8A3E0F9A3E0FAA3E0FB120DF20A
:10203B009001D41215997F0A7ED77D237C3C9001A9
:10204B002DE0F8A3E0F9A3E0FAA3E0FB120EE39076
:10205B00013EE0F8A3E0F9A3E0FAA3E0FB120DF2D6
:10206B009001D81215997F0A7ED77D237C3C900175
:10207B0031E0F8A3E0F9A3E0FAA3E0FB120EE39042
:10208B000142E0F8A3E0F9A3E0FAA3E0FB120DF2A2
:10209B009001DC1215997F0A7ED77D237C3C900141
:1020AB0035E0F8A3E0F9A3E0FAA3E0FB120EE3900E
:1020BB000146E0F8A3E0F9A3E0FAA3E0FB120DF26E
:1020CB009001E01215997F007EB07DE57C45900173
:1020DB00D4E0F8A3E0F9A3E0FAA3E0FB120EE3E4EB
:1020EB00FBFA797A7844120FEC9001E41215997F80
:1020FB00E17E987DD27C459001D8E0F8A3E0F9A36E
:10210B00E0FAA3E0FB120EE3E4FBFA797A784412CF
:10211B000FEC9001E4E0F8A3E0F9A3E0FAA3E0FBF5
:10212B00120DF29001E81215997F487EC17D2C7C2F
:10213B00469001DCE0F8A3E0F9A3E0FAA3E0FB1280
:10214B000EE3E4FBFA797A7844120FEC9001E8E0A5
:10215B00F8A3E0F9A3E0FAA3E0FB120DF29001EC77
:10216B00121599900278E0FEA3E0FFC3EE64809411
:10217B00804008E4900127F0FC8017900127740140
:10218B00F0900278E0FEA3E0FFC3E49FFFE49EFE25
:10219B007C007D0212132F9001D0EEF0A3EFF09094
:1021AB0001D0E0FEA3E0D394F0EE940040030222B2
:1021BB0051C3EE94005003022251E4FFFE7DF57CE7
:1021CB00419001D4E0F8A3E0F9A3E0FAA3E0FB12FD
:1021DB000EE3C004C005C006C0079001D0E0FCA30D
:1021EB00E0FDE412108ED003D002D001D000120E0D
:1021FB00E3E4FBFA797A7844120FEC900123121581
:10220B0099E4FFFE7DF57C419001D4E0F8A3E0F961
:10221B00A3E0FAA3E0FB120EE3C004C005C006C0A6
:10222B00079001D0E0FCA3E0FDE412108ED003D0A8
:10223B0002D001D000120EE31210C79001D2EEF0C3
:10224B00A3EFF00223B79001D0E0FEA3E0FFD394FD
:10225B00F0EE9400406BD3EF94C2EE940150627F8A
:10226B002F7E5D7D007C429001D8E0F8A3E0F9A3BE
:10227B00E0FAA3E0FB120EE3C004C005C006C007E2
:10228B009001D1E02410FD9001D0E034FFFCE4126A
:10229B00108ED003D002D001D000120EE3E4FBFA73
:1022AB00797A7844120FEC9001E4E0F8A3E0F9A3FB
:1022BB00E0FAA3E0FB120DF2900123121599022311
:1022CB00B79001D0E0FEA3E0FFD394C2EE9401409F
:1022DB006AD3EF940CEE940350617F197E047D0654
:1022EB007C429001DCE0F8A3E0F9A3E0FAA3E0FB69
:1022FB00120EE3C004C005C006C0079001D1E02454
:10230B003EFD9001D0E034FEFCE412108ED003D0E1
:10231B0002D001D000120EE3E4FBFA797A78441272
:10232B000FEC9001E8E0F8A3E0F9A3E0FAA3E0FBDF
:10233B00120DF29001231215998071D39001D1E007
:10234B00940C9001D0E0940350030224157F817EFE
:10235B00957D0B7C429001E0E0F8A3E0F9A3E0FA55
:10236B00A3E0FB120EE3C004C005C006C00790013A
:10237B00D1E024F4FD9001D0E034FCFCE412108E8B
:10238B00D003D002D001D000120EE3E4FBFA797A2D
:10239B007844120FEC9001ECE0F8A3E0F9A3E0FA1B
:1023AB00A3E0FB120DF29001231215997FCD7ECC89
:1023BB007D4C7C3D900123E0F8A3E0F9A3E0FAA368
:1023CB00E0FB120DF21210C7900116EFF07FCD7EDD
:1023DB00CC7D4C7C3D900123E0F8A3E0F9A3E0FA1F
:1023EB00A3E0FB120DF2E4FBFA79C87842120EE37C
:1023FB001210C7900121EEF0A3EFF07C007D641268
:10240B0012DA900121ECF0A3EDF0C205900117E078
:10241B001350137F8112318D7F2C1245FD7D2C7F44
:06242B00E87E03123930C7
:012431002288
:1048F9007BFF7A4179ED12467C121BCD123EEA12FA
:0F4909003F6F1247CE12200B900106E070EB2299
:103FF3001243F81248287BFF7A42790212467C1258
:10400300382BD2B4D2B51249C9123D2E1243A59012
:104013000173E0FF12463E7BFF7A427912900173EF
:10402300E0FF9001DAE4F0A3EFF012467C90010F79
:10403300E0FFC413540713500A1249B3EF700490FE
:104043000106F0900106E0640178117008E654F06F
:104053004402F6800BE6540F4420F654F04401F674
:10406300C200900106E0640170031248F912407522
:0240730080F0DB
:104075007BFF7A42792412467C7811E654F044019C
:10408500F6900117E054FEF07F1A1245FD900117D6
:10409500E054BFF07F0A1245FD123F6F123EEA124F
:1040A50047CE900106E0640170EF7D017F147E002C
:1040B500124570E4900278F0A3F0900116F090019B
:1040C50021F0A3F0900127F0F542F543900110E0AF
:1040D50054FEF0A3E054E04414F07811E654F044A3
:0F40E50002F67BFF7A42794212467C75E7202271
:1034DD0001108A41021C00C187C10841021A40C176
:0134ED008658
:104447001B5B306D001B5B303B33316D001B5B30FA
:104457003B33326D001B5B303B33336D001B5B30EE
:104467003B33346D001B5B303B33356D001B5B30DA
:104477003B33366D001B5B303B33376D00303132D9
:0E448700333435363738394142434445460018
:1034EE00580252FF4447FF444CFF4454FF445CFFD4
:0B34FE004464FF446CFF4474FF447CF6
:08167700E0FBA3E0FAA3E0F997
:0B167F00900205EBF0A3EAF0A3E9F0F5
:10168A009002131215A500000001900205E0FBA3C9
:10169A00E475F00112137BA9F0FA12123E90020BC4
:1016AA00F07003021BCC24DB701B900205E0FBA345
:1016BA00E0FAA3E0F912123EB42513900206E4758B
:1016CA00F0011213652002FD90020B021BA2C2094F
:1016DA00C20AE4900212F0900205E0FBA3E475F05E
:1016EA000112137BA9F0FA12123E90020BF0E0FDF0
:1016FA00B4301BD209900205E0FBA3E475F0011295
:10170A00137BA9F0FA12123E90020BF0801FEDFF34
:10171A003395E0FEC3EF9430EE64809480402CD37E
:10172A00EF9439EE64809480502190020BE024D02B
:10173A00900212F0900205E0FBA3E475F001121387
:10174A007BA9F0FA12123E90020BF0900211740279
:10175A00F090020BE024BE602B24E0602724F660A0
:10176A00042420703C900205E0FBA3E475F001120A
:10177A00137BA9F0FA12123E90020BF09002117438
:10178A0004F0801D900205E0FBA3E475F00112133A
:10179A007BA9F0FA12123E90020BF090021174012A
:1017AA00F090020BE0FF24A87003021A5B24F57084
:1017BA0003021B7724F07003021B2A24FE600E2406
:1017CA00FD7003021A5B24146003021BAA90021123
:1017DA00E024FE604224FE607B2403600302187B3F
:1017EA00EF900208B46419E0FBA3E475F001121348
:1017FA007BA9F0FA12123EFF3395E0FEFDFC806BE6
:10180A00E0FBA3E475F00112137BA9F0FA12123E71
:10181A00FFE4FCFDFE805490020BE0900208B464E1
:10182A001BE0FBA3E475F00212137BA9F0FA121372
:10183A0091FFAEF0EE3395E0FDFC8016E0FBA3E4E9
:10184A0075F00212137BA9F0FA121391FFAEF0E4BD
:10185A00FCFD801790020BE0900208E0FBA3E47500
:10186A00F00412137BA9F0FA12157990020D1215E1
:10187A009990020DE0FCA3E0FDA3E0FEA3E0FFECDB
:10188A003350252002FD75992DD20290020DE0FCFD
:10189A00A3E0FDA3E0FEA3E0FF74FFFBFAF9F81250
:1018AA00141390020D121599900212E060030219A6
:1018BA004190020DE0FCA3E0FDA3E0FEA3E0FFECF3
:1018CA004D4E4F700B2002FD759930D202021694CC
:1018DA00E4900212F0A31215A50000000190021272
:1018EA00E0C3940A74809480504D90020DE0FCA3EA
:1018FA00E0FDA3E0FEA3E0FF900213E0F8A3E0F905
:10190A00A3E0FAA3E0FB12149EE4FBFAF9F8C3126F
:10191A0015546023900213E0FCA3E0FDA3E0FEA3AC
:10192A00E0FFE47B0AF8121413900213121599903F
:10193A000212E004F080A6E490020CF09002131266
:10194A0015A500000001900212E024FFFFE434FF15
:10195A00FE90020CE0FD3395E0FCC3ED9FEE64803F
:10196A00F8EC6480985025900213E0FCA3E0FDA3F4
:10197A00E0FEA3E0FFE47B0AFAF9F81214139002DE
:10198A001312159990020CE004F080BA90020DE04F
:10199A00FCA3E0FDA3E0FEA3E0FF900213E0F8A39E
:1019AA00E0F9A3E0FAA3E0FB12149EEF2430FF90C3
:1019BA00020BF0BF3025200922E47F01FEFDFC90D6
:1019CA000213E0F8A3E0F9A3E0FAA3E0FBC31215BF
:1019DA0054600890020B7420F08002D2092002FDA4
:1019EA0090020BE0F599D20290020DE0FCA3E0FD13
:1019FA00A3E0FEA3E0FF900213E0F8A3E0F9A3E05E
:101A0A00FAA3E0FB12149EAC00AD01AE02AF039044
:101A1A00020D121599900213E0FCA3E0FDA3E0FE6B
:101A2A00A3E0FFE47B0AFAF9F812149E900213125B
:101A3A001599E4FFFEFDFC900213E0F8A3E0F9A378
:101A4A00E0FAA3E0FBC312155460030219960216CA
:101A5A0094900211E024FE602224FE60392403706F
:101A6A004E900208E0FBA3E475F00112137BA9F083
:101A7A00FA12123EFFE4FCFDFE802E900208E0FB03
:101A8A00A3E475F00212137BA9F0FA121391FFAEC8
:101A9A00F0E4FCFD8013900208E0FBA3E475F00477
:101AAA0012137BA9F0FA12157990020D121599906A
:101ABA000212E07008900211E025E0A3F0E490021F
:101ACA000CF0900212E0FF90020CE0FD3395E0FC6E
:101ADA00C3ED9F7480F86C9840030216942002FDAF
:101AEA0090020CE0FF900212E0C39F1425E025E06B
:101AFA00F990020DE0FCA3E0FDA3E0FEA3E0FFA83D
:101B0A00011215657E00EF540F2484F582EE3444E9
:101B1A00F583E493F599D20290020CE004F080A2D6
:101B2A00900208E0FBA3E475F00312137BA9F0FA14
:101B3A001215D6900217EBF0A3EAF0A3E9F090028F
:101B4A0017E0FBA3E0FAA3E0F912123E70030216B3
:101B5A00942002FD900217E0FBA3E475F001121332
:101B6A007BA9F0FA12123EF599D20280D1900208AE
:101B7A00E0FBA3E475F00212137BA9F0FA121391A9
:101B8A00FFAEF0EE3395E0FDFC90020D12159920A0
:101B9A0002FD90020DA3A3A3E0F599D202021694C6
:101BAA00900208E0FBA3E475F00212137BA9F0FA95
:101BBA00121391FFAEF0E4FCFD90020D121599028A
:021BCA0016946F
:011BCC0022F6
:0B467C009001D7EBF0A3EAF0A3E9F0F7
:104687009002027401F0A37401F0A374DAF09002AF
:1046970002E0F9A3E0FAA3E0900208C9F0A3EAF068
:1046A700A3E9F09001D7121677900202E4F0A3F085
:0246B700A3F06E
:0146B90022DE
:0B46BA009001D0EBF0A3EAF0A3E9F0C0
:1046C5009001FB7401F0A37401F0A374D3F0900181
:1046D500FBE0F9A3E0FAA3E0900208C9F0A3EAF031
:1046E500A3E9F09001D01216779001FBE4F0A3F056
:0246F500A3F030
:0146F70022A0
:0E45B7009001D6EFF0A3EBF0A3EAF0A3E9F039
:1045C5009002027401F0A37401F0A374DAF0900272
:1045D50002E0F9A3E0FAA3E0900208C9F0A3EAF02B
:1045E500A3E9F09001D7121677900202E4F0A3F048
:0745F500A3F09001D604F0D1
:0145FC00229C
:10499B000A0D537973506F776572496E697469614B
:0849AB006C2E2E4F4B21210060
:0435090002110000AB
:10482800D283C2A1D284D282C2A1C2B7C286C2EA4E
:10483800C2A6C2A2D2E8D2E97FC87E0012496E7B26
:08484800FF7A49799B0246BA90
:103F6F007811E6FF540F14602D24FA605024057069
:103F7F0063EFC4540F601024F960082406700DE439
:103F8F00FF80067F0380027F011247FC7811E65401
:103F9F000F4420F6803E7811E6C4540F600C24FEC7
:103FAF00600C24FB700D7F0480067F0280027F0669
:103FBF001247FC7811E6540F4410F680177811E67B
:103FCF00C4540F24FE70057F051247FC7811E65488
:103FDF000F4470F67811E6FF54F0C4540FFEEF54FF
:043FEF00F04EF62278
:102EEF009001D4EFF07F1F1245FD7F201245FD7F2B
:102EFF00211245FD7F221245FD7F231245FD7F24C0
:102F0F001245FD9001D4E024F770030230F924FC40
:102F1F00700302302F147003022FBD1470030230A0
:102F2F008824FD700302314314700302315E2403C1
:102F3F00600302318C7DE07F141242E1900111E0B9
:102F4F0054E04410F0900117E013400A900106E09E
:102F5F006401700280777811E6C4540F6407702DF6
:102F6F0090010EE0C413135403135002801A900102
:102F7F0006E070057D1C02313690010EE0541F648F
:102F8F000470057D220231367D200231857811E6ED
:102F9F00C4540F6402701490010EE0541F64047047
:102FAF00057D230231367D1D02318502313B7D992E
:102FBF007F141242E1900111E054E0440EF09001B1
:102FCF0017E013400D900106E0640170057D1F02AC
:102FDF0031367811E6C4540F6407701590010EE076
:102FEF00C4131354031350047D2480027D1F023138
:102FFF0085900106E070139001C5E0700D9001C639
:10300F00E0640170057D1E0231369001C5E0700D40
:10301F009001C6E0640170057D1B0231360230F568
:10302F00E4FD7F141242E1900111E054E0440DF0F1
:10303F00900117E013400D900106E0640170057DCB
:10304F001F0231367811E6C4540F640770159001D2
:10305F000EE0C4131354031350047D2280027D1F0E
:10306F000231859001C5E0700D9001C6E0640170DA
:10307F00057D1E02313602313B7D997F141242E1EC
:10308F00900111E054E0440FF0900117E013400D50
:10309F00900106E0640170057D1F0231367811E65C
:1030AF00C4540F6407701590010EE0C4131354033A
:1030BF001350047D2480027D1F023185900106E0AC
:1030CF0070129001C5E0700C9001C6E064017004AD
:1030DF007D1E80539001C5E0700C9001C6E0640125
:1030EF0070047D1B80417D1D80447DE07F14124262
:1030FF00E1900111E054E04409F0900117E0134012
:10310F000C900106E0640170047D1F801A7811E6AF
:10311F00C4540F640270047D1D800C7811E6C454F2
:10312F000F640770077D207F64FE804E7D1C7F64D7
:10313F007E008046900117E0C4540F1350077F069E
:10314F00123BCC8002D2827D227F647E00802B9046
:10315F000117E0C4540F13500EE4FF123BCC900143
:10316F0017E054EFF08002C282900117E013500471
:0E317F007D1D80027D227F647E001239302289
:103BCC00EFB40A004003023C77903BDCF8282873E2
:103BDC00023BFA023BFA023C3F023BFA023C3F0238
:103BEC003C69023C3F023C77023C77023C19C282A2
:103BFC00D2B7D2EAD2A6D2A2D2B6D2A07D157FF489
:103C0C007E011239307D0D7FE87E03804BC283D25A
:103C1C00A17F407E0012496EC284D286900117E0CB
:103C2C00FF1313543F135043EF54FBF07F841231B6
:103C3C008D8038C2A0D283D284C2A1D282C2A1C24A
:103C4C00B7C2EAC2A6C2A2C286C2B6900117E044AD
:103C5C0020F07D2D7FB87E0B123930800EC2A1D2A0
:103C6C0084C2B7C2EAC2A6C2A2C286900111E054B5
:053C7C00E04414F022F9
:1047FC009001D0EFF024FE601A24FE601E146013AA
:10480C0014601024FE600C240824F6500624F76073
:0C481C000280089001D0E0FF123BCC228B
:10350D00C10C42017F00004201C302254201830329
:10351D00704101C10041017700410179014101C5AF
:10352D00004101C601410176004101780041017A57
:10353D000041017B0041017C004101CF004101C9E7
:10354D0000410175004101CB00410182004101CADA
:10355D00FF410174FE4101C7004101CE0041017ED2
:10356D0000410181004101C2004101C8FF41017DBF
:09357D00004101CD004101CC0028
:04496A007FF47E0157
:10496E00EF4E6010C20C300CFDC20CEF1F70011E1A
:05497E00144E70F2224E
:104A0800EF75F003A42486F582E43401F583E0FE13
:044A1800A3E0FF22F6
:1049DF00EF75F003A42485F582E43401F583E0C379
:0549EF0013547FFF22BC
:104A1C00EF75F003A42485F582E43401F583E054AA
:034A2C00FEF02277
:104A5300EF75F003A42485F582E43401F583E013B4
:014A63002230
:1044DF0090017FE0FFA3E09001F9CFF0A3EFF09000
:1044EF0001F9E0FEA3E0FFC3900180E09FFF900180
:1044FF007FE09EFE124A73D3EF947FEE6480948028
:10450F00400F90017FE0FFA3E09001F9CFF0A3EF00
:09451F00F09001F9E0FEA3E0FFB9
:014528002270
:0836FD009001F4EEF0A3EFF0E0
:10370500E4A3F0A3F0A3F01244DF9001F7EEF0A3D9
:10371500EFF09001F4E0FEA3E0FFE4FCFD7B487AC6
:10372500EEF9F8C312153E500A9001F474EEF0A3B9
:103735007448F09001F4E0FEA3E0FF9001F8E02F5B
:10374500FF9001F7E03EFEE4FCFD7B487AEEF9F8D8
:10375500C312153E401F9001F4E0FEA3E0FF900167
:10376500F7E0FCA3E0FD2FFFEC3EFED3ED9FEC9EC2
:103775005003023822E490017FF0A3F09001F6F0A7
:103785009001F6E0FFC394147480948040030238DE
:103795001BEF75F003A42485F582E43401F583E07D
:1037A5005401640170679001F6E0FF75F003A424ED
:1037B50086F582E43401F583E0FCA3E0FD9001F792
:1037C500E0FAA3E0FBD3ED9BEC9A402CEF75F003F8
:1037D500A42486F582E43401F583C083C082C3A3A3
:1037E500E09BFF0582D5820215831582E09AD0827F
:1037F500D083F0A3EFF080159001F6E075F003A4F7
:103805002486F582E43401F583E4F0A3F09001F613
:10381500E004F0023785E49001F7F0A3F09001F79A
:05382500E0FEA3E0FF3E
:01382A00227B
:10487600E4FFEFC39414748094805015EF75F00331
:10488600A42485F582E43401F583E054FEF00F801C
:01489600E140
:0148970022FE
:06392A007D147F647E00A5
:0B3930009001F0EEF0A3EFF0A3EDF02B
:10393B00E4A3F0F09001F3E0FFC39414748094803F
:10394B00502EEF75F003A42485F582E43401F58342
:10395B00E0FF540164017010EFC313547FFF90011B
:10396B00F2E06F7003023A0E9001F3E004F080C4B2
:10397B00E49001F3F09001F3E0FFC394147480948E
:10398B00804003023A0EEF75F003A42485F582E420
:10399B003401F583E0FF540170609001F3E0FE7594
:1039AB00F003A42485F582E43401F583EF4401F0A0
:1039BB009001F2E0547F25E0FFEE75F003A424851F
:1039CB00F582E43401F583E054014FF09001F0E00F
:1039DB00FEA3E0FF1236FD9001F1E02FFF9001F006
:1039EB00E03EFE9001F3E075F003A42486F582E43B
:1039FB003401F583EEF0A3EFF0229001F3E004F035
:033A0B00023980FD
:013A0E002295
:1045FD00E4FEEEC39414748094805034EE75F00391
:10460D00A42485F582E43401F583E0FD54016401B1
:10461D00701BEDC313547FB50713EE75F003A4247F
:10462D0085F582E43401F583E054FEF0220E80C25C
:01463D00225A
:0B3AEE009001D1EEF0A3EFF0A3EDF08B
:103AF900E4A3F0F09001D4E0FFC39414748094809F
:103B0900502DEF75F003A42485F582E43401F58383
:103B1900E0FF54016401700FEFC313547FFF90015C
:103B2900D3E0B5070280649001D4E004F080C5E4D5
:103B39009001D4F09001D4E0FFC394147480948070
:103B49004003023BCBEF75F003A42485F582E434EE
:103B590001F583E0FF540170609001D4E0FE75F037
:103B690003A42485F582E43401F583EF4401F09040
:103B790001D3E0547F25E0FFEE75F003A42485F519
:103B890082E43401F583E054014FF09001D1E0FE65
:103B9900A3E0FF1236FD9001D2E02FFF9001D1E0A2
:103BA9003EFE9001D4E075F003A42486F582E43446
:103BB90001F583EEF0A3EFF0229001D4E004F002C6
:023BC9003B3D82
:013BCB0022D7
:103A0F00EF14B40D004003023AED903A2775F0031E
:103A1F00A4C58325F0C58373023A50023A50023A87
:103A2F0050023A64023A68023A79023A92023AA88C
:103A3F00023AED023ACE023AE3023AED023AE6805A
:103A4F0000900173E0FF12463E900173E0FD7F117D
:103A5F007E000245707F80800E90010EE0C413132C
:103A6F0054031350797F8302318D900117E0FF13B8
:103A7F0013543F1340687811E654F04407F6EF44AF
:103A8F0004F022E4900278F0A3F0900116F0900178
:103A9F0021F0A3F0900127F022900117E0FF1313FC
:103AAF0013541F135014EF54F7F054FEF07F1212FB
:103ABF002EEF7D087FB87E0B80177F13022EEF90BD
:103ACF000117E04440F07F8212318D7D0A7F987E8E
:0F3ADF003A023930024898D2B77F09123BCC2205
:103EEA00E49001D0F0A3F0A3F0A3F09001D0F090F9
:103EFA0001D0E0C394147480948050681244DF9017
:103F0A0001D2EEF0A3EFF09001D0E0FF124A535035
:103F1A004B9001D0E0FF124A08D39001D3E09F9062
:103F2A0001D2E09E40369001D0E0FF124A1C900177
:103F3A00D0E0FF1249DF9001D1EFF0C3940F7480F3
:103F4A0094805007E0FF123A0F80119001D1E0FFF0
:103F5A00C3942E7480948050031200669001D0E0BE
:043F6A0004F0808B54
:013F6E002230
:10006600EF24F0B41E004003020DEA90007F75F005
:1000760003A4C58325F0C583730201670203EC025E
:100086000DEA0207CC0207590201DB020A21020D22
:100096001D020BB00207B9020A040200E50200D9EC
:1000A6000200DD0200E10200EA0200F6020100029F
:1000B600010A02011402011E020128020D66020D48
:1000C60082020D74020D90020D9E020DAD0201C258
:1000D6000201D37F1C800A7F1D80067F1E80027F5F
:1000E6001B0242687F1F1242687D1F7FFA0207AB20
:1000F6007F1F1242687D20020A1A7F211242687D04
:1001060021020A1A7F221242687D22020A1A7F23DE
:100116001242687D23020A1A7F241242687D240255
:100126000A1A7F1C1242687F1E12426812496A7FB1
:100136001C12426812496A7F1E12426812496A7F7F
:100146001C12426812496A7F1E12426812496A7F6F
:100156001C12426812496A900111E054E04414F0FE
:10016600221249B3EF6401702490010EE0C4131308
:1001760054031340427F17124A5350081245FD7D1F
:100186001712392C7F16124A53502C802290010EDA
:10019600E0C41313540313501E7F17124A5350081A
:1001A6001245FD7D1712392C7F16124A535008123C
:1001B60045FD7D1612392C7D10020A1A900117E0B2
:1001C6001350057F8112318D7D2C020A1A9001177A
:1001D600E054DFF022124A91900183EEF0A3EFF093
:1001E600124A8A9001C3EEF0A3EFF0900183E0FE7D
:1001F600A3E0FFD39496EE940250099001CA7415B9
:10020600F00202F1D3EF9496EE94024012D3EF94EB
:10021600A3EE940250099001CA7418F00202F1D3B9
:10022600EF94A3EE94024012D3EF94A6EE940250FC
:10023600099001CA7404F00202F1D3EF94A6EE9479
:10024600024012D3EF94FBEE940250099001CA7457
:1002560003F00202F1D3EF94FBEE94024011D3EFC8
:100266009422EE940350089001CA7402F0807CD365
:10027600EF9422EE94034011D3EF9450EE94035082
:10028600089001CA7401F08062D3EF9450EE940393
:100296004010D3EF9475EE94035007E49001CAF032
:1002A6008049D3EF9475EE94034013D3EF9496EE02
:1002B6009403500A900106E064017002801F9001C9
:1002C60083E0FEA3E0FFD39475EE94034017D3EFCB
:1002D600949FEE9403500E900106E070089001CAB8
:1002E6007416F080069001CA7417F09001CAE054A3
:1002F6001FFF90010EE054E04FF0900183E0FFA352
:10030600E0900112CFF0A3EFF09001C3E0FEA3E06E
:10031600FFD394C6EE94005010EF9414EE94004070
:10032600089001C87406F08074D3EF94C6EE94006A
:100336004011D3EF94EEEE940050089001C8741962
:10034600F0805AD3EF94EEEE9400400BD3EF947BFB
:10035600EE940250028040D3EF947BEE940240115B
:10036600D3EF94E5EE940250089001C8741AF08019
:100376002CD3EF94E5EE94024011D3EF94A0EE94C3
:100386000350089001C87408F0801290010EE044F2
:1003960020F054E04409F09001C87407F090011170
:1003A600E0541F640970069001C87407F09001C8F4
:1003B600E0541FFF90010FE054E04FF0A280E433B9
:1003C600900177F0E0FF9001C5E06F6002EFF0A2C8
:1003D60081E433900179F0E0FF9001C6E06F70038D
:1003E600020DEAEFF022124A91900183EEF0A3EF9C
:1003F600F0900112EEF0A3EFF090010EE0C413545A
:1004060007135025E4900176F0900178F090017A78
:10041600F0A3F0A3F09001CFF09001C9F090017520
:10042600F09001CBF09001CAF0900183E0FEA3E0CA
:10043600FFD39496EE9402501BE4900176F090015F
:1004460078F090017AF0A3F0A3F09001CFE004F0E9
:10045600E4020517D3EF9496EE9402402FD3EF945F
:10046600A3EE94025026E4900176F0900178F09085
:10047600017AF0A3F0A3F09001CFF09001C9F090BB
:100486000175F09001CBE004F0020626D3EF94A3A9
:10049600EE94024022D3EF94A6EE940250199001F6
:1004A60076E004F0E4900178F090017AF0A3F0A3EE
:1004B600F09001CFF0805AD3EF94A6EE9402402735
:1004C600D3EF94FBEE9402501EE4900176F0900177
:1004D60078E004F0E490017AF0A3F0A3F09001CF65
:1004E600F09001C90205FFD3EF94FBEE9402402B76
:1004F600D3EF9422EE94035022E4900176F090011B
:1005060078F090017AE004F0E4A3F0A3F09001CF34
:10051600F09001C9F09001750205FFD3EF9422EE29
:100526009403402BD3EF9450EE94035022E49001B1
:1005360076F0900178F090017AF0A3E004F0E4A35D
:10054600F09001CFF09001C9F09001750205FFD33C
:10055600EF9450EE9403402AD3EF9475EE94035033
:1005660021E4900176F0900178F090017AF0A3F002
:10057600A3E004F0E49001CFF09001C9F09001757A
:100586008077D3EF9475EE94034031D3EF9496EED3
:1005960094035028900106E064017020900176F0E3
:1005A600900178F090017AF0A3F0A3F09001CFF0DB
:1005B6009001C9E004F0E4900175803D900183E06C
:1005C600FEA3E0FFD39475EE94034030D3EF949FDF
:1005D600EE94035027900106E07021900176F0908A
:1005E6000178F090017AF0A3F0A3F09001CFF0909B
:1005F60001C9E004F0E4900175F08020E4900176F2
:10060600F0900178F090017AF0A3F0A3F09001CF7A
:10061600F09001C9F0900175E004F0E49001CBF090
:10062600C3900184E094BC900183E094024008905A
:100636000182E004F08005E4900182F0900176E00A
:100646006414700B9001CA7404F0E4900176F09083
:100656000178E06414700B9001CA7403F0E4900111
:1006660078F090017AE06414700B9001CA7402F07D
:10067600E490017AF090017BE06414700A9001CA5C
:1006860004F0E490017BF090017CE0641470089023
:1006960001CAF090017CF09001CFE06414700B90D9
:1006A60001CA7415F0E49001CFF09001C9E064141A
:1006B6007009A37416F0E49001C9F09001CBE064D0
:1006C6001470099001CA7418F0E4A3F09001C9E00F
:1006D60064147009A37416F0E49001C9F0900175D2
:1006E600E06414700B9001CA7417F0E4900175F081
:1006F6009001CAE0FF900174E06F600BEFF090018B
:1007060011E054E04414F0900182E06414703090DB
:10071600010FE0FFC413540713501FEF54DFF0908E
:100726000111E054E04414F07F137E00124850EFAC
:100736006008E4FD7F13FE124570E4900182F0909C
:1007460001CAE0541FFF90010EE054E04FF07D1106
:100756000209FD900117E01313543F135009781155
:10076600E654F04402F622900106E064017002802D
:100776004D900117E0C413540713402E90010FE06B
:10078600C413540713500C90010EE0C41313540302
:1007960013500E9001067401F0FD7F107E00024595
:1007A600707D257F0A7E00020DE77D147FB87E0BE3
:1007B600020DE7900106E064016003020DEA7D0A7E
:1007C6007F64FE020DE7124A8A9001C3EEF0A3EFA2
:1007D600F0D394C6EE94005022E094149001C3E046
:1007E60094004017E49001C7F09001CEF090017E8E
:1007F600F0900181E004F0E40208CE9001C3E0FE2F
:10080600A3E0FFD394C6EE94004023D3EF94EEEE1C
:100816009400501AE49001C7F09001CEF090017E4A
:10082600F0900181F09001C2E004F00208D2D3EF0B
:1008360094EEEE9400401ED3EF947BEE9402501596
:100846009001C7E004F0E49001CEF090017EF090B4
:100856000181F08073D3EF947BEE9402401FD3EFB7
:1008660094E5EE94025016E49001C7F09001CEF0A4
:1008760090017EE004F0E4900181F0804BD3EF9488
:10088600E5EE9402401FD3EF94A0EE94035016E4D5
:100896009001C7F09001CEE004F0E490017EF09064
:1008A6000181F0802390010EE04420F054E04409D9
:1008B600F09001C87407F0E49001C7F09001CEF003
:1008C60090017EF0900181F09001C2F0900181E0EC
:1008D6006414701C9001C87406F0E4900181F090D5
:1008E6000110E054FDF054FBF090010EE054DFF0EF
:1008F6009001C2E06414701C9001C87419F0E49071
:1009060001C2F0900110E04402F054FBF090010E99
:10091600E054DFF09001C7E06414701AA37407F086
:10092600E49001C7F0900110E054FBF054FDF09004
:10093600010EE054DFF090017EE06414701C90011B
:10094600C8741AF0E490017EF0900110E04404F0BF
:1009560054FDF090010EE054DFF09001CEE06414F7
:10096600701C9001C87408F0E49001CEF09001105C
:10097600E054FBF054FDF090010EE054DFF09001DE
:10098600C8E0541FFF90010FE054E04FF09001C300
:10099600E0FEA3E0FFD39402EE94014009D3EF9466
:1009A60015EE9403400D9001CDE004F0E49001CCE7
:1009B600F0800BE49001CDF09001CCE004F09001C2
:1009C600CDE06414701FF090010EE0FFC4131354C1
:1009D60003135021EFC4135407134019900110E07C
:1009E6004408F080109001CCE064147008F0900187
:1009F60010E054F7F07D137F2C7E01020DE7900185
:100A060017E0FFC313135003020DEAEF4408F04446
:100A160010F07D087FE87E03020DE71249B3EF640C
:100A2600016003020B7590010EE0FFC4131354031B
:100A360013402EEF4440F0C2EAC2A6A280E43390EF
:100A46000177F0E0FF9001C5E06F6002EFF0A28150
:100A5600E433900179F0E0FF9001C6E06F6002EFA9
:100A6600F090010EE0C41354071350057D2A020BC3
:100A7600667811E6C4540F6402704490010FE0FFDB
:100A8600541F6407702CEFC413135403134023A39D
:100A9600E0FF13401DEF131313541F13401490016E
:100AA6000FE0C41354071340047D2780027D2602FD
:100AB6000B66900111E0541F6409704F020B5D78BC
:100AC60011E6C4540F6407704490010FE0FF541FF1
:100AD6006407702BEFC413135403134022A3E0FFE3
:100AE60013401CEF131313541F13401390010FE010
:100AF600C41354071340047D2780027D268061902D
:100B06000111E0541F64097002804C80517811E68F
:100B1600C4540F6401705090010FE0FF541F640726
:100B2600702BEFC413135403134022A3E0FF1340AA
:100B36001CEF131313541F13401390010FE0C4133B
:100B460054071340047D2880027D268013900111EE
:100B5600E0541F640970077D2A7F64FE80067D29A4
:100B66007F647E001239307D167F887E1380359033
:100B7600010EE054BFF0C2EA4480F0A3E054BFF097
:100B8600900139E06401700D900106E06401700582
:100B96007F8212318D7D297FF47E011239307D17D7
:100BA6007FF47E01123930020D61A280E433900198
:100BB60077F0A281E433900179F0900177E0FF901D
:100BC60001C5E06F601990010EE0C413540713408D
:100BD6000E9001C5EFF0900111E054E04414F0903E
:100BE6000179E0FF9001C6E06F601990010EE0C444
:100BF60013540713400E9001C6EFF0900111E05414
:100C0600E04414F0900110E0FF134018900113E047
:100C160094FF900112E09403400AEF440190011002
:100C2600F012392A90010EE0541F24FC4003020DF5
:100C3600067003020D0424EF6056147003020D06BD
:100C460024FE604C046003020D1490010FE0FFC403
:100C560013135403134004EF4440F090010FE0FFD8
:100C6600C413540713501FEF54DFF0900111E054E2
:100C7600E04414F07F137E00124850EF6008E4FD54
:100C86007F13FE124570900110E054EFF0020D1430
:100C960090010FE0FFC413540713402F900117E093
:100CA60013402890010EE0C41313540313401CEFA5
:100CB6004420A3F07F137E00124850EF70087D0198
:100CC6007F13FE12457012392A802590010EE0FF2F
:100CD600541F6415701A900106E064017012EFC487
:100CE60013135403134009E4F0FD7F10FE12457000
:100CF60090010FE054BFF0A3E04410F0801080078D
:100D0600900110E04410F090010FE054BFF07D1800
:100D16007F887E13020DE71249B3EF6401702790B6
:100D26000139E06401700E900106E070087D147FC1
:100D360064FE123930900111E054E04414F07D163F
:100D46007F647E00801220A604C2A6C2EA7D291214
:100D5600392C7D177F887E13123930C2EAC2A6224B
:100D6600900111E0541F640E607A7F0E8036900168
:100D760011E0541F640D606C7F0D8028900111E016
:100D8600541F640F605E7F0F801A900111E0541F9C
:100D9600641060507F10800C900111E0541F6409AC
:100DA60060427F09022EEF90026AE0240AF0E064B6
:100DB6003C7007F0900271E004F0900271E0643C30
:100DC6007007F0900276E004F0900276E064187006
:100DD60007F0900275E004F01224327D2B7F107E1E
:050DE600271239302244
:100DEB00021133E86480F8E933E83360110460F0F2
:100DFB00ED33EC337009E8FCE9FDEAFEEBFF22046E
:100E0B0060DED3EB9FEA9EE99DE8C2E78CF0C2F768
:100E1B0095F0400CE8CCF8E9CDF9EACEFAEBCFFB34
:100E2B001210FE85D0F05804700320D5B3E804707F
:100E3B00075002B2D502113D92D5EC0460F7E4CC19
:100E4B00C0E0C398F8603B94186008400DD0E0FBFD
:100E5B00021115E4FBFAC9FC8028E830E406E4C96A
:100E6B00FBE4CAFCE830E305E4C9CACBFCE8540751
:100E7B006010F8C3E913F9EA13FAEB13FBEC13FC5C
:100E8B00D8F130F52FC3E49CFCEF9BFFEE9AFEEDFF
:100E9B0099FDD0E0FBEF4E4D4C701222DB0302119B
:100EAB003AEC2CFCEF33FFEE33FEED33FDED30E788
:100EBB00EB021115EF2BFFEE3AFEED39FDD0E0FB07
:100ECB0050130BBB000302113DED13FDEE13FEEFB0
:080EDB0013FFEC13FC021115DA
:100EE300EC4D6011E8497017ED33EC3304600DE409
:100EF300FCFFFEFD22E933E8330470F802113312DC
:100F030010FE58046009E4CC2481500628500902DD
:100F1300113D28400302113AC0E0EB4A7044B98006
:100F230006D0E0FB021129EF4E701CBD8008EBFFD9
:100F3300EAFEE9FD80EBE98DF0A4FEE5F0020FCCBB
:100F4300E9CDF9EAFEEBFFEF89F0A4FCE5F0CE89E9
:100F5300F0A42EFFE435F0CD89F0A42DFEE435F0A6
:100F63008067EF4E7005BD80D780C3EF8BF0A4ACD4
:100F7300F0EE8BF0A42CFCE435F0F8EF8AF0A42C0F
:100F8300E5F038FCE433CB8DF0A42CFCE5F03BF822
:100F9300EE8AF0A42CFCE5F038F8E433CF89F0A412
:100FA3002CFCE5F038CF3400CE89F0A42FFFE5F018
:100FB3003EFEE433C98DF0A42EFEE5F039CD8AF070
:100FC300A42FFFE5F03EFEE43DFD33D0E0FB5007E8
:100FD3000BBB000F02113DEC2CFCEF33FFEE33FE95
:060FE300ED33FD021115C3
:100FE90002113DEC5D046005E859047003021133F8
:100FF9001210FE580460F6EC4860F2EC7004FDFE35
:10100900FF22C860DB2481C85009C39860025006DA
:1010190002113A9850CAF582E9294B4A7005AB8208
:1010290002112975F0007C1A7880C3EF9BEE9AEDC6
:1010390099400DC3EF9BFFEE9AFEED99FDE842F052
:10104900DC23ACF0D0E0FFD0E0FED0E0FDAB8220A5
:10105900E7101BEB60BAEC2CFCEF33FFEE33FEED2F
:1010690033FD021115E803F830E705C0F075F0000B
:10107900EF2FFFEE33FEED33FD40B830E7C280AA13
:1010890075F020800E75F010800575F0087D007EE2
:10109900007F003392D530D503121530EC33401060
:1010A900EF33FFEE33FEED33FDEC33FCD5F0ED22EB
:0E10B900E5F0247EA2D513CC92E7CDCEFF2227
:1010C700EDD2E7CD33EC3392D524814006E4FFFE21
:1010D700FDFC22FCE4CFCECDCC24E0501174FF8080
:1010E700EDC3CC13CCCD13CDCE13CECF13CF04701D
:0710F700F030D5DE021530D8
:1010FE00E9D2E7C933E833F892D5EDD2E7CD33EC38
:07110E0033FC5002B2D522B0
:10111500EC30E7100FBF000C0EBE00080DBD00043B
:101125000BEB6014A2D5EB13FCED92E7FD2274FFE7
:10113500FCFDFEFF22E480F8A2D574FF13FC7D8040
:03114500E480EF54
:103E6A00023FF3E493A3F8E493A34003F68001F23C
:103E7A0008DFF48029E493A3F85407240CC8C33359
:103E8A00C4540F4420C8834004F456800146F6DF28
:103E9A00E4800B01020408102040809033C7E47EBE
:103EAA00019360BCA3FF543F30E509541FFEE4931D
:103EBA00A360010ECF54C025E060A840B8E493A3E4
:103ECA00FAE493A3F8E493A3C8C582C8CAC583CA0F
:103EDA00F0A3C8C582C8CAC583CADFE9DEE780BEC7
:013586000044
:10114800E709F608DFFA8046E709F208DFFA803E89
:1011580088828C83E709F0A3DFFA8032E309F60876
:10116800DFFA8078E309F208DFFA807088828C83DE
:10117800E309F0A3DFFA806489828A83E0A3F60892
:10118800DFFA805889828A83E0A3F208DFFA804C6C
:1011980080D280FA80C680D4806980F28033801043
:1011A80080A680EA809A80A880DA80E280CA8033AC
:1011B80089828A83ECFAE493A3C8C582C8CCC58324
:1011C800CCF0A3C8C582C8CCC583CCDFE9DEE780F4
:1011D8000D89828A83E493A3F608DFF9ECFAA9F073
:1011E800EDFB2289828A83ECFAE0A3C8C582C8CCC9
:1011F800C583CCF0A3C8C582C8CCC583CCDFEADEE2
:10120800E880DB89828A83E493A3F208DFF980CC43
:1012180088F0EF60010E4E60C388F0ED2402B4043C
:101228000050B9F582EB2402B4040050AF232345E3
:061238008223901198735F
:10123E00BB010689828A83E0225002E722BBFE02AE
:09124E00E32289828A83E49322E1
:10125700BB010CE58229F582E5833AF583E022504C
:1012670006E92582F8E622BBFE06E92582F8E22296
:0D127700E58229F582E5833AF583E49322B0
:10128400BB010989828A83F8E028F022500327F7FA
:1012940022BBFE05F8E328F3228A838982F8E493CB
:0212A4002822FE
:1012A600F8BB010DE58229F582E5833AF583E8F07E
:1012B600225006E92582C8F622BBFE05E92582C82A
:0212C600F22212
:1012C800EF8DF0A4A8F0CF8CF0A428CE8DF0A42E3A
:0212D800FE22F4
:1012DA00BC000BBE0029EF8DF084FFADF022E4CCF8
:1012EA00F875F008EF2FFFEE33FEEC33FCEE9DECC1
:1012FA00984005FCEE9DFE0FD5F0E9E4CEFD22ED07
:10130A00F8F5F0EE8420D21CFEADF075F008EF2F50
:10131A00FFED33FD4007985006D5F0F222C398FD41
:05132A000FD5F0EA22DE
:10132F00C2D5EC30E709B2D5E4C39DFDE49CFCEED9
:10133F0030E715B2D5E4C39FFFE49EFE1212DAC365
:10134F00E49DFDE49CFC80031212DA30D507C3E460
:06135F009FFFE49EFE2248
:10136500C5F0F8A3E028F0C5F0F8E5821582700213
:061375001583E038F022B0
:10137B00A3F8E0C5F025F0F0E58215827002158325
:06138B00E0C838F0E82282
:10139100BB010A89828A83E0F5F0A3E02250068727
:1013A100F009E71922BBFE07E3F5F009E3192289E9
:0B13B100828A83E493F5F0740193221C
:1013BC00BB0110E58229F582E5833AF583E0F5F06F
:1013CC00A3E0225009E92582F886F008E622BBFE4C
:1013DC000AE92582F8E2F5F008E222E5832AF58392
:0813EC00E993F5F0A3E9932257
:1013F400BB010A89828A83F0E5F0A3F0225006F744
:0F14040009A7F01922BBFE06F3E5F009F3192240
:10141300E88FF0A4CC8BF0A42CFCE98EF0A42CFC78
:101423008AF0EDA42CFCEA8EF0A4CDA8F08BF0A4F6
:101433002DCC3825F0FDE98FF0A42CCD35F0FCEB55
:101443008EF0A4FEA9F0EB8FF0A4CFC5F02ECD391A
:0F145300FEE43CFCEAA42DCE35F0FDE43CFC2287
:1014620075F008758200EF2FFFEE33FECD33CDCC41
:1014720033CCC58233C5829BED9AEC99E5829840C4
:101482000CF582EE9BFEED9AFDEC99FC0FD5F0D6A1
:10149200E4CEFBE4CDFAE4CCF9A88222B800C1B9CB
:1014A2000059BA002DEC8BF084CFCECDFCE5F0CB09
:1014B200F97818EF2FFFEE33FEED33FDEC33FCEB42
:1014C20033FB10D703994004EB99FB0FD8E5E4F9FD
:1014D200FA227818EF2FFFEE33FEED33FDEC33FCEA
:1014E200C933C910D7059BE99A4007EC9BFCE99ADE
:1014F200F90FD8E0E4C9FAE4CCFB2275F010EF2F23
:10150200FFEE33FEED33FDCC33CCC833C810D70722
:101512009BEC9AE899400AED9BFDEC9AFCE899F85D
:0E1522000FD5F0DAE4CDFBE4CCFAE4C8F922F0
:0E153000C3E49FFFE49EFEE49DFDE49CFC22CC
:10153E00EB9FF5F0EA9E42F0E99D42F0EC6480C824
:06154E0064809845F022C4
:10155400EB9FF5F0EA9E42F0E99D42F0E89C45F0ED
:011564002264
:10156500E86010ECA2E713FCED13FDEE13FEEF139C
:04157500FFD8F02289
:10157900BB010789828A830216285005E9F80216F9
:101589001CBBFE05E9F802163489828A83021640DB
:0C159900ECF0A3EDF0A3EEF0A3EFF022C5
:1015A500A8828583F0D083D0821215BC1215BC1297
:1015B50015BC1215BCE473E493A3C583C5F0C583BC
:1015C500C8C582C8F0A3C583C5F0C583C8C582C890
:0115D50022F3
:1015D600BB010789828A830216595005E9F802166B
:1015E60050BBFE05E9F802166289828A8302166BF1
:1015F600D083D082F8E4937012740193700DA3A384
:1016060093F8740193F5828883E473740293686097
:06161600EFA3A3A380DF97
:0C4A7300EE30E707C3E49FFFE49EFE2244
:0C161C00E6FC08E6FD08E6FE08E6FF22FA
:0C162800E0FCA3E0FDA3E0FEA3E0FF2235
:0C163400E2FC08E2FD08E2FE08E2FF22F2
:10164000E493FC740193FD740293FE740393FF22F0
:09165000E6FB08E6FA08E6F922BF
:09165900E0FBA3E0FAA3E0F92292
:09166200E2FB08E2FA08E2F922B9
:0C166B00E493FB740193FA740293F922DB
:00000001FF
