:0300000002417446
:0C417400787FE4F6D8FD7581790241BB2C
:10211D000D0A507265762E46573A253032782530A5
:10212D00327825303278000D0A437572722E46577B
:10213D003A253032782530327825303278000D0A44
:10214D0043616E6E6F7420616363657373204545E3
:10215D0050524F4D21212121000D0A4E6F20696EE5
:10216D00697469616C697A6500285345545F4D4304
:10217D00555F504F5745525F444F574E5F4D4F443B
:10218D00452920000D0A285345545F50574D3D25D4
:10219D003032782076616C3D253032782900282A3E
:1021AD004456524368616E676543757272656E740D
:1021BD003D3330306D412900282A44565243686121
:1021CD006E676543757272656E743D313030306D7A
:1021DD004129000D0A3D3D3D3D3D3D3D3D3D3D3DD2
:1021ED003D3D3D3D3D3D3D3D3D3D3D3D3D3D3D3D12
:1021FD003D3D3D3D3D3D3D000D0A53797374656D8B
:10220D0020686173206265656E20776F726B696EF1
:10221D006720666F7220256420646179732C2025F8
:10222D006420686F7572732C202564206D696E753E
:10223D0074657320616E64202564207365636F6E11
:10224D006473000D0A53797374656D206861732092
:10225D006265656E20776F726B696E6720666F724F
:10226D0020256420686F7572732C202564206D699C
:10227D006E7574657320616E6420256420736563CB
:10228D006F6E6473000D0A53797374656D20686108
:10229D0073206265656E20776F726B696E6720665D
:1022AD006F72202564206D696E7574657320616E83
:1022BD0064202564207365636F6E6473000D0A538B
:1022CD00797374656D20686173206265656E207722
:1022DD006F726B696E6720666F722025642073655F
:1022ED00636F6E6473000D0A2842617474657279B0
:1022FD004254483D25642825642E2564562929001D
:10230D002854454D505F48494748290028484947BA
:10231D00485F544D45505F5741524E290028544552
:10232D004D505F4C4F572900284C4F575F544D452A
:10233D00505F5741524E29002854454D505F4E4F26
:10234D00524D414C29000D0A284261747465727911
:10235D004341503D25642825642E2530346456298B
:10236D002928256456290028484947485F43484194
:10237D005247452900284C4F575F43484152474526
:10238D002900284E4F524D414C5F4348415247451D
:10239D0029002853544F505F434841524745290067
:1023AD00284348415247455F4E4F5F42415454299F
:1023BD0000285F424154545F5354415455535F4379
:1023CD00415041434954595F4C4556454C302900C5
:1023DD00285F424154545F5354415455535F434118
:1023ED005041434954595F4C4556454C31290028BD
:1023FD005F424154545F5354415455535F434150D0
:10240D0041434954595F4C4556454C322900285F8C
:10241D00424154545F5354415455535F43415041CD
:10242D00434954595F4C4556454C332900285F426A
:10243D004154545F5354415455535F4341504143AC
:10244D004954595F4C4556454C342900285F42414B
:10245D0054545F5354415455535F43415041434984
:10246D0054595F4D494E2900285F424154545F53E2
:10247D0054415455535F43415041434954595F4D65
:10248D0041582900285F424154545F5354415455DB
:10249D00535F43415041434954595F4D41585F5338
:1024AD00544F50290028424154544552595F4341DD
:1024BD005041434954595F4E4F5F53544152545507
:1024CD00502900285F424154545F53544154555391
:1024DD005F4E4F5F424154542900284348415247B3
:1024ED00455F544D45505F41424E4F524D414C2931
:1024FD00000D0A285F504F5745525F5354415455B4
:10250D00535F534156494E4729000D0A285F504FDE
:10251D005745525F5354415455535F4F464629001A
:10252D000D0A285F504F5745525F53544154555330
:10253D005F4E4F524D414C29000D0A28504F5745C3
:0D254D00525F5354415455533D25642900FD
:103529004102690041026A0041025E0041026000F5
:103539004102610041025C004102540041026B00FA
:103549004102590002400000014600C101C1800248
:1035590047000001440001450002740000046900AD
:10356900000000046D00000000C104410255010182
:103579007200014200014300C102C10341025F0020
:103589004102560041026200440265000000004207
:0435990002630000C9
:103999001246C49001D212165D7F047E00124B12AA
:1039A9007E00C007C0067F05124B127E00C007C00B
:1039B900067F06124B129001E0E4F0A3EFF09001AC
:1039C900DED0E0F0A3D0E0F09001DCD0E0F0A3D0AD
:1039D900E0F07BFF7A21791D1248AB1246C4E47BE3
:1039E90033FAF9F8C3121618605F7BFF7A2179342C
:1039F900E49001DCF0A3F0A3F0A3F0A3F0A37433E7
:103A0900F01248AB124C4B7F047E00124B127E0021
:103A1900C007C0067F05124B127E00C007C0067F93
:103A290006124B129001E0E4F0A3EFF09001DED012
:103A3900E0F0A3D0E0F09001DCD0E0F0A3D0E0F01A
:103A49007BFF7A2179341248AB1246C4E47B33FAFE
:103A5900F9F8C3121618700B124758EF701E124569
:103A69007480197BFF7A21794B1248AB7BFF7A214D
:103A790079661248AB90012E74FFF0227F64124CD4
:0E3A89007D7811E6540F4410F654F04402F616
:013A9700220C
:10462600758DF4759850758922758855758A40750B
:104636008C4075878075B80275A892D299D2ACE481
:10464600F5C8C2CAD2AD75AA5075BAF443A61843C6
:10465600AD10C203F5E9F5F975D90443D840439383
:10466600A04391C475B10C75B23075B30CF5B42284
:104A01007BFF7A2179761248ABD2C2C2C1D2C0D221
:104A1100C6C2C5D2C4900259E5A8F075A88090011C
:0F4A21001B7401F0D2E8D2E975878200000022F1
:104C140020850320EA137F327E00124C682085032E
:0C4C240020EA037F01227F00227F002293
:10404C009001D7EFF0A3EDF07BFF7A2179919001ED
:10405C00DCE4F0A3EFF0EDFFA3E4F0A3EFF01248E3
:10406C00AB9001D7E0606D24EB60532416606124A3
:10407C00EB706475EC809001D8E0FFC374FF9FF582
:10408C00FC75DC42EF7004F5DCC294900114E06422
:10409C0010701175EC8075FC6675DC427BFF7A2123
:1040AC0079AB8017900114E06411702B75EC80755E
:1040BC00FCFF75DC427BFF7A2179C50248AB75EDBC
:1040CC00809001D8E0FFC374FF9FF5FD75DD42229F
:0840DC0043D8402253D84022D2
:03000B00022D9C27
:0B2D9C00C0E0C083C082C0D075D0082A
:102DA70005730545C3E545940A74809480401390E4
:102DB7000182E004F07006900181E004F07545009F
:102DC700D20C90025DE0600214F090025DE06003B7
:102DD700022F49E5B0540C13135403FF900268E027
:102DE7006F7003022F49900266E0900265F090022F
:102DF70067E0900266F0900268E0900267F0A3EF48
:102E0700F0D20590025D7430F0900265E0FF7E001D
:102E17007020A3E06401701AA3E064037014A3E0B8
:102E27006402700E900264E004F07006900263E0A2
:102E370004F0EF64014E7020900266E0640370189E
:102E4700A3E064027012A3E0700E900264E004F045
:102E57007006900263E004F0900265E06403701E60
:102E6700A3E064027018A3E07014A3E06401700E7D
:102E7700900264E004F07006900263E004F09002B0
:102E870065E0FF7E006402701EA3E0701AA3E06491
:102E9700017014A3E06403700E900264E004F07004
:102EA70006900263E004F0EF4E7022900266E06441
:102EB70002701AA3E064037014A3E06401700E901B
:102EC7000264E024FFF0900263E034FFF0900265B3
:102ED700E06402701EA3E064037018A3E06401704D
:102EE70012A3E0700E900264E024FFF0900263E00A
:102EF70034FFF0900265E0FF7E006403701EA3E0DC
:102F070064017018A3E07014A3E06402700E9002CD
:102F170064E024FFF0900263E034FFF0EF64014EB9
:102F27007020900266E0701AA3E064027014A3E0B8
:102F37006403700E900264E024FFF0900263E034B3
:102F4700FFF0D3E573946074809480500302304897
:102F5700054AE54A700205497573000544E544646E
:102F6700647010F544E54690025F6005E004F08068
:102F770002E4F0E575F47003E574F460080575E59F
:102F87007570020574AF70AE6FAD6EAC6DEC4D4EE3
:102F97004F6014EF24FFF570EE34FFF56FED34FF4B
:102FA700F56EEC34FFF56D900257E07002A3E06018
:102FB7000E900258E024FFF0900257E034FFF0E54E
:102FC700E8F4FF131313541F30E04CE54164324516
:102FD70040701A900106E0600B7811E6FFC4540FA9
:102FE70064077029754601C200D2018020E541B40B
:102FF700201BE540B4031630000D754601D2019041
:10300700026B7401F0C2007540007541330541E55C
:1030170041702E0540802AC3E5419432E540940073
:103027004012900106E06401700A300007754601FE
:10303700D2018005754600C201D200754000754176
:013047000088
:09304800D0D0D082D083D0E03258
:102981007BFF7A2179E07F011247E6900260E0FF48
:1029910060327BFF7A2279059001DCE4F0A3EFF04D
:1029A100900261E0FF9001DEE4F0A3EFF090025CA1
:1029B100E0FF9001E0E4F0A3EFF0900254E0FF901B
:1029C10001E28057900261E0FF60257BFF7A227966
:1029D100509001DCE4F0A3EFF090025CE0FF900185
:1029E100DEE4F0A3EFF0900254E0FF9001E0802BD1
:1029F10090025CE0FF7BFF60167A2279929001DC05
:102A0100E4F0A3EFF0900254E0FF9001DE800C7A35
:102A11002279CA900254E0FF9001DCE4F0A3EFF0C8
:102A21007F031247E69001C5E0FEA3E0FF9001DCC1
:102A3100EEF0A3EFF07805C333CE33CED8F9FBAA7D
:102A4100067C277D10FF12139E9001DEEEF0A3EFAE
:102A5100F07C277D10AF03AE0212139EA3ECF0A30E
:102A6100EDF07BFF7A2279F37F021247E690010FA6
:102A7100E0541F6406700A7BFF7A23790D7F018081
:102A810042900110E0C31313500A7BFF7A23791996
:102A91007F03802F90010FE0541F6408700A7BFFB1
:102AA1007A23792A7F04801B900110E01313543F8D
:102AB100137BFF50087A2379357F0380067A2379C7
:102AC100457F021247E6900111E0541F6409706FBF
:102AD100A3E0FEA3E07805C333CE33CED8F9246A50
:102AE100FFEE34FFFE7C277D1012139E7E007F6473
:102AF100CFCDCFCECCCE12139EAA06AB079001123A
:102B0100E0FEA3E07805C333CE33CED8F9246AFFC3
:102B1100EE34FFFE7C277D1012139E7C007D641233
:102B2100138CEF2BFFEE3AFE9001D6F0A3EFF07D70
:102B31003712138C7D6412139E9001D6EE80719032
:102B41000112E0FEA3E0FF7C007D3B12138C7D644B
:102B510012139EEF25E0FBEE33FA900112E0FEA383
:102B6100E0FF7C007D3B12138C7D6412139EEF2BE2
:102B7100FFEE3AFE9001D6F0A3EFF07C037DE81260
:102B8100139EEF4E9001D66017E0FEA3E0FF7C009C
:102B91007D0A12139EEF2401FFE43E9001D68010BE
:102BA100E0FEA3E0FF7C007D0A12139E9001D6EEA9
:102BB100F0A3EFF0900112E0FEA3E0FF9001DCEE44
:102BC100F0A3EFF07C007D2112138CAA06AB077CE9
:102BD100277D1012139EA3EEF0A3EFF07C277D104A
:102BE100AF03AE0212139EA3ECF0A3EDF09001D659
:102BF100E0FFA3E09001E2CFF0A3EFF07BFF7A23A7
:102C010079537F051247E6900111E0541F640D705E
:102C11000A7BFF7A2379747F02804E900111E05480
:102C21001F640E700A7BFF7A2379827F03803A90BA
:102C31000111E0541F640F700A7BFF7A23798F7FA3
:102C4100058026900111E0541F6410700A7BFF7A01
:102C510023799F7F018012900111E0541F64097054
:102C61000B7BFF7A2379AD7F011247E690010EE0DD
:102C7100541F640470087BFF7A2379BE804490015D
:102C81000EE0541F640370087BFF7A2379DD8032E4
:102C910090010EE0541F640270087BFF7A2379FCD7
:102CA100802090010EE0541F640170087BFF7A249C
:102CB100791B800E90010EE0541F700A7BFF7A246D
:102CC100793A7F02806290010EE0541F6415700A08
:102CD1007BFF7A2479597F04804E90010EE0541FC6
:102CE1006416700A7BFF7A2479757F06803A900119
:102CF1000EE0541F6417700A7BFF7A2479917F05D7
:102D0100802690010EE0541F6418700A7BFF7A241C
:102D110079B27F05801290010EE0541F6409700B97
:102D21007BFF7A2479D07F011247E6900110E013EE
:102D31001313541F13500B7BFF7A2479E77F011281
:102D410047E67811E6C4540F640770087BFF7A24C4
:102D510079FE80377811E6C4540F640170087BFF57
:102D61007A25791780257811E6C4540F64027BFF18
:102D710070067A25792D80137A2579467811E6C473
:102D8100540FFF9001DCE4F0A3EFF07F061247E659
:0B2D91007BFF7A2179E07F010247E61A
:104C9500E4FFEFC3941D74809480500974222FF8AB
:054CA500E4F60F80EDB4
:014CAA0022E7
:10448400EF24E5B40A00507090449A75F003A4C573
:104494008325F0C583730244C40244B80244C202B3
:1044A40044BD0244C60244FC0244CE0244D8024441
:1044B400E50244F1D2E9D2E822D2E8C2E922800539
:1044C400801530E817C2E8D2E92230E905C2E9D202
:1044D400E822800830E805C2E8C2E922D2E8D2E93D
:1044E4002230E904C2E98002D2E9C2E82230E804B9
:0944F400C2E88002D2E8C2E9220C
:03001300020026C2
:03002600C2AA3239
:03002300024A305E
:104A3000C0E0C0D075D008309819744B2571F8A625
:104A4000990571C3E571941E74809480400375715B
:0F4A500000C298309904C299C202D0D0D0E0328F
:0300630002492728
:10492700C0E0C0D075D008E5AA54016401701A53DD
:10493700AAFE74222542F8A69A0542C3E542941EB0
:10494700748094804003754200E5AA5402640270A3
:0B4957000553AAFDC203D0D0D0E0320F
:0B4D4B00E542B543037F00227F0122F8
:104BF60053ADEF74222543F8E6FF0543E543C3941E
:0D4C06001E748094804003E4F54343AD101C
:014C1300227E
:080003002003FD8F9AD20322B5
:03002B00024D3053
:0F4D3000C0E0C2CF0548E54870020547D0E03229
:104C7D00E5442FFFE433FE7C007D6412139EE54472
:074C8D00B505FBE4B504F7D7
:014C940022FD
:03003300024B99E4
:104B9900C0E0C083C082C2C2C2C175878090025979
:0F4BA900E0F5A890011BE4F0D082D083D0E03279
:03003B00024BB8BD
:104BB800C0E0C083C082C2C6C2C575878090025952
:0F4BC800E0F5A890011BE4F0D082D083D0E0325A
:104CFB000D0A436C656172426173696345452E2EE3
:024D0B002E0078
:1046C4007E007D007C007F05124B12EF7F00FEC050
:1046D40007C0067F047E00124B127E00EF7810C3E1
:1046E40033CE33CED8F9FDD0E04EFED0E04DFFC03E
:1046F40007C0067F067E00124B12EFFDD0E0FED00D
:09470400E04DFFEE3395E0FDFCF1
:01470D002289
:104758009001D67401F0E4FFFE124B12EF64306052
:10476800037F00227F017E00124B12EF6437600343
:104778007F00227F027E00124B12EF643060037FBD
:1047880000227F037E00124B12EF644960037F0012
:06479800229001D6E0FFB3
:01479E0022F8
:104C4B00E4FD7F04FE12479FE4FD7F05FE12479FA4
:094C5B007D337F067E0002479FB5
:104574007BFF7A4C79FB1248AB7D30E4FFFE124797
:104584009F7D377F017E0012479F7D307F027E0032
:1045940012479F7D497F037E0012479F7D017F1054
:1045A4007E0012479F7D277F117E0012479FE4FD06
:1045B4007F07FE12479FE4FD7F12FE12479FE4FD32
:0F45C4007F13FE12479F7D017F147E0002479FE9
:04359D0041010500E3
:091C9100124D4BEF700302211CFF
:101C9A00124BF69001D2EFF07E00647E700DC20BFB
:101CAA0090010504F0E4900003F022EF647D4E7089
:101CBA0003D20B22300B09C20B9001D2E04470F020
:101CCA00900105E0FB64046010900003E0FE9001BF
:101CDA00D2E0FDEE6D900003F0EB24FE603214605A
:101CEA0063147003021D962403600302211C9001F1
:101CFA00D2E0900002F01424F8500E24F924FD508A
:101D0A0008248E6004245570389001057402F0226C
:101D1A009001D2E0900001F0A3E01424F8500E24C0
:101D2A00F924FD5008248E60042455701490000193
:101D3A00E07002804DE4900000F09001057403F019
:101D4A0022022117900002E01424F8500E24F924EC
:101D5A00FD5008248E60042455702E9001D2E0FFB5
:101D6A00900000E02405F582E43400F583EFF0905A
:101D7A000000E004F0A3E0FF900000E06F600302BF
:101D8A00211C9001057404F0220221179001D2E06F
:101D9A00FF900003E06F6003022117900002E01237
:101DAA0016BA1DD7011E10021E2A031E33041E3C3A
:101DBA00051F4D061F930720D4081FBE101FC71109
:101DCA0020331220C93020FB85000021179001180A
:101DDA00E04401F0900111E054E04414F09001183D
:101DEA00E0FF131313541F13500EEF54F7F07F1331
:101DFA001230517F0812482C900118E0C313135077
:101E0A000302211780117F1A12482C900118E0C38F
:101E1A00131350030221177D1A7F107E270220CF49
:101E2A007D067FE87E030220CF7D077F647E000265
:101E3A0020CF900005E0FDC4540F75F00AA4FFED11
:101E4A00540F7C002FFDEC35F0FC12115290013C2E
:101E5A0012165D900006E0FDC4540F75F00AA4FF47
:101E6A00ED540F7C002FFDEC35F0FC12115290015D
:101E7A002A12165D900007E0FDC4540F75F00AA4FB
:101E8A00FFED540F7C002FFDEC35F0FC121152903F
:101E9A00014012165D900008E0FDC4540F75F00A67
:101EAA00A4FFED540F7C002FFDEC35F0FC1211520B
:101EBA0090012F12165D900009E0FDC4540F75F0D1
:101ECA000AA4FFED540F7C002FFDEC35F0FC121133
:101EDA005290014412165D90000AE0FDC4540F7539
:101EEA00F00AA4FFED540F7C002FFDEC35F0FC1234
:101EFA00115290013312165D90000BE0FDC4540F8D
:101F0A0075F00AA4FFED540F7C002FFDEC35F0FCB0
:101F1A0012115290014812165D90000CE0FDC45453
:101F2A000F75F00AA4FFED540F7C002FFDEC35F07D
:101F3A00FC12115290013712165D7D0C7FE87E0368
:101F4A000220CF900005E0C394057480948050036A
:101F5A007405F0900005E024FB75F00AA4FFA3E0E5
:101F6A002F900175F0D394287480948040057428CA
:101F7A00F0800A900175E0FFC374289FF07D037F0B
:101F8A00F47E01123D4C022117900005E0FD7C0011
:101F9A00700A900118E054FDF0022117ED64014C1B
:101FAA0060030221177F1A12482C900118E044029C
:101FBA00F00221177D047FE87E030220CF900005FE
:101FCA00E07033900118E054FEF07F1A12482C7F1B
:101FDA001F12482C7F2012482C7F2112482C7F2266
:101FEA0012482C7F2312482C7F2412482C7D227FF2
:101FFA00647E000220CF900005E064017008900121
:10200A0018E044088014900005E06402600302218D
:10201A0017900118E04408F04410F07D087FE87E2C
:10202A0003123B8E7F1A0220C4900005E0FD7C005B
:10203A0064017009900118E054BFF0802F900106E6
:10204A00E064017027ED4C7023900118E054BFF052
:10205A00E4900106F0FD7F10FE12479F900118E000
:10206A00FF1313543F135004EF54FBF0900106E0A2
:10207A0064017044900005E06402703C90010FE036
:10208A004420F0900118E054BFF0E4900106F0FDFE
:10209A007F10FE12479F7F137E00124B12EF7008CB
:1020AA007D017F13FE12479F900118E0FF1313541E
:1020BA003F135004EF54FBF07F0A12482C804E7DE8
:1020CA000B7FE87E03123B8E8043900005E064019B
:1020DA0070107D017F12FE12479F90013B7401F040
:1020EA00802BE4FD7F12FE12479FE490013BF080B3
:1020FA001C900005E0640190011470057411F080D1
:10210A00037410F0900111E054E04414F0E49001DB
:02211A0005F0CE
:01211C0022A0
:044CC0009291D2906B
:0F4CC400E4FFEFC394017480948050030F80F3DA
:014CD30022BE
:0B479F009001D6EEF0A3EFF0A3EDF0C8
:1047AA009001D6E0FEA3E07807CEC313CE13D8F962
:1047BA0044A054FE9001D9F0124D0D9001D9E0FFAA
:1047CA001244099001D6A3E0FF1244099001D8E0EF
:0C47DA00FF1244091200167F02024C7D01
:044B1200AD07AC0639
:104B1600ED7807CEC313CE13D8F944A054FEFF1286
:104B260049629001FAEFF07F02124C7D9001FAE0A3
:014B3600FF7F
:014B3700225B
:084962009001FBEFF0A3EDF062
:10496A00124D0D9001FBE0FF1244099001FCE0FF9B
:10497A00124409124D0D9001FBE04401FF12440953
:10498A0012499B9001FDEFF01200169001FDE0FF25
:01499A0022FA
:104D0D00D291124CC4D290124CC4C291124CC4C256
:024D1D009022E2
:0D001600C291124CC4D290124CC4D291225F
:10440900AE07C290EE30E703D38001C3124CC0C29D
:1044190090EE30E603D38001C3124CC0C290EE3057
:10442900E503D38001C3124CC0C290EE30E403D33C
:104439008001C3124CC0C290EE30E303D38001C3A4
:10444900124CC0C290EE30E203D38001C3124CC0BB
:10445900C290EE30E103D38001C3124CC0C290EE8A
:1044690030E003D38001C3124CC0C290C290C29005
:0B447900D291D290D290D290C290223B
:10499B00E4FED291124CC4C290E4FDFCD290EE2501
:1049AB00E0FE3091034401FEC2900DBD00010CED01
:1049BB0064084C70E7124CC4D290D290D290C29043
:0249CB00AF0635
:0149CD0022C7
:10438B00AE07C290EE30E703D38001C3124CC0C21C
:10439B0090EE30E603D38001C3124CC0C290EE30D6
:1043AB00E503D38001C3124CC0C290EE30E403D3BB
:1043BB008001C3124CC0C290EE30E303D38001C323
:1043CB00124CC0C290EE30E203D38001C3124CC03A
:1043DB00C290EE30E103D38001C3124CC0C290EE09
:1043EB0030E003D38001C3124CC0C290C290C29084
:0E43FB00D291124CC4D290D290D290C2902295
:044B5900AB07AA06F6
:104B5D007E5E124D0D7F5E12438BAF0312438BAF02
:0C4B6D000512438B1200167F02024C7DE3
:104A5F007F01124C30EF602590026BE064017014FF
:104A6F00900106E06401700C90026BF07D057FF4FD
:0E4A7F007E0180067D147F647E00123B8E2235
:104C3000A2019209C2012009037F0022EF6003AFA5
:0A4C40004622200003AF46227F0049
:014C4A002247
:1044FD000D0A5374617274204D61696E204C6F6F9B
:10450D00702E2E2E000D0A537461727420426F6F3F
:10451D00742E2E2E000D0A2843616D657261566F43
:10452D006C743D256429000D0A28476F696E67205C
:10453D00746F20706F776572206F66662E2E2E2930
:10454D00000D0A2853746172742075702020506F0D
:10455D00776572204F6E204D6F64652E2E2E2900CB
:07456D000000000000000047
:1035A10046010E0000000000004201180000410128
:1035B100140041011B0044012500000000420115D7
:1035C100000041011700410129004101220042018F
:1035D10023000044013C3F8000004401403F800043
:1035E100004401443F8000004401483F8000004402
:1035F100012A0000000044012F00000000440133B3
:1036010000000000440137000000004601080000EE
:103611000028001546011C00000028001560290142
:103621004C0506080A0B0D0F10121416181A1C1E51
:10363100202225272A2C2F3235383B3E4245484B44
:0A3641005055585D61666B70757A94
:1049CE0075E5028DE39001DBE0F5E4121302F5E2EA
:1049DE0075E64675E6B9740129F9E43AFA9001DBF9
:1049EE00E004F0E070030D8DE39001DCE014F0E0E4
:0349FE0070D32251
:04000E0075E78122EF
:104B3800E49001D6F012000E7B017A0179D690013B
:104B4800DB74FFF0A37401F07DEF1249CE75E760C6
:014B5800223A
:103EFF00FF6DFD9002147401F0A37402F0A3740F10
:0A3F0F00F0EFA3F07B017A0179FFC7
:103F1900900211EBF0A3EAF0A3E9F0900217E0FF99
:103F2900647E6005EF647D703F900214E0FBA3E0BE
:103F3900FAA3E0F9121302FF900211E0FBA3E0FAE1
:103F4900A3E0F98F82758300747D12136A900214BD
:103F5900E0FBA3E0FAA3E0F97401121348900217F9
:103F6900E0540F4450FF8010900217E0FF900214B4
:103F7900E0FBA3E0FAA3E0F9121302FE900211E0BC
:103F8900FBA3E0FAA3E0F98E82758300EF12136AAE
:103F9900900214E0FBA3E0FAA3E0F97401121348BC
:033FA9007F002274
:0B40E4009001FBEBF0A3EAF0A3E9F071
:1040EF009001FF747EF090020F7401F0EF123F0108
:1040FF009001FEE0123EFFE4900210F09001FEE00E
:10410F00FF900210E0FEC39F501E9001FBE0FBA347
:10411F00E0FAA3E0F98E8275830012131B123EFFA3
:10412F00900210E004F080D49002147401F0A37494
:10413F0002F0A3740FF0ED123F11E4900210F09013
:10414F00020FE0FFA3E0FEC39F501774FF2EF5820E
:10415F00E43401F583E0FF120003900210E004F055
:04416F0080DD7F0070
:014173002229
:0532EF009001F2EFF078
:1032F40078F37C017D017BFF7A45796D7E007F0741
:103304001212DC9001F2E0247F604E147003023448
:10331400DC147003023507147003023517240460AB
:10332400030235287F047E00124B129001F3EFF064
:103334007F057E00124B129001F4EFF07F067E00B1
:10334400124B129001F5EFF07B017A0179F39001B1
:10335400FE7403F07F80023525900112E0FEA3E0A5
:10336400FF7C007D3B12138C7D6412139EEF25E0DD
:10337400FBEE33FA900112E0FEA3E0FF7C007D3BFC
:1033840012138C7D6412139EEF2BFFEE3AAB07FAF7
:103394007C037DE8FE12139EEF4E7C007D0AAF0392
:1033A400AE02600912139EEF2401FB800512139EE6
:1033B400AB079001F3EBF09001C5E0FCA3E0FDEC5A
:1033C4009001F5F0EDA3F0900117E0FF75F00A8489
:1033D400C454F0FEEF75F00A84E5F04E9001F7F066
:1033E400900123E0FEA3E0FF7C007D0A12139EEF10
:1033F400C454F0FB900123E0FEA3E0FF7C007D0AAF
:1034040012139EEB4D9001F8F0900129E09001F920
:10341400F090010EE0F9C413135403135007900104
:10342400F4E04401F090010FE0541FFD7C006406B9
:1034340070079001F4E04402F0ED64084C700790CA
:1034440001F4E04404F0E9C4135407135007900155
:10345400F4E04408F0900110E0FD1350079001F4EB
:10346400E04410F0EDC3131350079001F4E044203E
:10347400F0900110E01313543F1350079001F4E04F
:103484004440F020804230813FD39001C6E0945AFA
:103494009001C5E09400403090010FE0FFC4131385
:1034A4005403134023EF541F6407701CA3E0131349
:1034B40013541F13401290010EE0C4135407134019
:1034C400079001F4E04480F07B017A0179F39001E4
:1034D400FE7407F07F81804990010EE0FFC413134E
:1034E40013540113500D9001F37401F0EF547F90C5
:1034F400010EF07B017A0179F39001FE7401F07FF3
:1035040082801E7B017A0179F39001FE7401F07FC1
:1035140083800E7B017A0179F39001FE7401F07FC0
:04352400841240E4E9
:013528002280
:1045D30012003E7D157F017E00123B8E7D117F010F
:1045E3007E00123B8E7D167FE87E03123B8E7D1389
:1045F3007F017E00123B8E7D1F7F017E00123B8E6A
:104603007D107F017E00123B8E7D2C7F107E271252
:104613003B8E7D187F107E27123B8E90010EE04467
:0346230040F02242
:1036F5009001D8EEF0A3EFF0A3EBF0A3EAF0A3E975
:01370500F0D3
:10370600900004121480FDD3EF9DE5F06480F8EE7E
:1037160064809840030237A99001E0E0FBA3E0FA39
:10372600A3E0F9900004121480FFAEF0121455FDC8
:10373600C3EF9DFFEE95F09001E3F0A3EFF090014B
:10374600DAE0FBA3E0FAA3E0F9900004121480FD8E
:10375600ACF0121455FBAAF0C3ED9BFFEC9AFE9059
:1037660001E5F0A3EFF04E7002FF229001D8E0FED3
:10377600A3E0FFC3EF9BFFEE9AFE9001E3E0FCA3FC
:10378600E0FD12138CA3E0FCA3E0FD1213F3C006C8
:10379600C0079001E0E0FBA3E0FAA3E0F91214559C
:1037A60002384D9001E0E0FBA3E0FAA3E0F99000B7
:1037B60004121480FFAEF0900002121480C39FFF23
:1037C600E5F09E9001E3F0A3EFF09001DAE0FBA3B1
:1037D600E0FAA3E0F9900004121480FFAEF0900026
:1037E60002121480C39FFFE5F09EFE9001E5F0A350
:1037F600EFF04E7002FF229001DAE0FBA3E0FAA39D
:10380600E0F9900004121480FFAEF0AB07AA069010
:1038160001D8E0FEA3E0FFC3EF9BFFEE9AFE900106
:10382600E3E0FCA3E0FD12138CA3E0FCA3E0FD1291
:1038360013F3C006C0079001E0E0FBA3E0FAA3E0A3
:10384600F9900004121480FFAEF0D0E02FFFD0E014
:103856003EF99001DDE0FBA3E0FAA3E0C98FF01288
:0438660014B87F0112
:01386A00223B
:10486D007E009001DD7401F0A37401F0A374D6F005
:10487D00A37401F0A37401F0A3741CF07B017A0101
:10488D0079081236F59001D6E0FEA3E0244CF582AE
:0E489D0074013EF583E0FD7F027E00024B5960
:103FAC007F107E00124B12900106EFF07F117E0005
:103FBC00124B12900175EFF07F127E00124B129093
:103FCC00013BEFF07F147E00124B1290011AEFF0C0
:103FDC007F137E00124B12EF600790010FE044201C
:103FEC00F090013BE06401701E900106E0700E7DC4
:103FFC00017F10FE12479F9001067401F090011A88
:10400C00E06401703A801790011AE06401701C7D25
:10401C00017F10FE12479F9001067401F0E4FD7FB2
:10402C0014FE12479FE490011AF022900106E064FE
:10403C0001700CFD7F10FE12479FE4900106F022E8
:104B7900EF4488F5C5E5C520E3FBAFC6EF75F00442
:104B8900A4FFE5E85403FDEF4DFFE5F05403FE22D1
:074D5600E4FE7F06024B7929
:074D5D00E4FE7F07024B7921
:10255A002005030229807F0A7ED77D237C3C9001D7
:10256A002AE0F8A3E0F9A3E0FAA3E0FB120FA79090
:10257A00013CE0F8A3E0F9A3E0FAA3E0FB120EB6EF
:10258A009001D612165D7F0A7ED77D237C3C90018E
:10259A002FE0F8A3E0F9A3E0FAA3E0FB120FA7905B
:1025AA000140E0F8A3E0F9A3E0FAA3E0FB120EB6BB
:1025BA009001DA12165D7F0A7ED77D237C3C90015A
:1025CA0033E0F8A3E0F9A3E0FAA3E0FB120FA79027
:1025DA000144E0F8A3E0F9A3E0FAA3E0FB120EB687
:1025EA009001DE12165D7F0A7ED77D237C3C900126
:1025FA0037E0F8A3E0F9A3E0FAA3E0FB120FA790F3
:10260A000148E0F8A3E0F9A3E0FAA3E0FB120EB652
:10261A009001E212165D7F007EB07DE57C45900157
:10262A00D6E0F8A3E0F9A3E0FAA3E0FB120FA7E4CF
:10263A00FBFA797A78441210B09001E612165D7F9F
:10264A00E17E987DD27C459001DAE0F8A3E0F9A317
:10265A00E0FAA3E0FB120FA7E4FBFA797A784412B6
:10266A0010B09001E6E0F8A3E0F9A3E0FAA3E0FBDA
:10267A00120EB69001EA12165D7F487EC17D2C7C4F
:10268A00469001DEE0F8A3E0F9A3E0FAA3E0FB122A
:10269A000FA7E4FBFA797A78441210B09001EAE0C5
:1026AA00F8A3E0F9A3E0FAA3E0FB120EB69001EE5C
:1026BA0012165D900263E0FEA3E0FFC3EE6480940D
:1026CA00804008E4900129F0FC80179001297401E8
:1026DA00F0900263E0FEA3E0FFC3E49FFFE49EFEE6
:1026EA007C007D021213F39001D2EEF0A3EFF0907A
:1026FA0001D2E0FEA3E0D394F0EE94004003022757
:10270A00A0C3EE940050030227A0E4FFFE7DF57CEF
:10271A00419001D6E0F8A3E0F9A3E0FAA3E0FB12A6
:10272A000FA7C004C005C006C0079001D2E0FCA3F1
:10273A00E0FDE4121152D003D002D001D000120FF2
:10274A00A7E4FBFA797A78441210B09001251216A0
:10275A005DE4FFFE7DF57C419001D6E0F8A3E0F947
:10276A00A3E0FAA3E0FB120FA7C004C005C006C08D
:10277A00079001D2E0FCA3E0FDE4121152D003D08D
:10278A0002D001D000120FA712118B9001D4EEF0E3
:10279A00A3EFF00229069001D2E0FEA3E0FFD39452
:1027AA00F0EE9400406BD3EF94C2EE940150627F36
:1027BA002F7E5D7D007C429001DAE0F8A3E0F9A368
:1027CA00E0FAA3E0FB120FA7C004C005C006C007C9
:1027DA009001D3E02410FD9001D2E034FFFCE41212
:1027EA001152D003D002D001D000120FA7E4FBFA95
:1027FA00797A78441210B09001E6E0F8A3E0F9A3E0
:10280A00E0FAA3E0FB120EB690012512165D02292A
:10281A00069001D2E0FEA3E0FFD394C2EE940140F9
:10282A006AD3EF940CEE940350617F197E047D06FF
:10283A007C429001DEE0F8A3E0F9A3E0FAA3E0FB12
:10284A00120FA7C004C005C006C0079001D3E02438
:10285A003EFD9001D2E034FEFCE4121152D003D0C6
:10286A0002D001D000120FA7E4FBFA797A78441259
:10287A0010B09001EAE0F8A3E0F9A3E0FAA3E0FBC4
:10288A00120EB690012512165D8071D39001D3E025
:10289A00940C9001D2E0940350030229647F817E54
:1028AA00957D0B7C429001E2E0F8A3E0F9A3E0FAFF
:1028BA00A3E0FB120FA7C004C005C006C007900121
:1028CA00D3E024F4FD9001D2E034FCFCE41211526E
:1028DA00D003D002D001D000120FA7E4FBFA797A14
:1028EA0078441210B09001EEE0F8A3E0F9A3E0FA00
:1028FA00A3E0FB120EB690012512165D7FCD7ECCA9
:10290A007D4C7C3D900125E0F8A3E0F9A3E0FAA311
:10291A00E0FB120EB612118B900117EFF07FCD7EFD
:10292A00CC7D4C7C3D900125E0F8A3E0F9A3E0FAC8
:10293A00A3E0FB120EB6E4FBFA79C87842120FA79D
:10294A0012118B900123EEF0A3EFF07C007D64124C
:10295A00139E900123ECF0A3EDF0C205900118E05C
:10296A001350137F811232EF7F2C12482C7D2C7F5B
:06297A00E87E03123B8E13
:012980002234
:104BD7007BFF7A4479FD1248AB121C9112420012F6
:0F4BE7004285124A5F12255A900106E070EB22B8
:10430900124626124ABA7BFF7A4579121248AB1235
:104319003999D2B4D2B5124C95123FAC1245D3900B
:104329000175E0FF12486D7BFF7A4579229001758E
:10433900E0FF9001DCE4F0A3EFF01248AB90010F2D
:10434900E0FFC413540713500A124C14EF70049081
:104359000106F0900106E0640178117008E654F056
:104369004402F6800BE6540F4420F654F04401F65B
:10437900C200900106E064017003124BD7123A980B
:0243890080F0C2
:103A98007BFF7A4579341248AB7811E654F044013B
:103AA800F6900118E0FF1313543F135004EF54FB32
:103AB800F0900118E054FEF07F1A12482C9001187B
:103AC800E054BFF07F0A12482CE490011BF0124228
:103AD80085124200124A5F900106E06401605C9022
:103AE800011BE070297811E6FFC4540F6401701EB1
:103AF80090010EE0FFC41313540313401190011BEF
:103B08007401F07D2E7F107E27123B8E80C0124CF0
:103B180014EF6401600CE5E8F4FF131313541F302D
:103B2800E00CE490011BF07F2E12482C80A090013D
:103B38001BE064027098124A0180937D017F147E15
:103B48000012479FE4900263F0A3F0900117F090F1
:103B58000123F0A3F0900129F0F542F543900110FC
:103B6800E054FEF0A3E054E04414F07811E654F079
:103B78004402F67BFF7A45794E1248AB75E720225E
:10364B0001108A41021E00C187C10841021C40C102
:01365B0086E8
:104676001B5B306D001B5B303B33316D001B5B30C9
:104686003B33326D001B5B303B33336D001B5B30BD
:104696003B33346D001B5B303B33356D001B5B30A9
:1046A6003B33366D001B5B303B33376D00303132A8
:0E46B6003334353637383941424344454600E7
:10365C0058026CFF4676FF467BFF4683FF468BFF86
:0B366C004693FF469BFF46A3FF46ABC2
:08173B00E0FBA3E0FAA3E0F9D2
:0B174300900207EBF0A3EAF0A3E9F02E
:10174E0090021512166900000001900207E0FBA33B
:10175E00E475F00112143FA9F0FA12130290020D73
:10176E00F07003021C9024DB701B900207E0FBA3B9
:10177E00E0FAA3E0F9121302B42513900208E475FF
:10178E00F0011214292002FD90020D021C66C209FE
:10179E00C20AE4900214F0900207E0FBA3E475F095
:1017AE000112143FA9F0FA12130290020DF0E0FD9F
:1017BE00B4301BD209900207E0FBA3E475F00112CE
:1017CE00143FA9F0FA12130290020DF0801FEDFFE4
:1017DE003395E0FEC3EF9430EE64809480402CD3BA
:1017EE00EF9439EE64809480502190020DE024D065
:1017FE00900214F0900207E0FBA3E475F0011214BE
:10180E003FA9F0FA12130290020DF0900213740227
:10181E00F090020DE024BE602B24E0602724F660D9
:10182E00042420703C900207E0FBA3E475F0011243
:10183E00143FA9F0FA12130290020DF090021374E5
:10184E0004F0801D900207E0FBA3E475F001121472
:10185E003FA9F0FA12130290020DF09002137401D8
:10186E00F090020DE0FF24A87003021B1F24F570F8
:10187E0003021C3B24F07003021BEE24FE600E24B8
:10188E00FD7003021B1F24146003021C6E900213D2
:10189E00E024FE604224FE607B2403600302193FB5
:1018AE00EF90020AB46419E0FBA3E475F001121480
:1018BE003FA9F0FA121302FF3395E0FEFDFC806B98
:1018CE00E0FBA3E475F00112143FA9F0FA12130223
:1018DE00FFE4FCFDFE805490020DE090020AB46419
:1018EE001BE0FBA3E475F00212143FA9F0FA1214E8
:1018FE0055FFAEF0EE3395E0FDFC8016E0FBA3E461
:10190E0075F00212143FA9F0FA121455FFAEF0E46E
:10191E00FCFD801790020DE090020AE0FBA3E47537
:10192E00F00412143FA9F0FA12163D90020F12168F
:10193E005D90020FE0FCA3E0FDA3E0FEA3E0FFEC50
:10194E003350252002FD75992DD20290020FE0FC36
:10195E00A3E0FDA3E0FEA3E0FF74FFFBFAF9F8128B
:10196E0014D790020F12165D900214E06003021A53
:10197E000590020FE0FCA3E0FDA3E0FEA3E0FFEC68
:10198E004D4E4F700B2002FD759930D20202175842
:10199E00E4900214F0A312166900000001900214E4
:1019AE00E0C3940A74809480504D90020FE0FCA323
:1019BE00E0FDA3E0FEA3E0FF900215E0F8A3E0F93E
:1019CE00A3E0FAA3E0FB121562E4FBFAF9F8C312E6
:1019DE0016186023900215E0FCA3E0FDA3E0FEA321
:1019EE00E0FFE47B0AF81214D790021512165D90F0
:1019FE000214E004F080A6E490020EF0900215129C
:101A0E00166900000001900214E024FFFFE434FF89
:101A1E00FE90020EE0FD3395E0FCC3ED9FEE648078
:101A2E00F8EC6480985025900215E0FCA3E0FDA32D
:101A3E00E0FEA3E0FFE47B0AFAF9F81214D7900255
:101A4E001512165D90020EE004F080BA90020FE0BF
:101A5E00FCA3E0FDA3E0FEA3E0FF900215E0F8A3D7
:101A6E00E0F9A3E0FAA3E0FB121562EF2430FF9039
:101A7E00020DF0BF3025200922E47F01FEFDFC900F
:101A8E000215E0F8A3E0F9A3E0FAA3E0FBC31216F7
:101A9E0018600890020D7420F08002D2092002FD19
:101AAE0090020DE0F599D20290020FE0FCA3E0FD4A
:101ABE00A3E0FEA3E0FF900215E0F8A3E0F9A3E097
:101ACE00FAA3E0FB121562AC00AD01AE02AF0390BB
:101ADE00020F12165D900215E0FCA3E0FDA3E0FEDE
:101AEE00A3E0FFE47B0AFAF9F812156290021512D0
:101AFE00165DE4FFFEFDFC900215E0F8A3E0F9A3ED
:101B0E00E0FAA3E0FBC31216186003021A5A02177A
:101B1E0058900213E024FE602224FE6039240370E4
:101B2E004E90020AE0FBA3E475F00112143FA9F0F7
:101B3E00FA121302FFE4FCFDFE802E90020AE0FB77
:101B4E00A3E475F00212143FA9F0FA121455FFAE79
:101B5E00F0E4FCFD801390020AE0FBA3E475F004B0
:101B6E0012143FA9F0FA12163D90020F12165D9054
:101B7E000214E07008900213E025E0A3F0E4900256
:101B8E000EF0900214E0FF90020EE0FD3395E0FCA3
:101B9E00C3ED9F7480F86C9840030217582002FD25
:101BAE0090020EE0FF900214E0C39F1425E025E0A2
:101BBE00F990020FE0FCA3E0FDA3E0FEA3E0FFA876
:101BCE00011216297E00EF540F24B3F582EE34462F
:101BDE00F583E493F599D20290020EE004F080A210
:101BEE0090020AE0FBA3E475F00312143FA9F0FA89
:101BFE0012169A900219EBF0A3EAF0A3E9F0900204
:101C0E0019E0FBA3E0FAA3E0F91213027003021726
:101C1E00582002FD900219E0FBA3E475F0011214A6
:101C2E003FA9F0FA121302F599D20280D190020A5E
:101C3E00E0FBA3E475F00212143FA9F0FA1214555A
:101C4E00FFAEF0EE3395E0FDFC90020F12165D2014
:101C5E0002FD90020FA3A3A3E0F599D2020217583A
:101C6E0090020AE0FBA3E475F00212143FA9F0FA09
:101C7E00121455FFAEF0E4FCFD90020F12165D0239
:021C8E001758E5
:011C90002231
:0B48AB009001D9EBF0A3EAF0A3E9F0C4
:1048B6009002047401F0A37401F0A374DCF090027A
:1048C60004E0F9A3E0FAA3E090020AC9F0A3EAF033
:1048D600A3E9F09001D912173B900204E4F0A3F08B
:0248E600A3F03D
:0148E80022AD
:0B48E9009001D2EBF0A3EAF0A3E9F08D
:1048F4009001FD7401F0A37401F0A374D5F090014C
:10490400FDE0F9A3E0FAA3E090020AC9F0A3EAF0FB
:10491400A3E9F09001D212173B9001FDE4F0A3F05B
:02492400A3F0FE
:01492600226E
:0E47E6009001D8EFF0A3EBF0A3EAF0A3E9F006
:1047F4009002047401F0A37401F0A374DCF090023D
:1048040004E0F9A3E0FAA3E090020AC9F0A3EAF0F5
:10481400A3E9F09001D912173B900204E4F0A3F04D
:07482400A3F09001D804F09D
:01482B00226A
:104A8D000A0D537973506F776572496E6974696158
:104A9D006C2E2E4F4B2121000D0A28506F77657219
:0D4AAD005377697463683D25303278290025
:04367700021100003C
:104ABA00D283C2A1D284D282C2A1C2B7C286C2EABA
:104ACA00D2A6C2A2D2B6C2A0D2E8D2E97FC87E00DC
:0C4ADA00124C687BFF7A4A798D0248E993
:104285007811E6FF540F14602D24FA605024057050
:1042950063EFC4540F601024F960082406700DE420
:1042A500FF80067F0380027F01124AE67811E654FB
:1042B5000F4420F6803E7811E6C4540F600C24FEAE
:1042C500600C24FB700D7F0480067F0280027F0650
:1042D500124AE67811E6540F4410F680177811E675
:1042E500C4540F24FE70057F05124AE67811E65482
:1042F5000F4470F67811E6FF54F0C4540FFEEF54E6
:04430500F04EF6225E
:103051009001D6EFF07F1F12482C7F2012482C7F61
:103061002112482C7F2212482C7F2312482C7F24C6
:1030710012482C9001D6E024F7700302325B24FC45
:10308100700302319114700302311F147003023175
:10309100EA24FD70030232A51470030232C0240336
:1030A10060030232EE7DE07F1412404C900111E08A
:1030B10054E04410F0900118E013400A900106E03A
:1030C1006401700280777811E6C4540F6407702D93
:1030D10090010EE0C413135403135002801A90019F
:1030E10006E070057D1C02329890010EE0541F64C9
:1030F1000470057D220232987D200232E77811E6C4
:10310100C4540F6402701490010EE0541F640470E3
:10311100057D230232987D1D0232E702329D7D99A1
:103121007F1412404C900111E054E0440EF09001E4
:1031310018E013400D900106E0640170057D1F0247
:1031410032987811E6C4540F6407701590010EE0AF
:10315100C4131354031350047D2480027D1F0232D3
:10316100E7900106E070139001C7E0700D9001C86F
:10317100E0640170057D1E0232989001C7E0700D78
:103181009001C8E0640170057D1B0232980232573C
:10319100E4FD7F1412404C900111E054E0440DF025
:1031A100900118E013400D900106E0640170057D67
:1031B1001F0232987811E6C4540F6407701590010C
:1031C1000EE0C4131354031350047D2280027D1FAB
:1031D1000232E79001C7E0700D9001C8E064017010
:1031E100057D1E02329802329D7D997F1412404C5A
:1031F100900111E054E0440FF0900118E013400DEC
:10320100900106E0640170057D1F0232987811E695
:10321100C4540F6407701590010EE0C413135403D6
:103221001350047D2480027D1F0232E7900106E0E5
:1032310070129001C7E0700C9001C8E06401700445
:103241007D1E80539001C7E0700C9001C8E06401BD
:1032510070047D1B80417D1D80447DE07F14124000
:103261004C900111E054E04409F0900118E0134042
:103271000C900106E0640170047D1F801A7811E64C
:10328100C4540F640270047D1D800C7811E6C4548F
:103291000F640770077D207F64FE804E7D1C7F6474
:1032A1007E008046900118E0C4540F1350077F063A
:1032B100123E2A8002D2827D227F647E00802B9082
:1032C1000118E0C4540F13500EE4FF123E2A90017E
:1032D10018E054EFF08002C282900118E01350040C
:0E32E1007D1D80027D227F647E00123B8E22C6
:103E2A009001D7EFF07BFF7A4A79A59001DCE4F0A4
:103E3A00A3EFF01248AB9001D7E0B40A00400302A6
:103E4A003EF5903E53F8282873023E71023E7102F5
:103E5A003EBD023E71023EBD023EE7023EBD023E4B
:103E6A00F5023EF5023E97C282D2B7D2EAD2A6D274
:103E7A00A2C2B67F147E00124C68D2A07D157FF4D0
:103E8A007E01123B8E7D0D7FE87E03804BC283D27A
:103E9A00A17F407E00124C68C284D286900118E04D
:103EAA00FF1313543F135043EF54FBF07F84123235
:103EBA00EF8038C2A0D283D284C2A1D282C2A1C268
:103ECA00B7C2EAD2A6C2A2C286D2B6900118E0440C
:103EDA0020F07D2D7FB87E0B123B8E800EC2A1D2C0
:103EEA0084C2B7C2EAD2A6C2A2C286900111E05425
:053EFA00E04414F02279
:104AE6009001D2EFF024FE601A24FE6016146013C3
:104AF60014601024FE600C240824F6500624F76087
:0C4B06000280089001D2E0FF123E2A223B
:10367B00C10C42018100004201C5022542018503B4
:10368B00704101C3004101790041017B014101C738
:10369B00004101C8014101780041017A0041017CE0
:1036AB000041017D0041017E004101D1004101CB70
:1036BB0000410177004101CD00410184004101CC63
:1036CB00FF410176FE4101C9004101D0004101805B
:1036DB0000410183004101C4004101CAFF41017F48
:0936EB00004101CF004101CE00B5
:044C64007FF47E015A
:104C6800EF4E6010C20C300CFDC20CEF1F70011E1D
:054C7800144E70F22251
:104CD400EF75F003A42488F582E43401F583E0FE43
:044CE400A3E0FF2228
:104CAB00EF75F003A42487F582E43401F583E0C3A8
:054CBB0013547FFF22ED
:104CE800EF75F003A42487F582E43401F583E054DA
:034CF800FEF022A9
:104D1F00EF75F003A42487F582E43401F583E013E3
:014D2F002261
:10470E00900181E0FFA3E09001FBCFF0A3EFF090CA
:10471E0001FBE0FEA3E0FFC3900182E09FFF90014A
:10472E0081E09EFE124D3FD3EF947FEE6480948025
:10473E00400F900181E0FFA3E09001FBCFF0A3EFCB
:09474E00F09001FBE0FEA3E0FF86
:01475700223F
:08386B009001F6EEF0A3EFF06E
:10387300E4A3F0A3F0A3F012470E9001F9EEF0A336
:10388300EFF09001F6E0FEA3E0FFE4FCFD7B487A55
:10389300EEF9F8C3121602500A9001F674EEF0A383
:1038A3007448F09001F6E0FEA3E0FF9001FAE02FE8
:1038B300FF9001F9E03EFEE4FCFD7B487AEEF9F867
:1038C300C3121602401F9001F6E0FEA3E0FF900131
:1038D300F9E0FCA3E0FD2FFFEC3EFED3ED9FEC9E51
:1038E3005003023990E4900181F0A3F09001F8F0C5
:1038F3009001F8E0FFC3941474809480400302396C
:1039030089EF75F003A42487F582E43401F583E09D
:103913005401640170679001F8E0FF75F003A4247B
:1039230088F582E43401F583E0FCA3E0FD9001F91E
:10393300E0FAA3E0FBD3ED9BEC9A402CEF75F00388
:10394300A42488F582E43401F583C083C082C3A331
:10395300E09BFF0582D5820215831582E09AD0820F
:10396300D083F0A3EFF080159001F8E075F003A485
:103973002488F582E43401F583E4F0A3F09001F8A0
:10398300E004F00238F3E49001F9F0A3F09001F9B8
:05399300E0FEA3E0FFCF
:01399800220C
:10003E00E4FFEFC39414748094805015EF75F003B1
:10004E00A42487F582E43401F583E054FEF00F809A
:01005E00E1C0
:01005F00227E
:063B88007D147F647E0045
:0B3B8E009001F2EEF0A3EFF0A3EDF0C9
:103B9900E4A3F0F09001F5E0FFC3941474809480DD
:103BA900502EEF75F003A42487F582E43401F583E0
:103BB900E0FF540164017010EFC313547FFF9001BB
:103BC900F4E06F7003023C6C9001F5E004F080C4EE
:103BD900E49001F5F09001F5E0FFC394147480942A
:103BE900804003023C6CEF75F003A42487F582E45E
:103BF9003401F583E0FF540170609001F5E0FE7532
:103C0900F003A42487F582E43401F583EF4401F03D
:103C19009001F4E0547F25E0FFEE75F003A42487BA
:103C2900F582E43401F583E054014FF09001F2E0AC
:103C3900FEA3E0FF12386B9001F3E02FFF9001F231
:103C4900E03EFE9001F5E075F003A42488F582E4D6
:103C59003401F583EEF0A3EFF0229001F5E004F0D2
:033C6900023BDE3D
:013C6C002235
:10482C00E4FEEEC39414748094805034EE75F0035F
:10483C00A42487F582E43401F583E0FD540164017E
:10484C00701BEDC313547FB50713EE75F003A4244E
:10485C0087F582E43401F583E054FEF0220E80C229
:01486C002229
:0B3D4C009001D3EEF0A3EFF0A3EDF028
:103D5700E4A3F0F09001D6E0FFC39414748094803C
:103D6700502DEF75F003A42487F582E43401F58321
:103D7700E0FF54016401700FEFC313547FFF9001FC
:103D8700D5E0B5070280649001D6E004F080C5E471
:103D97009001D6F09001D6E0FFC39414748094800C
:103DA7004003023E29EF75F003A42487F582E4342B
:103DB70001F583E0FF540170609001D6E0FE75F0D5
:103DC70003A42487F582E43401F583EF4401F090DE
:103DD70001D5E0547F25E0FFEE75F003A42487F5B5
:103DE70082E43401F583E054014FF09001D3E0FE03
:103DF700A3E0FF12386B9001D4E02FFF9001D3E0CE
:103E07003EFE9001D6E075F003A42488F582E434E1
:103E170001F583EEF0A3EFF0229001D6E004F00263
:023E27003D9BC1
:013E29002276
:103C6D00EF14B40D004003023D4B903C8575F003FD
:103C7D00A4C58325F0C58373023CAE023CAE023C65
:103C8D00AE023CC2023CC6023CD7023CF0023D06ED
:103C9D00023D4B023D2C023D41023D4B023D448015
:103CAD0000900175E0FF12486D900175E0FD7F11E8
:103CBD007E0002479F7F80800E90010EE0C413139B
:103CCD0054031350797F830232EF900118E0FF13F4
:103CDD0013543F1340687811E654F04407F6EF444F
:103CED0004F022E4900263F0A3F0900117F090012C
:103CFD0023F0A3F0900129F022900118E0FF131397
:103D0D0013541F135014EF54F7F054FEF07F12129A
:103D1D0030517D087FB87E0B80177F130230519094
:103D2D000118E04440F07F821232EF7D0A7F987EC9
:0F3D3D003A023B8E024B38D2B77F09123E2A2240
:10420000E49001D2F0A3F0A3F0A3F09001D2F090DB
:1042100001D2E0C3941474809480506812470E90C9
:1042200001D4EEF0A3EFF09001D2E0FF124D1F5049
:104230004B9001D2E0FF124CD4D39001D5E09F9077
:1042400001D4E09E40369001D2E0FF124CE890018C
:10425000D2E0FF124CAB9001D3EFF0C3940F748007
:1042600094805007E0FF123C6D80119001D3E0FF75
:10427000C3942F7480948050031200669001D2E0A2
:0442800004F0808B3B
:014284002217
:10006600EF24F0B41F004003020EAE90007F75F03F
:1000760003A4C58325F0C5837302016A0203EF0258
:100086000EAE0207E20207690201DE020A9F020DB6
:10009600D8020C2E0207CF020A820200E80200DC18
:1000A6000200E00200E40200ED0200F90201030290
:1000B600010D02011702012102012B020E21020E7F
:1000C60040020E32020E4E020E5C020E6B0201C59B
:1000D6000201D6020EA87F1C800A7F1D80067F1EA5
:1000E60080027F1B0244847F1F1244847D1F7FFA97
:1000F6000207C17F1F1244847D20020A987F2112C5
:1001060044847D21020A987F221244847D22020AB9
:10011600987F231244847D23020A987F2412448404
:100126007D24020A987F1C1244847F1E1244841286
:100136004C647F1C124484124C647F1E1244841249
:100146004C647F1C124484124C647F1E1244841239
:100156004C647F1C124484124C64900111E054E0FC
:100166004414F022124C14EF6401702490010EE046
:10017600C4131354031340427F17124D1F50081225
:10018600482C7D17123B8A7F16124D1F502C802259
:1001960090010EE0C41313540313501E7F17124D23
:1001A6001F500812482C7D17123B8A7F16124D1FCE
:1001B600500812482C7D16123B8A7D10020A989030
:1001C6000118E01350057F811232EF7D2C020A9848
:1001D600900118E054DFF022124D5D900185EEF09B
:1001E600A3EFF0124D569001C5EEF0A3EFF090018B
:1001F60085E0FEA3E0FFD3948AEE940250099001B5
:10020600CC7415F00202F4D3EF948AEE94024012F5
:10021600D3EF9499EE940250099001CC7418F00231
:1002260002F4D3EF9499EE94024012D3EF94A8EE21
:10023600940250099001CC7404F00202F4D3EF94B6
:10024600A8EE94024012D3EF94FBEE94025009906C
:1002560001CC7403F00202F4D3EF94FBEE94024057
:1002660011D3EF9422EE940350089001CC7402F05F
:10027600807CD3EF9422EE94034011D3EF9450EE9A
:10028600940350089001CC7401F08062D3EF94502F
:10029600EE94034010D3EF9475EE94035007E49068
:1002A60001CCF08049D3EF9475EE94034013D3EF5D
:1002B6009496EE9403500A900106E0640170028061
:1002C6001F900185E0FEA3E0FFD39475EE940340F2
:1002D60017D3EF949FEE9403500E900106E070083A
:1002E6009001CC7416F080069001CC7417F0900142
:1002F600CCE0541FFF90010EE054E04FF0900185D2
:10030600E0FFA3E0900112CFF0A3EFF09001C5E06B
:10031600FEA3E0FFD394AFEE94005010EF9414EEDA
:10032600940040089001CA7406F08074D3EF94AF2D
:10033600EE94004011D3EF94DEEE94005008900145
:10034600CA7419F0805AD3EF94DEEE9400400BD3B2
:10035600EF947BEE940250028040D3EF947BEE94B0
:10036600024011D3EF94E5EE940250089001CA744E
:100376001AF0802CD3EF94E5EE94024011D3EF945B
:10038600A0EE940350089001CA7408F08012900100
:100396000EE04420F054E04409F09001CA7407F0DE
:1003A600900111E0541F640970069001CA7407F0A9
:1003B6009001CAE0541FFF90010FE054E04FF0A2F5
:1003C60080E433900179F0E0FF9001C7E06F6002AE
:1003D600EFF0A281E43390017BF0E0FF9001C8E0EA
:1003E6006F7003020EAEEFF022124D5D900185EEA6
:1003F600F0A3EFF0900112EEF0A3EFF090010EE003
:10040600C4135407135025E4900178F090017AF054
:1004160090017CF0A3F0A3F09001D1F09001CBF015
:10042600900177F09001CDF09001CCF0900185E03D
:10043600FEA3E0FFD3948AEE9402501BE490017869
:10044600F090017AF090017CF0A3F0A3F09001D136
:10045600E004F0E402051AD3EF948AEE9402402FEA
:10046600D3EF9499EE94025026E4900178F090012F
:100476007AF090017CF0A3F0A3F09001D1F0900106
:10048600CBF0900177F09001CDE004F0020629D37D
:10049600EF9499EE94024022D3EF94A8EE94025082
:1004A60019900178E004F0E490017AF090017CF074
:1004B600A3F0A3F09001D1F0805AD3EF94A8EE9464
:1004C600024027D3EF94FBEE9402501EE49001788D
:1004D600F090017AE004F0E490017CF0A3F0A3F040
:1004E6009001D1F09001CB020602D3EF94FBEE947B
:1004F60002402BD3EF9422EE94035022E49001782D
:10050600F090017AF090017CE004F0E4A3F0A3F00F
:100516009001D1F09001CBF0900177020602D3EF63
:100526009422EE9403402BD3EF9450EE9403502282
:10053600E4900178F090017AF090017CF0A3E00459
:10054600F0E4A3F09001D1F09001CBF09001770296
:100556000602D3EF9450EE9403402AD3EF9475EE3F
:1005660094035021E4900178F090017AF090017C98
:10057600F0A3F0A3E004F0E49001D1F09001CBF0F9
:100586009001778077D3EF9475EE94034031D3EFE3
:100596009496EE94035028900106E0640170209032
:1005A6000178F090017AF090017CF0A3F0A3F0902E
:1005B60001D1F09001CBE004F0E4900177803D900A
:1005C6000185E0FEA3E0FFD39475EE94034030D39B
:1005D600EF949FEE94035027900106E0702190015E
:1005E60078F090017AF090017CF0A3F0A3F09001EE
:1005F600D1F09001CBE004F0E4900177F08020E4A4
:10060600900178F090017AF090017CF0A3F0A3F0CD
:100616009001D1F09001CBF0900177E004F0E490E6
:1006260001CDF0C3900186E094BC900185E0940270
:100636004008900184E004F08005E4900184F09085
:100646000178E06414700B9001CC7404F0E490011E
:1006560078F090017AE06414700B9001CC7403F08A
:10066600E490017AF090017CE06414700B9001CC68
:100676007402F0E490017CF090017DE06414700A4D
:100686009001CC04F0E490017DF090017EE06414CA
:1006960070089001CCF090017EF09001D1E06414D6
:1006A600700B9001CC7415F0E49001D1F09001CB61
:1006B600E064147009A37416F0E49001CBF0900185
:1006C600CDE0641470099001CC7418F0E4A3F090A6
:1006D60001CBE064147009A37416F0E49001CBF02A
:1006E600900177E06414700B9001CC7417F0E490DD
:1006F6000177F09001CCE0FF900176E06F600BEFA0
:10070600F0900111E054E04414F0900184E0641488
:10071600703090010FE0FFC413540713501FEF54BD
:10072600DFF0900111E054E04414F07F137E0012D4
:100736004B12EF6008E4FD7F13FE12479FE4900121
:1007460084F09001CCE0541FFF90010EE054E04F7E
:10075600F0900106E07D117003020A757F2C7E0180
:10076600020EA5900118E01313543F135009781197
:10077600E654F04402F622900106E0640170087D1A
:100786000A7F64FE020EA5900118E0C413540713F5
:10079600402E90010FE0C413540713500C90010E25
:1007A600E0C41313540313500E9001067401F0FDB8
:1007B6007F107E0002479F7D257F0A7E00020EA5E0
:1007C6007D147FB87E0B020EA5900106E0640160E1
:1007D60003020EAE7D0A7F64FE020EA5124D5690F0
:1007E60001C5EEF0A3EFF0D394AFEE94005022E0F3
:1007F60094149001C5E094004017E49001C9F0906C
:1008060001D0F0900180F0900183E004F0E402084A
:10081600E49001C5E0FEA3E0FFD394AFEE94004060
:1008260023D3EF94DEEE9400501AE49001C9F090C1
:1008360001D0F0900180F0900183F09001C4E004B3
:10084600F00208E8D3EF94DEEE9400401ED3EF9456
:100856007BEE940250159001C9E004F0E49001D0BB
:10086600F0900180F0900183F08073D3EF947BEEDB
:100876009402401FD3EF94E5EE94025016E49001E3
:10088600C9F09001D0F0900180E004F0E49001837B
:10089600F0804BD3EF94E5EE9402401FD3EF94A083
:1008A600EE94035016E49001C9F09001D0E004F0F4
:1008B600E4900180F0900183F0802390010EE044E3
:1008C60020F054E04409F09001CA7407F0E4900166
:1008D600C9F09001D0F0900180F0900183F0900172
:1008E600C4F09001C9E0D394037480948050309092
:1008F60001D0E09403748094805024900180E094A9
:1009060003748094805018900183E094037480945B
:1009160080500C9001C4E0940374809480401F9032
:10092600013BE064017017900106E0701190010E22
:10093600E0C41354071350069001067401F09001A9
:1009460083E0640A701C9001CA7406F0E490018387
:10095600F0900110E054FDF054FBF090010EE054CD
:10096600DFF09001C4E0640A701C9001CA7419F0AB
:10097600E49001C4F0900110E04402F054FBF090C2
:10098600010EE054DFF09001C9E0640A701AA37406
:1009960007F0E49001C9F0900110E054FBF054FD1B
:1009A600F090010EE054DFF0900180E0640A701CC4
:1009B6009001CA741AF0E4900180F0900110E044AE
:1009C60004F054FDF090010EE054DFF09001D0E009
:1009D600640A701C9001CA7408F0E49001D0F0908B
:1009E6000110E054FBF054FDF090010EE054DFF0EE
:1009F6009001CAE0541FFF90010FE054E04FF090C1
:100A060001C5E0FEA3E0FFD394DEEE94004009D3D7
:100A1600EF9415EE9403400D9001CFE004F0E490BE
:100A260001CEF0800BE49001CFF09001CEE004F00F
:100A36009001CFE0640A701FF090010EE0FFC4132E
:100A4600135403135021EFC4135407134019900194
:100A560010E04408F080109001CEE0640A7008F0BF
:100A6600900110E054F7F0900106E07D1370067FC8
:100A760064FE020EA57FC87E00020EA5900118E056
:100A8600FFC313135003020EAEEF4408F04410F0F8
:100A96007D087FE87E03020EA5124C14EF64016008
:100AA60003020BF390010EE0FFC41313540313402B
:100AB6002EEF4440F0C2EAD2A6A280E43390017938
:100AC600F0E0FF9001C7E06F6002EFF0A281E4332F
:100AD60090017BF0E0FF9001C8E06F6002EFF090BC
:100AE600010EE0C41354071350057D2A020BE47867
:100AF60011E6C4540F6402704490010FE0FF541FC6
:100B06006407702CEFC413135403134023A3E0FFB0
:100B160013401DEF131313541F13401490010FE0DD
:100B2600C41354071340047D2780027D26020BE47C
:100B3600900111E0541F6409704F020BDB7811E637
:100B4600C4540F6407704490010FE0FF541F6407FC
:100B5600702BEFC413135403134022A3E0FF13407A
:100B66001CEF131313541F13401390010FE0C4130B
:100B760054071340047D2780027D26806190011171
:100B8600E0541F64097002804C80517811E6C45409
:100B96000F6401705090010FE0FF541F6407702B23
:100BA600EFC413135403134022A3E0FF13401CEFBA
:100BB600131313541F13401390010FE0C41354076B
:100BC6001340047D2880027D268013900111E05495
:100BD6001F640970077D2A7F64FE80067D297F6475
:100BE6007E00123B8E7D167F887E13803590010E27
:100BF600E054BFF0C2EA4480F0A3E054BFF0900195
:100C06003BE06401700D900106E0640170057F828F
:100C16001232EF7D297FF47E01123B8E7D177FF421
:100C26007E01123B8E020E1CA280E433900179F005
:100C3600A281E43390017BF0900179E0FF9001C737
:100C4600E06F601990010EE0C413540713400E9034
:100C560001C7EFF0900111E054E04414F090017BDD
:100C6600E0FF9001C8E06F601990010EE0C41354D4
:100C76000713400E9001C8EFF0900111E054E044D4
:100C860014F0900110E0FF134018900113E094FF58
:100C9600900112E09403400AEF4401900110F01213
:100CA6003B8890010EE0541F24FC4003020DC170E6
:100CB60003020DA524EF6056147003020DC124FE35
:100CC600604C046003020DCF90010FE0FFC41313C4
:100CD6005403134004EF4440F090010FE0FFC413A7
:100CE600540713501FEF54DFF0900111E054E04415
:100CF60014F07F137E00124B12EF6008E4FD7F13A1
:100D0600FE12479F900110E054EFF0020DCF9001C4
:100D16000FE0FFC413540713402F900118E013404F
:100D26002890010EE0C41313540313401CEF442013
:100D3600A3F07F137E00124B12EF70087D017F1324
:100D4600FE12479F123B88803590010EE0FF541F2C
:100D56006415702A900106E064017022EFC4131333
:100D66005403134019E4F0FD7F10FE12479F9001D3
:100D760018E0FF1313543F135004EF54FBF0900197
:100D860018E01313543F1350087811E654F0440248
:100D9600F690010FE054BFF0A3E04410F0802A90D3
:100DA600010FE054BFF0900118E01313543F1350A5
:100DB600187811E654F04402F6800E900110E044D3
:100DC60010F090010FE054BFF07D187F887E13026B
:100DD6000EA5124C14EF6401702790013BE06401EC
:100DE600700E900106E070087D147F64FE123B8E43
:100DF600900111E054E04414F07D167F647E00807B
:100E06001220A604D2A6C2EA7D29123B8A7D177F4C
:100E1600887E13123B8EC2EAD2A622900111E054BC
:100E26001F640E7003020EAE7F0E8036900111E035
:100E3600541F640D60727F0D8028900111E0541FCD
:100E4600640F60647F0F801A900111E0541F6410D4
:100E560060567F10800C900111E0541F64096048B1
:100E66007F09023051900254E0240AF0E0643C709D
:100E760007F090025CE004F090025CE0643C7007CE
:100E8600F0900261E004F0900261E064187007F0EF
:100E9600900260E004F01229817D2B7F107E2702EC
:090EA6003B8E90011B7402F02246
:100EAF000211F7E86480F8E933E83360110460F069
:100EBF00ED33EC337009E8FCE9FDEAFEEBFF2204A9
:100ECF0060DED3EB9FEA9EE99DE8C2E78CF0C2F7A4
:100EDF0095F0400CE8CCF8E9CDF9EACEFAEBCFFB70
:100EEF001211C285D0F05804700320D5B3E80470F6
:100EFF00075002B2D502120192D5EC0460F7E4CC90
:100F0F00C0E0C398F8603B94186008400DD0E0FB38
:100F1F000211D9E4FBFAC9FC8028E830E406E4C9E1
:100F2F00FBE4CAFCE830E305E4C9CACBFCE854078C
:100F3F006010F8C3E913F9EA13FAEB13FBEC13FC97
:100F4F00D8F130F52FC3E49CFCEF9BFFEE9AFEED3A
:100F5F0099FDD0E0FBEF4E4D4C701222DB030211D6
:100F6F00FEEC2CFCEF33FFEE33FEED33FDED30E7FF
:100F7F00EB0211D9EF2BFFEE3AFEED39FDD0E0FB7E
:100F8F0050130BBB0003021201ED13FDEE13FEEF26
:080F9F0013FFEC13FC0211D951
:100FA700EC4D6011E8497017ED33EC3304600DE444
:100FB700FCFFFEFD22E933E8330470F80211F71253
:100FC70011C258046009E4CC248150062850090254
:100FD70012012840030211FEC0E0EB4A7044B980B9
:100FE70006D0E0FB0211EDEF4E701CBD8008EBFF51
:100FF700EAFEE9FD80EBE98DF0A4FEE5F002109032
:10100700E9CDF9EAFEEBFFEF89F0A4FCE5F0CE8924
:10101700F0A42EFFE435F0CD89F0A42DFEE435F0E1
:101027008067EF4E7005BD80D780C3EF8BF0A4AC0F
:10103700F0EE8BF0A42CFCE435F0F8EF8AF0A42C4A
:10104700E5F038FCE433CB8DF0A42CFCE5F03BF85D
:10105700EE8AF0A42CFCE5F038F8E433CF89F0A44D
:101067002CFCE5F038CF3400CE89F0A42FFFE5F053
:101077003EFEE433C98DF0A42EFEE5F039CD8AF0AB
:10108700A42FFFE5F03EFEE43DFD33D0E0FB500723
:101097000BBB000F021201EC2CFCEF33FFEE33FE0B
:0610A700ED33FD0211D93A
:1010AD00021201EC5D046005E8590470030211F7AA
:1010BD001211C2580460F6EC4860F2EC7004FDFEAB
:1010CD00FF22C860DB2481C85009C3986002500616
:1010DD000211FE9850CAF582E9294B4A7005AB8280
:1010ED000211ED75F0007C1A7880C3EF9BEE9AED3E
:1010FD0099400DC3EF9BFFEE9AFEED99FDE842F08E
:10110D00DC23ACF0D0E0FFD0E0FED0E0FDAB8220E0
:10111D00E7101BEB60BAEC2CFCEF33FFEE33FEED6A
:10112D0033FD0211D9E803F830E705C0F075F00082
:10113D00EF2FFFEE33FEED33FD40B830E7C280AA4E
:10114D0075F020800E75F010800575F0087D007E1D
:10115D00007F003392D530D5031215F4EC334010D7
:10116D00EF33FFEE33FEED33FDEC33FCD5F0ED2226
:0E117D00E5F0247EA2D513CC92E7CDCEFF2262
:10118B00EDD2E7CD33EC3392D524814006E4FFFE5C
:10119B00FDFC22FCE4CFCECDCC24E0501174FF80BB
:1011AB00EDC3CC13CCCD13CDCE13CECF13CF047058
:0711BB00F030D5DE0215F44F
:1011C200E9D2E7C933E833F892D5EDD2E7CD33EC73
:0711D20033FC5002B2D522EC
:1011D900EC30E7100FBF000C0EBE00080DBD000477
:1011E9000BEB6014A2D5EB13FCED92E7FD2274FF23
:1011F900FCFDFEFF22E480F8A2D574FF13FC7D807C
:03120900E480EF8F
:10418000024309E493A3F8E493A34003F68001F209
:1041900008DFF48029E493A3F85407240CC8C33340
:1041A000C4540F4420C8834004F456800146F6DF0F
:1041B000E4800B0102040810204080903529E47E41
:1041C000019360BCA3FF543F30E509541FFEE49304
:1041D000A360010ECF54C025E060A840B8E493A3CB
:1041E000FAE493A3F8E493A3C8C582C8CAC583CAF6
:1041F000F0A3C8C582C8CAC583CADFE9DEE780BEAE
:0136F40000D5
:10120C00E709F608DFFA8046E709F208DFFA803EC4
:10121C0088828C83E709F0A3DFFA8032E309F608B1
:10122C00DFFA8078E309F208DFFA807088828C8319
:10123C00E309F0A3DFFA806489828A83E0A3F608CD
:10124C00DFFA805889828A83E0A3F208DFFA804CA7
:10125C0080D280FA80C680D4806980F2803380107E
:10126C0080A680EA809A80A880DA80E280CA8033E7
:10127C0089828A83ECFAE493A3C8C582C8CCC5835F
:10128C00CCF0A3C8C582C8CCC583CCDFE9DEE7802F
:10129C000D89828A83E493A3F608DFF9ECFAA9F0AE
:1012AC00EDFB2289828A83ECFAE0A3C8C582C8CC04
:1012BC00C583CCF0A3C8C582C8CCC583CCDFEADE1D
:1012CC00E880DB89828A83E493A3F208DFF980CC7F
:1012DC0088F0EF60010E4E60C388F0ED2402B40478
:1012EC000050B9F582EB2402B4040050AF2323451F
:0612FC00822390125C73D6
:10130200BB010689828A83E0225002E722BBFE02E9
:09131200E32289828A83E493221C
:10131B00BB010CE58229F582E5833AF583E0225087
:10132B0006E92582F8E622BBFE06E92582F8E222D1
:0D133B00E58229F582E5833AF583E49322EB
:10134800BB010989828A83F8E028F022500327F735
:1013580022BBFE05F8E328F3228A838982F8E49306
:02136800282239
:10136A00F8BB010DE58229F582E5833AF583E8F0B9
:10137A00225006E92582C8F622BBFE05E92582C865
:02138A00F2224D
:10138C00EF8DF0A4A8F0CF8CF0A428CE8DF0A42E75
:02139C00FE222F
:10139E00BC000BBE0029EF8DF084FFADF022E4CC33
:1013AE00F875F008EF2FFFEE33FEEC33FCEE9DECFC
:1013BE00984005FCEE9DFE0FD5F0E9E4CEFD22ED42
:1013CE00F8F5F0EE8420D21CFEADF075F008EF2F8C
:1013DE00FFED33FD4007985006D5F0F222C398FD7D
:0513EE000FD5F0EA221A
:1013F300C2D5EC30E709B2D5E4C39DFDE49CFCEE15
:1014030030E715B2D5E4C39FFFE49EFE12139EC3DB
:10141300E49DFDE49CFC800312139E30D507C3E4D6
:061423009FFFE49EFE2283
:10142900C5F0F8A3E028F0C5F0F8E582158270024E
:061439001583E038F022EB
:10143F00A3F8E0C5F025F0F0E58215827002158360
:06144F00E0C838F0E822BD
:10145500BB010A89828A83E0F5F0A3E02250068762
:10146500F009E71922BBFE07E3F5F009E319228924
:0B147500828A83E493F5F07401932257
:10148000BB0110E58229F582E5833AF583E0F5F0AA
:10149000A3E0225009E92582F886F008E622BBFE87
:1014A0000AE92582F8E2F5F008E222E5832AF583CD
:0814B000E993F5F0A3E9932292
:1014B800BB010A89828A83F0E5F0A3F0225006F77F
:0F14C80009A7F01922BBFE06F3E5F009F319227C
:1014D700E88FF0A4CC8BF0A42CFCE98EF0A42CFCB4
:1014E7008AF0EDA42CFCEA8EF0A4CDA8F08BF0A432
:1014F7002DCC3825F0FDE98FF0A42CCD35F0FCEB91
:101507008EF0A4FEA9F0EB8FF0A4CFC5F02ECD3955
:0F151700FEE43CFCEAA42DCE35F0FDE43CFC22C2
:1015260075F008758200EF2FFFEE33FECD33CDCC7C
:1015360033CCC58233C5829BED9AEC99E5829840FF
:101546000CF582EE9BFEED9AFDEC99FC0FD5F0D6DC
:10155600E4CEFBE4CDFAE4CCF9A88222B800C1B906
:101566000059BA002DEC8BF084CFCECDFCE5F0CB44
:10157600F97818EF2FFFEE33FEED33FDEC33FCEB7D
:1015860033FB10D703994004EB99FB0FD8E5E4F938
:10159600FA227818EF2FFFEE33FEED33FDEC33FC25
:1015A600C933C910D7059BE99A4007EC9BFCE99A19
:1015B600F90FD8E0E4C9FAE4CCFB2275F010EF2F5E
:1015C600FFEE33FEED33FDCC33CCC833C810D7075E
:1015D6009BEC9AE899400AED9BFDEC9AFCE899F899
:0E15E6000FD5F0DAE4CDFBE4CCFAE4C8F9222C
:0E15F400C3E49FFFE49EFEE49DFDE49CFC2208
:10160200EB9FF5F0EA9E42F0E99D42F0EC6480C85F
:0616120064809845F022FF
:10161800EB9FF5F0EA9E42F0E99D42F0E89C45F028
:01162800229F
:10162900E86010ECA2E713FCED13FDEE13FEEF13D7
:04163900FFD8F022C4
:10163D00BB010789828A830216EC5005E9F8021670
:10164D00E0BBFE05E9F80216F889828A83021704C9
:0C165D00ECF0A3EDF0A3EEF0A3EFF02200
:10166900A8828583F0D083D0821216801216801248
:101679001680121680E473E493A3C583C5F0C5836D
:10168900C8C582C8F0A3C583C5F0C583C8C582C8CB
:01169900222E
:10169A00BB010789828A8302171D5005E9F80217E0
:1016AA0014BBFE05E9F802172689828A8302172FDE
:1016BA00D083D082F8E4937012740193700DA3A3BF
:1016CA0093F8740193F5828883E4737402936860D3
:0616DA00EFA3A3A380DFD3
:0C4D3F00EE30E707C3E49FFFE49EFE2275
:0C16E000E6FC08E6FD08E6FE08E6FF2236
:0C16EC00E0FCA3E0FDA3E0FEA3E0FF2271
:0C16F800E2FC08E2FD08E2FE08E2FF222E
:10170400E493FC740193FD740293FE740393FF222B
:09171400E6FB08E6FA08E6F922FA
:09171D00E0FBA3E0FAA3E0F922CD
:09172600E2FB08E2FA08E2F922F4
:0C172F00E493FB740193FA740293F92216
:00000001FF
