:03000000023BFAC6
:0C3BFA00787FE4F6D8FD758179023C412B
:1025FD000D0A507265762E46573A253032782530C1
:10260D00327825303278000D0A437572722E465796
:10261D003A253032782530327825303278000D0A5F
:10262D0043616E6E6F7420616363657373204545FE
:10263D0050524F4D21212121000D0A4E6F20696E00
:10264D00697469616C697A65000D0A285345545F98
:10265D0050574D3D253032782076616C3D25303216
:10266D007829000D0A3D3D3D3D3D3D3D3D3D3D3D06
:10267D003D3D3D3D3D3D3D3D3D3D3D3D3D3D3D3D7D
:10268D003D3D3D3D3D3D3D000D0A53797374656DF6
:10269D0020686173206265656E20776F726B696E5D
:1026AD006720666F7220256420646179732C202564
:1026BD006420686F7572732C202564206D696E75AA
:1026CD0074657320616E64202564207365636F6E7D
:1026DD006473000D0A53797374656D2068617320FE
:1026ED006265656E20776F726B696E6720666F72BB
:1026FD0020256420686F7572732C202564206D6908
:10270D006E7574657320616E642025642073656336
:10271D006F6E6473000D0A53797374656D20686173
:10272D0073206265656E20776F726B696E672066C8
:10273D006F72202564206D696E7574657320616EEE
:10274D0064202564207365636F6E6473000D0A53F6
:10275D00797374656D20686173206265656E20778D
:10276D006F726B696E6720666F72202564207365CA
:10277D00636F6E6473000D0A28426174746572791B
:10278D004254483D25642825642E25645629290088
:10279D002854454D505F4849474829002848494726
:1027AD00485F544D45505F5741524E2900285445BE
:1027BD004D505F4C4F572900284C4F575F544D4596
:1027CD00505F5741524E29002854454D505F4E4F92
:1027DD00524D414C29000D0A28426174746572797D
:1027ED004341503D25642825642E253034645629F7
:1027FD002928256456290028484947485F43484100
:10280D005247452900284C4F575F43484152474591
:10281D002900284E4F524D414C5F43484152474588
:10282D0029002853544F505F4348415247452900D2
:10283D00284348415247455F4E4F5F42415454290A
:10284D0000285F424154545F5354415455535F43E4
:10285D00415041434954595F4C4556454C30290030
:10286D00285F424154545F5354415455535F434183
:10287D005041434954595F4C4556454C3129002828
:10288D005F424154545F5354415455535F4341503B
:10289D0041434954595F4C4556454C322900285FF8
:1028AD00424154545F5354415455535F4341504139
:1028BD00434954595F4C4556454C332900285F42D6
:1028CD004154545F5354415455535F434150414318
:1028DD004954595F4C4556454C342900285F4241B7
:1028ED0054545F5354415455535F434150414349F0
:1028FD0054595F4D494E2900285F424154545F534E
:10290D0054415455535F43415041434954595F4DD0
:10291D0041582900285F424154545F535441545546
:10292D00535F43415041434954595F4D41585F53A3
:10293D00544F50290028424154544552595F434148
:10294D005041434954595F4E4F5F53544152545572
:10295D00502900285F424154545F535441545553FC
:10296D005F4E4F5F4241545429002843484152471E
:10297D00455F544D45505F41424E4F524D414C299C
:10298D00000D0A285F504F5745525F53544154551F
:10299D00535F534156494E4729000D0A285F504F4A
:1029AD005745525F5354415455535F4F4646290086
:1029BD000D0A285F504F5745525F5354415455539C
:1029CD005F4E4F524D414C29000D0A28504F57452F
:0D29DD00525F5354415455533D2564290069
:103176004102790041027A0041026E00410270006C
:103186004102710041026C004102650041027B0070
:1031960002400000014600C101C180024700000153
:1031A60044000145000274000004690000000004A8
:1031B6006D00000000C10441026601017200014277
:1031C60000014300C102C10341026F0041026700D2
:1031D60041027200440275000000004202730000C2
:1035CE00123ACB9001CC1213BD7F047E0012454CF3
:1035DE007E00C007C0067F0512454C7E00C007C0A6
:1035EE00067F0612454C9001DAE4F0A3EFF090014D
:1035FE00D8D0E0F0A3D0E0F09001D6D0E0F0A3D088
:10360E00E0F07BFF7A2579FD124311123ACBE47B71
:10361E0017FAF9F8C3121378605F7BFF7A267914D4
:10362E00E49001D6F0A3F0A3F0A3F0A3F0A37417D7
:10363E00F012431112438D7F047E0012454C7E0022
:10364E00C007C0067F0512454C7E00C007C0067F2E
:10365E000612454C9001DAE4F0A3EFF09001D8D0B9
:10366E00E0F0A3D0E0F09001D6D0E0F0A3D0E0F0EF
:10367E007BFF7A267914124311123ACBE47B17FAA8
:10368E00F9F8C3121378701E7F17FEFDFC9001CC63
:10369E00E0F8A3E0F9A3E0FAA3E0FBC3121378600D
:1036AE001E1244F980197BFF7A26792B1243117B67
:1036BE00FF7A26794612431190012A74FFF0227F79
:1036CE006412468B7811E6540F4410F654F04402FF
:0136DE00F6F5
:0136DF0022C8
:10411E00758DF4759850758922758855758A407518
:10412E008C4075878075B80275A892D299D2ACE48E
:10413E00F5C8C2CAD2AD75AA5075BAF443A61843D3
:10414E00AD10C203F5E9F5F975D90443D840439390
:0F415E00A043910475B10CF5B275B30CF5B42202
:1046BB003085107F327E001246763085037F0122D3
:0646CB007F00227F0022A7
:104065009001D1EFF0A3EDF07BFF7A267956900110
:10407500D6E4F0A3EFF0EDFFA3E4F0A3EFF01243D5
:10408500119001D1E0603B24EB60212416602F24C0
:10409500EB703275EC809001D2E0FFC374FF9FF5A1
:1040A500FC75DC42EF701EF5DCC2942275ED809044
:1040B50001D2E0FFC374FF9FF5FD75DD422243D8B1
:0640C500402253D8402206
:03000B000229EADD
:0B29EA00C0E0C083C082C0D075D008E0
:1029F50005730545C3E545940A748094804013909A
:102A0500017EE004F0700690017DE004F07545005C
:102A1500D20C90026DE0600214F090026DE060034C
:102A2500022B97E5B0540C13135403FF900278E082
:102A35006F7003022B97900276E0900275F090027A
:102A450077E0900276F0900278E0900277F0A3EFBD
:102A5500F0D20590026D7430F0900275E0FF7E00B3
:102A65007020A3E06401701AA3E064037014A3E06E
:102A75006402700E900274E004F07006900273E038
:102A850004F0EF64014E7020900276E06403701844
:102A9500A3E064027012A3E0700E900274E004F0EB
:102AA5007006900273E004F0900275E06403701EF6
:102AB500A3E064027018A3E07014A3E06401700E33
:102AC500900274E004F07006900273E004F0900246
:102AD50075E0FF7E006402701EA3E0701AA3E06437
:102AE500017014A3E06403700E900274E004F070AA
:102AF50006900273E004F0EF4E7022900276E064D7
:102B050002701AA3E064037014A3E06401700E90D0
:102B15000274E024FFF0900273E034FFF090027538
:102B2500E06402701EA3E064037018A3E064017002
:102B350012A3E0700E900274E024FFF0900273E09F
:102B450034FFF0900275E0FF7E006403701EA3E081
:102B550064017018A3E07014A3E06402700E900283
:102B650074E024FFF0900273E034FFF0EF64014E4F
:102B75007020900276E0701AA3E064027014A3E05E
:102B85006403700E900274E024FFF0900273E03449
:102B9500FFF0D3E5739460748094805003022C9603
:102BA500054AE54A700205497573000544E5446424
:102BB500647010F544E54690026F6005E004F0800E
:102BC50002E4F0E575F47003E574F460080575E555
:102BD5007570020574AF70AE6FAD6EAC6DEC4D4E99
:102BE5004F6014EF24FFF570EE34FFF56FED34FF01
:102BF500F56EEC34FFF56D900268E07002A3E060BD
:102C05000E900269E024FFF0900268E034FFF0E5E1
:102C1500E8F4FF131313541F30E04CE541643245CB
:102C250040701A900106E0600B7811E6FFC4540F5E
:102C350064077029754601C200D2018020E541B4C0
:102C4500201BE540B4031630000D754601D20190F6
:102C5500027B7401F0C2007540007541330541E502
:102C650041702E0540802AC3E5419432E540940029
:102C75004012900106E06401700A300007754601B4
:102C8500D2018005754600C201D20075400075412C
:012C9500003E
:092C9600D0D0D082D083D0E0320E
:102210007BFF7A2679707F0112424C900270E0FFBA
:1022200060327BFF7A2679959001D6E4F0A3EFF037
:10223000900271E0FF9001D8E4F0A3EFF090026CFF
:10224000E0FF9001DAE4F0A3EFF0900265E0FF9088
:1022500001DC8057900271E0FF60257BFF7A2679D0
:10226000E09001D6E4F0A3EFF090026CE0FF900163
:10227000D8E4F0A3EFF0900265E0FF9001DA802B44
:1022800090026CE0FF7BFF60167A2779229001D6DE
:10229000E4F0A3EFF0900265E0FF9001D8800C7AA3
:1022A00027795A900265E0FF9001D6E4F0A3EFF0A1
:1022B0007F0312424C9001C0E0FEA3E0FF9001D6E4
:1022C000EEF0A3EFF07805C333CE33CED8F9FBAAF6
:1022D000067C277D10FF1210FE9001D8EEF0A3EFD0
:1022E000F07C277D10AF03AE021210FEA3ECF0A32A
:1022F000EDF07BFF7A2779837F0212424C90010E2A
:10230000E0541F6406700A7BFF7A27799D7F018065
:102310004290010FE0C31313500A7BFF7A2779A97B
:102320007F03802F90010EE0541F6408700A7BFF2A
:102330007A2779BA7F04801B90010FE01313543F72
:10234000137BFF50087A2779C57F0380067A2779A7
:10235000D57F0212424C900110E0541F6409704670
:10236000A3E0FEA3E07805C333CE33CED8F9246AC8
:10237000FFEE34FFFE7C277D101210FE7E007F648E
:10238000CFCDCFCECCCE1210FEAA06AB0790011156
:10239000E0FEA3E07805C333CE33CED8F9246AFF3C
:1023A000EE34FFFE803A900111E0FEA3E07805C311
:1023B00033CE33CED8F9FF7C277D101210FE7E007D
:1023C0007F64CFCDCFCECCCE1210FEAA06AB079045
:1023D0000111E0FEA3E07805C333CE33CED8F9FF78
:1023E0007C277D101210FE7C007D641210ECEF2B18
:1023F000FFEE3AFE9001D0F0A3EFF07D371210EC23
:102400007D641210FE9001D0EEF0A3EFF090011168
:10241000E0FEA3E0FF9001D6EEF0A3EFF07805C355
:1024200033CE33CED8F9FBAA067C277D10FF1210DD
:10243000FE9001D8EEF0A3EFF07C037DE8AF03AE91
:10244000021210FEA3ECF0A3EDF09001D0E0FFA388
:10245000E09001DCCFF0A3EFF07BFF7A2779E37FF8
:102460000512424C900110E0541F640D700A7BFF6E
:102470007A2879047F02804E900110E0541F640E88
:10248000700A7BFF7A2879127F03803A900110E06E
:10249000541F640F700A7BFF7A28791F7F058026FE
:1024A000900110E0541F6410700A7BFF7A28792F86
:1024B0007F018012900110E0541F6409700B7BFFB4
:1024C0007A28793D7F0112424C90010DE0541F643F
:1024D0000470087BFF7A28794E804490010DE05407
:1024E0001F640370087BFF7A28796D803290010D9C
:1024F000E0541F640270087BFF7A28798C8020905A
:10250000010DE0541F640170087BFF7A2879AB80CD
:102510000E90010DE0541F700A7BFF7A2879CA7F64
:1025200002806790010DE0541F6415700A7BFF7AEA
:102530002879E97F04805390010DE0541F641670E0
:102540000A7BFF7A2979057F06803F90010DE054D0
:102550001F6417700A7BFF7A2979217F05802B90F1
:10256000010DE0541FFF7E00BE020DBFA30A7BFFDA
:102570007A2979427F05801290010DE0541F640989
:10258000700B7BFF7A2979607F0112424C90010F1A
:10259000E0131313541F13500B7BFF7A2979777FB5
:1025A0000112424C7811E6C4540F640770087BFF97
:1025B0007A29798E80377811E6C4540F6401700847
:1025C0007BFF7A2979A780257811E6C4540F64022D
:1025D0007BFF70067A2979BD80137A2979D6781124
:1025E000E6C4540FFF9001D6E4F0A3EFF07F06128B
:0D25F000424C7BFF7A2679707F0102424C3D
:1046D100E4FFEFC3941D74809480500974222FF875
:0546E100E4F60F80ED7E
:0146E60022B1
:103F0300EF24E6B40A005070903F1975F003A4C57E
:103F13008325F0C58373023F43023F37023F4102CB
:103F23003F3C023F45023F7B023F4D023F57023F6A
:103F330064023F70D2E9D2E822D2E8C2E9228005C6
:103F4300801530E817C2E8D2E92230E905C2E9D288
:103F5300E822800830E805C2E8C2E922D2E8D2E9C3
:103F63002230E904C2E98002D2E9C2E82230E8043F
:093F7300C2E88002D2E8C2E92292
:03001300020026C2
:03002600C2AA3239
:0300230002447024
:10447000C0E0C0D075D008309819744B2571F8A6EB
:10448000990571C3E571941E748094804003757121
:0F44900000C298309904C299C202D0D0D0E03255
:030063000243C98C
:1043C900C0E0C0D075D008E5AA54016401701A5341
:1043D900AAFE74222542F8A69A0542C3E542941E14
:1043E900748094804003754200E5AA540264027007
:0B43F9000553AAFDC203D0D0D0E03273
:0B478700E542B543037F00227F0122C2
:1046390053ADEF74222543F8E6FF0543E543C394E0
:0D4649001E748094804003E4F54343AD10DF
:014656002241
:080003002003FD8F9AD20322B5
:03002B0002476C1D
:0F476C00C0E0C2CF0548E54870020547D0E032F3
:10468B00E5442FFFE433FE7C007D641210FEE5440D
:07469B00B505FBE4B504F7CF
:0146A20022F5
:104737000D0A436C656172426173696345452E2EAC
:024747002E0042
:103ACB009001D01213C900000000E4FFFE12454C18
:103ADB00EF6430600280287F017E0012454CEF645A
:103AEB00376002801A7F027E0012454CEF64306013
:103AFB0002800C7F037E0012454CEF64496006E4A4
:103B0B00FFFEFDFC227F057E0012454CEF7F00FE81
:103B1B00C007C0067F047E0012454C7E00EF781074
:103B2B00C333CE33CED8F9FDD0E04EFED0E04DFFFF
:103B3B00C007C0067F067E0012454CEFFDD0E0FEAD
:103B4B00D0E04DFFEE3395E0FDFC9001D01213BD9C
:0E3B5B009001D0E0FCA3E0FDA3E0FEA3E0FF9C
:013B69002239
:10438D007D30E4FFFE1242057D377F017E00124233
:10439D00057D307F027E001242057D497F037E0040
:1043AD00124205E4FD7F04FE124205E4FD7F05FE89
:0C43BD001242057D177F067E00024205BB
:1044F9007BFF7A4779371243117D017F107E0012C5
:1045090042057D0E7F117E00124205E4FD7F07FE04
:0B451900124205E4FD7F12FE02420585
:0431E600410105009E
:091E1800124787EF700302220F4C
:101E21001246399001CCEFF07E00647E700DC20B3A
:101E310090010504F0E4900003F022EF647D4E7000
:101E410003D20B22300B09C20B9001CCE04470F09D
:101E5100900105E0FB64046010900003E0FE900136
:101E6100CCE0FDEE6D900003F0EB24FE602E1460DB
:101E71005B147003021F112403600302220F9001FF
:101E8100CCE0900002F01424F8500A24F924FD500B
:101E91000424E370349001057402F0229001CCE037
:101EA100900001F0A3E01424F8500A24F924FD5015
:101EB1000424E37014900001E070028049E4900072
:101EC10000F09001057403F02202220A900002E062
:101ED1001424F8500A24F924FD500424E3702E90B0
:101EE10001CCE0FF900000E02405F582E43400F528
:101EF10083EFF0900000E004F0A3E0FF900000E029
:101F01006F600302220F9001057404F02202220A7D
:101F11009001CCE0FF900003E06F600302220A9081
:101F21000002E012141A1F4F011F88021FA2031F93
:101F3100AB041FB40520C50621020721E508212DA8
:101F41001021361121A01221DA300000220A90015D
:101F510016E04401F0900110E054E04414F09001C7
:101F610016E0FF131313541F13500EEF54F7F07FB5
:101F710013122C9F7F07124292900116E0C3131394
:101F8100500302220A80117F19124292900116E039
:101F9100C31313500302220A7D197F107E270221E9
:101FA100E07D057FE87E030221E07D067FE87E0378
:101FB1000221E0900005E0FDC4540F75F00AA4FF72
:101FC100ED540F7C002FFDEC35F0FC120EB29001A8
:101FD100381213BD900006E0FDC4540F75F00AA439
:101FE100FFED540F7C002FFDEC35F0FC120EB2908A
:101FF10001261213BD900007E0FDC4540F75F00ACD
:10200100A4FFED540F7C002FFDEC35F0FC120EB255
:1020110090013C1213BD900008E0FDC4540F75F00F
:102021000AA4FFED540F7C002FFDEC35F0FC120EDD
:10203100B290012B1213BD900009E0FDC4540F753D
:10204100F00AA4FFED540F7C002FFDEC35F0FC12DB
:102051000EB29001401213BD90000AE0FDC4540F6E
:1020610075F00AA4FFED540F7C002FFDEC35F0FC58
:10207100120EB290012F1213BD90000BE0FDC4545B
:102081000F75F00AA4FFED540F7C002FFDEC35F025
:10209100FC120EB29001441213BD90000CE0FDC47D
:1020A100540F75F00AA4FFED540F7C002FFDEC35A1
:1020B100F0FC120EB29001331213BD7D0B7FE87E4E
:1020C100030221E0900005E06013900171E06004DB
:1020D10014F08005E4900171F07D01801A90017186
:1020E100E0C39428748094805005E004F080069049
:1020F10001717428F07D027FF47E011237C602223D
:102101000A900005E0FD7C00700A900116E054FD84
:10211100F002220AED64014C600302220A7F1912C7
:102121004292900116E04402F002220A7D037FE808
:102131007E030221E0900005E07032900116E05428
:10214100FEF07F191242927F1E1242927F1F1242AD
:10215100927F201242927F211242927F221242925A
:102161007F231242927D217F647E00807290000560
:10217100E064017008900116E044088014900005A5
:10218100E06402600302220A900116E04408F04470
:1021910010F07D077FE87E031236E77F19803590C6
:1021A1000005E0FD7C0064017009900116E054BF58
:1021B100F0801F900106E064017017ED4C701390E0
:1021C1000116E054BFF0E4900106F0FD7F10FE120D
:1021D10042057F0912429280307D0A7FE87E031218
:1021E10036E78025900005E0640170107D017F12C3
:1021F100FE1242059001377401F0800DE4FD7F125B
:0E220100FE124205E4900137F0E4900105F072
:01220F0022AC
:0446FC009291D29035
:0F470000E4FFEFC394017480948050030F80F3A3
:01470F002287
:0B4205009001D0EEF0A3EFF0A3EDF06D
:104210009001D0E0FEA3E07807CEC313CE13D8F907
:1042200044A054FE9001D3F01247499001D3E0FF1F
:10423000123E0D9001D0A3E0FF123E0D9001D2E09E
:0C424000FF123E0D1200167F0202468B9A
:04454C00AD07AC0605
:10455000ED7807CEC313CE13D8F944A054FEFF1252
:1045600044049001F4EFF07F0212468B9001F4E0D6
:01457000FF4B
:014571002227
:084404009001F5EFF0A3EDF0CB
:10440C001247499001F5E0FF123E0D9001F6E0FFD6
:10441C00123E0D1247499001F5E04401FF123E0D8A
:10442C0012002E9001F7EFF01200169001F7E0FF4A
:01443C00225D
:10474900D291124700D290124700C291124700C27B
:024759009022AC
:0D001600C291124700D290124700D29122F1
:103E0D00AE07C290EE30E703D38001C31246FCC269
:103E1D0090EE30E603D38001C31246FCC290EE3023
:103E2D00E503D38001C31246FCC290EE30E403D308
:103E3D008001C31246FCC290EE30E303D38001C370
:103E4D001246FCC290EE30E203D38001C31246FC51
:103E5D00C290EE30E103D38001C31246FCC290EE56
:103E6D0030E003D38001C31246FCC290C290C290D1
:0B3E7D00D291D290D290D290C290223D
:10002E00E4FED291124700C290E4FDFCD290EE2580
:10003E00E0FE3091034401FEC2900DBD00010CEDB7
:10004E0064084C70E7124700D290D290D290C290C2
:02005E00AF06EB
:01006000227D
:103D8F00AE07C290EE30E703D38001C31246FCC2E8
:103D9F0090EE30E603D38001C31246FCC290EE30A2
:103DAF00E503D38001C31246FCC290EE30E403D387
:103DBF008001C31246FCC290EE30E303D38001C3EF
:103DCF001246FCC290EE30E203D38001C31246FCD0
:103DDF00C290EE30E103D38001C31246FCC290EED5
:103DEF0030E003D38001C31246FCC290C290C29050
:0E3DFF00D291124700D290D290D290C2902260
:0445DA00AB07AA067B
:1045DE007E5E1247497F5E123D8FAF03123D8FAF55
:0C45EE0005123D8F1200167F0202468B62
:10449F007F01124657EF602590027BE06401701494
:1044AF00900106E06401700C90027BF07D047FF4B4
:0E44BF007E0180067D137F647E001236E722A8
:10465700A2019209C2012009037F0022EF6003AF84
:0A4667004622200003AF46227F0028
:014671002226
:103E88000D0A5374617274204D61696E204C6F6F16
:103E9800702E2E2E000D0A537461727420426F6FBB
:103EA800742E2E2E000D0A2843616D657261566FBF
:103EB8006C743D256429000D0A2850535720676FFC
:103EC800696E6720746F20706F776572206F666601
:103ED8002E2E2E29000D0A285374617274207570D5
:103EE8002020506F776572204F6E204D6F64652ECD
:0B3EF8002E2E2900000000000000003A
:1031EA0046010D00000000000042011600004401E3
:1031FA0021000000004201130000410115004101B5
:10320A00250041011E0042011F00004401383F8091
:10321A00000044013C3F8000004401403F80000020
:10322A004401443F8000004401260000000044019C
:10323A002B0000000044012F00000000440133006D
:10324A00000000460107000000280015460118008A
:10325A000000280015602901480506080A0B0D0F11
:10326A0010121416181A1C1E202225272A2C2F3257
:10327A0035383B3E4245484B5055585D61666B7048
:02328A00757A53
:10443D0075E5028DE39001D5E0F5E4121062F5E229
:10444D0075E64675E6B9740129F9E43AFA9001D595
:10445D00E004F0E070030D8DE39001D6E014F0E080
:03446D0070D322E7
:04000E0075E78122EF
:1045B900E49001D0F012000E7B017A0179D09001CC
:1045C900D574FFF0A37401F07DEF12443D75E760E7
:0145D90022BF
:10397E00FF6DFD90020E7401F0A37402F0A37409A2
:0A398E00F0EFA3F07B017A0179F954
:1039980090020BEBF0A3EAF0A3E9F0900211E0FF2C
:1039A800647E6005EF647D703F90020EE0FBA3E04B
:1039B800FAA3E0F9121062FF90020BE0FBA3E0FA11
:1039C800A3E0F98F82758300747D1210CA90020EED
:1039D800E0FBA3E0FAA3E0F974011210A890021129
:1039E800E0540F4450FF8010900211E0FF90020E47
:1039F800E0FBA3E0FAA3E0F9121062FE90020BE0EC
:103A0800FBA3E0FAA3E0F98E82758300EF1210CAD7
:103A180090020EE0FBA3E0FAA3E0F974011210A8EB
:033A28007F0022FA
:0B3B6A009001F5EBF0A3EAF0A3E9F0F6
:103B75009001F9747EF09002097401F0EF1239801A
:103B85009001F8E012397EE490020AF09001F8E025
:103B9500FF90020AE0FEC39F501E9001F5E0FBA3D3
:103BA500E0FAA3E0F98E8275830012107B12397E4C
:103BB50090020AE004F080D490020E7401F0A37420
:103BC50002F0A37409F0ED123990E490020AF09026
:103BD5000209E0FFA3E0FEC39F501774F92EF5829A
:103BE500E43401F583E0FF12000390020AE004F0DB
:043BF50080DD7F00F0
:013BF90022A9
:052F3D009001ECEFF033
:102F420078ED7C017D017BFF7A3E79FC7E007F0774
:102F520012103C9001ECE0247F604E1470030231A9
:102F62002914700302315414700302316424046082
:102F7200030231757F047E0012454C9001EDEFF0A3
:102F82007F057E0012454C9001EEEFF07F067E0039
:102F920012454C9001EFEFF07B017A0179ED90013F
:102FA200F87403F07F80023172900111E0FEA3E019
:102FB2007805C333CE33CED8F9FF7C277D101210AB
:102FC200FE7E007F64CFCDCFCECCCE1210FEAA06FD
:102FD200AB07900111E0FEA3E07805C333CE33CEF8
:102FE200D8F9FF7C277D101210FE7C007D64121040
:102FF200ECEF2BFFEE3AFE7D361210EC7D641210E0
:10300200FE9001EDEFF09001C0E0FCA3E0FDEC903A
:1030120001EFF0EDA3F0900115E0FF75F00A84C412
:1030220054F0FEEF75F00A84E5F04E9001F1F09055
:10303200011FE0FEA3E0FF7C007D0A1210FEEFC438
:1030420054F0FB90011FE0FEA3E0FF7C007D0A121A
:1030520010FEEB4D9001F2F0900125E09001F3F0AB
:1030620090010DE0F9C4131354031350079001EEBD
:10307200E04401F090010EE0541FFD7C00640670F4
:10308200079001EEE04402F0ED64084C70079001F5
:10309200EEE04404F0E9C41354071350079001EE24
:1030A200E04408F090010FE0FD1350079001EEE0BC
:1030B2004410F0EDC3131350079001EEE04420F0EA
:1030C20090010FE01313543F1350079001EEE044B8
:1030D20040F020804230813FD39001C1E0945A9069
:1030E20001C0E09400403090010EE0FFC41313547D
:1030F20003134023EF541F6407701CA3E013131340
:10310200541F13401290010DE0C4135407134007DB
:103112009001EEE04480F07B017A0179ED9001F8B4
:103122007407F07F81804990010DE0FFC4131313EF
:10313200540113500D9001ED7401F0EF547F900192
:103142000DF07B017A0179ED9001F87401F07F8234
:10315200801E7B017A0179ED9001F87401F07F8382
:10316200800E7B017A0179ED9001F87401F07F8481
:03317200123B6AA3
:013175002237
:1040CB001245977D147F017E001236E77D107F012C
:1040DB007E001236E77D157FE87E031236E77D12F0
:1040EB007F017E001236E77D1E7F017E001236E7D0
:1040FB007D0F7F017E001236E77D2B7F107E27120E
:10410B0036E77D177F107E271236E790010DE044CE
:03411B0040F0224F
:10332A009001D2EEF0A3EFF0A3EBF0A3EAF0A3E949
:01333A00F0A2
:10333B009000041211E0FDD3EF9DE5F06480F8EEF0
:10334B0064809840030233DE9001DAE0FBA3E0FADD
:10335B00A3E0F99000041211E0FFAEF01211B5FDDD
:10336B00C3EF9DFFEE95F09001DDF0A3EFF0900120
:10337B00D4E0FBA3E0FAA3E0F99000041211E0FD06
:10338B00ACF01211B5FBAAF0C3ED9BFFEC9AFE90CB
:10339B0001DFF0A3EFF04E7002FF229001D2E0FEAE
:1033AB00A3E0FFC3EF9BFFEE9AFE9001DDE0FCA3D1
:1033BB00E0FD1210ECA3E0FCA3E0FD121153C006DC
:1033CB00C0079001DAE0FBA3E0FAA3E0F91211B514
:1033DB000234829001DAE0FBA3E0FAA3E0F990005B
:1033EB00041211E0FFAEF09000021211E0C39FFF38
:1033FB00E5F09E9001DDF0A3EFF09001D4E0FBA38C
:10340B00E0FAA3E0F99000041211E0FFAEF0900097
:10341B00021211E0C39FFFE5F09EFE9001DFF0A3C7
:10342B00EFF04E7002FF229001D4E0FBA3E0FAA371
:10343B00E0F99000041211E0FFAEF0AB07AA069082
:10344B0001D2E0FEA3E0FFC3EF9BFFEE9AFE9001DB
:10345B00DDE0FCA3E0FD1210ECA3E0FCA3E0FD1209
:10346B001153C006C0079001DAE0FBA3E0FAA3E01A
:10347B00F99000041211E0FFAEF0D0E02FFFD0E086
:10348B003EF99001D7E0FBA3E0FAA3E0C98FF0125D
:04349B0012187F0183
:01349F00220A
:1042D3007E009001D77401F0A37401F0A374D0F0B1
:1042E300A37401F0A37401F0A37418F07B017A01A5
:1042F300790712332A9001D0E0FEA3E02448F58227
:0E43030074013EF583E0FD7F027E000245DA84
:104572007F107E0012454C900106EFF07F117E0005
:1045820012454C900171EFF07F127E0012454C9063
:054592000137EFF022EB
:1045FA00EF4488F5C5E5C520E3FBAFC6EF75F004C7
:10460A00A4FFE5E85403FDEF4DFFE5F05403FE2255
:07479200E4FE7F060245FA78
:07479900E4FE7F070245FA70
:1019F100200503021E177F0A7ED77D237C3C9001C0
:101A010026E0F8A3E0F9A3E0FAA3E0FB120D0790AA
:101A11000138E0F8A3E0F9A3E0FAA3E0FB120C1609
:101A21009001D01213BD7F0A7ED77D237C3C9001AB
:101A31002BE0F8A3E0F9A3E0FAA3E0FB120D079075
:101A4100013CE0F8A3E0F9A3E0FAA3E0FB120C16D5
:101A51009001D41213BD7F0A7ED77D237C3C900177
:101A61002FE0F8A3E0F9A3E0FAA3E0FB120D079041
:101A71000140E0F8A3E0F9A3E0FAA3E0FB120C16A1
:101A81009001D81213BD7F0A7ED77D237C3C900143
:101A910033E0F8A3E0F9A3E0FAA3E0FB120D07900D
:101AA1000144E0F8A3E0F9A3E0FAA3E0FB120C166D
:101AB1009001DC1213BD7F007EB07DE57C45900175
:101AC100D0E0F8A3E0F9A3E0FAA3E0FB120D07E4EC
:101AD100FBFA797A7844120E109001E01213BD7F5F
:101AE100E17E987DD27C459001D4E0F8A3E0F9A392
:101AF100E0FAA3E0FB120D07E4FBFA797A784412CD
:101B01000E109001E0E0F8A3E0F9A3E0FAA3E0FBF6
:101B1100120C169001E41213BD7F487EC17D2C7C0E
:101B2100469001D8E0F8A3E0F9A3E0FAA3E0FB12A4
:101B31000D07E4FBFA797A7844120E109001E4E083
:101B4100F8A3E0F9A3E0FAA3E0FB120C169001E878
:101B51001213BD900273E0FEA3E0FFC3EE64809414
:101B6100804008E4900125F0FC8017900125740164
:101B7100F0900273E0FEA3E0FFC3E49FFFE49EFE4A
:101B81007C007D021211539001CCEEF0A3EFF09096
:101B910001CCE0FEA3E0D394F0EE94004003021CDC
:101BA10037C3EE94005003021C37E4FFFE7DF57C41
:101BB100419001D0E0F8A3E0F9A3E0FAA3E0FB1221
:101BC1000D07C004C005C006C0079001CCE0FCA30E
:101BD100E0FDE4120EB2D003D002D001D000120D0C
:101BE10007E4FBFA797A7844120E1090012112135E
:101BF100BDE4FFFE7DF57C419001D0E0F8A3E0F962
:101C0100A3E0FAA3E0FB120D07C004C005C006C0A3
:101C1100079001CCE0FCA3E0FDE4120EB2D003D0AA
:101C210002D001D000120D07120EEB9001CEEEF0A2
:101C3100A3EFF0021D9D9001CCE0FEA3E0FFD39441
:101C4100F0EE9400406BD3EF94C2EE940150627FAA
:101C51002F7E5D7D007C429001D4E0F8A3E0F9A3E2
:101C6100E0FAA3E0FB120D07C004C005C006C007DF
:101C71009001CDE02410FD9001CCE034FFFCE41292
:101C81000EB2D003D002D001D000120D07E4FBFA4E
:101C9100797A7844120E109001E0E0F8A3E0F9A3FC
:101CA100E0FAA3E0FB120C169001211213BD021DF4
:101CB1009D9001CCE0FEA3E0FFD394C2EE940140DD
:101CC1006AD3EF940CEE940350617F197E047D0674
:101CD1007C429001D8E0F8A3E0F9A3E0FAA3E0FB8D
:101CE100120D07C004C005C006C0079001CDE02455
:101CF1003EFD9001CCE034FEFCE4120EB2D003D0E4
:101D010002D001D000120D07E4FBFA797A7844126F
:101D11000E109001E4E0F8A3E0F9A3E0FAA3E0FBE0
:101D2100120C169001211213BD8071D39001CDE0E8
:101D3100940C9001CCE094035003021DFB7F817E43
:101D4100957D0B7C429001DCE0F8A3E0F9A3E0FA79
:101D5100A3E0FB120D07C004C005C006C007900137
:101D6100CDE024F4FD9001CCE034FCFCE4120EB291
:101D7100D003D002D001D000120D07E4FBFA797A2A
:101D81007844120E109001E8E0F8A3E0F9A3E0FA1C
:101D9100A3E0FB120C169001211213BD7FCD7ECC66
:101DA1007D4C7C3D900121E0F8A3E0F9A3E0FAA38A
:101DB100E0FB120C16120EEB900115EFF07FCD7EB9
:101DC100CC7D4C7C3D900121E0F8A3E0F9A3E0FA41
:101DD100A3E0FB120C16E4FBFA79C87842120D0756
:101DE100120EEB90011FEEF0A3EFF07C007D641268
:101DF10010FE90011FECF0A3EDF0C205900116E07A
:101E01001350137F81122F3D7F2B1242927D2B7F26
:061E1100E87E031236E733
:011E170022A8
:10461A007BFF7A3E7988124311121E18123C8612C9
:0F462A003D0B12449F1219F1900106E070EB2234
:103F7C0012411E1245247BFF7A3E799D1243111289
:103F8C0035CED2B4D2B51246D11245721240CB9076
:103F9C000171E0FF1242D37BFF7A3E79AD90017143
:103FAC00E0FF9001D6E4F0A3EFF01243119001373B
:103FBC00E06401700590010604F0900106E06401D4
:103FCC0078117008E654F04402F6800BE6540F4466
:103FDC0020F654F04401F6900106E06401700312DF
:073FEC00461A123FF380F0BA
:103FF3007BFF7A3E79BF1243117811E654F04401F6
:10400300F6900116E054FEF07F19124292900116C9
:10401300E054BFF07F09124292123D0B123C86120C
:10402300449F900106E0640170EFE4900273F0A3F3
:10403300F0900115F090011FF0A3F0900125F0F529
:1040430042F54390010FE054FEF0A3E054E0441422
:10405300F07811E654F04402F67BFF7A3E79DD02F4
:02406300431107
:0D328C0001108A41021700C187C108C186E8
:10416D001B5B306D001B5B303B33316D001B5B30D7
:10417D003B33326D001B5B303B33336D001B5B30CB
:10418D003B33346D001B5B303B33356D001B5B30B7
:10419D003B33366D001B5B303B33376D00303132B6
:0E41AD003334353637383941424344454600F5
:1032990058024DFF416DFF4172FF417AFF4182FFA4
:0B32A900418AFF4192FF419AFF41A2C1
:08149B00E0FBA3E0FAA3E0F975
:0B14A300900201EBF0A3EAF0A3E9F0D7
:1014AE0090020F1213C900000001900201E0FBA38D
:1014BE00E475F00112119FA9F0FA12106290020762
:1014CE00F070030219F024DB701B900201E0FBA305
:1014DE00E0FAA3E0F9121062B42513900202E4754B
:1014EE00F0011211892002FD9002070219C6C209ED
:1014FE00C20AE490020EF0900201E0FBA3E475F044
:10150E000112119FA9F0FA121062900207F0E0FD8D
:10151E00B4301BD209900201E0FBA3E475F0011276
:10152E00119FA9F0FA121062900207F0801FEDFFD2
:10153E003395E0FEC3EF9430EE64809480402CD35C
:10154E00EF9439EE648094805021900207E024D00D
:10155E0090020EF0900201E0FBA3E475F00112116F
:10156E009FA9F0FA121062900207F090020D740219
:10157E00F0900207E024BE602B24E0602724F66082
:10158E00042420703C900201E0FBA3E475F00112EC
:10159E00119FA9F0FA121062900207F090020D74DA
:1015AE0004F0801D900201E0FBA3E475F00112111E
:1015BE009FA9F0FA121062900207F090020D7401CA
:1015CE00F0900207E0FF24A8700302187F24F57044
:1015DE000302199B24F0700302194E24FE600E24A0
:1015EE00FD700302187F241460030219CE90020DC1
:1015FE00E024FE604224FE607B2403600302169FFB
:10160E00EF900204B46419E0FBA3E475F00112112B
:10161E009FA9F0FA121062FF3395E0FEFDFC806B7D
:10162E00E0FBA3E475F00112119FA9F0FA1210620B
:10163E00FFE4FCFDFE8054900207E0900204B464C7
:10164E001BE0FBA3E475F00212119FA9F0FA121130
:10165E00B5FFAEF0EE3395E0FDFC8016E0FBA3E4A3
:10166E0075F00212119FA9F0FA1211B5FFAEF0E457
:10167E00FCFD8017900207E0900204E0FBA3E475E6
:10168E00F00412119FA9F0FA12139D900209121381
:10169E00BD900209E0FCA3E0FDA3E0FEA3E0FFEC99
:1016AE003350252002FD75992DD202900209E0FCDF
:1016BE00A3E0FDA3E0FEA3E0FF74FFFBFAF9F8122E
:1016CE0012379002091213BD90020EE0600302174A
:1016DE0065900209E0FCA3E0FDA3E0FEA3E0FFECB1
:1016EE004D4E4F700B2002FD759930D2020214B888
:1016FE00E490020EF0A31213C90000000190020E36
:10170E00E0C3940A74809480504D900209E0FCA3CB
:10171E00E0FDA3E0FEA3E0FF90020FE0F8A3E0F9E6
:10172E00A3E0FAA3E0FB1212C2E4FBFAF9F8C3122B
:10173E001378602390020FE0FCA3E0FDA3E0FEA36C
:10174E00E0FFE47B0AF812123790020F1213BD90DD
:10175E00020EE004F080A6E4900208F090020F1250
:10176E0013C90000000190020EE024FFFFE434FFD5
:10177E00FE900208E0FD3395E0FCC3ED9FEE648021
:10178E00F8EC648098502590020FE0FCA3E0FDA3D6
:10179E00E0FEA3E0FFE47B0AFAF9F812123790029A
:1017AE000F1213BD900208E004F080BA900209E017
:1017BE00FCA3E0FDA3E0FEA3E0FF90020FE0F8A380
:1017CE00E0F9A3E0FAA3E0FB1212C2EF2430FF907F
:1017DE000207F0BF3025200922E47F01FEFDFC90B8
:1017EE00020FE0F8A3E0F9A3E0FAA3E0FBC31213A3
:1017FE007860089002077420F08002D2092002FD62
:10180E00900207E0F599D202900209E0FCA3E0FDF8
:10181E00A3E0FEA3E0FF90020FE0F8A3E0F9A3E03F
:10182E00FAA3E0FB1212C2AC00AD01AE02AF039000
:10183E0002091213BD90020FE0FCA3E0FDA3E0FE2F
:10184E00A3E0FFE47B0AFAF9F81212C290020F121B
:10185E0013BDE4FFFEFDFC90020FE0F8A3E0F9A338
:10186E00E0FAA3E0FBC312137860030217BA021466
:10187E00B890020DE024FE602224FE60392403702D
:10188E004E900204E0FBA3E475F00112119FA9F043
:10189E00FA121062FFE4FCFDFE802E900204E0FBC3
:1018AE00A3E475F00212119FA9F0FA1211B5FFAE62
:1018BE00F0E4FCFD8013900204E0FBA3E475F00459
:1018CE0012119FA9F0FA12139D9002091213BD90E6
:1018DE00020EE0700890020DE025E0A3F0E4900205
:1018EE0008F090020EE0FF900208E0FD3395E0FC58
:1018FE00C3ED9F7480F86C9840030214B82002FD6B
:10190E00900208E0FF90020EE0C39F1425E025E050
:10191E00F9900209E0FCA3E0FDA3E0FEA3E0FFA81E
:10192E00011213897E00EF540F24AAF582EE344182
:10193E00F583E493F599D202900208E004F080A2B8
:10194E00900204E0FBA3E475F00312119FA9F0FAD4
:10195E001213FA900213EBF0A3EAF0A3E9F090024F
:10196E0013E0FBA3E0FAA3E0F91210627003021475
:10197E00B82002FD900213E0FBA3E475F0011211F2
:10198E009FA9F0FA121062F599D20280D19002044A
:10199E00E0FBA3E475F00212119FA9F0FA1211B543
:1019AE00FFAEF0EE3395E0FDFC9002091213BD2060
:1019BE0002FD900209A3A3A3E0F599D2020214B886
:1019CE00900204E0FBA3E475F00212119FA9F0FA55
:1019DE001211B5FFAEF0E4FCFD9002091213BD0228
:0219EE0014B82B
:0119F00022D4
:0B4311009001D3EBF0A3EAF0A3E9F069
:10431C009001FE7401F0A37401F0A374D6F0900127
:10432C00FEE0F9A3E0FAA3E0900204C9F0A3EAF0DE
:10433C00A3E9F09001D312149B9001FEE4F0A3F0DA
:02434C00A3F0DC
:01434E00224C
:0B434F009001CCEBF0A3EAF0A3E9F032
:10435A009001F77401F0A37401F0A374CFF09001F7
:10436A00F7E0F9A3E0FAA3E0900204C9F0A3EAF0A7
:10437A00A3E9F09001CC12149B9001F7E4F0A3F0AA
:02438A00A3F09E
:01438C00220E
:0E424C009001D2EFF0A3EBF0A3EAF0A3E9F0AB
:10425A009001FE7401F0A37401F0A374D6F09001EA
:10426A00FEE0F9A3E0FAA3E0900204C9F0A3EAF0A1
:10427A00A3E9F09001D312149B9001FEE4F0A3F09D
:07428A00A3F09001D204F043
:01429100220A
:1046A3000A0D537973506F776572496E6974696146
:0846B3006C2E2E4F4B2121005B
:0432B4000211000003
:10452400D283C2A1D284D282C2A1C2B7C286C2EA55
:10453400C2A6C2A2D2E8D2E97FC87E001246767B28
:08454400FF7A4679A302434F00
:103D0B007811E6FF540F14602D24FA6050240570CF
:103D1B0063EFC4540F601024F960082406700DE49F
:103D2B00FF80067F0380027F011244CD7811E65499
:103D3B000F4420F6803E7811E6C4540F600C24FE2D
:103D4B00600C24FB700D7F0480067F0280027F06CF
:103D5B001244CD7811E6540F4410F680177811E613
:103D6B00C4540F24FE70057F051244CD7811E65420
:103D7B000F4470F67811E6FF54F0C4540FFEEF5465
:043D8B00F04EF622DE
:102C9F009001D0EFF07F1E1242927F1F1242927F5F
:102CAF00201242927F211242927F221242927F2360
:102CBF001242929001D0E024F77003022EA924FC57
:102CCF007003022DDF147003022D6D147003022E9A
:102CDF003824FD7003022EF3147003022F0E240309
:102CEF006003022F3C7DFF7F14124065900110E0BE
:102CFF0054E04410F0900116E013400A900106E0F2
:102D0F006401700280777811E6C4540F6407702D48
:102D1F0090010DE0C413135403135002801A900155
:102D2F0006E070057D1B022EE690010DE0541F6436
:102D3F000470057D21022EE67D1F022F357811E6E6
:102D4F00C4540F6402701490010DE0541F6404709A
:102D5F00057D22022EE67D1C022F35022EEB7D997A
:102D6F007F14124065900110E054E0440EF0900182
:102D7F0016E013400D900106E0640170057D1E0200
:102D8F002EE67811E6C4540F6407701590010DE01C
:102D9F00C4131354031350047D2380027D1E022F8E
:102DAF0035900106E070139001C2E0700D9001C3E1
:102DBF00E0640170057D1D022EE69001C2E0700DEA
:102DCF009001C3E0640170057D1A022EE6022EA564
:102DDF00E4FD7F14124065900110E054E0440DF0C3
:102DEF00900116E013400D900106E0640170057D1F
:102DFF001E022EE67811E6C4540F64077015900179
:102E0F000DE0C4131354031350047D2180027D1E63
:102E1F00022F359001C2E0700D9001C3E064017084
:102E2F00057D1D022EE6022EEB7D997F1412406563
:102E3F00900110E054E0440FF0900116E013400DA4
:102E4F00900106E0640170057D1E022EE67811E602
:102E5F00C4540F6407701590010DE0C4131354038D
:102E6F001350047D2380027D1E022F35900106E052
:102E7F0070129001C2E0700C9001C3E06401700405
:102E8F007D1D80539001C2E0700C9001C3E064017E
:102E9F0070047D1A80417D1C80447DE07F141240B8
:102EAF0065900110E054E04409F0900116E01340E2
:102EBF000C900106E0640170047D1E801A7811E603
:102ECF00C4540F640270047D1C800C7811E6C45446
:102EDF000F640770077D1F7F64FE804E7D1B7F642C
:102EEF007E008046900116E0C4540F1350077F06F2
:102EFF00123A2B8002D2827D217F647E00802B903C
:102F0F000116E0C4540F13500EE4FF123A2B900138
:102F1F0016E054EFF08002C282900116E0135004C5
:0E2F2F007D1C80027D217F647E001236E72229
:103A2B00EFB40A004003023AC1903A3BF8282873DE
:103A3B00023A59023A59023A89023A59023A890230
:103A4B003AB3023A89023AC1023AC1023A78C282C7
:103A5B00D2B7D2EAD2A6D2A2D2B6D2A07D147FF42C
:103A6B007E011236E77D0C7FF47E018036C283D255
:103A7B00A17F407E00124676C284D2868038C2A0D7
:103A8B00D283D284C2A1D282C2A1C2B7C2EAC2A6D9
:103A9B00C2A2C286C2B6900116E04420F07D2C7FF4
:103AAB00B87E0B1236E7800EC2A1D284C2B7C2EA2F
:103ABB00C2A6C2A2C286900110E054E04414F022C8
:1044CD009001CCEFF024FE601A24FE601E146013E0
:1044DD0014601024FE600C240824F6500624F760A6
:0C44ED000280089001CCE0FF123A2B2264
:1032B800C10C42017D00004201C002254201800389
:1032C800704101BE0041017500410177014101C211
:1032D800004101C3014101740041017600410178B8
:1032E800004101790041017A004101CB004101C64A
:1032F80000410173004101C8004101C7FF4101724B
:10330800FE4101C4004101CA0041017C0041017F26
:10331800004101BF004101C5FF41017B004101C9D6
:0133280000A4
:044672007FF47E0152
:10467600EF4E6010C20C300CFDC20CEF1F70011E15
:05468600144E70F22249
:10471000EF75F003A42483F582E43401F583E0FE11
:04472000A3E0FF22F1
:1046E700EF75F003A42482F582E43401F583E0C377
:0546F70013547FFF22B7
:10472400EF75F003A42482F582E43401F583E054A8
:03473400FEF02272
:10475B00EF75F003A42482F582E43401F583E013B2
:01476B00222B
:1041BB0090017DE0FFA3E09001F5CFF0A3EFF0902D
:1041CB0001F5E0FEA3E0FFC390017EE09FFF9001AD
:1041DB007DE09EFE12477BD3EF947FEE648094804C
:1041EB00400F90017DE0FFA3E09001F5CFF0A3EF2E
:0941FB00F09001F5E0FEA3E0FFE5
:014204002297
:0834A0009001F0EEF0A3EFF043
:1034A800E4A3F0A3F0A3F01241BB9001F3EEF0A364
:1034B800EFF09001F0E0FEA3E0FFE4FCFD7B487A2A
:1034C800EEF9F8C3121362500A9001F074EEF0A3FB
:1034D8007448F09001F0E0FEA3E0FF9001F4E02FC3
:1034E800FF9001F3E03EFEE4FCFD7B487AEEF9F83C
:1034F800C3121362401F9001F0E0FEA3E0FF9001A9
:10350800F3E0FCA3E0FD2FFFEC3EFED3ED9FEC9E25
:1035180050030235C5E490017DF0A3F09001F2F06C
:103528009001F2E0FFC39414748094804003023544
:10353800BEEF75F003A42482F582E43401F583E03C
:103548005401640170679001F2E0FF75F003A42450
:1035580083F582E43401F583E0FCA3E0FD9001F3F8
:10356800E0FAA3E0FBD3ED9BEC9A402CEF75F00357
:10357800A42483F582E43401F583C083C082C3A305
:10358800E09BFF0582D5820215831582E09AD082DE
:10359800D083F0A3EFF080159001F2E075F003A45A
:1035A8002483F582E43401F583E4F0A3F09001F27A
:1035B800E004F0023528E49001F3F0A3F09001F361
:0535C800E0FEA3E0FF9E
:0135CD0022DB
:10459700E4FFEFC39414748094805015EF75F00313
:1045A700A42482F582E43401F583E054FEF00F8001
:0145B700E122
:0145B80022E0
:0736E000F07D137F647E0002
:0B36E7009001ECEEF0A3EFF0A3EDF07B
:1036F200E4A3F0F09001EFE0FFC39414748094808F
:10370200502EEF75F003A42482F582E43401F58390
:10371200E0FF540164017010EFC313547FFF900166
:10372200EEE06F70030237C59001EFE004F080C451
:10373200E49001EFF09001EFE0FFC39414748094E1
:103742008040030237C5EF75F003A42482F582E4BA
:103752003401F583E0FF540170609001EFE0FE75E3
:10376200F003A42482F582E43401F583EF4401F0EE
:103772009001EEE0547F25E0FFEE75F003A4248271
:10378200F582E43401F583E054014FF09001ECE05E
:10379200FEA3E0FF1234A09001EDE02FFF9001ECB8
:1037A200E03EFE9001EFE075F003A42483F582E48D
:1037B2003401F583EEF0A3EFF0229001EFE004F084
:0337C20002373794
:0137C50022E1
:10429200E4FEEEC39414748094805034EE75F003FF
:1042A200A42482F582E43401F583E0FD5401640123
:1042B200701BEDC313547FB50713EE75F003A424EE
:1042C20082F582E43401F583E054FEF0220E80C2CE
:0142D20022C9
:0B37C6009001CDEEF0A3EFF0A3EDF0BA
:1037D100E4A3F0F09001D0E0FFC3941474809480CE
:1037E100502DEF75F003A42482F582E43401F583B2
:1037F100E0FF54016401700FEFC313547FFF900188
:10380100CFE0B5070280649001D0E004F080C5E408
:103811009001D0F09001D0E0FFC3941474809480A3
:1038210040030238A3EF75F003A42482F582E43447
:1038310001F583E0FF540170609001D0E0FE75F066
:1038410003A42482F582E43401F583EF4401F0906E
:1038510001CFE0547F25E0FFEE75F003A42482F54B
:1038610082E43401F583E054014FF09001CDE0FE94
:10387100A3E0FF1234A09001CEE02FFF9001CDE034
:103881003EFE9001D0E075F003A42483F582E43478
:1038910001F583EEF0A3EFF0229001D0E004F002F5
:0238A1003815D8
:0138A3002202
:1038A400EF14B40C00400302397D9038BC75F0036A
:1038B400A4C58325F0C583730238E00238E00238DA
:1038C400F40238F802390902392202393802397D02
:1038D40002395E02397302397D023976900171E052
:1038E400FF1242D3900171E0FD7F117E0002420578
:1038F4007F80800E90010DE0C4131354031350799C
:103904007F83022F3D900116E0FF1313543F1340B1
:10391400687811E654F04407F6EF4404F022E4908A
:103924000273F0A3F0900115F090011FF0A3F09042
:103934000125F022900116E0FF131313541F1350B6
:1039440014EF54F7F054FEF07F12122C9F7D077F82
:10395400B87E0B80177F13022C9F900116E0444021
:10396400F07F82122F3D7D097F987E3A0236E7026E
:0A39740045B9D2B77F09123A2B22A1
:103C8600E49001CCF0A3F0A3F0A3F09001CCF09067
:103C960001CCE0C394147480948050681241BB90A8
:103CA60001CEEEF0A3EFF09001CCE0FF12475B509F
:103CB6004B9001CCE0FF124710D39001CFE09F90CC
:103CC60001CEE09E40369001CCE0FF1247249001E1
:103CD600CCE0FF1246E79001CDEFF0C3940E74805E
:103CE60094805007E0FF1238A480119001CDE0FFC8
:103CF600C3942D7480948050031200669001CCE02A
:043D060004F0808BBA
:013D0A002296
:10006600EF24F1B41E004003020C0E90007F75F0E1
:1000760003A4C58325F0C583730201610203A102AF
:100086000C0E0206E702066B0201D50208F2020B0D
:1000960041020A710206D40208D50200E50200D91F
:1000A6000200DD0200E10200EA0200F6020100029F
:1000B600010A02011402011E020128020B8A020B28
:1000C600A6020B98020BB4020BC2020BD10201BCB2
:1000D6000201CD7F1B800A7F1C80067F1D80027F68
:1000E6001A023F037F1E123F037D1E7FFA0206C6D9
:1000F6007F1E123F037D1F0208CE7F20123F037D25
:10010600200208CE7F21123F037D210208CE7F22E6
:10011600123F037D220208CE7F23123F037D230276
:1001260008CE7F1B123F037F1D123F031246727FCC
:100136001B123F031246727F1D123F031246727F47
:100146001B123F031246727F1D123F031246727F37
:100156001B123F037FF47E010246761246BBEF6414
:1001660001702490010DE0C4131354031340427F21
:100176001612475B50081242927D161236E37F151F
:1001860012475B502C802290010DE0C413135403D8
:1001960013501E7F1612475B50081242927D1612AC
:1001A60036E37F1512475B50081242927D151236D0
:1001B600E37D0F0208CE900116E01350057F8112F1
:1001C6002F3D7D2B0208CE900116E054DFF022125F
:1001D6004799900180EEF0A3EFF01247929001C08C
:1001E600EEF0A3EFF0900180E0FEA3E0FFD394963B
:1001F600EE940250099001C77415F00202A6D3EFDF
:100206009496EE94024012D3EF94B0EE9402500905
:100216009001C77404F00202A6D3EF94B0EE9402E4
:100226004011D3EF9403EE940350089001C7740372
:10023600F0806DD3EF9403EE94004011D3EF942B2E
:10024600EE940350089001C77402F08053D3EF94E4
:100256002BEE94034011D3EF945CEE940350089078
:1002660001C77401F08039D3EF945CEE940340101B
:10027600D3EF9475EE94035007E49001C7F0802005
:10028600D3EF9475EE94034011D3EF94C0EE94032C
:1002960050089001C77416F080069001C77417F0D5
:1002A6009001C7E0541FFF90010DE054E04FF0901D
:1002B6000180E0FFA3E0900111CFF0A3EFF09001E1
:1002C600C0E0FEA3E0FFD394C6EE94005010EF9476
:1002D60014EE940040089001C57406F08074D3EFC4
:1002E60094C6EE94004011D3EF94EEEE94005008BD
:1002F6009001C57419F0805AD3EF94EEEE94004045
:100306000BD3EF9415EE940350028040D3EF94156F
:10031600EE94034011D3EF9464EE940350089001D9
:10032600C5741AF0802CD3EF9464EE94034011D375
:10033600EF94A0EE940350089001C57408F0801263
:1003460090010DE04420F054E04409F09001C5749A
:1003560007F0900110E0541F640970069001C574FF
:1003660007F09001C5E0541FFF90010EE054E04FE6
:10037600F0A280E433900175F0E0FF9001C2E06FD7
:100386006002EFF0A281E433900177F0E0FF900184
:10039600C3E06F7003020C0EEFF022124799900132
:1003A60080EEF0A3EFF0900111EEF0A3EFF0C3940E
:1003B60032EE9400501990010DE0FFC4131354035C
:1003C60013500CEF4420F054E04409F00206669006
:1003D600010DE054DFF0900180E0FEA3E0FFD3942E
:1003E60096EE9402501BE4900174F0900176F09022
:1003F6000178F0A3F0A3F09001CBE004F0E402044E
:10040600C4D3EF9496EE9402402FD3EF94A3EE94C8
:10041600025026E4900174F0900176F0900178F095
:10042600A3F0A3F09001CBF09001C6F0900173F019
:100436009001C8E004F002058CD3EF94A3EE940279
:100446004022D3EF94B0EE94025019900174E00468
:10045600F0E4900176F0900178F0A3F0A3F090011B
:10046600CBF0805AD3EF94B0EE94024027D3EF94AA
:1004760003EE9403501EE4900174F0900176E004BC
:10048600F0E4900178F0A3F0A3F09001CBF0900196
:10049600C6020565D3EF9403EE9400402BD3EF9488
:1004A6002BEE94035022E4900174F0900176F090C4
:1004B6000178E004F0E4A3F0A3F09001CBF0900102
:1004C600C6F0900173020565D3EF942BEE940340BA
:1004D6002AD3EF945CEE94035021E4900174F090DB
:1004E6000176F0900178F0A3E004F0E4A3F0900127
:1004F600CBF09001C6F09001738064D3EF945CEE6C
:100506009403402AD3EF9475EE94035021E49001AE
:1005160074F0900176F0900178F0A3F0A3E004F077
:10052600E49001CBF09001C6F09001738031D3EFD7
:100536009475EE9403402BD3EF94C0EE94035022AF
:10054600E4900174F0900176F0900178F0A3F0A3A6
:10055600F09001CBF09001C6E004F0E4900173F056
:100566008020E4900174F0900176F0900178F0A379
:10057600F0A3F09001CBF09001C6F0900173E00477
:10058600F0E49001C8F0900174E06414700B9001DF
:10059600C77404F0E4900174F0900176E06414707E
:1005A6000B9001C77403F0E4900176F0900178E0B7
:1005B6006414700B9001C77402F0E4900178F09017
:1005C6000179E06414700A9001C704F0E49001799F
:1005D600F090017AE0641470089001C7F090017AF7
:1005E600F09001CBE06414700B9001C77415F0E431
:1005F6009001CBF09001C6E064147009A37416F064
:10060600E49001C6F09001C8E0641470099001C737
:100616007418F0E4A3F09001C6E064147009A374A2
:1006260016F0E49001C6F0900173E06414700B902C
:1006360001C77417F0E4900173F09001C7E0FF90D2
:100646000172E06F600BEFF0900110E054E044148B
:10065600F09001C7E0541FFF90010DE054E04FF009
:100666007D100208CE900116E0FF1313543F13507D
:10067600117811E654F04402F6EF54FBF07F840241
:100686002F3D900106E064017002804D900116E056
:10069600C413540713402E90010EE0C413540713DD
:1006A600500C90010DE0C41313540313400E900137
:1006B600067401F0FD7F107E000242057D247F0A4C
:1006C6007E00020C0B7D137FB87E0B020C0B900193
:1006D60006E064016003020C0E7D097F64FE020CD5
:1006E6000B1247929001C0EEF0A3EFF0D394C6EE42
:1006F60094005022E094149001C0E094004017E466
:100706009001C4F09001CAF090017CF090017FE066
:1007160004F0E40207C49001C0E0FEA3E0FFD39416
:10072600C6EE94004023D3EF94EEEE9400501AE404
:100736009001C4F09001CAF090017CF090017FF026
:100746009001BFE004F00207DCD3EF94EEEE9400D4
:10075600401ED3EF9415EE940350159001C4E004A7
:10076600F0E49001CAF090017CF090017FF0804E99
:10077600D3EF9415EE9403401FD3EF9464EE9403E5
:100786005016E49001C4F09001CAF090017CE00498
:10079600F0E490017FF08026D3EF9464EE9403405A
:1007A60023D3EF94A0EE9403501AE49001C4F09082
:1007B60001CAE004F0E490017CF090017FF0900122
:1007C600BFF0801290010DE04420F054E04409F09F
:1007D6009001C57407F090017FE0641470159001D4
:1007E600C57406F0E490017FF090010FE04402F03A
:1007F60054FBF09001BFE0641470159001C57419A4
:10080600F0E49001BFF090010FE04402F054FBF0D9
:100816009001C4E064147013A37407F0E49001C45B
:10082600F090010FE054FBF054FDF090017CE06481
:100836001470159001C5741AF0E490017CF09001D3
:100846000FE04404F054FDF09001CAE06414701502
:100856009001C57408F0E49001CAF090010FE044DD
:1008660004F054FDF09001C5E0541FFF90010EE026
:1008760054E04FF09001C0E0FEA3E0FFD39402EEF7
:1008860094014009D3EF94C2EE940240089001C946
:10089600E004F0800CE49001C9F090010FE054F7F9
:1008A600F09001C9E06414701DF090010DE0FFC4E2
:1008B6001313540313500FEFC41354071340079038
:1008C600010FE04408F07D127FE87E03020C0B90D6
:1008D6000116E0FFC313135003020C0EEF4408F099
:1008E6004410F07D077FE87E03020C0B1246BBEF37
:1008F60064016003020A4690010DE0FFC41313541D
:100906000313402EEF4440F0C2EAC2A6A280E433AD
:10091600900175F0E0FF9001C2E06F6002EFF0A277
:1009260081E433900177F0E0FF9001C3E06F60024D
:10093600EFF090010DE0C41354071350057D290212
:100946000A377811E6C4540F6402704490010EE031
:10095600FF541F6407702CEFC41313540313402372
:10096600A3E0FF13401DEF131313541F13401490FD
:10097600010EE0C41354071340047D2680027D2532
:10098600020A37900110E0541F6409704F020A2EC4
:100996007811E6C4540F6407704490010EE0FF54CA
:1009A6001F6407702BEFC413135403134022A3E0F4
:1009B600FF13401CEF131313541F13401390010E23
:1009C600E0C41354071340047D2680027D25806110
:1009D600900110E0541F64097002804C8051781118
:1009E600E6C4540F6401705090010EE0FF541F647A
:1009F60007702BEFC413135403134022A3E0FF1315
:100A0600401CEF131313541F13401390010EE0C440
:100A16001354071340047D2780027D25801390011F
:100A260010E0541F640970077D297F64FE80067DEF
:100A3600287F647E001236E77D157F887E13802529
:100A460090010DE054BFF0C2EA4480F0A3E054BF29
:100A5600F07F82122F3D7D287FF47E011236E77DDE
:100A6600167FF47E011236E7020B85A280E43390EE
:100A76000175F0A281E433900177F0900175E0FFF3
:100A86009001C2E06F600BEFF0900110E054E0447B
:100A960014F0900177E0FF9001C3E06F600BEFF078
:100AA600900110E054E04414F090010FE0FF134071
:100AB60017900112E094FF900111E094034009EFB2
:100AC600440190010F1236E090010DE0541F24FC02
:100AD6005040603C24EF601A24FD60160470539069
:100AE600010EE0FFC413135403134046EF4440F0D5
:100AF600804090010EE0FFC413540713402D90016F
:100B060016E0134026EF442090010E1236E0801BBB
:100B1600801990010EE0FFC413540713500DEF54D3
:100B2600DFF0900110E054E04414F090010EE05420
:100B3600BFF07D177F887E13020C0B1246BBEF6455
:100B4600017027900137E06401700E900106E07095
:100B5600087D137F64FE1236E7900110E054E044EE
:100B660014F07D157F647E00801220A604C2A6C202
:100B7600EA7D281236E37D167F887E131236E7C299
:100B8600EAC2A622900110E0541F640E607A7F0E1E
:100B96008036900110E0541F640D606C7F0D802834
:100BA600900110E0541F640F605E7F0F801A900161
:100BB60010E0541F641060507F10800C900110E00C
:100BC600541F640960427F09022C9F900265E0244D
:100BD6000AF0E0643C7007F090026CE004F09002CA
:100BE6006CE0643C7007F0900271E004F0900271D2
:100BF600E064187007F0900270E004F01222107D95
:090C06002A7F107E271236E72236
:100C0F00020F57E86480F8E933E83360110460F0AD
:100C1F00ED33EC337009E8FCE9FDEAFEEBFF22044B
:100C2F0060DED3EB9FEA9EE99DE8C2E78CF0C2F746
:100C3F0095F0400CE8CCF8E9CDF9EACEFAEBCFFB12
:100C4F00120F2285D0F05804700320D5B3E804703A
:100C5F00075002B2D5020F6192D5EC0460F7E4CCD5
:100C6F00C0E0C398F8603B94186008400DD0E0FBDB
:100C7F00020F39E4FBFAC9FC8028E830E406E4C926
:100C8F00FBE4CAFCE830E305E4C9CACBFCE854072F
:100C9F006010F8C3E913F9EA13FAEB13FBEC13FC3A
:100CAF00D8F130F52FC3E49CFCEF9BFFEE9AFEEDDD
:100CBF0099FDD0E0FBEF4E4D4C701222DB03020F7B
:100CCF005EEC2CFCEF33FFEE33FEED33FDED30E742
:100CDF00EB020F39EF2BFFEE3AFEED39FDD0E0FBC3
:100CEF0050130BBB0003020F61ED13FDEE13FEEF6C
:080CFF0013FFEC13FC020F3996
:100D0700EC4D6011E8497017ED33EC3304600DE4E6
:100D1700FCFFFEFD22E933E8330470F8020F571297
:100D27000F2258046009E4CC248150062850090298
:100D37000F61284003020F5EC0E0EB4A7044B980A0
:100D470006D0E0FB020F4DEF4E701CBD8008EBFF95
:100D5700EAFEE9FD80EBE98DF0A4FEE5F0020DF077
:100D6700E9CDF9EAFEEBFFEF89F0A4FCE5F0CE89C7
:100D7700F0A42EFFE435F0CD89F0A42DFEE435F084
:100D87008067EF4E7005BD80D780C3EF8BF0A4ACB2
:100D9700F0EE8BF0A42CFCE435F0F8EF8AF0A42CED
:100DA700E5F038FCE433CB8DF0A42CFCE5F03BF800
:100DB700EE8AF0A42CFCE5F038F8E433CF89F0A4F0
:100DC7002CFCE5F038CF3400CE89F0A42FFFE5F0F6
:100DD7003EFEE433C98DF0A42EFEE5F039CD8AF04E
:100DE700A42FFFE5F03EFEE43DFD33D0E0FB5007C6
:100DF7000BBB000F020F61EC2CFCEF33FFEE33FE51
:060E0700ED33FD020F397E
:100E0D00020F61EC5D046005E859047003020F5791
:100E1D00120F22580460F6EC4860F2EC7004FDFEEF
:100E2D00FF22C860DB2481C85009C39860025006B8
:100E3D00020F5E9850CAF582E9294B4A7005AB82C4
:100E4D00020F4D75F0007C1A7880C3EF9BEE9AED82
:100E5D0099400DC3EF9BFFEE9AFEED99FDE842F030
:100E6D00DC23ACF0D0E0FFD0E0FED0E0FDAB822083
:100E7D00E7101BEB60BAEC2CFCEF33FFEE33FEED0D
:100E8D0033FD020F39E803F830E705C0F075F000C7
:100E9D00EF2FFFEE33FEED33FD40B830E7C280AAF1
:100EAD0075F020800E75F010800575F0087D007EC0
:100EBD00007F003392D530D503121354EC3340101C
:100ECD00EF33FFEE33FEED33FDEC33FCD5F0ED22C9
:0E0EDD00E5F0247EA2D513CC92E7CDCEFF2205
:100EEB00EDD2E7CD33EC3392D524814006E4FFFEFF
:100EFB00FDFC22FCE4CFCECDCC24E0501174FF805E
:100F0B00EDC3CC13CCCD13CDCE13CECF13CF0470FA
:070F1B00F030D5DE02135493
:100F2200E9D2E7C933E833F892D5EDD2E7CD33EC15
:070F320033FC5002B2D5228E
:100F3900EC30E7100FBF000C0EBE00080DBD000419
:100F49000BEB6014A2D5EB13FCED92E7FD2274FFC5
:100F5900FCFDFEFF22E480F8A2D574FF13FC7D801E
:030F6900E480EF32
:103C0600023F7CE493A3F8E493A34003F68001F219
:103C160008DFF48029E493A3F85407240CC8C333BF
:103C2600C4540F4420C8834004F456800146F6DF8E
:103C3600E4800B0102040810204080903176E47E77
:103C4600019360BCA3FF543F30E509541FFEE49383
:103C5600A360010ECF54C025E060A840B8E493A34A
:103C6600FAE493A3F8E493A3C8C582C8CAC583CA75
:103C7600F0A3C8C582C8CAC583CADFE9DEE780BE2D
:0133290000A3
:100F6C00E709F608DFFA8046E709F208DFFA803E67
:100F7C0088828C83E709F0A3DFFA8032E309F60854
:100F8C00DFFA8078E309F208DFFA807088828C83BC
:100F9C00E309F0A3DFFA806489828A83E0A3F60870
:100FAC00DFFA805889828A83E0A3F208DFFA804C4A
:100FBC0080D280FA80C680D4806980F28033801021
:100FCC0080A680EA809A80A880DA80E280CA80338A
:100FDC0089828A83ECFAE493A3C8C582C8CCC58302
:100FEC00CCF0A3C8C582C8CCC583CCDFE9DEE780D2
:100FFC000D89828A83E493A3F608DFF9ECFAA9F051
:10100C00EDFB2289828A83ECFAE0A3C8C582C8CCA6
:10101C00C583CCF0A3C8C582C8CCC583CCDFEADEBF
:10102C00E880DB89828A83E493A3F208DFF980CC21
:10103C0088F0EF60010E4E60C388F0ED2402B4041A
:10104C000050B9F582EB2402B4040050AF232345C1
:06105C008223900FBC731B
:10106200BB010689828A83E0225002E722BBFE028C
:09107200E32289828A83E49322BF
:10107B00BB010CE58229F582E5833AF583E022502A
:10108B0006E92582F8E622BBFE06E92582F8E22274
:0D109B00E58229F582E5833AF583E493228E
:1010A800BB010989828A83F8E028F022500327F7D8
:1010B80022BBFE05F8E328F3228A838982F8E493A9
:0210C8002822DC
:1010CA00F8BB010DE58229F582E5833AF583E8F05C
:1010DA00225006E92582C8F622BBFE05E92582C808
:0210EA00F222F0
:1010EC00EF8DF0A4A8F0CF8CF0A428CE8DF0A42E18
:0210FC00FE22D2
:1010FE00BC000BBE0029EF8DF084FFADF022E4CCD6
:10110E00F875F008EF2FFFEE33FEEC33FCEE9DEC9E
:10111E00984005FCEE9DFE0FD5F0E9E4CEFD22EDE4
:10112E00F8F5F0EE8420D21CFEADF075F008EF2F2E
:10113E00FFED33FD4007985006D5F0F222C398FD1F
:05114E000FD5F0EA22BC
:10115300C2D5EC30E709B2D5E4C39DFDE49CFCEEB7
:1011630030E715B2D5E4C39FFFE49EFE1210FEC321
:10117300E49DFDE49CFC80031210FE30D507C3E41C
:061183009FFFE49EFE2226
:10118900C5F0F8A3E028F0C5F0F8E58215827002F1
:061199001583E038F0228E
:10119F00A3F8E0C5F025F0F0E58215827002158303
:0611AF00E0C838F0E82260
:1011B500BB010A89828A83E0F5F0A3E02250068705
:1011C500F009E71922BBFE07E3F5F009E3192289C7
:0B11D500828A83E493F5F074019322FA
:1011E000BB0110E58229F582E5833AF583E0F5F04D
:1011F000A3E0225009E92582F886F008E622BBFE2A
:101200000AE92582F8E2F5F008E222E5832AF5836F
:08121000E993F5F0A3E9932234
:10121800BB010A89828A83F0E5F0A3F0225006F721
:0F12280009A7F01922BBFE06F3E5F009F319221E
:10123700E88FF0A4CC8BF0A42CFCE98EF0A42CFC56
:101247008AF0EDA42CFCEA8EF0A4CDA8F08BF0A4D4
:101257002DCC3825F0FDE98FF0A42CCD35F0FCEB33
:101267008EF0A4FEA9F0EB8FF0A4CFC5F02ECD39F8
:0F127700FEE43CFCEAA42DCE35F0FDE43CFC2265
:1012860075F008758200EF2FFFEE33FECD33CDCC1F
:1012960033CCC58233C5829BED9AEC99E5829840A2
:1012A6000CF582EE9BFEED9AFDEC99FC0FD5F0D67F
:1012B600E4CEFBE4CDFAE4CCF9A88222B800C1B9A9
:1012C6000059BA002DEC8BF084CFCECDFCE5F0CBE7
:1012D600F97818EF2FFFEE33FEED33FDEC33FCEB20
:1012E60033FB10D703994004EB99FB0FD8E5E4F9DB
:1012F600FA227818EF2FFFEE33FEED33FDEC33FCC8
:10130600C933C910D7059BE99A4007EC9BFCE99ABB
:10131600F90FD8E0E4C9FAE4CCFB2275F010EF2F00
:10132600FFEE33FEED33FDCC33CCC833C810D70700
:101336009BEC9AE899400AED9BFDEC9AFCE899F83B
:0E1346000FD5F0DAE4CDFBE4CCFAE4C8F922CE
:0E135400C3E49FFFE49EFEE49DFDE49CFC22AA
:10136200EB9FF5F0EA9E42F0E99D42F0EC6480C802
:0613720064809845F022A2
:10137800EB9FF5F0EA9E42F0E99D42F0E89C45F0CB
:011388002242
:10138900E86010ECA2E713FCED13FDEE13FEEF137A
:04139900FFD8F02267
:10139D00BB010789828A8302144C5005E9F80214B7
:1013AD0040BBFE05E9F802145889828A8302146451
:0C13BD00ECF0A3EDF0A3EEF0A3EFF022A3
:1013C900A8828583F0D083D0821213E01213E01231
:1013D90013E01213E0E473E493A3C583C5F0C58356
:1013E900C8C582C8F0A3C583C5F0C583C8C582C86E
:0113F90022D1
:1013FA00BB010789828A8302147D5005E9F8021429
:10140A0074BBFE05E9F802148689828A8302148F66
:10141A00D083D082F8E4937012740193700DA3A361
:10142A0093F8740193F5828883E473740293686075
:06143A00EFA3A3A380DF75
:0C477B00EE30E707C3E49FFFE49EFE223F
:0C144000E6FC08E6FD08E6FE08E6FF22D8
:0C144C00E0FCA3E0FDA3E0FEA3E0FF2213
:0C145800E2FC08E2FD08E2FE08E2FF22D0
:10146400E493FC740193FD740293FE740393FF22CE
:09147400E6FB08E6FA08E6F9229D
:09147D00E0FBA3E0FAA3E0F92270
:09148600E2FB08E2FA08E2F92297
:0C148F00E493FB740193FA740293F922B9
:00000001FF
