:030000000254C4E3
:0C54C400787FE4F6D8FD75817902550B65
:103083000D0A507265762E46573A25303278253030
:10309300327825303278000D0A437572722E465706
:1030A3003A253032782530327825303278000D0ACF
:1030B30043616E6E6F74206163636573732045456E
:1030C30050524F4D21212121000D0A4E6F20696E70
:1030D300697469616C697A6500285345545F4D438F
:1030E300555F504F5745525F444F574E5F4D4F44C6
:1030F300452920000D0A285345545F50574D3D255F
:103103003032782076616C3D253032782900282AC8
:103113004456524368616E676543757272656E7497
:103123003D3330306D412900282A445652436861AB
:103133006E676543757272656E743D313030306D04
:103143004129000D0A3D3D3D3D3D3D3D3D3D3D3D5C
:103153003D3D3D3D3D3D3D3D3D3D3D3D3D3D3D3D9C
:103163003D3D3D3D3D3D3D000D0A53797374656D15
:1031730020686173206265656E20776F726B696E7C
:103183006720666F7220256420646179732C202583
:103193006420686F7572732C202564206D696E75C9
:1031A30074657320616E64202564207365636F6E9C
:1031B3006473000D0A53797374656D20686173201D
:1031C3006265656E20776F726B696E6720666F72DA
:1031D30020256420686F7572732C202564206D6927
:1031E3006E7574657320616E642025642073656356
:1031F3006F6E6473000D0A53797374656D20686193
:1032030073206265656E20776F726B696E672066E7
:103213006F72202564206D696E7574657320616E0D
:1032230064202564207365636F6E6473000D0A5315
:10323300797374656D20686173206265656E2077AC
:103243006F726B696E6720666F72202564207365E9
:10325300636F6E6473000D0A28426174746572793A
:103263004254483D25642825642E256456292900A7
:103273002854454D505F4849474829002848494745
:10328300485F544D45505F5741524E2900285445DD
:103293004D505F4C4F572900284C4F575F544D45B5
:1032A300505F5741524E29002854454D505F4E4FB1
:1032B300524D414C29000D0A28426174746572799C
:1032C3004341503D25642825642E25303464562916
:1032D3002928256456290028484947485F4348411F
:1032E3005247452900284C4F575F434841524745B1
:1032F3002900284E4F524D414C5F434841524745A8
:1033030029002853544F505F4348415247452900F1
:10331300284348415247455F4E4F5F424154542929
:1033230000285F424154545F5354415455535F4303
:10333300415041434954595F4C4556454C3029004F
:10334300285F424154545F5354415455535F4341A2
:103353005041434954595F4C4556454C3129002847
:103363005F424154545F5354415455535F4341505A
:1033730041434954595F4C4556454C322900285F17
:10338300424154545F5354415455535F4341504158
:10339300434954595F4C4556454C332900285F42F5
:1033A3004154545F5354415455535F434150414337
:1033B3004954595F4C4556454C342900285F4241D6
:1033C30054545F5354415455535F4341504143490F
:1033D30054595F4D494E2900285F424154545F536D
:1033E30054415455535F43415041434954595F4DF0
:1033F30041582900285F424154545F535441545566
:10340300535F43415041434954595F4D41585F53C2
:10341300544F50290028424154544552595F434167
:103423005041434954595F4E4F5F53544152545591
:10343300502900285F424154545F5354415455531B
:103443005F4E4F5F4241545429002843484152473D
:10345300455F544D45505F41424E4F524D414C29BB
:10346300000D0A285F504F5745525F53544154553E
:10347300535F534156494E4729000D0A285F504F69
:103483005745525F5354415455535F4F46462900A5
:103493000D0A285F504F5745525F535441545553BB
:1034A3005F4E4F524D414C29000D0A28504F57454E
:0D34B300525F5354415455533D2564290088
:1046100041029E0041029F0041028D004102910033
:104620004102920041028B00410283004102A0003E
:104630004102880002400000014600C101C1800221
:1046400047000001440001450002740000046900B5
:10465000000000046D00000000C10441028401015B
:104660007200014200014300C102C10341028E00F9
:10467000410285004102930044029A00000000417B
:104680000298004102990044029400000000420296
:034690008F000098
:104E8100125A089001F912167A7F047E00125EA16F
:104E91007E00C007C0067F05125EA17E00C007C06C
:104EA100067F06125EA1900207E4F0A3EFF09002E4
:104EB10005D0E0F0A3D0E0F0900203D0E0F0A3D061
:104EC100E0F07BFF7A307983125C33125A08E47B7D
:104ED10038FAF9F8C312160F605F7BFF7A30799ABE
:104EE100E4900203F0A3F0A3F0A3F0A3F0A37438BD
:104EF100F0125C33125FBB7F047E00125EA17E0064
:104F0100C007C0067F05125EA17E00C007C0067FF4
:104F110006125EA1900207E4F0A3EFF0900205D023
:104F2100E0F0A3D0E0F0900203D0E0F0A3D0E0F0F5
:104F31007BFF7A30799A125C33125A08E47B38FA93
:104F4100F9F8C312160F700B125A9CEF701E125211
:104F51001C80197BFF7A3079B1125C337BFF7A3088
:104F610079CC125C3390015574FFF0227F64125F9B
:0E4F7100ED7811E6540F4410F654F04402F6A9
:014F7F00220F
:10591700758DF4759850758922758855758A407507
:105927008C4075878075B80275A892D299D2ACE47D
:10593700F5C8C2CAD2AD75AA5075BAF443A61843C2
:10594700AD10C203F5E9F5F975D90443D84043937F
:10595700A04391C475964075B10CF5B275B30CF5BB
:02596700B42268
:105DBE007BFF7A3079DC125C33D2C2C2C1D2C0D240
:105DCE00C6C2C5D2C4900288E5A8F075A88090011D
:0F5DDE00207401F0D2E8D2E9758782000000221C
:105F840020850320EA137F327E00125FD820850328
:0C5F940020EA037F01227F00227F002210
:10539C009001FEEFF0A3EDF07BFF7A3079F79002ED
:1053AC0003E4F0A3EFF0EDFFA3E4F0A3EFF0125C45
:1053BC00339001FEE0606D24EB6053241660612491
:1053CC00EB706475EC809001FFE0FFC374FF9FF5F8
:1053DC00FC75DC42EF7004F5DCC294900118E064BB
:1053EC0010701175EC8075FC6675DC427BFF7A31B0
:1053FC0079118017900118E06411702B75EC807591
:10540C00FCFF75DC427BFF7A31792B025C3375ED46
:10541C00809001FFE0FFC374FF9FF5FD75DD422214
:08542C0043D8402253D840226E
:03000B000227DBEE
:0D27DB00C0E0C0F0C083C082C0D075D0083F
:1027E80005730545C3E545940A74809480401390A9
:1027F80001A9E004F070069001A8E004F075450016
:10280800D20C90028CE0600214F090028CE060031D
:10281800022B00E5B0540C13135403FF90029DE003
:102828006F7003022B0090029BE090029AF09002D6
:102838009CE090029BF090029DE090029CF0A3EF38
:10284800F0D20590011FE0640190028C7005740CB1
:10285800F080037430F090029AE07045A3E06401C0
:10286800703FA3E064037039A3E064027033900200
:1028780094E0FCA3E0FDA3E0FEA3E0FFE4FAF9F88E
:10288800EF2401FFEA3EFEE93DFDE83CFC9002949E
:1028980012167A900290E004F0700690028FE0041D
:1028A800F090029AE064017043A3E06403703DA3D2
:1028B800E064027037A3E07033900294E0FCA3E078
:1028C800FDA3E0FEA3E0FFE4FAF9F8EF2401FFEA34
:1028D8003EFEE93DFDE83CFC90029412167A900217
:1028E80090E004F0700690028FE004F090029AE005
:1028F80064037043A3E06402703DA3E07039A3E071
:1029080064017033900294E0FCA3E0FDA3E0FEA311
:10291800E0FFE4FAF9F8EF2401FFEA3EFEE93DFDA5
:10292800E83CFC90029412167A900290E004F07051
:102938000690028FE004F090029AE064027043A3CC
:10294800E0703FA3E064017039A3E0640370339042
:102958000294E0FCA3E0FDA3E0FEA3E0FFE4FAF9A3
:10296800F8EF2401FFEA3EFEE93DFDE83CFC900259
:102978009412167A900290E004F0700690028FE0AC
:1029880004F090029AE07044A3E06402703EA3E071
:1029980064037038A3E064017032900294E0FCA3F1
:1029A800E0FDA3E0FEA3E0FFEF24FFFFEE34FFFE0F
:1029B800ED34FFFDEC34FFFC90029412167A90027D
:1029C80090E004F0700690028FE004F090029AE024
:1029D80064027042A3E06403703CA3E064017036B3
:1029E800A3E07032900294E0FCA3E0FDA3E0FEA314
:1029F800E0FFEF24FFFFEE34FFFEED34FFFDEC3483
:102A0800FFFC90029412167A900290E004F070068F
:102A180090028FE004F090029AE064037042A3E011
:102A28006401703CA3E07038A3E064027032900245
:102A380094E0FCA3E0FDA3E0FEA3E0FFEF24FFFF8A
:102A4800EE34FFFEED34FFFDEC34FFFC90029412EF
:102A5800167A900290E004F0700690028FE004F07D
:102A680090029AE064017042A3E0703EA3E0640221
:102A78007038A3E064037032900294E0FCA3E0FD98
:102A8800A3E0FEA3E0FFEF24FFFFEE34FFFEED34EA
:102A9800FFFDEC34FFFC90029412167A900290E04D
:102AA80004F0700690028FE004F090011FE06401CA
:102AB8007011C3900290E0949090028FE0940140CE
:102AC80037800FC3900290E0943C90028FE094000E
:102AD8004026900106E0FCA3E0FDA3E0FEA3E0246D
:102AE80001FFE43EFEE43DFDE43CFC9001061216C5
:102AF8007A90028FE4F0A3F0D3E573946074809425
:102B0800805003022C2C054AE54A7002054975736A
:102B1800000544E54464647010F544E54690028E6F
:102B28006005E004F08002E4F0E575F47003E574F4
:102B3800F460080575E57570020574AF70AE6FAD89
:102B48006EAC6DEC4D4E4F6014EF24FFF570EE3413
:102B5800FFF56FED34FFF56EEC34FFF56D900286EE
:102B6800E07002A3E0600E900287E024FFF090027C
:102B780086E034FFF0E5E8F4FF131313541F30E048
:102B880079E54164324540701A90010AE0600B789B
:102B980011E6FFC4540F64077056754601C200D28F
:102BA80001804DE541642C7004E54064017021907A
:102BB8000298E06401701990010AE0640170113014
:102BC800002E754601D20190029904F0C2008020BF
:102BD800E541B4201BE540B4031630000D754601ED
:102BE800D2019002A07401F0C20075400075413313
:102BF8000541E541702E0540802AC3E5419432E540
:102C0800409400401290010AE06401700A30000705
:102C1800754601D2018005754600C201D200754093
:042C280000754100F2
:0B2C2C00D0D0D082D083D0F0D0E032B6
:1034C0007BFF7A3179467F01125B2A900291E0FFFF
:1034D00060327BFF7A31796B900203E4F0A3EFF066
:1034E000900292E0FF900205E4F0A3EFF090028BCF
:1034F000E0FF900207E4F0A3EFF0900283E0FF907A
:1035000002098057900292E0FF60257BFF7A3179B3
:10351000B6900203E4F0A3EFF090028BE0FF90027C
:1035200005E4F0A3EFF0900283E0FF900207802B08
:1035300090028BE0FF7BFF60167A3179F8900203EE
:10354000E4F0A3EFF0900283E0FF900205800C7A94
:10355000327930900283E0FF900203E4F0A3EFF0B1
:103560007F03125B2A9001ECE0FEA3E0FF900203D0
:10357000EEF0A3EFF07805C333CE33CED8F9FBAA33
:10358000067C277D10FF121395900205EEF0A3EF45
:10359000F07C277D10AF03AE02121395A3ECF0A3CD
:1035A000EDF07BFF7A3279597F02125B2A9001138A
:1035B000E0541F6406700A7BFF7A3279737F0180C2
:1035C00042900114E0C31313500A7BFF7A32797FD3
:1035D0007F03802F900113E0541F6408700A7BFF63
:1035E0007A3279907F04801B900114E01313543FCA
:1035F000137BFF50087A32799B7F0380067A3279F9
:10360000AB7F02125B2A900115E0541F6409706FB2
:10361000A3E0FEA3E07805C333CE33CED8F9246A05
:10362000FFEE34FFFE7C277D101213957E007F6431
:10363000CFCDCFCECCCE121395AA06AB07900116F4
:10364000E0FEA3E07805C333CE33CED8F9246AFF79
:10365000EE34FFFE7C277D101213957C007D6412F2
:103660001383EF2BFFEE3AFE9001FDF0A3EFF07D08
:10367000371213837D641213959001FDEE807190D3
:103680000116E0FEA3E0FF7C007D3B1213837D6406
:10369000121395EF25E0FBEE33FA900116E0FEA33E
:1036A000E0FF7C007D3B1213837D64121395EF2BAA
:1036B000FFEE3AFE9001FDF0A3EFF07C037DE812EF
:1036C0001395EF4E9001FD6017E0FEA3E0FF7C0034
:1036D0007D0A121395EF2401FFE43E9001FD801056
:1036E000E0FEA3E0FF7C007D0A1213959001FDEE41
:1036F000F0A3EFF0900116E0FEA3E0FF900203EECE
:10370000F0A3EFF07C007D21121383AA06AB077CA7
:10371000277D10121395A3EEF0A3EFF07C277D1008
:10372000AF03AE02121395A3ECF0A3EDF09001FDF0
:10373000E0FFA3E0900209CFF0A3EFF07BFF7A3225
:1037400079B97F05125B2A900115E0541F640D7052
:103750000A7BFF7A3279DA7F02804E900115E054BD
:103760001F640E700A7BFF7A3279E87F03803A90FB
:103770000115E0541F640F700A7BFF7A3279F57FE0
:10378000058026900115E0541F6410700A7BFF7AB3
:103790003379057F018012900115E0541F64097090
:1037A0000B7BFF7A3379137F01125B2A900112E0C1
:1037B000541F640470087BFF7A337924804490019D
:1037C00012E0541F640370087BFF7A337943803220
:1037D000900112E0541F640270087BFF7A33796213
:1037E0008020900112E0541F640170087BFF7A333F
:1037F0007981800E900112E0541F700A7BFF7A33AA
:1038000079A07F028062900112E0541F6415700A53
:103810007BFF7A3379BF7F04804E900112E0541F02
:103820006416700A7BFF7A3379DB7F06803A900159
:1038300012E0541F6417700A7BFF7A3379F77F0513
:103840008026900112E0541F6418700A7BFF7A34BE
:1038500079187F058012900112E0541F6409700BE3
:103860007BFF7A3479367F01125B2A900114E013D2
:103870001313541F13500B7BFF7A34794D7F0112C1
:103880005B2A7811E6C4540F640770087BFF7A3412
:10389000796480377811E6C4540F640170087BFFA7
:1038A0007A34797D80257811E6C4540F64027BFF59
:1038B00070067A34799380137A3479AC7811E6C43F
:1038C000540FFF900203E4F0A3EFF07F06125B2A8F
:0B38D0007BFF7A3179467F01025B2A02
:10600500E4FFEFC3941D74809480500974222FF827
:05601500E4F60F80ED30
:01601A002263
:1057D400EF24E3B40A0050709057EA75F003A4C5AF
:1057E4008325F0C583730258140258080258120224
:1057F400580D02581602584C02581E0258280258D6
:1058040035025841D2E9D2E822D2E8C2E922800521
:10581400801530E817C2E8D2E92230E905C2E9D29E
:10582400E822800830E805C2E8C2E922D2E8D2E9D9
:105834002230E904C2E98002D2E9C2E82230E80455
:09584400C2E88002D2E8C2E922A8
:03001300020026C2
:03002600C2AA3239
:03002300025DED8E
:105DED00C0E0C0D075D008309819744B2571F8A655
:105DFD00990571C3E571941E74809480400375718B
:0F5E0D0000C298309904C299C202D0D0D0E032BE
:03006300025CAF8D
:105CAF00C0E0C0D075D008E5AA54016401701A5342
:105CBF00AAFE74222542F8A69A0542C3E542941E15
:105CCF00748094804003754200E5AA540264027008
:0B5CDF000553AAFDC203D0D0D0E03274
:0B60BB00E542B543037F00227F012275
:105F660053ADEF74222543F8E6FF0543E543C3949A
:0D5F76001E748094804003E4F54343AD1099
:015F830022FB
:080003002003FD8F9AD20322B5
:03002B000260A0D0
:0F60A000C0E0C2CF0548E54870020547D0E032A6
:105FED00E5442FFFE433FE7C007D64121395E544F8
:075FFD00B505FBE4B504F754
:016004002279
:03003300025F2841
:105F2800C0E0C083C082C2C2C2C1758780900288A7
:0F5F3800E0F5A8900120E4F0D082D083D0E032D1
:03003B00025F471A
:105F4700C0E0C083C082C2C6C2C575878090028880
:0F5F5700E0F5A8900120E4F0D082D083D0E032B2
:10606B000D0A436C656172426173696345452E2E5F
:02607B002E00F5
:105A08007E007D007C007F05125EA1EF7F00FEC056
:105A180007C0067F047E00125EA17E00EF7810C3E7
:105A280033CE33CED8F9FDD0E04EFED0E04DFFC0E6
:105A380007C0067F067E00125EA1EFFDD0E0FED013
:095A4800E04DFFEE3395E0FDFC9A
:015A51002232
:105A9C009001FD7401F0E4FFFE125EA1EF64306032
:105AAC00037F00227F017E00125EA1EF643760034A
:105ABC007F00227F027E00125EA1EF643060037FC4
:105ACC0000227F037E00125EA1EF644960037F0019
:065ADC00229001FDE0FF35
:015AE20022A1
:105FBB00E4FD7F04FE125AE3E4FD7F05FE125AE373
:095FCB007D387F067E00025AE3D6
:10521C007BFF7A60796B125C337D30E4FFFE125AAF
:10522C00E37D377F017E00125AE37D307F027E00E2
:10523C00125AE37D497F037E00125AE37D017F10F1
:10524C007E00125AE37D277F117E00125AE3E4FDA3
:10525C007F07FE125AE3E4FD7F12FE125AE3E4FDCF
:10526C007F13FE125AE37D017F147E00125AE37DF8
:10527C00017F157E00125AE3E4FD7F16FE125AE3FD
:10528C007D017F177E00125AE3E4FD7F18FE125A4F
:10529C00E37D017F197E00125AE3E4FD7F20FE12AC
:1052AC005AE37D017F217E00125AE3E4FD7F22FE4A
:1052BC00125AE3E4FD7F23FE125AE3E4FD7F24FE41
:1052CC00125AE3E4FD7F25FE125AE3E4FD7F26FE2D
:1052DC00125AE3E4FD7F27FE125AE3E4FD7F28FE19
:0352EC00025AE380
:0446930041010500DC
:091758001260BBEF7003021E0CCD
:10176100125F669001F9EFF07E00647E700DC20B8E
:1017710090010504F0E4900003F022EF647D4E70C7
:1017810003D20B22300B09C20B9001F9E04470F037
:10179100900105E0FB64046010900003E0FE9001FD
:1017A100F9E0FDEE6D900003F0EB24FE603B146068
:1017B1007214700302187224036003021E0C90015C
:1017C100F9E0900002F01424F8501424F924FD509B
:1017D1000E248C6011240224FB5004245A70419081
:1017E10001057402F022021E079001F9E090000148
:1017F100F0A3E01424F8501424F924FD500E248C95
:10180100601E240224FB5004245A7014900001E04D
:1018110070028053E4900000F09001057403F022FF
:10182100021E07900002E01424F8501424F924FD4C
:10183100500E248C6038240224FB5004245A702E4C
:101841009001F9E0FF900000E02405F582E4340006
:10185100F583EFF0900000E004F0A3E0FF900000BA
:10186100E06F6003021E0C9001057404F022021E59
:10187100079001F9E0FF900003E06F6003021E078B
:10188100900002E01216D718BC0118FF02191903C3
:10189100192204192B051A9C061AE2071C50081B71
:1018A1000D101B16111B85121C48301C79851C98C4
:1018B100861CA0881CAC8900001E0790011CE04416
:1018C10001F0900115E054E04414F090011CE0FF98
:1018D100131313541F13500EEF54F7F07F131243D9
:1018E100727F08125BB490011CE0C3131340097DA1
:1018F1001C7F107E27124F8675B230021E077F1C97
:10190100125BB490011CE0C313135003021E077D48
:101911001C7F107E27021CA67D067FE87E03021C29
:10192100A67D077F647E00021CA6900005E0FDC431
:10193100540F75F00AA4FFED540F7C002FFDEC3518
:10194100F0FC12114990016312167A900006E0FD35
:10195100C4540F75F00AA4FFED540F7C002FFDEC69
:1019610035F0FC12114990015112167A900007E0EE
:10197100FDC4540F75F00AA4FFED540F7C002FFD38
:10198100EC35F0FC12114990016712167A900008AB
:10199100E0FDC4540F75F00AA4FFED540F7C002F35
:1019A100FDEC35F0FC12114990015612167A9000A7
:1019B10009E0FDC4540F75F00AA4FFED540F7C003B
:1019C1002FFDEC35F0FC12114990016B12167A9043
:1019D100000AE0FDC4540F75F00AA4FFED540F7C1A
:1019E100002FFDEC35F0FC12114990015A12167AC4
:1019F10090000BE0FDC4540F75F00AA4FFED540FE5
:101A01007C002FFDEC35F0FC12114990016F12168C
:101A11007A90000CE0FDC4540F75F00AA4FFED5458
:101A21000F7C002FFDEC35F0FC12114990015E1284
:101A3100167A900005E0FD7F157E00125AE39000B2
:101A410006E0FD7F167E00125AE3900007E0FD7F5D
:101A5100177E00125AE3900008E0FD7F187E001205
:101A61005AE3900009E0FD7F197E00125AE39000CD
:101A71000AE0FD7F207E00125AE390000BE0FD7F1B
:101A8100217E00125AE390000CE0FD7F227E0012BD
:101A91005AE37D0C7FE87E03021CA6900005E0C39B
:101AA10094057480948050037405F0900005E0243F
:101AB100FB75F00AA4FFA3E02F90019CF0D39428BA
:101AC1007480948040057428F0800A90019CE0FFA6
:101AD100C374289FF07D037FF47E01125065021EBE
:101AE10007900005E0FD7C00700A90011CE054FDA8
:101AF100F0021E07ED64014C6003021E077F1C12F9
:101B01005BB490011CE04402F0021E077D047FE8F3
:101B11007E03021CA6900005E0703390011CE05486
:101B2100FEF07F1C125BB47F21125BB47F22125B3B
:101B3100B47F23125BB47F24125BB47F25125BB4A4
:101B41007F26125BB47D247F647E00021CA6900078
:101B510005E06401700890011CE0440880149000C5
:101B610005E064026003021E0790011CE04408F0D6
:101B71004410F07D087FE87E03124F867F1C125BC4
:101B8100B4021E07900005E0FD7C006401700E9018
:101B9100011CE054BFF0E4900298F0802F90010AFC
:101BA100E064017027ED4C702390011CE054BFF0FC
:101BB100E490010AF0FD7F10FE125AE390011CE04F
:101BC100FF1313543F135004EF54FBF090010AE04C
:101BD10064017046900005E06402703E900113E0DC
:101BE1004420F090011CE054BFF0E490010AF0FDA4
:101BF1007F10FE125AE37F137E00125EA1EF700880
:101C01007D017F13FE125AE390011CE0FF13135470
:101C11003F13501BEF54FBF0801590010AE0640163
:101C2100700D900005E06403700590029804F07F48
:101C31000A125BB4900298E064016003021E077D02
:101C41000A7F987E3A805E7D0B7FE87E0380569006
:101C51000005E0640170117D017F12FE125AE390CC
:101C610001627401F0021E07E4FD7F12FE125AE3C5
:101C7100E4900162F0021E07900005E0640190010A
:101C81001870057411F080037410F0900115E05480
:101C9100E04414F0021E077D0F7FE87E0380067D7D
:101CA100107FE87E03124F86021E07900005E06454
:101CB10001700790011F04F08005E490011FF0906E
:101CC100011FE064016003021D5C7F25FE125EA11D
:101CD100E4FCFDFE90010612167A900106E0FCA3D9
:101CE100E0FDA3E0FEA3E0FF78081216479001068D
:101CF10012167A900106E0F8A3E0F9A3E0FAA3E056
:101D0100FBC000C001C002C0037F247E00125EA19F
:101D1100D003D002D001D000EB4FFFEAFEE9FDE88D
:101D2100FC90010612167A900106E0FCA3E0FDA3E7
:101D3100E0FEA3E0FF780812164790010612167A1A
:101D4100900106E0F8A3E0F9A3E0FAA3E0FBC000EC
:101D5100C001C002C0037F23021DEB7F287E001259
:101D61005EA1E4FCFDFE90010612167A900106E0E8
:101D7100FCA3E0FDA3E0FEA3E0FF78081216479064
:101D8100010612167A900106E0F8A3E0F9A3E0FA41
:101D9100A3E0FBC000C001C002C0037F277E001288
:101DA1005EA1D003D002D001D000EB4FFFEAFEE9E3
:101DB100FDE8FC90010612167A900106E0FCA3E012
:101DC100FDA3E0FEA3E0FF7808121647900106127A
:101DD100167A900106E0F8A3E0F9A3E0FAA3E0FB8C
:101DE100C000C001C002C0037F267E00125EA1D0E8
:101DF10003D002D001D000EB4FFFEAFEE9FDE8FC81
:0B1E010090010612167AE4900105F033
:011E0C0022B3
:046030009291D290E7
:0F603400E4FFEFC394017480948050030F80F356
:01604300223A
:0B5AE300900201EEF0A3EFF0A3EDF045
:105AEE00900201E0FEA3E07807CEC313CE13D8F9DF
:105AFE0044A054FE900204F012607D900204E0FF78
:105B0E00125759900201A3E0FF125759900203E079
:0C5B1E00FF1257591200167F02025FEDC3
:045EA100AD07AC0697
:105EA500ED7807CEC313CE13D8F944A054FEFF12E4
:105EB5005CEA90022DEFF07F02125FED90022DE07B
:015EC500FFDD
:015EC60022B9
:085CEA0090022EEFF0A3EDF093
:105CF20012607D90022EE0FF12575990022FE0FFB2
:105D020012575912607D90022EE04401FF1257593A
:105D1200125D58900230EFF0120016900230E0FF50
:015D2200225E
:10607D00D291126034D290126034C291126034C247
:02608D0090225F
:0D001600C291126034D290126034D2912257
:10575900AE07C290EE30E703D38001C3126030C2B6
:1057690090EE30E603D38001C3126030C290EE3070
:10577900E503D38001C3126030C290EE30E403D355
:105789008001C3126030C290EE30E303D38001C3BD
:10579900126030C290EE30E203D38001C312603050
:1057A900C290EE30E103D38001C3126030C290EEA3
:1057B90030E003D38001C3126030C290C290C2901E
:0B57C900D291D290D290D290C29022D8
:105D5800E4FED291126034C290E4FDFCD290EE25AC
:105D6800E0FE3091034401FEC2900DBD00010CED30
:105D780064084C70E7126034D290D290D290C290EE
:025D8800AF0664
:015D8A0022F6
:1056DB00AE07C290EE30E703D38001C3126030C235
:1056EB0090EE30E603D38001C3126030C290EE30EF
:1056FB00E503D38001C3126030C290EE30E403D3D4
:10570B008001C3126030C290EE30E303D38001C33B
:10571B00126030C290EE30E203D38001C3126030CE
:10572B00C290EE30E103D38001C3126030C290EE21
:10573B0030E003D38001C3126030C290C290C2909C
:0E574B00D291126034D290D290D290C29022AD
:045EE800AB07AA0654
:105EEC007E5E12607D7F5E1256DBAF031256DBAF17
:0C5EFC00051256DB1200167F02025FED5B
:105969007F01125FA0EF60489002A0E0640170140B
:1059790090010AE06401700C9002A0F07D057FF4AB
:105989007E018029900299E06401701B90010AE070
:1059990064017013900298F0900299F090010AF056
:1059A900FD7F10FE025AE37D167F647E00124F864A
:0159B90022CB
:105FA000A2019209C2012009037F0022EF6003AF22
:0A5FB0004622200003AF46227F00C6
:015FBA0022C4
:10584D000D0A5374617274204D61696E204C6F6F37
:10585D00702E2E2E000D0A537461727420426F6FDC
:10586D00742E2E2E000D0A2843616D657261566FE0
:10587D006C743D256429000D0A28476F696E6720F9
:10588D00746F20706F776572206F66662E2E2E29CD
:10589D00000D0A2853746172742075702020506FAA
:1058AD00776572204F6E204D6F64652E2E2E290068
:0758BD0000000000000000E4
:1046970046011200000000000042011C0000410119
:1046A70018004101200041011F0044014C00000097
:1046B70000420119000041011B0041015000410166
:1046C7004700440148000000004401633F800000A8
:1046D7004401673F80000044016B3F8000004401B4
:1046E7006F3F800000440151000000004401560064
:1046F70000000044015A0000000044015E00000071
:10470700004401313F80000044013B3F80000044EA
:10471700013F3F8000004401433F800000440121E6
:1047270000000000440125000000004401290000AA
:10473700000044012D0000000044010600000000B5
:1047470046010C000000280015460135000000282E
:104757000015602901730506080A0B0D0F101214C6
:1047670016181A1C1E202225272A2C2F3235383BD3
:0F4777003E4245484B5055585D61666B70757AF0
:105D8B0075E5028DE3900202E0F5E41212F9F5E2FB
:105D9B0075E64675E6B9740129F9E43AFA90020200
:105DAB00E004F0E070030D8DE3900203E014F0E0EB
:035DBB0070D32280
:04000E0075E78122EF
:105EC700E49001FDF012000E7B017A0179FD90024A
:105ED7000274FFF0A37401F07DEF125D8B75E7602C
:015EE7002298
:1052EF00FF6DFD9002477401F0A37402F0A37442A6
:0A52FF00F0EFA3F07B017A02793290
:10530900900244EBF0A3EAF0A3E9F090024AE0FF2F
:10531900647E6005EF647D703F900247E0FBA3E087
:10532900FAA3E0F91212F9FF900244E0FBA3E0FAB4
:10533900A3E0F98F82758300747D1213619002478F
:10534900E0FBA3E0FAA3E0F9740112133F90024ACB
:10535900E0540F4450FF801090024AE0FF9002474A
:10536900E0FBA3E0FAA3E0F91212F9FE900244E08F
:10537900FBA3E0FAA3E0F98E82758300EF121361B3
:10538900900247E0FBA3E0FAA3E0F9740112133F8E
:035399007F002270
:0B54340090022EEBF0A3EAF0A3E9F0D9
:10543F00900232747EF09002427401F0EF1252F13A
:10544F00900231E01252EFE4900243F0900231E00B
:10545F00FF900243E0FEC39F501E90022EE0FBA37D
:10546F00E0FAA3E0F98E827583001213121252EF45
:10547F00900243E004F080D49002477401F0A374CB
:10548F0002F0A37442F0ED125301E4900243F09046
:10549F000242E0FFA3E0FEC39F501774322EF58245
:1054AF00E43402F583E0FF120003900243E004F0BE
:0454BF0080DD7F000D
:0154C30022C6
:0538DB00900221EFF056
:1038E00078227C027D017BFF7A5879BD7E007F07BC
:1038F0001212D3900221E0247F6055147003023A23
:10390000F6147003023B22147003023B3324FD7053
:1039100003023B4424076003023CEA7F047E00125A
:103920005EA1900222EFF07F057E00125EA1900260
:1039300023EFF07F067E00125EA1900224EFF07B61
:10394000017A0279229002317403F07F80023CE711
:10395000900116E0FEA3E0FF7C007D3B1213837D07
:1039600064121395EF25E0FBEE33FA900116E0FEAA
:10397000A3E0FF7C007D3B1213837D64121395EF5F
:103980002BFFEE3AAB07FA7C037DE8FE121395EFAE
:103990004E7C007D0AAF03AE026009121395EF243E
:1039A00001FB8005121395AB07900222EBF090010A
:1039B000ECE0FCA3E0FDEC900224F0EDA3F090011C
:1039C0001BE0FF75F00A84C454F0FEEF75F00A8422
:1039D000E5F04E900226F0E47B0AFAF9F8900148EF
:1039E000E0FCA3E0FDA3E0FEA3E0FF12155978047C
:1039F000121647C004C005C006C007E47B0AFAF9E6
:103A0000F8900148E0FCA3E0FDA3E0FEA3E0FF1274
:103A10001559AE02AF03D003D002D001D000EF4B56
:103A2000FF900227EFF0900150E0900228F0900103
:103A300012E0F9C413135403135007900223E04417
:103A400001F0900113E0541FFD7C006406700790A4
:103A50000223E04402F0ED64084C7007900223E07A
:103A60004404F0E9C4135407135007900223E044C0
:103A700008F0900114E0FD135007900223E0441079
:103A8000F0EDC313135007900223E04420F090019F
:103A900014E01313543F135007900223E04440F006
:103AA00020804230813FD39001EDE0945A9001ECA8
:103AB000E094004030900113E0FFC413135403134B
:103AC0004023EF541F6407701CA3E0131313541F0B
:103AD000134012900112E0C41354071340079002E0
:103AE00023E04480F07B017A02792290023174074E
:103AF000F07F81023CE7900112E0FFC413131354DE
:103B00000113500D9002227401F0EF547F900112C6
:103B1000F07B017A0279229002317401F07F8202F7
:103B20003CE77B017A0279229002317401F07F83B5
:103B3000023CE77B017A0279229002317401F07F26
:103B400084023CE7900106E0FCA3E0FDA3E0FEA3B5
:103B5000E0FF90022912167A7BA07A86790178001C
:103B6000900229E0FCA3E0FDA3E0FEA3E0FF121514
:103B700059900222EFF0E0C454F0F0900229E0FCEA
:103B8000A3E0FDA3E0FEA3E0FF7BA07A86790178A5
:103B900000121559AC00AD01AE02AF03900229121C
:103BA000167A900222E0FFC007E47B107A27F9F82A
:103BB000900229E0FCA3E0FDA3E0FEA3E0FF1215C4
:103BC00059D0E04F900222F0900229E0FCA3E0FDE2
:103BD000A3E0FEA3E0FFE47B107A27F9F812155961
:103BE000AC00AD01AE02AF0390022912167AE47B5D
:103BF000E87A03F9F8900229E0FCA3E0FDA3E0FED7
:103C0000A3E0FF121559900223EFF0E0C454F0F046
:103C1000900229E0FCA3E0FDA3E0FEA3E0FFE47B2B
:103C2000E87A03F9F8121559AC00AD01AE02AF0302
:103C300090022912167A900223E0FFC007E47B6409
:103C4000FAF9F8900229E0FCA3E0FDA3E0FEA3E06E
:103C5000FF121559D0E04F900223F0900229E0FCAA
:103C6000A3E0FDA3E0FEA3E0FFE47B64FAF9F81211
:103C70001559AC00AD01AE02AF0390022912167ABD
:103C8000E47B0AFAF9F8900229E0FCA3E0FDA3E046
:103C9000FEA3E0FF121559900224EFF0E0C454F0A7
:103CA000F0900229E0FCA3E0FDA3E0FEA3E0FFE426
:103CB0007B0AFAF9F8121559AC00AD01AE02AF0358
:103CC00090022912167A900224E0FB900229A3A305
:103CD000A3E0FFEB4F900224F07B017A027922905F
:0A3CE00002317403F07F87125434A0
:013CEA0022B7
:1058C40012003E7D177F017E00124F867D137F01FB
:1058D4007E00124F867D187FE87E03124F867D1569
:1058E4007F017E00124F867D217F017E00124F864C
:1058F4007D127F017E00124F867D2E7F107E27123F
:105904004F867D1A7F107E27124F86900112E04445
:0359140040F0223E
:104830009001FFEEF0A3EFF0A3EBF0A3EAF0A3E901
:01484000F087
:10484100900004121477FDD3EF9DE5F06480F8EE3B
:1048510064809840030248E4900207E0FBA3E0FA79
:10486100A3E0F9900004121477FFAEF012144CFD8E
:10487100C3EF9DFFEE95F090020AF0A3EFF09002D6
:1048810001E0FBA3E0FAA3E0F9900004121477FD24
:10489100ACF012144CFBAAF0C3ED9BFFEC9AFE9016
:1048A100020CF0A3EFF04E7002FF229001FFE0FE38
:1048B100A3E0FFC3EF9BFFEE9AFE90020AE0FCA388
:1048C100E0FD121383A3E0FCA3E0FD1213EAC0068E
:1048D100C007900207E0FBA3E0FAA3E0F912144C31
:1048E100024988900207E0FBA3E0FAA3E0F99000F7
:1048F10004121477FFAEF0900002121477C39FFFE9
:10490100E5F09E90020AF0A3EFF0900201E0FBA314
:10491100E0FAA3E0F9900004121477FFAEF09000E2
:1049210002121477C39FFFE5F09EFE90020CF0A3E4
:10493100EFF04E7002FF22900201E0FBA3E0FAA328
:10494100E0F9900004121477FFAEF0AB07AA0690CD
:1049510001FFE0FEA3E0FFC3EF9BFFEE9AFE900292
:104961000AE0FCA3E0FD121383A3E0FCA3E0FD1227
:1049710013EAC006C007900207E0FBA3E0FAA3E038
:10498100F9900004121477FFAEF0D0E02FFFD0E0D1
:104991003EF9900204E0FBA3E0FAA3E0C98FF01214
:0449A10014AF7F01CF
:0149A50022EF
:105BF5007E009002047401F0A37401F0A374FDF01B
:105C0500A37401F0A37401F0A37435F07B017A014C
:105C1500790C1248309001FDE0FEA3E02473F58273
:0E5C250074013EF583E0FD7F027E00025EE822
:1049A6009001F91216860000000090011FE06401D4
:1049B6006003024A4C7F25FE125EA1E4FCFDFE90D8
:1049C60001F912167A9001F9E0FCA3E0FDA3E0FEDE
:1049D600A3E0FF78081216479001F912167A9001A3
:1049E600F9E0F8A3E0F9A3E0FAA3E0FBC000C001F8
:1049F600C002C0037F247E00125EA1D003D002D085
:104A060001D000EB4FFFEAFEE9FDE8FC9001F91248
:104A1600167A9001F9E0FCA3E0FDA3E0FEA3E0FF17
:104A260078081216479001F912167A9001F9E0F803
:104A3600A3E0F9A3E0FAA3E0FBC000C001C002C0F6
:104A4600037F23024ADB7F287E00125EA1E4FCFD81
:104A5600FE9001F912167A9001F9E0FCA3E0FDA39D
:104A6600E0FEA3E0FF78081216479001F912167AC5
:104A76009001F9E0F8A3E0F9A3E0FAA3E0FBC00097
:104A8600C001C002C0037F277E00125EA1D003D002
:104A960002D001D000EB4FFFEAFEE9FDE8FC9001F1
:104AA600F912167A9001F9E0FCA3E0FDA3E0FEA35B
:104AB600E0FF78081216479001F912167A9001F96C
:104AC600E0F8A3E0F9A3E0FAA3E0FBC000C001C050
:104AD60002C0037F267E00125EA1D003D002D00161
:104AE600D000EB4FFFEAFEE9FDE8FC9001F9121653
:0F4AF6007A9001F9E0FCA3E0FDA3E0FEA3E0FF4E
:014B0500228D
:06406A009001F912167A24
:104070009001FD1216860000000090011FE064010F
:1040800060030241FA7F25FE125EA1E4FCFDFE9072
:1040900001FD12167A9001FDE0FCA3E0FDA3E0FE15
:1040A000A3E0FF78081216479001FD12167A9001DE
:1040B000FDE0F8A3E0F9A3E0FAA3E0FBC000C00133
:1040C000C002C0037F247E00125EA1D003D002D0C4
:1040D00001D000EB4FFFEAFEE9FDE8FC9001FD1284
:1040E000167A9001FDE0FCA3E0FDA3E0FEA3E0FF53
:1040F00078081216479001FD12167A9001FDE0F83B
:10410000A3E0F9A3E0FAA3E0FBC000C001C002C035
:10411000037F237E00125EA1D003D002D001D00025
:10412000EB4FFFEAFEE9FDE8FC9001FD12167A90E4
:1041300001F9E0FCA3E0FDA3E0FEA3E0FFA3E0F8AB
:10414000A3E0F9A3E0FAA3E0FBC312160F70030289
:1041500043717F3F7E427D0F7C009001F9E0F8A320
:10416000E0F9A3E0FAA3E0FBD312160F402290017E
:10417000F9E0FCA3E0FDA3E0FEA3E0943FFFEE9492
:1041800042FEED940FFDEC9400FC9001F912167ABA
:104190009001F9E0FCA3A3A3E0FFE4AD077F23FEB9
:1041A000125AE39001F9E0FCA3E0FDA3E0FEA3E0D6
:1041B000FF78081216209001F912167A9001F9E0A2
:1041C000FCA3A3A3E0FFE4AD077F24FE125AE39013
:1041D00001F9E0FCA3E0FDA3E0FEA3E0FF780812F4
:1041E00016209001F912167A9001F9E0FCA3A3A31E
:1041F000E0FFE4AD077F2502436D7F287E00125E5D
:10420000A1E4FCFDFE9001FD12167A9001FDE0FC98
:10421000A3E0FDA3E0FEA3E0FF780812164790019B
:10422000FD12167A9001FDE0F8A3E0F9A3E0FAA3ED
:10423000E0FBC000C001C002C0037F277E00125E09
:10424000A1D003D002D001D000EB4FFFEAFEE9FD80
:10425000E8FC9001FD12167A9001FDE0FCA3E0FD60
:10426000A3E0FEA3E0FF78081216479001FD1216A6
:104270007A9001FDE0F8A3E0F9A3E0FAA3E0FBC027
:1042800000C001C002C0037F267E00125EA1D003E1
:10429000D002D001D000EB4FFFEAFEE9FDE8FC9030
:1042A00001FD12167A9001F9E0FCA3E0FDA3E0FE07
:1042B000A3E0FFA3E0F8A3E0F9A3E0FAA3E0FBC3C7
:1042C00012160F70030243717F3F7E427D0F7C0008
:1042D0009001F9E0F8A3E0F9A3E0FAA3E0FBD31220
:1042E000160F40229001F9E0FCA3E0FDA3E0FEA33D
:1042F000E0943FFFEE9442FEED940FFDEC9400FC41
:104300009001F912167A9001F9E0FCA3A3A3E0FF53
:10431000E4AD077F26FE125AE39001F9E0FCA3E02A
:10432000FDA3E0FEA3E0FF78081216209001F91229
:10433000167A9001F9E0FCA3A3A3E0FFE4AD077FA8
:1043400027FE125AE39001F9E0FCA3E0FDA3E0FE92
:10435000A3E0FF78081216209001F912167A900156
:10436000F9E0FCA3A3A3E0FFE4AD077F28FE125A07
:01437000E369
:014371002229
:103CEB007F107E00125EA190010AEFF07F117E0023
:103CFB00125EA190019CEFF07F127E00125EA190EC
:103D0B000162EFF07F147E00125EA190011EEFF0B6
:103D1B007F157E00125EA1EFC4540F75F00AA4FF4D
:103D2B00AEF0C006C0077F157E00125EA1EF540FE8
:103D3B00FDD0E02DFDD0E03400FC12114990016361
:103D4B0012167A7F167E00125EA1EFC4540F75F027
:103D5B000AA4FFAEF0C006C0077F167E00125EA15C
:103D6B00EF540FFDD0E02DFDD0E03400FC121149D3
:103D7B0090015112167A7F177E00125EA1EFC45488
:103D8B000F75F00AA4FFAEF0C006C0077F177E00C8
:103D9B00125EA1EF540FFDD0E02DFDD0E03400FCFE
:103DAB0012114990016712167A7F187E00125EA1DC
:103DBB00EFC4540F75F00AA4FFAEF0C006C0077F26
:103DCB00187E00125EA1EF540FFDD0E02DFDD0E068
:103DDB003400FC12114990015612167A7F197E009D
:103DEB00125EA1EFC4540F75F00AA4FFAEF0C0062B
:103DFB00C0077F197E00125EA1EF540FFDD0E02D9E
:103E0B00FDD0E03400FC12114990016B12167A7F41
:103E1B00207E00125EA1EFC4540F75F00AA4FFAE12
:103E2B00F0C006C0077F207E00125EA1EF540FFD8D
:103E3B00D0E02DFDD0E03400FC12114990015A1254
:103E4B00167A7F217E00125EA1EFC4540F75F00A23
:103E5B00A4FFAEF0C006C0077F217E00125EA1EF6B
:103E6B00540FFDD0E02DFDD0E03400FC1211499031
:103E7B00016F12167A7F227E00125EA1EFC4540FDF
:103E8B0075F00AA4FFAEF0C006C0077F227E0012B9
:103E9B005EA1EF540FFDD0E02DFDD0E03400FC12FD
:103EAB00114990015E12167A90011FE064016003C4
:103EBB00023F4F7F25FE125EA1E4FCFDFE90010642
:103ECB0012167A900106E0FCA3E0FDA3E0FEA3E04E
:103EDB00FF780812164790010612167A900106E039
:103EEB00F8A3E0F9A3E0FAA3E0FBC000C001C00215
:103EFB00C0037F247E00125EA1D003D002D001D07C
:103F0B0000EB4FFFEAFEE9FDE8FC90010612167A82
:103F1B00900106E0FCA3E0FDA3E0FEA3E0FF780820
:103F2B0012164790010612167A900106E0F8A3E0EC
:103F3B00F9A3E0FAA3E0FBC000C001C002C0037FFD
:103F4B0023023FDE7F287E00125EA1E4FCFDFE9083
:103F5B00010612167A900106E0FCA3E0FDA3E0FE39
:103F6B00A3E0FF780812164790010612167A90010B
:103F7B0006E0F8A3E0F9A3E0FAA3E0FBC000C00160
:103F8B00C002C0037F277E00125EA1D003D002D0F7
:103F9B0001D000EB4FFFEAFEE9FDE8FC90010612B1
:103FAB00167A900106E0FCA3E0FDA3E0FEA3E0FF80
:103FBB00780812164790010612167A900106E0F85F
:103FCB00A3E0F9A3E0FAA3E0FBC000C001C002C06C
:103FDB00037F267E00125EA1D003D002D001D00059
:103FEB00EB4FFFEAFEE9FDE8FC90010612167A7F23
:103FFB00137E00125EA1EF6007900113E04420F0E6
:10400B00900162E06401701E90010AE0700E7D0168
:10401B007F10FE125AE390010A7401F090011EE02A
:10402B006401703A801790011EE06401701C7D01E1
:10403B007F10FE125AE390010A7401F0E4FD7F1425
:10404B00FE125AE3E490011EF02290010AE0640193
:0F405B00700CFD7F10FE125AE3E490010AF02270
:105F0800EF4488F5C5E5C520E3FBAFC6EF75F0049F
:105F1800A4FFE5E85403FDEF4DFFE5F05403FE222E
:0760C600E4FE7F06025F0803
:0760CD00E4FE7F07025F08FB
:102C37002005030230827F0A7ED77D237C3C9001EA
:102C470051E0F8A3E0F9A3E0FAA3E0FB120F9E908E
:102C57000163E0F8A3E0F9A3E0FAA3E0FB120EADED
:102C67009001FD12167A7F0A7ED77D237C3C900166
:102C770056E0F8A3E0F9A3E0FAA3E0FB120F9E9059
:102C87000167E0F8A3E0F9A3E0FAA3E0FB120EADB9
:102C970090020112167A7F0A7ED77D237C3C900131
:102CA7005AE0F8A3E0F9A3E0FAA3E0FB120F9E9025
:102CB700016BE0F8A3E0F9A3E0FAA3E0FB120EAD85
:102CC70090020512167A7F0A7ED77D237C3C9001FD
:102CD7005EE0F8A3E0F9A3E0FAA3E0FB120F9E90F1
:102CE700016FE0F8A3E0F9A3E0FAA3E0FB120EAD51
:102CF70090020912167A7F007EB07DE57C4590012F
:102D0700FDE0F8A3E0F9A3E0FAA3E0FB120F9EE4CD
:102D1700FBFA797A78441210A790020D12167A7F7F
:102D2700E17E987DD27C45900201E0F8A3E0F9A30B
:102D3700E0FAA3E0FB120F9EE4FBFA797A784412DB
:102D470010A790020DE0F8A3E0F9A3E0FAA3E0FBD7
:102D5700120EAD90021112167A7F487EC17D2C7C2F
:102D670046900205E0F8A3E0F9A3E0FAA3E0FB121E
:102D77000F9EE4FBFA797A78441210A7900211E0CB
:102D8700F8A3E0F9A3E0FAA3E0FB120EAD90021559
:102D970012167A900294E0FCA3E0FDA3E0FEA3E004
:102DA700FFEC334013E4900150F07B02FAF9F890FE
:102DB7000294A3A3A3E0801D9001507401F0900238
:102DC70094E0FCA3E0FDA3E0FEA3E0FF1215EBE413
:102DD7007B02FAF9F8125B709001F9EEF0A3EFF0BD
:102DE7009001F9E0FEA3E0D394F0EE9400400302D3
:102DF7002E8EC3EE94005003022E8EE4FFFE7DF567
:102E07007C419001FDE0F8A3E0F9A3E0FAA3E0FB21
:102E1700120F9EC004C005C006C0079001F9E0FC70
:102E2700A3E0FDE4121149D003D002D001D0001273
:102E37000F9EE4FBFA797A78441210A790014C129E
:102E4700167AE4FFFE7DF57C419001FDE0F8A3E0F2
:102E5700F9A3E0FAA3E0FB120F9EC004C005C00669
:102E6700C0079001F9E0FCA3E0FDE4121149D0038B
:102E7700D002D001D000120F9E1211829001FBEEFA
:102E8700F0A3EFF0022FF49001F9E0FEA3E0FFD3E7
:102E970094F0EE9400406BD3EF94C2EE940150622D
:102EA7007F2F7E5D7D007C42900201E0F8A3E0F970
:102EB700A3E0FAA3E0FB120F9EC004C005C006C042
:102EC700079001FAE02410FD9001F9E034FFFCE4DB
:102ED700121149D003D002D001D000120F9EE4FB9B
:102EE700FA797A78441210A790020DE0F8A3E0F976
:102EF700A3E0FAA3E0FB120EAD90014C12167A0282
:102F07002FF49001F9E0FEA3E0FFD394C2EE940101
:102F1700406AD3EF940CEE940350617F197E047DD1
:102F2700067C42900205E0F8A3E0F9A3E0FAA3E0EB
:102F3700FB120F9EC004C005C006C0079001FAE04F
:102F4700243EFD9001F9E034FEFCE4121149D00360
:102F5700D002D001D000120F9EE4FBFA797A7844B0
:102F67001210A7900211E0F8A3E0F9A3E0FAA3E09A
:102F7700FB120EAD90014C12167A8071D39001FAB4
:102F8700E0940C9001F9E0940350030230667F81CE
:102F97007E957D0B7C42900209E0F8A3E0F9A3E05F
:102FA700FAA3E0FB120F9EC004C005C006C007903D
:102FB70001FAE024F4FD9001F9E034FCFCE412117D
:102FC70049D003D002D001D000120F9EE4FBFA795A
:102FD7007A78441210A7900215E0F8A3E0F9A3E06D
:102FE700FAA3E0FB120EAD90014C12167A7FCD7E4C
:102FF700CC7D4C7C3D90014CE0F8A3E0F9A3E0FACE
:10300700A3E0FB120EAD12118290011BEFF07FCDF2
:103017007ECC7D4C7C3D90014CE0F8A3E0F9A3E029
:10302700FAA3E0FB120EADE4FBFA79C87842120F5F
:103037009E12118290014812167A900148E0FCA373
:10304700E0FDA3E0FEA3E0FFE47B64FAF9F81215C4
:1030570059AC00AD01AE02AF0390014812167AC217
:103067000590011CE01350137F811238DB7F2E126D
:0B3077005BB47D2E7FE87E03124F86C5
:01308200222B
:102363002005030227DAE47B14FAF9F8900294E0DB
:10237300FCA3E0FDA3E0FEA3E0FF125B709002016B
:1023830012167A7F0A7ED77D237C3C900121E0F8E8
:10239300A3E0F9A3E0FAA3E0FB120F9E900131E062
:1023A300F8A3E0F9A3E0FAA3E0FB120EAD90020557
:1023B30012167A7F0A7ED77D237C3C900125E0F8B4
:1023C300A3E0F9A3E0FAA3E0FB120F9E90013BE028
:1023D300F8A3E0F9A3E0FAA3E0FB120EAD90020923
:1023E30012167A7F0A7ED77D237C3C900129E0F880
:1023F300A3E0F9A3E0FAA3E0FB120F9E90013FE0F4
:10240300F8A3E0F9A3E0FAA3E0FB120EAD90020DEE
:1024130012167A7F0A7ED77D237C3C90012DE0F84B
:10242300A3E0F9A3E0FAA3E0FB120F9E900143E0BF
:10243300F8A3E0F9A3E0FAA3E0FB120EAD900211BA
:1024430012167A7F007EB07DE57C45900205E0F8A8
:10245300A3E0F9A3E0FAA3E0FB120F9EE4FBFA79F1
:102463007A78441210A790021512167A7FE17E98AB
:102473007DD27C45900209E0F8A3E0F9A3E0FAA33A
:10248300E0FB120F9EE4FBFA797A78441210A790CE
:102493000215E0F8A3E0F9A3E0FAA3E0FB120EAD06
:1024A30090021912167A7F487EC17D2C7C469002D9
:1024B3000DE0F8A3E0F9A3E0FAA3E0FB120F9EE41A
:1024C300FBFA797A78441210A7900219E0F8A3E096
:1024D300F9A3E0FAA3E0FB120EAD90021D12167AE7
:1024E300900201E0FCA3E0FDA3E0FEA3E0FFEC33D8
:1024F3004013E4900150F07B02FAF9F8900201A333
:10250300A3A3E0801D9001507401F0900201E0FC50
:10251300A3E0FDA3E0FEA3E0FF1215EBE47B02FAC8
:10252300F9F8125B709001F912167AE47FF0FEFD60
:10253300FC9001F9E0F8A3E0F9A3E0FAA3E0FBD3F0
:1025430012160F40030225F7E4FFFEFDFC9001F98C
:10255300E0F8A3A3A3E0C312160F50030225F77FED
:10256300667E667D0F7C43900205E0F8A3E0F9A345
:10257300E0FAA3E0FB120F9EC004C005C006C0072B
:102583009001F9E0FCA3E0FDA3E0FEA3E0FFE41269
:102593001144D003D002D001D000120F9E7B007AE9
:1025A30040791C78461210A790014C12167AE4FF6A
:1025B300FE7DF57C41900205E0F8A3E0F9A3E0FA83
:1025C300A3E0FB120F9EC004C005C006C007900124
:1025D300F9E0FCA3E0FDA3E0FEA3E0FFE412114455
:1025E300D003D002D001D000120F9E1211829001AD
:1025F300FD02275FE47FF0FEFDFC9001F9E0F8A304
:10260300E0F9A3E0FAA3E0FBD312160F4065E47FE1
:10261300C27E01FDFC9001F9E0F8A3A3A3E0D3126D
:10262300160F504F7F667E667D0F7C43900205E058
:10263300F8A3E0F9A3E0FAA3E0FB120F9EC004C0E5
:1026430005C006C0079001F9E0FCA3E0FDA3E0FE8E
:10265300A3E0FFE4121144D003D002D001D0001252
:102663000F9E7B007A40791C78461210A790014C8C
:1026730002275FE47FC27E01FDFC9001F9E0F8A32D
:10268300E0F9A3E0FAA3E0FBD312160F4064E47F62
:102693000C7E03FDFC9001F9E0F8A3A3A3E0D312A1
:1026A300160F504E7F667E667D0F7C43900205E0D9
:1026B300F8A3E0F9A3E0FAA3E0FB120F9EC004C065
:1026C30005C006C0079001F9E0FCA3E0FDA3E0FE0E
:1026D300A3E0FFE4121144D003D002D001D00012D2
:1026E3000F9E7B007A40791C78461210A790014C0C
:1026F300806AE47F0C7E03FDFC9001F9E0F8A3E01F
:10270300F9A3E0FAA3E0FBD312160F50030227BE8E
:102713007F667E667D0F7C43900205E0F8A3E0F9B7
:10272300A3E0FAA3E0FB120F9EC004C005C006C0DD
:10273300079001F9E0FCA3E0FDA3E0FEA3E0FFE4C2
:10274300121144D003D002D001D000120F9E7B009F
:102753007A40791C78461210A790014C12167A9091
:10276300014CE0FCA3E0FDA3E0FEA3E0FF12118215
:1027730090011BEFF0E4FFFE7DC87C4290014CE02A
:10278300F8A3E0F9A3E0FAA3E0FB120F9E12118273
:1027930090014812167A900148E0FCA3E0FDA3E003
:1027A300FEA3E0FFE47B64FAF9F8121559AC00AD1F
:1027B30001AE02AF0390014812167AC20590011CC4
:1027C300E01350137F811238DB7F2E125BB47D2E12
:0727D3007FE87E03124F8630
:0127DA0022DC
:105D23007BFF7A58794D125C331249A69001061213
:105D3300167A1217581255501255D51259699001F7
:105D43001FE0640170051223638003122C37900156
:055D53000AE070DE22F1
:10565900125917125E497BFF7A587962125C33122C
:105669004E81D2B4D2B5126005123CEB1258C490E7
:10567900019CE0FF125BF57BFF7A58797290019CDF
:10568900E0FF900203E4F0A3EFF0125C3390011302
:10569900E0FFC413540713500A125F84EF7004909B
:1056A900010AF090010AE0640178117008E654F0EB
:1056B9004402F6800BE6540F4420F654F04401F6F8
:1056C900C20090010AE064017003125D23124D715A
:0256D90080F05F
:104D71007BFF7A587984125C337811E654F0440150
:104D8100F690011CE0FF1313543F135004EF54FB42
:104D9100F090011CE054FEF07F1C125BB490011CEA
:104DA100E054BFF07F0A125BB4E4900120F0F5B249
:104DB100900298F0900106E0FCA3E0FDA3E0FEA3C1
:104DC100E0FF12406A1255D51255501259699001EF
:104DD1000AE06401605C900120E070297811E6FF2F
:104DE100C4540F6401701E900112E0FFC4131354E8
:104DF100031340119001207401F07D307F107E2754
:104E0100124F8680C0125F84EF6401600CE5E8F404
:104E1100FF131313541F30E00CE4900120F07F3096
:104E2100125BB480A0900120E064027098125DBE14
:104E310080937D017F147E00125AE3900294121632
:104E41008600000000E490011BF0900148121686D4
:104E510000000000E4900150F0F542F54390011488
:104E6100E054FEF0A3E054E04414F07811E654F06D
:104E71004402F67BFF7A58799E125C3375E7202253
:1047860001108A41024D00C187C10841024B40C158
:01479600869C
:1059BA001B5B306D001B5B303B33316D001B5B3072
:1059CA003B33326D001B5B303B33336D001B5B3066
:1059DA003B33346D001B5B303B33356D001B5B3052
:1059EA003B33366D001B5B303B33376D0030313251
:0E59FA00333435363738394142434445460090
:104797005802A1FF59BAFF59BFFF59C7FF59CFFFA9
:0B47A70059D7FF59DFFF59E7FF59EF1A
:081E0D00E0FBA3E0FAA3E0F9F9
:0B1E150090022EEBF0A3EAF0A3E9F02E
:101E200090023C1216860000000190022EE0FBA3F7
:101E3000E475F001121436A9F0FA1212F990023486
:101E4000F0700302236224DB701B90022EE0FBA3E0
:101E5000E0FAA3E0F91212F9B4251390022FE47509
:101E6000F0011214202002FD900234022338C2092E
:101E7000C20AE490023BF090022EE0FBA3E475F06E
:101E800001121436A9F0FA1212F9900234F0E0FDB2
:101E9000B4301BD20990022EE0FBA3E475F00112CE
:101EA0001436A9F0FA1212F9900234F0801FEDFFF7
:101EB0003395E0FEC3EF9430EE64809480402CD3E1
:101EC000EF9439EE648094805021900234E024D065
:101ED00090023BF090022EE0FBA3E475F001121497
:101EE00036A9F0FA1212F9900234F090023A740214
:101EF000F0900234E024BE602B24E0602724F660DA
:101F0000042420703C90022EE0FBA3E475F0011243
:101F10001436A9F0FA1212F9900234F090023A74D1
:101F200004F0801D90022EE0FBA3E475F001121472
:101F300036A9F0FA1212F9900234F090023A7401C4
:101F4000F0900234E0FF24A870030221F124F57020
:101F50000302230D24F070030222C024FE600E242D
:101F6000FD70030221F12414600302234090023A21
:101F7000E024FE604224FE607B2403600302201103
:101F8000EF900231B46419E0FBA3E475F001121480
:101F900036A9F0FA1212F9FF3395E0FEFDFC806BD2
:101FA000E0FBA3E475F001121436A9F0FA1212F95D
:101FB000FFE4FCFDFE8054900234E0900231B464F2
:101FC0001BE0FBA3E475F002121436A9F0FA121418
:101FD0004CFFAEF0EE3395E0FDFC8016E0FBA3E491
:101FE00075F002121436A9F0FA12144CFFAEF0E4A8
:101FF000FCFD8017900234E0900231E0FBA3E47511
:10200000F004121436A9F0FA12165A90023612167B
:102010007A900236E0FCA3E0FDA3E0FEA3E0FFEC33
:102020003350252002FD75992DD202900236E0FC36
:10203000A3E0FDA3E0FEA3E0FF74FFFBFAF9F812B2
:1020400014CE90023612167A90023BE06003022012
:10205000D7900236E0FCA3E0FDA3E0FEA3E0FFEC96
:102060004D4E4F700B2002FD759930D202021E2A90
:10207000E490023BF0A31216860000000190023BA0
:10208000E0C3940A74809480504D900236E0FCA323
:10209000E0FDA3E0FEA3E0FF90023CE0F8A3E0F93E
:1020A000A3E0FAA3E0FB121559E4FBFAF9F8C31216
:1020B000160F602390023CE0FCA3E0FDA3E0FEA32A
:1020C000E0FFE47B0AF81214CE90023C12167A90DC
:1020D000023BE004F080A6E4900235F090023C124E
:1020E00016860000000190023BE024FFFFE434FF6D
:1020F000FE900235E0FD3395E0FCC3ED9FEE648079
:10210000F8EC648098502590023CE0FCA3E0FDA32D
:10211000E0FEA3E0FFE47B0AFAF9F81214CE900285
:102120003C12167A900235E004F080BA900236E054
:10213000FCA3E0FDA3E0FEA3E0FF90023CE0F8A3D7
:10214000E0F9A3E0FAA3E0FB121559EF2430FF9069
:102150000234F0BF3025200922E47F01FEFDFC900F
:10216000023CE0F8A3E0F9A3E0FAA3E0FBC31216F7
:102170000F60089002347420F08002D2092002FD22
:10218000900234E0F599D202900236E0FCA3E0FD23
:10219000A3E0FEA3E0FF90023CE0F8A3E0F9A3E097
:1021A000FAA3E0FB121559AC00AD01AE02AF0390EB
:1021B000023612167A90023CE0FCA3E0FDA3E0FE9A
:1021C000A3E0FFE47B0AFAF9F812155990023C12D9
:1021D000167AE4FFFEFDFC90023CE0F8A3E0F9A3D0
:1021E000E0FAA3E0FBC312160F600302212C021ECB
:1021F0002A90023AE024FE602224FE603924037013
:102200004E900231E0FBA3E475F001121436A9F000
:10221000FA1212F9FFE4FCFDFE802E900231E0FB81
:10222000A3E475F002121436A9F0FA12144CFFAEB2
:10223000F0E4FCFD8013900231E0FBA3E475F004B0
:10224000121436A9F0FA12165A90023612167A9023
:10225000023BE0700890023AE025E0A3F0E490022F
:1022600035F090023BE0FF900235E0FD3395E0FC55
:10227000C3ED9F7480F86C984003021E2A2002FD73
:10228000900235E0FF90023BE0C39F1425E025E07B
:10229000F9900236E0FCA3E0FDA3E0FEA3E0FFA876
:1022A000011216337E00EF540F24F7F582EE3459F5
:1022B000F583E493F599D202900235E004F080A210
:1022C000900231E0FBA3E475F003121436A9F0FA92
:1022D0001216B7900240EBF0A3EAF0A3E9F09002E7
:1022E00040E0FBA3E0FAA3E0F91212F97003021E2A
:1022F0002A2002FD900240E0FBA3E475F0011214D5
:1023000036A9F0FA1212F9F599D20280D190023171
:10231000E0FBA3E475F002121436A9F0FA12144C93
:10232000FFAEF0EE3395E0FDFC90023612167A20F7
:1023300002FD900236A3A3A3E0F599D202021E2A61
:10234000900231E0FBA3E475F002121436A9F0FA12
:1023500012144CFFAEF0E4FCFD90023612167A0225
:022360001E2A33
:012362002258
:0B5C3300900200EBF0A3EAF0A3E9F000
:105C3E0090022B7401F0A37402F0A37403F090028F
:105C4E002BE0F9A3E0FAA3E0900231C9F0A3EAF049
:105C5E00A3E9F0900200121E0D90022BE4F0A3F0C7
:025C6E00A3F0A1
:015C70002211
:0B5C71009001F9EBF0A3EAF0A3E9F0CA
:105C7C009002247401F0A37401F0A374FCF0900260
:105C8C0024E0F9A3E0FAA3E0900231C9F0A3EAF012
:105C9C00A3E9F09001F9121E0D900224E4F0A3F098
:025CAC00A3F063
:015CAE0022D3
:0E5B2A009001FFEFF0A3EBF0A3EAF0A3E9F087
:105B380090022B7401F0A37402F0A37403F0900296
:105B48002BE0F9A3E0FAA3E0900231C9F0A3EAF050
:105B5800A3E9F0900200121E0D90022BE4F0A3F0CE
:075B6800A3F09001FF04F01F
:015B6F002213
:105E1C000A0D537973506F776572496E69746961B5
:105E2C006C2E2E4F4B2121000D0A28506F77657276
:0D5E3C005377697463683D25303278290082
:0447B20002110000F0
:105E4900D283C2A1D284D282C2A1C2B7C286C2EA17
:105E5900C2A6C2A2D2B6C2A0D2E8D2E97FC87E0049
:0C5E6900125FD87BFF7A5E791C025C712E
:1055D5007811E6FF540F14602D24FA6050240570ED
:1055E50063EFC4540F601024F960082406700DE4BD
:1055F500FF80067F0380027F01125E757811E654F5
:105605000F4420F6803E7811E6C4540F600C24FE4A
:10561500600C24FB700D7F0480067F0280027F06EC
:10562500125E757811E6540F4410F680177811E66E
:10563500C4540F24FE70057F05125E757811E6547B
:105645000F4470F67811E6FF54F0C4540FFEEF5482
:04565500F04EF622FB
:104372009001FDEFF07F21125BB47F22125BB47FCC
:1043820023125BB47F24125BB47F25125BB47F26B9
:10439200125BB49001FDE024F7700302457C24FC1B
:1043A20070030244B21470030244401470030245C5
:1043B2000B24FD70030245C61470030245E1240379
:1043C200600302460F7DE07F1412539C900115E0BA
:1043D20054E04410F090011CE013400A90010AE0FE
:1043E2006401700280777811E6C4540F6407702D5F
:1043F200900112E0C413135403135002801A900167
:104402000AE070057D1E0245B9900112E0541F6456
:104412000470057D240245B97D220246087811E622
:10442200C4540F64027014900112E0541F640470AB
:10443200057D250245B97D1F0246080245BE7D99CC
:104442007F1412539C900115E054E0440EF0900149
:104452001CE013400D90010AE0640170057D210209
:1044620045B97811E6C4540F64077015900112E043
:10447200C4131354031350047D2680027D21024687
:104482000890010AE070139001EEE0700D9001EFC8
:10449200E0640170057D200245B99001EEE0700DE7
:1044A2009001EFE0640170057D1D0245B902457877
:1044B200E4FD7F1412539C900115E054E0440DF08A
:1044C20090011CE013400D90010AE0640170057D2B
:1044D200210245B97811E6C4540F640770159001A2
:1044E20012E0C4131354031350047D2480027D216F
:1044F2000246089001EEE0700D9001EFE064017059
:10450200057D200245B90245BE7D997F1412539C58
:10451200900115E054E0440FF090011CE013400DAF
:1045220090010AE0640170057D210245B97811E627
:10453200C4540F64077015900112E0C4131354039E
:104542001350047D2680027D2102460890010AE074
:1045520070129001EEE0700C9001EFE064017004C3
:104562007D2080539001EEE0700C9001EFE0640139
:1045720070047D1D80417D1F80447DE07F141253B5
:104582009C900115E054E04409F090011CE01340B6
:104592000C90010AE0640170047D21801A7811E612
:1045A200C4540F640270047D1F800C7811E6C45459
:1045B2000F640770077D227F64FE804E7D1E7F643C
:1045C2007E00804690011CE0C4540F1350077F0602
:1045D2001251438002D2827D247F647E00802B9020
:1045E200011CE0C4540F13500EE4FF12514390011A
:1045F2001CE054EFF08002C28290011CE0135004D0
:0E4602007D1F80027D247F647E00124F862281
:105143009001FEEFF07BFF7A5E7934900203E4F086
:10515300A3EFF0125C339001FEE0B40A00400302B7
:10516300521290516CF828287302518A02518A0214
:1051730051D902518A0251D90252030251D9025222
:10518300120252120251B0C282D2B7D2EAD2A6D2CE
:10519300A2C2B67F147E00125FD8D2A07D177FF41F
:1051A3007E01124F867D0D7FE87E03804EC283D23F
:1051B300A17F407E00125FD8C284D28690011CE09A
:1051C300FF1313543F135009EF54FBF07F8412383D
:1051D300DB75B2308039C2A0D283D284C2A1D2821D
:1051E300C2A1C2B7C2EAC2A6C2A2C286D2B6900107
:1051F3001CE04420F07D2F7FB87E0B124F86800F7A
:10520300C2A1D284C2B7C2EAC2A2C286E4F5B290F6
:095213000115E054E04414F022FE
:105E75009001F9EFF024FE601A24FE6016146013F9
:105E850014601024FE600C240824F6500624F760E4
:0C5E95000280089001F9E0FF1251432246
:1047B600C10C4201A800004201EC02254201AC03F3
:1047C600704101EA004101A0004101A2014101EE50
:1047D600004101EF0141019F004101A1004101A3F8
:1047E600004101A4004101A5004101F8004101F288
:1047F6000041019E004101F4004101AB004101F37B
:10480600FF41019DFE4101F0004101F7004101A772
:10481600004101AA004101EB004101F1FF4101A65F
:09482600004101F6004101F5001A
:045FD4007FF47E01D7
:105FD800EF4E6010C20C300CFDC20CEF1F70011E9A
:055FE800144E70F222CE
:10604400EF75F003A424AFF582E43401F583E0FE98
:04605400A3E0FF22A4
:10601B00EF75F003A424AEF582E43401F583E0C3FD
:05602B0013547FFF2269
:10605800EF75F003A424AEF582E43401F583E0542F
:03606800FEF02225
:10608F00EF75F003A424AEF582E43401F583E01339
:01609F0022DE
:105A52009001A8E0FFA3E090022ACFF0A3EFF0901C
:105A6200022AE0FEA3E0FFC39001A9E09FFF90019C
:105A7200A8E09EFE1260AFD3EF947FEE6480948024
:105A8200400F9001A8E0FFA3E090022ACFF0A3EF1D
:095A9200F090022AE0FEA3E0FFFF
:015A9B0022E8
:084C4300900225EEF0A3EFF052
:104C4B00E4A3F0A3F0A3F0125A52900228EEF0A3C3
:104C5B00EFF0900225E0FEA3E0FFE4FCFD7B487A39
:104C6B00EEF9F8C31215F9500A90022574EEF0A371
:104C7B007448F0900225E0FEA3E0FF900229E02F9C
:104C8B00FF900228E03EFEE4FCFD7B487AEEF9F84B
:104C9B00C31215F9401F900225E0FEA3E0FF90021E
:104CAB0028E0FCA3E0FD2FFFEC3EFED3ED9FEC9E36
:104CBB005003024D68E49001A8F0A3F0900227F096
:104CCB00900227E0FFC39414748094804003024D3C
:104CDB0061EF75F003A424AEF582E43401F583E0B3
:104CEB00540164017067900227E0FF75F003A42460
:104CFB00AFF582E43401F583E0FCA3E0FD900228DC
:104D0B00E0FAA3E0FBD3ED9BEC9A402CEF75F0039C
:104D1B00A424AFF582E43401F583C083C082C3A31E
:104D2B00E09BFF0582D5820215831582E09AD08223
:104D3B00D083F0A3EFF08015900227E075F003A469
:104D4B0024AFF582E43401F583E4F0A3F09002275D
:104D5B00E004F0024CCBE4900228F0A3F090022880
:054D6B00E0FEA3E0FFE3
:014D70002220
:10003E00E4FFEFC39414748094805015EF75F003B1
:10004E00A424AEF582E43401F583E054FEF00F8073
:01005E00E1C0
:01005F00227E
:064F80007D167F647E0037
:0B4F8600900221EEF0A3EFF0A3EDF08D
:104F9100E4A3F0F0900224E0FFC3941474809480A1
:104FA100502EEF75F003A424AEF582E43401F583AD
:104FB100E0FF540164017010EFC313547FFF9002AE
:104FC10023E06F7003025064900224E004F080C477
:104FD100E4900224F0900224E0FFC39414748094BE
:104FE100804003025064EF75F003A424AEF582E41F
:104FF1003401F583E0FF54017060900224E0FE75F6
:10500100F003A424AEF582E43401F583EF4401F00A
:10501100900223E0547F25E0FFEE75F003A424AE57
:10502100F582E43401F583E054014FF0900221E070
:10503100FEA3E0FF124C43900222E02FFF900221D9
:10504100E03EFE900224E075F003A424AFF582E473
:105051003401F583EEF0A3EFF022900224E004F096
:03506100024FD625
:015064002229
:105BB400E4FEEEC39414748094805034EE75F003C4
:105BC400A424AEF582E43401F583E0FD54016401BC
:105BD400701BEDC313547FB50713EE75F003A424B3
:105BE400AEF582E43401F583E054FEF0220E80C267
:015BF400228E
:0B5065009001FAEEF0A3EFF0A3EDF0D5
:10507000E4A3F0F09001FDE0FFC3941474809480E9
:10508000502DEF75F003A424AEF582E43401F583CE
:10509000E0FF54016401700FEFC313547FFF9001D0
:1050A000FCE0B5070280649001FDE004F080C5E4F7
:1050B0009001FDF09001FDE0FFC394147480948092
:1050C0004003025142EF75F003A424AEF582E434AC
:1050D00001F583E0FF540170609001FDE0FE75F082
:1050E00003A424AEF582E43401F583EF4401F0908B
:1050F00001FCE0547F25E0FFEE75F003A424AEF53B
:1051000082E43401F583E054014FF09001FAE0FEAF
:10511000A3E0FF124C439001FBE02FFF9001FAE067
:105120003EFE9001FDE075F003A424AFF582E43467
:1051300001F583EEF0A3EFF0229001FDE004F00210
:0251400050B469
:01514200224A
:104B0600EF14B410004003024C42904B1E75F003A4
:104B1600A4C58325F0C58373024B50024B50024B4C
:104B260050024B64024BAC024BC0024BD9024BF80D
:104B3600024C42024C23024C38024C42024C3B02CD
:104B46004C42024B68024B6C800090019CE0FF12C5
:104B56005BF590019CE0FD7F117E00025AE37F80A9
:104B660080557F87805190011FE064017015FD7F9D
:104B760023FE125AE3E4FD7F24FE125AE3E4FD7F8E
:104B8600258014E4FD7F26FE125AE3E4FD7F27FE0E
:104B9600125AE3E4FD7F28FE125AE390010612162C
:104BA600860000000022900112E0C4131354031380
:104BB6004003024C427F830238DB90011CE0FF1366
:104BC60013543F1340767811E654F04407F6EF4449
:104BD60004F02290029412168600000000E4900170
:104BE6001BF090014812168600000000E490015068
:104BF600F02290011CE0FF131313541F135019EFFA
:104C060054F7F054FEF07F121243727D087FB87E8F
:104C16000B124F86E4F5B2227F1302437290011CF9
:104C2600E04440F07F821238DB7D0A7F987E3A02AC
:0D4C36004F86025EC7D2B77F09125143229C
:10555000E49001F9F0A3F0A3F0A3F09001F9F0902A
:1055600001F9E0C39414748094805068125A5290E8
:1055700001FBEEF0A3EFF09001F9E0FF12608F5015
:105580004B9001F9E0FF126044D39001FCE09F9042
:1055900001FBE09E40369001F9E0FF126058900157
:1055A000F9E0FF12601B9001FAEFF0C394117480D0
:1055B00094805007E0FF124B0680119001FAE0FF43
:1055C000C394317480948050031200669001F9E016
:0455D00004F0808BD8
:0155D40022B4
:10006600EF24EEB41F004003020EA590007F75F04A
:1000760003A4C58325F0C5837302016A0203EF0258
:100086000EA50207DF0207690201DE020A9C020DC5
:10009600D3020C290207CC020A7F0200E80200DC28
:1000A6000200E00200E40200ED0200F90201030290
:1000B600010D02011702012102012B020E18020E88
:1000C60037020E29020E45020E53020E620201C5C8
:1000D6000201D6020E9F7F1E800A7F1F80067F20A8
:1000E60080027F1D0257D47F211257D47D217FFACB
:1000F6000207BE7F211257D47D22020A957F231262
:1001060057D47D23020A957F241257D47D24020AF0
:10011600957F251257D47D25020A957F261257D43E
:100126007D26020A957F1E1257D47F201257D412BD
:100136005FD47F1E1257D4125FD47F201257D41279
:100146005FD47F1E1257D4125FD47F201257D41269
:100156005FD47F1E1257D4125FD4900115E054E08D
:100166004414F022125F84EF64017024900112E0BF
:10017600C4131354031340427F1912608F500812A0
:100186005BB47D19124F827F1812608F502C80222B
:10019600900112E0C41313540313501E7F1912600A
:1001A6008F5008125BB47D19124F827F1812608F30
:1001B6005008125BB47D18124F827D12020A959088
:1001C600011CE01350057F811238DB7D2E020A9553
:1001D60090011CE054DFF0221260CD9001ACEEF0ED
:1001E600A3EFF01260C69001ECEEF0A3EFF09001E1
:1001F600ACE0FEA3E0FFD3948AEE9402500990018E
:10020600F37415F00202F4D3EF948AEE94024012CE
:10021600D3EF9499EE940250099001F37418F0020A
:1002260002F4D3EF9499EE94024012D3EF94A8EE21
:10023600940250099001F37404F00202F4D3EF948F
:10024600A8EE94024012D3EF94FBEE94025009906C
:1002560001F37403F00202F4D3EF94FBEE94024030
:1002660011D3EF9422EE940350089001F37402F038
:10027600807CD3EF9422EE94034011D3EF9450EE9A
:10028600940350089001F37401F08062D3EF945008
:10029600EE94034010D3EF9475EE94035007E49068
:1002A60001F3F08049D3EF9475EE94034013D3EF36
:1002B6009496EE9403500A90010AE064017002805D
:1002C6001F9001ACE0FEA3E0FFD39475EE940340CB
:1002D60017D3EF949FEE9403500E90010AE0700836
:1002E6009001F37416F080069001F37417F09001F4
:1002F600F3E0541FFF900112E054E04FF09001AC80
:10030600E0FFA3E0900116CFF0A3EFF09001ECE040
:10031600FEA3E0FFD394AFEE94005010EF9414EEDA
:10032600940040089001F17406F08074D3EF94AF06
:10033600EE94004011D3EF94DEEE94005008900145
:10034600F17419F0805AD3EF94DEEE9400400BD38B
:10035600EF947BEE940250028040D3EF947BEE94B0
:10036600024011D3EF94E5EE940250089001F17427
:100376001AF0802CD3EF94E5EE94024011D3EF945B
:10038600A0EE940350089001F17408F080129001D9
:1003960012E04420F054E04409F09001F17407F0B3
:1003A600900115E0541F640970069001F17407F07E
:1003B6009001F1E0541FFF900113E054E04FF0A2CA
:1003C60080E4339001A0F0E0FF9001EEE06F600260
:1003D600EFF0A281E4339001A2F0E0FF9001EFE09C
:1003E6006F7003020EA5EFF0221260CD9001ACEE05
:1003F600F0A3EFF0900116EEF0A3EFF0900112E0FB
:10040600C4135407135025E490019FF09001A1F006
:100416009001A3F0A3F0A3F09001F8F09001F2F0A0
:1004260090019EF09001F4F09001F3F09001ACE0A1
:10043600FEA3E0FFD3948AEE9402501BE490019F42
:10044600F09001A1F09001A3F0A3F0A3F09001F8C1
:10045600E004F0E402051AD3EF948AEE9402402FEA
:10046600D3EF9499EE94025026E490019FF0900108
:10047600A1F09001A3F0A3F0A3F09001F8F0900191
:10048600F2F090019EF09001F4E004F0020629D308
:10049600EF9499EE94024022D3EF94A8EE94025082
:1004A6001990019FE004F0E49001A1F09001A3F0FF
:1004B600A3F0A3F09001F8F0805AD3EF94A8EE943D
:1004C600024027D3EF94FBEE9402501EE490019F66
:1004D600F09001A1E004F0E49001A3F0A3F0A3F0F2
:1004E6009001F8F09001F2020602D3EF94FBEE942D
:1004F60002402BD3EF9422EE94035022E490019F06
:10050600F09001A1F09001A3E004F0E4A3F0A3F0C1
:100516009001F8F09001F2F090019E020602D3EFEE
:100526009422EE9403402BD3EF9450EE9403502282
:10053600E490019FF09001A1F09001A3F0A3E004E4
:10054600F0E4A3F09001F8F09001F2F090019E0221
:100556000602D3EF9450EE9403402AD3EF9475EE3F
:1005660094035021E490019FF09001A1F09001A323
:10057600F0A3F0A3E004F0E49001F8F09001F2F0AB
:1005860090019E8077D3EF9475EE94034031D3EFBC
:100596009496EE9403502890010AE064017020902E
:1005A600019FF09001A1F09001A3F0A3F0A3F090B9
:1005B60001F8F09001F2E004F0E490019E803D9095
:1005C60001ACE0FEA3E0FFD39475EE94034030D374
:1005D600EF949FEE9403502790010AE0702190015A
:1005E6009FF09001A1F09001A3F0A3F0A3F0900179
:1005F600F8F09001F2E004F0E490019EF08020E42F
:1006060090019FF09001A1F09001A3F0A3F0A3F058
:100616009001F8F09001F2F090019EE004F0E49071
:1006260001F4F0C39001ADE094BC9001ACE09402FB
:1006360040089001ABE004F08005E49001ABF09037
:10064600019FE06414700B9001F37404F0E49001D0
:100656009FF09001A1E06414700B9001F37403F015
:10066600E49001A1F09001A3E06414700B9001F3F3
:100676007402F0E49001A3F09001A4E06414700AFF
:100686009001F304F0E49001A4F09001A5E0641455
:1006960070089001F3F09001A5F09001F8E0641461
:1006A600700B9001F37415F0E49001F8F09001F2EC
:1006B600E064147009A37416F0E49001F2F090015E
:1006C600F4E0641470099001F37418F0E4A3F09058
:1006D60001F2E064147009A37416F0E49001F2F0DC
:1006E60090019EE06414700B9001F37417F0E4908F
:1006F600019EF09001F3E0FF90019DE06F600BEF2B
:10070600F0900115E054E04414F09001ABE064145D
:100716007030900113E0FFC413540713501FEF54B9
:10072600DFF0900115E054E04414F07F137E0012D0
:100736005EA1EF6008E4FD7F13FE125AE3E4900128
:10074600ABF09001F3E0541FFF900112E054E04F2C
:10075600F090010AE07D137003020A727F2C7E017D
:10076600020E9C90011CE01313543F13500978119C
:10077600E654F04402F62290010AE0640170087D16
:100786000A7F64FE020E9C90011CE0C413540713FA
:10079600402B900113E0FFC4135407135008125F57
:1007A60084EF6401700E90010A7401F0FD7F107EE3
:1007B60000025AE37D277F0A7E00020E9C7D167F8B
:1007C600B87E0B020E9C90010AE064016003020EE3
:1007D600A57D0A7F64FE020E9C1260C69001ECEEB7
:1007E600F0A3EFF0D394AFEE94005022E09414906F
:1007F60001ECE094004017E49001F0F09001F7F06E
:100806009001A7F09001AAE004F0E40208E190014B
:10081600ECE0FEA3E0FFD394AFEE94004023D3EFC9
:1008260094DEEE9400501AE49001F0F09001F7F097
:100836009001A7F09001AAF09001EBE004F0020805
:10084600E5D3EF94DEEE9400401ED3EF947BEE9456
:100856000250159001F0E004F0E49001F7F09001E9
:10086600A7F09001AAF08073D3EF947BEE94024038
:100876001FD3EF94E5EE94025016E49001F0F09049
:1008860001F7F09001A7E004F0E49001AAF0804B94
:10089600D3EF94E5EE9402401FD3EF94A0EE9403B9
:1008A6005016E49001F0F09001F7E004F0E49001B6
:1008B600A7F09001AAF08023900112E04420F054A2
:1008C600E04409F09001F17407F0E49001F0F09033
:1008D60001F7F09001A7F09001AAF09001EBF090DB
:1008E60001F0E0D394037480948050309001F7E0D7
:1008F60094037480948050249001A7E0940374803C
:10090600948050189001AAE0940374809480500C4F
:100916009001EBE0940374809480401F900162E0A4
:100926006401701790010AE07011900112E0C4137F
:10093600540713500690010A7401F09001AAE0646E
:100946000A701C9001F17406F0E49001AAF090017F
:1009560014E054FDF054FBF0900112E054DFF090E7
:1009660001EBE0640A701C9001F17419F0E4900147
:10097600EBF0900114E04402F054FBF0900112E019
:1009860054DFF09001F0E0640A701AA37407F0E4F3
:100996009001F0F0900114E054FBF054FDF090014A
:1009A60012E054DFF09001A7E0640A701C9001F198
:1009B600741AF0E49001A7F0900114E04404F05496
:1009C600FDF0900112E054DFF09001F7E0640A7048
:1009D6001C9001F17408F0E49001F7F0900114E026
:1009E60054FBF054FDF0900112E054DFF09001F159
:1009F600E0541FFF900113E054E04FF09001ECE04B
:100A0600FEA3E0FFD394DEEE94004009D3EF9415E5
:100A1600EE9403400D9001F6E004F0E49001F5F049
:100A2600800BE49001F6F09001F5E004F09001F6F9
:100A3600E0640A701FF0900112E0FFC41313540320
:100A4600135021EFC4135407134019900114E044C6
:100A560008F080109001F5E0640A7008F090011427
:100A6600E054F7F090010AE07D1570067F64FE02FF
:100A76000E9C7FC87E00020E9C90011CE0FFC313F3
:100A8600135003020EA5EF4408F04410F07D087FD2
:100A9600E87E03020E9C125F84EF64016003020B82
:100AA600EE900112E0FFC41313540313402CEF44DD
:100AB60040F0C2EAA280E4339001A0F0E0FF90018A
:100AC600EEE06F6002EFF0A281E4339001A2F0E065
:100AD600FF9001EFE06F6002EFF0900112E0C413A7
:100AE60054071350057D2C020BDF7811E6C4540F12
:100AF60064027044900113E0FF541F6407702CEFEA
:100B0600C413135403134023A3E0FF13401DEF1334
:100B16001313541F134014900113E0C41354071306
:100B260040047D2980027D28020BDF900115E054E8
:100B36001F6409704F020BD67811E6C4540F640780
:100B46007044900113E0FF541F6407702BEFC41329
:100B5600135403134022A3E0FF13401CEF13131397
:100B6600541F134013900113E0C413540713400499
:100B76007D2980027D288061900115E0541F64095B
:100B86007002804C80517811E6C4540F6401705095
:100B9600900113E0FF541F6407702BEFC413135426
:100BA60003134022A3E0FF13401CEF131313541F3B
:100BB600134013900113E0C41354071340047D2A15
:100BC60080027D288013900115E0541F6409700788
:100BD6007D2C7F64FE80067D2B7F647E00124F860F
:100BE6007D187F887E138035900112E054BFF0C2D5
:100BF600EA4480F0A3E054BFF0900162E064017023
:100C06000D90010AE0640170057F821238DB7D2BAE
:100C16007FF47E01124F867D197FF47E01124F8686
:100C2600C2EA22A280E4339001A0F0A281E43390CC
:100C360001A2F09001A0E0FF9001EEE06F60199034
:100C46000112E0C413540713400E9001EEEFF0902A
:100C56000115E054E04414F09001A2E0FF9001EF8A
:100C6600E06F6019900112E0C413540713400E9010
:100C760001EFEFF0900115E054E04414F0900114F8
:100C8600E0FF134018900117E094FF900116E094DE
:100C960003400AEF4401900114F0124F80900112B4
:100CA600E0541F24FC4003020DBC7003020DA02477
:100CB600EF6056147003020DBC24FE604C04600302
:100CC600020DCA900113E0FFC4131354031340042A
:100CD600EF4440F0900113E0FFC413540713501F74
:100CE600EF54DFF0900115E054E04414F07F137EDA
:100CF60000125EA1EF6008E4FD7F13FE125AE39036
:100D06000114E054EFF0020DCA900113E0FFC41382
:100D1600540713402F90011CE0134028900112E065
:100D2600C41313540313401CEF4420A3F07F137E17
:100D360000125EA1EF70087D017F13FE125AE312C6
:100D46004F808035900112E0FF541F6415702A9081
:100D5600010AE064017022EFC4131354031340190F
:100D6600E4F0FD7F10FE125AE390011CE0FF13131E
:100D7600543F135004EF54FBF090011CE01313543E
:100D86003F1350087811E654F04402F6900113E040
:100D960054BFF0A3E04410F0802A900113E054BF42
:100DA600F090011CE01313543F1350187811E654C9
:100DB600F04402F6800E900114E04410F090011306
:100DC600E054BFF07D1A7F887E13020E9C125F846A
:100DD600EF64017027900162E06401700E90010AD1
:100DE600E070087D167F64FE124F86900115E05470
:100DF600E04414F07D187F647E00801020A602C2B5
:100E0600EA7D2B124F827D197F887E13124F86C290
:100E1600EA22900115E0541F640E7003020EA57FAE
:100E26000E8036900115E0541F640D60727F0D80B0
:100E360028900115E0541F640F60647F0F801A909C
:100E46000115E0541F641060567F10800C90011548
:100E5600E0541F640960487F09024372900283E0F0
:100E6600240AF0E0643C7007F090028BE004F090F6
:100E7600028BE0643C7007F0900292E004F090026E
:100E860092E064187007F0900291E004F01234C00A
:100E96007D2D7F107E27024F869001207402F0225E
:100EA6000211EEE86480F8E933E83360110460F07B
:100EB600ED33EC337009E8FCE9FDEAFEEBFF2204B2
:100EC60060DED3EB9FEA9EE99DE8C2E78CF0C2F7AD
:100ED60095F0400CE8CCF8E9CDF9EACEFAEBCFFB79
:100EE6001211B985D0F05804700320D5B3E8047008
:100EF600075002B2D50211F892D5EC0460F7E4CCA3
:100F0600C0E0C398F8603B94186008400DD0E0FB41
:100F16000211D0E4FBFAC9FC8028E830E406E4C9F3
:100F2600FBE4CAFCE830E305E4C9CACBFCE8540795
:100F36006010F8C3E913F9EA13FAEB13FBEC13FCA0
:100F4600D8F130F52FC3E49CFCEF9BFFEE9AFEED43
:100F560099FDD0E0FBEF4E4D4C701222DB030211DF
:100F6600F5EC2CFCEF33FFEE33FEED33FDED30E711
:100F7600EB0211D0EF2BFFEE3AFEED39FDD0E0FB90
:100F860050130BBB00030211F8ED13FDEE13FEEF39
:080F960013FFEC13FC0211D063
:100F9E00EC4D6011E8497017ED33EC3304600DE44D
:100FAE00FCFFFEFD22E933E8330470F80211EE1265
:100FBE0011B958046009E4CC248150062850090266
:100FCE0011F82840030211F5C0E0EB4A7044B980D5
:100FDE0006D0E0FB0211E4EF4E701CBD8008EBFF63
:100FEE00EAFEE9FD80EBE98DF0A4FEE5F002108744
:100FFE00E9CDF9EAFEEBFFEF89F0A4FCE5F0CE892E
:10100E00F0A42EFFE435F0CD89F0A42DFEE435F0EA
:10101E008067EF4E7005BD80D780C3EF8BF0A4AC18
:10102E00F0EE8BF0A42CFCE435F0F8EF8AF0A42C53
:10103E00E5F038FCE433CB8DF0A42CFCE5F03BF866
:10104E00EE8AF0A42CFCE5F038F8E433CF89F0A456
:10105E002CFCE5F038CF3400CE89F0A42FFFE5F05C
:10106E003EFEE433C98DF0A42EFEE5F039CD8AF0B4
:10107E00A42FFFE5F03EFEE43DFD33D0E0FB50072C
:10108E000BBB000F0211F8EC2CFCEF33FFEE33FE1E
:06109E00ED33FD0211D04C
:1010A4000211F8EC5D046005E8590470030211EEC6
