:03000000023C8936
:0C3C8900787FE4F6D8FD758179023CD00C
:102339000D0A507265762E46573A25303278253087
:10234900327825303278000D0A437572722E46575D
:102359003A253032782530327825303278000D0A26
:1023690043616E6E6F7420616363657373204545C5
:1023790050524F4D21212121000D0A4E6F20696EC7
:10238900697469616C697A65000D0A285345545F5F
:1023990050574D3D253032782076616C3D253032DD
:1023A9007829000D0A3D3D3D3D3D3D3D3D3D3D3DCD
:1023B9003D3D3D3D3D3D3D3D3D3D3D3D3D3D3D3D44
:1023C9003D3D3D3D3D3D3D000D0A53797374656DBD
:1023D90020686173206265656E20776F726B696E24
:1023E9006720666F7220256420646179732C20252B
:1023F9006420686F7572732C202564206D696E7571
:1024090074657320616E64202564207365636F6E43
:102419006473000D0A53797374656D2068617320C4
:102429006265656E20776F726B696E6720666F7281
:1024390020256420686F7572732C202564206D69CE
:102449006E7574657320616E6420256420736563FD
:102459006F6E6473000D0A53797374656D2068613A
:1024690073206265656E20776F726B696E6720668F
:102479006F72202564206D696E7574657320616EB5
:1024890064202564207365636F6E6473000D0A53BD
:10249900797374656D20686173206265656E207754
:1024A9006F726B696E6720666F7220256420736591
:1024B900636F6E6473000D0A2842617474657279E2
:1024C9004254483D25642825642E2564562929004F
:1024D9002854454D505F48494748290028484947ED
:1024E900485F544D45505F5741524E290028544585
:1024F9004D505F4C4F572900284C4F575F544D455D
:10250900505F5741524E29002854454D505F4E4F58
:10251900524D414C29000D0A284261747465727943
:102529004341503D25642825642E253034645629BD
:102539002928256456290028484947485F434841C6
:102549005247452900284C4F575F43484152474558
:102559002900284E4F524D414C5F4348415247454F
:1025690029002853544F505F434841524745290099
:10257900284348415247455F4E4F5F4241545429D1
:1025890000285F424154545F5354415455535F43AB
:10259900415041434954595F4C4556454C302900F7
:1025A900285F424154545F5354415455535F43414A
:1025B9005041434954595F4C4556454C31290028EF
:1025C9005F424154545F5354415455535F43415002
:1025D90041434954595F4C4556454C322900285FBF
:1025E900424154545F5354415455535F4341504100
:1025F900434954595F4C4556454C332900285F429D
:102609004154545F5354415455535F4341504143DE
:102619004954595F4C4556454C342900285F42417D
:1026290054545F5354415455535F434150414349B6
:1026390054595F4D494E2900285F424154545F5314
:1026490054415455535F43415041434954595F4D97
:1026590041582900285F424154545F53544154550D
:10266900535F43415041434954595F4D41585F536A
:10267900544F50290028424154544552595F43410F
:102689005041434954595F4E4F5F53544152545539
:10269900502900285F424154545F535441545553C3
:1026A9005F4E4F5F424154542900284348415247E5
:1026B900455F544D45505F41424E4F524D414C2963
:1026C900000D0A285F504F5745525F5354415455E6
:1026D900535F534156494E4729000D0A285F504F11
:1026E9005745525F5354415455535F4F464629004D
:1026F9000D0A285F504F5745525F53544154555363
:102709005F4E4F524D414C29000D0A28504F5745F5
:0D271900525F5354415455533D256429002F
:10329A0041027B0041027C0041027000410272003F
:1032AA004102730041026E004102670041027D0043
:1032BA0002400000014600C101C18002470000012E
:1032CA004400014500027400000469000000000483
:1032DA006D00000000C10441026801017200014250
:1032EA0000014300C102C1034102710041026900A9
:1032FA004102740044027700000000420275000097
:1036FA0012429E9001CD1214E67F047E00124659B2
:10370A007E00C007C0067F051246597E00C007C06A
:10371A00067F061246599001DBE4F0A3EFF0900110
:10372A00D9D0E0F0A3D0E0F09001D7D0E0F0A3D058
:10373A00E0F07BFF7A23793912448512429EE47BBA
:10374A0021FAF9F8C31214A1605F7BFF7A2379503A
:10375A00E49001D7F0A3F0A3F0A3F0A3F0A374219F
:10376A00F012448512477F7F047E001246597E007C
:10377A00C007C0067F051246597E00C007C0067FF3
:10378A00061246599001DBE4F0A3EFF09001D9D07C
:10379A00E0F0A3D0E0F09001D7D0E0F0A3D0E0F0C1
:1037AA007BFF7A23795012448512429EE47B21FAE8
:1037BA00F9F8C31214A1700B124332EF701E1242B1
:1037CA000280197BFF7A2379671244857BFF7A236B
:1037DA00798212448590012A74FFF0227F6412478D
:0E37EA00B17811E6540F4410F654F04402F684
:0137F80022AE
:1041B300758DF4759850758922758855758A407583
:1041C3008C4075878075B80275A892D299D2ACE4F9
:1041D300F5C8C2CAD2AD75AA5075BAF443A618433E
:1041E300AD10C203F5E9F5F975D90443D8404393FB
:0F41F300A043918475B10CF5B275B30CF5B422ED
:1047E1003085107F327E0012479C3085037F012285
:0647F1007F00227F002280
:1040FA009001D2EFF0A3EDF07BFF7A237992900141
:10410A00D7E4F0A3EFF0EDFFA3E4F0A3EFF012443D
:10411A00859001D2E0603B24EB60212416602F24B5
:10412A00EB703275EC809001D3E0FFC374FF9FF50A
:10413A00FC75DC42EF701EF5DCC2942275ED8090AE
:10414A0001D3E0FFC374FF9FF5FD75DD422243D81A
:06415A00402253D8402270
:03000B00022B0EB7
:0B2B0E00C0E0C083C082C0D075D008BA
:102B190005730545C3E545940A7480948040139074
:102B2900017EE004F0700690017DE004F075450037
:102B3900D20C90026FE0600214F090026FE0600323
:102B4900022CBBE5B0540C13135403FF90027AE036
:102B59006F7003022CBB900278E0900277F090022C
:102B690079E0900278F090027AE0900279F0A3EF90
:102B7900F0D20590026F7430F0900277E0FF7E008A
:102B89007020A3E06401701AA3E064037014A3E049
:102B99006402700E900276E004F07006900275E00F
:102BA90004F0EF64014E7020900278E0640370181D
:102BB900A3E064027012A3E0700E900276E004F0C4
:102BC9007006900275E004F0900277E06403701ECD
:102BD900A3E064027018A3E07014A3E06401700E0E
:102BE900900276E004F07006900275E004F090021D
:102BF90077E0FF7E006402701EA3E0701AA3E06410
:102C0900017014A3E06403700E900276E004F07082
:102C190006900275E004F0EF4E7022900278E064AD
:102C290002701AA3E064037014A3E06401700E90AB
:102C39000276E024FFF0900275E034FFF09002770D
:102C4900E06402701EA3E064037018A3E0640170DD
:102C590012A3E0700E900276E024FFF0900275E076
:102C690034FFF0900277E0FF7E006403701EA3E05A
:102C790064017018A3E07014A3E06402700E90025E
:102C890076E024FFF0900275E034FFF0EF64014E26
:102C99007020900278E0701AA3E064027014A3E037
:102CA9006403700E900276E024FFF0900275E03420
:102CB900FFF0D3E5739460748094805003022DBAB9
:102CC900054AE54A700205497573000544E54464FF
:102CD900647010F544E5469002716005E004F080E7
:102CE90002E4F0E575F47003E574F460080575E530
:102CF9007570020574AF70AE6FAD6EAC6DEC4D4E74
:102D09004F6014EF24FFF570EE34FFF56FED34FFDB
:102D1900F56EEC34FFF56D90026AE07002A3E06095
:102D29000E90026BE024FFF090026AE034FFF0E5B8
:102D3900E8F4FF131313541F30E04CE541643245A6
:102D490040701A900106E0600B7811E6FFC4540F39
:102D590064077029754601C200D2018020E541B49B
:102D6900201BE540B4031630000D754601D20190D1
:102D7900027D7401F0C2007540007541330541E5DB
:102D890041702E0540802AC3E5419432E540940004
:102D99004012900106E06401700A3000077546018F
:102DA900D2018005754600C201D200754000754107
:012DB9000019
:092DBA00D0D0D082D083D0E032E9
:102726007BFF7A2379AC7F011243C0900272E0FFEF
:1027360060327BFF7A2379D19001D7E4F0A3EFF0E2
:10274600900273E0FF9001D9E4F0A3EFF090026EDF
:10275600E0FF9001DBE4F0A3EFF0900267E0FF906A
:1027660001DD8057900273E0FF60257BFF7A2479B4
:102776001C9001D7E4F0A3EFF090026EE0FF900109
:10278600D9E4F0A3EFF0900267E0FF9001DB802B25
:1027960090026EE0FF7BFF60167A24795E9001D787
:1027A600E4F0A3EFF0900267E0FF9001D9800C7A85
:1027B600247996900267E0FF9001D7E4F0A3EFF04A
:1027C6007F031243C09001C0E0FEA3E0FF9001D753
:1027D600EEF0A3EFF07805C333CE33CED8F9FBAADB
:1027E600067C277D10FF1212279001D9EEF0A3EF89
:1027F600F07C277D10AF03AE02121227A3ECF0A3E4
:10280600EDF07BFF7A2479BF7F021243C090010E60
:10281600E0541F6406700A7BFF7A2479D97F018011
:102826004290010FE0C31313500A7BFF7A2479E527
:102836007F03802F90010EE0541F6408700A7BFF0F
:102846007A2479F67F04801B90010FE01313543F1E
:10285600137BFF50087A2579017F0380067A257954
:10286600117F021243C0900110E0541F64097046A4
:10287600A3E0FEA3E07805C333CE33CED8F9246AAD
:10288600FFEE34FFFE7C277D101212277E007F6448
:10289600CFCDCFCECCCE121227AA06AB0790011110
:1028A600E0FEA3E07805C333CE33CED8F9246AFF21
:1028B600EE34FFFE803A900111E0FEA3E07805C3F6
:1028C60033CE33CED8F9FF7C277D101212277E0037
:1028D6007F64CFCDCFCECCCE121227AA06AB0790FF
:1028E6000111E0FEA3E07805C333CE33CED8F9FF5D
:1028F6007C277D101212277C007D64121215EF2BA7
:10290600FFEE3AFE9001D1F0A3EFF07D37121215DB
:102916007D641212279001D1EEF0A3EFF090011121
:10292600E0FEA3E0FF9001D7EEF0A3EFF07805C339
:1029360033CE33CED8F9FBAA067C277D10FF1212C0
:10294600279001D9EEF0A3EFF07C277D10AF03AE00
:1029560002121227A3ECF0A3EDF09001D1E0FFA341
:10296600E09001DDCFF0A3EFF07BFF7A25791F7FA2
:10297600051243C0900110E0541F640D700A7BFFDE
:102986007A2579407F02804E900110E0541F640E34
:10299600700A7BFF7A25794E7F03803A900110E01A
:1029A600541F640F700A7BFF7A25795B7F058026AA
:1029B600900110E0541F6410700A7BFF7A25796B32
:1029C6007F018012900110E0541F6409700B7BFF99
:1029D6007A2579797F011243C090010DE0541F6476
:1029E6000470087BFF7A25798A804490010DE054B3
:1029F6001F640370087BFF7A2579A9803290010D48
:102A0600E0541F640270087BFF7A2579C880209005
:102A1600010DE0541F640170087BFF7A2579E78079
:102A26000E90010DE0541F700A7BFF7A2679067F0F
:102A360002806290010DE0541F6415700A7BFF7AD4
:102A46002679257F04804E90010DE0541F64167090
:102A56000A7BFF7A2679417F06803A90010DE05481
:102A66001F6417700A7BFF7A26795D7F05802690A2
:102A7600010DE0541F6418700A7BFF7A26797E7F69
:102A860005801290010DE0541F6409700B7BFF7ADC
:102A960026799C7F011243C090010FE01313135453
:102AA6001F13500B7BFF7A2679B37F011243C07840
:102AB60011E6C4540F640770087BFF7A2679CA8032
:102AC600377811E6C4540F640170087BFF7A2679C3
:102AD600E380257811E6C4540F64027BFF70067A02
:102AE6002679F980137A2779127811E6C4540FFFF4
:102AF6009001D7E4F0A3EFF07F061243C07BFF7A84
:082B06002379AC7F010243C0FA
:1047F700E4FFEFC3941D74809480500974222FF84E
:05480700E4F60F80ED56
:01480C002289
:103F9200EF24E6B40A005070903FA875F003A4C560
:103FA2008325F0C58373023FD2023FC6023FD0028F
:103FB2003FCB023FD402400A023FDC023FE6023F0F
:103FC200F3023FFFD2E9D2E822D2E8C2E922800519
:103FD200801530E817C2E8D2E92230E905C2E9D2F9
:103FE200E822800830E805C2E8C2E922D2E8D2E934
:103FF2002230E904C2E98002D2E9C2E82230E804B0
:09400200C2E88002D2E8C2E92202
:03001300020026C2
:03002600C2AA3239
:030023000245A8EB
:1045A800C0E0C0D075D008309819744B2571F8A6B2
:1045B800990571C3E571941E7480948040037571E8
:0F45C80000C298309904C299C202D0D0D0E0321C
:0300630002450152
:10450100C0E0C0D075D008E5AA54016401701A5307
:10451100AAFE74222542F8A69A0542C3E542941EDA
:10452100748094804003754200E5AA5402640270CD
:0B4531000553AAFDC203D0D0D0E03239
:0B48AD00E542B543037F00227F01229B
:1047460053ADEF74222543F8E6FF0543E543C394D2
:0D4756001E748094804003E4F54343AD10D1
:014763002233
:080003002003FD8F9AD20322B5
:03002B00024892F6
:0F489200C0E0C2CF0548E54870020547D0E032CC
:1047B100E5442FFFE433FE7C007D64121227E544BB
:0747C100B505FBE4B504F7A8
:0147C80022CE
:10485D000D0A436C656172426173696345452E2E85
:02486D002E001B
:10429E007E007D007C007F05124659EF7F00FEC038
:1042AE0007C0067F047E001246597E00EF7810C3C9
:1042BE0033CE33CED8F9FDD0E04EFED0E04DFFC068
:1042CE0007C0067F067E00124659EFFDD0E0FED0F5
:0942DE00E04DFFEE3395E0FDFC1C
:0142E70022B4
:104332009001D17401F0E4FFFE124659EF6430603F
:10434200037F00227F017E00124659EF643760032B
:104352007F00227F027E00124659EF643060037FA5
:1043620000227F037E00124659EF644960037F00FA
:06437200229001D1E0FFE2
:014378002222
:10477F00E4FD7F04FE124379E4FD7F05FE124379C9
:09478F007D217F067E00024379C2
:104202007BFF7A48795D1244857D30E4FFFE1243DC
:10421200797D377F017E001243797D307F027E00F7
:104222001243797D497F037E001243797D017F101D
:104232007E001243797D277F117E00124379E4FDCF
:0E4242007F07FE124379E4FD7F12FE024379EE
:04330A004101050078
:091F41001248ADEF7003022338D1
:101F4A001247469001CDEFF07E00647E700DC20B01
:101F5A0090010504F0E4900003F022EF647D4E70D6
:101F6A0003D20B22300B09C20B9001CDE04470F072
:101F7A00900105E0FB64046010900003E0FE90010C
:101F8A00CDE0FDEE6D900003F0EB24FE602E1460B0
:101F9A005B14700302203A24036003022338900181
:101FAA00CDE0900002F01424F8500A24F924FD50E0
:101FBA000424E370349001057402F0229001CDE00C
:101FCA00900001F0A3E01424F8500A24F924FD50EB
:101FDA000424E37014900001E070028049E4900048
:101FEA0000F09001057403F022022333900002E00E
:101FFA001424F8500A24F924FD500424E3702E9086
:10200A0001CDE0FF900000E02405F582E43400F5FC
:10201A0083EFF0900000E004F0A3E0FF900000E0FE
:10202A006F60030223389001057404F022022333FF
:10203A009001CDE0FF900003E06F6003022333902C
:10204A000002E012154320780120B10220CB0320C0
:10205A00D40420DD0521EE06222B07230E08225682
:10206A0010225F1122C9122303300000233390018A
:10207A0016E04401F0900110E054E04414F090019D
:10208A0016E0FF131313541F13500EEF54F7F07F8B
:10209A0013122DC37F07124406900116E0C31313CF
:1020AA00500302233380117F19124406900116E06F
:1020BA00C3131350030223337D197F107E27022393
:1020CA00097D057FE87E030223097D067FE87E03FA
:1020DA00022309900005E0FDC4540F75F00AA4FF1D
:1020EA00ED540F7C002FFDEC35F0FC120FDB900154
:1020FA00381214E6900006E0FDC4540F75F00AA4E5
:10210A00FFED540F7C002FFDEC35F0FC120FDB9035
:10211A0001261214E6900007E0FDC4540F75F00A78
:10212A00A4FFED540F7C002FFDEC35F0FC120FDB01
:10213A0090013C1214E6900008E0FDC4540F75F0BB
:10214A000AA4FFED540F7C002FFDEC35F0FC120FB2
:10215A00DB90012B1214E6900009E0FDC4540F75C0
:10216A00F00AA4FFED540F7C002FFDEC35F0FC12B1
:10217A000FDB9001401214E690000AE0FDC4540FF0
:10218A0075F00AA4FFED540F7C002FFDEC35F0FC2E
:10219A00120FDB90012F1214E690000BE0FDC454DD
:1021AA000F75F00AA4FFED540F7C002FFDEC35F0FB
:1021BA00FC120FDB9001441214E690000CE0FDC4FF
:1021CA00540F75F00AA4FFED540F7C002FFDEC3577
:1021DA00F0FC120FDB9001331214E67D0B7FE87ED0
:1021EA0003022309900005E06013900171E0600486
:1021FA0014F08005E4900171F07D01801A9001715C
:10220A00E0C39428748094805005E004F08006901E
:10221A0001717428F07D027FF47E011238DF0223F7
:10222A0033900005E0FD7C00700A900116E054FD31
:10223A00F0022333ED64014C60030223337F191249
:10224A004406900116E04402F00223337D037FE83E
:10225A007E03022309900005E07032900116E054D3
:10226A00FEF07F191244067F1E1244067F1F124495
:10227A00067F201244067F211244067F221244065A
:10228A007F231244067D217F647E008072900005C0
:10229A00E064017008900116E0440880149000057B
:1022AA00E064026003022333900116E04408F0441C
:1022BA0010F07D077FE87E031238007F1980359081
:1022CA000005E0FD7C0064017009900116E054BF2E
:1022DA00F0801F900106E064017017ED4C701390B6
:1022EA000116E054BFF0E4900106F0FD7F10FE12E3
:1022FA0043797F0912440680307D0A7FE87E031203
:10230A0038008025900005E0640170107D017F127D
:10231A00FE1243799001377401F0800DE4FD7F12BB
:0E232A00FE124379E4900137F0E4900105F0D3
:012338002282
:044822009291D2900D
:0F482600E4FFEFC394017480948050030F80F37C
:014835002260
:0B4379009001D1EEF0A3EFF0A3EDF0F7
:104384009001D1E0FEA3E07807CEC313CE13D8F991
:1043940044A054FE9001D4F012486F9001D4E0FF81
:1043A400123E9C9001D1A3E0FF123E9C9001D3E009
:0C43B400FF123E9C1200167F020247B16F
:04465900AD07AC06F7
:10465D00ED7807CEC313CE13D8F944A054FEFF1244
:10466D00453C9001F5EFF07F021247B19001F5E066
:01467D00FF3D
:01467E002219
:08453C009001F6EFF0A3EDF091
:1045440012486F9001F6E0FF123E9C9001F7E0FFE5
:10455400123E9C12486F9001F6E04401FF123E9C0B
:1045640012002E9001F8EFF01200169001F8E0FF0F
:014574002224
:10486F00D291124826D290124826C291124826C2DF
:02487F00902285
:0D001600C291124826D290124826D29122A3
:103E9C00AE07C290EE30E703D38001C3124822C2B2
:103EAC0090EE30E603D38001C3124822C290EE306C
:103EBC00E503D38001C3124822C290EE30E403D351
:103ECC008001C3124822C290EE30E303D38001C3B9
:103EDC00124822C290EE30E203D38001C312482272
:103EEC00C290EE30E103D38001C3124822C290EE9F
:103EFC0030E003D38001C3124822C290C290C2901A
:0B3F0C00D291D290D290D290C29022AD
:10002E00E4FED291124826C290E4FDFCD290EE2559
:10003E00E0FE3091034401FEC2900DBD00010CEDB7
:10004E0064084C70E7124826D290D290D290C2909B
:02005E00AF06EB
:01006000227D
:103E1E00AE07C290EE30E703D38001C3124822C230
:103E2E0090EE30E603D38001C3124822C290EE30EA
:103E3E00E503D38001C3124822C290EE30E403D3CF
:103E4E008001C3124822C290EE30E303D38001C337
:103E5E00124822C290EE30E203D38001C3124822F0
:103E6E00C290EE30E103D38001C3124822C290EE1D
:103E7E0030E003D38001C3124822C290C290C29098
:0E3E8E00D291124826D290D290D290C29022A9
:0446E700AB07AA066D
:1046EB007E5E12486F7F5E123E1EAF03123E1EAF00
:0C46FB0005123E1E1200167F020247B19D
:1045D7007F01124764EF602590027DE0640170144B
:1045E700900106E06401700C90027DF07D047FF479
:0E45F7007E0180067D137F647E001238002254
:10476400A2019209C2012009037F0022EF6003AF76
:0A4774004622200003AF46227F001A
:01477E002218
:103F17000D0A5374617274204D61696E204C6F6F86
:103F2700702E2E2E000D0A537461727420426F6F2B
:103F3700742E2E2E000D0A2843616D657261566F2F
:103F47006C743D256429000D0A2850535720676F6C
:103F5700696E6720746F20706F776572206F666671
:103F67002E2E2E29000D0A28537461727420757045
:103F77002020506F776572204F6E204D6F64652E3D
:0B3F87002E2E290000000000000000AA
:10330E0046010D00000000000042011600004401BD
:10331E00210000000042011300004101150041018F
:10332E00250041011E0042011F00004401383F806C
:10333E00000044013C3F8000004401403F800000FB
:10334E004401443F80000044012600000000440177
:10335E002B0000000044012F000000004401330048
:10336E000000004601070000002800154601180065
:10337E000000280015602901480506080A0B0D0FEC
:10338E0010121416181A1C1E202225272A2C2F3232
:10339E0035383B3E4245484B5055585D61666B7023
:0233AE00757A2E
:1045750075E5028DE39001D6E0F5E412118BF5E2C5
:1045850075E64675E6B9740129F9E43AFA9001D65B
:10459500E004F0E070030D8DE39001D7E014F0E046
:0345A50070D322AE
:04000E0075E78122EF
:1046C600E49001D1F012000E7B017A0179D19001BC
:1046D600D674FFF0A37401F07DEF12457575E7609F
:0146E60022B1
:103B4C00FF6DFD90020F7401F0A37402F0A3740AD0
:0A3B5C00F0EFA3F07B017A0179FA83
:103B660090020CEBF0A3EAF0A3E9F0900212E0FF5A
:103B7600647E6005EF647D703F90020FE0FBA3E07A
:103B8600FAA3E0F912118BFF90020CE0FBA3E0FA16
:103B9600A3E0F98F82758300747D1211F390020FF2
:103BA600E0FBA3E0FAA3E0F974011211D19002122E
:103BB600E0540F4450FF8010900212E0FF90020F75
:103BC600E0FBA3E0FAA3E0F912118BFE90020CE0F1
:103BD600FBA3E0FAA3E0F98E82758300EF1211F3DE
:103BE60090020FE0FBA3E0FAA3E0F974011211D1F1
:033BF6007F00222B
:0B3BF9009001F6EBF0A3EAF0A3E9F066
:103C04009001FA747EF090020A7401F0EF123B4EB8
:103C14009001F9E0123B4CE490020BF09001F9E0C2
:103C2400FF90020BE0FEC39F501E9001F6E0FBA341
:103C3400E0FAA3E0F98E827583001211A4123B4CC2
:103C440090020BE004F080D490020F7401F0A3748E
:103C540002F0A3740AF0ED123B5EE490020BF090C4
:103C6400020AE0FFA3E0FEC39F501774FA2EF58208
:103C7400E43401F583E0FF12000390020BE004F04A
:043C840080DD7F0060
:013C88002219
:053061009001EDEFF00D
:1030660078EE7C017D017BFF7A3F798B7E007F07BE
:103076001211659001EDE0247F604E147003023258
:103086004D147003023278147003023288240460EF
:10309600030232997F047E001246599001EEEFF04A
:1030A6007F057E001246599001EFEFF07F067E0005
:1030B6001246599001F0EFF07B017A0179EE90010A
:1030C600F97403F07F80023296900111E0FEA3E0CE
:1030D6007805C333CE33CED8F9FF7C277D10121284
:1030E600277E007F64CFCDCFCECCCE121227AA0684
:1030F600AB07900111E0FEA3E07805C333CE33CED3
:10310600D8F9FF7C277D101212277C007D641212ED
:1031160015EF2BFFEE3AFE7D371212157D64121263
:10312600279001EEEFF09001C0E0FCA3E0FDEC90EB
:1031360001F0F0EDA3F0900115E0FF75F00A84C4EC
:1031460054F0FEEF75F00A84E5F04E9001F2F0902F
:10315600011FE0FEA3E0FF7C007D0A121227EFC4E8
:1031660054F0FB90011FE0FEA3E0FF7C007D0A12F5
:103176001227EB4D9001F3F0900125E09001F4F059
:1031860090010DE0F9C4131354031350079001EF97
:10319600E04401F090010EE0541FFD7C00640670CF
:1031A600079001EFE04402F0ED64084C70079001CF
:1031B600EFE04404F0E9C41354071350079001EFFD
:1031C600E04408F090010FE0FD1350079001EFE096
:1031D6004410F0EDC3131350079001EFE04420F0C4
:1031E60090010FE01313543F1350079001EFE04492
:1031F60040F020804230813FD39001C1E0945A9044
:1032060001C0E09400403090010EE0FFC413135457
:1032160003134023EF541F6407701CA3E01313131A
:10322600541F13401290010DE0C4135407134007B6
:103236009001EFE04480F07B017A0179EE9001F98C
:103246007407F07F81804990010DE0FFC4131313CA
:10325600540113500D9001EE7401F0EF547F90016C
:103266000DF07B017A0179EE9001F97401F07F820D
:10327600801E7B017A0179EE9001F97401F07F835B
:10328600800E7B017A0179EE9001F97401F07F845A
:03329600123BF9EF
:013299002212
:104160001246A47D147F017E001238007D107F016D
:104170007E001238007D157FE87E031238007D1224
:104180007F017E001238007D1E7F017E0012380004
:104190007D0F7F017E001238007D2B7F107E27125D
:1041A00038007D177F107E2712380090010DE04403
:0341B00040F022BA
:103456009001D3EEF0A3EFF0A3EBF0A3EAF0A3E91B
:01346600F075
:10346700900004121309FDD3EF9DE5F06480F8EE98
:10347700648098400302350A9001DBE0FBA3E0FA81
:10348700A3E0F9900004121309FFAEF01212DEFD5B
:10349700C3EF9DFFEE95F09001DEF0A3EFF09001F2
:1034A700D5E0FBA3E0FAA3E0F9900004121309FDAD
:1034B700ACF01212DEFBAAF0C3ED9BFFEC9AFE9074
:1034C70001E0F0A3EFF04E7002FF229001D3E0FE7F
:1034D700A3E0FFC3EF9BFFEE9AFE9001DEE0FCA3A3
:1034E700E0FD121215A3E0FCA3E0FD12127CC0065A
:1034F700C0079001DBE0FBA3E0FAA3E0F91212DEBC
:103507000235AE9001DBE0FBA3E0FAA3E0F99000FF
:1035170004121309FFAEF0900002121309C39FFFB4
:10352700E5F09E9001DEF0A3EFF09001D5E0FBA35C
:10353700E0FAA3E0F9900004121309FFAEF090003F
:1035470002121309C39FFFE5F09EFE9001E0F0A36E
:10355700EFF04E7002FF229001D5E0FBA3E0FAA343
:10356700E0F9900004121309FFAEF0AB07AA06902A
:1035770001D3E0FEA3E0FFC3EF9BFFEE9AFE9001AD
:10358700DEE0FCA3E0FD121215A3E0FCA3E0FD12B0
:10359700127CC006C0079001DBE0FBA3E0FAA3E0C2
:1035A700F9900004121309FFAEF0D0E02FFFD0E02E
:1035B7003EF99001D8E0FBA3E0FAA3E0C98FF0122F
:0435C70013417F012C
:0135CB0022DD
:104447007E009001D87401F0A37401F0A374D1F039
:10445700A37401F0A37401F0A37418F07B017A012F
:1044670079071234569001D1E0FEA3E02448F58283
:0E44770074013EF583E0FD7F027E000246E701
:10467F007F107E00124659900106EFF07F117E00E9
:10468F00124659900171EFF07F127E001246599039
:05469F000137EFF022DD
:10470700EF4488F5C5E5C520E3FBAFC6EF75F004B8
:10471700A4FFE5E85403FDEF4DFFE5F05403FE2247
:0748B800E4FE7F0602470742
:0748BF00E4FE7F070247073A
:101B1A00200503021F407F0A7ED77D237C3C90016B
:101B2A0026E0F8A3E0F9A3E0FAA3E0FB120E309056
:101B3A000138E0F8A3E0F9A3E0FAA3E0FB120D3FB5
:101B4A009001D11214E67F0A7ED77D237C3C900156
:101B5A002BE0F8A3E0F9A3E0FAA3E0FB120E309021
:101B6A00013CE0F8A3E0F9A3E0FAA3E0FB120D3F81
:101B7A009001D51214E67F0A7ED77D237C3C900122
:101B8A002FE0F8A3E0F9A3E0FAA3E0FB120E3090ED
:101B9A000140E0F8A3E0F9A3E0FAA3E0FB120D3F4D
:101BAA009001D91214E67F0A7ED77D237C3C9001EE
:101BBA0033E0F8A3E0F9A3E0FAA3E0FB120E3090B9
:101BCA000144E0F8A3E0F9A3E0FAA3E0FB120D3F19
:101BDA009001DD1214E67F007EB07DE57C45900120
:101BEA00D1E0F8A3E0F9A3E0FAA3E0FB120E30E497
:101BFA00FBFA797A7844120F399001E11214E67FE0
:101C0A00E17E987DD27C459001D5E0F8A3E0F9A366
:101C1A00E0FAA3E0FB120E30E4FBFA797A78441278
:101C2A000F399001E1E0F8A3E0F9A3E0FAA3E0FBA1
:101C3A00120D3F9001E51214E67F487EC17D2C7C8F
:101C4A00469001D9E0F8A3E0F9A3E0FAA3E0FB1279
:101C5A000E30E4FBFA797A7844120F399001E5E004
:101C6A00F8A3E0F9A3E0FAA3E0FB120D3F9001E923
:101C7A001214E6900275E0FEA3E0FFC3EE648094BE
:101C8A00804008E4900125F0FC801790012574013A
:101C9A00F0900275E0FEA3E0FFC3E49FFFE49EFE1E
:101CAA007C007D0212127C9001CDEEF0A3EFF09041
:101CBA0001CDE0FEA3E0D394F0EE94004003021DB0
:101CCA0060C3EE94005003021D60E4FFFE7DF57CC4
:101CDA00419001D1E0F8A3E0F9A3E0FAA3E0FB12F6
:101CEA000E30C004C005C006C0079001CDE0FCA3B9
:101CFA00E0FDE4120FDBD003D002D001D000120EB7
:101D0A0030E4FBFA797A7844120F399001211214DF
:101D1A00E6E4FFFE7DF57C419001D1E0F8A3E0F90D
:101D2A00A3E0FAA3E0FB120E30C004C005C006C04F
:101D3A00079001CDE0FCA3E0FDE4120FDBD003D055
:101D4A0002D001D000120E301210149001CFEEF022
:101D5A00A3EFF0021EC69001CDE0FEA3E0FFD394EC
:101D6A00F0EE9400406BD3EF94C2EE940150627F80
:101D7A002F7E5D7D007C429001D5E0F8A3E0F9A3B7
:101D8A00E0FAA3E0FB120E30C004C005C006C0078B
:101D9A009001CEE02410FD9001CDE034FFFCE41266
:101DAA000FDBD003D002D001D000120E30E4FBFAD0
:101DBA00797A7844120F399001E1E0F8A3E0F9A3A7
:101DCA00E0FAA3E0FB120D3F9001211214E6021E75
:101DDA00C69001CDE0FEA3E0FFD394C2EE94014089
:101DEA006AD3EF940CEE940350617F197E047D064A
:101DFA007C429001D9E0F8A3E0F9A3E0FAA3E0FB62
:101E0A00120E30C004C005C006C0079001CEE024FF
:101E1A003EFD9001CDE034FEFCE4120FDBD003D08E
:101E2A0002D001D000120E30E4FBFA797A7844121B
:101E3A000F399001E5E0F8A3E0F9A3E0FAA3E0FB8B
:101E4A00120D3F9001211214E68071D39001CEE069
:101E5A00940C9001CDE094035003021F247F817EED
:101E6A00957D0B7C429001DDE0F8A3E0F9A3E0FA4E
:101E7A00A3E0FB120E30C004C005C006C0079001E3
:101E8A00CEE024F4FD9001CDE034FCFCE4120FDB3B
:101E9A00D003D002D001D000120E30E4FBFA797AD6
:101EAA007844120F399001E9E0F8A3E0F9A3E0FAC7
:101EBA00A3E0FB120D3F9001211214E67FCD7ECCE8
:101ECA007D4C7C3D900121E0F8A3E0F9A3E0FAA360
:101EDA00E0FB120D3F121014900115EFF07FCD7E3A
:101EEA00CC7D4C7C3D900121E0F8A3E0F9A3E0FA17
:101EFA00A3E0FB120D3FE4FBFA79C87842120E30D8
:101F0A0012101490011FEEF0A3EFF07C007D641212
:101F1A00122790011FECF0A3EDF0C205900116E024
:101F2A001350137F811230617F2B1244067D2B7F61
:061F3A00E87E03123800EE
:011F4000227E
:104727007BFF7A3F7917124485121F41123D1512FC
:0F4737003D9A1245D7121B1A900106E070EB2233
:10400B001241B31246317BFF7A3F792C1244851251
:10401B0036FAD2B4D2B51247F712467F12416090EE
:10402B000171E0FF1244477BFF7A3F793C900171AD
:10403B00E0FF9001D7E4F0A3EFF012448590013735
:10404B00E06401700590010604F0900106E0640144
:10405B0078117008E654F04402F6800BE6540F44D6
:10406B0020F654F04401F6C200900106E0640170A2
:09407B000312472712408480F073
:104084007BFF7A3F794E1244857811E654F044015F
:10409400F6900116E054FEF07F19124406900116C2
:1040A400E054BFF07F09124406123D9A123D1512E6
:1040B40045D7900106E0640170EFE4900275F0A327
:1040C400F0900115F090011FF0A3F0900125F0F598
:1040D40042F54390010FE054FEF0A3E054E0441491
:1040E400F07811E654F04402F67BFF7A3F796C12C3
:0640F400448575E720225F
:1033B00001108A41021900C187C10841021740C1AA
:0133C0008686
:104250001B5B306D001B5B303B33316D001B5B30F3
:104260003B33326D001B5B303B33336D001B5B30E7
:104270003B33346D001B5B303B33356D001B5B30D3
:104280003B33366D001B5B303B33376D00303132D2
:0E429000333435363738394142434445460011
:1033C10058024FFF4250FF4255FF425DFF4265FFE9
:0B33D100426DFF4275FF427DFF428508
:0815C400E0FBA3E0FAA3E0F94B
:0B15CC00900202EBF0A3EAF0A3E9F0AC
:1015D7009002101214F200000001900202E0FBA337
:1015E700E475F0011212C8A9F0FA12118B900208E3
:1015F700F07003021B1924DB701B900202E0FBA3AF
:10160700E0FAA3E0F912118BB42513900203E475F5
:10161700F0011212B22002FD900208021AEFC2096D
:10162700C20AE490020FF0900202E0FBA3E475F017
:10163700011212C8A9F0FA12118B900208F0E0FD0E
:10164700B4301BD209900202E0FBA3E475F001124B
:1016570012C8A9F0FA12118B900208F0801FEDFF53
:101667003395E0FEC3EF9430EE64809480402CD332
:10167700EF9439EE648094805021900208E024D0E2
:1016870090020FF0900202E0FBA3E475F001121242
:10169700C8A9F0FA12118B900208F090020E74029A
:1016A700F0900208E024BE602B24E0602724F66057
:1016B700042420703C900202E0FBA3E475F00112C1
:1016C70012C8A9F0FA12118B900208F090020E745A
:1016D70004F0801D900202E0FBA3E475F0011212F2
:1016E700C8A9F0FA12118B900208F090020E74014B
:1016F700F0900208E0FF24A870030219A824F570EF
:1017070003021AC424F07003021A7724FE600E2421
:10171700FD70030219A824146003021AF790020E41
:10172700E024FE604224FE607B240360030217C8A6
:10173700EF900205B46419E0FBA3E475F0011212FF
:10174700C8A9F0FA12118BFF3395E0FEFDFC806B00
:10175700E0FBA3E475F0011212C8A9F0FA12118B8D
:10176700FFE4FCFDFE8054900208E0900205B4649B
:101777001BE0FBA3E475F0021212C8A9F0FA1212DB
:10178700DEFFAEF0EE3395E0FDFC8016E0FBA3E450
:1017970075F0021212C8A9F0FA1212DEFFAEF0E4D9
:1017A700FCFD8017900208E0900205E0FBA3E475BA
:1017B700F0041212C8A9F0FA1214C690020A121401
:1017C700E690020AE0FCA3E0FDA3E0FEA3E0FFEC45
:1017D7003350252002FD75992DD20290020AE0FCB4
:1017E700A3E0FDA3E0FEA3E0FF74FFFBFAF9F81204
:1017F700136090020A1214E690020FE060030218C9
:101807008E90020AE0FCA3E0FDA3E0FEA3E0FFEC5C
:101817004D4E4F700B2002FD759930D2020215E133
:10182700E490020FF0A31214F20000000190020FDF
:10183700E0C3940A74809480504D90020AE0FCA3A0
:10184700E0FDA3E0FEA3E0FF900210E0F8A3E0F9BB
:10185700A3E0FAA3E0FB1213EBE4FBFAF9F8C312D7
:1018670014A16023900210E0FCA3E0FDA3E0FEA317
:10187700E0FFE47B0AF81213609002101214E6905E
:10188700020FE004F080A6E4900209F09002101223
:1018970014F20000000190020FE024FFFFE434FF80
:1018A700FE900209E0FD3395E0FCC3ED9FEE6480F6
:1018B700F8EC6480985025900210E0FCA3E0FDA3AB
:1018C700E0FEA3E0FFE47B0AFAF9F8121360900246
:1018D700101214E6900209E004F080BA90020AE0C0
:1018E700FCA3E0FDA3E0FEA3E0FF900210E0F8A355
:1018F700E0F9A3E0FAA3E0FB1213EBEF2430FF902B
:101907000208F0BF3025200922E47F01FEFDFC908C
:101917000210E0F8A3E0F9A3E0FAA3E0FBC3121476
:10192700A160089002087420F08002D2092002FD0D
:10193700900208E0F599D20290020AE0FCA3E0FDCC
:10194700A3E0FEA3E0FF900210E0F8A3E0F9A3E014
:10195700FAA3E0FB1213EBAC00AD01AE02AF0390AC
:10196700020A1214E6900210E0FCA3E0FDA3E0FED9
:10197700A3E0FFE47B0AFAF9F81213EB90021012C6
:1019870014E6E4FFFEFDFC900210E0F8A3E0F9A3E3
:10199700E0FAA3E0FBC31214A160030218E30215E7
:1019A700E190020EE024FE602224FE6039240370D9
:1019B7004E900205E0FBA3E475F0011212C8A9F0EE
:1019C700FA12118BFFE4FCFDFE802E900205E0FB6E
:1019D700A3E475F0021212C8A9F0FA1212DEFFAEE4
:1019E700F0E4FCFD8013900205E0FBA3E475F0042E
:1019F7001212C8A9F0FA1214C690020A1214E6903D
:101A0700020FE0700890020EE025E0A3F0E49002D8
:101A170009F090020FE0FF900209E0FD3395E0FC2A
:101A2700C3ED9F7480F86C9840030215E12002FD16
:101A3700900209E0FF90020FE0C39F1425E025E024
:101A4700F990020AE0FCA3E0FDA3E0FEA3E0FFA8F3
:101A5700011214B27E00EF540F248DF582EE34424A
:101A6700F583E493F599D202900209E004F080A28D
:101A7700900205E0FBA3E475F0031212C8A9F0FA7F
:101A8700121523900214EBF0A3EAF0A3E9F09002F9
:101A970014E0FBA3E0FAA3E0F912118B700302151F
:101AA700E12002FD900214E0FBA3E475F00112129D
:101AB700C8A9F0FA12118BF599D20280D1900205CC
:101AC700E0FBA3E475F0021212C8A9F0FA1212DEC5
:101AD700FFAEF0EE3395E0FDFC90020A1214E6200B
:101AE70002FD90020AA3A3A3E0F599D2020215E131
:101AF700900205E0FBA3E475F0021212C8A9F0FA00
:101B07001212DEFFAEF0E4FCFD90020A1214E602A8
:021B170015E1D6
:011B190022A9
:0B4485009001D4EBF0A3EAF0A3E9F0F3
:104490009001FF7401F0A37401F0A374D7F09001B0
:1044A000FFE0F9A3E0FAA3E0900205C9F0A3EAF067
:1044B000A3E9F09001D41215C49001FFE4F0A3F039
:0244C000A3F067
:0144C20022D7
:0B44C3009001CDEBF0A3EAF0A3E9F0BC
:1044CE009001F87401F0A37401F0A374D0F0900180
:1044DE00F8E0F9A3E0FAA3E0900205C9F0A3EAF030
:1044EE00A3E9F09001CD1215C49001F8E4F0A3F009
:0244FE00A3F029
:014500002298
:0E43C0009001D3EFF0A3EBF0A3EAF0A3E9F035
:1043CE009001FF7401F0A37401F0A374D7F0900173
:1043DE00FFE0F9A3E0FAA3E0900205C9F0A3EAF02A
:1043EE00A3E9F09001D41215C49001FFE4F0A3F0FC
:0743FE00A3F09001D304F0CD
:014405002294
:1047C9000A0D537973506F776572496E697469611F
:0847D9006C2E2E4F4B21210034
:0433DC0002110000DA
:10463100D283C2A1D284D282C2A1C2B7C286C2EA47
:10464100C2A6C2A2D2E8D2E97FC87E0012479C7BF3
:08465100FF7A4779C90244C356
:103D9A007811E6FF540F14602D24FA605024057040
:103DAA0063EFC4540F601024F960082406700DE410
:103DBA00FF80067F0380027F011246057811E654D0
:103DCA000F4420F6803E7811E6C4540F600C24FE9E
:103DDA00600C24FB700D7F0480067F0280027F0640
:103DEA001246057811E6540F4410F680177811E64A
:103DFA00C4540F24FE70057F051246057811E65457
:103E0A000F4470F67811E6FF54F0C4540FFEEF54D5
:043E1A00F04EF6224E
:102DC3009001D1EFF07F1E1244067F1F1244067F4D
:102DD300201244067F211244067F221244067F23D9
:102DE3001244069001D1E024F77003022FCD24FC96
:102DF3007003022F03147003022E91147003022F29
:102E03005C24FD7003023017147003023032240374
:102E130060030230607DE07F141240FA900110E0FD
:102E230054E04410F0900116E013400A900106E0CC
:102E33006401700280777811E6C4540F6407702D23
:102E430090010DE0C413135403135002801A900130
:102E530006E070057D1B02300A90010DE0541F64EB
:102E63000470057D2102300A7D1F0230597811E676
:102E7300C4540F6402701490010DE0541F64047075
:102E8300057D2202300A7D1C02305902300F7D99E4
:102E93007F141240FA900110E054E0440EF09001C8
:102EA30016E013400D900106E0640170057D1E02DB
:102EB300300A7811E6C4540F6407701590010DE0D1
:102EC300C4131354031350047D2380027D1E023068
:102ED30059900106E070139001C2E0700D9001C398
:102EE300E0640170057D1D02300A9001C2E0700D9F
:102EF3009001C3E0640170057D1A02300A022FC9F4
:102F0300E4FD7F141240FA900110E054E0440DF008
:102F1300900116E013400D900106E0640170057DF9
:102F23001E02300A7811E6C4540F6407701590012D
:102F33000DE0C4131354031350047D2180027D1E3E
:102F43000230599001C2E0700D9001C3E06401703A
:102F5300057D1D02300A02300F7D997F141240FA5D
:102F6300900110E054E0440FF0900116E013400D7F
:102F7300900106E0640170057D1E02300A7811E6B7
:102F8300C4540F6407701590010DE0C41313540368
:102F93001350047D2380027D1E023059900106E008
:102FA30070129001C2E0700C9001C3E064017004E0
:102FB3007D1D80539001C2E0700C9001C3E0640159
:102FC30070047D1A80417D1C80447DE07F14124093
:102FD300FA900110E054E04409F0900116E0134028
:102FE3000C900106E0640170047D1E801A7811E6DE
:102FF300C4540F640270047D1C800C7811E6C45421
:103003000F640770077D1F7F64FE804E7D1B7F6406
:103013007E008046900116E0C4540F1350077F06CC
:10302300123A978002D2827D217F647E00802B90AA
:103033000116E0C4540F13500EE4FF123A979001A7
:1030430016E054EFF08002C282900116E0135004A0
:0E3053007D1C80027D217F647E0012380022E9
:103A9700EFB40A004003023B42903AA7F828287384
:103AA700023AC5023AC5023B0A023AC5023B0A027C
:103AB7003B34023B0A023B42023B42023AE4C282E7
:103AC700D2B7D2EAD2A6D2A2D2B6D2A07D147FF4C0
:103AD7007E011238007D0C7FE87E03804BC283D2C3
:103AE700A17F407E0012479CC284D286900116E0D7
:103AF700FF1313543F135043EF54FBF07F841230EE
:103B0700618038C2A0D283D284C2A1D282C2A1C2AC
:103B1700B7C2EAC2A6C2A2C286C2B6900116E044E4
:103B270020F07D2C7FB87E0B123800800EC2A1D208
:103B370084C2B7C2EAC2A6C2A2C286900110E054EC
:053B4700E04414F0222F
:104605009001CDEFF024FE601A24FE601E146013A5
:1046150014601024FE600C240824F6500624F7606C
:0C4625000280089001CDE0FF123A9722BD
:1033E000C10C42017D00004201C002254201800360
:1033F000704101BE0041017500410177014101C2E8
:10340000004101C30141017400410176004101788E
:10341000004101790041017A004101CC004101C61F
:1034200000410173004101C8004101C7FF41017221
:10343000FE4101C4004101CB0041017C0041017FFC
:10344000004101BF004101C5FF41017B004101CAAC
:05345000004101C9006C
:044798007FF47E012B
:10479C00EF4E6010C20C300CFDC20CEF1F70011EEE
:0547AC00144E70F22222
:10483600EF75F003A42483F582E43401F583E0FEEA
:04484600A3E0FF22CA
:10480D00EF75F003A42482F582E43401F583E0C34F
:05481D0013547FFF228F
:10484A00EF75F003A42482F582E43401F583E05481
:03485A00FEF0224B
:10488100EF75F003A42482F582E43401F583E0138B
:014891002204
:1042E80090017DE0FFA3E09001F6CFF0A3EFF090FE
:1042F80001F6E0FEA3E0FFC390017EE09FFF90017E
:104308007DE09EFE1248A1D3EF947FEE64809480F6
:10431800400F90017DE0FFA3E09001F6CFF0A3EFFE
:09432800F09001F6E0FEA3E0FFB5
:014331002269
:0835CC009001F1EEF0A3EFF015
:1035D400E4A3F0A3F0A3F01242E89001F4EEF0A308
:1035E400EFF09001F1E0FEA3E0FFE4FCFD7B487AFC
:1035F400EEF9F8C312148B500A9001F174EEF0A3A3
:103604007448F09001F1E0FEA3E0FF9001F5E02F93
:10361400FF9001F4E03EFEE4FCFD7B487AEEF9F80D
:10362400C312148B401F9001F1E0FEA3E0FF900150
:10363400F4E0FCA3E0FD2FFFEC3EFED3ED9FEC9EF7
:1036440050030236F1E490017DF0A3F09001F3F011
:103654009001F3E0FFC39414748094804003023615
:10366400EAEF75F003A42482F582E43401F583E0E3
:103674005401640170679001F3E0FF75F003A42422
:1036840083F582E43401F583E0FCA3E0FD9001F4CA
:10369400E0FAA3E0FBD3ED9BEC9A402CEF75F0032A
:1036A400A42483F582E43401F583C083C082C3A3D8
:1036B400E09BFF0582D5820215831582E09AD082B1
:1036C400D083F0A3EFF080159001F3E075F003A42C
:1036D4002483F582E43401F583E4F0A3F09001F34C
:1036E400E004F0023654E49001F4F0A3F09001F405
:0536F400E0FEA3E0FF71
:0136F90022AE
:1046A400E4FFEFC39414748094805015EF75F00305
:1046B400A42482F582E43401F583E054FEF00F80F3
:0146C400E114
:0146C50022D2
:0737F900F07D137F647E00E8
:0B3800009001EDEEF0A3EFF0A3EDF05F
:10380B00E4A3F0F09001F0E0FFC394147480948073
:10381B00502EEF75F003A42482F582E43401F58376
:10382B00E0FF540164017010EFC313547FFF90014C
:10383B00EFE06F70030238DE9001F0E004F080C41B
:10384B00E49001F0F09001F0E0FFC39414748094C5
:10385B008040030238DEEF75F003A42482F582E486
:10386B003401F583E0FF540170609001F0E0FE75C8
:10387B00F003A42482F582E43401F583EF4401F0D4
:10388B009001EFE0547F25E0FFEE75F003A4248256
:10389B00F582E43401F583E054014FF09001EDE043
:1038AB00FEA3E0FF1235CC9001EEE02FFF9001ED6F
:1038BB00E03EFE9001F0E075F003A42483F582E472
:1038CB003401F583EEF0A3EFF0229001F0E004F069
:0338DB0002385060
:0138DE0022C7
:10440600E4FEEEC39414748094805034EE75F00389
:10441600A42482F582E43401F583E0FD54016401AD
:10442600701BEDC313547FB50713EE75F003A42478
:1044360082F582E43401F583E054FEF0220E80C258
:014446002253
:0B38DF009001CEEEF0A3EFF0A3EDF09F
:1038EA00E4A3F0F09001D1E0FFC3941474809480B3
:1038FA00502DEF75F003A42482F582E43401F58398
:10390A00E0FF54016401700FEFC313547FFF90016D
:10391A00D0E0B5070280649001D1E004F080C5E4EC
:10392A009001D1F09001D1E0FFC394147480948087
:10393A0040030239BCEF75F003A42482F582E43413
:10394A0001F583E0FF540170609001D1E0FE75F04B
:10395A0003A42482F582E43401F583EF4401F09054
:10396A0001D0E0547F25E0FFEE75F003A42482F530
:10397A0082E43401F583E054014FF09001CEE0FE79
:10398A00A3E0FF1235CC9001CFE02FFF9001CEE0EB
:10399A003EFE9001D1E075F003A42483F582E4345D
:1039AA0001F583EEF0A3EFF0229001D1E004F002DA
:0239BA00392EA4
:0139BC0022E8
:1039BD00EF14B40C004003023A969039D575F0031C
:1039CD00A4C58325F0C583730239F90239F9023A8A
:1039DD000D023A11023A22023A3B023A51023A964C
:1039ED00023A77023A8C023A96023A8F900171E0D0
:1039FD00FF124447900171E0FD7F117E0002437973
:103A0D007F80800E90010DE0C41313540313507981
:103A1D007F83023061900116E0FF1313543F134072
:103A2D00687811E654F04407F6EF4404F022E49070
:103A3D000275F0A3F0900115F090011FF0A3F09026
:103A4D000125F022900116E0FF131313541F13509C
:103A5D0014EF54F7F054FEF07F12122DC37D077F43
:103A6D00B87E0B80177F13022DC3900116E04440E2
:103A7D00F07F821230617D097F987E3A0238000214
:0A3A8D0046C6D2B77F09123A97220D
:103D1500E49001CDF0A3F0A3F0A3F09001CDF090D5
:103D250001CDE0C394147480948050681242E890E9
:103D350001CFEEF0A3EFF09001CDE0FF12488150E6
:103D45004B9001CDE0FF124836D39001D0E09F9013
:103D550001CFE09E40369001CDE0FF12484A900128
:103D6500CDE0FF12480D9001CEEFF0C3940E7480A4
:103D750094805007E0FF1239BD80119001CEE0FF1D
:103D8500C3942D7480948050031200669001CDE099
:043D950004F0808B2B
:013D99002207
:10006600EF24F1B41E004003020D3790007F75F0B7
:1000760003A4C58325F0C583730201670203D10279
:100086000D370207650206F20201DB020986020C41
:100096006A020B150207520209690200E50200D93D
:1000A6000200DD0200E10200EA0200F6020100029F
:1000B600010A02011402011E020128020CB3020CFD
:1000C600CF020CC1020CDD020CEB020CFA0201C2DB
:1000D6000201D37F1B800A7F1C80067F1D80027F62
:1000E6001A023F927F1E123F927D1E7FFA0207443C
:1000F6007F1E123F927D1F0209627F20123F927D72
:10010600200209627F21123F927D210209627F222D
:10011600123F927D220209627F23123F927D2302C3
:1001260009627F1B123F927F1D123F921247987FF2
:100136001B123F921247987F1D123F921247987FDB
:100146001B123F921247987F1D123F921247987FCB
:100156001B123F92124798900110E054E04414F0AD
:10016600221247E1EF6401702490010DE0C41313DD
:1001760054031340427F1612488150081244067DEC
:10018600161237FC7F15124881502C802290010DE3
:10019600E0C41313540313501E7F161248815008EF
:1001A6001244067D161237FC7F151248815008123C
:1001B60044067D151237FC7D0F020962900116E098
:1001C6001350057F811230617D2B02096290011662
:1001D600E054DFF0221248BF900180EEF0A3EFF06A
:1001E6001248B89001C0EEF0A3EFF0900180E0FE57
:1001F600A3E0FFD39496EE940250099001C77415BC
:10020600F00202D6D3EF9496EE94024012D3EF9406
:10021600B0EE940250099001C77404F00202D6D3DE
:10022600EF94B0EE94024012D3EF9403EE94035091
:10023600099001C77403F00202D6D3EF9403EE943B
:10024600034011D3EF942BEE940350089001C7742A
:1002560002F0807CD3EF942BEE94034011D3EF94FD
:100266005CEE940350089001C77401F08062D3EFEE
:10027600945CEE94034010D3EF9475EE940350070C
:10028600E49001C7F08049D3EF9475EE94034013D0
:10029600D3EF9496EE9403500A900106E064017041
:1002A60002801F900180E0FEA3E0FFD39475EE94D8
:1002B600034017D3EF949FEE9403500E900106E08F
:1002C60070089001C77416F080069001C77417F085
:1002D6009001C7E0541FFF90010DE054E04FF090ED
:1002E6000180E0FFA3E0900111CFF0A3EFF09001B1
:1002F600C0E0FEA3E0FFD394C6EE94005010EF9446
:1003060014EE940040089001C57406F08074D3EF93
:1003160094C6EE94004011D3EF94EEEE940050088C
:100326009001C57419F0805AD3EF94EEEE94004014
:100336000BD3EF9415EE940350028040D3EF94153F
:10034600EE94034011D3EF9464EE940350089001A9
:10035600C5741AF0802CD3EF9464EE94034011D345
:10036600EF94A0EE940350089001C57408F0801233
:1003760090010DE04420F054E04409F09001C5746A
:1003860007F0900110E0541F640970069001C574CF
:1003960007F09001C5E0541FFF90010EE054E04FB6
:1003A600F0A280E433900175F0E0FF9001C2E06FA7
:1003B6006002EFF0A281E433900177F0E0FF900154
:1003C600C3E06F7003020D37EFF0221248BF9001B1
:1003D60080EEF0A3EFF0900111EEF0A3EFF09001A4
:1003E6000DE0FFC4135407135025E4900174F090F8
:1003F6000176F0900178F0A3F0A3F09001CCF09094
:1004060001C6F0900173F09001C8F09001C7F0EFBB
:1004160054DF90010DF0900180E0FEA3E0FFD3943D
:1004260096EE9402501BE4900174F0900176F090E1
:100436000178F0A3F0A3F09001CCE004F0E402050B
:1004460004D3EF9496EE9402402FD3EF94A3EE9448
:10045600025026E4900174F0900176F0900178F055
:10046600A3F0A3F09001CCF09001C6F0900173F0D8
:100476009001C8E004F0020613D3EF94A3EE9402B1
:100486004022D3EF94B0EE94025019900174E00428
:10049600F0E4900176F0900178F0A3F0A3F09001DB
:1004A600CCF0805AD3EF94B0EE94024027D3EF9469
:1004B60003EE9403501EE4900174F0900176E0047C
:1004C600F0E4900178F0A3F0A3F09001CCF0900155
:1004D600C60205ECD3EF9403EE9403402BD3EF94BE
:1004E6002BEE94035022E4900174F0900176F09084
:1004F6000178E004F0E4A3F0A3F09001CCF09001C1
:10050600C6F09001730205ECD3EF942BEE940340F2
:100516002BD3EF945CEE94035022E4900174F09098
:100526000176F0900178F0A3E004F0E4A3F09001E6
:10053600CCF09001C6F09001730205ECD3EF945C09
:10054600EE9403402AD3EF9475EE94035021E49081
:100556000174F0900176F0900178F0A3F0A3E00426
:10056600F0E49001CCF09001C6F09001738077D34F
:10057600EF9475EE94034031D3EF9496EE940350C6
:1005860028900106E064017020900174F0900176D5
:10059600F0900178F0A3F0A3F09001CCF09001C6A2
:1005A600E004F0E4900173803D900180E0FEA3E05A
:1005B600FFD39475EE94034030D3EF949FEE9403EB
:1005C6005027900106E07021900174F0900176F0BA
:1005D600900178F0A3F0A3F09001CCF09001C6E072
:1005E60004F0E4900173F08020E4900174F090012F
:1005F60076F0900178F0A3F0A3F09001CCF0900192
:10060600C6F0900173E004F0E49001C8F090017424
:10061600E06414700B9001C77404F0E4900174F068
:10062600900176E06414700B9001C77403F0E490B7
:100636000176F0900178E06414700B9001C77402A3
:10064600F0E4900178F0900179E06414700A90016A
:10065600C704F0E4900179F090017AE06414700820
:100666009001C7F090017AF09001CCE06414700B11
:100676009001C77415F0E49001CCF09001C6E064D7
:10068600147009A37416F0E49001C6F09001C8E056
:10069600641470099001C77418F0E4A3F09001C6C1
:1006A600E064147009A37416F0E49001C6F090019A
:1006B60073E06414700B9001C77417F0E490017333
:1006C600F09001C7E0FF900172E06F600BEFF090D1
:1006D6000110E054E04414F09001C7E0541FFF906D
:1006E600010DE054E04FF07D10020962900116E022
:1006F6001313543F1350097811E654F04402F622BE
:10070600900106E064017002804D900116E0C4136A
:10071600540713402E90010EE0C413540713500CD7
:1007260090010DE0C41313540313500E9001067488
:1007360001F0FD7F107E000243797D247F0A7E0052
:10074600020D347D137FB87E0B020D34900106E056
:1007560064016003020D377D097F64FE020D3412C9
:1007660048B89001C0EEF0A3EFF0D394C6EE940023
:100776005022E094149001C0E094004017E49001E8
:10078600C4F09001CBF090017CF090017FE004F082
:10079600E40208429001C0E0FEA3E0FFD394C6EE57
:1007A60094004023D3EF94EEEE9400501AE49001A7
:1007B600C4F09001CBF090017CF090017FF09001A5
:1007C600BFE004F002085AD3EF94EEEE9400401E08
:1007D600D3EF9415EE940350159001C4E004F0E4B1
:1007E6009001CBF090017CF090017FF0804ED3EF2A
:1007F6009415EE9403401FD3EF9464EE94035016C1
:10080600E49001C4F09001CBF090017CE004F0E4A8
:1008160090017FF08026D3EF9464EE94034023D3B7
:10082600EF94A0EE9403501AE49001C4F09001CB2B
:10083600E004F0E490017CF090017FF09001BFF0BD
:10084600801290010DE04420F054E04409F090013C
:10085600C57407F090017FE0641470159001C574AB
:1008660006F0E490017FF090010FE054FDF054FB98
:10087600F09001BFE0641470159001C57419F0E49E
:100886009001BFF090010FE04402F054FBF090019C
:10089600C4E064147013A37407F0E49001C4F090EC
:1008A600010FE054FBF054FDF090017CE0641470FD
:1008B600159001C5741AF0E490017CF090010FE0E8
:1008C6004404F054FDF09001CBE0641470159001DF
:1008D600C57408F0E49001CBF090010FE054FBF0F2
:1008E60054FDF09001C5E0541FFF90010EE054E066
:1008F6004FF09001C0E0FEA3E0FFD39402EE940116
:100906004009D3EF9415EE9403400D9001CAE0041C
:10091600F0E49001C9F0800BE49001CAF09001C99F
:10092600E004F09001CAE06414701FF090010DE03D
:10093600FFC413135403135021EFC4135407134079
:100946001990010FE04408F080109001C9E064148A
:100956007008F090010FE054F7F07D127FE87E03F7
:10096600020D34900116E0FFC313135003020D3736
:10097600EF4408F04410F07D077FE87E03020D3453
:100986001247E1EF64016003020ADA90010DE0FF0D
:10099600C41313540313402EEF4440F0C2EAC2A618
:1009A600A280E433900175F0E0FF9001C2E06F6031
:1009B60002EFF0A281E433900177F0E0FF9001C3EB
:1009C600E06F6002EFF090010DE0C413540713507E
:1009D600057D29020ACB7811E6C4540F64027044DF
:1009E60090010EE0FF541F6407702CEFC4131354DC
:1009F60003134023A3E0FF13401DEF131313541FEB
:100A060013401490010EE0C41354071340047D26CE
:100A160080027D25020ACB900110E0541F64097004
:100A26004F020AC27811E6C4540F6407704490015D
:100A36000EE0FF541F6407702BEFC4131354031307
:100A46004022A3E0FF13401CEF131313541F13405F
:100A56001390010EE0C41354071340047D26800250
:100A66007D258061900110E0541F64097002804C5E
:100A760080517811E6C4540F6401705090010EE065
:100A8600FF541F6407702BEFC41313540313402243
:100A9600A3E0FF13401CEF131313541F13401390CE
:100AA600010EE0C41354071340047D2780027D2500
:100AB6008013900110E0541F640970077D297F643C
:100AC600FE80067D287F647E001238007D157F88B3
:100AD6007E13803590010DE054BFF0C2EA4480F0E9
:100AE600A3E054BFF0900137E06401700D90010659
:100AF600E0640170057F821230617D287FF47E01FB
:100B06001238007D167FF47E01123800020CAEA268
:100B160080E433900175F0A281E433900177F09080
:100B26000175E0FF9001C2E06F601990010DE0C40D
:100B360013540713400E9001C2EFF0900110E054D9
:100B4600E04414F0900177E0FF9001C3E06F601974
:100B560090010DE0C413540713400E9001C3EFF04B
:100B6600900110E054E04414F090010FE0FF1340B0
:100B760017900112E094FF900111E094034009EFF1
:100B8600440190010F1237F990010DE0541F24FC27
:100B96004003020C3A7003020C2E24EF60441470DA
:100BA60003020C3A24FE603A046003020C619001D1
:100BB6000EE0FFC413135403134004EF4440F090B7
:100BC600010EE0FFC413540713500DEF54DFF090ED
:100BD6000110E054E04414F090010FE054EFF002ED
:100BE6000C6190010EE0FFC41354071340129001EC
:100BF60016E013400BEF442090010E1237F9801ACD
:100C060090010DE0541F64157010900106E0640118
:100C16007008F0FD7F10FE12437990010EE054BF7C
:100C2600F0A3E04410F0803390010EE054BFF0547E
:100C3600DFF0802790010FE04410F090010EE0FFF6
:100C4600C413540713500DEF54DFF0900110E05415
:100C5600E04414F090010EE054BFF07D177F887ECB
:100C660013020D341247E1EF64017027900137E05B
:100C76006401700E900106E070087D137F64FE1219
:100C86003800900110E054E04414F07D157F647E36
:100C960000801220A604C2A6C2EA7D281237FC7D77
:100CA600167F887E13123800C2EAC2A6229001106F
:100CB600E0541F640E607A7F0E8036900110E05477
:100CC6001F640D606C7F0D8028900110E0541F6436
:100CD6000F605E7F0F801A900110E0541F64106051
:100CE600507F10800C900110E0541F640960427F11
:100CF60009022DC3900267E0240AF0E0643C700705
:100D0600F090026EE004F090026EE0643C7007F032
:100D1600900273E004F0900273E064187007F0909C
:100D26000272E004F01227267D2A7F107E271238F1
:020D3600002299
:100D3800021080E86480F8E933E83360110460F059
:100D4800ED33EC337009E8FCE9FDEAFEEBFF220421
:100D580060DED3EB9FEA9EE99DE8C2E78CF0C2F71C
:100D680095F0400CE8CCF8E9CDF9EACEFAEBCFFBE8
:100D780012104B85D0F05804700320D5B3E80470E6
:100D8800075002B2D502108A92D5EC0460F7E4CC81
:100D9800C0E0C398F8603B94186008400DD0E0FBB1
:100DA800021062E4FBFAC9FC8028E830E406E4C9D2
:100DB800FBE4CAFCE830E305E4C9CACBFCE8540705
:100DC8006010F8C3E913F9EA13FAEB13FBEC13FC10
:100DD800D8F130F52FC3E49CFCEF9BFFEE9AFEEDB3
:100DE80099FDD0E0FBEF4E4D4C701222DB03021050
:100DF80087EC2CFCEF33FFEE33FEED33FDED30E7EF
:100E0800EB021062EF2BFFEE3AFEED39FDD0E0FB6E
:100E180050130BBB000302108AED13FDEE13FEEF17
:080E280013FFEC13FC02106241
:100E3000EC4D6011E8497017ED33EC3304600DE4BC
:100E4000FCFFFEFD22E933E8330470F80210801243
:100E5000104B58046009E4CC248150062850090244
:100E6000108A284003021087C0E0EB4A7044B98022
:100E700006D0E0FB021076EF4E701CBD8008EBFF41
:100E8000EAFEE9FD80EBE98DF0A4FEE5F0020F1922
:100E9000E9CDF9EAFEEBFFEF89F0A4FCE5F0CE899D
:100EA000F0A42EFFE435F0CD89F0A42DFEE435F05A
:100EB0008067EF4E7005BD80D780C3EF8BF0A4AC88
:100EC000F0EE8BF0A42CFCE435F0F8EF8AF0A42CC3
:100ED000E5F038FCE433CB8DF0A42CFCE5F03BF8D6
:100EE000EE8AF0A42CFCE5F038F8E433CF89F0A4C6
:100EF0002CFCE5F038CF3400CE89F0A42FFFE5F0CC
:100F00003EFEE433C98DF0A42EFEE5F039CD8AF023
:100F1000A42FFFE5F03EFEE43DFD33D0E0FB50079B
:100F20000BBB000F02108AEC2CFCEF33FFEE33FEFC
:060F3000ED33FD0210622A
:100F360002108AEC5D046005E85904700302108013
:100F460012104B580460F6EC4860F2EC7004FDFE9B
:100F5600FF22C860DB2481C85009C398600250068E
:100F66000210879850CAF582E9294B4A7005AB8270
:100F760002107675F0007C1A7880C3EF9BEE9AED2E
:100F860099400DC3EF9BFFEE9AFEED99FDE842F006
:100F9600DC23ACF0D0E0FFD0E0FED0E0FDAB822059
:100FA600E7101BEB60BAEC2CFCEF33FFEE33FEEDE3
:100FB60033FD021062E803F830E705C0F075F00073
:100FC600EF2FFFEE33FEED33FD40B830E7C280AAC7
:100FD60075F020800E75F010800575F0087D007E96
:100FE600007F003392D530D50312147DEC334010C8
:100FF600EF33FFEE33FEED33FDEC33FCD5F0ED229F
:0E100600E5F0247EA2D513CC92E7CDCEFF22DA
:10101400EDD2E7CD33EC3392D524814006E4FFFED4
:10102400FDFC22FCE4CFCECDCC24E0501174FF8033
:10103400EDC3CC13CCCD13CDCE13CECF13CF0470D0
:07104400F030D5DE02147D3F
:10104B00E9D2E7C933E833F892D5EDD2E7CD33ECEB
:07105B0033FC5002B2D52264
:10106200EC30E7100FBF000C0EBE00080DBD0004EF
:101072000BEB6014A2D5EB13FCED92E7FD2274FF9B
:10108200FCFDFEFF22E480F8A2D574FF13FC7D80F4
:03109200E480EF08
:103C950002400BE493A3F8E493A34003F68001F2FA
:103CA50008DFF48029E493A3F85407240CC8C33330
:103CB500C4540F4420C8834004F456800146F6DFFF
:103CC500E4800B010204081020408090329AE47EC3
:103CD500019360BCA3FF543F30E509541FFEE493F4
:103CE500A360010ECF54C025E060A840B8E493A3BB
:103CF500FAE493A3F8E493A3C8C582C8CAC583CAE6
:103D0500F0A3C8C582C8CAC583CADFE9DEE780BE9D
:013455000076
:10109500E709F608DFFA8046E709F208DFFA803E3D
:1010A50088828C83E709F0A3DFFA8032E309F6082A
:1010B500DFFA8078E309F208DFFA807088828C8392
:1010C500E309F0A3DFFA806489828A83E0A3F60846
:1010D500DFFA805889828A83E0A3F208DFFA804C20
:1010E50080D280FA80C680D4806980F280338010F7
:1010F50080A680EA809A80A880DA80E280CA803360
:1011050089828A83ECFAE493A3C8C582C8CCC583D7
:10111500CCF0A3C8C582C8CCC583CCDFE9DEE780A7
:101125000D89828A83E493A3F608DFF9ECFAA9F026
:10113500EDFB2289828A83ECFAE0A3C8C582C8CC7C
:10114500C583CCF0A3C8C582C8CCC583CCDFEADE95
:10115500E880DB89828A83E493A3F208DFF980CCF7
:1011650088F0EF60010E4E60C388F0ED2402B404F0
:101175000050B9F582EB2402B4040050AF23234597
:0611850082239010E573C7
:10118B00BB010689828A83E0225002E722BBFE0262
:09119B00E32289828A83E4932295
:1011A400BB010CE58229F582E5833AF583E0225000
:1011B40006E92582F8E622BBFE06E92582F8E2224A
:0D11C400E58229F582E5833AF583E4932264
:1011D100BB010989828A83F8E028F022500327F7AE
:1011E10022BBFE05F8E328F3228A838982F8E4937F
:0211F1002822B2
:1011F300F8BB010DE58229F582E5833AF583E8F032
:10120300225006E92582C8F622BBFE05E92582C8DD
:02121300F222C5
:10121500EF8DF0A4A8F0CF8CF0A428CE8DF0A42EED
:02122500FE22A7
:10122700BC000BBE0029EF8DF084FFADF022E4CCAB
:10123700F875F008EF2FFFEE33FEEC33FCEE9DEC74
:10124700984005FCEE9DFE0FD5F0E9E4CEFD22EDBA
:10125700F8F5F0EE8420D21CFEADF075F008EF2F04
:10126700FFED33FD4007985006D5F0F222C398FDF5
:051277000FD5F0EA2292
:10127C00C2D5EC30E709B2D5E4C39DFDE49CFCEE8D
:10128C0030E715B2D5E4C39FFFE49EFE121227C3CC
:10129C00E49DFDE49CFC800312122730D507C3E4C7
:0612AC009FFFE49EFE22FC
:1012B200C5F0F8A3E028F0C5F0F8E58215827002C7
:0612C2001583E038F02264
:1012C800A3F8E0C5F025F0F0E582158270021583D9
:0612D800E0C838F0E82236
:1012DE00BB010A89828A83E0F5F0A3E022500687DB
:1012EE00F009E71922BBFE07E3F5F009E31922899D
:0B12FE00828A83E493F5F074019322D0
:10130900BB0110E58229F582E5833AF583E0F5F022
:10131900A3E0225009E92582F886F008E622BBFEFF
:101329000AE92582F8E2F5F008E222E5832AF58345
:08133900E993F5F0A3E993220A
:10134100BB010A89828A83F0E5F0A3F0225006F7F7
:0F13510009A7F01922BBFE06F3E5F009F31922F4
:10136000E88FF0A4CC8BF0A42CFCE98EF0A42CFC2C
:101370008AF0EDA42CFCEA8EF0A4CDA8F08BF0A4AA
:101380002DCC3825F0FDE98FF0A42CCD35F0FCEB09
:101390008EF0A4FEA9F0EB8FF0A4CFC5F02ECD39CE
:0F13A000FEE43CFCEAA42DCE35F0FDE43CFC223B
:1013AF0075F008758200EF2FFFEE33FECD33CDCCF5
:1013BF0033CCC58233C5829BED9AEC99E582984078
:1013CF000CF582EE9BFEED9AFDEC99FC0FD5F0D655
:1013DF00E4CEFBE4CDFAE4CCF9A88222B800C1B97F
:1013EF000059BA002DEC8BF084CFCECDFCE5F0CBBD
:1013FF00F97818EF2FFFEE33FEED33FDEC33FCEBF6
:10140F0033FB10D703994004EB99FB0FD8E5E4F9B0
:10141F00FA227818EF2FFFEE33FEED33FDEC33FC9D
:10142F00C933C910D7059BE99A4007EC9BFCE99A91
:10143F00F90FD8E0E4C9FAE4CCFB2275F010EF2FD6
:10144F00FFEE33FEED33FDCC33CCC833C810D707D6
:10145F009BEC9AE899400AED9BFDEC9AFCE899F811
:0E146F000FD5F0DAE4CDFBE4CCFAE4C8F922A4
:0E147D00C3E49FFFE49EFEE49DFDE49CFC2280
:10148B00EB9FF5F0EA9E42F0E99D42F0EC6480C8D8
:06149B0064809845F02278
:1014A100EB9FF5F0EA9E42F0E99D42F0E89C45F0A1
:0114B1002218
:1014B200E86010ECA2E713FCED13FDEE13FEEF1350
:0414C200FFD8F0223D
:1014C600BB010789828A830215755005E9F8021562
:1014D60069BBFE05E9F802158189828A8302158DAA
:0C14E600ECF0A3EDF0A3EEF0A3EFF02279
:1014F200A8828583F0D083D08212150912150912B1
:101502001509121509E473E493A3C583C5F0C583D5
:10151200C8C582C8F0A3C583C5F0C583C8C582C843
:0115220022A6
:10152300BB010789828A830215A65005E9F80215D3
:101533009DBBFE05E9F80215AF89828A830215B8BF
:10154300D083D082F8E4937012740193700DA3A337
:1015530093F8740193F5828883E47374029368604B
:06156300EFA3A3A380DF4B
:0C48A100EE30E707C3E49FFFE49EFE2218
:0C156900E6FC08E6FD08E6FE08E6FF22AE
:0C157500E0FCA3E0FDA3E0FEA3E0FF22E9
:0C158100E2FC08E2FD08E2FE08E2FF22A6
:10158D00E493FC740193FD740293FE740393FF22A4
:09159D00E6FB08E6FA08E6F92273
:0915A600E0FBA3E0FAA3E0F92246
:0915AF00E2FB08E2FA08E2F9226D
:0C15B800E493FB740193FA740293F9228F
:00000001FF
