:03000000025406A1
:0C540600787FE4F6D8FD75817902544DE2
:102F90000D0A507265762E46573A25303278253024
:102FA000327825303278000D0A437572722E4657FA
:102FB0003A253032782530327825303278000D0AC3
:102FC00043616E6E6F742061636365737320454562
:102FD00050524F4D21212121000D0A4E6F20696E64
:102FE000697469616C697A6500285345545F4D4383
:102FF000555F504F5745525F444F574E5F4D4F44BA
:10300000452920000D0A285345545F50574D3D2552
:103010003032782076616C3D253032782900282ABC
:103020004456524368616E676543757272656E748B
:103030003D3330306D412900282A4456524368619F
:103040006E676543757272656E743D313030306DF8
:103050004129000D0A3D3D3D3D3D3D3D3D3D3D3D50
:103060003D3D3D3D3D3D3D3D3D3D3D3D3D3D3D3D90
:103070003D3D3D3D3D3D3D000D0A53797374656D09
:1030800020686173206265656E20776F726B696E70
:103090006720666F7220256420646179732C202577
:1030A0006420686F7572732C202564206D696E75BD
:1030B00074657320616E64202564207365636F6E90
:1030C0006473000D0A53797374656D206861732011
:1030D0006265656E20776F726B696E6720666F72CE
:1030E00020256420686F7572732C202564206D691B
:1030F0006E7574657320616E64202564207365634A
:103100006F6E6473000D0A53797374656D20686186
:1031100073206265656E20776F726B696E672066DB
:103120006F72202564206D696E7574657320616E01
:1031300064202564207365636F6E6473000D0A5309
:10314000797374656D20686173206265656E2077A0
:103150006F726B696E6720666F72202564207365DD
:10316000636F6E6473000D0A28426174746572792E
:103170004254483D25642825642E2564562929009B
:103180002854454D505F4849474829002848494739
:10319000485F544D45505F5741524E2900285445D1
:1031A0004D505F4C4F572900284C4F575F544D45A9
:1031B000505F5741524E29002854454D505F4E4FA5
:1031C000524D414C29000D0A284261747465727990
:1031D0004341503D25642825642E2530346456290A
:1031E0002928256456290028484947485F43484113
:1031F0005247452900284C4F575F434841524745A5
:103200002900284E4F524D414C5F4348415247459B
:1032100029002853544F505F4348415247452900E5
:10322000284348415247455F4E4F5F42415454291D
:1032300000285F424154545F5354415455535F43F7
:10324000415041434954595F4C4556454C30290043
:10325000285F424154545F5354415455535F434196
:103260005041434954595F4C4556454C312900283B
:103270005F424154545F5354415455535F4341504E
:1032800041434954595F4C4556454C322900285F0B
:10329000424154545F5354415455535F434150414C
:1032A000434954595F4C4556454C332900285F42E9
:1032B0004154545F5354415455535F43415041432B
:1032C0004954595F4C4556454C342900285F4241CA
:1032D00054545F5354415455535F43415041434903
:1032E00054595F4D494E2900285F424154545F5361
:1032F00054415455535F43415041434954595F4DE4
:1033000041582900285F424154545F535441545559
:10331000535F43415041434954595F4D41585F53B6
:10332000544F50290028424154544552595F43415B
:103330005041434954595F4E4F5F53544152545585
:10334000502900285F424154545F5354415455530F
:103350005F4E4F5F42415454290028434841524731
:10336000455F544D45505F41424E4F524D414C29AF
:10337000000D0A285F504F5745525F535441545532
:10338000535F534156494E4729000D0A285F504F5D
:103390005745525F5354415455535F4F4646290099
:1033A0000D0A285F504F5745525F535441545553AF
:1033B0005F4E4F524D414C29000D0A28504F574542
:0D33C000525F5354415455533D256429007C
:104556004102A3004102A4004102920041029600DA
:104566004102970041029000410288004102A500E5
:1045760041028D0002400000014600C101C18002D7
:104586004700000144000145000274000004690070
:10459600000000046D00000000C104410289010111
:1045A6007200014200014300C102C10341029300AF
:1045B60041028A004102980044029F000000004127
:1045C600029D0041029E0044029900000000420242
:0345D6009400004E
:104DC30012594A9001FE12167A7F047E00125DF694
:104DD3007E00C007C0067F05125DF67E00C007C0D7
:104DE300067F06125DF690020CE4F0A3EFF090024A
:104DF3000AD0E0F0A3D0E0F0900208D0E0F0A3D016
:104E0300E0F07BFF7A2F7990125BBD12594AE47B65
:104E130039FAF9F8C312160F605F7BFF7A2F79A76F
:104E2300E4900208F0A3F0A3F0A3F0A3F0A3743975
:104E3300F0125BBD125F107F047E00125DF67E00F0
:104E4300C007C0067F05125DF67E00C007C0067F5F
:104E530006125DF690020CE4F0A3EFF090020AD084
:104E6300E0F0A3D0E0F0900208D0E0F0A3D0E0F0AF
:104E73007BFF7A2F79A7125BBD12594AE47B39FA7B
:104E8300F9F8C312160F700B125A26EF701E125147
:104E93005E80197BFF7A2F79BE125BBD7BFF7A2F71
:104EA30079D9125BBD90015A74FFF0227F64125FBF
:0E4EB300427811E6540F4410F654F04402F613
:014EC10022CE
:10585900758DF4759850758922758855758A4075C6
:105869008C4075878075B80275A892D299D2ACE43C
:10587900F5C8C2CAD2AD75AA5075BAF443A6184381
:10588900AD10C203F5E9F5F975D90443D84043933E
:10589900A04391C475964075B10CF5B275B30CF57A
:0258A900B42227
:105D13007BFF7A2F79E9125BBDD2C2C2C1D2C0D256
:105D2300C6C2C5D2C490028DE5A8F075A8809001C3
:0F5D3300217401F0D2E8D2E975878200000022C6
:105ED90020850320EA137F327E00125F2D2085037F
:0C5EE90020EA037F01227F00227F0022BC
:1052DE00900203EFF0A3EDF07BFF7A307904900299
:1052EE0008E4F0A3EFF0EDFFA3E4F0A3EFF0125B00
:1052FE00BD900203E0606D24EB60532416606124C0
:10530E00EB706475EC80900204E0FFC374FF9FF5B0
:10531E00FC75DC42EF7004F5DCC294900118E06479
:10532E0010701175EC8075FC6675DC427BFF7A306F
:10533E00791E8017900118E06411702B75EC807542
:10534E00FCFF75DC427BFF7A307938025BBD75ED70
:10535E0080900204E0FFC374FF9FF5FD75DD4222CD
:08536E0043D8402253D840222D
:03000B0002221FAF
:0D221F00C0E0C0F0C083C082C0D075D00800
:10222C00057390011CE070200545C3E545940A74C4
:10223C0080948040139001AEE004F070069001ADE4
:10224C00E004F0754500D20C900291E0600214F0AD
:10225C00900291E06003022578E5B0540C131354FE
:10226C0003FF9002A2E06F70030225789002A0E0B9
:10227C0090029FF09002A1E09002A0F09002A2E0E8
:10228C009002A1F0A3EFF0D205900120E064019040
:10229C0002917003F080037430F090029FE070485C
:1022AC00A3E064017042A3E06403703CA3E0640209
:1022BC007036900299E0FCA3E0FDA3E0FEA3E0FFE2
:1022CC00E4FAF9F8EF2401FFEA3EFEE93DFDE83CB3
:1022DC00FC90029912167A900295E004F0705490DA
:1022EC000294E004F002250E90029FE06401704617
:1022FC00A3E064037040A3E06402703AA3E070367C
:10230C00900299E0FCA3E0FDA3E0FEA3E0FFE4FA59
:10231C00F9F8EF2401FFEA3EFEE93DFDE83CFC90B4
:10232C00029912167A900295E004F07006900294CD
:10233C00E004F002250E90029FE064037046A3E0D7
:10234C0064027040A3E0703CA3E06401703690021C
:10235C0099E0FCA3E0FDA3E0FEA3E0FFE4FAF9F8AA
:10236C00EF2401FFEA3EFEE93DFDE83CFC900299BA
:10237C0012167A900295E004F07006900294E00434
:10238C00F002250E90029FE064027046A3E07042BA
:10239C00A3E06401703CA3E064037036900299E002
:1023AC00FCA3E0FDA3E0FEA3E0FFE4FAF9F8EF24C0
:1023BC0001FFEA3EFEE93DFDE83CFC900299121655
:1023CC007A900295E004F07006900294E004F0021A
:1023DC00250E90029FE07047A3E064027041A3E0D9
:1023EC006403703BA3E064017035900299E0FCA398
:1023FC00E0FDA3E0FEA3E0FFEF24FFFFEE34FFFEC1
:10240C00ED34FFFDEC34FFFC90029912167A900229
:10241C0095E004F07006900294E004F002250E9012
:10242C00029FE064027045A3E06403703FA3E06484
:10243C00017039A3E07035900299E0FCA3E0FDA394
:10244C00E0FEA3E0FFEF24FFFFEE34FFFEED34FFD0
:10245C00FDEC34FFFC90029912167A900295E00480
:10246C00F07006900294E004F002250E90029FE0BA
:10247C0064037044A3E06401703EA3E0703AA3E0EF
:10248C0064027034900299E0FCA3E0FDA3E0FEA38B
:10249C00E0FFEF24FFFFEE34FFFEED34FFFDEC34E4
:1024AC00FFFC90029912167A900295E004F07006E7
:1024BC00900294E004F0804A90029FE06401704224
:1024CC00A3E0703EA3E064027038A3E064037032B2
:1024DC00900299E0FCA3E0FDA3E0FEA3E0FFEF2453
:1024EC00FFFFEE34FFFEED34FFFDEC34FFFC9002F9
:1024FC009912167A900295E004F07006900294E01E
:10250C0004F0900120E06401702DC3900295E094DA
:10251C0090900294E094014053900126E0FCA3E0DB
:10252C00FDA3E0FEA3E02401FFE43EFEE43DFDE458
:10253C003CFC900126802BC3900295E0943C9002C9
:10254C0094E094004026900106E0FCA3E0FDA3E09B
:10255C00FEA3E02401FFE43EFEE43DFDE43CFC90E0
:10256C00010612167A900294E4F0A3F0D3E573946A
:10257C00607480948050030226B6054AE54A7002C6
:10258C0005497573000544E5446464701990011C99
:10259C00E0600214F0754400E5469002936005E09B
:1025AC0004F08002E4F0E575F47003E574F460085F
:1025BC000575E57570020574AF70AE6FAD6EAC6DE0
:1025CC00EC4D4E4F6014EF24FFF570EE34FFF56FB9
:1025DC00ED34FFF56EEC34FFF56D90028BE070027C
:1025EC00A3E0600E90028CE024FFF090028BE034AC
:1025FC00FFF090011CE060030226B6E5E8F4FF133F
:10260C001313541F30E079E54164324540701A9041
:10261C00010AE0600B7811E6FFC4540F6407705692
:10262C00754601C200D201804DE541642C7004E571
:10263C00406401702190029DE06401701990010AC0
:10264C00E06401701130002E754601D20190029E9B
:10265C0004F0C2008020E541B4201BE540B4031611
:10266C0030000D754601D2019002A57401F0C20034
:10267C007540007541330541E541702E0540802AB7
:10268C00C3E5419432E5409400401290010AE064A5
:10269C0001700A300007754601D2018005754600AD
:0A26AC00C201D20075400075410024
:0B26B600D0D0D082D083D0F0D0E03232
:1037EA007BFF7A3079537F01125AB4900296E0FF38
:1037FA0060327BFF7A307978900208E4F0A3EFF028
:10380A00900297E0FF90020AE4F0A3EFF090029092
:10381A00E0FF90020CE4F0A3EFF0900288E0FF9042
:10382A00020E8057900297E0FF60257BFF7A30797D
:10383A00C3900208E4F0A3EFF0900290E0FF900238
:10384A000AE4F0A3EFF0900288E0FF90020C802BCC
:10385A00900290E0FF7BFF60167A317905900208AA
:10386A00E4F0A3EFF0900288E0FF90020A800C7A5D
:10387A0031793D900288E0FF900208E4F0A3EFF06E
:10388A007F03125AB49001F1E0FEA3E0FF90020810
:10389A00EEF0A3EFF07805C333CE33CED8F9FBAA06
:1038AA00067C277D10FF12139590020AEEF0A3EF13
:1038BA00F07C277D10AF03AE02121395A3ECF0A3A0
:1038CA00EDF07BFF7A3179667F02125AB4900113C8
:1038DA00E0541F6406700A7BFF7A3179807F018089
:1038EA0042900114E0C31313500A7BFF7A31798C9A
:1038FA007F03802F900113E0541F6408700A7BFF36
:10390A007A31799D7F04801B900114E01313543F90
:10391A00137BFF50087A3179A87F0380067A3179C0
:10392A00B87F02125AB4900115E0541F6409706FEF
:10393A00A3E0FEA3E07805C333CE33CED8F9246AD8
:10394A00FFEE34FFFE7C277D101213957E007F6404
:10395A00CFCDCFCECCCE121395AA06AB07900116C7
:10396A00E0FEA3E07805C333CE33CED8F9246AFF4C
:10397A00EE34FFFE7C277D101213957C007D6412C5
:10398A001383EF2BFFEE3AFE900202F0A3EFF07DD5
:10399A00371213837D64121395900202EE807190A0
:1039AA000116E0FEA3E0FF7C007D3B1213837D64D9
:1039BA00121395EF25E0FBEE33FA900116E0FEA311
:1039CA00E0FF7C007D3B1213837D64121395EF2B7D
:1039DA00FFEE3AFE900202F0A3EFF07C037DE812BC
:1039EA001395EF4E9002026017E0FEA3E0FF7C0001
:1039FA007D0A121395EF2401FFE43E900202801023
:103A0A00E0FEA3E0FF7C007D0A121395900202EE0D
:103A1A00F0A3EFF0900116E0FEA3E0FF900208EE9B
:103A2A00F0A3EFF07C007D21121383AA06AB077C7A
:103A3A00277D10121395A3EEF0A3EFF07C277D10DB
:103A4A00AF03AE02121395A3ECF0A3EDF0900202BD
:103A5A00E0FFA3E090020ECFF0A3EFF07BFF7A31F4
:103A6A0079C67F05125AB4900115E0541F640D708F
:103A7A000A7BFF7A3179E77F02804E900115E05484
:103A8A001F640E700A7BFF7A3179F57F03803A90C2
:103A9A000115E0541F640F700A7BFF7A3279027FA6
:103AAA00058026900115E0541F6410700A7BFF7A86
:103ABA003279127F018012900115E0541F64097057
:103ACA000B7BFF7A3279207F01125AB4900112E0FF
:103ADA00541F640470087BFF7A3279318044900164
:103AEA0012E0541F640370087BFF7A3279508032E7
:103AFA00900112E0541F640270087BFF7A32796FDA
:103B0A008020900112E0541F640170087BFF7A3212
:103B1A00798E800E900112E0541F700A7BFF7A3270
:103B2A0079AD7F028062900112E0541F6415700A19
:103B3A007BFF7A3279CC7F04804E900112E0541FC9
:103B4A006416700A7BFF7A3279E87F06803A900120
:103B5A0012E0541F6417700A7BFF7A3379047F05D9
:103B6A008026900112E0541F6418700A7BFF7A3392
:103B7A0079257F058012900112E0541F6409700BA9
:103B8A007BFF7A3379437F01125AB4900114E01310
:103B9A001313541F13500B7BFF7A33795A7F011288
:103BAA005AB47811E6C4540F640770087BFF7A335D
:103BBA00797180377811E6C4540F640170087BFF6D
:103BCA007A33798A80257811E6C4540F64027BFF20
:103BDA0070067A3379A080137A3379B97811E6C4FA
:103BEA00540FFF900208E4F0A3EFF07F06125AB4D4
:0B3BFA007BFF7A3079537F01025AB440
:105F5A00E4FFEFC3941D74809480500974222FF8D3
:055F6A00E4F60F80EDDC
:015F6F00220F
:10571600EF24E3B40A00507090572C75F003A4C52B
:105726008325F0C5837302575602574A025754021F
:10573600574F02575802578E02576002576A025750
:1057460077025783D2E9D2E822D2E8C2E92280055D
:10575600801530E817C2E8D2E92230E905C2E9D25D
:10576600E822800830E805C2E8C2E922D2E8D2E998
:105776002230E904C2E98002D2E9C2E82230E80414
:09578600C2E88002D2E8C2E92267
:03001300020026C2
:03002600C2AA3239
:03002300025D4239
:105D4200C0E0C0D075D008309819744B2571F8A600
:105D5200990571C3E571941E748094804003757136
:0F5D620000C298309904C299C202D0D0D0E0326A
:03006300025C3903
:105C3900C0E0C0D075D008E5AA54016401701A53B8
:105C4900AAFE74222542F8A69A0542C3E542941E8B
:105C5900748094804003754200E5AA54026402707E
:0B5C69000553AAFDC203D0D0D0E032EA
:0B601000E542B543037F00227F012220
:105EBB0053ADEF74222543F8E6FF0543E543C39446
:0D5ECB001E748094804003E4F54343AD1045
:015ED80022A7
:080003002003FD8F9AD20322B5
:03002B00025FF57C
:0F5FF500C0E0C2CF0548E54870020547D0E03252
:105F4200E5442FFFE433FE7C007D64121395E544A3
:075F5200B505FBE4B504F7FF
:015F59002225
:03003300025E7DED
:105E7D00C0E0C083C082C2C2C2C175878090028D4E
:0F5E8D00E0F5A8900121E4F0D082D083D0E0327C
:03003B00025E9CC6
:105E9C00C0E0C083C082C2C6C2C575878090028D27
:0F5EAC00E0F5A8900121E4F0D082D083D0E0325D
:105FC0000D0A436C656172426173696345452E2E0B
:025FD0002E00A1
:10594A007E007D007C007F05125DF6EF7F00FEC0C1
:10595A0007C0067F047E00125DF67E00EF7810C352
:10596A0033CE33CED8F9FDD0E04EFED0E04DFFC0A5
:10597A0007C0067F067E00125DF6EFFDD0E0FED07E
:09598A00E04DFFEE3395E0FDFC59
:0159930022F1
:105A26009002027401F0E4FFFE125DF6EF6430604E
:105A3600037F00227F017E00125DF6EF643760036C
:105A46007F00227F027E00125DF6EF643060037FE6
:105A560000227F037E00125DF6EF644960037F003B
:065A660022900202E0FFA5
:015A6C002217
:105F1000E4FD7F04FE125A6DE4FD7F05FE125A6D0A
:095F20007D397F067E00025A6DF6
:10515E007BFF7A5F79C0125BBD7D30E4FFFE125A91
:10516E006D7D377F017E00125A6D7D307F027E008D
:10517E00125A6D7D497F037E00125A6D7D017F109C
:10518E007E00125A6D7D277F117E00125A6DE4FD4E
:10519E007F07FE125A6DE4FD7F12FE125A6DE4FD7A
:1051AE007F13FE125A6D7D017F147E00125A6D7DA3
:1051BE00017F157E00125A6DE4FD7F16FE125A6DA8
:1051CE007D017F177E00125A6DE4FD7F18FE125A84
:1051DE006D7D017F197E00125A6DE4FD7F20FE1257
:1051EE005A6D7D017F217E00125A6DE4FD7F22FEF5
:1051FE00125A6DE4FD7F23FE125A6DE4FD7F24FEEC
:10520E00125A6DE4FD7F25FE125A6DE4FD7F26FED7
:10521E00125A6DE4FD7F27FE125A6DE4FD7F28FEC3
:03522E00025A6DB4
:0445D9004101050097
:09175800126010EF7003021CC8BE
:10176100125EBB9001FEEFF07E00647E700DC20B35
:1017710090010504F0E4900003F022EF647D4E70C7
:1017810003D20B22300B09C20B9001FEE04470F032
:10179100900105E0FB64046010900003E0FE9001FD
:1017A100FEE0FDEE6D900003F0EB24FE603B146063
:1017B1007214700302187224036003021CC89001A2
:1017C100FEE0900002F01424F8501424F924FD5096
:1017D1000E248C6011240224FB5004245A70419081
:1017E10001057402F022021CC39001FEE090000189
:1017F100F0A3E01424F8501424F924FD500E248C95
:10180100601E240224FB5004245A7014900001E04D
:1018110070028053E4900000F09001057403F022FF
:10182100021CC3900002E01424F8501424F924FD92
:10183100500E248C6038240224FB5004245A702E4C
:101841009001FEE0FF900000E02405F582E4340001
:10185100F583EFF0900000E004F0A3E0FF900000BA
:10186100E06F6003021CC89001057404F022021CA1
:10187100C39001FEE0FF900003E06F6003021CC310
:10188100900002E01216D718BC0118FF02191903C3
:10189100192204192B051A9C061AE2071C50081B71
:1018A1000D101B16111B85121C48301C77851C95C9
:1018B100861C9D881CA88900001CC390011DE04462
:1018C10001F0900115E054E04414F090011DE0FF97
:1018D100131313541F13500EEF54F7F07F131242DA
:1018E100B87F08125B3E90011DE0C3131340097DD0
:1018F1001C7F107E27124EC875B230021CC37F1C9C
:10190100125B3E90011DE0C313135003021CC37D03
:101911001C7F107E27021CA37D067FE87E03021C2C
:10192100A37D077F647E00021CA3900005E0FDC437
:10193100540F75F00AA4FFED540F7C002FFDEC3518
:10194100F0FC12114990016812167A900006E0FD30
:10195100C4540F75F00AA4FFED540F7C002FFDEC69
:1019610035F0FC12114990015612167A900007E0E9
:10197100FDC4540F75F00AA4FFED540F7C002FFD38
:10198100EC35F0FC12114990016C12167A900008A6
:10199100E0FDC4540F75F00AA4FFED540F7C002F35
:1019A100FDEC35F0FC12114990015B12167A9000A2
:1019B10009E0FDC4540F75F00AA4FFED540F7C003B
:1019C1002FFDEC35F0FC12114990017012167A903E
:1019D100000AE0FDC4540F75F00AA4FFED540F7C1A
:1019E100002FFDEC35F0FC12114990015F12167ABF
:1019F10090000BE0FDC4540F75F00AA4FFED540FE5
:101A01007C002FFDEC35F0FC121149900174121687
:101A11007A90000CE0FDC4540F75F00AA4FFED5458
:101A21000F7C002FFDEC35F0FC121149900163127F
:101A3100167A900005E0FD7F157E00125A6D900028
:101A410006E0FD7F167E00125A6D900007E0FD7FD3
:101A5100177E00125A6D900008E0FD7F187E00127B
:101A61005A6D900009E0FD7F197E00125A6D9000B9
:101A71000AE0FD7F207E00125A6D90000BE0FD7F91
:101A8100217E00125A6D90000CE0FD7F227E001233
:101A91005A6D7D0C7FE87E03021CA3900005E0C314
:101AA10094057480948050037405F0900005E0243F
:101AB100FB75F00AA4FFA3E02F9001A1F0D39428B5
:101AC1007480948040057428F0800A9001A1E0FFA1
:101AD100C374289FF07D037FF47E01124FA7021C7F
:101AE100C3900005E0FD7C00700A90011DE054FDEB
:101AF100F0021CC3ED64014C6003021CC37F1C1285
:101B01005B3E90011DE04402F0021CC37D047FE8AE
:101B11007E03021CA3900005E0703390011DE05488
:101B2100FEF07F1C125B3E7F21125B3E7F22125B27
:101B31003E7F23125B3E7F24125B3E7F25125B3E7C
:101B41007F26125B3E7D247F647E00021CA39000F1
:101B510005E06401700890011DE0440880149000C4
:101B610005E064026003021CC390011DE04408F01B
:101B71004410F07D087FE87E03124EC87F1C125B83
:101B81003E021CC3900005E0FD7C006401700E90D4
:101B9100011DE054BFF0E490029DF0802F90010AF6
:101BA100E064017027ED4C702390011DE054BFF0FB
:101BB100E490010AF0FD7F10FE125A6D90011DE0C4
:101BC100FF1313543F135004EF54FBF090010AE04C
:101BD10064017046900005E06402703E900113E0DC
:101BE1004420F090011DE054BFF0E490010AF0FDA3
:101BF1007F10FE125A6D7F137E00125DF6EF7008A2
:101C01007D017F13FE125A6D90011DE0FF131354E5
:101C11003F13501BEF54FBF0801590010AE0640163
:101C2100700D900005E06403700590029D04F07F43
:101C31000A125B3E90029DE064016003021CC37DB9
:101C41000A7F987E3A805B7D0B7FE87E038053900C
:101C51000005E0640170107D017F12FE125A6D9043
:101C610001677401F0805BE4FD7F12FE125A6DE49E
:101C7100900167F0804C900005E0640190011870BC
:101C8100057411F080037410F0900115E054E044E4
:101C910014F0802E7D0F7FE87E0380067D107FE8A3
:101CA1007E03124EC8801B900005E064017007900E
:101CB100012004F08005E4900120F0E4900294F00A
:071CC100A3F0E4900105F01F
:011CC80022F9
:045F85009291D29093
:0F5F8900E4FFEFC394017480948050030F80F302
:015F980022E6
:0B5A6D00900206EEF0A3EFF0A3EDF0B6
:105A7800900206E0FEA3E07807CEC313CE13D8F950
:105A880044A054FE900209F0125FD2900209E0FF90
:105A980012569B900206A3E0FF12569B900208E064
:0C5AA800FF12569B1200167F02025F42A4
:045DF600AD07AC0643
:105DFA00ED7807CEC313CE13D8F944A054FEFF1290
:105E0A005C74900232EFF07F02125F42900232E03D
:015E1A00FF88
:015E1B002264
:085C7400900233EFF0A3EDF004
:105C7C00125FD2900233E0FF12569B900234E0FF89
:105C8C0012569B125FD2900233E04401FF12569BD6
:105C9C00125CAD900235EFF0120016900235E0FF69
:015CAC0022D5
:105FD200D291125F89D290125F89C291125F89C2F7
:025FE20090220B
:0D001600C291125F89D290125F89D29122AF
:10569B00AE07C290EE30E703D38001C3125F85C221
:1056AB0090EE30E603D38001C3125F85C290EE30DB
:1056BB00E503D38001C3125F85C290EE30E403D3C0
:1056CB008001C3125F85C290EE30E303D38001C328
:1056DB00125F85C290EE30E203D38001C3125F8567
:1056EB00C290EE30E103D38001C3125F85C290EE0E
:1056FB0030E003D38001C3125F85C290C290C29089
:0B570B00D291D290D290D290C2902296
:105CAD00E4FED291125F89C290E4FDFCD290EE2504
:105CBD00E0FE3091034401FEC2900DBD00010CEDDC
:105CCD0064084C70E7125F89D290D290D290C29046
:025CDD00AF0610
:015CDF0022A2
:10561D00AE07C290EE30E703D38001C3125F85C29F
:10562D0090EE30E603D38001C3125F85C290EE3059
:10563D00E503D38001C3125F85C290EE30E403D33E
:10564D008001C3125F85C290EE30E303D38001C3A6
:10565D00125F85C290EE30E203D38001C3125F85E5
:10566D00C290EE30E103D38001C3125F85C290EE8C
:10567D0030E003D38001C3125F85C290C290C29007
:0E568D00D291125F89D290D290D290C2902218
:045E3D00AB07AA06FF
:105E41007E5E125FD27F5E12561DAF0312561DAFEA
:0C5E51000512561D1200167F02025F426F
:1058AB007F01125EF5EF60489002A5E06401701471
:1058BB0090010AE06401700C9002A5F07D057FF465
:1058CB007E01802990029EE06401701B90010AE02A
:1058DB006401701390029DF090029EF090010AF00B
:1058EB00FD7F10FE025A6D7D167F647E00124EC83E
:0158FB00228A
:105EF500A2019209C2012009037F0022EF6003AFCE
:0A5F05004622200003AF46227F0071
:015F0F00226F
:10578F000D0A5374617274204D61696E204C6F6FF6
:10579F00702E2E2E000D0A537461727420426F6F9B
:1057AF00742E2E2E000D0A2843616D657261566F9F
:1057BF006C743D256429000D0A28476F696E6720B8
:1057CF00746F20706F776572206F66662E2E2E298C
:1057DF00000D0A2853746172742075702020506F69
:1057EF00776572204F6E204D6F64652E2E2E290027
:0757FF0000000000000000A3
:1045DD0046011200000000000042011D00004101D3
:1045ED001800410121004101200141011C0044013D
:1045FD005100000000420119000041011B00410162
:10460D00550041014C0044014D000000004401687B
:10461D003F80000044016C3F8000004401703F80EA
:10462D0000004401743F800000440156000000006A
:10463D0044015B0000000044015F000000004401E4
:10464D0063000000004401363F8000004401403FFC
:10465D008000004401443F8000004401483F800039
:10466D00004401220000000044012A000000004423
:10467D00012E00000000440132000000004401063C
:10468D00000000004401260000000046010C00005F
:10469D000028001546013A00000028001560290188
:1046AD00780506080A0B0D0F10121416181A1C1E89
:1046BD00202225272A2C2F3235383B3E4245484BA8
:0A46CD005055585D61666B70757AF8
:105CE00075E5028DE3900207E0F5E41212F9F5E2A2
:105CF00075E64675E6B9740129F9E43AFA900207A7
:105D0000E004F0E070030D8DE3900208E014F0E091
:035D100070D3222B
:04000E0075E78122EF
:105E1C00E4900202F012000E7B017A0279029002E9
:105E2C000774FFF0A37401F07DEF125CE075E7607E
:015E3C002243
:10523100FF6DFD90024C7401F0A37402F0A374475A
:0A524100F0EFA3F07B017A02793749
:10524B00900249EBF0A3EAF0A3E9F090024FE0FFE4
:10525B00647E6005EF647D703F90024CE0FBA3E041
:10526B00FAA3E0F91212F9FF900249E0FBA3E0FA6E
:10527B00A3E0F98F82758300747D12136190024C49
:10528B00E0FBA3E0FAA3E0F9740112133F90024F85
:10529B00E0540F4450FF801090024FE0FF90024CFF
:1052AB00E0FBA3E0FAA3E0F91212F9FE900249E049
:1052BB00FBA3E0FAA3E0F98E82758300EF12136172
:1052CB0090024CE0FBA3E0FAA3E0F9740112133F48
:0352DB007F00222F
:0B537600900233EBF0A3EAF0A3E9F093
:10538100900237747EF09002477401F0EF125233AD
:10539100900236E0125231E4900248F0900236E079
:1053A100FF900248E0FEC39F501E900233E0FBA332
:1053B100E0FAA3E0F98E82758300121312125231C2
:1053C100900248E004F080D490024C7401F0A37480
:1053D10002F0A37447F0ED125243E4900248F090BA
:1053E1000247E0FFA3E0FEC39F501774372EF582FA
:1053F100E43402F583E0FF120003900248E004F078
:0454010080DD7F00CB
:015405002284
:0533CD00900226EFF064
:1033D20078277C027D017BFF7A5779FF7E007F0789
:1033E2001212D3900226E0247F6055147003023536
:1033F200E814700302361414700302362524FD709B
:1034020003023636240760030237E97F047E001286
:103412005DF6900227EFF07F057E00125DF69002C6
:1034220028EFF07F067E00125DF6900229EFF07B16
:10343200017A0279279002367403F07F800237E620
:10344200900116E0FEA3E0FF7C007D3B1213837D1A
:1034520064121395EF25E0FBEE33FA900116E0FEBD
:10346200A3E0FF7C007D3B1213837D64121395EF72
:103472002BFFEE3AAB07FA7C037DE8FE121395EFC1
:103482004E7C007D0AAF03AE026009121395EF2451
:1034920001FB8005121395AB07900227EBF0900118
:1034A200F1E0FCA3E0FDEC900229F0EDA3F0900125
:1034B2001BE0FF75F00A84C454F0FEEF75F00A8435
:1034C200E5F04E90022BF0E47B0AFAF9F890014DF8
:1034D200E0FCA3E0FDA3E0FEA3E0FF12155978048F
:1034E200121647C004C005C006C007E47B0AFAF9F9
:1034F200F890014DE0FCA3E0FDA3E0FEA3E0FF1283
:103502001559AE02AF03D003D002D001D000EF4B69
:10351200FF90022CEFF0900155E090022DF0900107
:1035220012E0F9C413135403135007900228E04425
:1035320001F0900113E0541FFD7C006406700790B7
:103542000228E04402F0ED64084C7007900228E083
:103552004404F0E9C4135407135007900228E044CE
:1035620008F0900114E0FD135007900228E0441087
:10357200F0EDC313135007900228E04420F09001AD
:1035820014E01313543F135007900228E04440F014
:1035920020804230813FD39001F2E0945A9001F1B1
:1035A200E094004030900113E0FFC413135403135E
:1035B2004023EF541F6407701CA3E0131313541F1E
:1035C200134012900112E0C41354071340079002F3
:1035D20028E04480F07B017A027927900236740752
:1035E200F07F810237E6900112E0FFC413131354F7
:1035F2000113500D9002277401F0EF547F900112D5
:10360200F07B017A0279279002367401F07F820200
:1036120037E67B017A0279279002367401F07F83C4
:103622000237E67B017A0279279002367401F07F35
:10363200840237E6900120E0640170059001268043
:1036420003900106E0FCA3E0FDA3E0FEA3E0FF90EF
:10365200022E12167A7BA07A867901780090022EC9
:10366200E0FCA3E0FDA3E0FEA3E0FF1215599002E7
:1036720027EFF0E0C454F0F090022EE0FCA3E0FD4E
:10368200A3E0FEA3E0FF7BA07A8679017800121501
:1036920059AC00AD01AE02AF0390022E12167A9021
:1036A2000227E0FFC007E47B107A27F9F890022E88
:1036B200E0FCA3E0FDA3E0FEA3E0FF121559D0E079
:1036C2004F900227F090022EE0FCA3E0FDA3E0FE63
:1036D200A3E0FFE47B107A27F9F8121559AC00AD8C
:1036E20001AE02AF0390022E12167AE47BE87A034F
:1036F200F9F890022EE0FCA3E0FDA3E0FEA3E0FFB8
:10370200121559900228EFF0E0C454F0F090022E06
:10371200E0FCA3E0FDA3E0FEA3E0FFE47BE87A0384
:10372200F9F8121559AC00AD01AE02AF0390022EAA
:1037320012167A900228E0FFC007E47B64FAF9F8D7
:1037420090022EE0FCA3E0FDA3E0FEA3E0FF121531
:1037520059D0E04F900228F090022EE0FCA3E0FD49
:10376200A3E0FEA3E0FFE47B64FAF9F8121559AC7A
:1037720000AD01AE02AF0390022E12167AE47B0A6C
:10378200FAF9F890022EE0FCA3E0FDA3E0FEA3E02C
:10379200FF121559900229EFF0E0C454F0F09002A4
:1037A2002EE0FCA3E0FDA3E0FEA3E0FFE47B0AFA27
:1037B200F9F8121559AC00AD01AE02AF0390022E1A
:1037C20012167A900229E0FB90022EA3A3A3E0FF37
:1037D200EB4F900229F07B017A027927900236742E
:0737E20003F07F871253760C
:0137E90022BD
:1058060012003E7D177F017E00124EC87D137F0178
:105816007E00124EC87D187FE87E03124EC87D15A5
:105826007F017E00124EC87D217F017E00124EC888
:105836007D127F017E00124EC87D2E7F107E2712BC
:105846004EC87D1A7F107E27124EC8900112E04482
:0358560040F022FD
:10478100900204EEF0A3EFF0A3EBF0A3EAF0A3E9AB
:01479100F037
:10479200900004121477FDD3EF9DE5F06480F8EEEB
:1047A200648098400302483590020CE0FBA3E0FAD3
:1047B200A3E0F9900004121477FFAEF012144CFD3E
:1047C200C3EF9DFFEE95F090020FF0A3EFF0900281
:1047D20006E0FBA3E0FAA3E0F9900004121477FDCF
:1047E200ACF012144CFBAAF0C3ED9BFFEC9AFE90C6
:1047F2000211F0A3EFF04E7002FF22900204E0FEDD
:10480200A3E0FFC3EF9BFFEE9AFE90020FE0FCA332
:10481200E0FD121383A3E0FCA3E0FD1213EAC0063D
:10482200C00790020CE0FBA3E0FAA3E0F912144CDB
:104832000248D990020CE0FBA3E0FAA3E0F9900051
:1048420004121477FFAEF0900002121477C39FFF98
:10485200E5F09E90020FF0A3EFF0900206E0FBA3BA
:10486200E0FAA3E0F9900004121477FFAEF0900092
:1048720002121477C39FFFE5F09EFE900211F0A38F
:10488200EFF04E7002FF22900206E0FBA3E0FAA3D3
:10489200E0F9900004121477FFAEF0AB07AA06907D
:1048A2000204E0FEA3E0FFC3EF9BFFEE9AFE90023C
:1048B2000FE0FCA3E0FD121383A3E0FCA3E0FD12D2
:1048C20013EAC006C00790020CE0FBA3E0FAA3E0E3
:1048D200F9900004121477FFAEF0D0E02FFFD0E081
:1048E2003EF9900209E0FBA3E0FAA3E0C98FF012BF
:0448F20014AF7F017F
:0148F600229F
:105B7F007E009002097401F0A37402F0A37402F086
:105B8F00A37401F0A37401F0A3743AF07B017A01BE
:105B9F00790C124781900202E0FEA3E02478F5828F
:0E5BAF0074013EF583E0FD7F027E00025E3D44
:0248F700AB070D
:1048F9009001FE12168600000000EB6401600302BD
:10490900499C7F25FE125DF6E4FCFDFE9001FE1236
:10491900167A9001FEE0FCA3E0FDA3E0FEA3E0FF10
:1049290078081216479001FE12167A9001FEE0F8F7
:10493900A3E0F9A3E0FAA3E0FBC000C001C002C0F4
:10494900037F247E00125DF6D003D002D001D0008F
:10495900EB4FFFEAFEE9FDE8FC9001FE12167A90A2
:1049690001FEE0FCA3E0FDA3E0FEA3E0FF7808124E
:1049790016479001FE12167A9001FEE0F8A3E0F9BD
:10498900A3E0FAA3E0FBC000C001C002C0037F237B
:10499900024A2B7F287E00125DF6E4FCFDFE9001A1
:1049A900FE12167A9001FEE0FCA3E0FDA3E0FEA34F
:1049B900E0FF78081216479001FE12167A9001FE60
:1049C900E0F8A3E0F9A3E0FAA3E0FBC000C001C04E
:1049D90002C0037F277E00125DF6D003D002D0010A
:1049E900D000EB4FFFEAFEE9FDE8FC9001FE12164C
:1049F9007A9001FEE0FCA3E0FDA3E0FEA3E0FF78CE
:104A0900081216479001FE12167A9001FEE0F8A3EB
:104A1900E0F9A3E0FAA3E0FBC000C001C002C003B3
:104A29007F267E00125DF6D003D002D001D000EBC4
:104A39004FFFEAFEE9FDE8FC9001FE12167A9001AB
:0C4A4900FEE0FCA3E0FDA3E0FEA3E0FF04
:014A5500223E
:103F93009001FE12168600000000900126E0FCA3AB
:103FA300E0FDA3E0FEA3E0FF90020212167A7F2554
:103FB3007E00125DF6E4FCFDFE9001FE12167A907F
:103FC30001FEE0FCA3E0FDA3E0FEA3E0FF780812FE
:103FD30016479001FE12167A9001FEE0F8A3E0F96D
:103FE300A3E0FAA3E0FBC000C001C002C0037F242A
:103FF3007E00125DF6D003D002D001D000EB4FFF5C
:10400300EAFEE9FDE8FC9001FE12167A9001FEE05B
:10401300FCA3E0FDA3E0FEA3E0FF7808121647909F
:1040230001FE12167A9001FEE0F8A3E0F9A3E0FA8C
:10403300A3E0FBC000C001C002C0037F237E0012C7
:104043005DF6D003D002D001D000EB4FFFEAFEE9CA
:10405300FDE8FC9001FE12167A900202E0FCA3E058
:10406300FDA3E0FEA3E0FF9001FEE0F8A3E0F9A3C7
:10407300E0FAA3E0FBC312160F700302412A7F3F4D
:104083007E427D0F7C00900202E0F8A3E0F9A3E0FA
:10409300FAA3E0FBD312160F4022900202E0FCA326
:1040A300E0FDA3E0FEA3E0943FFFEE9442FEED9417
:1040B3000FFDEC9400FC90020212167A900202E0CB
:1040C300FCA3A3A3E0FFE4AD077F23FE125A6D9088
:1040D3000202E0FCA3E0FDA3E0FEA3E0FF780812E8
:1040E300162090020212167A900202E0FCA3A3A308
:1040F300E0FFE4AD077F24FE125A6D900202E0FC5C
:10410300A3E0FDA3E0FEA3E0FF78081216209002CF
:104113000212167A900202E0FCA3A3A3E0FFE4AD2F
:10412300077F25FE125A6D900106E0FCA3E0FDA374
:10413300E0FEA3E0FF90020212167A7F287E0012AF
:104143005DF6E4FCFDFE9001FE12167A9001FEE09E
:10415300FCA3E0FDA3E0FEA3E0FF7808121647905E
:1041630001FE12167A9001FEE0F8A3E0F9A3E0FA4B
:10417300A3E0FBC000C001C002C0037F277E001282
:104183005DF6D003D002D001D000EB4FFFEAFEE989
:10419300FDE8FC9001FE12167A9001FEE0FCA3E01C
:1041A300FDA3E0FEA3E0FF78081216479001FE127C
:1041B300167A9001FEE0F8A3E0F9A3E0FAA3E0FB8E
:1041C300C000C001C002C0037F267E00125DF6D08E
:1041D30003D002D001D000EB4FFFEAFEE9FDE8FC7B
:1041E3009001FE12167A900202E0FCA3E0FDA3E028
:1041F300FEA3E0FF9001FEE0F8A3E0F9A3E0FAA339
:10420300E0FBC312160F70030242B77F3F7E427D6D
:104213000F7C00900202E0F8A3E0F9A3E0FAA3E028
:10422300FBD312160F4022900202E0FCA3E0FDA391
:10423300E0FEA3E0943FFFEE9442FEED940FFDEC0D
:104243009400FC90020212167A900202E0FCA3A3EF
:10425300A3E0FFE4AD077F26FE125A6D900202E051
:10426300FCA3E0FDA3E0FEA3E0FF78081216209074
:10427300020212167A900202E0FCA3A3A3E0FFE479
:10428300AD077F27FE125A6D900202E0FCA3E0FD0A
:10429300A3E0FEA3E0FF7808121620900202121694
:1042A3007A900202E0FCA3A3A3E0FFE4AD077F281A
:0442B300FE125A6D30
:0142B70022E4
:103C05007F107E00125DF690010AEFF07F117E00B5
:103C1500125DF69001A1EFF07F127E00125DF69025
:103C25000167EFF07F147E00125DF690011FEFF043
:103C35007F157E00125DF6EFC4540F75F00AA4FFE0
:103C4500AEF0C006C0077F157E00125DF6EF540F7B
:103C5500FDD0E02DFDD0E03400FC12114990016843
:103C650012167A7F167E00125DF6EFC4540F75F0BA
:103C75000AA4FFAEF0C006C0077F167E00125DF6EF
:103C8500EF540FFDD0E02DFDD0E03400FC121149BA
:103C950090015612167A7F177E00125DF6EFC45416
:103CA5000F75F00AA4FFAEF0C006C0077F177E00AF
:103CB500125DF6EF540FFDD0E02DFDD0E03400FC91
:103CC50012114990016C12167A7F187E00125DF66A
:103CD500EFC4540F75F00AA4FFAEF0C006C0077F0D
:103CE500187E00125DF6EF540FFDD0E02DFDD0E0FB
:103CF5003400FC12114990015B12167A7F197E007F
:103D0500125DF6EFC4540F75F00AA4FFAEF0C006BD
:103D1500C0077F197E00125DF6EF540FFDD0E02D30
:103D2500FDD0E03400FC12114990017012167A7F23
:103D3500207E00125DF6EFC4540F75F00AA4FFAEA5
:103D4500F0C006C0077F207E00125DF6EF540FFD20
:103D5500D0E02DFDD0E03400FC12114990015F1236
:103D6500167A7F217E00125DF6EFC4540F75F00AB6
:103D7500A4FFAEF0C006C0077F217E00125DF6EFFE
:103D8500540FFDD0E02DFDD0E03400FC1211499018
:103D9500017412167A7F227E00125DF6EFC4540F6D
:103DA50075F00AA4FFAEF0C006C0077F227E0012A0
:103DB5005DF6EF540FFDD0E02DFDD0E03400FC1290
:103DC500114990016312167A7F257E00125DF6E493
:103DD500FCFDFE90012612167A900126E0FCA3E078
:103DE500FDA3E0FEA3E0FF78081216479001261216
:103DF500167A900126E0F8A3E0F9A3E0FAA3E0FB28
:103E0500C000C001C002C0037F247E00125DF6D051
:103E150003D002D001D000EB4FFFEAFEE9FDE8FC3C
:103E250090012612167A900126E0FCA3E0FDA3E09E
:103E3500FEA3E0FF780812164790012612167A9025
:103E45000126E0F8A3E0F9A3E0FAA3E0FBC000C077
:103E550001C002C0037F237E00125DF6D003D002AD
:103E6500D001D000EB4FFFEAFEE9FDE8FC9001260A
:103E750012167A7F287E00125DF6E4FCFDFE9001A5
:103E85000612167A900106E0FCA3E0FDA3E0FEA36E
:103E9500E0FF780812164790010612167A9001067F
:103EA500E0F8A3E0F9A3E0FAA3E0FBC000C001C07D
:103EB50002C0037F277E00125DF6D003D002D00139
:103EC500D000EB4FFFEAFEE9FDE8FC900106121673
:103ED5007A900106E0FCA3E0FDA3E0FEA3E0FF78F5
:103EE5000812164790010612167A900106E0F8A30B
:103EF500E0F9A3E0FAA3E0FBC000C001C002C003E3
:103F05007F267E00125DF6D003D002D001D000EBF3
:103F15004FFFEAFEE9FDE8FC90010612167A7F13D1
:103F25007E00125DF6EF6007900113E04420F090EB
:103F35000167E06401701E90010AE0700E7D017F4B
:103F450010FE125A6D90010A7401F090011FE06491
:103F550001703A801790011FE06401701C7D017F9C
:103F650010FE125A6D90010A7401F0E4FD7F14FEF3
:103F7500125A6DE490011FF02290010AE06401706D
:0E3F85000CFD7F10FE125A6DE490010AF0222E
:105E5D00EF4488F5C5E5C520E3FBAFC6EF75F0044B
:105E6D00A4FFE5E85403FDEF4DFFE5F05403FE22DA
:07601B00E4FE7F06025E5D5A
:07602200E4FE7F07025E5D52
:102B4400200503022F8F7F0A7ED77D237C3C9001D2
:102B540056E0F8A3E0F9A3E0FAA3E0FB120F9E907D
:102B64000168E0F8A3E0F9A3E0FAA3E0FB120EADDC
:102B740090020212167A7F0A7ED77D237C3C900154
:102B84005BE0F8A3E0F9A3E0FAA3E0FB120F9E9048
:102B9400016CE0F8A3E0F9A3E0FAA3E0FB120EADA8
:102BA40090020612167A7F0A7ED77D237C3C900120
:102BB4005FE0F8A3E0F9A3E0FAA3E0FB120F9E9014
:102BC4000170E0F8A3E0F9A3E0FAA3E0FB120EAD74
:102BD40090020A12167A7F0A7ED77D237C3C9001EC
:102BE40063E0F8A3E0F9A3E0FAA3E0FB120F9E90E0
:102BF4000174E0F8A3E0F9A3E0FAA3E0FB120EAD40
:102C040090020E12167A7F007EB07DE57C4590021C
:102C140002E0F8A3E0F9A3E0FAA3E0FB120F9EE4BC
:102C2400FBFA797A78441210A790021212167A7F6E
:102C3400E17E987DD27C45900206E0F8A3E0F9A3FA
:102C4400E0FAA3E0FB120F9EE4FBFA797A784412CF
:102C540010A7900212E0F8A3E0F9A3E0FAA3E0FBC6
:102C6400120EAD90021612167A7F487EC17D2C7C1E
:102C74004690020AE0F8A3E0F9A3E0FAA3E0FB120D
:102C84000F9EE4FBFA797A78441210A7900216E0BA
:102C9400F8A3E0F9A3E0FAA3E0FB120EAD90021A48
:102CA40012167A900299E0FCA3E0FDA3E0FEA3E0F3
:102CB400FFEC334013E4900155F07B02FAF9F890ED
:102CC4000299A3A3A3E0801D9001557401F0900222
:102CD40099E0FCA3E0FDA3E0FEA3E0FF1215EBE402
:102CE4007B02FAF9F8125AFA9001FEEEF0A3EFF023
:102CF4009001FEE0FEA3E0D394F0EE9400400302C2
:102D04002D9BC3EE94005003022D9BE4FFFE7DF542
:102D14007C41900202E0F8A3E0F9A3E0FAA3E0FB0F
:102D2400120F9EC004C005C006C0079001FEE0FC5F
:102D3400A3E0FDE4121149D003D002D001D0001267
:102D44000F9EE4FBFA797A78441210A7900151128D
:102D5400167AE4FFFE7DF57C41900202E0F8A3E0E0
:102D6400F9A3E0FAA3E0FB120F9EC004C005C0065D
:102D7400C0079001FEE0FCA3E0FDE4121149D0037A
:102D8400D002D001D000120F9E121182900200EEE8
:102D9400F0A3EFF0022F019001FEE0FEA3E0FFD3C9
:102DA40094F0EE9400406BD3EF94C2EE9401506221
:102DB4007F2F7E5D7D007C42900206E0F8A3E0F95F
:102DC400A3E0FAA3E0FB120F9EC004C005C006C036
:102DD400079001FFE02410FD9001FEE034FFFCE4C5
:102DE400121149D003D002D001D000120F9EE4FB8F
:102DF400FA797A78441210A7900212E0F8A3E0F965
:102E0400A3E0FAA3E0FB120EAD90015112167A0270
:102E14002F019001FEE0FEA3E0FFD394C2EE9401E3
:102E2400406AD3EF940CEE940350617F197E047DC5
:102E3400067C4290020AE0F8A3E0F9A3E0FAA3E0DA
:102E4400FB120F9EC004C005C006C0079001FFE03E
:102E5400243EFD9001FEE034FEFCE4121149D0034F
:102E6400D002D001D000120F9EE4FBFA797A7844A4
:102E74001210A7900216E0F8A3E0F9A3E0FAA3E089
:102E8400FB120EAD90015112167A8071D39001FF9E
:102E9400E0940C9001FEE094035003022F737F81B1
:102EA4007E957D0B7C4290020EE0F8A3E0F9A3E04E
:102EB400FAA3E0FB120F9EC004C005C006C0079031
:102EC40001FFE024F4FD9001FEE034FCFCE4121167
:102ED40049D003D002D001D000120F9EE4FBFA794E
:102EE4007A78441210A790021AE0F8A3E0F9A3E05C
:102EF400FAA3E0FB120EAD90015112167A7FCD7E3B
:102F0400CC7D4C7C3D900151E0F8A3E0F9A3E0FABC
:102F1400A3E0FB120EAD12118290011BEFF07FCDE6
:102F24007ECC7D4C7C3D900151E0F8A3E0F9A3E018
:102F3400FAA3E0FB120EADE4FBFA79C87842120F53
:102F44009E12118290014D12167A90014DE0FCA35D
:102F5400E0FDA3E0FEA3E0FFE47B64FAF9F81215B8
:102F640059AC00AD01AE02AF0390014D12167AC206
:102F74000590011DE01350137F811233CD7F2E1273
:0B2F84005B3E7D2E7FE87E03124EC8EE
:012F8F00221F
:1026C100200503022B43E47B14FAF9F8900299E008
:1026D100FCA3E0FDA3E0FEA3E0FF125AFA9002067C
:1026E10012167A7F0A7ED77D237C3C900122E0F886
:1026F100A3E0F9A3E0FAA3E0FB120F9E900136E0FC
:10270100F8A3E0F9A3E0FAA3E0FB120EAD90020AF0
:1027110012167A7F0A7ED77D237C3C90012AE0F84D
:10272100A3E0F9A3E0FAA3E0FB120F9E900140E0C1
:10273100F8A3E0F9A3E0FAA3E0FB120EAD90020EBC
:1027410012167A7F0A7ED77D237C3C90012EE0F819
:10275100A3E0F9A3E0FAA3E0FB120F9E900144E08D
:10276100F8A3E0F9A3E0FAA3E0FB120EAD90021288
:1027710012167A7F0A7ED77D237C3C900132E0F8E5
:10278100A3E0F9A3E0FAA3E0FB120F9E900148E059
:10279100F8A3E0F9A3E0FAA3E0FB120EAD90021654
:1027A10012167A7F007EB07DE57C4590020AE0F842
:1027B100A3E0F9A3E0FAA3E0FB120F9EE4FBFA7990
:1027C1007A78441210A790021A12167A7FE17E9845
:1027D1007DD27C4590020EE0F8A3E0F9A3E0FAA3D4
:1027E100E0FB120F9EE4FBFA797A78441210A7906D
:1027F100021AE0F8A3E0F9A3E0FAA3E0FB120EADA0
:1028010090021E12167A7F487EC17D2C7C46900272
:1028110012E0F8A3E0F9A3E0FAA3E0FB120F9EE4B3
:10282100FBFA797A78441210A790021EE0F8A3E02F
:10283100F9A3E0FAA3E0FB120EAD90022212167A80
:10284100900206E0FCA3E0FDA3E0FEA3E0FFEC3371
:102851004013E4900155F07B02FAF9F8900206A3C7
:10286100A3A3E0801D9001557401F0900206E0FCE5
:10287100A3E0FDA3E0FEA3E0FF1215EBE47B02FA67
:10288100F9F8125AFA9001FE12167AE47FF0FEFD71
:10289100FC9001FEE0F8A3E0F9A3E0FAA3E0FBD38A
:1028A10012160F4003022955E4FFFEFDFC9001FEC4
:1028B100E0F8A3A3A3E0C312160F50030229557F2A
:1028C100667E667D0F7C4390020AE0F8A3E0F9A3DF
:1028D100E0FAA3E0FB120F9EC004C005C006C007CA
:1028E1009001FEE0FCA3E0FDA3E0FEA3E0FFE41203
:1028F1001144D003D002D001D000120F9E7B007A88
:1029010040791C78461210A790015112167AE4FF03
:10291100FE7DF57C4190020AE0F8A3E0F9A3E0FA1C
:10292100A3E0FB120F9EC004C005C006C0079001C2
:10293100FEE0FCA3E0FDA3E0FEA3E0FFE4121144EE
:10294100D003D002D001D000120F9E12118290024A
:1029510002022ABDE47FF0FEFDFC9001FEE0F8A337
:10296100E0F9A3E0FAA3E0FBD312160F4065E47F80
:10297100C27E01FDFC9001FEE0F8A3A3A3E0D31207
:10298100160F504F7F667E667D0F7C4390020AE0F2
:10299100F8A3E0F9A3E0FAA3E0FB120F9EC004C084
:1029A10005C006C0079001FEE0FCA3E0FDA3E0FE28
:1029B100A3E0FFE4121144D003D002D001D00012F1
:1029C1000F9E7B007A40791C78461210A790015126
:1029D100022ABDE47FC27E01FDFC9001FEE0F8A366
:1029E100E0F9A3E0FAA3E0FBD312160F4064E47F01
:1029F1000C7E03FDFC9001FEE0F8A3A3A3E0D3123B
:102A0100160F504E7F667E667D0F7C4390020AE072
:102A1100F8A3E0F9A3E0FAA3E0FB120F9EC004C003
:102A210005C006C0079001FEE0FCA3E0FDA3E0FEA7
:102A3100A3E0FFE4121144D003D002D001D0001270
:102A41000F9E7B007A40791C78461210A7900151A5
:102A5100806AE47F0C7E03FDFC9001FEE0F8A3E0B8
:102A6100F9A3E0FAA3E0FBD312160F5003022B27C0
:102A71007F667E667D0F7C4390020AE0F8A3E0F951
:102A8100A3E0FAA3E0FB120F9EC004C005C006C07C
:102A9100079001FEE0FCA3E0FDA3E0FEA3E0FFE45C
:102AA100121144D003D002D001D000120F9E7B003E
:102AB1007A40791C78461210A790015112167A7F3C
:102AC100CD7ECC7D4C7C3D900151E0F8A3E0F9A393
:102AD100E0FAA3E0FB120EAD12118290011BEFF0A0
:102AE100E4FFFE7DC87C42900151E0F8A3E0F9A328
:102AF100E0FAA3E0FB120F9E12118290014D121613
:102B01007A90014DE0FCA3E0FDA3E0FEA3E0FFE429
:102B11007B64FAF9F8121559AC00AD01AE02AF03AE
:102B210090014D12167AC20590011DE01350137FDA
:102B3100811233CD7F2E125B3E7D2E7FE87E031204
:022B41004EC87C
:012B4300226F
:1059DE007BFF7A57798F125BBDE4FF1248F7900177
:1059EE000612167A7F011248F790012612167A9047
:1059FE00011CE070FA1217581254921255171258D1
:105A0E00AB900120E0640170051226C18003122BB9
:085A1E004490010AE070D82257
:10559B00125859125D9E7BFF7A5779A4125BBD128C
:1055AB004DC3D2B4D2B5125F5A123C0512580690B5
:1055BB0001A1E0FF125B7F7BFF7A5779B49001A1C9
:1055CB00E0FF900208E4F0A3EFF0125BBD90011333
:1055DB00E0FFC413540713500A125ED9EF70049006
:1055EB00010AF090010AE0640178117008E654F0AA
:1055FB004402F6800BE6540F4420F654F04401F6B7
:10560B00C20090010AE0640170031259DE124CC112
:02561B0080F01D
:104CC1007BFF7A5779C6125BBD7811E654F0440137
:104CD100F690011DE0FF1313543F135004EF54FBF2
:104CE100F090011DE054FEF07F1C125B3E90011D0F
:104CF100E054BFF07F0A125B3EE4900121F0F5B26F
:104D010090029DF0123F931255171254921258AB14
:104D110090010AE06401605C900121E07029781142
:104D2100E6FFC4540F6401701E900112E0FFC4132A
:104D31001354031340119001217401F07D307F1051
:104D41007E27124EC880C0125ED9EF6401600CE567
:104D5100E8F4FF131313541F30E00CE4900121F029
:104D61007F30125B3E80A0900121E06402709812B6
:104D71005D1380937D017F147E00125A6D9002991C
:104D810012168600000000E490011BF090014D1204
:104D9100168600000000E4900155F0F542F54390BD
:104DA1000114E054FEF0A3E054E04414F07811E65D
:104DB10054F04402F67BFF7A5779E0125BBD75E748
:024DC1002022AE
:1046D70001108A41025200C187C10841025040C1FE
:0146E700864C
:1058FC001B5B306D001B5B303B33316D001B5B3031
:10590C003B33326D001B5B303B33336D001B5B3024
:10591C003B33346D001B5B303B33356D001B5B3010
:10592C003B33366D001B5B303B33376D003031320F
:0E593C0033343536373839414243444546004E
:1046E8005802A6FF58FCFF5901FF5909FF5911FF4D
:0B46F8005919FF5921FF5929FF5931C2
:081CC900E0FBA3E0FAA3E0F93F
:0B1CD100900233EBF0A3EAF0A3E9F06F
:101CDC0090024112168600000001900233E0FBA333
:101CEC00E475F001121436A9F0FA1212F9900239C7
:101CFC00F0700302221E24DB701B900233E0FBA366
:101D0C00E0FAA3E0F91212F9B42513900234E47549
:101D1C00F0011214202002FD9002390221F4C209B4
:101D2C00C20AE4900240F0900233E0FBA3E475F0A9
:101D3C0001121436A9F0FA1212F9900239F0E0FDF2
:101D4C00B4301BD209900233E0FBA3E475F001120E
:101D5C001436A9F0FA1212F9900239F0801FEDFF37
:101D6C003395E0FEC3EF9430EE64809480402CD326
:101D7C00EF9439EE648094805021900239E024D0A5
:101D8C00900240F0900233E0FBA3E475F0011214D2
:101D9C0036A9F0FA1212F9900239F090023F74024F
:101DAC00F0900239E024BE602B24E0602724F6601A
:101DBC00042420703C900233E0FBA3E475F0011284
:101DCC001436A9F0FA1212F9900239F090023F740D
:101DDC0004F0801D900233E0FBA3E475F0011214B3
:101DEC0036A9F0FA1212F9900239F090023F740100
:101DFC00F0900239E0FF24A870030220AD24F570A6
:101E0C00030221C924F0700302217C24FE600E24FD
:101E1C00FD70030220AD241460030221FC90023FEC
:101E2C00E024FE604224FE607B24036003021ECD8E
:101E3C00EF900236B46419E0FBA3E475F0011214C0
:101E4C0036A9F0FA1212F9FF3395E0FEFDFC806B17
:101E5C00E0FBA3E475F001121436A9F0FA1212F9A2
:101E6C00FFE4FCFDFE8054900239E0900236B4642D
:101E7C001BE0FBA3E475F002121436A9F0FA12145D
:101E8C004CFFAEF0EE3395E0FDFC8016E0FBA3E4D6
:101E9C0075F002121436A9F0FA12144CFFAEF0E4ED
:101EAC00FCFD8017900239E0900236E0FBA3E4754C
:101EBC00F004121436A9F0FA12165A90023B1216BC
:101ECC007A90023BE0FCA3E0FDA3E0FEA3E0FFEC74
:101EDC003350252002FD75992DD20290023BE0FC77
:101EEC00A3E0FDA3E0FEA3E0FF74FFFBFAF9F812F8
:101EFC0014CE90023B12167A900240E06003021F4F
:101F0C009390023BE0FCA3E0FDA3E0FEA3E0FFEC1A
:101F1C004D4E4F700B2002FD759930D202021CE61B
:101F2C00E4900240F0A312168600000001900240DB
:101F3C00E0C3940A74809480504D90023BE0FCA363
:101F4C00E0FDA3E0FEA3E0FF900241E0F8A3E0F97E
:101F5C00A3E0FAA3E0FB121559E4FBFAF9F8C3125B
:101F6C00160F6023900241E0FCA3E0FDA3E0FEA36A
:101F7C00E0FFE47B0AF81214CE90024112167A901C
:101F8C000240E004F080A6E490023AF09002411284
:101F9C00168600000001900240E024FFFFE434FFAD
:101FAC00FE90023AE0FD3395E0FCC3ED9FEE6480B9
:101FBC00F8EC6480985025900241E0FCA3E0FDA36E
:101FCC00E0FEA3E0FFE47B0AFAF9F81214CE9002CB
:101FDC004112167A90023AE004F080BA90023BE08B
:101FEC00FCA3E0FDA3E0FEA3E0FF900241E0F8A318
:101FFC00E0F9A3E0FAA3E0FB121559EF2430FF90AF
:10200C000239F0BF3025200922E47F01FEFDFC904F
:10201C000241E0F8A3E0F9A3E0FAA3E0FBC3121637
:10202C000F60089002397420F08002D2092002FD62
:10203C00900239E0F599D20290023BE0FCA3E0FD5E
:10204C00A3E0FEA3E0FF900241E0F8A3E0F9A3E0D7
:10205C00FAA3E0FB121559AC00AD01AE02AF039030
:10206C00023B12167A900241E0FCA3E0FDA3E0FED5
:10207C00A3E0FFE47B0AFAF9F81215599002411219
:10208C00167AE4FFFEFDFC900241E0F8A3E0F9A310
:10209C00E0FAA3E0FBC312160F6003021FE8021C58
:1020AC00E690023FE024FE602224FE603924037097
:1020BC004E900236E0FBA3E475F001121436A9F041
:1020CC00FA1212F9FFE4FCFDFE802E900236E0FBC2
:1020DC00A3E475F002121436A9F0FA12144CFFAEF8
:1020EC00F0E4FCFD8013900236E0FBA3E475F004F1
:1020FC00121436A9F0FA12165A90023B12167A9064
:10210C000240E0700890023FE025E0A3F0E490026A
:10211C003AF0900240E0FF90023AE0FD3395E0FC8B
:10212C00C3ED9F7480F86C984003021CE62002FDFE
:10213C0090023AE0FF900240E0C39F1425E025E0B6
:10214C00F990023BE0FCA3E0FDA3E0FEA3E0FFA8B6
:10215C00011216337E00EF540F2439F582EE3459F8
:10216C00F583E493F599D20290023AE004F080A250
:10217C00900236E0FBA3E475F003121436A9F0FAD2
:10218C001216B7900245EBF0A3EAF0A3E9F0900227
:10219C0045E0FBA3E0FAA3E0F91212F97003021C6C
:1021AC00E62002FD900245E0FBA3E475F001121459
:1021BC0036A9F0FA1212F9F599D20280D1900236B2
:1021CC00E0FBA3E475F002121436A9F0FA12144CD9
:1021DC00FFAEF0EE3395E0FDFC90023B12167A2038
:1021EC0002FD90023BA3A3A3E0F599D202021CE6E8
:1021FC00900236E0FBA3E475F002121436A9F0FA53
:10220C0012144CFFAEF0E4FCFD90023B12167A0265
:02221C001CE6BE
:01221E00229D
:0B5BBD00900205EBF0A3EAF0A3E9F072
:105BC8009002307401F0A37402F0A37408F09002FC
:105BD80030E0F9A3E0FAA3E0900236C9F0A3EAF0B6
:105BE800A3E9F0900205121CC9900230E4F0A3F07A
:025BF800A3F018
:015BFA002288
:0B5BFB009001FEEBF0A3EAF0A3E9F03C
:105C06009002297401F0A37402F0A37401F09002CB
:105C160029E0F9A3E0FAA3E0900236C9F0A3EAF07E
:105C2600A3E9F09001FE121CC9900229E4F0A3F04A
:025C3600A3F0D9
:015C38002249
:0E5AB400900204EFF0A3EBF0A3EAF0A3E9F0F8
:105AC2009002307401F0A37402F0A37408F0900203
:105AD20030E0F9A3E0FAA3E0900236C9F0A3EAF0BD
:105AE200A3E9F0900205121CC9900230E4F0A3F081
:075AF200A3F090020404F090
:015AF900228A
:105D71000A0D537973506F776572496E6974696161
:105D81006C2E2E4F4B2121000D0A28506F77657222
:0D5D91005377697463683D2530327829002E
:04470300021100009F
:105D9E00D283C2A1D284D282C2A1C2B7C286C2EAC3
:105DAE00C2A6C2A2D2B6C2A0D2E8D2E97FC87E00F5
:0C5DBE00125F2D7BFF7A5D7971025BFBA8
:105517007811E6FF540F14602D24FA6050240570AB
:1055270063EFC4540F601024F960082406700DE47B
:10553700FF80067F0380027F01125DCA7811E6545F
:105547000F4420F6803E7811E6C4540F600C24FE09
:10555700600C24FB700D7F0480067F0280027F06AB
:10556700125DCA7811E6540F4410F680177811E6D9
:10557700C4540F24FE70057F05125DCA7811E654E6
:105587000F4470F67811E6FF54F0C4540FFEEF5441
:04559700F04EF622BA
:1042B800900202EFF07F21125B3E7F22125B3E7F6D
:1042C80023125B3E7F24125B3E7F25125B3E7F26D6
:1042D800125B3E900202E024F770030244C224FC01
:1042E80070030243F81470030243861470030244F7
:1042F8005124FD700302450C147003024527240362
:1043080060030245557DE07F141252DE900115E0EE
:1043180054E04410F090011DE013400A90010AE0B7
:104328006401700280777811E6C4540F6407702D19
:10433800900112E0C413135403135002801A900121
:104348000AE070057D1E0244FF900112E0541F64CC
:104358000470057D240244FF7D2202454E7811E653
:10436800C4540F64027014900112E0541F64047066
:10437800057D250244FF7D1F02454E0245047D99B7
:104388007F141252DE900115E054E0440EF09001C3
:104398001DE013400D90010AE0640170057D2102C3
:1043A80044FF7811E6C4540F64077015900112E0B9
:1043B800C4131354031350047D2680027D21024543
:1043C8004E90010AE070139001F3E0700D9001F433
:1043D800E0640170057D200244FF9001F3E0700D58
:1043E8009001F4E0640170057D1D0244FF0244BEA3
:1043F800E4FD7F141252DE900115E054E0440DF004
:1044080090011DE013400D90010AE0640170057DE4
:10441800210244FF7811E6C4540F64077015900117
:1044280012E0C4131354031350047D2480027D2129
:1044380002454E9001F3E0700D9001F4E0640170C4
:10444800057D200244FF0245047D997F141252DE47
:10445800900115E054E0440FF090011DE013400D69
:1044680090010AE0640170057D210244FF7811E69D
:10447800C4540F64077015900112E0C41313540359
:104488001350047D2680027D2102454E90010AE0EA
:1044980070129001F3E0700C9001F4E06401700474
:1044A8007D2080539001F3E0700C9001F4E06401EA
:1044B80070047D1D80417D1F80447DE07F14125271
:1044C800DE900115E054E04409F090011DE013402E
:1044D8000C90010AE0640170047D21801A7811E6CD
:1044E800C4540F640270047D1F800C7811E6C45414
:1044F8000F640770077D227F64FE804E7D1E7F64F7
:104508007E00804690011DE0C4540F1350077F06BB
:104518001250858002D2827D247F647E00802B9099
:10452800011DE0C4540F13500EE4FF125085900192
:104538001DE054EFF08002C28290011DE013500488
:0E4548007D1F80027D247F647E00124EC822FB
:10508500900203EFF07BFF7A5D7989900208E4F0E6
:10509500A3EFF0125BBD900203E0B40A00400302E7
:1050A50051549050AEF82828730250CC0250CC02CF
:1050B500511B0250CC02511B02514502511B02519A
:1050C500540251540250F2C282D2B7D2EAD2A6D2C9
:1050D500A2C2B67F147E00125F2DD2A07D177FF489
:1050E5007E01124EC87D0D7FE87E03804EC283D2BD
:1050F500A17F407E00125F2DC284D28690011DE003
:10510500FF1313543F135009EF54FBF07F84123300
:10511500CD75B2308039C2A0D283D284C2A1D282E9
:10512500C2A1C2B7C2EAC2A6C2A2C286D2B69001C5
:105135001DE04420F07D2F7FB87E0B124EC8800FF6
:10514500C2A1D284C2B7C2EAC2A2C286E4F5B290B5
:095155000115E054E04414F022BD
:105DCA009001FEEFF024FE601A24FE6016146013A0
:105DDA0014601024FE600C240824F6500624F76090
:0C5DEA000280089001FEE0FF12508522AC
:10470700C10C4201AD00004201F102254201B10393
:10471700704101EF004101A5004101A7014101F3EB
:10472700004101F4014101A4004101A6004101A893
:10473700004101A9004101AA004101FD004101F723
:10474700004101A3004101F9004101B0004101F816
:10475700FF4101A2FE4101F5004101FC004101AC0E
:10476700004101AF004101F0004101F6FF4101ABFB
:09477700004101FB004101FA00C0
:045F29007FF47E0182
:105F2D00EF4E6010C20C300CFDC20CEF1F70011E45
:055F3D00144E70F22279
:105F9900EF75F003A424B4F582E43401F583E0FE3F
:045FA900A3E0FF2250
:105F7000EF75F003A424B3F582E43401F583E0C3A4
:055F800013547FFF2215
:105FAD00EF75F003A424B3F582E43401F583E054D6
:035FBD00FEF022D1
:105FE400EF75F003A424B3F582E43401F583E013E0
:015FF400228A
:105994009001ADE0FFA3E090022FCFF0A3EFF090D1
:1059A400022FE0FEA3E0FFC39001AEE09FFF900151
:1059B400ADE09EFE126004D3EF947FEE6480948089
:1059C400400F9001ADE0FFA3E090022FCFF0A3EFD2
:0959D400F090022FE0FEA3E0FFB9
:0159DD0022A7
:084B930090022AEEF0A3EFF0FE
:104B9B00E4A3F0A3F0A3F012599490022DEEF0A32E
:104BAB00EFF090022AE0FEA3E0FFE4FCFD7B487AE5
:104BBB00EEF9F8C31215F9500A90022A74EEF0A31D
:104BCB007448F090022AE0FEA3E0FF90022EE02F43
:104BDB00FF90022DE03EFEE4FCFD7B487AEEF9F8F7
:104BEB00C31215F9401F90022AE0FEA3E0FF9002CA
:104BFB002DE0FCA3E0FD2FFFEC3EFED3ED9FEC9EE2
:104C0B005003024CB8E49001ADF0A3F090022CF0ED
:104C1B0090022CE0FFC39414748094804003024CE8
:104C2B00B1EF75F003A424B3F582E43401F583E00E
:104C3B0054016401706790022CE0FF75F003A4240B
:104C4B00B4F582E43401F583E0FCA3E0FD90022D82
:104C5B00E0FAA3E0FBD3ED9BEC9A402CEF75F0034D
:104C6B00A424B4F582E43401F583C083C082C3A3CA
:104C7B00E09BFF0582D5820215831582E09AD082D4
:104C8B00D083F0A3EFF0801590022CE075F003A415
:104C9B0024B4F582E43401F583E4F0A3F090022C04
:104CAB00E004F0024C1BE490022DF0A3F090022DD7
:054CBB00E0FEA3E0FF94
:014CC00022D1
:10003E00E4FFEFC39414748094805015EF75F003B1
:10004E00A424B3F582E43401F583E054FEF00F806E
:01005E00E1C0
:01005F00227E
:064EC2007D167F647E00F6
:0B4EC800900226EEF0A3EFF0A3EDF047
:104ED300E4A3F0F0900229E0FFC39414748094805B
:104EE300502EEF75F003A424B3F582E43401F58367
:104EF300E0FF540164017010EFC313547FFF90026D
:104F030028E06F7003024FA6900229E004F080C4EA
:104F1300E4900229F0900229E0FFC3941474809472
:104F2300804003024FA6EF75F003A424B3F582E497
:104F33003401F583E0FF54017060900229E0FE75AF
:104F4300F003A424B3F582E43401F583EF4401F0C4
:104F5300900228E0547F25E0FFEE75F003A424B30C
:104F6300F582E43401F583E054014FF0900226E02A
:104F7300FEA3E0FF124B93900227E02FFF9002263F
:104F8300E03EFE900229E075F003A424B4F582E428
:104F93003401F583EEF0A3EFF022900229E004F050
:034FA300024F18A2
:014FA60022E8
:105B3E00E4FEEEC39414748094805034EE75F0033A
:105B4E00A424B3F582E43401F583E0FD540164012D
:105B5E00701BEDC313547FB50713EE75F003A42429
:105B6E00B3F582E43401F583E054FEF0220E80C2D8
:015B7E002204
:0B4FA7009001FFEEF0A3EFF0A3EDF08F
:104FB200E4A3F0F0900202E0FFC3941474809480A2
:104FC200502DEF75F003A424B3F582E43401F58388
:104FD200E0FF54016401700FEFC313547FFF90028E
:104FE20001E0B507028064900202E004F080C5E4AB
:104FF200900202F0900202E0FFC394147480948045
:105002004003025084EF75F003A424B3F582E43424
:1050120001F583E0FF54017060900202E0FE75F03A
:1050220003A424B3F582E43401F583EF4401F09044
:105032000201E0547F25E0FFEE75F003A424B3F5EE
:1050420082E43401F583E054014FF09001FFE0FE69
:10505200A3E0FF124B93900200E02FFF9001FFE0CC
:105062003EFE900202E075F003A424B4F582E4341B
:1050720001F583EEF0A3EFF022900202E004F002C9
:025082004FF6E7
:015084002209
:104A5600EF14B410004003024B92904A6E75F003B7
:104A6600A4C58325F0C58373024AA0024AA0024A60
:104A7600A0024AB4024AFC024B10024B29024B48E0
:104A8600024B92024B73024B88024B92024B8B02F3
:104A96004B92024AB8024ABC80009001A1E0FF1284
:104AA6005B7F9001A1E0FD7F117E00025A6D7F8041
:104AB60080557F878051900120E064017015FD7F4D
:104AC60023FE125A6DE4FD7F24FE125A6DE4FD7F2B
:104AD600258014E4FD7F26FE125A6DE4FD7F27FE35
:104AE600125A6DE4FD7F28FE125A6D9001061216C9
:104AF600860000000022900112E0C4131354031331
:104B06004003024B927F830233CD90011DE0FF13D9
:104B160013543F1340767811E654F04407F6EF44F9
:104B260004F02290029912168600000000E490011B
:104B36001BF090014D12168600000000E49001550E
:104B4600F02290011DE0FF131313541F135019EFA9
:104B560054F7F054FEF07F121242B87D087FB87EFB
:104B66000B124EC8E4F5B2227F130242B890011D23
:104B7600E04440F07F821233CD7D0A7F987E3A0270
:0D4B86004EC8025E1CD2B77F091250852276
:10549200E49001FEF0A3F0A3F0A3F09001FEF090DF
:1054A20001FEE0C394147480948050681259949061
:1054B2000200EEF0A3EFF09001FEE0FF125FE45075
:1054C2004B9001FEE0FF125F99D3900201E09F90A2
:1054D2000200E09E40369001FEE0FF125FAD9001B7
:1054E200FEE0FF125F709001FFEFF0C39411748031
:1054F20094805007E0FF124A5680119001FFE0FFAE
:10550200C394317480948050031200669001FEE0CF
:0455120004F0808B96
:015516002272
:10006600EF24EEB41F004003020EA590007F75F04A
:1000760003A4C58325F0C5837302016A0203EF0258
:100086000EA50207DF0207690201DE020A9C020DC5
:10009600D3020C290207CC020A7F0200E80200DC28
:1000A6000200E00200E40200ED0200F90201030290
:1000B600010D02011702012102012B020E18020E88
:1000C60037020E29020E45020E53020E620201C5C8
:1000D6000201D6020E9F7F1E800A7F1F80067F20A8
:1000E60080027F1D0257167F211257167D217FFA47
:1000F6000207BE7F211257167D22020A957F231220
:1001060057167D23020A957F241257167D24020A6C
:10011600957F251257167D25020A957F26125716BA
:100126007D26020A957F1E1257167F201257161239
:100136005F297F1E125716125F297F20125716124B
:100146005F297F1E125716125F297F20125716123B
:100156005F297F1E125716125F29900115E054E0A1
:100166004414F022125ED9EF64017024900112E06B
:10017600C4131354031340427F19125FE45008124C
:100186005B3E7D19124EC47F18125FE4502C80220C
:10019600900112E0C41313540313501E7F19125F0B
:1001A600E45008125B3E7D19124EC47F18125FE4BC
:1001B6005008125B3E7D18124EC47D12020A9590BD
:1001C600011DE01350057F811233CD7D2E020A9565
:1001D60090011DE054DFF0221260229001B1EEF092
:1001E600A3EFF012601B9001F1EEF0A3EFF0900187
:1001F600B1E0FEA3E0FFD3948AEE94025009900189
:10020600F87415F00202F4D3EF948AEE94024012C9
:10021600D3EF9499EE940250099001F87418F00205
:1002260002F4D3EF9499EE94024012D3EF94A8EE21
:10023600940250099001F87404F00202F4D3EF948A
:10024600A8EE94024012D3EF94FBEE94025009906C
:1002560001F87403F00202F4D3EF94FBEE9402402B
:1002660011D3EF9422EE940350089001F87402F033
:10027600807CD3EF9422EE94034011D3EF9450EE9A
:10028600940350089001F87401F08062D3EF945003
:10029600EE94034010D3EF9475EE94035007E49068
:1002A60001F8F08049D3EF9475EE94034013D3EF31
:1002B6009496EE9403500A90010AE064017002805D
:1002C6001F9001B1E0FEA3E0FFD39475EE940340C6
:1002D60017D3EF949FEE9403500E90010AE0700836
:1002E6009001F87416F080069001F87417F09001EA
:1002F600F8E0541FFF900112E054E04FF09001B176
:10030600E0FFA3E0900116CFF0A3EFF09001F1E03B
:10031600FEA3E0FFD394AFEE94005010EF9414EEDA
:10032600940040089001F67406F08074D3EF94AF01
:10033600EE94004011D3EF94DEEE94005008900145
:10034600F67419F0805AD3EF94DEEE9400400BD386
:10035600EF947BEE940250028040D3EF947BEE94B0
:10036600024011D3EF94E5EE940250089001F67422
:100376001AF0802CD3EF94E5EE94024011D3EF945B
:10038600A0EE940350089001F67408F080129001D4
:1003960012E04420F054E04409F09001F67407F0AE
:1003A600900115E0541F640970069001F67407F079
:1003B6009001F6E0541FFF900113E054E04FF0A2C5
:1003C60080E4339001A5F0E0FF9001F3E06F600256
:1003D600EFF0A281E4339001A7F0E0FF9001F4E092
:1003E6006F7003020EA5EFF0221260229001B1EEAB
:1003F600F0A3EFF0900116EEF0A3EFF0900112E0FB
:10040600C4135407135025E49001A4F09001A6F0FC
:100416009001A8F0A3F0A3F09001FDF09001F7F091
:100426009001A3F09001F9F09001F8F09001B1E08D
:10043600FEA3E0FFD3948AEE9402501BE49001A43D
:10044600F09001A6F09001A8F0A3F0A3F09001FDB2
:10045600E004F0E402051AD3EF948AEE9402402FEA
:10046600D3EF9499EE94025026E49001A4F0900103
:10047600A6F09001A8F0A3F0A3F09001FDF0900182
:10048600F7F09001A3F09001F9E004F0020629D3F9
:10049600EF9499EE94024022D3EF94A8EE94025082
:1004A600199001A4E004F0E49001A6F09001A8F0F0
:1004B600A3F0A3F09001FDF0805AD3EF94A8EE9438
:1004C600024027D3EF94FBEE9402501EE49001A461
:1004D600F09001A6E004F0E49001A8F0A3F0A3F0E8
:1004E6009001FDF09001F7020602D3EF94FBEE9423
:1004F60002402BD3EF9422EE94035022E49001A401
:10050600F09001A6F09001A8E004F0E4A3F0A3F0B7
:100516009001FDF09001F7F09001A3020602D3EFDF
:100526009422EE9403402BD3EF9450EE9403502282
:10053600E49001A4F09001A6F09001A8F0A3E004D5
:10054600F0E4A3F09001FDF09001F7F09001A30212
:100556000602D3EF9450EE9403402AD3EF9475EE3F
:1005660094035021E49001A4F09001A6F09001A814
:10057600F0A3F0A3E004F0E49001FDF09001F7F0A1
:100586009001A38077D3EF9475EE94034031D3EFB7
:100596009496EE9403502890010AE064017020902E
:1005A60001A4F09001A6F09001A8F0A3F0A3F090AA
:1005B60001FDF09001F7E004F0E49001A3803D9086
:1005C60001B1E0FEA3E0FFD39475EE94034030D36F
:1005D600EF949FEE9403502790010AE0702190015A
:1005E600A4F09001A6F09001A8F0A3F0A3F090016A
:1005F600FDF09001F7E004F0E49001A3F08020E420
:100606009001A4F09001A6F09001A8F0A3F0A3F049
:100616009001FDF09001F7F09001A3E004F0E49062
:1006260001F9F0C39001B2E094BC9001B1E09402EC
:1006360040089001B0E004F08005E49001B0F0902D
:1006460001A4E06414700B9001F87404F0E49001C6
:10065600A4F09001A6E06414700B9001F87403F006
:10066600E49001A6F09001A8E06414700B9001F8E4
:100676007402F0E49001A8F09001A9E06414700AF5
:100686009001F804F0E49001A9F09001AAE0641446
:1006960070089001F8F09001AAF09001FDE0641452
:1006A600700B9001F87415F0E49001FDF09001F7DD
:1006B600E064147009A37416F0E49001F7F0900159
:1006C600F9E0641470099001F87418F0E4A3F0904E
:1006D60001F7E064147009A37416F0E49001F7F0D2
:1006E6009001A3E06414700B9001F87417F0E49085
:1006F60001A3F09001F8E0FF9001A2E06F600BEF1C
:10070600F0900115E054E04414F09001B0E0641458
:100716007030900113E0FFC413540713501FEF54B9
:10072600DFF0900115E054E04414F07F137E0012D0
:100736005DF6EF6008E4FD7F13FE125A6DE490014A
:10074600B0F09001F8E0541FFF900112E054E04F22
:10075600F090010AE07D137003020A727F2C7E017D
:10076600020E9C90011DE01313543F13500978119B
:10077600E654F04402F62290010AE0640170087D16
:100786000A7F64FE020E9C90011DE0C413540713F9
:10079600402B900113E0FFC4135407135008125E58
:1007A600D9EF6401700E90010A7401F0FD7F107E8E
:1007B60000025A6D7D277F0A7E00020E9C7D167F01
:1007C600B87E0B020E9C90010AE064016003020EE3
:1007D600A57D0A7F64FE020E9C12601B9001F1EE5D
:1007E600F0A3EFF0D394AFEE94005022E09414906F
:1007F60001F1E094004017E49001F5F09001FCF05F
:100806009001ACF09001AFE004F0E40208E1900141
:10081600F1E0FEA3E0FFD394AFEE94004023D3EFC4
:1008260094DEEE9400501AE49001F5F09001FCF08D
:100836009001ACF09001AFF09001F0E004F00208F6
:10084600E5D3EF94DEEE9400401ED3EF947BEE9456
:100856000250159001F5E004F0E49001FCF09001DF
:10086600ACF09001AFF08073D3EF947BEE9402402E
:100876001FD3EF94E5EE94025016E49001F5F09044
:1008860001FCF09001ACE004F0E49001AFF0804B85
:10089600D3EF94E5EE9402401FD3EF94A0EE9403B9
:1008A6005016E49001F5F09001FCE004F0E49001AC
:1008B600ACF09001AFF08023900112E04420F05498
:1008C600E04409F09001F67407F0E49001F5F09029
:1008D60001FCF09001ACF09001AFF09001F0F090C7
:1008E60001F5E0D394037480948050309001FCE0CD
:1008F60094037480948050249001ACE09403748037
:10090600948050189001AFE0940374809480500C4A
:100916009001F0E0940374809480401F900167E09A
:100926006401701790010AE07011900112E0C4137F
:10093600540713500690010A7401F09001AFE06469
:100946000A701C9001F67406F0E49001AFF0900175
:1009560014E054FDF054FBF0900112E054DFF090E7
:1009660001F0E0640A701C9001F67419F0E490013D
:10097600F0F0900114E04402F054FBF0900112E014
:1009860054DFF09001F5E0640A701AA37407F0E4EE
:100996009001F5F0900114E054FBF054FDF0900145
:1009A60012E054DFF09001ACE0640A701C9001F68E
:1009B600741AF0E49001ACF0900114E04404F05491
:1009C600FDF0900112E054DFF09001FCE0640A7043
:1009D6001C9001F67408F0E49001FCF0900114E01C
:1009E60054FBF054FDF0900112E054DFF09001F654
:1009F600E0541FFF900113E054E04FF09001F1E046
:100A0600FEA3E0FFD394DEEE94004009D3EF9415E5
:100A1600EE9403400D9001FBE004F0E49001FAF03F
:100A2600800BE49001FBF09001FAE004F09001FBEA
:100A3600E0640A701FF0900112E0FFC41313540320
:100A4600135021EFC4135407134019900114E044C6
:100A560008F080109001FAE0640A7008F090011422
:100A6600E054F7F090010AE07D1570067F64FE02FF
:100A76000E9C7FC87E00020E9C90011DE0FFC313F2
:100A8600135003020EA5EF4408F04410F07D087FD2
:100A9600E87E03020E9C125ED9EF64016003020B2E
:100AA600EE900112E0FFC41313540313402CEF44DD
:100AB60040F0C2EAA280E4339001A5F0E0FF900185
:100AC600F3E06F6002EFF0A281E4339001A7F0E05B
:100AD600FF9001F4E06F6002EFF0900112E0C413A2
:100AE60054071350057D2C020BDF7811E6C4540F12
:100AF60064027044900113E0FF541F6407702CEFEA
:100B0600C413135403134023A3E0FF13401DEF1334
:100B16001313541F134014900113E0C41354071306
:100B260040047D2980027D28020BDF900115E054E8
:100B36001F6409704F020BD67811E6C4540F640780
:100B46007044900113E0FF541F6407702BEFC41329
:100B5600135403134022A3E0FF13401CEF13131397
:100B6600541F134013900113E0C413540713400499
:100B76007D2980027D288061900115E0541F64095B
:100B86007002804C80517811E6C4540F6401705095
:100B9600900113E0FF541F6407702BEFC413135426
:100BA60003134022A3E0FF13401CEF131313541F3B
:100BB600134013900113E0C41354071340047D2A15
:100BC60080027D288013900115E0541F6409700788
:100BD6007D2C7F64FE80067D2B7F647E00124EC8CE
:100BE6007D187F887E138035900112E054BFF0C2D5
:100BF600EA4480F0A3E054BFF0900167E06401701E
:100C06000D90010AE0640170057F821233CD7D2BC1
:100C16007FF47E01124EC87D197FF47E01124EC804
:100C2600C2EA22A280E4339001A5F0A281E43390C7
:100C360001A7F09001A5E0FF9001F3E06F60199025
:100C46000112E0C413540713400E9001F3EFF09025
:100C56000115E054E04414F09001A7E0FF9001F480
:100C6600E06F6019900112E0C413540713400E9010
:100C760001F4EFF0900115E054E04414F0900114F3
:100C8600E0FF134018900117E094FF900116E094DE
:100C960003400AEF4401900114F0124EC290011273
:100CA600E0541F24FC4003020DBC7003020DA02477
:100CB600EF6056147003020DBC24FE604C04600302
:100CC600020DCA900113E0FFC4131354031340042A
:100CD600EF4440F0900113E0FFC413540713501F74
:100CE600EF54DFF0900115E054E04414F07F137EDA
:100CF60000125DF6EF6008E4FD7F13FE125A6D9058
:100D06000114E054EFF0020DCA900113E0FFC41382
:100D1600540713402F90011DE0134028900112E064
:100D2600C41313540313401CEF4420A3F07F137E17
:100D360000125DF6EF70087D017F13FE125A6D12E8
:100D46004EC28035900112E0FF541F6415702A9040
:100D5600010AE064017022EFC4131354031340190F
:100D6600E4F0FD7F10FE125A6D90011DE0FF131393
:100D7600543F135004EF54FBF090011DE01313543D
:100D86003F1350087811E654F04402F6900113E040
:100D960054BFF0A3E04410F0802A900113E054BF42
:100DA600F090011DE01313543F1350187811E654C8
:100DB600F04402F6800E900114E04410F090011306
:100DC600E054BFF07D1A7F887E13020E9C125ED916
:100DD600EF64017027900167E06401700E90010ACC
:100DE600E070087D167F64FE124EC8900115E0542F
:100DF600E04414F07D187F647E00801020A602C2B5
:100E0600EA7D2B124EC47D197F887E13124EC8C20E
:100E1600EA22900115E0541F640E7003020EA57FAE
:100E26000E8036900115E0541F640D60727F0D80B0
:100E360028900115E0541F640F60647F0F801A909C
:100E46000115E0541F641060567F10800C90011548
:100E5600E0541F640960487F090242B8900288E0A6
:100E6600240AF0E0643C7007F0900290E004F090F1
:100E76000290E0643C7007F0900297E004F0900264
:100E860097E064187007F0900296E004F01237EAD3
:100E96007D2D7F107E27024EC89001217402F0221C
:100EA6000211EEE86480F8E933E83360110460F07B
:100EB600ED33EC337009E8FCE9FDEAFEEBFF2204B2
:100EC60060DED3EB9FEA9EE99DE8C2E78CF0C2F7AD
:100ED60095F0400CE8CCF8E9CDF9EACEFAEBCFFB79
:100EE6001211B985D0F05804700320D5B3E8047008
:100EF600075002B2D50211F892D5EC0460F7E4CCA3
:100F0600C0E0C398F8603B94186008400DD0E0FB41
:100F16000211D0E4FBFAC9FC8028E830E406E4C9F3
:100F2600FBE4CAFCE830E305E4C9CACBFCE8540795
:100F36006010F8C3E913F9EA13FAEB13FBEC13FCA0
:100F4600D8F130F52FC3E49CFCEF9BFFEE9AFEED43
:100F560099FDD0E0FBEF4E4D4C701222DB030211DF
:100F6600F5EC2CFCEF33FFEE33FEED33FDED30E711
:100F7600EB0211D0EF2BFFEE3AFEED39FDD0E0FB90
:100F860050130BBB00030211F8ED13FDEE13FEEF39
:080F960013FFEC13FC0211D063
:100F9E00EC4D6011E8497017ED33EC3304600DE44D
:100FAE00FCFFFEFD22E933E8330470F80211EE1265
:100FBE0011B958046009E4CC248150062850090266
:100FCE0011F82840030211F5C0E0EB4A7044B980D5
:100FDE0006D0E0FB0211E4EF4E701CBD8008EBFF63
:100FEE00EAFEE9FD80EBE98DF0A4FEE5F002108744
:100FFE00E9CDF9EAFEEBFFEF89F0A4FCE5F0CE892E
:10100E00F0A42EFFE435F0CD89F0A42DFEE435F0EA
:10101E008067EF4E7005BD80D780C3EF8BF0A4AC18
:10102E00F0EE8BF0A42CFCE435F0F8EF8AF0A42C53
:10103E00E5F038FCE433CB8DF0A42CFCE5F03BF866
:10104E00EE8AF0A42CFCE5F038F8E433CF89F0A456
:10105E002CFCE5F038CF3400CE89F0A42FFFE5F05C
:10106E003EFEE433C98DF0A42EFEE5F039CD8AF0B4
:10107E00A42FFFE5F03EFEE43DFD33D0E0FB50072C
:10108E000BBB000F0211F8EC2CFCEF33FFEE33FE1E
:06109E00ED33FD0211D04C
:1010A4000211F8EC5D046005E8590470030211EEC6
:1010B4001211B9580460F6EC4860F2EC7004FDFEBD
:1010C400FF22C860DB2481C85009C398600250061F
:1010D4000211F59850CAF582E9294B4A7005AB8292
:1010E4000211E475F0007C1A7880C3EF9BEE9AED50
:1010F40099400DC3EF9BFFEE9AFEED99FDE842F097
:10110400DC23ACF0D0E0FFD0E0FED0E0FDAB8220E9
:10111400E7101BEB60BAEC2CFCEF33FFEE33FEED73
:1011240033FD0211D0E803F830E705C0F075F00094
:10113400EF2FFFEE33FEED33FD40B830E7C280AA57
:1011440075F020800E75F010800575F0087D007E26
